{
  "contractName": "RevocationRegistry",
  "abi": [
    {
      "anonymous": false,
      "inputs": [
        {
          "indexed": false,
          "internalType": "address",
          "name": "revoker",
          "type": "address"
        },
        {
          "indexed": false,
          "internalType": "bytes32",
          "name": "role",
          "type": "bytes32"
        }
      ],
      "name": "Revoked",
      "type": "event"
    },
    {
      "inputs": [
        {
          "internalType": "bytes32",
          "name": "credential",
          "type": "bytes32"
        }
      ],
      "name": "revokeClaim",
      "outputs": [],
      "stateMutability": "nonpayable",
      "type": "function"
    },
    {
      "inputs": [
        {
          "internalType": "bytes32",
          "name": "credential",
          "type": "bytes32"
        }
      ],
      "name": "getRevocationDetail",
      "outputs": [
        {
          "internalType": "address[]",
          "name": "",
          "type": "address[]"
        },
        {
          "internalType": "uint256[]",
          "name": "",
          "type": "uint256[]"
        }
      ],
      "stateMutability": "view",
      "type": "function"
    }
  ],
  "bytecode": "0x608060405234801561001057600080fd5b50610727806100206000396000f3fe608060405234801561001057600080fd5b50600436106100365760003560e01c8063991a2f761461003b578063a5babbb11461006c575b600080fd5b61005560048036038101906100509190610392565b610088565b604051610063929190610510565b60405180910390f35b61008660048036038101906100819190610392565b610288565b005b60608060008060008581526020019081526020016000208054905067ffffffffffffffff8111156100bc576100bb6106a6565b5b6040519080825280602002602001820160405280156100ea5781602001602082028036833780820191505090505b50905060008060008681526020019081526020016000208054905067ffffffffffffffff81111561011e5761011d6106a6565b5b60405190808252806020026020018201604052801561014c5781602001602082028036833780820191505090505b50905060005b6000808781526020019081526020016000208054905081101561027a57600080878152602001908152602001600020818154811061019357610192610677565b5b906000526020600020906002020160000160009054906101000a900473ffffffffffffffffffffffffffffffffffffffff168382815181106101d8576101d7610677565b5b602002602001019073ffffffffffffffffffffffffffffffffffffffff16908173ffffffffffffffffffffffffffffffffffffffff1681525050600080878152602001908152602001600020818154811061023657610235610677565b5b90600052602060002090600202016001015482828151811061025b5761025a610677565b5b6020026020010181815250508080610272906105ff565b915050610152565b508181935093505050915091565b60008082815260200190815260200160002060405180604001604052803373ffffffffffffffffffffffffffffffffffffffff16815260200143815250908060018154018082558091505060019003906000526020600020906002020160009091909190915060008201518160000160006101000a81548173ffffffffffffffffffffffffffffffffffffffff021916908373ffffffffffffffffffffffffffffffffffffffff1602179055506020820151816001015550507f6e70be4be1a4aebd688b5523bd8b6278acac3963d71ebf2bd5ea50757047664b33826040516103729291906104e7565b60405180910390a150565b60008135905061038c816106da565b92915050565b6000602082840312156103a8576103a76106d5565b5b60006103b68482850161037d565b91505092915050565b60006103cb83836103ef565b60208301905092915050565b60006103e383836104d8565b60208301905092915050565b6103f8816105b9565b82525050565b610407816105b9565b82525050565b600061041882610567565b6104228185610597565b935061042d83610547565b8060005b8381101561045e57815161044588826103bf565b97506104508361057d565b925050600181019050610431565b5085935050505092915050565b600061047682610572565b61048081856105a8565b935061048b83610557565b8060005b838110156104bc5781516104a388826103d7565b97506104ae8361058a565b92505060018101905061048f565b5085935050505092915050565b6104d2816105cb565b82525050565b6104e1816105f5565b82525050565b60006040820190506104fc60008301856103fe565b61050960208301846104c9565b9392505050565b6000604082019050818103600083015261052a818561040d565b9050818103602083015261053e818461046b565b90509392505050565b6000819050602082019050919050565b6000819050602082019050919050565b600081519050919050565b600081519050919050565b6000602082019050919050565b6000602082019050919050565b600082825260208201905092915050565b600082825260208201905092915050565b60006105c4826105d5565b9050919050565b6000819050919050565b600073ffffffffffffffffffffffffffffffffffffffff82169050919050565b6000819050919050565b600061060a826105f5565b91507fffffffffffffffffffffffffffffffffffffffffffffffffffffffffffffffff82141561063d5761063c610648565b5b600182019050919050565b7f4e487b7100000000000000000000000000000000000000000000000000000000600052601160045260246000fd5b7f4e487b7100000000000000000000000000000000000000000000000000000000600052603260045260246000fd5b7f4e487b7100000000000000000000000000000000000000000000000000000000600052604160045260246000fd5b600080fd5b6106e3816105cb565b81146106ee57600080fd5b5056fea2646970667358221220c8ac3c9dade73f7abb0b4ab15a241ee0d188ee8e8c8e55240f2584251720040064736f6c63430008060033",
  "immutableReferences": {},
  "source": "pragma solidity >=0.7.0 <0.9.0;\n\n/**\n* A contract for tracking the revocations of off-chain Switchboard role claims.\n* For on-chain role revocations, see contract in iam-contracts repository.\n*/  \ncontract RevocationRegistry {\n    \n    struct RevokedClaim {\n        address revoker;\n        uint revokedTimestamp;\n    }\n    mapping (bytes32 => RevokedClaim[]) revokedClaims;\n \n    function revokeClaim(bytes32 credential) public  {\n        revokedClaims[credential].push( RevokedClaim(msg.sender, block.number));\n        emit Revoked(msg.sender, credential);\n    }\n\n    function getRevocationDetail(bytes32 credential) public view returns (address[] memory, uint[] memory) { \n        address[] memory revokers = new address[](revokedClaims[credential].length);\n        uint[] memory revokedTimestamp = new uint[](revokedClaims[credential].length);\n        for (uint i = 0; i < revokedClaims[credential].length; i++) {\n                revokers[i] = revokedClaims[credential][i].revoker;\n                revokedTimestamp[i] = revokedClaims[credential][i].revokedTimestamp;\n            }\n        return (revokers, revokedTimestamp);\n    }\n\n    event Revoked(address revoker, bytes32 role);\n}",
  "sourcePath": "/Users/ashishtripathi/Desktop/EWF/iam-contracts/contracts/roles/RevocationRegistryOnChain.sol",
  "compiler": {
    "name": "solc",
    "version": "0.8.6+commit.11564f7e.Emscripten.clang"
  },
  "schemaVersion": "3.4.2",
  "updatedAt": "2021-10-01T12:03:08.393Z",
  "devdoc": {
    "kind": "dev",
    "methods": {},
    "version": 1
  },
  "userdoc": {
    "kind": "user",
    "methods": {},
    "notice": "A contract for tracking the revocations of off-chain Switchboard role claims. For on-chain role revocations, see contract in iam-contracts repository.",
    "version": 1
  }
}