{
  "contractName": "RevocationRegistry",
  "abi": [
    {
      "anonymous": false,
      "inputs": [
        {
          "indexed": false,
          "internalType": "address",
          "name": "revoker",
          "type": "address"
        },
        {
          "indexed": false,
          "internalType": "bytes32",
          "name": "role",
          "type": "bytes32"
        },
        {
          "indexed": false,
          "internalType": "address",
          "name": "subject",
          "type": "address"
        }
      ],
      "name": "Revoked",
      "type": "event"
    },
    {
      "inputs": [
        {
          "internalType": "bytes32",
          "name": "role",
          "type": "bytes32"
        },
        {
          "internalType": "address",
          "name": "subject",
          "type": "address"
        }
      ],
      "name": "revokeClaim",
      "outputs": [],
      "stateMutability": "nonpayable",
      "type": "function"
    },
    {
      "inputs": [
        {
          "internalType": "bytes32",
          "name": "role",
          "type": "bytes32"
        },
        {
          "internalType": "address",
          "name": "subject",
          "type": "address"
        }
      ],
      "name": "isRevoked",
      "outputs": [
        {
          "internalType": "bool",
          "name": "",
          "type": "bool"
        }
      ],
      "stateMutability": "view",
      "type": "function"
    },
    {
      "inputs": [
        {
          "internalType": "bytes32",
          "name": "role",
          "type": "bytes32"
        },
        {
          "internalType": "address",
          "name": "subject",
          "type": "address"
        }
      ],
      "name": "getRevocationDetail",
      "outputs": [
        {
          "internalType": "address",
          "name": "",
          "type": "address"
        },
        {
          "internalType": "uint256",
          "name": "",
          "type": "uint256"
        }
      ],
      "stateMutability": "view",
      "type": "function"
    }
  ],
  "bytecode": "0x608060405234801561001057600080fd5b5061061c806100206000396000f3fe608060405234801561001057600080fd5b50600436106100415760003560e01c806360d6e2c01461004657806373c3370814610076578063b822773d14610092575b600080fd5b610060600480360381019061005b91906103ed565b6100c3565b60405161006d91906104ec565b60405180910390f35b610090600480360381019061008b91906103ed565b610133565b005b6100ac60048036038101906100a791906103ed565b6102ef565b6040516100ba9291906104c3565b60405180910390f35b60008060008085815260200190815260200160002060008473ffffffffffffffffffffffffffffffffffffffff1673ffffffffffffffffffffffffffffffffffffffff168152602001908152602001600020600101541415610128576000905061012d565b600190505b92915050565b600080600084815260200190815260200160002060008373ffffffffffffffffffffffffffffffffffffffff1673ffffffffffffffffffffffffffffffffffffffff16815260200190815260200160002060010154146101c8576040517f08c379a00000000000000000000000000000000000000000000000000000000081526004016101bf90610507565b60405180910390fd5b3360008084815260200190815260200160002060008373ffffffffffffffffffffffffffffffffffffffff1673ffffffffffffffffffffffffffffffffffffffff16815260200190815260200160002060000160006101000a81548173ffffffffffffffffffffffffffffffffffffffff021916908373ffffffffffffffffffffffffffffffffffffffff1602179055504360008084815260200190815260200160002060008373ffffffffffffffffffffffffffffffffffffffff1673ffffffffffffffffffffffffffffffffffffffff168152602001908152602001600020600101819055507f15f61124e5cb7b3055be040ec154cce1f708ce3b55478e5a5657ca9c6eff66703383836040516102e39392919061048c565b60405180910390a15050565b60008060008085815260200190815260200160002060008473ffffffffffffffffffffffffffffffffffffffff1673ffffffffffffffffffffffffffffffffffffffff16815260200190815260200160002060000160009054906101000a900473ffffffffffffffffffffffffffffffffffffffff1660008086815260200190815260200160002060008573ffffffffffffffffffffffffffffffffffffffff1673ffffffffffffffffffffffffffffffffffffffff16815260200190815260200160002060010154915091509250929050565b6000813590506103d2816105b8565b92915050565b6000813590506103e7816105cf565b92915050565b600080604083850312156104045761040361058a565b5b6000610412858286016103d8565b9250506020610423858286016103c3565b9150509250929050565b61043681610538565b82525050565b6104458161054a565b82525050565b61045481610556565b82525050565b6000610467601c83610527565b91506104728261058f565b602082019050919050565b61048681610580565b82525050565b60006060820190506104a1600083018661042d565b6104ae602083018561044b565b6104bb604083018461042d565b949350505050565b60006040820190506104d8600083018561042d565b6104e5602083018461047d565b9392505050565b6000602082019050610501600083018461043c565b92915050565b600060208201905081810360008301526105208161045a565b9050919050565b600082825260208201905092915050565b600061054382610560565b9050919050565b60008115159050919050565b6000819050919050565b600073ffffffffffffffffffffffffffffffffffffffff82169050919050565b6000819050919050565b600080fd5b7f54686520636c61696d20697320616c7265616479207265766f6b656400000000600082015250565b6105c181610538565b81146105cc57600080fd5b50565b6105d881610556565b81146105e357600080fd5b5056fea264697066735822122038144ce9a1b2f75b834c6084a5b46ec187c3a6e6642e964220d177fa5191a0aa64736f6c63430008060033",
  "immutableReferences": {},
  "source": "// SPDX-License-Identifier: GPL-3.0\n\npragma solidity >=0.7.0 <0.9.0;\n    \ncontract RevocationRegistry {\n    \n    struct RevokedClaim {\n        address revoker;\n        uint revokedTimestamp;\n    }\n    mapping (bytes32 => mapping(address => RevokedClaim)) revokedClaims;\n \n    function revokeClaim(bytes32 role, address subject) public  { \n        require(revokedClaims[role][subject].revokedTimestamp == 0, \"The claim is already revoked\");\n        revokedClaims[role][subject].revoker = msg.sender;\n        revokedClaims[role][subject].revokedTimestamp = block.number;\n        emit Revoked(msg.sender, role, subject);\n    }\n \n    function isRevoked(bytes32 role, address subject) public view returns (bool) { \n        if (revokedClaims[role][subject].revokedTimestamp == 0) { \n            return false;\n        }\n        else { \n            return true; \n        }\n    }\n\n    function getRevocationDetail(bytes32 role, address subject) public view returns (address, uint) { \n        return (revokedClaims[role][subject].revoker, revokedClaims[role][subject].revokedTimestamp);\n    }\n\n    event Revoked(address revoker, bytes32 role, address subject);\n}",
  "sourcePath": "/Users/ashishtripathi/Desktop/EWF/iam-contracts/contracts/roles/RevocationRegistryOnChain.sol",
  "compiler": {
    "name": "solc",
    "version": "0.8.6+commit.11564f7e.Emscripten.clang"
  },
  "schemaVersion": "3.4.2",
  "updatedAt": "2021-09-30T11:11:29.611Z",
  "devdoc": {
    "kind": "dev",
    "methods": {},
    "version": 1
  },
  "userdoc": {
    "kind": "user",
    "methods": {},
    "version": 1
  }
}