{
	"contractName": "RevocationRegistryOnChain",
	"abi": [
		{
			"inputs": [
				{
					"internalType": "address",
					"name": "_didRegistry",
					"type": "address"
				},
				{
					"internalType": "address",
					"name": "_ensRegistry",
					"type": "address"
				},
				{
					"internalType": "address",
					"name": "_claimManager",
					"type": "address"
				}
			],
			"stateMutability": "nonpayable",
			"type": "constructor"
		},
		{
			"anonymous": false,
			"inputs": [
				{
					"indexed": false,
					"internalType": "bytes32",
					"name": "role",
					"type": "bytes32"
				},
				{
					"indexed": false,
					"internalType": "address",
					"name": "subject",
					"type": "address"
				},
				{
					"indexed": false,
					"internalType": "address",
					"name": "revoker",
					"type": "address"
				}
			],
			"name": "Revoked",
			"type": "event"
		},
		{
			"inputs": [
				{
					"internalType": "bytes32",
					"name": "role",
					"type": "bytes32"
				},
				{
					"internalType": "address",
					"name": "subject",
					"type": "address"
				},
				{
					"internalType": "address",
					"name": "revoker",
					"type": "address"
				}
			],
			"name": "revokeClaim",
			"outputs": [],
			"stateMutability": "nonpayable",
			"type": "function"
		},
		{
			"inputs": [
				{
					"internalType": "bytes32",
					"name": "role",
					"type": "bytes32"
				},
				{
					"internalType": "address[]",
					"name": "subjects",
					"type": "address[]"
				},
				{
					"internalType": "address",
					"name": "revoker",
					"type": "address"
				}
			],
			"name": "revokeClaimsInList",
			"outputs": [],
			"stateMutability": "nonpayable",
			"type": "function"
		},
		{
			"inputs": [
				{
					"internalType": "bytes32",
					"name": "role",
					"type": "bytes32"
				},
				{
					"internalType": "address",
					"name": "subject",
					"type": "address"
				}
			],
			"name": "isRevoked",
			"outputs": [
				{
					"internalType": "bool",
					"name": "",
					"type": "bool"
				}
			],
			"stateMutability": "view",
			"type": "function"
		},
		{
			"inputs": [
				{
					"internalType": "bytes32",
					"name": "role",
					"type": "bytes32"
				},
				{
					"internalType": "address",
					"name": "subject",
					"type": "address"
				}
			],
			"name": "getRevocationDetail",
			"outputs": [
				{
					"internalType": "address",
					"name": "",
					"type": "address"
				},
				{
					"internalType": "uint256",
					"name": "",
					"type": "uint256"
				}
			],
			"stateMutability": "view",
			"type": "function"
		}
	],
	"bytecode": "0x60806040523480156200001157600080fd5b506040516200167d3803806200167d83398181016040528101906200003791906200011a565b82600160006101000a81548173ffffffffffffffffffffffffffffffffffffffff021916908373ffffffffffffffffffffffffffffffffffffffff16021790555081600260006101000a81548173ffffffffffffffffffffffffffffffffffffffff021916908373ffffffffffffffffffffffffffffffffffffffff16021790555080600360006101000a81548173ffffffffffffffffffffffffffffffffffffffff021916908373ffffffffffffffffffffffffffffffffffffffff160217905550505050620001c9565b6000815190506200011481620001af565b92915050565b600080600060608486031215620001365762000135620001aa565b5b6000620001468682870162000103565b9350506020620001598682870162000103565b92505060406200016c8682870162000103565b9150509250925092565b600062000183826200018a565b9050919050565b600073ffffffffffffffffffffffffffffffffffffffff82169050919050565b600080fd5b620001ba8162000176565b8114620001c657600080fd5b50565b6114a480620001d96000396000f3fe608060405234801561001057600080fd5b506004361061004c5760003560e01c806360d6e2c014610051578063673ab20614610081578063b822773d1461009d578063f3234749146100ce575b600080fd5b61006b60048036038101906100669190610d32565b6100ea565b6040516100789190610fc5565b60405180910390f35b61009b60048036038101906100969190610d72565b61015a565b005b6100b760048036038101906100b29190610d32565b610321565b6040516100c5929190610f9c565b60405180910390f35b6100e860048036038101906100e39190610dc5565b6103f5565b005b60008060008085815260200190815260200160002060008473ffffffffffffffffffffffffffffffffffffffff1673ffffffffffffffffffffffffffffffffffffffff16815260200190815260200160002060010154141561014f5760009050610154565b600190505b92915050565b600080600085815260200190815260200160002060008473ffffffffffffffffffffffffffffffffffffffff1673ffffffffffffffffffffffffffffffffffffffff16815260200190815260200160002060010154146101ef576040517f08c379a00000000000000000000000000000000000000000000000000000000081526004016101e690611092565b60405180910390fd5b6101f98382610644565b8060008085815260200190815260200160002060008473ffffffffffffffffffffffffffffffffffffffff1673ffffffffffffffffffffffffffffffffffffffff16815260200190815260200160002060000160006101000a81548173ffffffffffffffffffffffffffffffffffffffff021916908373ffffffffffffffffffffffffffffffffffffffff1602179055504360008085815260200190815260200160002060008473ffffffffffffffffffffffffffffffffffffffff1673ffffffffffffffffffffffffffffffffffffffff168152602001908152602001600020600101819055507f0eacc78f9b7825280a64d8c70d21fdba612299a49e580dd9dcaa9e84325611b083838360405161031493929190610ffb565b60405180910390a1505050565b60008060008085815260200190815260200160002060008473ffffffffffffffffffffffffffffffffffffffff1673ffffffffffffffffffffffffffffffffffffffff16815260200190815260200160002060000160009054906101000a900473ffffffffffffffffffffffffffffffffffffffff1660008086815260200190815260200160002060008573ffffffffffffffffffffffffffffffffffffffff1673ffffffffffffffffffffffffffffffffffffffff16815260200190815260200160002060010154915091509250929050565b6103ff8382610644565b60005b825181101561063e576000806000868152602001908152602001600020600085848151811061043457610433611241565b5b602002602001015173ffffffffffffffffffffffffffffffffffffffff1673ffffffffffffffffffffffffffffffffffffffff16815260200190815260200160002060010154146104ba576040517f08c379a00000000000000000000000000000000000000000000000000000000081526004016104b190611092565b60405180910390fd5b8160008086815260200190815260200160002060008584815181106104e2576104e1611241565b5b602002602001015173ffffffffffffffffffffffffffffffffffffffff1673ffffffffffffffffffffffffffffffffffffffff16815260200190815260200160002060000160006101000a81548173ffffffffffffffffffffffffffffffffffffffff021916908373ffffffffffffffffffffffffffffffffffffffff16021790555043600080868152602001908152602001600020600085848151811061058d5761058c611241565b5b602002602001015173ffffffffffffffffffffffffffffffffffffffff1673ffffffffffffffffffffffffffffffffffffffff168152602001908152602001600020600101819055507f0eacc78f9b7825280a64d8c70d21fdba612299a49e580dd9dcaa9e84325611b08484838151811061060b5761060a611241565b5b60200260200101518460405161062393929190610ffb565b60405180910390a18080610636906111c9565b915050610402565b50505050565b6000600260009054906101000a900473ffffffffffffffffffffffffffffffffffffffff1673ffffffffffffffffffffffffffffffffffffffff16630178b8bf846040518263ffffffff1660e01b81526004016106a19190610fe0565b60206040518083038186803b1580156106b957600080fd5b505afa1580156106cd573d6000803e3d6000fd5b505050506040513d601f19601f820116820180604052508101906106f19190610c7c565b90506000808273ffffffffffffffffffffffffffffffffffffffff166374d3013a866040518263ffffffff1660e01b815260040161072f9190610fe0565b60006040518083038186803b15801561074757600080fd5b505afa15801561075b573d6000803e3d6000fd5b505050506040513d6000823e3d601f19601f820116820180604052508101906107849190610ca9565b9150915060008251111561093d576000600160009054906101000a900473ffffffffffffffffffffffffffffffffffffffff16905060005b8351811015610901578573ffffffffffffffffffffffffffffffffffffffff168482815181106107ef576107ee611241565b5b602002602001015173ffffffffffffffffffffffffffffffffffffffff1614806108df57508173ffffffffffffffffffffffffffffffffffffffff1663622b2a3c85838151811061084357610842611241565b5b60200260200101517f766572694b65790000000000000000000000000000000000000000000000000060001b896040518463ffffffff1660e01b815260040161088e93929190610f2e565b60206040518083038186803b1580156108a657600080fd5b505afa1580156108ba573d6000803e3d6000fd5b505050506040513d601f19601f820116820180604052508101906108de9190610d05565b5b156108ee575050505050610ad3565b80806108f9906111c9565b9150506107bc565b506040517f08c379a0000000000000000000000000000000000000000000000000000000008152600401610934906110b2565b60405180910390fd5b60008114610a98576000600360009054906101000a900473ffffffffffffffffffffffffffffffffffffffff16905060008173ffffffffffffffffffffffffffffffffffffffff166395df7b1e878560006040518463ffffffff1660e01b81526004016109ac93929190610f65565b60206040518083038186803b1580156109c457600080fd5b505afa1580156109d8573d6000803e3d6000fd5b505050506040513d601f19601f820116820180604052508101906109fc9190610d05565b90508015610a5d576000610a1084886100ea565b905080610a2257505050505050610ad3565b6040517f08c379a0000000000000000000000000000000000000000000000000000000008152600401610a5490611072565b60405180910390fd5b6040517f08c379a0000000000000000000000000000000000000000000000000000000008152600401610a8f90611032565b60405180910390fd5b6040517f08c379a0000000000000000000000000000000000000000000000000000000008152600401610aca90611052565b60405180910390fd5b5050565b6000610aea610ae5846110f7565b6110d2565b90508083825260208201905082856020860282011115610b0d57610b0c6112a4565b5b60005b85811015610b3d5781610b238882610bb7565b845260208401935060208301925050600181019050610b10565b5050509392505050565b6000610b5a610b55846110f7565b6110d2565b90508083825260208201905082856020860282011115610b7d57610b7c6112a4565b5b60005b85811015610bad5781610b938882610bcc565b845260208401935060208301925050600181019050610b80565b5050509392505050565b600081359050610bc681611429565b92915050565b600081519050610bdb81611429565b92915050565b600082601f830112610bf657610bf561129f565b5b8135610c06848260208601610ad7565b91505092915050565b600082601f830112610c2457610c2361129f565b5b8151610c34848260208601610b47565b91505092915050565b600081519050610c4c81611440565b92915050565b600081359050610c6181611457565b92915050565b600081519050610c7681611457565b92915050565b600060208284031215610c9257610c916112ae565b5b6000610ca084828501610bcc565b91505092915050565b60008060408385031215610cc057610cbf6112ae565b5b600083015167ffffffffffffffff811115610cde57610cdd6112a9565b5b610cea85828601610c0f565b9250506020610cfb85828601610c67565b9150509250929050565b600060208284031215610d1b57610d1a6112ae565b5b6000610d2984828501610c3d565b91505092915050565b60008060408385031215610d4957610d486112ae565b5b6000610d5785828601610c52565b9250506020610d6885828601610bb7565b9150509250929050565b600080600060608486031215610d8b57610d8a6112ae565b5b6000610d9986828701610c52565b9350506020610daa86828701610bb7565b9250506040610dbb86828701610bb7565b9150509250925092565b600080600060608486031215610dde57610ddd6112ae565b5b6000610dec86828701610c52565b935050602084013567ffffffffffffffff811115610e0d57610e0c6112a9565b5b610e1986828701610be1565b9250506040610e2a86828701610bb7565b9150509250925092565b610e3d81611134565b82525050565b610e4c81611146565b82525050565b610e5b81611152565b82525050565b610e6a81611186565b82525050565b6000610e7d603883611123565b9150610e88826112c4565b604082019050919050565b6000610ea0603483611123565b9150610eab82611313565b604082019050919050565b6000610ec3603483611123565b9150610ece82611362565b604082019050919050565b6000610ee6601c83611123565b9150610ef1826113b1565b602082019050919050565b6000610f09604083611123565b9150610f14826113da565b604082019050919050565b610f288161117c565b82525050565b6000606082019050610f436000830186610e34565b610f506020830185610e52565b610f5d6040830184610e34565b949350505050565b6000606082019050610f7a6000830186610e34565b610f876020830185610e52565b610f946040830184610e61565b949350505050565b6000604082019050610fb16000830185610e34565b610fbe6020830184610f1f565b9392505050565b6000602082019050610fda6000830184610e43565b92915050565b6000602082019050610ff56000830184610e52565b92915050565b60006060820190506110106000830186610e52565b61101d6020830185610e34565b61102a6040830184610e34565b949350505050565b6000602082019050818103600083015261104b81610e70565b9050919050565b6000602082019050818103600083015261106b81610e93565b9050919050565b6000602082019050818103600083015261108b81610eb6565b9050919050565b600060208201905081810360008301526110ab81610ed9565b9050919050565b600060208201905081810360008301526110cb81610efc565b9050919050565b60006110dc6110ed565b90506110e88282611198565b919050565b6000604051905090565b600067ffffffffffffffff82111561111257611111611270565b5b602082029050602081019050919050565b600082825260208201905092915050565b600061113f8261115c565b9050919050565b60008115159050919050565b6000819050919050565b600073ffffffffffffffffffffffffffffffffffffffff82169050919050565b6000819050919050565b60006111918261117c565b9050919050565b6111a1826112b3565b810181811067ffffffffffffffff821117156111c0576111bf611270565b5b80604052505050565b60006111d48261117c565b91507fffffffffffffffffffffffffffffffffffffffffffffffffffffffffffffffff82141561120757611206611212565b5b600182019050919050565b7f4e487b7100000000000000000000000000000000000000000000000000000000600052601160045260246000fd5b7f4e487b7100000000000000000000000000000000000000000000000000000000600052603260045260246000fd5b7f4e487b7100000000000000000000000000000000000000000000000000000000600052604160045260246000fd5b600080fd5b600080fd5b600080fd5b600080fd5b6000601f19601f8301169050919050565b7f5265766f636174696f6e2052656769737472793a205265766f6b657220646f6560008201527f73206e6f74206861766520726571756972656420726f6c650000000000000000602082015250565b7f5265766f636174696f6e2052656769737472793a20526f6c65207265766f6b6560008201527f727320617265206e6f7420737065636966696564000000000000000000000000602082015250565b7f5265766f636174696f6e2052656769737472793a205265766f6b65722773207260008201527f6f6c6520686173206265656e207265766f6b6564000000000000000000000000602082015250565b7f54686520636c61696d20697320616c7265616479207265766f6b656400000000600082015250565b7f5265766f636174696f6e2052656769737472793a205265766f6b65722069732060008201527f6e6f74206c697374656420696e20726f6c65207265766f6b657273206c697374602082015250565b61143281611134565b811461143d57600080fd5b50565b61144981611146565b811461145457600080fd5b50565b61146081611152565b811461146b57600080fd5b5056fea2646970667358221220d25e87809d87369abe6fda670d502212ef384e9f39a3e3c917fa6e17a77da2c864736f6c63430008060033",
	"immutableReferences": {},
	"source": "// SPDX-License-Identifier: GPL-3.0\n\npragma solidity >= 0.7.0 < 0.9.0;\n\nimport \"@ensdomains/ens-contracts/contracts/registry/ENSRegistry.sol\";\nimport \"@openzeppelin/contracts/utils/cryptography/ECDSA.sol\";\nimport \"@openzeppelin/contracts/utils/introspection/ERC165Checker.sol\";\nimport \"@ew-did-registry/proxyidentity/contracts/IOwned.sol\";\nimport \"./RoleDefinitionResolver.sol\";\nimport {ClaimManager} from \"./ClaimManager.sol\";\n\ninterface EthereumDIDRegistry {\n    function identityOwner(address identity) external view returns(address);\n    function validDelegate(address identity, bytes32 delegateType, address delegate) external view returns(bool);\n}\n    \ncontract RevocationRegistryOnChain {\n    bytes32 constant private ASSERTION_DELEGATE_TYPE = 0x766572694b657900000000000000000000000000000000000000000000000000;\n\n    struct RevokedClaim {\n        address revoker;\n        uint revokedTimestamp;\n    }\n\n    mapping (bytes32 => mapping(address => RevokedClaim)) revokedClaims;\n    address private didRegistry;\n    address private ensRegistry;\n    address private claimManager;\n    \n    event Revoked(bytes32 role, address subject, address revoker);\n\n    constructor(address _didRegistry, address _ensRegistry, address _claimManager){\n        didRegistry = _didRegistry;\n        ensRegistry = _ensRegistry;\n        claimManager = _claimManager;\n    }\n\n    function revokeClaim(bytes32 role, address subject, address revoker) public {\n        require(revokedClaims[role][subject].revokedTimestamp == 0, \"The claim is already revoked\");\n        verifyRevoker(role, revoker);\n        revokedClaims[role][subject].revoker = revoker;\n        revokedClaims[role][subject].revokedTimestamp = block.number;\n        emit Revoked(role, subject, revoker);\n    }\n\n    function revokeClaimsInList(bytes32 role, address [] memory subjects, address revoker) public{\n        verifyRevoker(role, revoker);\n        for(uint i=0; i<subjects.length ; i++) {\n            require(revokedClaims[role][subjects[i]].revokedTimestamp == 0, \"The claim is already revoked\");\n            revokedClaims[role][subjects[i]].revoker = revoker;\n            revokedClaims[role][subjects[i]].revokedTimestamp = block.number;\n            emit Revoked(role, subjects[i], revoker);\n        }\n    }\n\n    function verifyRevoker(bytes32 role, address revoker) internal view {\n        address resolver = ENSRegistry(ensRegistry).resolver(role);\n        (address[] memory dids, bytes32 revoker_role) = RevokersResolver(resolver).revokers(role);\n        if (dids.length > 0) {\n          EthereumDIDRegistry registry = EthereumDIDRegistry(didRegistry);\n            for (uint i = 0; i < dids.length; i++) {\n                if (dids[i] == revoker || registry.validDelegate(dids[i], ASSERTION_DELEGATE_TYPE, revoker)) {\n                    return;\n                }\n            }\n            revert(\"Revocation Registry: Revoker is not listed in role revokers list\");\n        } else if (revoker_role != \"\") {\n            ClaimManager cm = ClaimManager(claimManager);\n            bool hasRole = cm.hasRole(revoker, revoker_role, 0);\n            if (hasRole) {\n                bool roleStatus = isRevoked(revoker_role, revoker);\n                if (!roleStatus) {\n                    return;\n                } else {\n                    revert(\"Revocation Registry: Revoker's role has been revoked\");\n                }\n            }\n            revert(\"Revocation Registry: Revoker does not have required role\");\n        } else {\n            revert(\"Revocation Registry: Role revokers are not specified\");\n        }\n    }\n\n    function isRevoked(bytes32 role, address subject) public view returns(bool) {\n        if (revokedClaims[role][subject].revokedTimestamp == 0) {\n            return false;\n        }\n        else {\n            return true;\n        }\n    }\n\n    function getRevocationDetail(bytes32 role, address subject) public view returns (address, uint) { \n        return (revokedClaims[role][subject].revoker, revokedClaims[role][subject].revokedTimestamp);\n    }\n}\n",
	"sourcePath": "/Users/ashishtripathi/Desktop/EWF/iam-contracts/contracts/roles/RevocationRegistryOnChain.sol",
	"compiler": {
		"name": "solc",
		"version": "0.8.6+commit.11564f7e.Emscripten.clang"
	},
	"schemaVersion": "3.4.2",
	"updatedAt": "2021-09-30T11:04:20.125Z",
	"devdoc": {
		"kind": "dev",
		"methods": {},
		"version": 1
	},
	"userdoc": {
		"kind": "user",
		"methods": {},
		"version": 1
	}
}