{
	"contractName": "RevocationRegistryOnChain",
	"abi": [
		{
			"inputs": [
				{
					"internalType": "address",
					"name": "_didRegistry",
					"type": "address"
				},
				{
					"internalType": "address",
					"name": "_ensRegistry",
					"type": "address"
				},
				{
					"internalType": "address",
					"name": "_claimManager",
					"type": "address"
				}
			],
			"stateMutability": "nonpayable",
			"type": "constructor"
		},
		{
			"anonymous": false,
			"inputs": [
				{
					"indexed": false,
					"internalType": "address",
					"name": "revoker",
					"type": "address"
				},
				{
					"indexed": false,
					"internalType": "bytes32",
					"name": "claimDigest",
					"type": "bytes32"
				}
			],
			"name": "Revoked",
			"type": "event"
		},
		{
			"inputs": [
				{
					"internalType": "bytes32",
					"name": "claimDigest",
					"type": "bytes32"
				},
				{
					"internalType": "bytes32",
					"name": "role",
					"type": "bytes32"
				},
				{
					"internalType": "address",
					"name": "revoker",
					"type": "address"
				},
				{
					"internalType": "bytes32",
					"name": "revokerRoleDigest",
					"type": "bytes32"
				}
			],
			"name": "revokeClaim",
			"outputs": [],
			"stateMutability": "nonpayable",
			"type": "function"
		},
		{
			"inputs": [
				{
					"internalType": "bytes32[]",
					"name": "claimList",
					"type": "bytes32[]"
				},
				{
					"internalType": "bytes32",
					"name": "role",
					"type": "bytes32"
				},
				{
					"internalType": "address",
					"name": "revoker",
					"type": "address"
				},
				{
					"internalType": "bytes32",
					"name": "revokerRoleDigest",
					"type": "bytes32"
				}
			],
			"name": "revokeClaimInList",
			"outputs": [],
			"stateMutability": "nonpayable",
			"type": "function"
		},
		{
			"inputs": [
				{
					"internalType": "bytes32",
					"name": "claimDigest",
					"type": "bytes32"
				}
			],
			"name": "isRevoked",
			"outputs": [
				{
					"internalType": "bool",
					"name": "",
					"type": "bool"
				}
			],
			"stateMutability": "view",
			"type": "function"
		}
	],
	"bytecode": "0x60806040523480156200001157600080fd5b506040516200140a3803806200140a83398181016040528101906200003791906200011a565b82600160006101000a81548173ffffffffffffffffffffffffffffffffffffffff021916908373ffffffffffffffffffffffffffffffffffffffff16021790555081600260006101000a81548173ffffffffffffffffffffffffffffffffffffffff021916908373ffffffffffffffffffffffffffffffffffffffff16021790555080600360006101000a81548173ffffffffffffffffffffffffffffffffffffffff021916908373ffffffffffffffffffffffffffffffffffffffff160217905550505050620001c9565b6000815190506200011481620001af565b92915050565b600080600060608486031215620001365762000135620001aa565b5b6000620001468682870162000103565b9350506020620001598682870162000103565b92505060406200016c8682870162000103565b9150509250925092565b600062000183826200018a565b9050919050565b600073ffffffffffffffffffffffffffffffffffffffff82169050919050565b600080fd5b620001ba8162000176565b8114620001c657600080fd5b50565b61123180620001d96000396000f3fe608060405234801561001057600080fd5b50600436106100415760003560e01c80634294857f146100465780634909d98514610076578063e0e7b02b14610092575b600080fd5b610060600480360381019061005b9190610b47565b6100ae565b60405161006d9190610d5d565b60405180910390f35b610090600480360381019061008b9190610a97565b6100e0565b005b6100ac60048036038101906100a79190610b74565b6102ac565b005b6000806000808481526020019081526020016000206001015414156100d657600090506100db565b600190505b919050565b6100eb8284836103d6565b60005b84518110156102a557600080600087848151811061010f5761010e610fce565b5b602002602001015181526020019081526020016000206001015414610169576040517f08c379a000000000000000000000000000000000000000000000000000000000815260040161016090610df3565b60405180910390fd5b826000808784815181106101805761017f610fce565b5b6020026020010151815260200190815260200160002060000160006101000a81548173ffffffffffffffffffffffffffffffffffffffff021916908373ffffffffffffffffffffffffffffffffffffffff160217905550436000808784815181106101ee576101ed610fce565b5b60200260200101518152602001908152602001600020600101819055508160008087848151811061022257610221610fce565b5b60200260200101518152602001908152602001600020600201819055507f6e70be4be1a4aebd688b5523bd8b6278acac3963d71ebf2bd5ea50757047664b8386838151811061027457610273610fce565b5b602002602001015160405161028a929190610cc6565b60405180910390a1808061029d90610f56565b9150506100ee565b5050505050565b60008060008681526020019081526020016000206001015414610304576040517f08c379a00000000000000000000000000000000000000000000000000000000081526004016102fb90610df3565b60405180910390fd5b61030f8284836103d6565b8160008086815260200190815260200160002060000160006101000a81548173ffffffffffffffffffffffffffffffffffffffff021916908373ffffffffffffffffffffffffffffffffffffffff160217905550436000808681526020019081526020016000206001018190555080600080868152602001908152602001600020600201819055507f6e70be4be1a4aebd688b5523bd8b6278acac3963d71ebf2bd5ea50757047664b82856040516103c8929190610cc6565b60405180910390a150505050565b6000600260009054906101000a900473ffffffffffffffffffffffffffffffffffffffff1673ffffffffffffffffffffffffffffffffffffffff16630178b8bf846040518263ffffffff1660e01b81526004016104339190610d78565b60206040518083038186803b15801561044b57600080fd5b505afa15801561045f573d6000803e3d6000fd5b505050506040513d601f19601f820116820180604052508101906104839190610a0e565b90506000808273ffffffffffffffffffffffffffffffffffffffff166374d3013a866040518263ffffffff1660e01b81526004016104c19190610d78565b60006040518083038186803b1580156104d957600080fd5b505afa1580156104ed573d6000803e3d6000fd5b505050506040513d6000823e3d601f19601f820116820180604052508101906105169190610a3b565b915091506000825111156106cf576000600160009054906101000a900473ffffffffffffffffffffffffffffffffffffffff16905060005b8351811015610693578773ffffffffffffffffffffffffffffffffffffffff1684828151811061058157610580610fce565b5b602002602001015173ffffffffffffffffffffffffffffffffffffffff16148061067157508173ffffffffffffffffffffffffffffffffffffffff1663622b2a3c8583815181106105d5576105d4610fce565b5b60200260200101517f766572694b65790000000000000000000000000000000000000000000000000060001b8b6040518463ffffffff1660e01b815260040161062093929190610cef565b60206040518083038186803b15801561063857600080fd5b505afa15801561064c573d6000803e3d6000fd5b505050506040513d601f19601f820116820180604052508101906106709190610b1a565b5b15610680575050505050610864565b808061068b90610f56565b91505061054e565b506040517f08c379a00000000000000000000000000000000000000000000000000000000081526004016106c690610e13565b60405180910390fd5b60008114610829576000600360009054906101000a900473ffffffffffffffffffffffffffffffffffffffff16905060008173ffffffffffffffffffffffffffffffffffffffff166395df7b1e898560006040518463ffffffff1660e01b815260040161073e93929190610d26565b60206040518083038186803b15801561075657600080fd5b505afa15801561076a573d6000803e3d6000fd5b505050506040513d601f19601f8201168201806040525081019061078e9190610b1a565b905080156107ee5760006107a1876100ae565b9050806107b357505050505050610864565b6040517f08c379a00000000000000000000000000000000000000000000000000000000081526004016107e590610dd3565b60405180910390fd5b6040517f08c379a000000000000000000000000000000000000000000000000000000000815260040161082090610d93565b60405180910390fd5b6040517f08c379a000000000000000000000000000000000000000000000000000000000815260040161085b90610db3565b60405180910390fd5b505050565b600061087c61087784610e58565b610e33565b9050808382526020820190508285602086028201111561089f5761089e611031565b5b60005b858110156108cf57816108b5888261095e565b8452602084019350602083019250506001810190506108a2565b5050509392505050565b60006108ec6108e784610e84565b610e33565b9050808382526020820190508285602086028201111561090f5761090e611031565b5b60005b8581101561093f578161092588826109e4565b845260208401935060208301925050600181019050610912565b5050509392505050565b600081359050610958816111b6565b92915050565b60008151905061096d816111b6565b92915050565b600082601f8301126109885761098761102c565b5b8151610998848260208601610869565b91505092915050565b600082601f8301126109b6576109b561102c565b5b81356109c68482602086016108d9565b91505092915050565b6000815190506109de816111cd565b92915050565b6000813590506109f3816111e4565b92915050565b600081519050610a08816111e4565b92915050565b600060208284031215610a2457610a2361103b565b5b6000610a328482850161095e565b91505092915050565b60008060408385031215610a5257610a5161103b565b5b600083015167ffffffffffffffff811115610a7057610a6f611036565b5b610a7c85828601610973565b9250506020610a8d858286016109f9565b9150509250929050565b60008060008060808587031215610ab157610ab061103b565b5b600085013567ffffffffffffffff811115610acf57610ace611036565b5b610adb878288016109a1565b9450506020610aec878288016109e4565b9350506040610afd87828801610949565b9250506060610b0e878288016109e4565b91505092959194509250565b600060208284031215610b3057610b2f61103b565b5b6000610b3e848285016109cf565b91505092915050565b600060208284031215610b5d57610b5c61103b565b5b6000610b6b848285016109e4565b91505092915050565b60008060008060808587031215610b8e57610b8d61103b565b5b6000610b9c878288016109e4565b9450506020610bad878288016109e4565b9350506040610bbe87828801610949565b9250506060610bcf878288016109e4565b91505092959194509250565b610be481610ec1565b82525050565b610bf381610ed3565b82525050565b610c0281610edf565b82525050565b610c1181610f13565b82525050565b6000610c24603883610eb0565b9150610c2f82611051565b604082019050919050565b6000610c47603483610eb0565b9150610c52826110a0565b604082019050919050565b6000610c6a603483610eb0565b9150610c75826110ef565b604082019050919050565b6000610c8d601c83610eb0565b9150610c988261113e565b602082019050919050565b6000610cb0604083610eb0565b9150610cbb82611167565b604082019050919050565b6000604082019050610cdb6000830185610bdb565b610ce86020830184610bf9565b9392505050565b6000606082019050610d046000830186610bdb565b610d116020830185610bf9565b610d1e6040830184610bdb565b949350505050565b6000606082019050610d3b6000830186610bdb565b610d486020830185610bf9565b610d556040830184610c08565b949350505050565b6000602082019050610d726000830184610bea565b92915050565b6000602082019050610d8d6000830184610bf9565b92915050565b60006020820190508181036000830152610dac81610c17565b9050919050565b60006020820190508181036000830152610dcc81610c3a565b9050919050565b60006020820190508181036000830152610dec81610c5d565b9050919050565b60006020820190508181036000830152610e0c81610c80565b9050919050565b60006020820190508181036000830152610e2c81610ca3565b9050919050565b6000610e3d610e4e565b9050610e498282610f25565b919050565b6000604051905090565b600067ffffffffffffffff821115610e7357610e72610ffd565b5b602082029050602081019050919050565b600067ffffffffffffffff821115610e9f57610e9e610ffd565b5b602082029050602081019050919050565b600082825260208201905092915050565b6000610ecc82610ee9565b9050919050565b60008115159050919050565b6000819050919050565b600073ffffffffffffffffffffffffffffffffffffffff82169050919050565b6000819050919050565b6000610f1e82610f09565b9050919050565b610f2e82611040565b810181811067ffffffffffffffff82111715610f4d57610f4c610ffd565b5b80604052505050565b6000610f6182610f09565b91507fffffffffffffffffffffffffffffffffffffffffffffffffffffffffffffffff821415610f9457610f93610f9f565b5b600182019050919050565b7f4e487b7100000000000000000000000000000000000000000000000000000000600052601160045260246000fd5b7f4e487b7100000000000000000000000000000000000000000000000000000000600052603260045260246000fd5b7f4e487b7100000000000000000000000000000000000000000000000000000000600052604160045260246000fd5b600080fd5b600080fd5b600080fd5b600080fd5b6000601f19601f8301169050919050565b7f5265766f636174696f6e2052656769737472793a205265766f6b657220646f6560008201527f73206e6f74206861766520726571756972656420726f6c650000000000000000602082015250565b7f5265766f636174696f6e2052656769737472793a20526f6c65207265766f6b6560008201527f727320617265206e6f7420737065636966696564000000000000000000000000602082015250565b7f5265766f636174696f6e2052656769737472793a205265766f6b65722773207260008201527f6f6c6520686173206265656e207265766f6b6564000000000000000000000000602082015250565b7f54686520636c61696d20697320616c7265616479207265766f6b656400000000600082015250565b7f5265766f636174696f6e2052656769737472793a205265766f6b65722069732060008201527f6e6f74206c697374656420696e20726f6c65207265766f6b657273206c697374602082015250565b6111bf81610ec1565b81146111ca57600080fd5b50565b6111d681610ed3565b81146111e157600080fd5b50565b6111ed81610edf565b81146111f857600080fd5b5056fea264697066735822122087b20bcffb0efe5174114dd9994464cad6b301cfec6a535c4972dceaa530c8b064736f6c63430008060033",
	"immutableReferences": {},
	"source": "// SPDX-License-Identifier: GPL-3.0\n\npragma solidity >= 0.7.0 < 0.9.0;\n\nimport \"@ensdomains/ens-contracts/contracts/registry/ENSRegistry.sol\";\nimport \"@openzeppelin/contracts/utils/cryptography/ECDSA.sol\";\nimport \"@openzeppelin/contracts/utils/introspection/ERC165Checker.sol\";\nimport \"@ew-did-registry/proxyidentity/contracts/IOwned.sol\";\nimport \"./RoleDefinitionResolver.sol\";\nimport {ClaimManager} from \"./ClaimManager.sol\";\n\ninterface EthereumDIDRegistry {\n    function identityOwner(address identity) external view returns(address);\n    function validDelegate(address identity, bytes32 delegateType, address delegate) external view returns(bool);\n}\n    \ncontract RevocationRegistryOnChain {\n    bytes32 constant private ASSERTION_DELEGATE_TYPE = 0x766572694b657900000000000000000000000000000000000000000000000000;\n    string constant private ERC712_DOMAIN_NAME = \"Revocation Registry\";\n    string constant private ERC712_DOMAIN_VERSION = \"1.0\";\n\n    struct RevokedClaim {\n        address revoker;\n        uint revokedTimestamp;\n        bytes32 revokerRoleDigest; //namehash\n    }\n\n    mapping(bytes32 => RevokedClaim) revokedClaims;\n    address private didRegistry;\n    address private ensRegistry;\n    address private claimManager;\n    \n    event Revoked(address revoker, bytes32 claimDigest);\n\n    constructor(address _didRegistry, address _ensRegistry, address _claimManager){\n        didRegistry = _didRegistry;\n        ensRegistry = _ensRegistry;\n        claimManager = _claimManager;\n    }\n\n    function revokeClaim(bytes32 claimDigest, bytes32 role, address revoker, bytes32 revokerRoleDigest) public {\n        require(revokedClaims[claimDigest].revokedTimestamp == 0, \"The claim is already revoked\");\n        verifyRevoker(revoker, role, revokerRoleDigest);\n        revokedClaims[claimDigest].revoker = revoker;\n        revokedClaims[claimDigest].revokedTimestamp = block.number;\n        revokedClaims[claimDigest].revokerRoleDigest = revokerRoleDigest;\n        emit Revoked(revoker, claimDigest);\n    }\n\n    function revokeClaimInList(bytes32 [] memory claimList,bytes32 role, address revoker, bytes32 revokerRoleDigest) public{\n        verifyRevoker(revoker, role, revokerRoleDigest);\n        for(uint i=0; i<claimList.length ; i++) {\n            require(revokedClaims[claimList[i]].revokedTimestamp == 0, \"The claim is already revoked\");\n            revokedClaims[claimList[i]].revoker = revoker;\n            revokedClaims[claimList[i]].revokedTimestamp = block.number;\n            revokedClaims[claimList[i]].revokerRoleDigest = revokerRoleDigest;\n            emit Revoked(revoker, claimList[i]);\n        }\n    }\n\n    function verifyRevoker(address revoker, bytes32 role, bytes32 revokerRoleDigest) internal view {\n        address resolver = ENSRegistry(ensRegistry).resolver(role);\n        (address[] memory dids, bytes32 revoker_role) = RevokersResolver(resolver).revokers(role);\n        if (dids.length > 0) {\n          EthereumDIDRegistry registry = EthereumDIDRegistry(didRegistry);\n            for (uint i = 0; i < dids.length; i++) {\n                if (dids[i] == revoker || registry.validDelegate(dids[i], ASSERTION_DELEGATE_TYPE, revoker)) {\n                    return;\n                }\n            }\n            revert(\"Revocation Registry: Revoker is not listed in role revokers list\");\n        } else if (revoker_role != \"\") {\n            ClaimManager cm = ClaimManager(claimManager);\n            bool hasRole = cm.hasRole(revoker, revoker_role, 0);\n            if (hasRole) {\n                bool roleStatus = isRevoked(revokerRoleDigest);\n                if (!roleStatus) {\n                    return;\n                } else {\n                    revert(\"Revocation Registry: Revoker's role has been revoked\");\n                }\n            }\n            revert(\"Revocation Registry: Revoker does not have required role\");\n        } else {\n            revert(\"Revocation Registry: Role revokers are not specified\");\n        }\n    }\n\n    function isRevoked(bytes32 claimDigest) public view returns(bool) {\n        if (revokedClaims[claimDigest].revokedTimestamp == 0) {\n            return false;\n        }\n        else {\n            return true;\n        }\n    }\n}\n",
	"sourcePath": "/Users/ashishtripathi/Desktop/EWF/temp/iam-contracts/contracts/roles/RevocationRegistryOnChain.sol",
	"compiler": {
		"name": "solc",
		"version": "0.8.6+commit.11564f7e.Emscripten.clang"
	},
	"schemaVersion": "3.4.2",
	"updatedAt": "2021-09-20T06:01:23.935Z",
	"devdoc": {
		"kind": "dev",
		"methods": {},
		"version": 1
	},
	"userdoc": {
		"kind": "user",
		"methods": {},
		"version": 1
	}
}