{
  "contractName": "RevocationRegistry",
  "abi": [
    {
      "anonymous": false,
      "inputs": [
        {
          "indexed": false,
          "internalType": "address",
          "name": "revoker",
          "type": "address"
        },
        {
          "indexed": false,
          "internalType": "bytes32",
          "name": "claimDigest",
          "type": "bytes32"
        }
      ],
      "name": "Revoked",
      "type": "event"
    },
    {
      "inputs": [
        {
          "internalType": "bytes32",
          "name": "claimDigest",
          "type": "bytes32"
        }
      ],
      "name": "revokeClaim",
      "outputs": [],
      "stateMutability": "nonpayable",
      "type": "function"
    },
    {
      "inputs": [
        {
          "internalType": "bytes32",
          "name": "claimDigest",
          "type": "bytes32"
        }
      ],
      "name": "isRevoked",
      "outputs": [
        {
          "internalType": "bool",
          "name": "",
          "type": "bool"
        }
      ],
      "stateMutability": "view",
      "type": "function"
    },
    {
      "inputs": [
        {
          "internalType": "bytes32",
          "name": "claimDigest",
          "type": "bytes32"
        }
      ],
      "name": "getRevoker",
      "outputs": [
        {
          "internalType": "address",
          "name": "",
          "type": "address"
        }
      ],
      "stateMutability": "view",
      "type": "function"
    }
  ],
  "bytecode": "0x608060405234801561001057600080fd5b5061041a806100206000396000f3fe608060405234801561001057600080fd5b50600436106100415760003560e01c80634091b238146100465780634294857f14610076578063a5babbb1146100a6575b600080fd5b610060600480360381019061005b919061024a565b6100c2565b60405161006d91906102c7565b60405180910390f35b610090600480360381019061008b919061024a565b610101565b60405161009d919061030b565b60405180910390f35b6100c060048036038101906100bb919061024a565b610133565b005b600080600083815260200190815260200160002060000160009054906101000a900473ffffffffffffffffffffffffffffffffffffffff169050919050565b600080600080848152602001908152602001600020600101541415610129576000905061012e565b600190505b919050565b6000806000838152602001908152602001600020600101541461018b576040517f08c379a000000000000000000000000000000000000000000000000000000000815260040161018290610326565b60405180910390fd5b3360008083815260200190815260200160002060000160006101000a81548173ffffffffffffffffffffffffffffffffffffffff021916908373ffffffffffffffffffffffffffffffffffffffff16021790555043600080838152602001908152602001600020600101819055507f6e70be4be1a4aebd688b5523bd8b6278acac3963d71ebf2bd5ea50757047664b338260405161022a9291906102e2565b60405180910390a150565b600081359050610244816103cd565b92915050565b6000602082840312156102605761025f61039f565b5b600061026e84828501610235565b91505092915050565b61028081610357565b82525050565b61028f81610369565b82525050565b61029e81610375565b82525050565b60006102b1601c83610346565b91506102bc826103a4565b602082019050919050565b60006020820190506102dc6000830184610277565b92915050565b60006040820190506102f76000830185610277565b6103046020830184610295565b9392505050565b60006020820190506103206000830184610286565b92915050565b6000602082019050818103600083015261033f816102a4565b9050919050565b600082825260208201905092915050565b60006103628261037f565b9050919050565b60008115159050919050565b6000819050919050565b600073ffffffffffffffffffffffffffffffffffffffff82169050919050565b600080fd5b7f54686520636c61696d20697320616c7265616479207265766f6b656400000000600082015250565b6103d681610375565b81146103e157600080fd5b5056fea26469706673582212204502121fea10828bfdd30829202ac93918d0546c3e3fdfed8d32ee8e79d1070364736f6c63430008060033",
  "immutableReferences": {},
  "source": "// SPDX-License-Identifier: GPL-3.0\n\npragma solidity >=0.7.0 <0.9.0;\n    \ncontract RevocationRegistry {\n    \n    struct RevokedClaim {\n        address revoker;\n        uint revokedTimestamp;\n    }\n    mapping (bytes32 => RevokedClaim) revokedClaims;\n \n    function revokeClaim(bytes32 claimDigest) public  { \n        require(revokedClaims[claimDigest].revokedTimestamp == 0, \"The claim is already revoked\");\n        revokedClaims[claimDigest].revoker = msg.sender;\n        revokedClaims[claimDigest].revokedTimestamp = block.number;\n        emit Revoked(msg.sender, claimDigest);\n    }\n \n    function isRevoked(bytes32 claimDigest) public view returns (bool) { \n        if (revokedClaims[claimDigest].revokedTimestamp == 0) { \n            return false;\n        }\n        else { \n            return true; \n        }\n    }\n\n    function getRevoker(bytes32 claimDigest) public view returns (address) { \n        return revokedClaims[claimDigest].revoker;\n    }\n    event Revoked(address revoker, bytes32 claimDigest);\n}",
  "sourcePath": "/Users/ashishtripathi/Desktop/EWF/iam-contracts/contracts/roles/RevocationRegistryOnChain.sol",
  "compiler": {
    "name": "solc",
    "version": "0.8.6+commit.11564f7e.Emscripten.clang"
  },
  "schemaVersion": "3.4.2",
  "updatedAt": "2021-09-24T03:40:08.575Z",
  "devdoc": {
    "kind": "dev",
    "methods": {},
    "version": 1
  },
  "userdoc": {
    "kind": "user",
    "methods": {},
    "version": 1
  }
}