{
  "contractName": "ERC1155Multiproxy",
  "abi": [
    {
      "inputs": [
        {
          "internalType": "string",
          "name": "baseMetadataUri",
          "type": "string"
        }
      ],
      "payable": false,
      "stateMutability": "nonpayable",
      "type": "constructor"
    },
    {
      "anonymous": false,
      "inputs": [
        {
          "indexed": true,
          "internalType": "address",
          "name": "_owner",
          "type": "address"
        },
        {
          "indexed": true,
          "internalType": "address",
          "name": "_operator",
          "type": "address"
        },
        {
          "indexed": false,
          "internalType": "bool",
          "name": "_approved",
          "type": "bool"
        }
      ],
      "name": "ApprovalForAll",
      "type": "event"
    },
    {
      "anonymous": false,
      "inputs": [
        {
          "indexed": true,
          "internalType": "address",
          "name": "_operator",
          "type": "address"
        },
        {
          "indexed": true,
          "internalType": "address",
          "name": "_from",
          "type": "address"
        },
        {
          "indexed": true,
          "internalType": "address",
          "name": "_to",
          "type": "address"
        },
        {
          "indexed": false,
          "internalType": "uint256[]",
          "name": "_ids",
          "type": "uint256[]"
        },
        {
          "indexed": false,
          "internalType": "uint256[]",
          "name": "_amounts",
          "type": "uint256[]"
        }
      ],
      "name": "TransferBatch",
      "type": "event"
    },
    {
      "anonymous": false,
      "inputs": [
        {
          "indexed": true,
          "internalType": "address",
          "name": "_operator",
          "type": "address"
        },
        {
          "indexed": true,
          "internalType": "address",
          "name": "_from",
          "type": "address"
        },
        {
          "indexed": true,
          "internalType": "address",
          "name": "_to",
          "type": "address"
        },
        {
          "indexed": false,
          "internalType": "uint256",
          "name": "_id",
          "type": "uint256"
        },
        {
          "indexed": false,
          "internalType": "uint256",
          "name": "_amount",
          "type": "uint256"
        }
      ],
      "name": "TransferSingle",
      "type": "event"
    },
    {
      "anonymous": false,
      "inputs": [
        {
          "indexed": false,
          "internalType": "string",
          "name": "_uri",
          "type": "string"
        },
        {
          "indexed": true,
          "internalType": "uint256",
          "name": "_id",
          "type": "uint256"
        }
      ],
      "name": "URI",
      "type": "event"
    },
    {
      "constant": true,
      "inputs": [
        {
          "internalType": "address",
          "name": "_owner",
          "type": "address"
        },
        {
          "internalType": "uint256",
          "name": "_id",
          "type": "uint256"
        }
      ],
      "name": "balanceOf",
      "outputs": [
        {
          "internalType": "uint256",
          "name": "",
          "type": "uint256"
        }
      ],
      "payable": false,
      "stateMutability": "view",
      "type": "function"
    },
    {
      "constant": true,
      "inputs": [
        {
          "internalType": "address[]",
          "name": "_owners",
          "type": "address[]"
        },
        {
          "internalType": "uint256[]",
          "name": "_ids",
          "type": "uint256[]"
        }
      ],
      "name": "balanceOfBatch",
      "outputs": [
        {
          "internalType": "uint256[]",
          "name": "",
          "type": "uint256[]"
        }
      ],
      "payable": false,
      "stateMutability": "view",
      "type": "function"
    },
    {
      "constant": true,
      "inputs": [
        {
          "internalType": "address",
          "name": "_owner",
          "type": "address"
        },
        {
          "internalType": "address",
          "name": "_operator",
          "type": "address"
        }
      ],
      "name": "isApprovedForAll",
      "outputs": [
        {
          "internalType": "bool",
          "name": "isOperator",
          "type": "bool"
        }
      ],
      "payable": false,
      "stateMutability": "view",
      "type": "function"
    },
    {
      "constant": false,
      "inputs": [
        {
          "internalType": "address",
          "name": "_operator",
          "type": "address"
        },
        {
          "internalType": "bool",
          "name": "_approved",
          "type": "bool"
        }
      ],
      "name": "setApprovalForAll",
      "outputs": [],
      "payable": false,
      "stateMutability": "nonpayable",
      "type": "function"
    },
    {
      "constant": true,
      "inputs": [
        {
          "internalType": "bytes4",
          "name": "_interfaceID",
          "type": "bytes4"
        }
      ],
      "name": "supportsInterface",
      "outputs": [
        {
          "internalType": "bool",
          "name": "",
          "type": "bool"
        }
      ],
      "payable": false,
      "stateMutability": "view",
      "type": "function"
    },
    {
      "constant": true,
      "inputs": [
        {
          "internalType": "uint256",
          "name": "_id",
          "type": "uint256"
        }
      ],
      "name": "uri",
      "outputs": [
        {
          "internalType": "string",
          "name": "",
          "type": "string"
        }
      ],
      "payable": false,
      "stateMutability": "view",
      "type": "function"
    },
    {
      "constant": false,
      "inputs": [
        {
          "internalType": "address",
          "name": "owner",
          "type": "address"
        },
        {
          "internalType": "address",
          "name": "creator",
          "type": "address"
        },
        {
          "internalType": "uint256",
          "name": "id",
          "type": "uint256"
        },
        {
          "internalType": "bytes",
          "name": "data",
          "type": "bytes"
        }
      ],
      "name": "mint",
      "outputs": [],
      "payable": false,
      "stateMutability": "nonpayable",
      "type": "function"
    },
    {
      "constant": false,
      "inputs": [
        {
          "internalType": "address",
          "name": "from",
          "type": "address"
        },
        {
          "internalType": "address",
          "name": "to",
          "type": "address"
        },
        {
          "internalType": "uint256",
          "name": "id",
          "type": "uint256"
        },
        {
          "internalType": "uint256",
          "name": "amount",
          "type": "uint256"
        },
        {
          "internalType": "bytes",
          "name": "data",
          "type": "bytes"
        }
      ],
      "name": "safeTransferFrom",
      "outputs": [],
      "payable": false,
      "stateMutability": "nonpayable",
      "type": "function"
    },
    {
      "constant": false,
      "inputs": [
        {
          "internalType": "address",
          "name": "from",
          "type": "address"
        },
        {
          "internalType": "address",
          "name": "to",
          "type": "address"
        },
        {
          "internalType": "uint256[]",
          "name": "ids",
          "type": "uint256[]"
        },
        {
          "internalType": "uint256[]",
          "name": "amounts",
          "type": "uint256[]"
        },
        {
          "internalType": "bytes",
          "name": "data",
          "type": "bytes"
        }
      ],
      "name": "safeBatchTransferFrom",
      "outputs": [],
      "payable": false,
      "stateMutability": "nonpayable",
      "type": "function"
    },
    {
      "constant": false,
      "inputs": [
        {
          "internalType": "address",
          "name": "account",
          "type": "address"
        },
        {
          "internalType": "uint256",
          "name": "id",
          "type": "uint256"
        }
      ],
      "name": "burn",
      "outputs": [],
      "payable": false,
      "stateMutability": "nonpayable",
      "type": "function"
    },
    {
      "constant": false,
      "inputs": [
        {
          "internalType": "address",
          "name": "account",
          "type": "address"
        },
        {
          "internalType": "uint256[]",
          "name": "ids",
          "type": "uint256[]"
        }
      ],
      "name": "burnBatch",
      "outputs": [],
      "payable": false,
      "stateMutability": "nonpayable",
      "type": "function"
    },
    {
      "constant": false,
      "inputs": [
        {
          "internalType": "string",
          "name": "newBaseMetadataUri",
          "type": "string"
        }
      ],
      "name": "updateUri",
      "outputs": [],
      "payable": false,
      "stateMutability": "nonpayable",
      "type": "function"
    },
    {
      "constant": true,
      "inputs": [
        {
          "internalType": "address",
          "name": "owner",
          "type": "address"
        }
      ],
      "name": "tokensOwnedBy",
      "outputs": [
        {
          "internalType": "uint256[]",
          "name": "",
          "type": "uint256[]"
        }
      ],
      "payable": false,
      "stateMutability": "view",
      "type": "function"
    },
    {
      "constant": true,
      "inputs": [
        {
          "internalType": "address",
          "name": "creator",
          "type": "address"
        }
      ],
      "name": "tokensCreatedBy",
      "outputs": [
        {
          "internalType": "uint256[]",
          "name": "",
          "type": "uint256[]"
        }
      ],
      "payable": false,
      "stateMutability": "view",
      "type": "function"
    }
  ],
  "bytecode": "0x60806040523480156200001157600080fd5b50604051620033e7380380620033e7833981810160405260208110156200003757600080fd5b81019080805160405193929190846401000000008211156200005857600080fd5b838201915060208201858111156200006f57600080fd5b82518660018202830111640100000000821117156200008d57600080fd5b8083526020830192505050908051906020019080838360005b83811015620000c3578082015181840152602081019050620000a6565b50505050905090810190601f168015620000f15780820380516001836020036101000a031916815260200191505b5060405250505062000109816200011060201b60201c565b50620001db565b8060029080519060200190620001289291906200012c565b5050565b828054600181600116156101000203166002900490600052602060002090601f016020900481019282601f106200016f57805160ff1916838001178555620001a0565b82800160010185558215620001a0579182015b828111156200019f57825182559160200191906001019062000182565b5b509050620001af9190620001b3565b5090565b620001d891905b80821115620001d4576000816000905550600101620001ba565b5090565b90565b6131fc80620001eb6000396000f3fe608060405234801561001057600080fd5b50600436106100e95760003560e01c80636010a5e71161008c578063b2dc5dc311610066578063b2dc5dc314610917578063e985e9c5146109ef578063ea66aeb314610a6b578063f242432a14610b04576100e9565b80636010a5e7146107745780639dc29fac14610879578063a22cb465146108c7576100e9565b806320b4a8e6116100c857806320b4a8e61461025c5780632eb2c2d6146102f55780634e1273f414610518578063570b3c6a146106b9576100e9565b8062fdd58e146100ee57806301ffc9a7146101505780630e89341c146101b5575b600080fd5b61013a6004803603604081101561010457600080fd5b81019080803573ffffffffffffffffffffffffffffffffffffffff16906020019092919080359060200190929190505050610c13565b6040518082815260200191505060405180910390f35b61019b6004803603602081101561016657600080fd5b8101908080357bffffffffffffffffffffffffffffffffffffffffffffffffffffffff19169060200190929190505050610c6d565b604051808215151515815260200191505060405180910390f35b6101e1600480360360208110156101cb57600080fd5b8101908080359060200190929190505050610d1e565b6040518080602001828103825283818151815260200191508051906020019080838360005b83811015610221578082015181840152602081019050610206565b50505050905090810190601f16801561024e5780820380516001836020036101000a031916815260200191505b509250505060405180910390f35b61029e6004803603602081101561027257600080fd5b81019080803573ffffffffffffffffffffffffffffffffffffffff169060200190929190505050610e1e565b6040518080602001828103825283818151815260200191508051906020019060200280838360005b838110156102e15780820151818401526020810190506102c6565b505050509050019250505060405180910390f35b610516600480360360a081101561030b57600080fd5b81019080803573ffffffffffffffffffffffffffffffffffffffff169060200190929190803573ffffffffffffffffffffffffffffffffffffffff1690602001909291908035906020019064010000000081111561036857600080fd5b82018360208201111561037a57600080fd5b8035906020019184602083028401116401000000008311171561039c57600080fd5b919080806020026020016040519081016040528093929190818152602001838360200280828437600081840152601f19601f820116905080830192505050505050509192919290803590602001906401000000008111156103fc57600080fd5b82018360208201111561040e57600080fd5b8035906020019184602083028401116401000000008311171561043057600080fd5b919080806020026020016040519081016040528093929190818152602001838360200280828437600081840152601f19601f8201169050808301925050505050505091929192908035906020019064010000000081111561049057600080fd5b8201836020820111156104a257600080fd5b803590602001918460018302840111640100000000831117156104c457600080fd5b91908080601f016020809104026020016040519081016040528093929190818152602001838380828437600081840152601f19601f820116905080830192505050505050509192919290505050610fbd565b005b6106626004803603604081101561052e57600080fd5b810190808035906020019064010000000081111561054b57600080fd5b82018360208201111561055d57600080fd5b8035906020019184602083028401116401000000008311171561057f57600080fd5b919080806020026020016040519081016040528093929190818152602001838360200280828437600081840152601f19601f820116905080830192505050505050509192919290803590602001906401000000008111156105df57600080fd5b8201836020820111156105f157600080fd5b8035906020019184602083028401116401000000008311171561061357600080fd5b919080806020026020016040519081016040528093929190818152602001838360200280828437600081840152601f19601f8201169050808301925050505050505091929192905050506110bf565b6040518080602001828103825283818151815260200191508051906020019060200280838360005b838110156106a557808201518184015260208101905061068a565b505050509050019250505060405180910390f35b610772600480360360208110156106cf57600080fd5b81019080803590602001906401000000008111156106ec57600080fd5b8201836020820111156106fe57600080fd5b8035906020019184600183028401116401000000008311171561072057600080fd5b91908080601f016020809104026020016040519081016040528093929190818152602001838380828437600081840152601f19601f820116905080830192505050505050509192919290505050611205565b005b6108776004803603608081101561078a57600080fd5b81019080803573ffffffffffffffffffffffffffffffffffffffff169060200190929190803573ffffffffffffffffffffffffffffffffffffffff16906020019092919080359060200190929190803590602001906401000000008111156107f157600080fd5b82018360208201111561080357600080fd5b8035906020019184600183028401116401000000008311171561082557600080fd5b91908080601f016020809104026020016040519081016040528093929190818152602001838380828437600081840152601f19601f820116905080830192505050505050509192919290505050611211565b005b6108c56004803603604081101561088f57600080fd5b81019080803573ffffffffffffffffffffffffffffffffffffffff169060200190929190803590602001909291905050506113d9565b005b610915600480360360408110156108dd57600080fd5b81019080803573ffffffffffffffffffffffffffffffffffffffff16906020019092919080351515906020019092919050505061147e565b005b6109ed6004803603604081101561092d57600080fd5b81019080803573ffffffffffffffffffffffffffffffffffffffff1690602001909291908035906020019064010000000081111561096a57600080fd5b82018360208201111561097c57600080fd5b8035906020019184602083028401116401000000008311171561099e57600080fd5b919080806020026020016040519081016040528093929190818152602001838360200280828437600081840152601f19601f82011690508083019250505050505050919291929050505061157f565b005b610a5160048036036040811015610a0557600080fd5b81019080803573ffffffffffffffffffffffffffffffffffffffff169060200190929190803573ffffffffffffffffffffffffffffffffffffffff169060200190929190505050611654565b604051808215151515815260200191505060405180910390f35b610aad60048036036020811015610a8157600080fd5b81019080803573ffffffffffffffffffffffffffffffffffffffff1690602001909291905050506116e8565b6040518080602001828103825283818151815260200191508051906020019060200280838360005b83811015610af0578082015181840152602081019050610ad5565b505050509050019250505060405180910390f35b610c11600480360360a0811015610b1a57600080fd5b81019080803573ffffffffffffffffffffffffffffffffffffffff169060200190929190803573ffffffffffffffffffffffffffffffffffffffff169060200190929190803590602001909291908035906020019092919080359060200190640100000000811115610b8b57600080fd5b820183602082011115610b9d57600080fd5b80359060200191846001830284011164010000000083111715610bbf57600080fd5b91908080601f016020809104026020016040519081016040528093929190818152602001838380828437600081840152601f19601f820116905080830192505050505050509192919290505050611887565b005b60008060008473ffffffffffffffffffffffffffffffffffffffff1673ffffffffffffffffffffffffffffffffffffffff168152602001908152602001600020600083815260200190815260200160002054905092915050565b60006301ffc9a760e01b7bffffffffffffffffffffffffffffffffffffffffffffffffffffffff1916827bffffffffffffffffffffffffffffffffffffffffffffffffffffffff19161480610d06575063d9b67a2660e01b7bffffffffffffffffffffffffffffffffffffffffffffffffffffffff1916827bffffffffffffffffffffffffffffffffffffffffffffffffffffffff1916145b15610d145760019050610d19565b600090505b919050565b60606002610d2b836118af565b6040516020018083805460018160011615610100020316600290048015610d895780601f10610d67576101008083540402835291820191610d89565b820191906000526020600020905b815481529060010190602001808311610d75575b505082805190602001908083835b60208310610dba5780518252602082019150602081019050602083039250610d97565b6001836020036101000a038019825116818451168082178552505050505050905001807f2e6a736f6e000000000000000000000000000000000000000000000000000000815250600501925050506040516020818303038152906040529050919050565b606080600480549050604051908082528060200260200182016040528015610e555781602001602082028038833980820191505090505b509050600080905060008090505b600480549050811015610f35578473ffffffffffffffffffffffffffffffffffffffff166003600060048481548110610e9857fe5b9060005260206000200154815260200190815260200160002060020160009054906101000a900473ffffffffffffffffffffffffffffffffffffffff1673ffffffffffffffffffffffffffffffffffffffff161415610f285760048181548110610efe57fe5b9060005260206000200154838380600101945081518110610f1b57fe5b6020026020010181815250505b8080600101915050610e63565b50606081604051908082528060200260200182016040528015610f675781602001602082028038833980820191505090505b50905060008090505b82811015610fb157838181518110610f8457fe5b6020026020010151828281518110610f9857fe5b6020026020010181815250508080600101915050610f70565b50809350505050919050565b843373ffffffffffffffffffffffffffffffffffffffff168173ffffffffffffffffffffffffffffffffffffffff161480610ffe5750610ffd8133611654565b5b611053576040517f08c379a00000000000000000000000000000000000000000000000000000000081526004018080602001828103825260298152602001806130226029913960400191505060405180910390fd5b61106086868686866119e2565b60008090505b84518110156110b657600184828151811061107d57fe5b602002602001015114156110a9576110a885828151811061109a57fe5b602002602001015187611b1e565b5b8080600101915050611066565b50505050505050565b6060815183511461111b576040517f08c379a000000000000000000000000000000000000000000000000000000000815260040180806020018281038252602c8152602001806130d3602c913960400191505060405180910390fd5b6060835160405190808252806020026020018201604052801561114d5781602001602082028038833980820191505090505b50905060008090505b84518110156111fa5760008086838151811061116e57fe5b602002602001015173ffffffffffffffffffffffffffffffffffffffff1673ffffffffffffffffffffffffffffffffffffffff16815260200190815260200160002060008583815181106111be57fe5b60200260200101518152602001908152602001600020548282815181106111e157fe5b6020026020010181815250508080600101915050611156565b508091505092915050565b61120e81611bf5565b50565b61122d8483600160405180602001604052806000815250611c0f565b60405180608001604052803373ffffffffffffffffffffffffffffffffffffffff1681526020018573ffffffffffffffffffffffffffffffffffffffff1681526020018473ffffffffffffffffffffffffffffffffffffffff168152602001604051806020016040528060008152508152506003600084815260200190815260200160002060008201518160000160006101000a81548173ffffffffffffffffffffffffffffffffffffffff021916908373ffffffffffffffffffffffffffffffffffffffff16021790555060208201518160010160006101000a81548173ffffffffffffffffffffffffffffffffffffffff021916908373ffffffffffffffffffffffffffffffffffffffff16021790555060408201518160020160006101000a81548173ffffffffffffffffffffffffffffffffffffffff021916908373ffffffffffffffffffffffffffffffffffffffff16021790555060608201518160030190805190602001906113a3929190612ea7565b50905050600482908060018154018082558091505090600182039060005260206000200160009091929091909150555050505050565b813373ffffffffffffffffffffffffffffffffffffffff168173ffffffffffffffffffffffffffffffffffffffff16148061141a57506114198133611654565b5b61146f576040517f08c379a00000000000000000000000000000000000000000000000000000000081526004018080602001828103825260298152602001806130226029913960400191505060405180910390fd5b6114798383611dea565b505050565b80600160003373ffffffffffffffffffffffffffffffffffffffff1673ffffffffffffffffffffffffffffffffffffffff16815260200190815260200160002060008473ffffffffffffffffffffffffffffffffffffffff1673ffffffffffffffffffffffffffffffffffffffff16815260200190815260200160002060006101000a81548160ff0219169083151502179055508173ffffffffffffffffffffffffffffffffffffffff163373ffffffffffffffffffffffffffffffffffffffff167f17307eab39ab6107e8899845ad3d59bd9653f200f220920489ca2b5937696c3183604051808215151515815260200191505060405180910390a35050565b813373ffffffffffffffffffffffffffffffffffffffff168173ffffffffffffffffffffffffffffffffffffffff1614806115c057506115bf8133611654565b5b611615576040517f08c379a00000000000000000000000000000000000000000000000000000000081526004018080602001828103825260298152602001806130226029913960400191505060405180910390fd5b60008090505b825181101561164e576116418484838151811061163457fe5b6020026020010151611dea565b808060010191505061161b565b50505050565b6000600160008473ffffffffffffffffffffffffffffffffffffffff1673ffffffffffffffffffffffffffffffffffffffff16815260200190815260200160002060008373ffffffffffffffffffffffffffffffffffffffff1673ffffffffffffffffffffffffffffffffffffffff16815260200190815260200160002060009054906101000a900460ff16905092915050565b60608060048054905060405190808252806020026020018201604052801561171f5781602001602082028038833980820191505090505b509050600080905060008090505b6004805490508110156117ff578473ffffffffffffffffffffffffffffffffffffffff16600360006004848154811061176257fe5b9060005260206000200154815260200190815260200160002060010160009054906101000a900473ffffffffffffffffffffffffffffffffffffffff1673ffffffffffffffffffffffffffffffffffffffff1614156117f257600481815481106117c857fe5b90600052602060002001548383806001019450815181106117e557fe5b6020026020010181815250505b808060010191505061172d565b506060816040519080825280602002602001820160405280156118315781602001602082028038833980820191505090505b50905060008090505b8281101561187b5783818151811061184e57fe5b602002602001015182828151811061186257fe5b602002602001018181525050808060010191505061183a565b50809350505050919050565b61189485858585856121c2565b60018214156118a8576118a78385611b1e565b5b5050505050565b606060008214156118f7576040518060400160405280600181526020017f300000000000000000000000000000000000000000000000000000000000000081525090506119dd565b6000829050600083905060005b60008314611926578080600101915050600a838161191e57fe5b049250611904565b6060816040519080825280601f01601f19166020018201604052801561195b5781602001600182028038833980820191505090505b50905060006001830390505b600084146119d457600a848161197957fe5b0660300160f81b8282806001900393508151811061199357fe5b60200101907effffffffffffffffffffffffffffffffffffffffffffffffffffffffffffff1916908160001a905350600a84816119cc57fe5b049350611967565b81955050505050505b919050565b8473ffffffffffffffffffffffffffffffffffffffff163373ffffffffffffffffffffffffffffffffffffffff161480611a225750611a218533611654565b5b611a77576040517f08c379a000000000000000000000000000000000000000000000000000000000815260040180806020018281038252602f8152602001806130ff602f913960400191505060405180910390fd5b600073ffffffffffffffffffffffffffffffffffffffff168473ffffffffffffffffffffffffffffffffffffffff161415611afd576040517f08c379a00000000000000000000000000000000000000000000000000000000081526004018080602001828103825260308152602001806130a36030913960400191505060405180910390fd5b611b09858585856122fe565b611b17858585855a86612663565b5050505050565b60006003600084815260200190815260200160002060000160009054906101000a900473ffffffffffffffffffffffffffffffffffffffff1690508073ffffffffffffffffffffffffffffffffffffffff166373125fc4836040518263ffffffff1660e01b8152600401808273ffffffffffffffffffffffffffffffffffffffff1673ffffffffffffffffffffffffffffffffffffffff168152602001915050600060405180830381600087803b158015611bd857600080fd5b505af1158015611bec573d6000803e3d6000fd5b50505050505050565b8060029080519060200190611c0b929190612f27565b5050565b600073ffffffffffffffffffffffffffffffffffffffff168473ffffffffffffffffffffffffffffffffffffffff161415611c95576040517f08c379a00000000000000000000000000000000000000000000000000000000081526004018080602001828103825260218152602001806131a76021913960400191505060405180910390fd5b6000339050611cfc836000808873ffffffffffffffffffffffffffffffffffffffff1673ffffffffffffffffffffffffffffffffffffffff16815260200190815260200160002060008781526020019081526020016000205461292190919063ffffffff16565b6000808773ffffffffffffffffffffffffffffffffffffffff1673ffffffffffffffffffffffffffffffffffffffff168152602001908152602001600020600086815260200190815260200160002081905550611d5e60008686865a876129a9565b8473ffffffffffffffffffffffffffffffffffffffff16600073ffffffffffffffffffffffffffffffffffffffff168273ffffffffffffffffffffffffffffffffffffffff167fc3d58168c5ae7397731d063d5bbf3d657854427343f4c083240f7aacaa2d0f628787604051808381526020018281526020019250505060405180910390a45050505050565b600073ffffffffffffffffffffffffffffffffffffffff168273ffffffffffffffffffffffffffffffffffffffff161415611e70576040517f08c379a00000000000000000000000000000000000000000000000000000000081526004018080602001828103825260238152602001806130806023913960400191505060405180910390fd5b60008060008473ffffffffffffffffffffffffffffffffffffffff1673ffffffffffffffffffffffffffffffffffffffff1681526020019081526020016000206000838152602001908152602001600020549050600033905060008060008673ffffffffffffffffffffffffffffffffffffffff1673ffffffffffffffffffffffffffffffffffffffff16815260200190815260200160002060008581526020019081526020016000208190555060006003600085815260200190815260200160002060000160009054906101000a900473ffffffffffffffffffffffffffffffffffffffff1690508073ffffffffffffffffffffffffffffffffffffffff16638bbd36016040518163ffffffff1660e01b8152600401600060405180830381600087803b158015611fa157600080fd5b505af1158015611fb5573d6000803e3d6000fd5b505050506040518060800160405280600073ffffffffffffffffffffffffffffffffffffffff168152602001600073ffffffffffffffffffffffffffffffffffffffff168152602001600073ffffffffffffffffffffffffffffffffffffffff168152602001604051806020016040528060008152508152506003600086815260200190815260200160002060008201518160000160006101000a81548173ffffffffffffffffffffffffffffffffffffffff021916908373ffffffffffffffffffffffffffffffffffffffff16021790555060208201518160010160006101000a81548173ffffffffffffffffffffffffffffffffffffffff021916908373ffffffffffffffffffffffffffffffffffffffff16021790555060408201518160020160006101000a81548173ffffffffffffffffffffffffffffffffffffffff021916908373ffffffffffffffffffffffffffffffffffffffff1602179055506060820151816003019080519060200190612132929190612ea7565b50905050600073ffffffffffffffffffffffffffffffffffffffff168573ffffffffffffffffffffffffffffffffffffffff168373ffffffffffffffffffffffffffffffffffffffff167fc3d58168c5ae7397731d063d5bbf3d657854427343f4c083240f7aacaa2d0f628787604051808381526020018281526020019250505060405180910390a45050505050565b8473ffffffffffffffffffffffffffffffffffffffff163373ffffffffffffffffffffffffffffffffffffffff16148061220257506122018533611654565b5b612257576040517f08c379a000000000000000000000000000000000000000000000000000000000815260040180806020018281038252602a815260200180612ff8602a913960400191505060405180910390fd5b600073ffffffffffffffffffffffffffffffffffffffff168473ffffffffffffffffffffffffffffffffffffffff1614156122dd576040517f08c379a000000000000000000000000000000000000000000000000000000000815260040180806020018281038252602b815260200180612fcd602b913960400191505060405180910390fd5b6122e985858585612be5565b6122f7858585855a866129a9565b5050505050565b8051825114612358576040517f08c379a000000000000000000000000000000000000000000000000000000000815260040180806020018281038252603581526020018061304b6035913960400191505060405180910390fd5b60008251905060008090505b81811015612555576123f483828151811061237b57fe5b60200260200101516000808973ffffffffffffffffffffffffffffffffffffffff1673ffffffffffffffffffffffffffffffffffffffff16815260200190815260200160002060008785815181106123cf57fe5b6020026020010151815260200190815260200160002054612dd990919063ffffffff16565b6000808873ffffffffffffffffffffffffffffffffffffffff1673ffffffffffffffffffffffffffffffffffffffff168152602001908152602001600020600086848151811061244057fe5b60200260200101518152602001908152602001600020819055506124e283828151811061246957fe5b60200260200101516000808873ffffffffffffffffffffffffffffffffffffffff1673ffffffffffffffffffffffffffffffffffffffff16815260200190815260200160002060008785815181106124bd57fe5b602002602001015181526020019081526020016000205461292190919063ffffffff16565b6000808773ffffffffffffffffffffffffffffffffffffffff1673ffffffffffffffffffffffffffffffffffffffff168152602001908152602001600020600086848151811061252e57fe5b60200260200101518152602001908152602001600020819055508080600101915050612364565b508373ffffffffffffffffffffffffffffffffffffffff168573ffffffffffffffffffffffffffffffffffffffff163373ffffffffffffffffffffffffffffffffffffffff167f4a39dc06d4c0dbc64b70af90fd698a233a518aa5d07e595d983b8c0526c8f7fb8686604051808060200180602001838103835285818151815260200191508051906020019060200280838360005b838110156126055780820151818401526020810190506125ea565b50505050905001838103825284818151815260200191508051906020019060200280838360005b8381101561264757808201518184015260208101905061262c565b5050505090500194505050505060405180910390a45050505050565b6126828573ffffffffffffffffffffffffffffffffffffffff16612e62565b156129195760008573ffffffffffffffffffffffffffffffffffffffff1663bc197c8184338a8989886040518763ffffffff1660e01b8152600401808673ffffffffffffffffffffffffffffffffffffffff1673ffffffffffffffffffffffffffffffffffffffff1681526020018573ffffffffffffffffffffffffffffffffffffffff1673ffffffffffffffffffffffffffffffffffffffff168152602001806020018060200180602001848103845287818151815260200191508051906020019060200280838360005b8381101561276957808201518184015260208101905061274e565b50505050905001848103835286818151815260200191508051906020019060200280838360005b838110156127ab578082015181840152602081019050612790565b50505050905001848103825285818151815260200191508051906020019080838360005b838110156127ea5780820151818401526020810190506127cf565b50505050905090810190601f1680156128175780820380516001836020036101000a031916815260200191505b5098505050505050505050602060405180830381600088803b15801561283c57600080fd5b5087f1158015612850573d6000803e3d6000fd5b50505050506040513d602081101561286757600080fd5b8101908080519060200190929190505050905063bc197c8160e01b7bffffffffffffffffffffffffffffffffffffffffffffffffffffffff1916817bffffffffffffffffffffffffffffffffffffffffffffffffffffffff191614612917576040517f08c379a000000000000000000000000000000000000000000000000000000000815260040180806020018281038252603f81526020018061312e603f913960400191505060405180910390fd5b505b505050505050565b60008082840190508381101561299f576040517f08c379a00000000000000000000000000000000000000000000000000000000081526004018080602001828103825260168152602001807f536166654d617468236164643a204f564552464c4f570000000000000000000081525060200191505060405180910390fd5b8091505092915050565b6129c88573ffffffffffffffffffffffffffffffffffffffff16612e62565b15612bdd5760008573ffffffffffffffffffffffffffffffffffffffff1663f23a6e6184338a8989886040518763ffffffff1660e01b8152600401808673ffffffffffffffffffffffffffffffffffffffff1673ffffffffffffffffffffffffffffffffffffffff1681526020018573ffffffffffffffffffffffffffffffffffffffff1673ffffffffffffffffffffffffffffffffffffffff16815260200184815260200183815260200180602001828103825283818151815260200191508051906020019080838360005b83811015612ab0578082015181840152602081019050612a95565b50505050905090810190601f168015612add5780820380516001836020036101000a031916815260200191505b509650505050505050602060405180830381600088803b158015612b0057600080fd5b5087f1158015612b14573d6000803e3d6000fd5b50505050506040513d6020811015612b2b57600080fd5b8101908080519060200190929190505050905063f23a6e6160e01b7bffffffffffffffffffffffffffffffffffffffffffffffffffffffff1916817bffffffffffffffffffffffffffffffffffffffffffffffffffffffff191614612bdb576040517f08c379a000000000000000000000000000000000000000000000000000000000815260040180806020018281038252603a81526020018061316d603a913960400191505060405180910390fd5b505b505050505050565b612c47816000808773ffffffffffffffffffffffffffffffffffffffff1673ffffffffffffffffffffffffffffffffffffffff168152602001908152602001600020600085815260200190815260200160002054612dd990919063ffffffff16565b6000808673ffffffffffffffffffffffffffffffffffffffff1673ffffffffffffffffffffffffffffffffffffffff168152602001908152602001600020600084815260200190815260200160002081905550612cfc816000808673ffffffffffffffffffffffffffffffffffffffff1673ffffffffffffffffffffffffffffffffffffffff16815260200190815260200160002060008581526020019081526020016000205461292190919063ffffffff16565b6000808573ffffffffffffffffffffffffffffffffffffffff1673ffffffffffffffffffffffffffffffffffffffff1681526020019081526020016000206000848152602001908152602001600020819055508273ffffffffffffffffffffffffffffffffffffffff168473ffffffffffffffffffffffffffffffffffffffff163373ffffffffffffffffffffffffffffffffffffffff167fc3d58168c5ae7397731d063d5bbf3d657854427343f4c083240f7aacaa2d0f628585604051808381526020018281526020019250505060405180910390a450505050565b600082821115612e51576040517f08c379a00000000000000000000000000000000000000000000000000000000081526004018080602001828103825260178152602001807f536166654d617468237375623a20554e444552464c4f5700000000000000000081525060200191505060405180910390fd5b600082840390508091505092915050565b600080823f90506000801b8114158015612e9f57507fc5d2460186f7233c927e7db2dcc703c0e500b653ca82273b7bfad8045d85a47060001b8114155b915050919050565b828054600181600116156101000203166002900490600052602060002090601f016020900481019282601f10612ee857805160ff1916838001178555612f16565b82800160010185558215612f16579182015b82811115612f15578251825591602001919060010190612efa565b5b509050612f239190612fa7565b5090565b828054600181600116156101000203166002900490600052602060002090601f016020900481019282601f10612f6857805160ff1916838001178555612f96565b82800160010185558215612f96579182015b82811115612f95578251825591602001919060010190612f7a565b5b509050612fa39190612fa7565b5090565b612fc991905b80821115612fc5576000816000905550600101612fad565b5090565b9056fe4552433131353523736166655472616e7366657246726f6d3a20494e56414c49445f524543495049454e544552433131353523736166655472616e7366657246726f6d3a20494e56414c49445f4f50455241544f52455243313135353a2063616c6c6572206973206e6f74206f776e6572206e6f7220617070726f76656445524331313535235f7361666542617463685472616e7366657246726f6d3a20494e56414c49445f4152524159535f4c454e475448455243313135353a206275726e2066726f6d20746865207a65726f206164647265737345524331313535237361666542617463685472616e7366657246726f6d3a20494e56414c49445f524543495049454e54455243313135352362616c616e63654f6642617463683a20494e56414c49445f41525241595f4c454e47544845524331313535237361666542617463685472616e7366657246726f6d3a20494e56414c49445f4f50455241544f5245524331313535235f63616c6c6f6e45524331313535426174636852656365697665643a20494e56414c49445f4f4e5f524543454956455f4d45535341474545524331313535235f63616c6c6f6e4552433131353552656365697665643a20494e56414c49445f4f4e5f524543454956455f4d455353414745455243313135353a206d696e7420746f20746865207a65726f2061646472657373a265627a7a72315820f2b2ae4f6e153aedf98b2cf5d4d66c30132eab38467a1d2eb29d300c7e5b49fe64736f6c63430005110032",
  "source": "pragma solidity ^0.5.0;\n\nimport \"multi-token-standard/contracts/tokens/ERC1155/ERC1155.sol\";\nimport \"multi-token-standard/contracts/tokens/ERC1155/ERC1155Metadata.sol\";\nimport \"../proxyIdentity.sol\";\n\n/**\n * @dev Implementation of the multi-token standard with tokens being a proxy identity contracts.\n */\ncontract ERC1155Multiproxy is ERC1155, ERC1155Metadata {\n  struct Proxy {\n    address payable itsAddress;\n    address owner;\n    address creator;\n    string metadataUri;\n  }\n\n  mapping(uint256 => Proxy) private proxies;\n  uint256[] uids;\n\n  constructor(string memory baseMetadataUri) public {\n    _setBaseMetadataURI(baseMetadataUri);\n  }\n\n  modifier isOwnerOrApproved(address account) {\n    require(\n      account == msg.sender || isApprovedForAll(account, msg.sender),\n      \"ERC1155: caller is not owner nor approved\"\n    );\n    _;\n  }\n\n  /**\n   * @notice Invoked only by proxy when it is created\n   */\n  function mint(\n    address owner,\n    address creator,\n    uint256 id,\n    bytes memory data\n  ) public {\n    _mint(owner, id, 1, \"\");\n    proxies[id] = Proxy(msg.sender, owner, creator, \"\");\n    uids.push(id);\n  }\n\n  function safeTransferFrom(\n    address from,\n    address to,\n    uint256 id,\n    uint256 amount,\n    bytes memory data\n  ) public {\n    super.safeTransferFrom(from, to, id, amount, data);\n    if (amount == 1) {\n      _onProxyOwnerChanged(id, to);\n    }\n  }\n\n  function safeBatchTransferFrom(\n    address from,\n    address to,\n    uint256[] memory ids,\n    uint256[] memory amounts,\n    bytes memory data\n  ) public isOwnerOrApproved(from) {\n    super.safeBatchTransferFrom(from, to, ids, amounts, data);\n    for (uint256 i = 0; i < ids.length; i++) {\n      if (amounts[i] == 1) {\n        _onProxyOwnerChanged(ids[i], to);\n      }\n    }\n  }\n\n  function burn(address account, uint256 id) public isOwnerOrApproved(account) {\n    _burn(account, id);\n  }\n\n  function burnBatch(address account, uint256[] memory ids)\n    public\n    isOwnerOrApproved(account)\n  {\n    for (uint256 i = 0; i < ids.length; i++) {\n      _burn(account, ids[i]);\n    }\n  }\n\n  function updateUri(string memory newBaseMetadataUri) public {\n    _setBaseMetadataURI(newBaseMetadataUri);\n  }\n\n  function tokensOwnedBy(address owner) public view returns (uint256[] memory) {\n    uint256[] memory ids = new uint256[](uids.length);\n    uint256 count = 0;\n    for (uint256 i = 0; i < uids.length; i++) {\n      if (proxies[uids[i]].owner == owner) {\n        ids[count++] = uids[i];\n      }\n    }\n    uint256[] memory result = new uint256[](count);\n    for (uint256 i = 0; i < count; i++) {\n      result[i] = ids[i];\n    }\n    return result;\n  }\n  \n  function tokensCreatedBy(address creator) public view returns (uint256[] memory) {\n    uint256[] memory ids = new uint256[](uids.length);\n    uint256 count = 0;\n    for (uint256 i = 0; i < uids.length; i++) {\n      if (proxies[uids[i]].creator == creator) {\n        ids[count++] = uids[i];\n      }\n    }\n    uint256[] memory result = new uint256[](count);\n    for (uint256 i = 0; i < count; i++) {\n      result[i] = ids[i];\n    }\n    return result;\n  }\n\n  function _burn(address account, uint256 id) internal {\n    require(account != address(0), \"ERC1155: burn from the zero address\");\n\n    uint256 amount = balances[account][id];\n\n    address operator = msg.sender;\n\n    balances[account][id] = 0;\n\n    ProxyIdentity proxy = ProxyIdentity(proxies[id].itsAddress);\n    proxy.onBurn();\n    proxies[id] = Proxy(address(0), address(0), address(0), \"\");\n\n    emit TransferSingle(operator, account, address(0), id, amount);\n  }\n\n  function _mint(\n    address account,\n    uint256 id,\n    uint256 amount,\n    bytes memory data\n  ) internal {\n    require(account != address(0), \"ERC1155: mint to the zero address\");\n\n    address operator = msg.sender;\n\n    balances[account][id] = balances[account][id].add(amount);\n\n    _callonERC1155Received(address(0), account, id, amount, gasleft(), data);\n\n    emit TransferSingle(operator, address(0), account, id, amount);\n  }\n\n  function _onProxyOwnerChanged(uint256 id, address owner) internal {\n    ProxyIdentity proxy = ProxyIdentity(proxies[id].itsAddress);\n    proxy.onOwnerChanged(owner);\n  }\n}\n",
  "sourcePath": "/home/dima/Development/ew-did-registry/packages/proxyIdentity/contracts/tokens/ERC1155Multiproxy.sol",
  "compiler": {
    "name": "solc",
    "version": "0.5.17+commit.d19bba13.Emscripten.clang"
  },
  "schemaVersion": "3.0.16",
  "updatedAt": "2020-10-16T09:39:26.517Z",
  "devdoc": {
    "details": "Implementation of the multi-token standard with tokens being a proxy identity contracts.",
    "methods": {
      "balanceOf(address,uint256)": {
        "params": {
          "_id": "ID of the Token",
          "_owner": "The address of the token holder"
        },
        "return": "The _owner's balance of the Token type requested"
      },
      "balanceOfBatch(address[],uint256[])": {
        "params": {
          "_ids": "ID of the Tokens",
          "_owners": "The addresses of the token holders"
        },
        "return": "The _owner's balance of the Token types requested (i.e. balance for each (owner, id) pair)"
      },
      "isApprovedForAll(address,address)": {
        "params": {
          "_operator": "Address of authorized operator",
          "_owner": "The owner of the Tokens"
        },
        "return": "True if the operator is approved, false if not"
      },
      "setApprovalForAll(address,bool)": {
        "params": {
          "_approved": "True if the operator is approved, false to revoke approval",
          "_operator": "Address to add to the set of authorized operators"
        }
      },
      "supportsInterface(bytes4)": {
        "params": {
          "_interfaceID": "The interface identifier, as specified in ERC-165"
        },
        "return": "`true` if the contract implements `_interfaceID` and"
      },
      "uri(uint256)": {
        "details": "URIs are defined in RFC 3986.     URIs are assumed to be deterministically generated based on token ID     Token IDs are assumed to be represented in their hex format in URIs",
        "return": "URI string"
      }
    }
  },
  "userdoc": {
    "methods": {
      "balanceOf(address,uint256)": {
        "notice": "Get the balance of an account's Tokens"
      },
      "balanceOfBatch(address[],uint256[])": {
        "notice": "Get the balance of multiple account/token pairs"
      },
      "isApprovedForAll(address,address)": {
        "notice": "Queries the approval status of an operator for a given owner"
      },
      "mint(address,address,uint256,bytes)": {
        "notice": "Invoked only by proxy when it is created"
      },
      "setApprovalForAll(address,bool)": {
        "notice": "Enable or disable approval for a third party (\"operator\") to manage all of caller's tokens"
      },
      "supportsInterface(bytes4)": {
        "notice": "Query if a contract implements an interface"
      },
      "uri(uint256)": {
        "notice": "A distinct Uniform Resource Identifier (URI) for a given token."
      }
    }
  }
}