{
  "contractName": "ERC1155Multiproxy",
  "abi": [
    {
      "inputs": [
        {
          "internalType": "string",
          "name": "baseMetadataUri",
          "type": "string"
        }
      ],
      "payable": false,
      "stateMutability": "nonpayable",
      "type": "constructor"
    },
    {
      "anonymous": false,
      "inputs": [
        {
          "indexed": true,
          "internalType": "address",
          "name": "_owner",
          "type": "address"
        },
        {
          "indexed": true,
          "internalType": "address",
          "name": "_operator",
          "type": "address"
        },
        {
          "indexed": false,
          "internalType": "bool",
          "name": "_approved",
          "type": "bool"
        }
      ],
      "name": "ApprovalForAll",
      "type": "event"
    },
    {
      "anonymous": false,
      "inputs": [
        {
          "indexed": true,
          "internalType": "address",
          "name": "_operator",
          "type": "address"
        },
        {
          "indexed": true,
          "internalType": "address",
          "name": "_from",
          "type": "address"
        },
        {
          "indexed": true,
          "internalType": "address",
          "name": "_to",
          "type": "address"
        },
        {
          "indexed": false,
          "internalType": "uint256[]",
          "name": "_ids",
          "type": "uint256[]"
        },
        {
          "indexed": false,
          "internalType": "uint256[]",
          "name": "_amounts",
          "type": "uint256[]"
        }
      ],
      "name": "TransferBatch",
      "type": "event"
    },
    {
      "anonymous": false,
      "inputs": [
        {
          "indexed": true,
          "internalType": "address",
          "name": "_operator",
          "type": "address"
        },
        {
          "indexed": true,
          "internalType": "address",
          "name": "_from",
          "type": "address"
        },
        {
          "indexed": true,
          "internalType": "address",
          "name": "_to",
          "type": "address"
        },
        {
          "indexed": false,
          "internalType": "uint256",
          "name": "_id",
          "type": "uint256"
        },
        {
          "indexed": false,
          "internalType": "uint256",
          "name": "_amount",
          "type": "uint256"
        }
      ],
      "name": "TransferSingle",
      "type": "event"
    },
    {
      "anonymous": false,
      "inputs": [
        {
          "indexed": false,
          "internalType": "string",
          "name": "_uri",
          "type": "string"
        },
        {
          "indexed": true,
          "internalType": "uint256",
          "name": "_id",
          "type": "uint256"
        }
      ],
      "name": "URI",
      "type": "event"
    },
    {
      "constant": true,
      "inputs": [
        {
          "internalType": "address",
          "name": "_owner",
          "type": "address"
        },
        {
          "internalType": "uint256",
          "name": "_id",
          "type": "uint256"
        }
      ],
      "name": "balanceOf",
      "outputs": [
        {
          "internalType": "uint256",
          "name": "",
          "type": "uint256"
        }
      ],
      "payable": false,
      "stateMutability": "view",
      "type": "function"
    },
    {
      "constant": true,
      "inputs": [
        {
          "internalType": "address[]",
          "name": "_owners",
          "type": "address[]"
        },
        {
          "internalType": "uint256[]",
          "name": "_ids",
          "type": "uint256[]"
        }
      ],
      "name": "balanceOfBatch",
      "outputs": [
        {
          "internalType": "uint256[]",
          "name": "",
          "type": "uint256[]"
        }
      ],
      "payable": false,
      "stateMutability": "view",
      "type": "function"
    },
    {
      "constant": true,
      "inputs": [
        {
          "internalType": "address",
          "name": "_owner",
          "type": "address"
        },
        {
          "internalType": "address",
          "name": "_operator",
          "type": "address"
        }
      ],
      "name": "isApprovedForAll",
      "outputs": [
        {
          "internalType": "bool",
          "name": "isOperator",
          "type": "bool"
        }
      ],
      "payable": false,
      "stateMutability": "view",
      "type": "function"
    },
    {
      "constant": false,
      "inputs": [
        {
          "internalType": "address",
          "name": "_operator",
          "type": "address"
        },
        {
          "internalType": "bool",
          "name": "_approved",
          "type": "bool"
        }
      ],
      "name": "setApprovalForAll",
      "outputs": [],
      "payable": false,
      "stateMutability": "nonpayable",
      "type": "function"
    },
    {
      "constant": true,
      "inputs": [
        {
          "internalType": "bytes4",
          "name": "_interfaceID",
          "type": "bytes4"
        }
      ],
      "name": "supportsInterface",
      "outputs": [
        {
          "internalType": "bool",
          "name": "",
          "type": "bool"
        }
      ],
      "payable": false,
      "stateMutability": "view",
      "type": "function"
    },
    {
      "constant": true,
      "inputs": [
        {
          "internalType": "uint256",
          "name": "_id",
          "type": "uint256"
        }
      ],
      "name": "uri",
      "outputs": [
        {
          "internalType": "string",
          "name": "",
          "type": "string"
        }
      ],
      "payable": false,
      "stateMutability": "view",
      "type": "function"
    },
    {
      "constant": false,
      "inputs": [
        {
          "internalType": "address",
          "name": "owner",
          "type": "address"
        },
        {
          "internalType": "address",
          "name": "creator",
          "type": "address"
        },
        {
          "internalType": "uint256",
          "name": "id",
          "type": "uint256"
        },
        {
          "internalType": "bytes",
          "name": "data",
          "type": "bytes"
        }
      ],
      "name": "mint",
      "outputs": [],
      "payable": false,
      "stateMutability": "nonpayable",
      "type": "function"
    },
    {
      "constant": false,
      "inputs": [
        {
          "internalType": "address",
          "name": "from",
          "type": "address"
        },
        {
          "internalType": "address",
          "name": "to",
          "type": "address"
        },
        {
          "internalType": "uint256",
          "name": "id",
          "type": "uint256"
        },
        {
          "internalType": "uint256",
          "name": "amount",
          "type": "uint256"
        },
        {
          "internalType": "bytes",
          "name": "data",
          "type": "bytes"
        }
      ],
      "name": "safeTransferFrom",
      "outputs": [],
      "payable": false,
      "stateMutability": "nonpayable",
      "type": "function"
    },
    {
      "constant": false,
      "inputs": [
        {
          "internalType": "address",
          "name": "from",
          "type": "address"
        },
        {
          "internalType": "address",
          "name": "to",
          "type": "address"
        },
        {
          "internalType": "uint256[]",
          "name": "ids",
          "type": "uint256[]"
        },
        {
          "internalType": "uint256[]",
          "name": "amounts",
          "type": "uint256[]"
        },
        {
          "internalType": "bytes",
          "name": "data",
          "type": "bytes"
        }
      ],
      "name": "safeBatchTransferFrom",
      "outputs": [],
      "payable": false,
      "stateMutability": "nonpayable",
      "type": "function"
    },
    {
      "constant": false,
      "inputs": [
        {
          "internalType": "address",
          "name": "account",
          "type": "address"
        },
        {
          "internalType": "uint256",
          "name": "id",
          "type": "uint256"
        }
      ],
      "name": "burn",
      "outputs": [],
      "payable": false,
      "stateMutability": "nonpayable",
      "type": "function"
    },
    {
      "constant": false,
      "inputs": [
        {
          "internalType": "address",
          "name": "account",
          "type": "address"
        },
        {
          "internalType": "uint256[]",
          "name": "ids",
          "type": "uint256[]"
        }
      ],
      "name": "burnBatch",
      "outputs": [],
      "payable": false,
      "stateMutability": "nonpayable",
      "type": "function"
    },
    {
      "constant": false,
      "inputs": [
        {
          "internalType": "string",
          "name": "newBaseMetadataUri",
          "type": "string"
        }
      ],
      "name": "updateUri",
      "outputs": [],
      "payable": false,
      "stateMutability": "nonpayable",
      "type": "function"
    },
    {
      "constant": true,
      "inputs": [
        {
          "internalType": "address",
          "name": "owner",
          "type": "address"
        }
      ],
      "name": "tokensOwnedBy",
      "outputs": [
        {
          "internalType": "uint256[]",
          "name": "",
          "type": "uint256[]"
        }
      ],
      "payable": false,
      "stateMutability": "view",
      "type": "function"
    }
  ],
  "bytecode": "0x60806040523480156200001157600080fd5b506040516200319438038062003194833981810160405260208110156200003757600080fd5b81019080805160405193929190846401000000008211156200005857600080fd5b838201915060208201858111156200006f57600080fd5b82518660018202830111640100000000821117156200008d57600080fd5b8083526020830192505050908051906020019080838360005b83811015620000c3578082015181840152602081019050620000a6565b50505050905090810190601f168015620000f15780820380516001836020036101000a031916815260200191505b5060405250505062000109816200011060201b60201c565b50620001db565b8060029080519060200190620001289291906200012c565b5050565b828054600181600116156101000203166002900490600052602060002090601f016020900481019282601f106200016f57805160ff1916838001178555620001a0565b82800160010185558215620001a0579182015b828111156200019f57825182559160200191906001019062000182565b5b509050620001af9190620001b3565b5090565b620001d891905b80821115620001d4576000816000905550600101620001ba565b5090565b90565b612fa980620001eb6000396000f3fe608060405234801561001057600080fd5b50600436106100ce5760003560e01c80636010a5e71161008c578063b2dc5dc311610066578063b2dc5dc314610863578063e985e9c51461093b578063ea66aeb3146109b7578063f242432a14610a50576100ce565b80636010a5e7146106c05780639dc29fac146107c5578063a22cb46514610813576100ce565b8062fdd58e146100d357806301ffc9a7146101355780630e89341c1461019a5780632eb2c2d6146102415780634e1273f414610464578063570b3c6a14610605575b600080fd5b61011f600480360360408110156100e957600080fd5b81019080803573ffffffffffffffffffffffffffffffffffffffff16906020019092919080359060200190929190505050610b5f565b6040518082815260200191505060405180910390f35b6101806004803603602081101561014b57600080fd5b8101908080357bffffffffffffffffffffffffffffffffffffffffffffffffffffffff19169060200190929190505050610bb9565b604051808215151515815260200191505060405180910390f35b6101c6600480360360208110156101b057600080fd5b8101908080359060200190929190505050610c6a565b6040518080602001828103825283818151815260200191508051906020019080838360005b838110156102065780820151818401526020810190506101eb565b50505050905090810190601f1680156102335780820380516001836020036101000a031916815260200191505b509250505060405180910390f35b610462600480360360a081101561025757600080fd5b81019080803573ffffffffffffffffffffffffffffffffffffffff169060200190929190803573ffffffffffffffffffffffffffffffffffffffff169060200190929190803590602001906401000000008111156102b457600080fd5b8201836020820111156102c657600080fd5b803590602001918460208302840111640100000000831117156102e857600080fd5b919080806020026020016040519081016040528093929190818152602001838360200280828437600081840152601f19601f8201169050808301925050505050505091929192908035906020019064010000000081111561034857600080fd5b82018360208201111561035a57600080fd5b8035906020019184602083028401116401000000008311171561037c57600080fd5b919080806020026020016040519081016040528093929190818152602001838360200280828437600081840152601f19601f820116905080830192505050505050509192919290803590602001906401000000008111156103dc57600080fd5b8201836020820111156103ee57600080fd5b8035906020019184600183028401116401000000008311171561041057600080fd5b91908080601f016020809104026020016040519081016040528093929190818152602001838380828437600081840152601f19601f820116905080830192505050505050509192919290505050610d6a565b005b6105ae6004803603604081101561047a57600080fd5b810190808035906020019064010000000081111561049757600080fd5b8201836020820111156104a957600080fd5b803590602001918460208302840111640100000000831117156104cb57600080fd5b919080806020026020016040519081016040528093929190818152602001838360200280828437600081840152601f19601f8201169050808301925050505050505091929192908035906020019064010000000081111561052b57600080fd5b82018360208201111561053d57600080fd5b8035906020019184602083028401116401000000008311171561055f57600080fd5b919080806020026020016040519081016040528093929190818152602001838360200280828437600081840152601f19601f820116905080830192505050505050509192919290505050610e6c565b6040518080602001828103825283818151815260200191508051906020019060200280838360005b838110156105f15780820151818401526020810190506105d6565b505050509050019250505060405180910390f35b6106be6004803603602081101561061b57600080fd5b810190808035906020019064010000000081111561063857600080fd5b82018360208201111561064a57600080fd5b8035906020019184600183028401116401000000008311171561066c57600080fd5b91908080601f016020809104026020016040519081016040528093929190818152602001838380828437600081840152601f19601f820116905080830192505050505050509192919290505050610fb2565b005b6107c3600480360360808110156106d657600080fd5b81019080803573ffffffffffffffffffffffffffffffffffffffff169060200190929190803573ffffffffffffffffffffffffffffffffffffffff169060200190929190803590602001909291908035906020019064010000000081111561073d57600080fd5b82018360208201111561074f57600080fd5b8035906020019184600183028401116401000000008311171561077157600080fd5b91908080601f016020809104026020016040519081016040528093929190818152602001838380828437600081840152601f19601f820116905080830192505050505050509192919290505050610fbe565b005b610811600480360360408110156107db57600080fd5b81019080803573ffffffffffffffffffffffffffffffffffffffff16906020019092919080359060200190929190505050611186565b005b6108616004803603604081101561082957600080fd5b81019080803573ffffffffffffffffffffffffffffffffffffffff16906020019092919080351515906020019092919050505061122b565b005b6109396004803603604081101561087957600080fd5b81019080803573ffffffffffffffffffffffffffffffffffffffff169060200190929190803590602001906401000000008111156108b657600080fd5b8201836020820111156108c857600080fd5b803590602001918460208302840111640100000000831117156108ea57600080fd5b919080806020026020016040519081016040528093929190818152602001838360200280828437600081840152601f19601f82011690508083019250505050505050919291929050505061132c565b005b61099d6004803603604081101561095157600080fd5b81019080803573ffffffffffffffffffffffffffffffffffffffff169060200190929190803573ffffffffffffffffffffffffffffffffffffffff169060200190929190505050611401565b604051808215151515815260200191505060405180910390f35b6109f9600480360360208110156109cd57600080fd5b81019080803573ffffffffffffffffffffffffffffffffffffffff169060200190929190505050611495565b6040518080602001828103825283818151815260200191508051906020019060200280838360005b83811015610a3c578082015181840152602081019050610a21565b505050509050019250505060405180910390f35b610b5d600480360360a0811015610a6657600080fd5b81019080803573ffffffffffffffffffffffffffffffffffffffff169060200190929190803573ffffffffffffffffffffffffffffffffffffffff169060200190929190803590602001909291908035906020019092919080359060200190640100000000811115610ad757600080fd5b820183602082011115610ae957600080fd5b80359060200191846001830284011164010000000083111715610b0b57600080fd5b91908080601f016020809104026020016040519081016040528093929190818152602001838380828437600081840152601f19601f820116905080830192505050505050509192919290505050611634565b005b60008060008473ffffffffffffffffffffffffffffffffffffffff1673ffffffffffffffffffffffffffffffffffffffff168152602001908152602001600020600083815260200190815260200160002054905092915050565b60006301ffc9a760e01b7bffffffffffffffffffffffffffffffffffffffffffffffffffffffff1916827bffffffffffffffffffffffffffffffffffffffffffffffffffffffff19161480610c52575063d9b67a2660e01b7bffffffffffffffffffffffffffffffffffffffffffffffffffffffff1916827bffffffffffffffffffffffffffffffffffffffffffffffffffffffff1916145b15610c605760019050610c65565b600090505b919050565b60606002610c778361165c565b6040516020018083805460018160011615610100020316600290048015610cd55780601f10610cb3576101008083540402835291820191610cd5565b820191906000526020600020905b815481529060010190602001808311610cc1575b505082805190602001908083835b60208310610d065780518252602082019150602081019050602083039250610ce3565b6001836020036101000a038019825116818451168082178552505050505050905001807f2e6a736f6e000000000000000000000000000000000000000000000000000000815250600501925050506040516020818303038152906040529050919050565b843373ffffffffffffffffffffffffffffffffffffffff168173ffffffffffffffffffffffffffffffffffffffff161480610dab5750610daa8133611401565b5b610e00576040517f08c379a0000000000000000000000000000000000000000000000000000000008152600401808060200182810382526029815260200180612dcf6029913960400191505060405180910390fd5b610e0d868686868661178f565b60008090505b8451811015610e63576001848281518110610e2a57fe5b60200260200101511415610e5657610e55858281518110610e4757fe5b6020026020010151876118cb565b5b8080600101915050610e13565b50505050505050565b60608151835114610ec8576040517f08c379a000000000000000000000000000000000000000000000000000000000815260040180806020018281038252602c815260200180612e80602c913960400191505060405180910390fd5b60608351604051908082528060200260200182016040528015610efa5781602001602082028038833980820191505090505b50905060008090505b8451811015610fa757600080868381518110610f1b57fe5b602002602001015173ffffffffffffffffffffffffffffffffffffffff1673ffffffffffffffffffffffffffffffffffffffff1681526020019081526020016000206000858381518110610f6b57fe5b6020026020010151815260200190815260200160002054828281518110610f8e57fe5b6020026020010181815250508080600101915050610f03565b508091505092915050565b610fbb816119a2565b50565b610fda84836001604051806020016040528060008152506119bc565b60405180608001604052803373ffffffffffffffffffffffffffffffffffffffff1681526020018573ffffffffffffffffffffffffffffffffffffffff1681526020018473ffffffffffffffffffffffffffffffffffffffff168152602001604051806020016040528060008152508152506003600084815260200190815260200160002060008201518160000160006101000a81548173ffffffffffffffffffffffffffffffffffffffff021916908373ffffffffffffffffffffffffffffffffffffffff16021790555060208201518160010160006101000a81548173ffffffffffffffffffffffffffffffffffffffff021916908373ffffffffffffffffffffffffffffffffffffffff16021790555060408201518160020160006101000a81548173ffffffffffffffffffffffffffffffffffffffff021916908373ffffffffffffffffffffffffffffffffffffffff1602179055506060820151816003019080519060200190611150929190612c54565b50905050600482908060018154018082558091505090600182039060005260206000200160009091929091909150555050505050565b813373ffffffffffffffffffffffffffffffffffffffff168173ffffffffffffffffffffffffffffffffffffffff1614806111c757506111c68133611401565b5b61121c576040517f08c379a0000000000000000000000000000000000000000000000000000000008152600401808060200182810382526029815260200180612dcf6029913960400191505060405180910390fd5b6112268383611b97565b505050565b80600160003373ffffffffffffffffffffffffffffffffffffffff1673ffffffffffffffffffffffffffffffffffffffff16815260200190815260200160002060008473ffffffffffffffffffffffffffffffffffffffff1673ffffffffffffffffffffffffffffffffffffffff16815260200190815260200160002060006101000a81548160ff0219169083151502179055508173ffffffffffffffffffffffffffffffffffffffff163373ffffffffffffffffffffffffffffffffffffffff167f17307eab39ab6107e8899845ad3d59bd9653f200f220920489ca2b5937696c3183604051808215151515815260200191505060405180910390a35050565b813373ffffffffffffffffffffffffffffffffffffffff168173ffffffffffffffffffffffffffffffffffffffff16148061136d575061136c8133611401565b5b6113c2576040517f08c379a0000000000000000000000000000000000000000000000000000000008152600401808060200182810382526029815260200180612dcf6029913960400191505060405180910390fd5b60008090505b82518110156113fb576113ee848483815181106113e157fe5b6020026020010151611b97565b80806001019150506113c8565b50505050565b6000600160008473ffffffffffffffffffffffffffffffffffffffff1673ffffffffffffffffffffffffffffffffffffffff16815260200190815260200160002060008373ffffffffffffffffffffffffffffffffffffffff1673ffffffffffffffffffffffffffffffffffffffff16815260200190815260200160002060009054906101000a900460ff16905092915050565b6060806004805490506040519080825280602002602001820160405280156114cc5781602001602082028038833980820191505090505b509050600080905060008090505b6004805490508110156115ac578473ffffffffffffffffffffffffffffffffffffffff16600360006004848154811061150f57fe5b9060005260206000200154815260200190815260200160002060010160009054906101000a900473ffffffffffffffffffffffffffffffffffffffff1673ffffffffffffffffffffffffffffffffffffffff16141561159f576004818154811061157557fe5b906000526020600020015483838060010194508151811061159257fe5b6020026020010181815250505b80806001019150506114da565b506060816040519080825280602002602001820160405280156115de5781602001602082028038833980820191505090505b50905060008090505b82811015611628578381815181106115fb57fe5b602002602001015182828151811061160f57fe5b60200260200101818152505080806001019150506115e7565b50809350505050919050565b6116418585858585611f6f565b60018214156116555761165483856118cb565b5b5050505050565b606060008214156116a4576040518060400160405280600181526020017f3000000000000000000000000000000000000000000000000000000000000000815250905061178a565b6000829050600083905060005b600083146116d3578080600101915050600a83816116cb57fe5b0492506116b1565b6060816040519080825280601f01601f1916602001820160405280156117085781602001600182028038833980820191505090505b50905060006001830390505b6000841461178157600a848161172657fe5b0660300160f81b8282806001900393508151811061174057fe5b60200101907effffffffffffffffffffffffffffffffffffffffffffffffffffffffffffff1916908160001a905350600a848161177957fe5b049350611714565b81955050505050505b919050565b8473ffffffffffffffffffffffffffffffffffffffff163373ffffffffffffffffffffffffffffffffffffffff1614806117cf57506117ce8533611401565b5b611824576040517f08c379a000000000000000000000000000000000000000000000000000000000815260040180806020018281038252602f815260200180612eac602f913960400191505060405180910390fd5b600073ffffffffffffffffffffffffffffffffffffffff168473ffffffffffffffffffffffffffffffffffffffff1614156118aa576040517f08c379a0000000000000000000000000000000000000000000000000000000008152600401808060200182810382526030815260200180612e506030913960400191505060405180910390fd5b6118b6858585856120ab565b6118c4858585855a86612410565b5050505050565b60006003600084815260200190815260200160002060000160009054906101000a900473ffffffffffffffffffffffffffffffffffffffff1690508073ffffffffffffffffffffffffffffffffffffffff166373125fc4836040518263ffffffff1660e01b8152600401808273ffffffffffffffffffffffffffffffffffffffff1673ffffffffffffffffffffffffffffffffffffffff168152602001915050600060405180830381600087803b15801561198557600080fd5b505af1158015611999573d6000803e3d6000fd5b50505050505050565b80600290805190602001906119b8929190612cd4565b5050565b600073ffffffffffffffffffffffffffffffffffffffff168473ffffffffffffffffffffffffffffffffffffffff161415611a42576040517f08c379a0000000000000000000000000000000000000000000000000000000008152600401808060200182810382526021815260200180612f546021913960400191505060405180910390fd5b6000339050611aa9836000808873ffffffffffffffffffffffffffffffffffffffff1673ffffffffffffffffffffffffffffffffffffffff1681526020019081526020016000206000878152602001908152602001600020546126ce90919063ffffffff16565b6000808773ffffffffffffffffffffffffffffffffffffffff1673ffffffffffffffffffffffffffffffffffffffff168152602001908152602001600020600086815260200190815260200160002081905550611b0b60008686865a87612756565b8473ffffffffffffffffffffffffffffffffffffffff16600073ffffffffffffffffffffffffffffffffffffffff168273ffffffffffffffffffffffffffffffffffffffff167fc3d58168c5ae7397731d063d5bbf3d657854427343f4c083240f7aacaa2d0f628787604051808381526020018281526020019250505060405180910390a45050505050565b600073ffffffffffffffffffffffffffffffffffffffff168273ffffffffffffffffffffffffffffffffffffffff161415611c1d576040517f08c379a0000000000000000000000000000000000000000000000000000000008152600401808060200182810382526023815260200180612e2d6023913960400191505060405180910390fd5b60008060008473ffffffffffffffffffffffffffffffffffffffff1673ffffffffffffffffffffffffffffffffffffffff1681526020019081526020016000206000838152602001908152602001600020549050600033905060008060008673ffffffffffffffffffffffffffffffffffffffff1673ffffffffffffffffffffffffffffffffffffffff16815260200190815260200160002060008581526020019081526020016000208190555060006003600085815260200190815260200160002060000160009054906101000a900473ffffffffffffffffffffffffffffffffffffffff1690508073ffffffffffffffffffffffffffffffffffffffff16638bbd36016040518163ffffffff1660e01b8152600401600060405180830381600087803b158015611d4e57600080fd5b505af1158015611d62573d6000803e3d6000fd5b505050506040518060800160405280600073ffffffffffffffffffffffffffffffffffffffff168152602001600073ffffffffffffffffffffffffffffffffffffffff168152602001600073ffffffffffffffffffffffffffffffffffffffff168152602001604051806020016040528060008152508152506003600086815260200190815260200160002060008201518160000160006101000a81548173ffffffffffffffffffffffffffffffffffffffff021916908373ffffffffffffffffffffffffffffffffffffffff16021790555060208201518160010160006101000a81548173ffffffffffffffffffffffffffffffffffffffff021916908373ffffffffffffffffffffffffffffffffffffffff16021790555060408201518160020160006101000a81548173ffffffffffffffffffffffffffffffffffffffff021916908373ffffffffffffffffffffffffffffffffffffffff1602179055506060820151816003019080519060200190611edf929190612c54565b50905050600073ffffffffffffffffffffffffffffffffffffffff168573ffffffffffffffffffffffffffffffffffffffff168373ffffffffffffffffffffffffffffffffffffffff167fc3d58168c5ae7397731d063d5bbf3d657854427343f4c083240f7aacaa2d0f628787604051808381526020018281526020019250505060405180910390a45050505050565b8473ffffffffffffffffffffffffffffffffffffffff163373ffffffffffffffffffffffffffffffffffffffff161480611faf5750611fae8533611401565b5b612004576040517f08c379a000000000000000000000000000000000000000000000000000000000815260040180806020018281038252602a815260200180612da5602a913960400191505060405180910390fd5b600073ffffffffffffffffffffffffffffffffffffffff168473ffffffffffffffffffffffffffffffffffffffff16141561208a576040517f08c379a000000000000000000000000000000000000000000000000000000000815260040180806020018281038252602b815260200180612d7a602b913960400191505060405180910390fd5b61209685858585612992565b6120a4858585855a86612756565b5050505050565b8051825114612105576040517f08c379a0000000000000000000000000000000000000000000000000000000008152600401808060200182810382526035815260200180612df86035913960400191505060405180910390fd5b60008251905060008090505b81811015612302576121a183828151811061212857fe5b60200260200101516000808973ffffffffffffffffffffffffffffffffffffffff1673ffffffffffffffffffffffffffffffffffffffff168152602001908152602001600020600087858151811061217c57fe5b6020026020010151815260200190815260200160002054612b8690919063ffffffff16565b6000808873ffffffffffffffffffffffffffffffffffffffff1673ffffffffffffffffffffffffffffffffffffffff16815260200190815260200160002060008684815181106121ed57fe5b602002602001015181526020019081526020016000208190555061228f83828151811061221657fe5b60200260200101516000808873ffffffffffffffffffffffffffffffffffffffff1673ffffffffffffffffffffffffffffffffffffffff168152602001908152602001600020600087858151811061226a57fe5b60200260200101518152602001908152602001600020546126ce90919063ffffffff16565b6000808773ffffffffffffffffffffffffffffffffffffffff1673ffffffffffffffffffffffffffffffffffffffff16815260200190815260200160002060008684815181106122db57fe5b60200260200101518152602001908152602001600020819055508080600101915050612111565b508373ffffffffffffffffffffffffffffffffffffffff168573ffffffffffffffffffffffffffffffffffffffff163373ffffffffffffffffffffffffffffffffffffffff167f4a39dc06d4c0dbc64b70af90fd698a233a518aa5d07e595d983b8c0526c8f7fb8686604051808060200180602001838103835285818151815260200191508051906020019060200280838360005b838110156123b2578082015181840152602081019050612397565b50505050905001838103825284818151815260200191508051906020019060200280838360005b838110156123f45780820151818401526020810190506123d9565b5050505090500194505050505060405180910390a45050505050565b61242f8573ffffffffffffffffffffffffffffffffffffffff16612c0f565b156126c65760008573ffffffffffffffffffffffffffffffffffffffff1663bc197c8184338a8989886040518763ffffffff1660e01b8152600401808673ffffffffffffffffffffffffffffffffffffffff1673ffffffffffffffffffffffffffffffffffffffff1681526020018573ffffffffffffffffffffffffffffffffffffffff1673ffffffffffffffffffffffffffffffffffffffff168152602001806020018060200180602001848103845287818151815260200191508051906020019060200280838360005b838110156125165780820151818401526020810190506124fb565b50505050905001848103835286818151815260200191508051906020019060200280838360005b8381101561255857808201518184015260208101905061253d565b50505050905001848103825285818151815260200191508051906020019080838360005b8381101561259757808201518184015260208101905061257c565b50505050905090810190601f1680156125c45780820380516001836020036101000a031916815260200191505b5098505050505050505050602060405180830381600088803b1580156125e957600080fd5b5087f11580156125fd573d6000803e3d6000fd5b50505050506040513d602081101561261457600080fd5b8101908080519060200190929190505050905063bc197c8160e01b7bffffffffffffffffffffffffffffffffffffffffffffffffffffffff1916817bffffffffffffffffffffffffffffffffffffffffffffffffffffffff1916146126c4576040517f08c379a000000000000000000000000000000000000000000000000000000000815260040180806020018281038252603f815260200180612edb603f913960400191505060405180910390fd5b505b505050505050565b60008082840190508381101561274c576040517f08c379a00000000000000000000000000000000000000000000000000000000081526004018080602001828103825260168152602001807f536166654d617468236164643a204f564552464c4f570000000000000000000081525060200191505060405180910390fd5b8091505092915050565b6127758573ffffffffffffffffffffffffffffffffffffffff16612c0f565b1561298a5760008573ffffffffffffffffffffffffffffffffffffffff1663f23a6e6184338a8989886040518763ffffffff1660e01b8152600401808673ffffffffffffffffffffffffffffffffffffffff1673ffffffffffffffffffffffffffffffffffffffff1681526020018573ffffffffffffffffffffffffffffffffffffffff1673ffffffffffffffffffffffffffffffffffffffff16815260200184815260200183815260200180602001828103825283818151815260200191508051906020019080838360005b8381101561285d578082015181840152602081019050612842565b50505050905090810190601f16801561288a5780820380516001836020036101000a031916815260200191505b509650505050505050602060405180830381600088803b1580156128ad57600080fd5b5087f11580156128c1573d6000803e3d6000fd5b50505050506040513d60208110156128d857600080fd5b8101908080519060200190929190505050905063f23a6e6160e01b7bffffffffffffffffffffffffffffffffffffffffffffffffffffffff1916817bffffffffffffffffffffffffffffffffffffffffffffffffffffffff191614612988576040517f08c379a000000000000000000000000000000000000000000000000000000000815260040180806020018281038252603a815260200180612f1a603a913960400191505060405180910390fd5b505b505050505050565b6129f4816000808773ffffffffffffffffffffffffffffffffffffffff1673ffffffffffffffffffffffffffffffffffffffff168152602001908152602001600020600085815260200190815260200160002054612b8690919063ffffffff16565b6000808673ffffffffffffffffffffffffffffffffffffffff1673ffffffffffffffffffffffffffffffffffffffff168152602001908152602001600020600084815260200190815260200160002081905550612aa9816000808673ffffffffffffffffffffffffffffffffffffffff1673ffffffffffffffffffffffffffffffffffffffff1681526020019081526020016000206000858152602001908152602001600020546126ce90919063ffffffff16565b6000808573ffffffffffffffffffffffffffffffffffffffff1673ffffffffffffffffffffffffffffffffffffffff1681526020019081526020016000206000848152602001908152602001600020819055508273ffffffffffffffffffffffffffffffffffffffff168473ffffffffffffffffffffffffffffffffffffffff163373ffffffffffffffffffffffffffffffffffffffff167fc3d58168c5ae7397731d063d5bbf3d657854427343f4c083240f7aacaa2d0f628585604051808381526020018281526020019250505060405180910390a450505050565b600082821115612bfe576040517f08c379a00000000000000000000000000000000000000000000000000000000081526004018080602001828103825260178152602001807f536166654d617468237375623a20554e444552464c4f5700000000000000000081525060200191505060405180910390fd5b600082840390508091505092915050565b600080823f90506000801b8114158015612c4c57507fc5d2460186f7233c927e7db2dcc703c0e500b653ca82273b7bfad8045d85a47060001b8114155b915050919050565b828054600181600116156101000203166002900490600052602060002090601f016020900481019282601f10612c9557805160ff1916838001178555612cc3565b82800160010185558215612cc3579182015b82811115612cc2578251825591602001919060010190612ca7565b5b509050612cd09190612d54565b5090565b828054600181600116156101000203166002900490600052602060002090601f016020900481019282601f10612d1557805160ff1916838001178555612d43565b82800160010185558215612d43579182015b82811115612d42578251825591602001919060010190612d27565b5b509050612d509190612d54565b5090565b612d7691905b80821115612d72576000816000905550600101612d5a565b5090565b9056fe4552433131353523736166655472616e7366657246726f6d3a20494e56414c49445f524543495049454e544552433131353523736166655472616e7366657246726f6d3a20494e56414c49445f4f50455241544f52455243313135353a2063616c6c6572206973206e6f74206f776e6572206e6f7220617070726f76656445524331313535235f7361666542617463685472616e7366657246726f6d3a20494e56414c49445f4152524159535f4c454e475448455243313135353a206275726e2066726f6d20746865207a65726f206164647265737345524331313535237361666542617463685472616e7366657246726f6d3a20494e56414c49445f524543495049454e54455243313135352362616c616e63654f6642617463683a20494e56414c49445f41525241595f4c454e47544845524331313535237361666542617463685472616e7366657246726f6d3a20494e56414c49445f4f50455241544f5245524331313535235f63616c6c6f6e45524331313535426174636852656365697665643a20494e56414c49445f4f4e5f524543454956455f4d45535341474545524331313535235f63616c6c6f6e4552433131353552656365697665643a20494e56414c49445f4f4e5f524543454956455f4d455353414745455243313135353a206d696e7420746f20746865207a65726f2061646472657373a265627a7a7231582076a3aaa11c3a99df4afaef889690327f800b60f1da3747f7052d8598685e838764736f6c63430005110032",
  "source": "pragma solidity ^0.5.0;\n\nimport \"multi-token-standard/contracts/tokens/ERC1155/ERC1155.sol\";\nimport \"multi-token-standard/contracts/tokens/ERC1155/ERC1155Metadata.sol\";\nimport \"../proxyIdentity.sol\";\n\n/**\n * @dev Implementation of the multi-token standard with tokens being a proxy identity contracts.\n */\ncontract ERC1155Multiproxy is ERC1155, ERC1155Metadata {\n  struct Proxy {\n    address payable itsAddress;\n    address owner;\n    address creator;\n    string metadataUri;\n  }\n\n  mapping(uint256 => Proxy) private proxies;\n  uint256[] uids;\n\n  constructor(string memory baseMetadataUri) public {\n    _setBaseMetadataURI(baseMetadataUri);\n  }\n\n  modifier isOwnerOrApproved(address account) {\n    require(\n      account == msg.sender || isApprovedForAll(account, msg.sender),\n      \"ERC1155: caller is not owner nor approved\"\n    );\n    _;\n  }\n\n  /**\n   * @notice Invoked only by proxy when it is created\n   */\n  function mint(\n    address owner,\n    address creator,\n    uint256 id,\n    bytes memory data\n  ) public {\n    _mint(owner, id, 1, \"\");\n    proxies[id] = Proxy(msg.sender, owner, creator, \"\");\n    uids.push(id);\n  }\n\n  function safeTransferFrom(\n    address from,\n    address to,\n    uint256 id,\n    uint256 amount,\n    bytes memory data\n  ) public {\n    super.safeTransferFrom(from, to, id, amount, data);\n    if (amount == 1) {\n      _onProxyOwnerChanged(id, to);\n    }\n  }\n\n  function safeBatchTransferFrom(\n    address from,\n    address to,\n    uint256[] memory ids,\n    uint256[] memory amounts,\n    bytes memory data\n  ) public isOwnerOrApproved(from) {\n    super.safeBatchTransferFrom(from, to, ids, amounts, data);\n    for (uint256 i = 0; i < ids.length; i++) {\n      if (amounts[i] == 1) {\n        _onProxyOwnerChanged(ids[i], to);\n      }\n    }\n  }\n\n  function burn(address account, uint256 id) public isOwnerOrApproved(account) {\n    _burn(account, id);\n  }\n\n  function burnBatch(address account, uint256[] memory ids)\n    public\n    isOwnerOrApproved(account)\n  {\n    for (uint256 i = 0; i < ids.length; i++) {\n      _burn(account, ids[i]);\n    }\n  }\n\n  function updateUri(string memory newBaseMetadataUri) public {\n    _setBaseMetadataURI(newBaseMetadataUri);\n  }\n\n  function tokensOwnedBy(address owner) public view returns (uint256[] memory) {\n    uint256[] memory ids = new uint256[](uids.length);\n    uint256 count = 0;\n    for (uint256 i = 0; i < uids.length; i++) {\n      if (proxies[uids[i]].owner == owner) {\n        ids[count++] = uids[i];\n      }\n    }\n    uint256[] memory result = new uint256[](count);\n    for (uint256 i = 0; i < count; i++) {\n      result[i] = ids[i];\n    }\n    return result;\n  }\n\n  function _burn(address account, uint256 id) internal {\n    require(account != address(0), \"ERC1155: burn from the zero address\");\n\n    uint256 amount = balances[account][id];\n\n    address operator = msg.sender;\n\n    balances[account][id] = 0;\n\n    ProxyIdentity proxy = ProxyIdentity(proxies[id].itsAddress);\n    proxy.onBurn();\n    proxies[id] = Proxy(address(0), address(0), address(0), \"\");\n\n    emit TransferSingle(operator, account, address(0), id, amount);\n  }\n\n  function _mint(\n    address account,\n    uint256 id,\n    uint256 amount,\n    bytes memory data\n  ) internal {\n    require(account != address(0), \"ERC1155: mint to the zero address\");\n\n    address operator = msg.sender;\n\n    balances[account][id] = balances[account][id].add(amount);\n\n    _callonERC1155Received(address(0), account, id, amount, gasleft(), data);\n\n    emit TransferSingle(operator, address(0), account, id, amount);\n  }\n\n  function _onProxyOwnerChanged(uint256 id, address owner) internal {\n    ProxyIdentity proxy = ProxyIdentity(proxies[id].itsAddress);\n    proxy.onOwnerChanged(owner);\n  }\n}\n",
  "sourcePath": "/home/dima/Development/ew-did-registry/packages/proxyIdentity/contracts/tokens/ERC1155Multiproxy.sol",
  "compiler": {
    "name": "solc",
    "version": "0.5.17+commit.d19bba13.Emscripten.clang"
  },
  "schemaVersion": "3.0.16",
  "updatedAt": "2020-10-16T09:01:52.548Z",
  "devdoc": {
    "details": "Implementation of the multi-token standard with tokens being a proxy identity contracts.",
    "methods": {
      "balanceOf(address,uint256)": {
        "params": {
          "_id": "ID of the Token",
          "_owner": "The address of the token holder"
        },
        "return": "The _owner's balance of the Token type requested"
      },
      "balanceOfBatch(address[],uint256[])": {
        "params": {
          "_ids": "ID of the Tokens",
          "_owners": "The addresses of the token holders"
        },
        "return": "The _owner's balance of the Token types requested (i.e. balance for each (owner, id) pair)"
      },
      "isApprovedForAll(address,address)": {
        "params": {
          "_operator": "Address of authorized operator",
          "_owner": "The owner of the Tokens"
        },
        "return": "True if the operator is approved, false if not"
      },
      "setApprovalForAll(address,bool)": {
        "params": {
          "_approved": "True if the operator is approved, false to revoke approval",
          "_operator": "Address to add to the set of authorized operators"
        }
      },
      "supportsInterface(bytes4)": {
        "params": {
          "_interfaceID": "The interface identifier, as specified in ERC-165"
        },
        "return": "`true` if the contract implements `_interfaceID` and"
      },
      "uri(uint256)": {
        "details": "URIs are defined in RFC 3986.     URIs are assumed to be deterministically generated based on token ID     Token IDs are assumed to be represented in their hex format in URIs",
        "return": "URI string"
      }
    }
  },
  "userdoc": {
    "methods": {
      "balanceOf(address,uint256)": {
        "notice": "Get the balance of an account's Tokens"
      },
      "balanceOfBatch(address[],uint256[])": {
        "notice": "Get the balance of multiple account/token pairs"
      },
      "isApprovedForAll(address,address)": {
        "notice": "Queries the approval status of an operator for a given owner"
      },
      "mint(address,address,uint256,bytes)": {
        "notice": "Invoked only by proxy when it is created"
      },
      "setApprovalForAll(address,bool)": {
        "notice": "Enable or disable approval for a third party (\"operator\") to manage all of caller's tokens"
      },
      "supportsInterface(bytes4)": {
        "notice": "Query if a contract implements an interface"
      },
      "uri(uint256)": {
        "notice": "A distinct Uniform Resource Identifier (URI) for a given token."
      }
    }
  }
}