{
  "contractName": "ERC1155Multiproxy",
  "abi": [
    {
      "anonymous": false,
      "inputs": [
        {
          "indexed": true,
          "internalType": "address",
          "name": "_owner",
          "type": "address"
        },
        {
          "indexed": true,
          "internalType": "address",
          "name": "_operator",
          "type": "address"
        },
        {
          "indexed": false,
          "internalType": "bool",
          "name": "_approved",
          "type": "bool"
        }
      ],
      "name": "ApprovalForAll",
      "type": "event"
    },
    {
      "anonymous": false,
      "inputs": [
        {
          "indexed": true,
          "internalType": "address",
          "name": "_operator",
          "type": "address"
        },
        {
          "indexed": true,
          "internalType": "address",
          "name": "_from",
          "type": "address"
        },
        {
          "indexed": true,
          "internalType": "address",
          "name": "_to",
          "type": "address"
        },
        {
          "indexed": false,
          "internalType": "uint256[]",
          "name": "_ids",
          "type": "uint256[]"
        },
        {
          "indexed": false,
          "internalType": "uint256[]",
          "name": "_amounts",
          "type": "uint256[]"
        }
      ],
      "name": "TransferBatch",
      "type": "event"
    },
    {
      "anonymous": false,
      "inputs": [
        {
          "indexed": true,
          "internalType": "address",
          "name": "_operator",
          "type": "address"
        },
        {
          "indexed": true,
          "internalType": "address",
          "name": "_from",
          "type": "address"
        },
        {
          "indexed": true,
          "internalType": "address",
          "name": "_to",
          "type": "address"
        },
        {
          "indexed": false,
          "internalType": "uint256",
          "name": "_id",
          "type": "uint256"
        },
        {
          "indexed": false,
          "internalType": "uint256",
          "name": "_amount",
          "type": "uint256"
        }
      ],
      "name": "TransferSingle",
      "type": "event"
    },
    {
      "anonymous": false,
      "inputs": [
        {
          "indexed": false,
          "internalType": "string",
          "name": "_uri",
          "type": "string"
        },
        {
          "indexed": true,
          "internalType": "uint256",
          "name": "_id",
          "type": "uint256"
        }
      ],
      "name": "URI",
      "type": "event"
    },
    {
      "constant": true,
      "inputs": [
        {
          "internalType": "address",
          "name": "_owner",
          "type": "address"
        },
        {
          "internalType": "uint256",
          "name": "_id",
          "type": "uint256"
        }
      ],
      "name": "balanceOf",
      "outputs": [
        {
          "internalType": "uint256",
          "name": "",
          "type": "uint256"
        }
      ],
      "payable": false,
      "stateMutability": "view",
      "type": "function"
    },
    {
      "constant": true,
      "inputs": [
        {
          "internalType": "address[]",
          "name": "_owners",
          "type": "address[]"
        },
        {
          "internalType": "uint256[]",
          "name": "_ids",
          "type": "uint256[]"
        }
      ],
      "name": "balanceOfBatch",
      "outputs": [
        {
          "internalType": "uint256[]",
          "name": "",
          "type": "uint256[]"
        }
      ],
      "payable": false,
      "stateMutability": "view",
      "type": "function"
    },
    {
      "constant": true,
      "inputs": [
        {
          "internalType": "address",
          "name": "_owner",
          "type": "address"
        },
        {
          "internalType": "address",
          "name": "_operator",
          "type": "address"
        }
      ],
      "name": "isApprovedForAll",
      "outputs": [
        {
          "internalType": "bool",
          "name": "isOperator",
          "type": "bool"
        }
      ],
      "payable": false,
      "stateMutability": "view",
      "type": "function"
    },
    {
      "constant": true,
      "inputs": [
        {
          "internalType": "string",
          "name": "",
          "type": "string"
        }
      ],
      "name": "proxies",
      "outputs": [
        {
          "internalType": "uint256",
          "name": "id",
          "type": "uint256"
        },
        {
          "internalType": "address payable",
          "name": "itsAddress",
          "type": "address"
        },
        {
          "internalType": "address",
          "name": "owner",
          "type": "address"
        },
        {
          "internalType": "address",
          "name": "creator",
          "type": "address"
        },
        {
          "internalType": "string",
          "name": "metadataUri",
          "type": "string"
        }
      ],
      "payable": false,
      "stateMutability": "view",
      "type": "function"
    },
    {
      "constant": false,
      "inputs": [
        {
          "internalType": "address",
          "name": "_from",
          "type": "address"
        },
        {
          "internalType": "address",
          "name": "_to",
          "type": "address"
        },
        {
          "internalType": "uint256[]",
          "name": "_ids",
          "type": "uint256[]"
        },
        {
          "internalType": "uint256[]",
          "name": "_amounts",
          "type": "uint256[]"
        },
        {
          "internalType": "bytes",
          "name": "_data",
          "type": "bytes"
        }
      ],
      "name": "safeBatchTransferFrom",
      "outputs": [],
      "payable": false,
      "stateMutability": "nonpayable",
      "type": "function"
    },
    {
      "constant": false,
      "inputs": [
        {
          "internalType": "address",
          "name": "_from",
          "type": "address"
        },
        {
          "internalType": "address",
          "name": "_to",
          "type": "address"
        },
        {
          "internalType": "uint256",
          "name": "_id",
          "type": "uint256"
        },
        {
          "internalType": "uint256",
          "name": "_amount",
          "type": "uint256"
        },
        {
          "internalType": "bytes",
          "name": "_data",
          "type": "bytes"
        }
      ],
      "name": "safeTransferFrom",
      "outputs": [],
      "payable": false,
      "stateMutability": "nonpayable",
      "type": "function"
    },
    {
      "constant": true,
      "inputs": [
        {
          "internalType": "uint256",
          "name": "",
          "type": "uint256"
        }
      ],
      "name": "serials",
      "outputs": [
        {
          "internalType": "string",
          "name": "",
          "type": "string"
        }
      ],
      "payable": false,
      "stateMutability": "view",
      "type": "function"
    },
    {
      "constant": false,
      "inputs": [
        {
          "internalType": "address",
          "name": "_operator",
          "type": "address"
        },
        {
          "internalType": "bool",
          "name": "_approved",
          "type": "bool"
        }
      ],
      "name": "setApprovalForAll",
      "outputs": [],
      "payable": false,
      "stateMutability": "nonpayable",
      "type": "function"
    },
    {
      "constant": true,
      "inputs": [
        {
          "internalType": "bytes4",
          "name": "_interfaceID",
          "type": "bytes4"
        }
      ],
      "name": "supportsInterface",
      "outputs": [
        {
          "internalType": "bool",
          "name": "",
          "type": "bool"
        }
      ],
      "payable": false,
      "stateMutability": "view",
      "type": "function"
    },
    {
      "constant": false,
      "inputs": [
        {
          "internalType": "address",
          "name": "owner",
          "type": "address"
        },
        {
          "internalType": "address",
          "name": "creator",
          "type": "address"
        },
        {
          "internalType": "string",
          "name": "serial",
          "type": "string"
        },
        {
          "internalType": "bytes",
          "name": "data",
          "type": "bytes"
        }
      ],
      "name": "mint",
      "outputs": [],
      "payable": false,
      "stateMutability": "nonpayable",
      "type": "function"
    },
    {
      "constant": false,
      "inputs": [
        {
          "internalType": "address",
          "name": "from",
          "type": "address"
        },
        {
          "internalType": "address",
          "name": "to",
          "type": "address"
        },
        {
          "internalType": "string",
          "name": "serial",
          "type": "string"
        },
        {
          "internalType": "uint256",
          "name": "amount",
          "type": "uint256"
        },
        {
          "internalType": "bytes",
          "name": "data",
          "type": "bytes"
        }
      ],
      "name": "transfer",
      "outputs": [],
      "payable": false,
      "stateMutability": "nonpayable",
      "type": "function"
    },
    {
      "constant": false,
      "inputs": [
        {
          "internalType": "address",
          "name": "from",
          "type": "address"
        },
        {
          "internalType": "address",
          "name": "to",
          "type": "address"
        },
        {
          "internalType": "string[]",
          "name": "_serials",
          "type": "string[]"
        },
        {
          "internalType": "uint256[]",
          "name": "amounts",
          "type": "uint256[]"
        },
        {
          "internalType": "bytes",
          "name": "data",
          "type": "bytes"
        }
      ],
      "name": "transferBatch",
      "outputs": [],
      "payable": false,
      "stateMutability": "nonpayable",
      "type": "function"
    },
    {
      "constant": true,
      "inputs": [
        {
          "internalType": "address",
          "name": "_owner",
          "type": "address"
        },
        {
          "internalType": "string",
          "name": "_serial",
          "type": "string"
        }
      ],
      "name": "balance",
      "outputs": [
        {
          "internalType": "uint256",
          "name": "",
          "type": "uint256"
        }
      ],
      "payable": false,
      "stateMutability": "view",
      "type": "function"
    },
    {
      "constant": true,
      "inputs": [
        {
          "internalType": "address[]",
          "name": "_owners",
          "type": "address[]"
        },
        {
          "internalType": "string[]",
          "name": "_serials",
          "type": "string[]"
        }
      ],
      "name": "balanceBatch",
      "outputs": [
        {
          "internalType": "uint256[]",
          "name": "",
          "type": "uint256[]"
        }
      ],
      "payable": false,
      "stateMutability": "view",
      "type": "function"
    },
    {
      "constant": false,
      "inputs": [
        {
          "internalType": "address",
          "name": "account",
          "type": "address"
        },
        {
          "internalType": "string",
          "name": "serial",
          "type": "string"
        }
      ],
      "name": "burn",
      "outputs": [],
      "payable": false,
      "stateMutability": "nonpayable",
      "type": "function"
    },
    {
      "constant": false,
      "inputs": [
        {
          "internalType": "address",
          "name": "account",
          "type": "address"
        },
        {
          "internalType": "string[]",
          "name": "_serials",
          "type": "string[]"
        }
      ],
      "name": "burnBatch",
      "outputs": [],
      "payable": false,
      "stateMutability": "nonpayable",
      "type": "function"
    },
    {
      "constant": false,
      "inputs": [
        {
          "internalType": "string",
          "name": "serial",
          "type": "string"
        },
        {
          "internalType": "string",
          "name": "uri",
          "type": "string"
        }
      ],
      "name": "updateUri",
      "outputs": [],
      "payable": false,
      "stateMutability": "nonpayable",
      "type": "function"
    },
    {
      "constant": true,
      "inputs": [
        {
          "internalType": "string",
          "name": "serial",
          "type": "string"
        }
      ],
      "name": "uri",
      "outputs": [
        {
          "internalType": "string",
          "name": "",
          "type": "string"
        }
      ],
      "payable": false,
      "stateMutability": "view",
      "type": "function"
    },
    {
      "constant": true,
      "inputs": [
        {
          "internalType": "uint256",
          "name": "_id",
          "type": "uint256"
        }
      ],
      "name": "uri",
      "outputs": [
        {
          "internalType": "string",
          "name": "",
          "type": "string"
        }
      ],
      "payable": false,
      "stateMutability": "view",
      "type": "function"
    },
    {
      "constant": true,
      "inputs": [
        {
          "internalType": "address",
          "name": "owner",
          "type": "address"
        }
      ],
      "name": "tokensOwnedBy",
      "outputs": [
        {
          "internalType": "string[]",
          "name": "result",
          "type": "string[]"
        }
      ],
      "payable": false,
      "stateMutability": "view",
      "type": "function"
    },
    {
      "constant": true,
      "inputs": [
        {
          "internalType": "address",
          "name": "creator",
          "type": "address"
        }
      ],
      "name": "tokensCreatedBy",
      "outputs": [
        {
          "internalType": "string[]",
          "name": "result",
          "type": "string[]"
        }
      ],
      "payable": false,
      "stateMutability": "view",
      "type": "function"
    },
    {
      "constant": true,
      "inputs": [],
      "name": "allTokens",
      "outputs": [
        {
          "internalType": "string[]",
          "name": "",
          "type": "string[]"
        }
      ],
      "payable": false,
      "stateMutability": "view",
      "type": "function"
    }
  ],
  "bytecode": "0x608060405234801561001057600080fd5b506145f1806100206000396000f3fe608060405234801561001057600080fd5b50600436106101415760003560e01c806381550513116100b8578063cc56418d1161007c578063cc56418d146103bc578063d3301c4f146103d8578063da0d962a146103f4578063e985e9c514610428578063ea66aeb314610458578063f242432a1461048857610141565b8063815505131461030857806398cd96af14610324578063a22cb46514610354578063b772b8ae14610370578063c9d68939146103a057610141565b806316cadeab1161010a57806316cadeab1461022257806320b4a8e6146102525780632eb2c2d6146102825780634e1273f41461029e5780635d9ef52e146102ce5780636ff97f1d146102ea57610141565b8062fdd58e1461014657806301ffc9a7146101765780630de72b7e146101a65780630e89341c146101d657806316b9541c14610206575b600080fd5b610160600480360361015b91908101906132b5565b6104a4565b60405161016d919061415b565b60405180910390f35b610190600480360361018b91908101906133c9565b6104fe565b60405161019d9190613f5c565b60405180910390f35b6101c060048036036101bb919081019061345c565b6105af565b6040516101cd9190613f99565b60405180910390f35b6101f060048036036101eb9190810190613509565b610672565b6040516101fd9190613f99565b60405180910390f35b610220600480360361021b9190810190613008565b6106a6565b005b61023c60048036036102379190810190613261565b6108c0565b604051610249919061415b565b60405180910390f35b61026c60048036036102679190810190612e25565b6108f5565b6040516102799190613ee1565b60405180910390f35b61029c60048036036102979190810190612f49565b610b38565b005b6102b860048036036102b3919081019061335d565b610c48565b6040516102c59190613f03565b60405180910390f35b6102e860048036036102e39190810190613261565b610d78565b005b6102f2610e07565b6040516102ff9190613ee1565b60405180910390f35b610322600480360361031d9190810190612e8a565b610ef0565b005b61033e60048036036103399190810190613509565b61107f565b60405161034b9190613f77565b60405180910390f35b61036e60048036036103699190810190613225565b611138565b005b61038a600480360361038591908101906132f1565b611235565b6040516103979190613f03565b60405180910390f35b6103ba60048036036103b5919081019061349d565b611251565b005b6103d660048036036103d1919081019061309b565b61134d565b005b6103f260048036036103ed91908101906131d1565b6113fc565b005b61040e6004803603610409919081019061341b565b6114bf565b60405161041f959493929190614176565b60405180910390f35b610442600480360361043d9190810190612e4e565b611603565b60405161044f9190613f5c565b60405180910390f35b610472600480360361046d9190810190612e25565b611697565b60405161047f9190613ee1565b60405180910390f35b6104a2600480360361049d9190810190613142565b6118da565b005b60008060008473ffffffffffffffffffffffffffffffffffffffff1673ffffffffffffffffffffffffffffffffffffffff168152602001908152602001600020600083815260200190815260200160002054905092915050565b60006301ffc9a760e01b7bffffffffffffffffffffffffffffffffffffffffffffffffffffffff1916827bffffffffffffffffffffffffffffffffffffffffffffffffffffffff19161480610597575063d9b67a2660e01b7bffffffffffffffffffffffffffffffffffffffffffffffffffffffff1916827bffffffffffffffffffffffffffffffffffffffffffffffffffffffff1916145b156105a557600190506105aa565b600090505b919050565b60606003826040516105c19190613da7565b90815260200160405180910390206004018054600181600116156101000203166002900480601f0160208091040260200160405190810160405280929190818152602001828054600181600116156101000203166002900480156106665780601f1061063b57610100808354040283529160200191610666565b820191906000526020600020905b81548152906001019060200180831161064957829003601f168201915b50505050509050919050565b6060600261067f836119ea565b604051602001610690929190613dd5565b6040516020818303038152906040529050919050565b60048290806001815401808255809150509060018203906000526020600020016000909192909190915090805190602001906106e3929190612a21565b50506040518060a0016040528060048054905081526020013373ffffffffffffffffffffffffffffffffffffffff1681526020018573ffffffffffffffffffffffffffffffffffffffff1681526020018473ffffffffffffffffffffffffffffffffffffffff168152602001604051806020016040528060008152508152506003836040516107729190613da7565b90815260200160405180910390206000820151816000015560208201518160010160006101000a81548173ffffffffffffffffffffffffffffffffffffffff021916908373ffffffffffffffffffffffffffffffffffffffff16021790555060408201518160020160006101000a81548173ffffffffffffffffffffffffffffffffffffffff021916908373ffffffffffffffffffffffffffffffffffffffff16021790555060608201518160030160006101000a81548173ffffffffffffffffffffffffffffffffffffffff021916908373ffffffffffffffffffffffffffffffffffffffff160217905550608082015181600401908051906020019061087b929190612aa1565b509050506108ba846003846040516108939190613da7565b90815260200160405180910390206000015460405180602001604052806000815250611b1d565b50505050565b60006108ed836003846040516108d69190613da7565b9081526020016040518091039020600001546104a4565b905092915050565b60608060048054905060405190808252806020026020018201604052801561093157816020015b606081526020019060019003908161091c5790505b509050600080905060008090505b600480549050811015610ab2578473ffffffffffffffffffffffffffffffffffffffff1660036004838154811061097257fe5b906000526020600020016040516109899190613dbe565b908152602001604051809103902060030160009054906101000a900473ffffffffffffffffffffffffffffffffffffffff1673ffffffffffffffffffffffffffffffffffffffff161415610aa557600481815481106109e457fe5b906000526020600020018054600181600116156101000203166002900480601f016020809104026020016040519081016040528092919081815260200182805460018160011615610100020316600290048015610a825780601f10610a5757610100808354040283529160200191610a82565b820191906000526020600020905b815481529060010190602001808311610a6557829003601f168201915b5050505050838380600101945081518110610a9957fe5b60200260200101819052505b808060010191505061093f565b5080604051908082528060200260200182016040528015610ae757816020015b6060815260200190600190039081610ad25790505b50925060008090505b81811015610b3057828181518110610b0457fe5b6020026020010151848281518110610b1857fe5b60200260200101819052508080600101915050610af0565b505050919050565b8473ffffffffffffffffffffffffffffffffffffffff163373ffffffffffffffffffffffffffffffffffffffff161480610b785750610b778533611603565b5b610bb7576040517f08c379a0000000000000000000000000000000000000000000000000000000008152600401610bae906140bb565b60405180910390fd5b600073ffffffffffffffffffffffffffffffffffffffff168473ffffffffffffffffffffffffffffffffffffffff161415610c27576040517f08c379a0000000000000000000000000000000000000000000000000000000008152600401610c1e9061407b565b60405180910390fd5b610c3385858585611c7d565b610c41858585855a86611f44565b5050505050565b60608151835114610c8e576040517f08c379a0000000000000000000000000000000000000000000000000000000008152600401610c859061409b565b60405180910390fd5b60608351604051908082528060200260200182016040528015610cc05781602001602082028038833980820191505090505b50905060008090505b8451811015610d6d57600080868381518110610ce157fe5b602002602001015173ffffffffffffffffffffffffffffffffffffffff1673ffffffffffffffffffffffffffffffffffffffff1681526020019081526020016000206000858381518110610d3157fe5b6020026020010151815260200190815260200160002054828281518110610d5457fe5b6020026020010181815250508080600101915050610cc9565b508091505092915050565b813373ffffffffffffffffffffffffffffffffffffffff168173ffffffffffffffffffffffffffffffffffffffff161480610db95750610db88133611603565b5b610df8576040517f08c379a0000000000000000000000000000000000000000000000000000000008152600401610def90613ffb565b60405180910390fd5b610e028383612092565b505050565b60606004805480602002602001604051908101604052809291908181526020016000905b82821015610ee7578382906000526020600020018054600181600116156101000203166002900480601f016020809104026020016040519081016040528092919081815260200182805460018160011615610100020316600290048015610ed35780601f10610ea857610100808354040283529160200191610ed3565b820191906000526020600020905b815481529060010190602001808311610eb657829003601f168201915b505050505081526020019060010190610e2b565b50505050905090565b6060610efb8461249b565b9050610f0a8686838686610b38565b60008090505b600480549050811015611076576001848281518110610f2b57fe5b602002602001015114156110695785600360048381548110610f4957fe5b90600052602060002001604051610f609190613dbe565b908152602001604051809103902060020160006101000a81548173ffffffffffffffffffffffffffffffffffffffff021916908373ffffffffffffffffffffffffffffffffffffffff16021790555061106860048281548110610fbf57fe5b906000526020600020018054600181600116156101000203166002900480601f01602080910402602001604051908101604052809291908181526020018280546001816001161561010002031660029004801561105d5780601f106110325761010080835404028352916020019161105d565b820191906000526020600020905b81548152906001019060200180831161104057829003601f168201915b50505050508761253f565b5b8080600101915050610f10565b50505050505050565b6004818154811061108c57fe5b906000526020600020016000915090508054600181600116156101000203166002900480601f0160208091040260200160405190810160405280929190818152602001828054600181600116156101000203166002900480156111305780601f1061110557610100808354040283529160200191611130565b820191906000526020600020905b81548152906001019060200180831161111357829003601f168201915b505050505081565b80600160003373ffffffffffffffffffffffffffffffffffffffff1673ffffffffffffffffffffffffffffffffffffffff16815260200190815260200160002060008473ffffffffffffffffffffffffffffffffffffffff1673ffffffffffffffffffffffffffffffffffffffff16815260200190815260200160002060006101000a81548160ff0219169083151502179055508173ffffffffffffffffffffffffffffffffffffffff163373ffffffffffffffffffffffffffffffffffffffff167f17307eab39ab6107e8899845ad3d59bd9653f200f220920489ca2b5937696c31836040516112299190613f5c565b60405180910390a35050565b6060611249836112448461249b565b610c48565b905092915050565b6003826040516112619190613da7565b908152602001604051809103902060020160009054906101000a900473ffffffffffffffffffffffffffffffffffffffff163373ffffffffffffffffffffffffffffffffffffffff168173ffffffffffffffffffffffffffffffffffffffff1614806112d357506112d28133611603565b5b611312576040517f08c379a000000000000000000000000000000000000000000000000000000000815260040161130990613ffb565b60405180910390fd5b816003846040516113239190613da7565b90815260200160405180910390206004019080519060200190611347929190612a21565b50505050565b600060038460405161135f9190613da7565b908152602001604051809103902060000154905061138086868386866118da565b60018314156113f4578460038560405161139a9190613da7565b908152602001604051809103902060020160006101000a81548173ffffffffffffffffffffffffffffffffffffffff021916908373ffffffffffffffffffffffffffffffffffffffff1602179055506113f3848661253f565b5b505050505050565b813373ffffffffffffffffffffffffffffffffffffffff168173ffffffffffffffffffffffffffffffffffffffff16148061143d575061143c8133611603565b5b61147c576040517f08c379a000000000000000000000000000000000000000000000000000000000815260040161147390613ffb565b60405180910390fd5b60008090505b6004805490508110156114b9576114ac8484838151811061149f57fe5b6020026020010151612092565b8080600101915050611482565b50505050565b6003818051602081018201805184825260208301602085012081835280955050505050506000915090508060000154908060010160009054906101000a900473ffffffffffffffffffffffffffffffffffffffff16908060020160009054906101000a900473ffffffffffffffffffffffffffffffffffffffff16908060030160009054906101000a900473ffffffffffffffffffffffffffffffffffffffff1690806004018054600181600116156101000203166002900480601f0160208091040260200160405190810160405280929190818152602001828054600181600116156101000203166002900480156115f95780601f106115ce576101008083540402835291602001916115f9565b820191906000526020600020905b8154815290600101906020018083116115dc57829003601f168201915b5050505050905085565b6000600160008473ffffffffffffffffffffffffffffffffffffffff1673ffffffffffffffffffffffffffffffffffffffff16815260200190815260200160002060008373ffffffffffffffffffffffffffffffffffffffff1673ffffffffffffffffffffffffffffffffffffffff16815260200190815260200160002060009054906101000a900460ff16905092915050565b6060806004805490506040519080825280602002602001820160405280156116d357816020015b60608152602001906001900390816116be5790505b509050600080905060008090505b600480549050811015611854578473ffffffffffffffffffffffffffffffffffffffff1660036004838154811061171457fe5b9060005260206000200160405161172b9190613dbe565b908152602001604051809103902060020160009054906101000a900473ffffffffffffffffffffffffffffffffffffffff1673ffffffffffffffffffffffffffffffffffffffff161415611847576004818154811061178657fe5b906000526020600020018054600181600116156101000203166002900480601f0160208091040260200160405190810160405280929190818152602001828054600181600116156101000203166002900480156118245780601f106117f957610100808354040283529160200191611824565b820191906000526020600020905b81548152906001019060200180831161180757829003601f168201915b505050505083838060010194508151811061183b57fe5b60200260200101819052505b80806001019150506116e1565b508060405190808252806020026020018201604052801561188957816020015b60608152602001906001900390816118745790505b50925060008090505b818110156118d2578281815181106118a657fe5b60200260200101518482815181106118ba57fe5b60200260200101819052508080600101915050611892565b505050919050565b8473ffffffffffffffffffffffffffffffffffffffff163373ffffffffffffffffffffffffffffffffffffffff16148061191a57506119198533611603565b5b611959576040517f08c379a000000000000000000000000000000000000000000000000000000000815260040161195090613fdb565b60405180910390fd5b600073ffffffffffffffffffffffffffffffffffffffff168473ffffffffffffffffffffffffffffffffffffffff1614156119c9576040517f08c379a00000000000000000000000000000000000000000000000000000000081526004016119c090613fbb565b60405180910390fd5b6119d5858585856125f5565b6119e3858585855a866127e3565b5050505050565b60606000821415611a32576040518060400160405280600181526020017f30000000000000000000000000000000000000000000000000000000000000008152509050611b18565b6000829050600083905060005b60008314611a61578080600101915050600a8381611a5957fe5b049250611a3f565b6060816040519080825280601f01601f191660200182016040528015611a965781602001600182028038833980820191505090505b50905060006001830390505b60008414611b0f57600a8481611ab457fe5b0660300160f81b82828060019003935081518110611ace57fe5b60200101907effffffffffffffffffffffffffffffffffffffffffffffffffffffffffffff1916908160001a905350600a8481611b0757fe5b049350611aa2565b81955050505050505b919050565b600073ffffffffffffffffffffffffffffffffffffffff168373ffffffffffffffffffffffffffffffffffffffff161415611b8d576040517f08c379a0000000000000000000000000000000000000000000000000000000008152600401611b849061413b565b60405180910390fd5b600033905060016000808673ffffffffffffffffffffffffffffffffffffffff1673ffffffffffffffffffffffffffffffffffffffff168152602001908152602001600020600085815260200190815260200160002081905550611bf76000858560015a876127e3565b8373ffffffffffffffffffffffffffffffffffffffff16600073ffffffffffffffffffffffffffffffffffffffff168273ffffffffffffffffffffffffffffffffffffffff167fc3d58168c5ae7397731d063d5bbf3d657854427343f4c083240f7aacaa2d0f62866001604051611c6f9291906141d0565b60405180910390a450505050565b8051825114611cc1576040517f08c379a0000000000000000000000000000000000000000000000000000000008152600401611cb89061403b565b60405180910390fd5b60008251905060008090505b81811015611ebe57611d5d838281518110611ce457fe5b60200260200101516000808973ffffffffffffffffffffffffffffffffffffffff1673ffffffffffffffffffffffffffffffffffffffff1681526020019081526020016000206000878581518110611d3857fe5b602002602001015181526020019081526020016000205461293190919063ffffffff16565b6000808873ffffffffffffffffffffffffffffffffffffffff1673ffffffffffffffffffffffffffffffffffffffff1681526020019081526020016000206000868481518110611da957fe5b6020026020010151815260200190815260200160002081905550611e4b838281518110611dd257fe5b60200260200101516000808873ffffffffffffffffffffffffffffffffffffffff1673ffffffffffffffffffffffffffffffffffffffff1681526020019081526020016000206000878581518110611e2657fe5b602002602001015181526020019081526020016000205461298790919063ffffffff16565b6000808773ffffffffffffffffffffffffffffffffffffffff1673ffffffffffffffffffffffffffffffffffffffff1681526020019081526020016000206000868481518110611e9757fe5b60200260200101518152602001908152602001600020819055508080600101915050611ccd565b508373ffffffffffffffffffffffffffffffffffffffff168573ffffffffffffffffffffffffffffffffffffffff163373ffffffffffffffffffffffffffffffffffffffff167f4a39dc06d4c0dbc64b70af90fd698a233a518aa5d07e595d983b8c0526c8f7fb8686604051611f35929190613f25565b60405180910390a45050505050565b611f638573ffffffffffffffffffffffffffffffffffffffff166129dc565b1561208a5760008573ffffffffffffffffffffffffffffffffffffffff1663bc197c8184338a8989886040518763ffffffff1660e01b8152600401611fac959493929190613e1f565b602060405180830381600088803b158015611fc657600080fd5b5087f1158015611fda573d6000803e3d6000fd5b50505050506040513d601f19601f82011682018060405250611fff91908101906133f2565b905063bc197c8160e01b7bffffffffffffffffffffffffffffffffffffffffffffffffffffffff1916817bffffffffffffffffffffffffffffffffffffffffffffffffffffffff191614612088576040517f08c379a000000000000000000000000000000000000000000000000000000000815260040161207f906140db565b60405180910390fd5b505b505050505050565b600073ffffffffffffffffffffffffffffffffffffffff168273ffffffffffffffffffffffffffffffffffffffff161415612102576040517f08c379a00000000000000000000000000000000000000000000000000000000081526004016120f99061405b565b60405180910390fd5b60006003826040516121149190613da7565b908152602001604051809103902060000154905060008060008573ffffffffffffffffffffffffffffffffffffffff1673ffffffffffffffffffffffffffffffffffffffff1681526020019081526020016000206000838152602001908152602001600020549050600033905060008060008773ffffffffffffffffffffffffffffffffffffffff1673ffffffffffffffffffffffffffffffffffffffff16815260200190815260200160002060008581526020019081526020016000208190555060006003856040516121e89190613da7565b908152602001604051809103902060010160009054906101000a900473ffffffffffffffffffffffffffffffffffffffff1690508073ffffffffffffffffffffffffffffffffffffffff16638bbd36016040518163ffffffff1660e01b8152600401600060405180830381600087803b15801561226457600080fd5b505af1158015612278573d6000803e3d6000fd5b505050506040518060a00160405280858152602001600073ffffffffffffffffffffffffffffffffffffffff168152602001600073ffffffffffffffffffffffffffffffffffffffff168152602001600073ffffffffffffffffffffffffffffffffffffffff168152602001604051806020016040528060008152508152506003866040516123079190613da7565b90815260200160405180910390206000820151816000015560208201518160010160006101000a81548173ffffffffffffffffffffffffffffffffffffffff021916908373ffffffffffffffffffffffffffffffffffffffff16021790555060408201518160020160006101000a81548173ffffffffffffffffffffffffffffffffffffffff021916908373ffffffffffffffffffffffffffffffffffffffff16021790555060608201518160030160006101000a81548173ffffffffffffffffffffffffffffffffffffffff021916908373ffffffffffffffffffffffffffffffffffffffff1602179055506080820151816004019080519060200190612410929190612aa1565b50905050600073ffffffffffffffffffffffffffffffffffffffff168673ffffffffffffffffffffffffffffffffffffffff168373ffffffffffffffffffffffffffffffffffffffff167fc3d58168c5ae7397731d063d5bbf3d657854427343f4c083240f7aacaa2d0f62878760405161248b9291906141f9565b60405180910390a4505050505050565b606081516040519080825280602002602001820160405280156124cd5781602001602082028038833980820191505090505b50905060008090505b82518110156125395760038382815181106124ed57fe5b60200260200101516040516125029190613d90565b90815260200160405180910390206000015482828151811061252057fe5b60200260200101818152505080806001019150506124d6565b50919050565b60006003836040516125519190613da7565b908152602001604051809103902060010160009054906101000a900473ffffffffffffffffffffffffffffffffffffffff1690508073ffffffffffffffffffffffffffffffffffffffff166373125fc4836040518263ffffffff1660e01b81526004016125be9190613e04565b600060405180830381600087803b1580156125d857600080fd5b505af11580156125ec573d6000803e3d6000fd5b50505050505050565b612657816000808773ffffffffffffffffffffffffffffffffffffffff1673ffffffffffffffffffffffffffffffffffffffff16815260200190815260200160002060008581526020019081526020016000205461293190919063ffffffff16565b6000808673ffffffffffffffffffffffffffffffffffffffff1673ffffffffffffffffffffffffffffffffffffffff16815260200190815260200160002060008481526020019081526020016000208190555061270c816000808673ffffffffffffffffffffffffffffffffffffffff1673ffffffffffffffffffffffffffffffffffffffff16815260200190815260200160002060008581526020019081526020016000205461298790919063ffffffff16565b6000808573ffffffffffffffffffffffffffffffffffffffff1673ffffffffffffffffffffffffffffffffffffffff1681526020019081526020016000206000848152602001908152602001600020819055508273ffffffffffffffffffffffffffffffffffffffff168473ffffffffffffffffffffffffffffffffffffffff163373ffffffffffffffffffffffffffffffffffffffff167fc3d58168c5ae7397731d063d5bbf3d657854427343f4c083240f7aacaa2d0f6285856040516127d59291906141f9565b60405180910390a450505050565b6128028573ffffffffffffffffffffffffffffffffffffffff166129dc565b156129295760008573ffffffffffffffffffffffffffffffffffffffff1663f23a6e6184338a8989886040518763ffffffff1660e01b815260040161284b959493929190613e87565b602060405180830381600088803b15801561286557600080fd5b5087f1158015612879573d6000803e3d6000fd5b50505050506040513d601f19601f8201168201806040525061289e91908101906133f2565b905063f23a6e6160e01b7bffffffffffffffffffffffffffffffffffffffffffffffffffffffff1916817bffffffffffffffffffffffffffffffffffffffffffffffffffffffff191614612927576040517f08c379a000000000000000000000000000000000000000000000000000000000815260040161291e906140fb565b60405180910390fd5b505b505050505050565b600082821115612976576040517f08c379a000000000000000000000000000000000000000000000000000000000815260040161296d9061401b565b60405180910390fd5b600082840390508091505092915050565b6000808284019050838110156129d2576040517f08c379a00000000000000000000000000000000000000000000000000000000081526004016129c99061411b565b60405180910390fd5b8091505092915050565b600080823f90506000801b8114158015612a1957507fc5d2460186f7233c927e7db2dcc703c0e500b653ca82273b7bfad8045d85a47060001b8114155b915050919050565b828054600181600116156101000203166002900490600052602060002090601f016020900481019282601f10612a6257805160ff1916838001178555612a90565b82800160010185558215612a90579182015b82811115612a8f578251825591602001919060010190612a74565b5b509050612a9d9190612b21565b5090565b828054600181600116156101000203166002900490600052602060002090601f016020900481019282601f10612ae257805160ff1916838001178555612b10565b82800160010185558215612b10579182015b82811115612b0f578251825591602001919060010190612af4565b5b509050612b1d9190612b21565b5090565b612b4391905b80821115612b3f576000816000905550600101612b27565b5090565b90565b600081359050612b5581614552565b92915050565b600082601f830112612b6c57600080fd5b8135612b7f612b7a8261424f565b614222565b91508181835260208401935060208101905083856020840282011115612ba457600080fd5b60005b83811015612bd45781612bba8882612b46565b845260208401935060208301925050600181019050612ba7565b5050505092915050565b600082601f830112612bef57600080fd5b8135612c02612bfd82614277565b614222565b9150818183526020840193506020810190508360005b83811015612c485781358601612c2e8882612d68565b845260208401935060208301925050600181019050612c18565b5050505092915050565b600082601f830112612c6357600080fd5b8135612c76612c718261429f565b614222565b91508181835260208401935060208101905083856020840282011115612c9b57600080fd5b60005b83811015612ccb5781612cb18882612e10565b845260208401935060208301925050600181019050612c9e565b5050505092915050565b600081359050612ce481614569565b92915050565b600081359050612cf981614580565b92915050565b600081519050612d0e81614580565b92915050565b600082601f830112612d2557600080fd5b8135612d38612d33826142c7565b614222565b91508082526020830160208301858383011115612d5457600080fd5b612d5f8382846144ff565b50505092915050565b600082601f830112612d7957600080fd5b8135612d8c612d87826142f3565b614222565b91508082526020830160208301858383011115612da857600080fd5b612db38382846144ff565b50505092915050565b600082601f830112612dcd57600080fd5b8135612de0612ddb8261431f565b614222565b91508082526020830160208301858383011115612dfc57600080fd5b612e078382846144ff565b50505092915050565b600081359050612e1f81614597565b92915050565b600060208284031215612e3757600080fd5b6000612e4584828501612b46565b91505092915050565b60008060408385031215612e6157600080fd5b6000612e6f85828601612b46565b9250506020612e8085828601612b46565b9150509250929050565b600080600080600060a08688031215612ea257600080fd5b6000612eb088828901612b46565b9550506020612ec188828901612b46565b945050604086013567ffffffffffffffff811115612ede57600080fd5b612eea88828901612bde565b935050606086013567ffffffffffffffff811115612f0757600080fd5b612f1388828901612c52565b925050608086013567ffffffffffffffff811115612f3057600080fd5b612f3c88828901612d14565b9150509295509295909350565b600080600080600060a08688031215612f6157600080fd5b6000612f6f88828901612b46565b9550506020612f8088828901612b46565b945050604086013567ffffffffffffffff811115612f9d57600080fd5b612fa988828901612c52565b935050606086013567ffffffffffffffff811115612fc657600080fd5b612fd288828901612c52565b925050608086013567ffffffffffffffff811115612fef57600080fd5b612ffb88828901612d14565b9150509295509295909350565b6000806000806080858703121561301e57600080fd5b600061302c87828801612b46565b945050602061303d87828801612b46565b935050604085013567ffffffffffffffff81111561305a57600080fd5b61306687828801612dbc565b925050606085013567ffffffffffffffff81111561308357600080fd5b61308f87828801612d14565b91505092959194509250565b600080600080600060a086880312156130b357600080fd5b60006130c188828901612b46565b95505060206130d288828901612b46565b945050604086013567ffffffffffffffff8111156130ef57600080fd5b6130fb88828901612dbc565b935050606061310c88828901612e10565b925050608086013567ffffffffffffffff81111561312957600080fd5b61313588828901612d14565b9150509295509295909350565b600080600080600060a0868803121561315a57600080fd5b600061316888828901612b46565b955050602061317988828901612b46565b945050604061318a88828901612e10565b935050606061319b88828901612e10565b925050608086013567ffffffffffffffff8111156131b857600080fd5b6131c488828901612d14565b9150509295509295909350565b600080604083850312156131e457600080fd5b60006131f285828601612b46565b925050602083013567ffffffffffffffff81111561320f57600080fd5b61321b85828601612bde565b9150509250929050565b6000806040838503121561323857600080fd5b600061324685828601612b46565b925050602061325785828601612cd5565b9150509250929050565b6000806040838503121561327457600080fd5b600061328285828601612b46565b925050602083013567ffffffffffffffff81111561329f57600080fd5b6132ab85828601612dbc565b9150509250929050565b600080604083850312156132c857600080fd5b60006132d685828601612b46565b92505060206132e785828601612e10565b9150509250929050565b6000806040838503121561330457600080fd5b600083013567ffffffffffffffff81111561331e57600080fd5b61332a85828601612b5b565b925050602083013567ffffffffffffffff81111561334757600080fd5b61335385828601612bde565b9150509250929050565b6000806040838503121561337057600080fd5b600083013567ffffffffffffffff81111561338a57600080fd5b61339685828601612b5b565b925050602083013567ffffffffffffffff8111156133b357600080fd5b6133bf85828601612c52565b9150509250929050565b6000602082840312156133db57600080fd5b60006133e984828501612cea565b91505092915050565b60006020828403121561340457600080fd5b600061341284828501612cff565b91505092915050565b60006020828403121561342d57600080fd5b600082013567ffffffffffffffff81111561344757600080fd5b61345384828501612d68565b91505092915050565b60006020828403121561346e57600080fd5b600082013567ffffffffffffffff81111561348857600080fd5b61349484828501612dbc565b91505092915050565b600080604083850312156134b057600080fd5b600083013567ffffffffffffffff8111156134ca57600080fd5b6134d685828601612dbc565b925050602083013567ffffffffffffffff8111156134f357600080fd5b6134ff85828601612dbc565b9150509250929050565b60006020828403121561351b57600080fd5b600061352984828501612e10565b91505092915050565b600061353e838361371f565b905092915050565b60006135528383613d72565b60208301905092915050565b613567816144b7565b82525050565b61357681614443565b82525050565b61358581614431565b82525050565b600061359682614380565b6135a081856143d1565b9350836020820285016135b28561434b565b8060005b858110156135ee57848403895281516135cf8582613532565b94506135da836143b7565b925060208a019950506001810190506135b6565b50829750879550505050505092915050565b600061360b8261438b565b61361581856143e2565b93506136208361435b565b8060005b838110156136515781516136388882613546565b9750613643836143c4565b925050600181019050613624565b5085935050505092915050565b61366781614455565b82525050565b600061367882614396565b61368281856143f3565b935061369281856020860161450e565b61369b81614541565b840191505092915050565b6136af816144c9565b82525050565b60006136c0826143ac565b6136ca8185614415565b93506136da81856020860161450e565b6136e381614541565b840191505092915050565b60006136f9826143ac565b6137038185614426565b935061371381856020860161450e565b80840191505092915050565b600061372a826143a1565b6137348185614404565b935061374481856020860161450e565b61374d81614541565b840191505092915050565b6000613763826143a1565b61376d8185614415565b935061377d81856020860161450e565b61378681614541565b840191505092915050565b600061379c826143a1565b6137a68185614426565b93506137b681856020860161450e565b80840191505092915050565b6000815460018116600081146137df576001811461380457613848565b607f60028304166137f08187614426565b955060ff1983168652808601935050613848565b600282046138128187614426565b955061381d8561436b565b60005b8281101561383f57815481890152600182019150602081019050613820565b82880195505050505b505092915050565b600061385d602b83614415565b91507f4552433131353523736166655472616e7366657246726f6d3a20494e56414c4960008301527f445f524543495049454e540000000000000000000000000000000000000000006020830152604082019050919050565b60006138c3602a83614415565b91507f4552433131353523736166655472616e7366657246726f6d3a20494e56414c4960008301527f445f4f50455241544f52000000000000000000000000000000000000000000006020830152604082019050919050565b6000613929602983614415565b91507f455243313135353a2063616c6c6572206973206e6f74206f776e6572206e6f7260008301527f20617070726f76656400000000000000000000000000000000000000000000006020830152604082019050919050565b600061398f601783614415565b91507f536166654d617468237375623a20554e444552464c4f570000000000000000006000830152602082019050919050565b60006139cf603583614415565b91507f45524331313535235f7361666542617463685472616e7366657246726f6d3a2060008301527f494e56414c49445f4152524159535f4c454e47544800000000000000000000006020830152604082019050919050565b6000613a35602383614415565b91507f455243313135353a206275726e2066726f6d20746865207a65726f206164647260008301527f65737300000000000000000000000000000000000000000000000000000000006020830152604082019050919050565b6000613a9b603083614415565b91507f45524331313535237361666542617463685472616e7366657246726f6d3a204960008301527f4e56414c49445f524543495049454e54000000000000000000000000000000006020830152604082019050919050565b6000613b01600583614426565b91507f2e6a736f6e0000000000000000000000000000000000000000000000000000006000830152600582019050919050565b6000613b41602c83614415565b91507f455243313135352362616c616e63654f6642617463683a20494e56414c49445f60008301527f41525241595f4c454e47544800000000000000000000000000000000000000006020830152604082019050919050565b6000613ba7602f83614415565b91507f45524331313535237361666542617463685472616e7366657246726f6d3a204960008301527f4e56414c49445f4f50455241544f5200000000000000000000000000000000006020830152604082019050919050565b6000613c0d603f83614415565b91507f45524331313535235f63616c6c6f6e455243313135354261746368526563656960008301527f7665643a20494e56414c49445f4f4e5f524543454956455f4d455353414745006020830152604082019050919050565b6000613c73603a83614415565b91507f45524331313535235f63616c6c6f6e4552433131353552656365697665643a2060008301527f494e56414c49445f4f4e5f524543454956455f4d4553534147450000000000006020830152604082019050919050565b6000613cd9601683614415565b91507f536166654d617468236164643a204f564552464c4f57000000000000000000006000830152602082019050919050565b6000613d19602183614415565b91507f455243313135353a206d696e7420746f20746865207a65726f2061646472657360008301527f73000000000000000000000000000000000000000000000000000000000000006020830152604082019050919050565b613d7b816144ad565b82525050565b613d8a816144ad565b82525050565b6000613d9c8284613791565b915081905092915050565b6000613db382846136ee565b915081905092915050565b6000613dca82846137c2565b915081905092915050565b6000613de182856137c2565b9150613ded82846136ee565b9150613df882613af4565b91508190509392505050565b6000602082019050613e19600083018461357c565b92915050565b600060a082019050613e34600083018861355e565b613e41602083018761357c565b8181036040830152613e538186613600565b90508181036060830152613e678185613600565b90508181036080830152613e7b818461366d565b90509695505050505050565b600060a082019050613e9c600083018861355e565b613ea9602083018761357c565b613eb66040830186613d81565b613ec36060830185613d81565b8181036080830152613ed5818461366d565b90509695505050505050565b60006020820190508181036000830152613efb818461358b565b905092915050565b60006020820190508181036000830152613f1d8184613600565b905092915050565b60006040820190508181036000830152613f3f8185613600565b90508181036020830152613f538184613600565b90509392505050565b6000602082019050613f71600083018461365e565b92915050565b60006020820190508181036000830152613f918184613758565b905092915050565b60006020820190508181036000830152613fb381846136b5565b905092915050565b60006020820190508181036000830152613fd481613850565b9050919050565b60006020820190508181036000830152613ff4816138b6565b9050919050565b600060208201905081810360008301526140148161391c565b9050919050565b6000602082019050818103600083015261403481613982565b9050919050565b60006020820190508181036000830152614054816139c2565b9050919050565b6000602082019050818103600083015261407481613a28565b9050919050565b6000602082019050818103600083015261409481613a8e565b9050919050565b600060208201905081810360008301526140b481613b34565b9050919050565b600060208201905081810360008301526140d481613b9a565b9050919050565b600060208201905081810360008301526140f481613c00565b9050919050565b6000602082019050818103600083015261411481613c66565b9050919050565b6000602082019050818103600083015261413481613ccc565b9050919050565b6000602082019050818103600083015261415481613d0c565b9050919050565b60006020820190506141706000830184613d81565b92915050565b600060a08201905061418b6000830188613d81565b614198602083018761356d565b6141a5604083018661357c565b6141b2606083018561357c565b81810360808301526141c48184613758565b90509695505050505050565b60006040820190506141e56000830185613d81565b6141f260208301846136a6565b9392505050565b600060408201905061420e6000830185613d81565b61421b6020830184613d81565b9392505050565b6000604051905081810181811067ffffffffffffffff8211171561424557600080fd5b8060405250919050565b600067ffffffffffffffff82111561426657600080fd5b602082029050602081019050919050565b600067ffffffffffffffff82111561428e57600080fd5b602082029050602081019050919050565b600067ffffffffffffffff8211156142b657600080fd5b602082029050602081019050919050565b600067ffffffffffffffff8211156142de57600080fd5b601f19601f8301169050602081019050919050565b600067ffffffffffffffff82111561430a57600080fd5b601f19601f8301169050602081019050919050565b600067ffffffffffffffff82111561433657600080fd5b601f19601f8301169050602081019050919050565b6000819050602082019050919050565b6000819050602082019050919050565b60008190508160005260206000209050919050565b600081519050919050565b600081519050919050565b600081519050919050565b600081519050919050565b600081519050919050565b6000602082019050919050565b6000602082019050919050565b600082825260208201905092915050565b600082825260208201905092915050565b600082825260208201905092915050565b600082825260208201905092915050565b600082825260208201905092915050565b600081905092915050565b600061443c8261448d565b9050919050565b600061444e8261448d565b9050919050565b60008115159050919050565b60007fffffffff0000000000000000000000000000000000000000000000000000000082169050919050565b600073ffffffffffffffffffffffffffffffffffffffff82169050919050565b6000819050919050565b60006144c2826144db565b9050919050565b60006144d4826144ad565b9050919050565b60006144e6826144ed565b9050919050565b60006144f88261448d565b9050919050565b82818337600083830152505050565b60005b8381101561452c578082015181840152602081019050614511565b8381111561453b576000848401525b50505050565b6000601f19601f8301169050919050565b61455b81614431565b811461456657600080fd5b50565b61457281614455565b811461457d57600080fd5b50565b61458981614461565b811461459457600080fd5b50565b6145a0816144ad565b81146145ab57600080fd5b5056fea365627a7a72315820d57ca8c590c3cd34efc747a97f18833b440363261ac88aacde58682900c1ba9e6c6578706572696d656e74616cf564736f6c63430005110040",
  "source": "pragma solidity ^0.5.0;\npragma experimental ABIEncoderV2;\n\nimport \"multi-token-standard/contracts/tokens/ERC1155/ERC1155.sol\";\nimport \"multi-token-standard/contracts/tokens/ERC1155/ERC1155Metadata.sol\";\nimport \"../proxyIdentity.sol\";\n\n/**\n * @dev Implementation of the multi-token standard with tokens being a proxy identity contracts\n * Todo    1. On mint check if token with given id already exists\n *         2. Only ProxyIdentity contract allowed to mint its token\n */\ncontract ERC1155Multiproxy is ERC1155, ERC1155Metadata {\n  struct Proxy {\n    uint256 id;\n    address payable itsAddress;\n    address owner;\n    address creator;\n    string metadataUri;\n  }\n\n  mapping(string => Proxy) public proxies;\n  string[] public serials;\n\n  modifier isOwnerOrApproved(address account) {\n    require(\n      account == msg.sender || isApprovedForAll(account, msg.sender),\n      \"ERC1155: caller is not owner nor approved\"\n    );\n    _;\n  }\n\n  /**\n   * @notice Invoked only by proxy when it is created\n   */\n  function mint(\n    address owner,\n    address creator,\n    string memory serial,\n    bytes memory data\n  ) public {\n    serials.push(serial);\n    proxies[serial] = Proxy(serials.length, msg.sender, owner, creator, \"\");\n    _mint(owner, proxies[serial].id, \"\");\n  }\n\n  function transfer(\n    address from,\n    address to,\n    string memory serial,\n    uint256 amount,\n    bytes memory data\n  ) public {\n    uint256 id = proxies[serial].id;\n    super.safeTransferFrom(from, to, id, amount, data);\n    if (amount == 1) {\n      proxies[serial].owner = to;\n      _onProxyOwnerChanged(serial, to);\n    }\n  }\n\n  function transferBatch(\n    address from,\n    address to,\n    string[] memory _serials,\n    uint256[] memory amounts,\n    bytes memory data\n  ) public {\n    uint256[] memory ids = _idsBySerials(_serials);\n    super.safeBatchTransferFrom(from, to, ids, amounts, data);\n    for (uint256 i = 0; i < serials.length; i++) {\n      if (amounts[i] == 1) {\n        proxies[serials[i]].owner = to;\n        _onProxyOwnerChanged(serials[i], to);\n      }\n    }\n  }\n\n  function balance(address _owner, string memory _serial)\n    public\n    view\n    returns (uint256)\n  {\n    return super.balanceOf(_owner, proxies[_serial].id);\n  }\n\n  function balanceBatch(address[] memory _owners, string[] memory _serials)\n    public\n    view\n    returns (uint256[] memory)\n  {\n    return super.balanceOfBatch(_owners, _idsBySerials(_serials));\n  }\n\n  function burn(address account, string memory serial)\n    public\n    isOwnerOrApproved(account)\n  {\n    _burn(account, serial);\n  }\n\n  function burnBatch(address account, string[] memory _serials)\n    public\n    isOwnerOrApproved(account)\n  {\n    for (uint256 i = 0; i < serials.length; i++) {\n      _burn(account, _serials[i]);\n    }\n  }\n\n  function updateUri(string memory serial, string memory uri)\n    public\n    isOwnerOrApproved(proxies[serial].owner)\n  {\n    proxies[serial].metadataUri = uri;\n  }\n\n  function uri(string memory serial) public view returns (string memory) {\n    return proxies[serial].metadataUri;\n  }\n\n  function tokensOwnedBy(address owner)\n    public\n    view\n    returns (string[] memory result)\n  {\n    string[] memory owned = new string[](serials.length);\n    uint256 count = 0;\n    for (uint256 i = 0; i < serials.length; i++) {\n      if (proxies[serials[i]].owner == owner) {\n        owned[count++] = serials[i];\n      }\n    }\n    result = new string[](count);\n    for (uint256 i = 0; i < count; i++) {\n      result[i] = owned[i];\n    }\n  }\n\n  function tokensCreatedBy(address creator)\n    public\n    view\n    returns (string[] memory result)\n  {\n    string[] memory created = new string[](serials.length);\n    uint256 count = 0;\n    for (uint256 i = 0; i < serials.length; i++) {\n      if (proxies[serials[i]].creator == creator) {\n        created[count++] = serials[i];\n      }\n    }\n    result = new string[](count);\n    for (uint256 i = 0; i < count; i++) {\n      result[i] = created[i];\n    }\n  }\n\n  function allTokens() public view returns (string[] memory) {\n    return serials;\n  }\n\n  function _burn(address account, string memory serial) internal {\n    require(account != address(0), \"ERC1155: burn from the zero address\");\n\n    uint256 id = proxies[serial].id;\n    uint256 amount = balances[account][id];\n\n    address operator = msg.sender;\n\n    balances[account][id] = 0;\n\n    ProxyIdentity proxy = ProxyIdentity(proxies[serial].itsAddress);\n    proxy.onBurn();\n    proxies[serial] = Proxy(id, address(0), address(0), address(0), \"\");\n\n    emit TransferSingle(operator, account, address(0), id, amount);\n  }\n\n  function _mint(\n    address account,\n    uint256 id,\n    bytes memory data\n  ) internal {\n    require(account != address(0), \"ERC1155: mint to the zero address\");\n\n    address operator = msg.sender;\n\n    balances[account][id] = 1;\n\n    _callonERC1155Received(address(0), account, id, 1, gasleft(), data);\n\n    emit TransferSingle(operator, address(0), account, id, 1);\n  }\n\n  function _onProxyOwnerChanged(string memory serial, address owner) internal {\n    ProxyIdentity proxy = ProxyIdentity(proxies[serial].itsAddress);\n    proxy.onOwnerChanged(owner);\n  }\n\n  function _idsBySerials(string[] memory _serials)\n    internal\n    view\n    returns (uint256[] memory ids)\n  {\n    ids = new uint256[](_serials.length);\n    for (uint256 i = 0; i < _serials.length; i++) {\n      ids[i] = proxies[_serials[i]].id;\n    }\n  }\n}\n",
  "sourcePath": "/home/dima/Development/ew-did-registry/packages/proxyIdentity/contracts/tokens/ERC1155Multiproxy.sol",
  "compiler": {
    "name": "solc",
    "version": "0.5.17+commit.d19bba13.Emscripten.clang"
  },
  "schemaVersion": "3.0.16",
  "updatedAt": "2020-10-19T15:08:33.977Z",
  "devdoc": {
    "details": "Implementation of the multi-token standard with tokens being a proxy identity contracts Todo    1. On mint check if token with given id already exists        2. Only ProxyIdentity contract allowed to mint its token",
    "methods": {
      "balanceOf(address,uint256)": {
        "params": {
          "_id": "ID of the Token",
          "_owner": "The address of the token holder"
        },
        "return": "The _owner's balance of the Token type requested"
      },
      "balanceOfBatch(address[],uint256[])": {
        "params": {
          "_ids": "ID of the Tokens",
          "_owners": "The addresses of the token holders"
        },
        "return": "The _owner's balance of the Token types requested (i.e. balance for each (owner, id) pair)"
      },
      "isApprovedForAll(address,address)": {
        "params": {
          "_operator": "Address of authorized operator",
          "_owner": "The owner of the Tokens"
        },
        "return": "True if the operator is approved, false if not"
      },
      "safeBatchTransferFrom(address,address,uint256[],uint256[],bytes)": {
        "params": {
          "_amounts": "Transfer amounts per token type",
          "_data": "Additional data with no specified format, sent in call to `_to`",
          "_from": "Source addresses",
          "_ids": "IDs of each token type",
          "_to": "Target addresses"
        }
      },
      "safeTransferFrom(address,address,uint256,uint256,bytes)": {
        "params": {
          "_amount": "Transfered amount",
          "_data": "Additional data with no specified format, sent in call to `_to`",
          "_from": "Source address",
          "_id": "ID of the token type",
          "_to": "Target address"
        }
      },
      "setApprovalForAll(address,bool)": {
        "params": {
          "_approved": "True if the operator is approved, false to revoke approval",
          "_operator": "Address to add to the set of authorized operators"
        }
      },
      "supportsInterface(bytes4)": {
        "params": {
          "_interfaceID": "The interface identifier, as specified in ERC-165"
        },
        "return": "`true` if the contract implements `_interfaceID` and"
      },
      "uri(uint256)": {
        "details": "URIs are defined in RFC 3986.     URIs are assumed to be deterministically generated based on token ID     Token IDs are assumed to be represented in their hex format in URIs",
        "return": "URI string"
      }
    }
  },
  "userdoc": {
    "methods": {
      "balanceOf(address,uint256)": {
        "notice": "Get the balance of an account's Tokens"
      },
      "balanceOfBatch(address[],uint256[])": {
        "notice": "Get the balance of multiple account/token pairs"
      },
      "isApprovedForAll(address,address)": {
        "notice": "Queries the approval status of an operator for a given owner"
      },
      "mint(address,address,string,bytes)": {
        "notice": "Invoked only by proxy when it is created"
      },
      "safeBatchTransferFrom(address,address,uint256[],uint256[],bytes)": {
        "notice": "Send multiple types of Tokens from the _from address to the _to address (with safety call)"
      },
      "safeTransferFrom(address,address,uint256,uint256,bytes)": {
        "notice": "Transfers amount amount of an _id from the _from address to the _to address specified"
      },
      "setApprovalForAll(address,bool)": {
        "notice": "Enable or disable approval for a third party (\"operator\") to manage all of caller's tokens"
      },
      "supportsInterface(bytes4)": {
        "notice": "Query if a contract implements an interface"
      },
      "uri(uint256)": {
        "notice": "A distinct Uniform Resource Identifier (URI) for a given token."
      }
    }
  }
}