{
  "contractName": "ERC1155Multiproxy",
  "abi": [
    {
      "anonymous": false,
      "inputs": [
        {
          "indexed": true,
          "internalType": "address",
          "name": "_owner",
          "type": "address"
        },
        {
          "indexed": true,
          "internalType": "address",
          "name": "_operator",
          "type": "address"
        },
        {
          "indexed": false,
          "internalType": "bool",
          "name": "_approved",
          "type": "bool"
        }
      ],
      "name": "ApprovalForAll",
      "type": "event"
    },
    {
      "anonymous": false,
      "inputs": [
        {
          "indexed": true,
          "internalType": "address",
          "name": "_operator",
          "type": "address"
        },
        {
          "indexed": true,
          "internalType": "address",
          "name": "_from",
          "type": "address"
        },
        {
          "indexed": true,
          "internalType": "address",
          "name": "_to",
          "type": "address"
        },
        {
          "indexed": false,
          "internalType": "uint256[]",
          "name": "_ids",
          "type": "uint256[]"
        },
        {
          "indexed": false,
          "internalType": "uint256[]",
          "name": "_amounts",
          "type": "uint256[]"
        }
      ],
      "name": "TransferBatch",
      "type": "event"
    },
    {
      "anonymous": false,
      "inputs": [
        {
          "indexed": true,
          "internalType": "address",
          "name": "_operator",
          "type": "address"
        },
        {
          "indexed": true,
          "internalType": "address",
          "name": "_from",
          "type": "address"
        },
        {
          "indexed": true,
          "internalType": "address",
          "name": "_to",
          "type": "address"
        },
        {
          "indexed": false,
          "internalType": "uint256",
          "name": "_id",
          "type": "uint256"
        },
        {
          "indexed": false,
          "internalType": "uint256",
          "name": "_amount",
          "type": "uint256"
        }
      ],
      "name": "TransferSingle",
      "type": "event"
    },
    {
      "anonymous": false,
      "inputs": [
        {
          "indexed": false,
          "internalType": "string",
          "name": "_uri",
          "type": "string"
        },
        {
          "indexed": true,
          "internalType": "uint256",
          "name": "_id",
          "type": "uint256"
        }
      ],
      "name": "URI",
      "type": "event"
    },
    {
      "constant": true,
      "inputs": [
        {
          "internalType": "address",
          "name": "_owner",
          "type": "address"
        },
        {
          "internalType": "uint256",
          "name": "_id",
          "type": "uint256"
        }
      ],
      "name": "balanceOf",
      "outputs": [
        {
          "internalType": "uint256",
          "name": "",
          "type": "uint256"
        }
      ],
      "payable": false,
      "stateMutability": "view",
      "type": "function"
    },
    {
      "constant": true,
      "inputs": [
        {
          "internalType": "address[]",
          "name": "_owners",
          "type": "address[]"
        },
        {
          "internalType": "uint256[]",
          "name": "_ids",
          "type": "uint256[]"
        }
      ],
      "name": "balanceOfBatch",
      "outputs": [
        {
          "internalType": "uint256[]",
          "name": "",
          "type": "uint256[]"
        }
      ],
      "payable": false,
      "stateMutability": "view",
      "type": "function"
    },
    {
      "constant": true,
      "inputs": [
        {
          "internalType": "address",
          "name": "_owner",
          "type": "address"
        },
        {
          "internalType": "address",
          "name": "_operator",
          "type": "address"
        }
      ],
      "name": "isApprovedForAll",
      "outputs": [
        {
          "internalType": "bool",
          "name": "isOperator",
          "type": "bool"
        }
      ],
      "payable": false,
      "stateMutability": "view",
      "type": "function"
    },
    {
      "constant": true,
      "inputs": [
        {
          "internalType": "string",
          "name": "",
          "type": "string"
        }
      ],
      "name": "proxies",
      "outputs": [
        {
          "internalType": "uint256",
          "name": "id",
          "type": "uint256"
        },
        {
          "internalType": "address payable",
          "name": "itsAddress",
          "type": "address"
        },
        {
          "internalType": "address",
          "name": "owner",
          "type": "address"
        },
        {
          "internalType": "address",
          "name": "creator",
          "type": "address"
        },
        {
          "internalType": "string",
          "name": "metadataUri",
          "type": "string"
        }
      ],
      "payable": false,
      "stateMutability": "view",
      "type": "function"
    },
    {
      "constant": false,
      "inputs": [
        {
          "internalType": "address",
          "name": "_from",
          "type": "address"
        },
        {
          "internalType": "address",
          "name": "_to",
          "type": "address"
        },
        {
          "internalType": "uint256[]",
          "name": "_ids",
          "type": "uint256[]"
        },
        {
          "internalType": "uint256[]",
          "name": "_amounts",
          "type": "uint256[]"
        },
        {
          "internalType": "bytes",
          "name": "_data",
          "type": "bytes"
        }
      ],
      "name": "safeBatchTransferFrom",
      "outputs": [],
      "payable": false,
      "stateMutability": "nonpayable",
      "type": "function"
    },
    {
      "constant": false,
      "inputs": [
        {
          "internalType": "address",
          "name": "_from",
          "type": "address"
        },
        {
          "internalType": "address",
          "name": "_to",
          "type": "address"
        },
        {
          "internalType": "uint256",
          "name": "_id",
          "type": "uint256"
        },
        {
          "internalType": "uint256",
          "name": "_amount",
          "type": "uint256"
        },
        {
          "internalType": "bytes",
          "name": "_data",
          "type": "bytes"
        }
      ],
      "name": "safeTransferFrom",
      "outputs": [],
      "payable": false,
      "stateMutability": "nonpayable",
      "type": "function"
    },
    {
      "constant": true,
      "inputs": [
        {
          "internalType": "uint256",
          "name": "",
          "type": "uint256"
        }
      ],
      "name": "serials",
      "outputs": [
        {
          "internalType": "string",
          "name": "",
          "type": "string"
        }
      ],
      "payable": false,
      "stateMutability": "view",
      "type": "function"
    },
    {
      "constant": false,
      "inputs": [
        {
          "internalType": "address",
          "name": "_operator",
          "type": "address"
        },
        {
          "internalType": "bool",
          "name": "_approved",
          "type": "bool"
        }
      ],
      "name": "setApprovalForAll",
      "outputs": [],
      "payable": false,
      "stateMutability": "nonpayable",
      "type": "function"
    },
    {
      "constant": true,
      "inputs": [
        {
          "internalType": "bytes4",
          "name": "_interfaceID",
          "type": "bytes4"
        }
      ],
      "name": "supportsInterface",
      "outputs": [
        {
          "internalType": "bool",
          "name": "",
          "type": "bool"
        }
      ],
      "payable": false,
      "stateMutability": "view",
      "type": "function"
    },
    {
      "constant": false,
      "inputs": [
        {
          "internalType": "address",
          "name": "owner",
          "type": "address"
        },
        {
          "internalType": "address",
          "name": "creator",
          "type": "address"
        },
        {
          "internalType": "string",
          "name": "serial",
          "type": "string"
        },
        {
          "internalType": "bytes",
          "name": "data",
          "type": "bytes"
        }
      ],
      "name": "mint",
      "outputs": [],
      "payable": false,
      "stateMutability": "nonpayable",
      "type": "function"
    },
    {
      "constant": false,
      "inputs": [
        {
          "internalType": "address",
          "name": "from",
          "type": "address"
        },
        {
          "internalType": "address",
          "name": "to",
          "type": "address"
        },
        {
          "internalType": "string",
          "name": "serial",
          "type": "string"
        },
        {
          "internalType": "uint256",
          "name": "amount",
          "type": "uint256"
        },
        {
          "internalType": "bytes",
          "name": "data",
          "type": "bytes"
        }
      ],
      "name": "transfer",
      "outputs": [],
      "payable": false,
      "stateMutability": "nonpayable",
      "type": "function"
    },
    {
      "constant": false,
      "inputs": [
        {
          "internalType": "address",
          "name": "from",
          "type": "address"
        },
        {
          "internalType": "address",
          "name": "to",
          "type": "address"
        },
        {
          "internalType": "string[]",
          "name": "_serials",
          "type": "string[]"
        },
        {
          "internalType": "uint256[]",
          "name": "amounts",
          "type": "uint256[]"
        },
        {
          "internalType": "bytes",
          "name": "data",
          "type": "bytes"
        }
      ],
      "name": "transferBatch",
      "outputs": [],
      "payable": false,
      "stateMutability": "nonpayable",
      "type": "function"
    },
    {
      "constant": true,
      "inputs": [
        {
          "internalType": "address",
          "name": "_owner",
          "type": "address"
        },
        {
          "internalType": "string",
          "name": "_serial",
          "type": "string"
        }
      ],
      "name": "balance",
      "outputs": [
        {
          "internalType": "uint256",
          "name": "",
          "type": "uint256"
        }
      ],
      "payable": false,
      "stateMutability": "view",
      "type": "function"
    },
    {
      "constant": true,
      "inputs": [
        {
          "internalType": "address[]",
          "name": "_owners",
          "type": "address[]"
        },
        {
          "internalType": "string[]",
          "name": "_serials",
          "type": "string[]"
        }
      ],
      "name": "balanceBatch",
      "outputs": [
        {
          "internalType": "uint256[]",
          "name": "",
          "type": "uint256[]"
        }
      ],
      "payable": false,
      "stateMutability": "view",
      "type": "function"
    },
    {
      "constant": false,
      "inputs": [
        {
          "internalType": "address",
          "name": "account",
          "type": "address"
        },
        {
          "internalType": "string",
          "name": "serial",
          "type": "string"
        }
      ],
      "name": "burn",
      "outputs": [],
      "payable": false,
      "stateMutability": "nonpayable",
      "type": "function"
    },
    {
      "constant": false,
      "inputs": [
        {
          "internalType": "address",
          "name": "account",
          "type": "address"
        },
        {
          "internalType": "string[]",
          "name": "_serials",
          "type": "string[]"
        }
      ],
      "name": "burnBatch",
      "outputs": [],
      "payable": false,
      "stateMutability": "nonpayable",
      "type": "function"
    },
    {
      "constant": false,
      "inputs": [
        {
          "internalType": "string",
          "name": "serial",
          "type": "string"
        },
        {
          "internalType": "string",
          "name": "uri",
          "type": "string"
        }
      ],
      "name": "updateUri",
      "outputs": [],
      "payable": false,
      "stateMutability": "nonpayable",
      "type": "function"
    },
    {
      "constant": true,
      "inputs": [
        {
          "internalType": "string",
          "name": "serial",
          "type": "string"
        }
      ],
      "name": "uri",
      "outputs": [
        {
          "internalType": "string",
          "name": "",
          "type": "string"
        }
      ],
      "payable": false,
      "stateMutability": "view",
      "type": "function"
    },
    {
      "constant": true,
      "inputs": [
        {
          "internalType": "uint256",
          "name": "_id",
          "type": "uint256"
        }
      ],
      "name": "uri",
      "outputs": [
        {
          "internalType": "string",
          "name": "",
          "type": "string"
        }
      ],
      "payable": false,
      "stateMutability": "view",
      "type": "function"
    },
    {
      "constant": true,
      "inputs": [
        {
          "internalType": "address",
          "name": "owner",
          "type": "address"
        }
      ],
      "name": "tokensOwnedBy",
      "outputs": [
        {
          "internalType": "string[]",
          "name": "result",
          "type": "string[]"
        }
      ],
      "payable": false,
      "stateMutability": "view",
      "type": "function"
    },
    {
      "constant": true,
      "inputs": [
        {
          "internalType": "address",
          "name": "creator",
          "type": "address"
        }
      ],
      "name": "tokensCreatedBy",
      "outputs": [
        {
          "internalType": "string[]",
          "name": "result",
          "type": "string[]"
        }
      ],
      "payable": false,
      "stateMutability": "view",
      "type": "function"
    },
    {
      "constant": true,
      "inputs": [],
      "name": "allTokens",
      "outputs": [
        {
          "internalType": "string[]",
          "name": "",
          "type": "string[]"
        }
      ],
      "payable": false,
      "stateMutability": "view",
      "type": "function"
    }
  ],
  "bytecode": "0x608060405234801561001057600080fd5b5061454e806100206000396000f3fe608060405234801561001057600080fd5b50600436106101415760003560e01c806381550513116100b8578063cc56418d1161007c578063cc56418d146103bc578063d3301c4f146103d8578063da0d962a146103f4578063e985e9c514610428578063ea66aeb314610458578063f242432a1461048857610141565b8063815505131461030857806398cd96af14610324578063a22cb46514610354578063b772b8ae14610370578063c9d68939146103a057610141565b806316cadeab1161010a57806316cadeab1461022257806320b4a8e6146102525780632eb2c2d6146102825780634e1273f41461029e5780635d9ef52e146102ce5780636ff97f1d146102ea57610141565b8062fdd58e1461014657806301ffc9a7146101765780630de72b7e146101a65780630e89341c146101d657806316b9541c14610206575b600080fd5b610160600480360361015b9190810190613212565b6104a4565b60405161016d91906140b8565b60405180910390f35b610190600480360361018b9190810190613326565b6104fe565b60405161019d9190613eb9565b60405180910390f35b6101c060048036036101bb91908101906133b9565b6105af565b6040516101cd9190613ef6565b60405180910390f35b6101f060048036036101eb9190810190613466565b610672565b6040516101fd9190613ef6565b60405180910390f35b610220600480360361021b9190810190612f65565b6106a6565b005b61023c600480360361023791908101906131be565b6108c0565b60405161024991906140b8565b60405180910390f35b61026c60048036036102679190810190612d82565b6108f5565b6040516102799190613e3e565b60405180910390f35b61029c60048036036102979190810190612ea6565b610b38565b005b6102b860048036036102b391908101906132ba565b610c48565b6040516102c59190613e60565b60405180910390f35b6102e860048036036102e391908101906131be565b610d78565b005b6102f2610e07565b6040516102ff9190613e3e565b60405180910390f35b610322600480360361031d9190810190612de7565b610ef0565b005b61033e60048036036103399190810190613466565b610fdc565b60405161034b9190613ed4565b60405180910390f35b61036e60048036036103699190810190613182565b611095565b005b61038a6004803603610385919081019061324e565b611192565b6040516103979190613e60565b60405180910390f35b6103ba60048036036103b591908101906133fa565b6111ae565b005b6103d660048036036103d19190810190612ff8565b6112aa565b005b6103f260048036036103ed919081019061312e565b611359565b005b61040e60048036036104099190810190613378565b61141c565b60405161041f9594939291906140d3565b60405180910390f35b610442600480360361043d9190810190612dab565b611560565b60405161044f9190613eb9565b60405180910390f35b610472600480360361046d9190810190612d82565b6115f4565b60405161047f9190613e3e565b60405180910390f35b6104a2600480360361049d919081019061309f565b611837565b005b60008060008473ffffffffffffffffffffffffffffffffffffffff1673ffffffffffffffffffffffffffffffffffffffff168152602001908152602001600020600083815260200190815260200160002054905092915050565b60006301ffc9a760e01b7bffffffffffffffffffffffffffffffffffffffffffffffffffffffff1916827bffffffffffffffffffffffffffffffffffffffffffffffffffffffff19161480610597575063d9b67a2660e01b7bffffffffffffffffffffffffffffffffffffffffffffffffffffffff1916827bffffffffffffffffffffffffffffffffffffffffffffffffffffffff1916145b156105a557600190506105aa565b600090505b919050565b60606003826040516105c19190613d04565b90815260200160405180910390206004018054600181600116156101000203166002900480601f0160208091040260200160405190810160405280929190818152602001828054600181600116156101000203166002900480156106665780601f1061063b57610100808354040283529160200191610666565b820191906000526020600020905b81548152906001019060200180831161064957829003601f168201915b50505050509050919050565b6060600261067f83611947565b604051602001610690929190613d32565b6040516020818303038152906040529050919050565b60048290806001815401808255809150509060018203906000526020600020016000909192909190915090805190602001906106e392919061297e565b50506040518060a0016040528060048054905081526020013373ffffffffffffffffffffffffffffffffffffffff1681526020018573ffffffffffffffffffffffffffffffffffffffff1681526020018473ffffffffffffffffffffffffffffffffffffffff168152602001604051806020016040528060008152508152506003836040516107729190613d04565b90815260200160405180910390206000820151816000015560208201518160010160006101000a81548173ffffffffffffffffffffffffffffffffffffffff021916908373ffffffffffffffffffffffffffffffffffffffff16021790555060408201518160020160006101000a81548173ffffffffffffffffffffffffffffffffffffffff021916908373ffffffffffffffffffffffffffffffffffffffff16021790555060608201518160030160006101000a81548173ffffffffffffffffffffffffffffffffffffffff021916908373ffffffffffffffffffffffffffffffffffffffff160217905550608082015181600401908051906020019061087b9291906129fe565b509050506108ba846003846040516108939190613d04565b90815260200160405180910390206000015460405180602001604052806000815250611a7a565b50505050565b60006108ed836003846040516108d69190613d04565b9081526020016040518091039020600001546104a4565b905092915050565b60608060048054905060405190808252806020026020018201604052801561093157816020015b606081526020019060019003908161091c5790505b509050600080905060008090505b600480549050811015610ab2578473ffffffffffffffffffffffffffffffffffffffff1660036004838154811061097257fe5b906000526020600020016040516109899190613d1b565b908152602001604051809103902060030160009054906101000a900473ffffffffffffffffffffffffffffffffffffffff1673ffffffffffffffffffffffffffffffffffffffff161415610aa557600481815481106109e457fe5b906000526020600020018054600181600116156101000203166002900480601f016020809104026020016040519081016040528092919081815260200182805460018160011615610100020316600290048015610a825780601f10610a5757610100808354040283529160200191610a82565b820191906000526020600020905b815481529060010190602001808311610a6557829003601f168201915b5050505050838380600101945081518110610a9957fe5b60200260200101819052505b808060010191505061093f565b5080604051908082528060200260200182016040528015610ae757816020015b6060815260200190600190039081610ad25790505b50925060008090505b81811015610b3057828181518110610b0457fe5b6020026020010151848281518110610b1857fe5b60200260200101819052508080600101915050610af0565b505050919050565b8473ffffffffffffffffffffffffffffffffffffffff163373ffffffffffffffffffffffffffffffffffffffff161480610b785750610b778533611560565b5b610bb7576040517f08c379a0000000000000000000000000000000000000000000000000000000008152600401610bae90614018565b60405180910390fd5b600073ffffffffffffffffffffffffffffffffffffffff168473ffffffffffffffffffffffffffffffffffffffff161415610c27576040517f08c379a0000000000000000000000000000000000000000000000000000000008152600401610c1e90613fd8565b60405180910390fd5b610c3385858585611bda565b610c41858585855a86611ea1565b5050505050565b60608151835114610c8e576040517f08c379a0000000000000000000000000000000000000000000000000000000008152600401610c8590613ff8565b60405180910390fd5b60608351604051908082528060200260200182016040528015610cc05781602001602082028038833980820191505090505b50905060008090505b8451811015610d6d57600080868381518110610ce157fe5b602002602001015173ffffffffffffffffffffffffffffffffffffffff1673ffffffffffffffffffffffffffffffffffffffff1681526020019081526020016000206000858381518110610d3157fe5b6020026020010151815260200190815260200160002054828281518110610d5457fe5b6020026020010181815250508080600101915050610cc9565b508091505092915050565b813373ffffffffffffffffffffffffffffffffffffffff168173ffffffffffffffffffffffffffffffffffffffff161480610db95750610db88133611560565b5b610df8576040517f08c379a0000000000000000000000000000000000000000000000000000000008152600401610def90613f58565b60405180910390fd5b610e028383611fef565b505050565b60606004805480602002602001604051908101604052809291908181526020016000905b82821015610ee7578382906000526020600020018054600181600116156101000203166002900480601f016020809104026020016040519081016040528092919081815260200182805460018160011615610100020316600290048015610ed35780601f10610ea857610100808354040283529160200191610ed3565b820191906000526020600020905b815481529060010190602001808311610eb657829003601f168201915b505050505081526020019060010190610e2b565b50505050905090565b6060610efb846123f8565b9050610f0a8686838686610b38565b60008090505b8451811015610fd3576001848281518110610f2757fe5b60200260200101511415610fc657856003868381518110610f4457fe5b6020026020010151604051610f599190613ced565b908152602001604051809103902060020160006101000a81548173ffffffffffffffffffffffffffffffffffffffff021916908373ffffffffffffffffffffffffffffffffffffffff160217905550610fc5858281518110610fb757fe5b60200260200101518761249c565b5b8080600101915050610f10565b50505050505050565b60048181548110610fe957fe5b906000526020600020016000915090508054600181600116156101000203166002900480601f01602080910402602001604051908101604052809291908181526020018280546001816001161561010002031660029004801561108d5780601f106110625761010080835404028352916020019161108d565b820191906000526020600020905b81548152906001019060200180831161107057829003601f168201915b505050505081565b80600160003373ffffffffffffffffffffffffffffffffffffffff1673ffffffffffffffffffffffffffffffffffffffff16815260200190815260200160002060008473ffffffffffffffffffffffffffffffffffffffff1673ffffffffffffffffffffffffffffffffffffffff16815260200190815260200160002060006101000a81548160ff0219169083151502179055508173ffffffffffffffffffffffffffffffffffffffff163373ffffffffffffffffffffffffffffffffffffffff167f17307eab39ab6107e8899845ad3d59bd9653f200f220920489ca2b5937696c31836040516111869190613eb9565b60405180910390a35050565b60606111a6836111a1846123f8565b610c48565b905092915050565b6003826040516111be9190613d04565b908152602001604051809103902060020160009054906101000a900473ffffffffffffffffffffffffffffffffffffffff163373ffffffffffffffffffffffffffffffffffffffff168173ffffffffffffffffffffffffffffffffffffffff161480611230575061122f8133611560565b5b61126f576040517f08c379a000000000000000000000000000000000000000000000000000000000815260040161126690613f58565b60405180910390fd5b816003846040516112809190613d04565b908152602001604051809103902060040190805190602001906112a492919061297e565b50505050565b60006003846040516112bc9190613d04565b90815260200160405180910390206000015490506112dd8686838686611837565b600183141561135157846003856040516112f79190613d04565b908152602001604051809103902060020160006101000a81548173ffffffffffffffffffffffffffffffffffffffff021916908373ffffffffffffffffffffffffffffffffffffffff160217905550611350848661249c565b5b505050505050565b813373ffffffffffffffffffffffffffffffffffffffff168173ffffffffffffffffffffffffffffffffffffffff16148061139a57506113998133611560565b5b6113d9576040517f08c379a00000000000000000000000000000000000000000000000000000000081526004016113d090613f58565b60405180910390fd5b60008090505b60048054905081101561141657611409848483815181106113fc57fe5b6020026020010151611fef565b80806001019150506113df565b50505050565b6003818051602081018201805184825260208301602085012081835280955050505050506000915090508060000154908060010160009054906101000a900473ffffffffffffffffffffffffffffffffffffffff16908060020160009054906101000a900473ffffffffffffffffffffffffffffffffffffffff16908060030160009054906101000a900473ffffffffffffffffffffffffffffffffffffffff1690806004018054600181600116156101000203166002900480601f0160208091040260200160405190810160405280929190818152602001828054600181600116156101000203166002900480156115565780601f1061152b57610100808354040283529160200191611556565b820191906000526020600020905b81548152906001019060200180831161153957829003601f168201915b5050505050905085565b6000600160008473ffffffffffffffffffffffffffffffffffffffff1673ffffffffffffffffffffffffffffffffffffffff16815260200190815260200160002060008373ffffffffffffffffffffffffffffffffffffffff1673ffffffffffffffffffffffffffffffffffffffff16815260200190815260200160002060009054906101000a900460ff16905092915050565b60608060048054905060405190808252806020026020018201604052801561163057816020015b606081526020019060019003908161161b5790505b509050600080905060008090505b6004805490508110156117b1578473ffffffffffffffffffffffffffffffffffffffff1660036004838154811061167157fe5b906000526020600020016040516116889190613d1b565b908152602001604051809103902060020160009054906101000a900473ffffffffffffffffffffffffffffffffffffffff1673ffffffffffffffffffffffffffffffffffffffff1614156117a457600481815481106116e357fe5b906000526020600020018054600181600116156101000203166002900480601f0160208091040260200160405190810160405280929190818152602001828054600181600116156101000203166002900480156117815780601f1061175657610100808354040283529160200191611781565b820191906000526020600020905b81548152906001019060200180831161176457829003601f168201915b505050505083838060010194508151811061179857fe5b60200260200101819052505b808060010191505061163e565b50806040519080825280602002602001820160405280156117e657816020015b60608152602001906001900390816117d15790505b50925060008090505b8181101561182f5782818151811061180357fe5b602002602001015184828151811061181757fe5b602002602001018190525080806001019150506117ef565b505050919050565b8473ffffffffffffffffffffffffffffffffffffffff163373ffffffffffffffffffffffffffffffffffffffff16148061187757506118768533611560565b5b6118b6576040517f08c379a00000000000000000000000000000000000000000000000000000000081526004016118ad90613f38565b60405180910390fd5b600073ffffffffffffffffffffffffffffffffffffffff168473ffffffffffffffffffffffffffffffffffffffff161415611926576040517f08c379a000000000000000000000000000000000000000000000000000000000815260040161191d90613f18565b60405180910390fd5b61193285858585612552565b611940858585855a86612740565b5050505050565b6060600082141561198f576040518060400160405280600181526020017f30000000000000000000000000000000000000000000000000000000000000008152509050611a75565b6000829050600083905060005b600083146119be578080600101915050600a83816119b657fe5b04925061199c565b6060816040519080825280601f01601f1916602001820160405280156119f35781602001600182028038833980820191505090505b50905060006001830390505b60008414611a6c57600a8481611a1157fe5b0660300160f81b82828060019003935081518110611a2b57fe5b60200101907effffffffffffffffffffffffffffffffffffffffffffffffffffffffffffff1916908160001a905350600a8481611a6457fe5b0493506119ff565b81955050505050505b919050565b600073ffffffffffffffffffffffffffffffffffffffff168373ffffffffffffffffffffffffffffffffffffffff161415611aea576040517f08c379a0000000000000000000000000000000000000000000000000000000008152600401611ae190614098565b60405180910390fd5b600033905060016000808673ffffffffffffffffffffffffffffffffffffffff1673ffffffffffffffffffffffffffffffffffffffff168152602001908152602001600020600085815260200190815260200160002081905550611b546000858560015a87612740565b8373ffffffffffffffffffffffffffffffffffffffff16600073ffffffffffffffffffffffffffffffffffffffff168273ffffffffffffffffffffffffffffffffffffffff167fc3d58168c5ae7397731d063d5bbf3d657854427343f4c083240f7aacaa2d0f62866001604051611bcc92919061412d565b60405180910390a450505050565b8051825114611c1e576040517f08c379a0000000000000000000000000000000000000000000000000000000008152600401611c1590613f98565b60405180910390fd5b60008251905060008090505b81811015611e1b57611cba838281518110611c4157fe5b60200260200101516000808973ffffffffffffffffffffffffffffffffffffffff1673ffffffffffffffffffffffffffffffffffffffff1681526020019081526020016000206000878581518110611c9557fe5b602002602001015181526020019081526020016000205461288e90919063ffffffff16565b6000808873ffffffffffffffffffffffffffffffffffffffff1673ffffffffffffffffffffffffffffffffffffffff1681526020019081526020016000206000868481518110611d0657fe5b6020026020010151815260200190815260200160002081905550611da8838281518110611d2f57fe5b60200260200101516000808873ffffffffffffffffffffffffffffffffffffffff1673ffffffffffffffffffffffffffffffffffffffff1681526020019081526020016000206000878581518110611d8357fe5b60200260200101518152602001908152602001600020546128e490919063ffffffff16565b6000808773ffffffffffffffffffffffffffffffffffffffff1673ffffffffffffffffffffffffffffffffffffffff1681526020019081526020016000206000868481518110611df457fe5b60200260200101518152602001908152602001600020819055508080600101915050611c2a565b508373ffffffffffffffffffffffffffffffffffffffff168573ffffffffffffffffffffffffffffffffffffffff163373ffffffffffffffffffffffffffffffffffffffff167f4a39dc06d4c0dbc64b70af90fd698a233a518aa5d07e595d983b8c0526c8f7fb8686604051611e92929190613e82565b60405180910390a45050505050565b611ec08573ffffffffffffffffffffffffffffffffffffffff16612939565b15611fe75760008573ffffffffffffffffffffffffffffffffffffffff1663bc197c8184338a8989886040518763ffffffff1660e01b8152600401611f09959493929190613d7c565b602060405180830381600088803b158015611f2357600080fd5b5087f1158015611f37573d6000803e3d6000fd5b50505050506040513d601f19601f82011682018060405250611f5c919081019061334f565b905063bc197c8160e01b7bffffffffffffffffffffffffffffffffffffffffffffffffffffffff1916817bffffffffffffffffffffffffffffffffffffffffffffffffffffffff191614611fe5576040517f08c379a0000000000000000000000000000000000000000000000000000000008152600401611fdc90614038565b60405180910390fd5b505b505050505050565b600073ffffffffffffffffffffffffffffffffffffffff168273ffffffffffffffffffffffffffffffffffffffff16141561205f576040517f08c379a000000000000000000000000000000000000000000000000000000000815260040161205690613fb8565b60405180910390fd5b60006003826040516120719190613d04565b908152602001604051809103902060000154905060008060008573ffffffffffffffffffffffffffffffffffffffff1673ffffffffffffffffffffffffffffffffffffffff1681526020019081526020016000206000838152602001908152602001600020549050600033905060008060008773ffffffffffffffffffffffffffffffffffffffff1673ffffffffffffffffffffffffffffffffffffffff16815260200190815260200160002060008581526020019081526020016000208190555060006003856040516121459190613d04565b908152602001604051809103902060010160009054906101000a900473ffffffffffffffffffffffffffffffffffffffff1690508073ffffffffffffffffffffffffffffffffffffffff16638bbd36016040518163ffffffff1660e01b8152600401600060405180830381600087803b1580156121c157600080fd5b505af11580156121d5573d6000803e3d6000fd5b505050506040518060a00160405280858152602001600073ffffffffffffffffffffffffffffffffffffffff168152602001600073ffffffffffffffffffffffffffffffffffffffff168152602001600073ffffffffffffffffffffffffffffffffffffffff168152602001604051806020016040528060008152508152506003866040516122649190613d04565b90815260200160405180910390206000820151816000015560208201518160010160006101000a81548173ffffffffffffffffffffffffffffffffffffffff021916908373ffffffffffffffffffffffffffffffffffffffff16021790555060408201518160020160006101000a81548173ffffffffffffffffffffffffffffffffffffffff021916908373ffffffffffffffffffffffffffffffffffffffff16021790555060608201518160030160006101000a81548173ffffffffffffffffffffffffffffffffffffffff021916908373ffffffffffffffffffffffffffffffffffffffff160217905550608082015181600401908051906020019061236d9291906129fe565b50905050600073ffffffffffffffffffffffffffffffffffffffff168673ffffffffffffffffffffffffffffffffffffffff168373ffffffffffffffffffffffffffffffffffffffff167fc3d58168c5ae7397731d063d5bbf3d657854427343f4c083240f7aacaa2d0f6287876040516123e8929190614156565b60405180910390a4505050505050565b6060815160405190808252806020026020018201604052801561242a5781602001602082028038833980820191505090505b50905060008090505b825181101561249657600383828151811061244a57fe5b602002602001015160405161245f9190613ced565b90815260200160405180910390206000015482828151811061247d57fe5b6020026020010181815250508080600101915050612433565b50919050565b60006003836040516124ae9190613d04565b908152602001604051809103902060010160009054906101000a900473ffffffffffffffffffffffffffffffffffffffff1690508073ffffffffffffffffffffffffffffffffffffffff166373125fc4836040518263ffffffff1660e01b815260040161251b9190613d61565b600060405180830381600087803b15801561253557600080fd5b505af1158015612549573d6000803e3d6000fd5b50505050505050565b6125b4816000808773ffffffffffffffffffffffffffffffffffffffff1673ffffffffffffffffffffffffffffffffffffffff16815260200190815260200160002060008581526020019081526020016000205461288e90919063ffffffff16565b6000808673ffffffffffffffffffffffffffffffffffffffff1673ffffffffffffffffffffffffffffffffffffffff168152602001908152602001600020600084815260200190815260200160002081905550612669816000808673ffffffffffffffffffffffffffffffffffffffff1673ffffffffffffffffffffffffffffffffffffffff1681526020019081526020016000206000858152602001908152602001600020546128e490919063ffffffff16565b6000808573ffffffffffffffffffffffffffffffffffffffff1673ffffffffffffffffffffffffffffffffffffffff1681526020019081526020016000206000848152602001908152602001600020819055508273ffffffffffffffffffffffffffffffffffffffff168473ffffffffffffffffffffffffffffffffffffffff163373ffffffffffffffffffffffffffffffffffffffff167fc3d58168c5ae7397731d063d5bbf3d657854427343f4c083240f7aacaa2d0f628585604051612732929190614156565b60405180910390a450505050565b61275f8573ffffffffffffffffffffffffffffffffffffffff16612939565b156128865760008573ffffffffffffffffffffffffffffffffffffffff1663f23a6e6184338a8989886040518763ffffffff1660e01b81526004016127a8959493929190613de4565b602060405180830381600088803b1580156127c257600080fd5b5087f11580156127d6573d6000803e3d6000fd5b50505050506040513d601f19601f820116820180604052506127fb919081019061334f565b905063f23a6e6160e01b7bffffffffffffffffffffffffffffffffffffffffffffffffffffffff1916817bffffffffffffffffffffffffffffffffffffffffffffffffffffffff191614612884576040517f08c379a000000000000000000000000000000000000000000000000000000000815260040161287b90614058565b60405180910390fd5b505b505050505050565b6000828211156128d3576040517f08c379a00000000000000000000000000000000000000000000000000000000081526004016128ca90613f78565b60405180910390fd5b600082840390508091505092915050565b60008082840190508381101561292f576040517f08c379a000000000000000000000000000000000000000000000000000000000815260040161292690614078565b60405180910390fd5b8091505092915050565b600080823f90506000801b811415801561297657507fc5d2460186f7233c927e7db2dcc703c0e500b653ca82273b7bfad8045d85a47060001b8114155b915050919050565b828054600181600116156101000203166002900490600052602060002090601f016020900481019282601f106129bf57805160ff19168380011785556129ed565b828001600101855582156129ed579182015b828111156129ec5782518255916020019190600101906129d1565b5b5090506129fa9190612a7e565b5090565b828054600181600116156101000203166002900490600052602060002090601f016020900481019282601f10612a3f57805160ff1916838001178555612a6d565b82800160010185558215612a6d579182015b82811115612a6c578251825591602001919060010190612a51565b5b509050612a7a9190612a7e565b5090565b612aa091905b80821115612a9c576000816000905550600101612a84565b5090565b90565b600081359050612ab2816144af565b92915050565b600082601f830112612ac957600080fd5b8135612adc612ad7826141ac565b61417f565b91508181835260208401935060208101905083856020840282011115612b0157600080fd5b60005b83811015612b315781612b178882612aa3565b845260208401935060208301925050600181019050612b04565b5050505092915050565b600082601f830112612b4c57600080fd5b8135612b5f612b5a826141d4565b61417f565b9150818183526020840193506020810190508360005b83811015612ba55781358601612b8b8882612cc5565b845260208401935060208301925050600181019050612b75565b5050505092915050565b600082601f830112612bc057600080fd5b8135612bd3612bce826141fc565b61417f565b91508181835260208401935060208101905083856020840282011115612bf857600080fd5b60005b83811015612c285781612c0e8882612d6d565b845260208401935060208301925050600181019050612bfb565b5050505092915050565b600081359050612c41816144c6565b92915050565b600081359050612c56816144dd565b92915050565b600081519050612c6b816144dd565b92915050565b600082601f830112612c8257600080fd5b8135612c95612c9082614224565b61417f565b91508082526020830160208301858383011115612cb157600080fd5b612cbc83828461445c565b50505092915050565b600082601f830112612cd657600080fd5b8135612ce9612ce482614250565b61417f565b91508082526020830160208301858383011115612d0557600080fd5b612d1083828461445c565b50505092915050565b600082601f830112612d2a57600080fd5b8135612d3d612d388261427c565b61417f565b91508082526020830160208301858383011115612d5957600080fd5b612d6483828461445c565b50505092915050565b600081359050612d7c816144f4565b92915050565b600060208284031215612d9457600080fd5b6000612da284828501612aa3565b91505092915050565b60008060408385031215612dbe57600080fd5b6000612dcc85828601612aa3565b9250506020612ddd85828601612aa3565b9150509250929050565b600080600080600060a08688031215612dff57600080fd5b6000612e0d88828901612aa3565b9550506020612e1e88828901612aa3565b945050604086013567ffffffffffffffff811115612e3b57600080fd5b612e4788828901612b3b565b935050606086013567ffffffffffffffff811115612e6457600080fd5b612e7088828901612baf565b925050608086013567ffffffffffffffff811115612e8d57600080fd5b612e9988828901612c71565b9150509295509295909350565b600080600080600060a08688031215612ebe57600080fd5b6000612ecc88828901612aa3565b9550506020612edd88828901612aa3565b945050604086013567ffffffffffffffff811115612efa57600080fd5b612f0688828901612baf565b935050606086013567ffffffffffffffff811115612f2357600080fd5b612f2f88828901612baf565b925050608086013567ffffffffffffffff811115612f4c57600080fd5b612f5888828901612c71565b9150509295509295909350565b60008060008060808587031215612f7b57600080fd5b6000612f8987828801612aa3565b9450506020612f9a87828801612aa3565b935050604085013567ffffffffffffffff811115612fb757600080fd5b612fc387828801612d19565b925050606085013567ffffffffffffffff811115612fe057600080fd5b612fec87828801612c71565b91505092959194509250565b600080600080600060a0868803121561301057600080fd5b600061301e88828901612aa3565b955050602061302f88828901612aa3565b945050604086013567ffffffffffffffff81111561304c57600080fd5b61305888828901612d19565b935050606061306988828901612d6d565b925050608086013567ffffffffffffffff81111561308657600080fd5b61309288828901612c71565b9150509295509295909350565b600080600080600060a086880312156130b757600080fd5b60006130c588828901612aa3565b95505060206130d688828901612aa3565b94505060406130e788828901612d6d565b93505060606130f888828901612d6d565b925050608086013567ffffffffffffffff81111561311557600080fd5b61312188828901612c71565b9150509295509295909350565b6000806040838503121561314157600080fd5b600061314f85828601612aa3565b925050602083013567ffffffffffffffff81111561316c57600080fd5b61317885828601612b3b565b9150509250929050565b6000806040838503121561319557600080fd5b60006131a385828601612aa3565b92505060206131b485828601612c32565b9150509250929050565b600080604083850312156131d157600080fd5b60006131df85828601612aa3565b925050602083013567ffffffffffffffff8111156131fc57600080fd5b61320885828601612d19565b9150509250929050565b6000806040838503121561322557600080fd5b600061323385828601612aa3565b925050602061324485828601612d6d565b9150509250929050565b6000806040838503121561326157600080fd5b600083013567ffffffffffffffff81111561327b57600080fd5b61328785828601612ab8565b925050602083013567ffffffffffffffff8111156132a457600080fd5b6132b085828601612b3b565b9150509250929050565b600080604083850312156132cd57600080fd5b600083013567ffffffffffffffff8111156132e757600080fd5b6132f385828601612ab8565b925050602083013567ffffffffffffffff81111561331057600080fd5b61331c85828601612baf565b9150509250929050565b60006020828403121561333857600080fd5b600061334684828501612c47565b91505092915050565b60006020828403121561336157600080fd5b600061336f84828501612c5c565b91505092915050565b60006020828403121561338a57600080fd5b600082013567ffffffffffffffff8111156133a457600080fd5b6133b084828501612cc5565b91505092915050565b6000602082840312156133cb57600080fd5b600082013567ffffffffffffffff8111156133e557600080fd5b6133f184828501612d19565b91505092915050565b6000806040838503121561340d57600080fd5b600083013567ffffffffffffffff81111561342757600080fd5b61343385828601612d19565b925050602083013567ffffffffffffffff81111561345057600080fd5b61345c85828601612d19565b9150509250929050565b60006020828403121561347857600080fd5b600061348684828501612d6d565b91505092915050565b600061349b838361367c565b905092915050565b60006134af8383613ccf565b60208301905092915050565b6134c481614414565b82525050565b6134d3816143a0565b82525050565b6134e28161438e565b82525050565b60006134f3826142dd565b6134fd818561432e565b93508360208202850161350f856142a8565b8060005b8581101561354b578484038952815161352c858261348f565b945061353783614314565b925060208a01995050600181019050613513565b50829750879550505050505092915050565b6000613568826142e8565b613572818561433f565b935061357d836142b8565b8060005b838110156135ae57815161359588826134a3565b97506135a083614321565b925050600181019050613581565b5085935050505092915050565b6135c4816143b2565b82525050565b60006135d5826142f3565b6135df8185614350565b93506135ef81856020860161446b565b6135f88161449e565b840191505092915050565b61360c81614426565b82525050565b600061361d82614309565b6136278185614372565b935061363781856020860161446b565b6136408161449e565b840191505092915050565b600061365682614309565b6136608185614383565b935061367081856020860161446b565b80840191505092915050565b6000613687826142fe565b6136918185614361565b93506136a181856020860161446b565b6136aa8161449e565b840191505092915050565b60006136c0826142fe565b6136ca8185614372565b93506136da81856020860161446b565b6136e38161449e565b840191505092915050565b60006136f9826142fe565b6137038185614383565b935061371381856020860161446b565b80840191505092915050565b60008154600181166000811461373c5760018114613761576137a5565b607f600283041661374d8187614383565b955060ff19831686528086019350506137a5565b6002820461376f8187614383565b955061377a856142c8565b60005b8281101561379c5781548189015260018201915060208101905061377d565b82880195505050505b505092915050565b60006137ba602b83614372565b91507f4552433131353523736166655472616e7366657246726f6d3a20494e56414c4960008301527f445f524543495049454e540000000000000000000000000000000000000000006020830152604082019050919050565b6000613820602a83614372565b91507f4552433131353523736166655472616e7366657246726f6d3a20494e56414c4960008301527f445f4f50455241544f52000000000000000000000000000000000000000000006020830152604082019050919050565b6000613886602983614372565b91507f455243313135353a2063616c6c6572206973206e6f74206f776e6572206e6f7260008301527f20617070726f76656400000000000000000000000000000000000000000000006020830152604082019050919050565b60006138ec601783614372565b91507f536166654d617468237375623a20554e444552464c4f570000000000000000006000830152602082019050919050565b600061392c603583614372565b91507f45524331313535235f7361666542617463685472616e7366657246726f6d3a2060008301527f494e56414c49445f4152524159535f4c454e47544800000000000000000000006020830152604082019050919050565b6000613992602383614372565b91507f455243313135353a206275726e2066726f6d20746865207a65726f206164647260008301527f65737300000000000000000000000000000000000000000000000000000000006020830152604082019050919050565b60006139f8603083614372565b91507f45524331313535237361666542617463685472616e7366657246726f6d3a204960008301527f4e56414c49445f524543495049454e54000000000000000000000000000000006020830152604082019050919050565b6000613a5e600583614383565b91507f2e6a736f6e0000000000000000000000000000000000000000000000000000006000830152600582019050919050565b6000613a9e602c83614372565b91507f455243313135352362616c616e63654f6642617463683a20494e56414c49445f60008301527f41525241595f4c454e47544800000000000000000000000000000000000000006020830152604082019050919050565b6000613b04602f83614372565b91507f45524331313535237361666542617463685472616e7366657246726f6d3a204960008301527f4e56414c49445f4f50455241544f5200000000000000000000000000000000006020830152604082019050919050565b6000613b6a603f83614372565b91507f45524331313535235f63616c6c6f6e455243313135354261746368526563656960008301527f7665643a20494e56414c49445f4f4e5f524543454956455f4d455353414745006020830152604082019050919050565b6000613bd0603a83614372565b91507f45524331313535235f63616c6c6f6e4552433131353552656365697665643a2060008301527f494e56414c49445f4f4e5f524543454956455f4d4553534147450000000000006020830152604082019050919050565b6000613c36601683614372565b91507f536166654d617468236164643a204f564552464c4f57000000000000000000006000830152602082019050919050565b6000613c76602183614372565b91507f455243313135353a206d696e7420746f20746865207a65726f2061646472657360008301527f73000000000000000000000000000000000000000000000000000000000000006020830152604082019050919050565b613cd88161440a565b82525050565b613ce78161440a565b82525050565b6000613cf982846136ee565b915081905092915050565b6000613d10828461364b565b915081905092915050565b6000613d27828461371f565b915081905092915050565b6000613d3e828561371f565b9150613d4a828461364b565b9150613d5582613a51565b91508190509392505050565b6000602082019050613d7660008301846134d9565b92915050565b600060a082019050613d9160008301886134bb565b613d9e60208301876134d9565b8181036040830152613db0818661355d565b90508181036060830152613dc4818561355d565b90508181036080830152613dd881846135ca565b90509695505050505050565b600060a082019050613df960008301886134bb565b613e0660208301876134d9565b613e136040830186613cde565b613e206060830185613cde565b8181036080830152613e3281846135ca565b90509695505050505050565b60006020820190508181036000830152613e5881846134e8565b905092915050565b60006020820190508181036000830152613e7a818461355d565b905092915050565b60006040820190508181036000830152613e9c818561355d565b90508181036020830152613eb0818461355d565b90509392505050565b6000602082019050613ece60008301846135bb565b92915050565b60006020820190508181036000830152613eee81846136b5565b905092915050565b60006020820190508181036000830152613f108184613612565b905092915050565b60006020820190508181036000830152613f31816137ad565b9050919050565b60006020820190508181036000830152613f5181613813565b9050919050565b60006020820190508181036000830152613f7181613879565b9050919050565b60006020820190508181036000830152613f91816138df565b9050919050565b60006020820190508181036000830152613fb18161391f565b9050919050565b60006020820190508181036000830152613fd181613985565b9050919050565b60006020820190508181036000830152613ff1816139eb565b9050919050565b6000602082019050818103600083015261401181613a91565b9050919050565b6000602082019050818103600083015261403181613af7565b9050919050565b6000602082019050818103600083015261405181613b5d565b9050919050565b6000602082019050818103600083015261407181613bc3565b9050919050565b6000602082019050818103600083015261409181613c29565b9050919050565b600060208201905081810360008301526140b181613c69565b9050919050565b60006020820190506140cd6000830184613cde565b92915050565b600060a0820190506140e86000830188613cde565b6140f560208301876134ca565b61410260408301866134d9565b61410f60608301856134d9565b818103608083015261412181846136b5565b90509695505050505050565b60006040820190506141426000830185613cde565b61414f6020830184613603565b9392505050565b600060408201905061416b6000830185613cde565b6141786020830184613cde565b9392505050565b6000604051905081810181811067ffffffffffffffff821117156141a257600080fd5b8060405250919050565b600067ffffffffffffffff8211156141c357600080fd5b602082029050602081019050919050565b600067ffffffffffffffff8211156141eb57600080fd5b602082029050602081019050919050565b600067ffffffffffffffff82111561421357600080fd5b602082029050602081019050919050565b600067ffffffffffffffff82111561423b57600080fd5b601f19601f8301169050602081019050919050565b600067ffffffffffffffff82111561426757600080fd5b601f19601f8301169050602081019050919050565b600067ffffffffffffffff82111561429357600080fd5b601f19601f8301169050602081019050919050565b6000819050602082019050919050565b6000819050602082019050919050565b60008190508160005260206000209050919050565b600081519050919050565b600081519050919050565b600081519050919050565b600081519050919050565b600081519050919050565b6000602082019050919050565b6000602082019050919050565b600082825260208201905092915050565b600082825260208201905092915050565b600082825260208201905092915050565b600082825260208201905092915050565b600082825260208201905092915050565b600081905092915050565b6000614399826143ea565b9050919050565b60006143ab826143ea565b9050919050565b60008115159050919050565b60007fffffffff0000000000000000000000000000000000000000000000000000000082169050919050565b600073ffffffffffffffffffffffffffffffffffffffff82169050919050565b6000819050919050565b600061441f82614438565b9050919050565b60006144318261440a565b9050919050565b60006144438261444a565b9050919050565b6000614455826143ea565b9050919050565b82818337600083830152505050565b60005b8381101561448957808201518184015260208101905061446e565b83811115614498576000848401525b50505050565b6000601f19601f8301169050919050565b6144b88161438e565b81146144c357600080fd5b50565b6144cf816143b2565b81146144da57600080fd5b50565b6144e6816143be565b81146144f157600080fd5b50565b6144fd8161440a565b811461450857600080fd5b5056fea365627a7a72315820a8d18d7ee79a2dc297997aa29e938752c5fd5399fcd8604f4710509061cbd0626c6578706572696d656e74616cf564736f6c63430005110040",
  "source": "pragma solidity ^0.5.0;\npragma experimental ABIEncoderV2;\n\nimport \"multi-token-standard/contracts/tokens/ERC1155/ERC1155.sol\";\nimport \"multi-token-standard/contracts/tokens/ERC1155/ERC1155Metadata.sol\";\nimport \"../proxyIdentity.sol\";\n\n/**\n * @dev Implementation of the multi-token standard with tokens being a proxy identity contracts\n * Todo    1. On mint check if token with given id already exists\n *         2. Only ProxyIdentity contract allowed to mint its token\n */\ncontract ERC1155Multiproxy is ERC1155, ERC1155Metadata {\n  struct Proxy {\n    uint256 id;\n    address payable itsAddress;\n    address owner;\n    address creator;\n    string metadataUri;\n  }\n\n  mapping(string => Proxy) public proxies;\n  string[] public serials;\n\n  modifier isOwnerOrApproved(address account) {\n    require(\n      account == msg.sender || isApprovedForAll(account, msg.sender),\n      \"ERC1155: caller is not owner nor approved\"\n    );\n    _;\n  }\n\n  /**\n   * @notice Invoked only by proxy when it is created\n   */\n  function mint(\n    address owner,\n    address creator,\n    string memory serial,\n    bytes memory data\n  ) public {\n    serials.push(serial);\n    proxies[serial] = Proxy(serials.length, msg.sender, owner, creator, \"\");\n    _mint(owner, proxies[serial].id, \"\");\n  }\n\n  function transfer(\n    address from,\n    address to,\n    string memory serial,\n    uint256 amount,\n    bytes memory data\n  ) public {\n    uint256 id = proxies[serial].id;\n    super.safeTransferFrom(from, to, id, amount, data);\n    if (amount == 1) {\n      proxies[serial].owner = to;\n      _onProxyOwnerChanged(serial, to);\n    }\n  }\n\n  function transferBatch(\n    address from,\n    address to,\n    string[] memory _serials,\n    uint256[] memory amounts,\n    bytes memory data\n  ) public {\n    uint256[] memory ids = _idsBySerials(_serials);\n    super.safeBatchTransferFrom(from, to, ids, amounts, data);\n    for (uint256 i = 0; i < _serials.length; i++) {\n      if (amounts[i] == 1) {\n        proxies[_serials[i]].owner = to;\n        _onProxyOwnerChanged(_serials[i], to);\n      }\n    }\n  }\n\n  function balance(address _owner, string memory _serial)\n    public\n    view\n    returns (uint256)\n  {\n    return super.balanceOf(_owner, proxies[_serial].id);\n  }\n\n  function balanceBatch(address[] memory _owners, string[] memory _serials)\n    public\n    view\n    returns (uint256[] memory)\n  {\n    return super.balanceOfBatch(_owners, _idsBySerials(_serials));\n  }\n\n  function burn(address account, string memory serial)\n    public\n    isOwnerOrApproved(account)\n  {\n    _burn(account, serial);\n  }\n\n  function burnBatch(address account, string[] memory _serials)\n    public\n    isOwnerOrApproved(account)\n  {\n    for (uint256 i = 0; i < serials.length; i++) {\n      _burn(account, _serials[i]);\n    }\n  }\n\n  function updateUri(string memory serial, string memory uri)\n    public\n    isOwnerOrApproved(proxies[serial].owner)\n  {\n    proxies[serial].metadataUri = uri;\n  }\n\n  function uri(string memory serial) public view returns (string memory) {\n    return proxies[serial].metadataUri;\n  }\n\n  function tokensOwnedBy(address owner)\n    public\n    view\n    returns (string[] memory result)\n  {\n    string[] memory owned = new string[](serials.length);\n    uint256 count = 0;\n    for (uint256 i = 0; i < serials.length; i++) {\n      if (proxies[serials[i]].owner == owner) {\n        owned[count++] = serials[i];\n      }\n    }\n    result = new string[](count);\n    for (uint256 i = 0; i < count; i++) {\n      result[i] = owned[i];\n    }\n  }\n\n  function tokensCreatedBy(address creator)\n    public\n    view\n    returns (string[] memory result)\n  {\n    string[] memory created = new string[](serials.length);\n    uint256 count = 0;\n    for (uint256 i = 0; i < serials.length; i++) {\n      if (proxies[serials[i]].creator == creator) {\n        created[count++] = serials[i];\n      }\n    }\n    result = new string[](count);\n    for (uint256 i = 0; i < count; i++) {\n      result[i] = created[i];\n    }\n  }\n\n  function allTokens() public view returns (string[] memory) {\n    return serials;\n  }\n\n  function _burn(address account, string memory serial) internal {\n    require(account != address(0), \"ERC1155: burn from the zero address\");\n\n    uint256 id = proxies[serial].id;\n    uint256 amount = balances[account][id];\n\n    address operator = msg.sender;\n\n    balances[account][id] = 0;\n\n    ProxyIdentity proxy = ProxyIdentity(proxies[serial].itsAddress);\n    proxy.onBurn();\n    proxies[serial] = Proxy(id, address(0), address(0), address(0), \"\");\n\n    emit TransferSingle(operator, account, address(0), id, amount);\n  }\n\n  function _mint(\n    address account,\n    uint256 id,\n    bytes memory data\n  ) internal {\n    require(account != address(0), \"ERC1155: mint to the zero address\");\n\n    address operator = msg.sender;\n\n    balances[account][id] = 1;\n\n    _callonERC1155Received(address(0), account, id, 1, gasleft(), data);\n\n    emit TransferSingle(operator, address(0), account, id, 1);\n  }\n\n  function _onProxyOwnerChanged(string memory serial, address owner) internal {\n    ProxyIdentity proxy = ProxyIdentity(proxies[serial].itsAddress);\n    proxy.onOwnerChanged(owner);\n  }\n\n  function _idsBySerials(string[] memory _serials)\n    internal\n    view\n    returns (uint256[] memory ids)\n  {\n    ids = new uint256[](_serials.length);\n    for (uint256 i = 0; i < _serials.length; i++) {\n      ids[i] = proxies[_serials[i]].id;\n    }\n  }\n}\n",
  "sourcePath": "/home/dima/Development/ew-did-registry/packages/proxyIdentity/contracts/tokens/ERC1155Multiproxy.sol",
  "compiler": {
    "name": "solc",
    "version": "0.5.17+commit.d19bba13.Emscripten.clang"
  },
  "schemaVersion": "3.0.16",
  "updatedAt": "2020-11-17T15:21:03.804Z",
  "devdoc": {
    "details": "Implementation of the multi-token standard with tokens being a proxy identity contracts Todo    1. On mint check if token with given id already exists        2. Only ProxyIdentity contract allowed to mint its token",
    "methods": {
      "balanceOf(address,uint256)": {
        "params": {
          "_id": "ID of the Token",
          "_owner": "The address of the token holder"
        },
        "return": "The _owner's balance of the Token type requested"
      },
      "balanceOfBatch(address[],uint256[])": {
        "params": {
          "_ids": "ID of the Tokens",
          "_owners": "The addresses of the token holders"
        },
        "return": "The _owner's balance of the Token types requested (i.e. balance for each (owner, id) pair)"
      },
      "isApprovedForAll(address,address)": {
        "params": {
          "_operator": "Address of authorized operator",
          "_owner": "The owner of the Tokens"
        },
        "return": "True if the operator is approved, false if not"
      },
      "safeBatchTransferFrom(address,address,uint256[],uint256[],bytes)": {
        "params": {
          "_amounts": "Transfer amounts per token type",
          "_data": "Additional data with no specified format, sent in call to `_to`",
          "_from": "Source addresses",
          "_ids": "IDs of each token type",
          "_to": "Target addresses"
        }
      },
      "safeTransferFrom(address,address,uint256,uint256,bytes)": {
        "params": {
          "_amount": "Transfered amount",
          "_data": "Additional data with no specified format, sent in call to `_to`",
          "_from": "Source address",
          "_id": "ID of the token type",
          "_to": "Target address"
        }
      },
      "setApprovalForAll(address,bool)": {
        "params": {
          "_approved": "True if the operator is approved, false to revoke approval",
          "_operator": "Address to add to the set of authorized operators"
        }
      },
      "supportsInterface(bytes4)": {
        "params": {
          "_interfaceID": "The interface identifier, as specified in ERC-165"
        },
        "return": "`true` if the contract implements `_interfaceID` and"
      },
      "uri(uint256)": {
        "details": "URIs are defined in RFC 3986.     URIs are assumed to be deterministically generated based on token ID     Token IDs are assumed to be represented in their hex format in URIs",
        "return": "URI string"
      }
    }
  },
  "userdoc": {
    "methods": {
      "balanceOf(address,uint256)": {
        "notice": "Get the balance of an account's Tokens"
      },
      "balanceOfBatch(address[],uint256[])": {
        "notice": "Get the balance of multiple account/token pairs"
      },
      "isApprovedForAll(address,address)": {
        "notice": "Queries the approval status of an operator for a given owner"
      },
      "mint(address,address,string,bytes)": {
        "notice": "Invoked only by proxy when it is created"
      },
      "safeBatchTransferFrom(address,address,uint256[],uint256[],bytes)": {
        "notice": "Send multiple types of Tokens from the _from address to the _to address (with safety call)"
      },
      "safeTransferFrom(address,address,uint256,uint256,bytes)": {
        "notice": "Transfers amount amount of an _id from the _from address to the _to address specified"
      },
      "setApprovalForAll(address,bool)": {
        "notice": "Enable or disable approval for a third party (\"operator\") to manage all of caller's tokens"
      },
      "supportsInterface(bytes4)": {
        "notice": "Query if a contract implements an interface"
      },
      "uri(uint256)": {
        "notice": "A distinct Uniform Resource Identifier (URI) for a given token."
      }
    }
  }
}