{
  "contractName": "ERC1155MintBurn",
  "abi": [
    {
      "anonymous": false,
      "inputs": [
        {
          "indexed": true,
          "internalType": "address",
          "name": "_owner",
          "type": "address"
        },
        {
          "indexed": true,
          "internalType": "address",
          "name": "_operator",
          "type": "address"
        },
        {
          "indexed": false,
          "internalType": "bool",
          "name": "_approved",
          "type": "bool"
        }
      ],
      "name": "ApprovalForAll",
      "type": "event"
    },
    {
      "anonymous": false,
      "inputs": [
        {
          "indexed": true,
          "internalType": "address",
          "name": "_operator",
          "type": "address"
        },
        {
          "indexed": true,
          "internalType": "address",
          "name": "_from",
          "type": "address"
        },
        {
          "indexed": true,
          "internalType": "address",
          "name": "_to",
          "type": "address"
        },
        {
          "indexed": false,
          "internalType": "uint256[]",
          "name": "_ids",
          "type": "uint256[]"
        },
        {
          "indexed": false,
          "internalType": "uint256[]",
          "name": "_amounts",
          "type": "uint256[]"
        }
      ],
      "name": "TransferBatch",
      "type": "event"
    },
    {
      "anonymous": false,
      "inputs": [
        {
          "indexed": true,
          "internalType": "address",
          "name": "_operator",
          "type": "address"
        },
        {
          "indexed": true,
          "internalType": "address",
          "name": "_from",
          "type": "address"
        },
        {
          "indexed": true,
          "internalType": "address",
          "name": "_to",
          "type": "address"
        },
        {
          "indexed": false,
          "internalType": "uint256",
          "name": "_id",
          "type": "uint256"
        },
        {
          "indexed": false,
          "internalType": "uint256",
          "name": "_amount",
          "type": "uint256"
        }
      ],
      "name": "TransferSingle",
      "type": "event"
    },
    {
      "anonymous": false,
      "inputs": [
        {
          "indexed": false,
          "internalType": "string",
          "name": "_amount",
          "type": "string"
        },
        {
          "indexed": true,
          "internalType": "uint256",
          "name": "_id",
          "type": "uint256"
        }
      ],
      "name": "URI",
      "type": "event"
    },
    {
      "constant": true,
      "inputs": [
        {
          "internalType": "address",
          "name": "_owner",
          "type": "address"
        },
        {
          "internalType": "uint256",
          "name": "_id",
          "type": "uint256"
        }
      ],
      "name": "balanceOf",
      "outputs": [
        {
          "internalType": "uint256",
          "name": "",
          "type": "uint256"
        }
      ],
      "payable": false,
      "stateMutability": "view",
      "type": "function"
    },
    {
      "constant": true,
      "inputs": [
        {
          "internalType": "address[]",
          "name": "_owners",
          "type": "address[]"
        },
        {
          "internalType": "uint256[]",
          "name": "_ids",
          "type": "uint256[]"
        }
      ],
      "name": "balanceOfBatch",
      "outputs": [
        {
          "internalType": "uint256[]",
          "name": "",
          "type": "uint256[]"
        }
      ],
      "payable": false,
      "stateMutability": "view",
      "type": "function"
    },
    {
      "constant": true,
      "inputs": [
        {
          "internalType": "address",
          "name": "_owner",
          "type": "address"
        },
        {
          "internalType": "address",
          "name": "_operator",
          "type": "address"
        }
      ],
      "name": "isApprovedForAll",
      "outputs": [
        {
          "internalType": "bool",
          "name": "isOperator",
          "type": "bool"
        }
      ],
      "payable": false,
      "stateMutability": "view",
      "type": "function"
    },
    {
      "constant": false,
      "inputs": [
        {
          "internalType": "address",
          "name": "_from",
          "type": "address"
        },
        {
          "internalType": "address",
          "name": "_to",
          "type": "address"
        },
        {
          "internalType": "uint256[]",
          "name": "_ids",
          "type": "uint256[]"
        },
        {
          "internalType": "uint256[]",
          "name": "_amounts",
          "type": "uint256[]"
        },
        {
          "internalType": "bytes",
          "name": "_data",
          "type": "bytes"
        }
      ],
      "name": "safeBatchTransferFrom",
      "outputs": [],
      "payable": false,
      "stateMutability": "nonpayable",
      "type": "function"
    },
    {
      "constant": false,
      "inputs": [
        {
          "internalType": "address",
          "name": "_from",
          "type": "address"
        },
        {
          "internalType": "address",
          "name": "_to",
          "type": "address"
        },
        {
          "internalType": "uint256",
          "name": "_id",
          "type": "uint256"
        },
        {
          "internalType": "uint256",
          "name": "_amount",
          "type": "uint256"
        },
        {
          "internalType": "bytes",
          "name": "_data",
          "type": "bytes"
        }
      ],
      "name": "safeTransferFrom",
      "outputs": [],
      "payable": false,
      "stateMutability": "nonpayable",
      "type": "function"
    },
    {
      "constant": false,
      "inputs": [
        {
          "internalType": "address",
          "name": "_operator",
          "type": "address"
        },
        {
          "internalType": "bool",
          "name": "_approved",
          "type": "bool"
        }
      ],
      "name": "setApprovalForAll",
      "outputs": [],
      "payable": false,
      "stateMutability": "nonpayable",
      "type": "function"
    },
    {
      "constant": true,
      "inputs": [
        {
          "internalType": "bytes4",
          "name": "_interfaceID",
          "type": "bytes4"
        }
      ],
      "name": "supportsInterface",
      "outputs": [
        {
          "internalType": "bool",
          "name": "",
          "type": "bool"
        }
      ],
      "payable": false,
      "stateMutability": "view",
      "type": "function"
    },
    {
      "constant": false,
      "inputs": [
        {
          "internalType": "address",
          "name": "_to",
          "type": "address"
        },
        {
          "internalType": "uint256",
          "name": "_id",
          "type": "uint256"
        },
        {
          "internalType": "uint256",
          "name": "_amount",
          "type": "uint256"
        },
        {
          "internalType": "bytes",
          "name": "_data",
          "type": "bytes"
        }
      ],
      "name": "mint",
      "outputs": [],
      "payable": false,
      "stateMutability": "nonpayable",
      "type": "function"
    },
    {
      "constant": false,
      "inputs": [
        {
          "internalType": "address",
          "name": "_to",
          "type": "address"
        },
        {
          "internalType": "uint256[]",
          "name": "_ids",
          "type": "uint256[]"
        },
        {
          "internalType": "uint256[]",
          "name": "_amounts",
          "type": "uint256[]"
        },
        {
          "internalType": "bytes",
          "name": "_data",
          "type": "bytes"
        }
      ],
      "name": "batchMint",
      "outputs": [],
      "payable": false,
      "stateMutability": "nonpayable",
      "type": "function"
    },
    {
      "constant": false,
      "inputs": [
        {
          "internalType": "address",
          "name": "_from",
          "type": "address"
        },
        {
          "internalType": "uint256",
          "name": "_id",
          "type": "uint256"
        },
        {
          "internalType": "uint256",
          "name": "_amount",
          "type": "uint256"
        }
      ],
      "name": "burn",
      "outputs": [],
      "payable": false,
      "stateMutability": "nonpayable",
      "type": "function"
    },
    {
      "constant": false,
      "inputs": [
        {
          "internalType": "address",
          "name": "_from",
          "type": "address"
        },
        {
          "internalType": "uint256[]",
          "name": "_ids",
          "type": "uint256[]"
        },
        {
          "internalType": "uint256[]",
          "name": "_amounts",
          "type": "uint256[]"
        }
      ],
      "name": "batchBurn",
      "outputs": [],
      "payable": false,
      "stateMutability": "nonpayable",
      "type": "function"
    }
  ],
  "bytecode": "0x608060405234801561001057600080fd5b5061277e806100206000396000f3fe608060405234801561001057600080fd5b50600436106100a85760003560e01c8063a22cb46511610071578063a22cb46514610627578063b48ab8b614610677578063e985e9c51461087a578063f242432a146108f6578063f5298aca14610a05578063f6eb127a14610a5d576100a8565b8062fdd58e146100ad57806301ffc9a71461010f5780632eb2c2d6146101745780634e1273f414610397578063731133e914610538575b600080fd5b6100f9600480360360408110156100c357600080fd5b81019080803573ffffffffffffffffffffffffffffffffffffffff16906020019092919080359060200190929190505050610bc9565b6040518082815260200191505060405180910390f35b61015a6004803603602081101561012557600080fd5b8101908080357bffffffffffffffffffffffffffffffffffffffffffffffffffffffff19169060200190929190505050610c23565b604051808215151515815260200191505060405180910390f35b610395600480360360a081101561018a57600080fd5b81019080803573ffffffffffffffffffffffffffffffffffffffff169060200190929190803573ffffffffffffffffffffffffffffffffffffffff169060200190929190803590602001906401000000008111156101e757600080fd5b8201836020820111156101f957600080fd5b8035906020019184602083028401116401000000008311171561021b57600080fd5b919080806020026020016040519081016040528093929190818152602001838360200280828437600081840152601f19601f8201169050808301925050505050505091929192908035906020019064010000000081111561027b57600080fd5b82018360208201111561028d57600080fd5b803590602001918460208302840111640100000000831117156102af57600080fd5b919080806020026020016040519081016040528093929190818152602001838360200280828437600081840152601f19601f8201169050808301925050505050505091929192908035906020019064010000000081111561030f57600080fd5b82018360208201111561032157600080fd5b8035906020019184600183028401116401000000008311171561034357600080fd5b91908080601f016020809104026020016040519081016040528093929190818152602001838380828437600081840152601f19601f820116905080830192505050505050509192919290505050610cd4565b005b6104e1600480360360408110156103ad57600080fd5b81019080803590602001906401000000008111156103ca57600080fd5b8201836020820111156103dc57600080fd5b803590602001918460208302840111640100000000831117156103fe57600080fd5b919080806020026020016040519081016040528093929190818152602001838360200280828437600081840152601f19601f8201169050808301925050505050505091929192908035906020019064010000000081111561045e57600080fd5b82018360208201111561047057600080fd5b8035906020019184602083028401116401000000008311171561049257600080fd5b919080806020026020016040519081016040528093929190818152602001838360200280828437600081840152601f19601f820116905080830192505050505050509192919290505050610e10565b6040518080602001828103825283818151815260200191508051906020019060200280838360005b83811015610524578082015181840152602081019050610509565b505050509050019250505060405180910390f35b6106256004803603608081101561054e57600080fd5b81019080803573ffffffffffffffffffffffffffffffffffffffff16906020019092919080359060200190929190803590602001909291908035906020019064010000000081111561059f57600080fd5b8201836020820111156105b157600080fd5b803590602001918460018302840111640100000000831117156105d357600080fd5b91908080601f016020809104026020016040519081016040528093929190818152602001838380828437600081840152601f19601f820116905080830192505050505050509192919290505050610f56565b005b6106756004803603604081101561063d57600080fd5b81019080803573ffffffffffffffffffffffffffffffffffffffff1690602001909291908035151590602001909291905050506110a5565b005b6108786004803603608081101561068d57600080fd5b81019080803573ffffffffffffffffffffffffffffffffffffffff169060200190929190803590602001906401000000008111156106ca57600080fd5b8201836020820111156106dc57600080fd5b803590602001918460208302840111640100000000831117156106fe57600080fd5b919080806020026020016040519081016040528093929190818152602001838360200280828437600081840152601f19601f8201169050808301925050505050505091929192908035906020019064010000000081111561075e57600080fd5b82018360208201111561077057600080fd5b8035906020019184602083028401116401000000008311171561079257600080fd5b919080806020026020016040519081016040528093929190818152602001838360200280828437600081840152601f19601f820116905080830192505050505050509192919290803590602001906401000000008111156107f257600080fd5b82018360208201111561080457600080fd5b8035906020019184600183028401116401000000008311171561082657600080fd5b91908080601f016020809104026020016040519081016040528093929190818152602001838380828437600081840152601f19601f8201169050808301925050505050505091929192905050506111a6565b005b6108dc6004803603604081101561089057600080fd5b81019080803573ffffffffffffffffffffffffffffffffffffffff169060200190929190803573ffffffffffffffffffffffffffffffffffffffff16906020019092919050505061142d565b604051808215151515815260200191505060405180910390f35b610a03600480360360a081101561090c57600080fd5b81019080803573ffffffffffffffffffffffffffffffffffffffff169060200190929190803573ffffffffffffffffffffffffffffffffffffffff16906020019092919080359060200190929190803590602001909291908035906020019064010000000081111561097d57600080fd5b82018360208201111561098f57600080fd5b803590602001918460018302840111640100000000831117156109b157600080fd5b91908080601f016020809104026020016040519081016040528093929190818152602001838380828437600081840152601f19601f8201169050808301925050505050505091929192905050506114c1565b005b610a5b60048036036060811015610a1b57600080fd5b81019080803573ffffffffffffffffffffffffffffffffffffffff16906020019092919080359060200190929190803590602001909291905050506115fd565b005b610bc760048036036060811015610a7357600080fd5b81019080803573ffffffffffffffffffffffffffffffffffffffff16906020019092919080359060200190640100000000811115610ab057600080fd5b820183602082011115610ac257600080fd5b80359060200191846020830284011164010000000083111715610ae457600080fd5b919080806020026020016040519081016040528093929190818152602001838360200280828437600081840152601f19601f82011690508083019250505050505050919291929080359060200190640100000000811115610b4457600080fd5b820183602082011115610b5657600080fd5b80359060200191846020830284011164010000000083111715610b7857600080fd5b919080806020026020016040519081016040528093929190818152602001838360200280828437600081840152601f19601f82011690508083019250505050505050919291929050505061173c565b005b60008060008473ffffffffffffffffffffffffffffffffffffffff1673ffffffffffffffffffffffffffffffffffffffff168152602001908152602001600020600083815260200190815260200160002054905092915050565b60006301ffc9a760e01b7bffffffffffffffffffffffffffffffffffffffffffffffffffffffff1916827bffffffffffffffffffffffffffffffffffffffffffffffffffffffff19161480610cbc575063d9b67a2660e01b7bffffffffffffffffffffffffffffffffffffffffffffffffffffffff1916827bffffffffffffffffffffffffffffffffffffffffffffffffffffffff1916145b15610cca5760019050610ccf565b600090505b919050565b8473ffffffffffffffffffffffffffffffffffffffff163373ffffffffffffffffffffffffffffffffffffffff161480610d145750610d13853361142d565b5b610d69576040517f08c379a000000000000000000000000000000000000000000000000000000000815260040180806020018281038252602f815260200180612672602f913960400191505060405180910390fd5b600073ffffffffffffffffffffffffffffffffffffffff168473ffffffffffffffffffffffffffffffffffffffff161415610def576040517f08c379a00000000000000000000000000000000000000000000000000000000081526004018080602001828103825260308152602001806125e66030913960400191505060405180910390fd5b610dfb858585856119b2565b610e09858585855a86611d17565b5050505050565b60608151835114610e6c576040517f08c379a000000000000000000000000000000000000000000000000000000000815260040180806020018281038252602c815260200180612646602c913960400191505060405180910390fd5b60608351604051908082528060200260200182016040528015610e9e5781602001602082028038833980820191505090505b50905060008090505b8451811015610f4b57600080868381518110610ebf57fe5b602002602001015173ffffffffffffffffffffffffffffffffffffffff1673ffffffffffffffffffffffffffffffffffffffff1681526020019081526020016000206000858381518110610f0f57fe5b6020026020010151815260200190815260200160002054828281518110610f3257fe5b6020026020010181815250508080600101915050610ea7565b508091505092915050565b610fb8826000808773ffffffffffffffffffffffffffffffffffffffff1673ffffffffffffffffffffffffffffffffffffffff168152602001908152602001600020600086815260200190815260200160002054611fd590919063ffffffff16565b6000808673ffffffffffffffffffffffffffffffffffffffff1673ffffffffffffffffffffffffffffffffffffffff1681526020019081526020016000206000858152602001908152602001600020819055508373ffffffffffffffffffffffffffffffffffffffff16600073ffffffffffffffffffffffffffffffffffffffff163373ffffffffffffffffffffffffffffffffffffffff167fc3d58168c5ae7397731d063d5bbf3d657854427343f4c083240f7aacaa2d0f628686604051808381526020018281526020019250505060405180910390a461109f60008585855a8661205d565b50505050565b80600160003373ffffffffffffffffffffffffffffffffffffffff1673ffffffffffffffffffffffffffffffffffffffff16815260200190815260200160002060008473ffffffffffffffffffffffffffffffffffffffff1673ffffffffffffffffffffffffffffffffffffffff16815260200190815260200160002060006101000a81548160ff0219169083151502179055508173ffffffffffffffffffffffffffffffffffffffff163373ffffffffffffffffffffffffffffffffffffffff167f17307eab39ab6107e8899845ad3d59bd9653f200f220920489ca2b5937696c3183604051808215151515815260200191505060405180910390a35050565b8151835114611200576040517f08c379a00000000000000000000000000000000000000000000000000000000081526004018080602001828103825260308152602001806126a16030913960400191505060405180910390fd5b60008351905060008090505b8181101561130f5761129c84828151811061122357fe5b60200260200101516000808973ffffffffffffffffffffffffffffffffffffffff1673ffffffffffffffffffffffffffffffffffffffff168152602001908152602001600020600088858151811061127757fe5b6020026020010151815260200190815260200160002054611fd590919063ffffffff16565b6000808873ffffffffffffffffffffffffffffffffffffffff1673ffffffffffffffffffffffffffffffffffffffff16815260200190815260200160002060008784815181106112e857fe5b6020026020010151815260200190815260200160002081905550808060010191505061120c565b508473ffffffffffffffffffffffffffffffffffffffff16600073ffffffffffffffffffffffffffffffffffffffff163373ffffffffffffffffffffffffffffffffffffffff167f4a39dc06d4c0dbc64b70af90fd698a233a518aa5d07e595d983b8c0526c8f7fb8787604051808060200180602001838103835285818151815260200191508051906020019060200280838360005b838110156113c05780820151818401526020810190506113a5565b50505050905001838103825284818151815260200191508051906020019060200280838360005b838110156114025780820151818401526020810190506113e7565b5050505090500194505050505060405180910390a461142660008686865a87611d17565b5050505050565b6000600160008473ffffffffffffffffffffffffffffffffffffffff1673ffffffffffffffffffffffffffffffffffffffff16815260200190815260200160002060008373ffffffffffffffffffffffffffffffffffffffff1673ffffffffffffffffffffffffffffffffffffffff16815260200190815260200160002060009054906101000a900460ff16905092915050565b8473ffffffffffffffffffffffffffffffffffffffff163373ffffffffffffffffffffffffffffffffffffffff1614806115015750611500853361142d565b5b611556576040517f08c379a000000000000000000000000000000000000000000000000000000000815260040180806020018281038252602a815260200180612587602a913960400191505060405180910390fd5b600073ffffffffffffffffffffffffffffffffffffffff168473ffffffffffffffffffffffffffffffffffffffff1614156115dc576040517f08c379a000000000000000000000000000000000000000000000000000000000815260040180806020018281038252602b81526020018061255c602b913960400191505060405180910390fd5b6115e885858585612299565b6115f6858585855a8661205d565b5050505050565b61165f816000808673ffffffffffffffffffffffffffffffffffffffff1673ffffffffffffffffffffffffffffffffffffffff16815260200190815260200160002060008581526020019081526020016000205461248d90919063ffffffff16565b6000808573ffffffffffffffffffffffffffffffffffffffff1673ffffffffffffffffffffffffffffffffffffffff168152602001908152602001600020600084815260200190815260200160002081905550600073ffffffffffffffffffffffffffffffffffffffff168373ffffffffffffffffffffffffffffffffffffffff163373ffffffffffffffffffffffffffffffffffffffff167fc3d58168c5ae7397731d063d5bbf3d657854427343f4c083240f7aacaa2d0f628585604051808381526020018281526020019250505060405180910390a4505050565b6000825190508151811461179b576040517f08c379a00000000000000000000000000000000000000000000000000000000081526004018080602001828103825260308152602001806126166030913960400191505060405180910390fd5b60008090505b818110156118a4576118318382815181106117b857fe5b60200260200101516000808873ffffffffffffffffffffffffffffffffffffffff1673ffffffffffffffffffffffffffffffffffffffff168152602001908152602001600020600087858151811061180c57fe5b602002602001015181526020019081526020016000205461248d90919063ffffffff16565b6000808773ffffffffffffffffffffffffffffffffffffffff1673ffffffffffffffffffffffffffffffffffffffff168152602001908152602001600020600086848151811061187d57fe5b602002602001015181526020019081526020016000208190555080806001019150506117a1565b50600073ffffffffffffffffffffffffffffffffffffffff168473ffffffffffffffffffffffffffffffffffffffff163373ffffffffffffffffffffffffffffffffffffffff167f4a39dc06d4c0dbc64b70af90fd698a233a518aa5d07e595d983b8c0526c8f7fb8686604051808060200180602001838103835285818151815260200191508051906020019060200280838360005b8381101561195557808201518184015260208101905061193a565b50505050905001838103825284818151815260200191508051906020019060200280838360005b8381101561199757808201518184015260208101905061197c565b5050505090500194505050505060405180910390a450505050565b8051825114611a0c576040517f08c379a00000000000000000000000000000000000000000000000000000000081526004018080602001828103825260358152602001806125b16035913960400191505060405180910390fd5b60008251905060008090505b81811015611c0957611aa8838281518110611a2f57fe5b60200260200101516000808973ffffffffffffffffffffffffffffffffffffffff1673ffffffffffffffffffffffffffffffffffffffff1681526020019081526020016000206000878581518110611a8357fe5b602002602001015181526020019081526020016000205461248d90919063ffffffff16565b6000808873ffffffffffffffffffffffffffffffffffffffff1673ffffffffffffffffffffffffffffffffffffffff1681526020019081526020016000206000868481518110611af457fe5b6020026020010151815260200190815260200160002081905550611b96838281518110611b1d57fe5b60200260200101516000808873ffffffffffffffffffffffffffffffffffffffff1673ffffffffffffffffffffffffffffffffffffffff1681526020019081526020016000206000878581518110611b7157fe5b6020026020010151815260200190815260200160002054611fd590919063ffffffff16565b6000808773ffffffffffffffffffffffffffffffffffffffff1673ffffffffffffffffffffffffffffffffffffffff1681526020019081526020016000206000868481518110611be257fe5b60200260200101518152602001908152602001600020819055508080600101915050611a18565b508373ffffffffffffffffffffffffffffffffffffffff168573ffffffffffffffffffffffffffffffffffffffff163373ffffffffffffffffffffffffffffffffffffffff167f4a39dc06d4c0dbc64b70af90fd698a233a518aa5d07e595d983b8c0526c8f7fb8686604051808060200180602001838103835285818151815260200191508051906020019060200280838360005b83811015611cb9578082015181840152602081019050611c9e565b50505050905001838103825284818151815260200191508051906020019060200280838360005b83811015611cfb578082015181840152602081019050611ce0565b5050505090500194505050505060405180910390a45050505050565b611d368573ffffffffffffffffffffffffffffffffffffffff16612516565b15611fcd5760008573ffffffffffffffffffffffffffffffffffffffff1663bc197c8184338a8989886040518763ffffffff1660e01b8152600401808673ffffffffffffffffffffffffffffffffffffffff1673ffffffffffffffffffffffffffffffffffffffff1681526020018573ffffffffffffffffffffffffffffffffffffffff1673ffffffffffffffffffffffffffffffffffffffff168152602001806020018060200180602001848103845287818151815260200191508051906020019060200280838360005b83811015611e1d578082015181840152602081019050611e02565b50505050905001848103835286818151815260200191508051906020019060200280838360005b83811015611e5f578082015181840152602081019050611e44565b50505050905001848103825285818151815260200191508051906020019080838360005b83811015611e9e578082015181840152602081019050611e83565b50505050905090810190601f168015611ecb5780820380516001836020036101000a031916815260200191505b5098505050505050505050602060405180830381600088803b158015611ef057600080fd5b5087f1158015611f04573d6000803e3d6000fd5b50505050506040513d6020811015611f1b57600080fd5b8101908080519060200190929190505050905063bc197c8160e01b7bffffffffffffffffffffffffffffffffffffffffffffffffffffffff1916817bffffffffffffffffffffffffffffffffffffffffffffffffffffffff191614611fcb576040517f08c379a000000000000000000000000000000000000000000000000000000000815260040180806020018281038252603f8152602001806126d1603f913960400191505060405180910390fd5b505b505050505050565b600080828401905083811015612053576040517f08c379a00000000000000000000000000000000000000000000000000000000081526004018080602001828103825260168152602001807f536166654d617468236164643a204f564552464c4f570000000000000000000081525060200191505060405180910390fd5b8091505092915050565b61207c8573ffffffffffffffffffffffffffffffffffffffff16612516565b156122915760008573ffffffffffffffffffffffffffffffffffffffff1663f23a6e6184338a8989886040518763ffffffff1660e01b8152600401808673ffffffffffffffffffffffffffffffffffffffff1673ffffffffffffffffffffffffffffffffffffffff1681526020018573ffffffffffffffffffffffffffffffffffffffff1673ffffffffffffffffffffffffffffffffffffffff16815260200184815260200183815260200180602001828103825283818151815260200191508051906020019080838360005b83811015612164578082015181840152602081019050612149565b50505050905090810190601f1680156121915780820380516001836020036101000a031916815260200191505b509650505050505050602060405180830381600088803b1580156121b457600080fd5b5087f11580156121c8573d6000803e3d6000fd5b50505050506040513d60208110156121df57600080fd5b8101908080519060200190929190505050905063f23a6e6160e01b7bffffffffffffffffffffffffffffffffffffffffffffffffffffffff1916817bffffffffffffffffffffffffffffffffffffffffffffffffffffffff19161461228f576040517f08c379a000000000000000000000000000000000000000000000000000000000815260040180806020018281038252603a815260200180612710603a913960400191505060405180910390fd5b505b505050505050565b6122fb816000808773ffffffffffffffffffffffffffffffffffffffff1673ffffffffffffffffffffffffffffffffffffffff16815260200190815260200160002060008581526020019081526020016000205461248d90919063ffffffff16565b6000808673ffffffffffffffffffffffffffffffffffffffff1673ffffffffffffffffffffffffffffffffffffffff1681526020019081526020016000206000848152602001908152602001600020819055506123b0816000808673ffffffffffffffffffffffffffffffffffffffff1673ffffffffffffffffffffffffffffffffffffffff168152602001908152602001600020600085815260200190815260200160002054611fd590919063ffffffff16565b6000808573ffffffffffffffffffffffffffffffffffffffff1673ffffffffffffffffffffffffffffffffffffffff1681526020019081526020016000206000848152602001908152602001600020819055508273ffffffffffffffffffffffffffffffffffffffff168473ffffffffffffffffffffffffffffffffffffffff163373ffffffffffffffffffffffffffffffffffffffff167fc3d58168c5ae7397731d063d5bbf3d657854427343f4c083240f7aacaa2d0f628585604051808381526020018281526020019250505060405180910390a450505050565b600082821115612505576040517f08c379a00000000000000000000000000000000000000000000000000000000081526004018080602001828103825260178152602001807f536166654d617468237375623a20554e444552464c4f5700000000000000000081525060200191505060405180910390fd5b600082840390508091505092915050565b600080823f90506000801b811415801561255357507fc5d2460186f7233c927e7db2dcc703c0e500b653ca82273b7bfad8045d85a47060001b8114155b91505091905056fe4552433131353523736166655472616e7366657246726f6d3a20494e56414c49445f524543495049454e544552433131353523736166655472616e7366657246726f6d3a20494e56414c49445f4f50455241544f5245524331313535235f7361666542617463685472616e7366657246726f6d3a20494e56414c49445f4152524159535f4c454e47544845524331313535237361666542617463685472616e7366657246726f6d3a20494e56414c49445f524543495049454e54455243313135354d696e744275726e2362617463684275726e3a20494e56414c49445f4152524159535f4c454e475448455243313135352362616c616e63654f6642617463683a20494e56414c49445f41525241595f4c454e47544845524331313535237361666542617463685472616e7366657246726f6d3a20494e56414c49445f4f50455241544f52455243313135354d696e744275726e2362617463684d696e743a20494e56414c49445f4152524159535f4c454e47544845524331313535235f63616c6c6f6e45524331313535426174636852656365697665643a20494e56414c49445f4f4e5f524543454956455f4d45535341474545524331313535235f63616c6c6f6e4552433131353552656365697665643a20494e56414c49445f4f4e5f524543454956455f4d455353414745a265627a7a72315820c5e908e485c3a1de05780e8928071fe3b1caf5b0f6113e79da032e5eb891e83564736f6c63430005110032",
  "source": "pragma solidity ^0.5.0;\n\nimport \"multi-token-standard/contracts/tokens/ERC1155/ERC1155.sol\";\n\n\ncontract ERC1155MintBurn is ERC1155 {\n  function mint(\n    address _to,\n    uint256 _id,\n    uint256 _amount,\n    bytes memory _data\n  ) public {\n    balances[_to][_id] = balances[_to][_id].add(_amount);\n    emit TransferSingle(msg.sender, address(0x0), _to, _id, _amount);\n    _callonERC1155Received(address(0x0), _to, _id, _amount, gasleft(), _data);\n  }\n\n  function batchMint(\n    address _to,\n    uint256[] memory _ids,\n    uint256[] memory _amounts,\n    bytes memory _data\n  ) public {\n    require(\n      _ids.length == _amounts.length,\n      \"ERC1155MintBurn#batchMint: INVALID_ARRAYS_LENGTH\"\n    );\n    uint256 nMint = _ids.length;\n    for (uint256 i = 0; i < nMint; i++) {\n      balances[_to][_ids[i]] = balances[_to][_ids[i]].add(_amounts[i]);\n    }\n    emit TransferBatch(msg.sender, address(0x0), _to, _ids, _amounts);\n    _callonERC1155BatchReceived(\n      address(0x0),\n      _to,\n      _ids,\n      _amounts,\n      gasleft(),\n      _data\n    );\n  }\n\n  function burn(\n    address _from,\n    uint256 _id,\n    uint256 _amount\n  ) public {\n    balances[_from][_id] = balances[_from][_id].sub(_amount);\n\n    emit TransferSingle(msg.sender, _from, address(0x0), _id, _amount);\n  }\n\n  function batchBurn(\n    address _from,\n    uint256[] memory _ids,\n    uint256[] memory _amounts\n  ) public {\n    uint256 nBurn = _ids.length;\n    require(\n      nBurn == _amounts.length,\n      \"ERC1155MintBurn#batchBurn: INVALID_ARRAYS_LENGTH\"\n    );\n    for (uint256 i = 0; i < nBurn; i++) {\n      balances[_from][_ids[i]] = balances[_from][_ids[i]].sub(_amounts[i]);\n    }\n    emit TransferBatch(msg.sender, _from, address(0x0), _ids, _amounts);\n  }\n}\n",
  "sourcePath": "/home/dima/Development/ew-did-registry/packages/proxyIdentity/contracts/ERC1155Mintable.sol",
  "compiler": {
    "name": "solc",
    "version": "0.5.17+commit.d19bba13.Emscripten.clang"
  },
  "schemaVersion": "3.0.16",
  "updatedAt": "2020-04-21T14:49:54.019Z",
  "devdoc": {
    "methods": {
      "balanceOf(address,uint256)": {
        "params": {
          "_id": "ID of the Token",
          "_owner": "The address of the token holder"
        },
        "return": "The _owner's balance of the Token type requested"
      },
      "balanceOfBatch(address[],uint256[])": {
        "params": {
          "_ids": "ID of the Tokens",
          "_owners": "The addresses of the token holders"
        },
        "return": "The _owner's balance of the Token types requested (i.e. balance for each (owner, id) pair)"
      },
      "isApprovedForAll(address,address)": {
        "params": {
          "_operator": "Address of authorized operator",
          "_owner": "The owner of the Tokens"
        },
        "return": "True if the operator is approved, false if not"
      },
      "safeBatchTransferFrom(address,address,uint256[],uint256[],bytes)": {
        "params": {
          "_amounts": "Transfer amounts per token type",
          "_data": "Additional data with no specified format, sent in call to `_to`",
          "_from": "Source addresses",
          "_ids": "IDs of each token type",
          "_to": "Target addresses"
        }
      },
      "safeTransferFrom(address,address,uint256,uint256,bytes)": {
        "params": {
          "_amount": "Transfered amount",
          "_data": "Additional data with no specified format, sent in call to `_to`",
          "_from": "Source address",
          "_id": "ID of the token type",
          "_to": "Target address"
        }
      },
      "setApprovalForAll(address,bool)": {
        "params": {
          "_approved": "True if the operator is approved, false to revoke approval",
          "_operator": "Address to add to the set of authorized operators"
        }
      },
      "supportsInterface(bytes4)": {
        "params": {
          "_interfaceID": "The interface identifier, as specified in ERC-165"
        },
        "return": "`true` if the contract implements `_interfaceID` and"
      }
    }
  },
  "userdoc": {
    "methods": {
      "balanceOf(address,uint256)": {
        "notice": "Get the balance of an account's Tokens"
      },
      "balanceOfBatch(address[],uint256[])": {
        "notice": "Get the balance of multiple account/token pairs"
      },
      "isApprovedForAll(address,address)": {
        "notice": "Queries the approval status of an operator for a given owner"
      },
      "safeBatchTransferFrom(address,address,uint256[],uint256[],bytes)": {
        "notice": "Send multiple types of Tokens from the _from address to the _to address (with safety call)"
      },
      "safeTransferFrom(address,address,uint256,uint256,bytes)": {
        "notice": "Transfers amount amount of an _id from the _from address to the _to address specified"
      },
      "setApprovalForAll(address,bool)": {
        "notice": "Enable or disable approval for a third party (\"operator\") to manage all of caller's tokens"
      },
      "supportsInterface(bytes4)": {
        "notice": "Query if a contract implements an interface"
      }
    }
  }
}