{
  "contractName": "IdentityManager",
  "abi": [
    {
      "anonymous": false,
      "inputs": [
        {
          "indexed": true,
          "internalType": "address",
          "name": "identity",
          "type": "address"
        },
        {
          "indexed": true,
          "internalType": "address",
          "name": "owner",
          "type": "address"
        },
        {
          "indexed": true,
          "internalType": "uint256",
          "name": "at",
          "type": "uint256"
        }
      ],
      "name": "IdentityCreated",
      "type": "event"
    },
    {
      "anonymous": false,
      "inputs": [
        {
          "indexed": true,
          "internalType": "address",
          "name": "identity",
          "type": "address"
        },
        {
          "indexed": true,
          "internalType": "address",
          "name": "owner",
          "type": "address"
        },
        {
          "indexed": false,
          "internalType": "address",
          "name": "oferedto",
          "type": "address"
        },
        {
          "indexed": true,
          "internalType": "uint256",
          "name": "at",
          "type": "uint256"
        }
      ],
      "name": "IdentityOfferCanceled",
      "type": "event"
    },
    {
      "anonymous": false,
      "inputs": [
        {
          "indexed": true,
          "internalType": "address",
          "name": "identity",
          "type": "address"
        },
        {
          "indexed": false,
          "internalType": "address",
          "name": "owner",
          "type": "address"
        },
        {
          "indexed": true,
          "internalType": "address",
          "name": "offeredTo",
          "type": "address"
        },
        {
          "indexed": true,
          "internalType": "uint256",
          "name": "at",
          "type": "uint256"
        }
      ],
      "name": "IdentityOfferRejected",
      "type": "event"
    },
    {
      "anonymous": false,
      "inputs": [
        {
          "indexed": true,
          "internalType": "address",
          "name": "identity",
          "type": "address"
        },
        {
          "indexed": true,
          "internalType": "address",
          "name": "owner",
          "type": "address"
        },
        {
          "indexed": false,
          "internalType": "address",
          "name": "offeredTo",
          "type": "address"
        },
        {
          "indexed": true,
          "internalType": "uint256",
          "name": "at",
          "type": "uint256"
        }
      ],
      "name": "IdentityOffered",
      "type": "event"
    },
    {
      "anonymous": false,
      "inputs": [
        {
          "indexed": true,
          "internalType": "address",
          "name": "identity",
          "type": "address"
        },
        {
          "indexed": true,
          "internalType": "address",
          "name": "owner",
          "type": "address"
        },
        {
          "indexed": true,
          "internalType": "uint256",
          "name": "at",
          "type": "uint256"
        }
      ],
      "name": "IdentityTransferred",
      "type": "event"
    },
    {
      "inputs": [
        {
          "internalType": "address",
          "name": "identity",
          "type": "address"
        },
        {
          "internalType": "address",
          "name": "owner",
          "type": "address"
        }
      ],
      "name": "identityCreated",
      "outputs": [],
      "stateMutability": "nonpayable",
      "type": "function"
    },
    {
      "inputs": [
        {
          "internalType": "address",
          "name": "identity",
          "type": "address"
        },
        {
          "internalType": "address",
          "name": "offeredTo",
          "type": "address"
        }
      ],
      "name": "identityOffered",
      "outputs": [],
      "stateMutability": "nonpayable",
      "type": "function"
    },
    {
      "inputs": [
        {
          "internalType": "address",
          "name": "identity",
          "type": "address"
        },
        {
          "internalType": "address",
          "name": "owner",
          "type": "address"
        }
      ],
      "name": "identityAccepted",
      "outputs": [],
      "stateMutability": "nonpayable",
      "type": "function"
    },
    {
      "inputs": [
        {
          "internalType": "address",
          "name": "identity",
          "type": "address"
        },
        {
          "internalType": "address",
          "name": "offeredTo",
          "type": "address"
        }
      ],
      "name": "identityRejected",
      "outputs": [],
      "stateMutability": "nonpayable",
      "type": "function"
    },
    {
      "inputs": [
        {
          "internalType": "address",
          "name": "identity",
          "type": "address"
        },
        {
          "internalType": "address",
          "name": "offeredTo",
          "type": "address"
        }
      ],
      "name": "identityOfferCanceled",
      "outputs": [],
      "stateMutability": "nonpayable",
      "type": "function"
    }
  ],
  "bytecode": "0x608060405234801561001057600080fd5b506108c3806100206000396000f3fe608060405234801561001057600080fd5b50600436106100575760003560e01c8063396eee9d1461005c57806370b29f9514610078578063b02c6dc214610094578063e3db3394146100b0578063f94a113c146100cc575b600080fd5b61007660048036038101906100719190610747565b6100e8565b005b610092600480360381019061008d9190610747565b610236565b005b6100ae60048036038101906100a99190610747565b610384565b005b6100ca60048036038101906100c59190610747565b6104be565b005b6100e660048036038101906100e19190610747565b6105f8565b005b33828073ffffffffffffffffffffffffffffffffffffffff168273ffffffffffffffffffffffffffffffffffffffff1614610158576040517f08c379a000000000000000000000000000000000000000000000000000000000815260040161014f90610813565b60405180910390fd5b826000808673ffffffffffffffffffffffffffffffffffffffff1673ffffffffffffffffffffffffffffffffffffffff16815260200190815260200160002060006101000a81548173ffffffffffffffffffffffffffffffffffffffff021916908373ffffffffffffffffffffffffffffffffffffffff160217905550428373ffffffffffffffffffffffffffffffffffffffff168573ffffffffffffffffffffffffffffffffffffffff167fb9fb8e551e2c1eca32cadcff5fba92a08c15e5fdb3d0b5b77b3c0c299cb6d4e060405160405180910390a450505050565b33828073ffffffffffffffffffffffffffffffffffffffff168273ffffffffffffffffffffffffffffffffffffffff16146102a6576040517f08c379a000000000000000000000000000000000000000000000000000000000815260040161029d90610813565b60405180910390fd5b826000808673ffffffffffffffffffffffffffffffffffffffff1673ffffffffffffffffffffffffffffffffffffffff16815260200190815260200160002060006101000a81548173ffffffffffffffffffffffffffffffffffffffff021916908373ffffffffffffffffffffffffffffffffffffffff160217905550428373ffffffffffffffffffffffffffffffffffffffff168573ffffffffffffffffffffffffffffffffffffffff167f935587b2ac44cbc8f19b54532d7d55c0bfb1f1d498f42f208eaf88fba9c65a6360405160405180910390a450505050565b33828073ffffffffffffffffffffffffffffffffffffffff168273ffffffffffffffffffffffffffffffffffffffff16146103f4576040517f08c379a00000000000000000000000000000000000000000000000000000000081526004016103eb90610813565b60405180910390fd5b428373ffffffffffffffffffffffffffffffffffffffff168573ffffffffffffffffffffffffffffffffffffffff167ff8b19edda65b5d62bf5cffc44b06971c852691ffbdc99a3321d80ec842f1dc6d6000808973ffffffffffffffffffffffffffffffffffffffff1673ffffffffffffffffffffffffffffffffffffffff16815260200190815260200160002060009054906101000a900473ffffffffffffffffffffffffffffffffffffffff166040516104b091906107f8565b60405180910390a450505050565b33828073ffffffffffffffffffffffffffffffffffffffff168273ffffffffffffffffffffffffffffffffffffffff161461052e576040517f08c379a000000000000000000000000000000000000000000000000000000000815260040161052590610813565b60405180910390fd5b426000808673ffffffffffffffffffffffffffffffffffffffff1673ffffffffffffffffffffffffffffffffffffffff16815260200190815260200160002060009054906101000a900473ffffffffffffffffffffffffffffffffffffffff1673ffffffffffffffffffffffffffffffffffffffff168573ffffffffffffffffffffffffffffffffffffffff167f06f60810783b48f561226446a054a0a69c6ed28d2dcc1fa121d1c8f75932d44b866040516105ea91906107f8565b60405180910390a450505050565b33828073ffffffffffffffffffffffffffffffffffffffff168273ffffffffffffffffffffffffffffffffffffffff1614610668576040517f08c379a000000000000000000000000000000000000000000000000000000000815260040161065f90610813565b60405180910390fd5b426000808673ffffffffffffffffffffffffffffffffffffffff1673ffffffffffffffffffffffffffffffffffffffff16815260200190815260200160002060009054906101000a900473ffffffffffffffffffffffffffffffffffffffff1673ffffffffffffffffffffffffffffffffffffffff168573ffffffffffffffffffffffffffffffffffffffff167f02d7c2d528e37f89d262715cd5ed5727bd92404af478372c95f9ea366558794a8660405161072491906107f8565b60405180910390a450505050565b60008135905061074181610876565b92915050565b6000806040838503121561075a57600080fd5b600061076885828601610732565b925050602061077985828601610732565b9150509250929050565b61078c81610844565b82525050565b600061079f602d83610833565b91507f4964656e746974792063616c6c6261636b206d75737420626520696e766f6b6560008301527f64206279206964656e74697479000000000000000000000000000000000000006020830152604082019050919050565b600060208201905061080d6000830184610783565b92915050565b6000602082019050818103600083015261082c81610792565b9050919050565b600082825260208201905092915050565b600061084f82610856565b9050919050565b600073ffffffffffffffffffffffffffffffffffffffff82169050919050565b61087f81610844565b811461088a57600080fd5b5056fea264697066735822122015a2a7f69381edebce313089dbd50ae41805277c6d9cb093bcca961e79568b4c64736f6c63430008000033",
  "immutableReferences": {},
  "source": "pragma solidity 0.8.0;\n\n\ncontract IdentityManager {\n  mapping(address => address) owners;\n\n  event IdentityCreated(\n    address indexed identity,\n    address indexed owner,\n    uint256 indexed at\n  );\n  event IdentityOffered(\n    address indexed identity,\n    address indexed owner,\n    address offeredTo,\n    uint256 indexed at\n  );\n  event IdentityTransferred(\n    address indexed identity,\n    address indexed owner,\n    uint256 indexed at\n  );\n  event IdentityOfferRejected(\n    address indexed identity,\n    address owner,\n    address indexed offeredTo,\n    uint256 indexed at\n  );\n  event IdentityOfferCanceled(\n    address indexed identity,\n    address indexed owner,\n    address oferedto,\n    uint256 indexed at\n  );\n\n  modifier isIdentity(address sender, address identity) {\n    require(\n      sender == identity,\n      \"Identity callback must be invoked by identity\"\n    );\n    _;\n  }\n\n  function identityCreated(address identity, address owner)\n    external\n    isIdentity(msg.sender, identity)\n  {\n    owners[identity] = owner;\n    emit IdentityCreated(identity, owner, block.timestamp);\n  }\n\n  function identityOffered(address identity, address offeredTo)\n    external\n    isIdentity(msg.sender, identity)\n  {\n    emit IdentityOffered(\n      identity,\n      owners[identity],\n      offeredTo,\n      block.timestamp\n    );\n  }\n\n  function identityAccepted(address identity, address owner)\n    external\n    isIdentity(msg.sender, identity)\n  {\n    owners[identity] = owner;\n    emit IdentityTransferred(identity, owner, block.timestamp);\n  }\n\n  function identityRejected(address identity, address offeredTo)\n    external\n    isIdentity(msg.sender, identity)\n  {\n    emit IdentityOfferRejected(\n      identity,\n      owners[identity],\n      offeredTo,\n      block.timestamp\n    );\n  }\n\n  function identityOfferCanceled(address identity, address offeredTo)\n    external\n    isIdentity(msg.sender, identity)\n  {\n    emit IdentityOfferCanceled(\n      identity,\n      owners[identity],\n      offeredTo,\n      block.timestamp\n    );\n  }\n}\n",
  "sourcePath": "/home/dima/Development/ew-did-registry/packages/proxyIdentity/contracts/IdentityManager.sol",
  "compiler": {
    "name": "solc",
    "version": "0.8.0+commit.c7dfd78e.Emscripten.clang"
  },
  "schemaVersion": "3.3.4",
  "updatedAt": "2021-03-29T12:29:54.315Z",
  "devdoc": {
    "kind": "dev",
    "methods": {},
    "version": 1
  },
  "userdoc": {
    "kind": "user",
    "methods": {},
    "version": 1
  }
}