{
  "contractName": "IdentityManager",
  "abi": [
    {
      "inputs": [],
      "stateMutability": "nonpayable",
      "type": "constructor"
    },
    {
      "anonymous": false,
      "inputs": [
        {
          "indexed": true,
          "internalType": "address",
          "name": "identity",
          "type": "address"
        },
        {
          "indexed": true,
          "internalType": "address",
          "name": "owner",
          "type": "address"
        },
        {
          "indexed": true,
          "internalType": "uint256",
          "name": "at",
          "type": "uint256"
        }
      ],
      "name": "IdentityCreated",
      "type": "event"
    },
    {
      "anonymous": false,
      "inputs": [
        {
          "indexed": true,
          "internalType": "address",
          "name": "identity",
          "type": "address"
        },
        {
          "indexed": true,
          "internalType": "address",
          "name": "owner",
          "type": "address"
        },
        {
          "indexed": false,
          "internalType": "address",
          "name": "oferedto",
          "type": "address"
        },
        {
          "indexed": true,
          "internalType": "uint256",
          "name": "at",
          "type": "uint256"
        }
      ],
      "name": "IdentityOfferCanceled",
      "type": "event"
    },
    {
      "anonymous": false,
      "inputs": [
        {
          "indexed": true,
          "internalType": "address",
          "name": "identity",
          "type": "address"
        },
        {
          "indexed": false,
          "internalType": "address",
          "name": "owner",
          "type": "address"
        },
        {
          "indexed": true,
          "internalType": "address",
          "name": "offeredTo",
          "type": "address"
        },
        {
          "indexed": true,
          "internalType": "uint256",
          "name": "at",
          "type": "uint256"
        }
      ],
      "name": "IdentityOfferRejected",
      "type": "event"
    },
    {
      "anonymous": false,
      "inputs": [
        {
          "indexed": true,
          "internalType": "address",
          "name": "identity",
          "type": "address"
        },
        {
          "indexed": true,
          "internalType": "address",
          "name": "owner",
          "type": "address"
        },
        {
          "indexed": false,
          "internalType": "address",
          "name": "offeredTo",
          "type": "address"
        },
        {
          "indexed": true,
          "internalType": "uint256",
          "name": "at",
          "type": "uint256"
        }
      ],
      "name": "IdentityOffered",
      "type": "event"
    },
    {
      "anonymous": false,
      "inputs": [
        {
          "indexed": true,
          "internalType": "address",
          "name": "identity",
          "type": "address"
        },
        {
          "indexed": true,
          "internalType": "address",
          "name": "owner",
          "type": "address"
        },
        {
          "indexed": true,
          "internalType": "uint256",
          "name": "at",
          "type": "uint256"
        }
      ],
      "name": "IdentityTransferred",
      "type": "event"
    },
    {
      "inputs": [
        {
          "internalType": "address",
          "name": "",
          "type": "address"
        }
      ],
      "name": "compliant",
      "outputs": [
        {
          "internalType": "bool",
          "name": "",
          "type": "bool"
        }
      ],
      "stateMutability": "view",
      "type": "function"
    },
    {
      "inputs": [
        {
          "internalType": "address",
          "name": "",
          "type": "address"
        }
      ],
      "name": "created",
      "outputs": [
        {
          "internalType": "bool",
          "name": "",
          "type": "bool"
        }
      ],
      "stateMutability": "view",
      "type": "function"
    },
    {
      "inputs": [
        {
          "internalType": "address",
          "name": "",
          "type": "address"
        }
      ],
      "name": "owners",
      "outputs": [
        {
          "internalType": "address",
          "name": "",
          "type": "address"
        }
      ],
      "stateMutability": "view",
      "type": "function"
    },
    {
      "inputs": [
        {
          "internalType": "address",
          "name": "",
          "type": "address"
        }
      ],
      "name": "verified",
      "outputs": [
        {
          "internalType": "bool",
          "name": "",
          "type": "bool"
        }
      ],
      "stateMutability": "view",
      "type": "function"
    },
    {
      "inputs": [
        {
          "internalType": "address",
          "name": "_libraryAddress",
          "type": "address"
        }
      ],
      "name": "setLibraryAddress",
      "outputs": [],
      "stateMutability": "nonpayable",
      "type": "function"
    },
    {
      "inputs": [
        {
          "internalType": "address",
          "name": "_ethrRegistry",
          "type": "address"
        }
      ],
      "name": "setEthrRegistry",
      "outputs": [],
      "stateMutability": "nonpayable",
      "type": "function"
    },
    {
      "inputs": [
        {
          "internalType": "address",
          "name": "_owner",
          "type": "address"
        }
      ],
      "name": "createIdentity",
      "outputs": [],
      "stateMutability": "nonpayable",
      "type": "function"
    },
    {
      "inputs": [
        {
          "internalType": "address",
          "name": "_owner",
          "type": "address"
        }
      ],
      "name": "identityCreated",
      "outputs": [],
      "stateMutability": "nonpayable",
      "type": "function"
    },
    {
      "inputs": [
        {
          "internalType": "address",
          "name": "_offeredTo",
          "type": "address"
        }
      ],
      "name": "identityOffered",
      "outputs": [],
      "stateMutability": "nonpayable",
      "type": "function"
    },
    {
      "inputs": [
        {
          "internalType": "address",
          "name": "_owner",
          "type": "address"
        }
      ],
      "name": "identityAccepted",
      "outputs": [],
      "stateMutability": "nonpayable",
      "type": "function"
    },
    {
      "inputs": [
        {
          "internalType": "address",
          "name": "_offeredTo",
          "type": "address"
        }
      ],
      "name": "identityRejected",
      "outputs": [],
      "stateMutability": "nonpayable",
      "type": "function"
    },
    {
      "inputs": [
        {
          "internalType": "address",
          "name": "_offeredTo",
          "type": "address"
        }
      ],
      "name": "identityOfferCanceled",
      "outputs": [],
      "stateMutability": "nonpayable",
      "type": "function"
    }
  ],
  "bytecode": "0x608060405234801561001057600080fd5b5033600260006101000a81548173ffffffffffffffffffffffffffffffffffffffff021916908373ffffffffffffffffffffffffffffffffffffffff160217905550611646806100616000396000f3fe608060405234801561001057600080fd5b50600436106100b45760003560e01c8063845de7bc11610071578063845de7bc14610189578063d42efd83146101a5578063d833d043146101d5578063ebdcd2eb14610205578063f0ba4f6014610221578063fab3157e1461023d576100b4565b8063022914a7146100b9578063062960d4146100e95780630db065f4146101055780634863ba17146101355780635b2ab06c146101515780635fa957df1461016d575b600080fd5b6100d360048036038101906100ce91906110a9565b610259565b6040516100e09190611375565b60405180910390f35b61010360048036038101906100fe91906110a9565b61028c565b005b61011f600480360381019061011a91906110a9565b61062f565b60405161012c91906113b9565b60405180910390f35b61014f600480360381019061014a91906110a9565b61064f565b005b61016b600480360381019061016691906110a9565b610722565b005b610187600480360381019061018291906110a9565b610886565b005b6101a3600480360381019061019e91906110a9565b61095a565b005b6101bf60048036038101906101ba91906110a9565b610a22565b6040516101cc91906113b9565b60405180910390f35b6101ef60048036038101906101ea91906110a9565b610a42565b6040516101fc91906113b9565b60405180910390f35b61021f600480360381019061021a91906110a9565b610a62565b005b61023b600480360381019061023691906110a9565b610ac0565b005b610257600480360381019061025291906110a9565b610b88565b005b60066020528060005260406000206000915054906101000a900473ffffffffffffffffffffffffffffffffffffffff1681565b61033e337ffefeef990a2de9ed64dc6f56cebd08e011095b0f6eb523740fa4be344c7526897f62d05c78a8c6cd0f6c7d3ce2b6562d0e4037b940b816f1ba59bf1ec3d7d004e87fefd998ad69943e04daf402ab416a3a8615491a7fdd17e473178a009c416d230d7feb62df611f6cf1c05c08aa67459bb267e598cb3f9d0d0902e16c5b5c37c712a27fce2d4aca55965ec1a28a25b4f43a5db10b579fcffc64598efadc664d5d00e99718181818610c50565b61037d576040517f08c379a000000000000000000000000000000000000000000000000000000000815260040161037490611411565b60405180910390fd5b600360003373ffffffffffffffffffffffffffffffffffffffff1673ffffffffffffffffffffffffffffffffffffffff16815260200190815260200160002060009054906101000a900460ff161561042c576001600460003373ffffffffffffffffffffffffffffffffffffffff1673ffffffffffffffffffffffffffffffffffffffff16815260200190815260200160002060006101000a81548160ff021916908315150217905550610485565b6001600560003373ffffffffffffffffffffffffffffffffffffffff1673ffffffffffffffffffffffffffffffffffffffff16815260200190815260200160002060006101000a81548160ff0219169083151502179055505b600073ffffffffffffffffffffffffffffffffffffffff16600660003373ffffffffffffffffffffffffffffffffffffffff1673ffffffffffffffffffffffffffffffffffffffff16815260200190815260200160002060009054906101000a900473ffffffffffffffffffffffffffffffffffffffff1673ffffffffffffffffffffffffffffffffffffffff1614610553576040517f08c379a000000000000000000000000000000000000000000000000000000000815260040161054a90611491565b60405180910390fd5b80600660003373ffffffffffffffffffffffffffffffffffffffff1673ffffffffffffffffffffffffffffffffffffffff16815260200190815260200160002060006101000a81548173ffffffffffffffffffffffffffffffffffffffff021916908373ffffffffffffffffffffffffffffffffffffffff160217905550428173ffffffffffffffffffffffffffffffffffffffff163373ffffffffffffffffffffffffffffffffffffffff167fb9fb8e551e2c1eca32cadcff5fba92a08c15e5fdb3d0b5b77b3c0c299cb6d4e060405160405180910390a450565b60046020528060005260406000206000915054906101000a900460ff1681565b600260009054906101000a900473ffffffffffffffffffffffffffffffffffffffff1673ffffffffffffffffffffffffffffffffffffffff163373ffffffffffffffffffffffffffffffffffffffff16146106df576040517f08c379a00000000000000000000000000000000000000000000000000000000081526004016106d690611431565b60405180910390fd5b806000806101000a81548173ffffffffffffffffffffffffffffffffffffffff021916908373ffffffffffffffffffffffffffffffffffffffff16021790555050565b600061074d60008054906101000a900473ffffffffffffffffffffffffffffffffffffffff16610c75565b90506001600360008373ffffffffffffffffffffffffffffffffffffffff1673ffffffffffffffffffffffffffffffffffffffff16815260200190815260200160002060006101000a81548160ff021916908315150217905550600082600160009054906101000a900473ffffffffffffffffffffffffffffffffffffffff166040516024016107de929190611390565b6040516020818303038152906040527ff09a4016000000000000000000000000000000000000000000000000000000007bffffffffffffffffffffffffffffffffffffffffffffffffffffffff19166020820180517bffffffffffffffffffffffffffffffffffffffffffffffffffffffff8381831617835250505050905061088082826040518060600160405280603181526020016115e060319139610d4a565b50505050565b600260009054906101000a900473ffffffffffffffffffffffffffffffffffffffff1673ffffffffffffffffffffffffffffffffffffffff163373ffffffffffffffffffffffffffffffffffffffff1614610916576040517f08c379a000000000000000000000000000000000000000000000000000000000815260040161090d90611431565b60405180910390fd5b80600160006101000a81548173ffffffffffffffffffffffffffffffffffffffff021916908373ffffffffffffffffffffffffffffffffffffffff16021790555050565b42600660003373ffffffffffffffffffffffffffffffffffffffff1673ffffffffffffffffffffffffffffffffffffffff16815260200190815260200160002060009054906101000a900473ffffffffffffffffffffffffffffffffffffffff1673ffffffffffffffffffffffffffffffffffffffff163373ffffffffffffffffffffffffffffffffffffffff167f06f60810783b48f561226446a054a0a69c6ed28d2dcc1fa121d1c8f75932d44b84604051610a179190611375565b60405180910390a450565b60036020528060005260406000206000915054906101000a900460ff1681565b60056020528060005260406000206000915054906101000a900460ff1681565b428173ffffffffffffffffffffffffffffffffffffffff163373ffffffffffffffffffffffffffffffffffffffff167f935587b2ac44cbc8f19b54532d7d55c0bfb1f1d498f42f208eaf88fba9c65a6360405160405180910390a450565b428173ffffffffffffffffffffffffffffffffffffffff163373ffffffffffffffffffffffffffffffffffffffff167ff8b19edda65b5d62bf5cffc44b06971c852691ffbdc99a3321d80ec842f1dc6d600660003373ffffffffffffffffffffffffffffffffffffffff1673ffffffffffffffffffffffffffffffffffffffff16815260200190815260200160002060009054906101000a900473ffffffffffffffffffffffffffffffffffffffff16604051610b7d9190611375565b60405180910390a450565b42600660003373ffffffffffffffffffffffffffffffffffffffff1673ffffffffffffffffffffffffffffffffffffffff16815260200190815260200160002060009054906101000a900473ffffffffffffffffffffffffffffffffffffffff1673ffffffffffffffffffffffffffffffffffffffff163373ffffffffffffffffffffffffffffffffffffffff167f02d7c2d528e37f89d262715cd5ed5727bd92404af478372c95f9ea366558794a84604051610c459190611375565b60405180910390a450565b6000610c5b83610d62565b8015610c6d5750610c6c8383610daf565b5b905092915050565b60006040517f3d602d80600a3d3981f3363d3d373d3d3d363d7300000000000000000000000081528260601b60148201527f5af43d82803e903d91602b57fd5bf3000000000000000000000000000000000060288201526037816000f0915050600073ffffffffffffffffffffffffffffffffffffffff168173ffffffffffffffffffffffffffffffffffffffff161415610d45576040517f08c379a0000000000000000000000000000000000000000000000000000000008152600401610d3c90611471565b60405180910390fd5b919050565b6060610d598484600085610eda565b90509392505050565b6000610d8e827f01ffc9a700000000000000000000000000000000000000000000000000000000610daf565b8015610da85750610da68263ffffffff60e01b610daf565b155b9050919050565b6000806301ffc9a760e01b83604051602401610dcb91906113d4565b604051602081830303815290604052907bffffffffffffffffffffffffffffffffffffffffffffffffffffffff19166020820180517bffffffffffffffffffffffffffffffffffffffffffffffffffffffff838183161783525050505090506000808573ffffffffffffffffffffffffffffffffffffffff1661753084604051610e55919061135e565b6000604051808303818686fa925050503d8060008114610e91576040519150601f19603f3d011682016040523d82523d6000602084013e610e96565b606091505b5091509150602081511015610eb15760009350505050610ed4565b818015610ece575080806020019051810190610ecd91906110d2565b5b93505050505b92915050565b6060823073ffffffffffffffffffffffffffffffffffffffff16311015610f36576040517f08c379a0000000000000000000000000000000000000000000000000000000008152600401610f2d90611451565b60405180910390fd5b610f3f85611005565b610f7e576040517f08c379a0000000000000000000000000000000000000000000000000000000008152600401610f75906114b1565b60405180910390fd5b6000808673ffffffffffffffffffffffffffffffffffffffff168587604051610fa7919061135e565b60006040518083038185875af1925050503d8060008114610fe4576040519150601f19603f3d011682016040523d82523d6000602084013e610fe9565b606091505b5091509150610ff9828286611018565b92505050949350505050565b600080823b905060008111915050919050565b6060831561102857829050611078565b60008351111561103b5782518084602001fd5b816040517f08c379a000000000000000000000000000000000000000000000000000000000815260040161106f91906113ef565b60405180910390fd5b9392505050565b60008135905061108e816115b1565b92915050565b6000815190506110a3816115c8565b92915050565b6000602082840312156110bb57600080fd5b60006110c98482850161107f565b91505092915050565b6000602082840312156110e457600080fd5b60006110f284828501611094565b91505092915050565b61110481611503565b82525050565b61111381611515565b82525050565b61112281611521565b82525050565b6000611133826114d1565b61113d81856114e7565b935061114d81856020860161156d565b80840191505092915050565b6000611164826114dc565b61116e81856114f2565b935061117e81856020860161156d565b611187816115a0565b840191505092915050565b600061119f601f836114f2565b91507f4f6e6c79204f6666657261626c65204964656e7469747920616c6c6f776564006000830152602082019050919050565b60006111df601d836114f2565b91507f4f6e6c79204964656e74697479204d616e6167657220616c6c6f7765640000006000830152602082019050919050565b600061121f6026836114f2565b91507f416464726573733a20696e73756666696369656e742062616c616e636520666f60008301527f722063616c6c00000000000000000000000000000000000000000000000000006020830152604082019050919050565b60006112856016836114f2565b91507f455243313136373a20637265617465206661696c6564000000000000000000006000830152602082019050919050565b60006112c56024836114f2565b91507f4964656e7469747920616c726561647920686173206265656e2072656769737460008301527f65726564000000000000000000000000000000000000000000000000000000006020830152604082019050919050565b600061132b601d836114f2565b91507f416464726573733a2063616c6c20746f206e6f6e2d636f6e74726163740000006000830152602082019050919050565b600061136a8284611128565b915081905092915050565b600060208201905061138a60008301846110fb565b92915050565b60006040820190506113a560008301856110fb565b6113b260208301846110fb565b9392505050565b60006020820190506113ce600083018461110a565b92915050565b60006020820190506113e96000830184611119565b92915050565b600060208201905081810360008301526114098184611159565b905092915050565b6000602082019050818103600083015261142a81611192565b9050919050565b6000602082019050818103600083015261144a816111d2565b9050919050565b6000602082019050818103600083015261146a81611212565b9050919050565b6000602082019050818103600083015261148a81611278565b9050919050565b600060208201905081810360008301526114aa816112b8565b9050919050565b600060208201905081810360008301526114ca8161131e565b9050919050565b600081519050919050565b600081519050919050565b600081905092915050565b600082825260208201905092915050565b600061150e8261154d565b9050919050565b60008115159050919050565b60007fffffffff0000000000000000000000000000000000000000000000000000000082169050919050565b600073ffffffffffffffffffffffffffffffffffffffff82169050919050565b60005b8381101561158b578082015181840152602081019050611570565b8381111561159a576000848401525b50505050565b6000601f19601f8301169050919050565b6115ba81611503565b81146115c557600080fd5b50565b6115d181611515565b81146115dc57600080fd5b5056fe4964656e746974794d616e616765723a2043616e277420696e697469616c697a6520636c6f6e6564206964656e74697479a264697066735822122004ce5bf3dbdd2fc4eb096ccbff5298b69e18b01652920550663bde710d3a080364736f6c63430008000033",
  "immutableReferences": {},
  "source": "pragma solidity 0.8.0;\n\nimport \"@openzeppelin/contracts/proxy/Clones.sol\";\nimport \"@openzeppelin/contracts/utils/Address.sol\";\nimport \"@openzeppelin/contracts/utils/introspection/ERC165Checker.sol\";\nimport \"./OfferableIdentity.sol\";\n\n\ncontract IdentityManager {\n  address libraryAddress;\n  address ethrRegistry;\n  address owner;\n  \n  bytes4 constant ERC165ID = bytes4(keccak256(\"supportsInterface(bytes4)\"));\n  bytes4 constant offerID = bytes4(keccak256(\"offer(address)\"));\n  bytes4 constant acceptOfferID = bytes4(keccak256(\"acceptOffer()\"));\n  bytes4 constant rejectOfferID = bytes4(keccak256(\"rejectOffer()\"));\n  bytes4 constant cancelOfferID = bytes4(keccak256(\"cancelOffer()\"));\n  bytes4 constant sendTxID = bytes4(keccak256(\"sendTransaction(bytes,address,uin256)\"));\n  bytes4 constant offerableID = offerID ^\n    acceptOfferID ^\n    rejectOfferID ^\n    cancelOfferID ^\n    sendTxID;\n  \n  mapping(address => bool) public created;\n  mapping(address => bool) public verified;  \n  mapping(address => bool) public compliant;\n  \n  mapping(address => address) public owners;\n\n  event IdentityCreated(address indexed identity, address indexed owner, uint256 indexed at);\n  event IdentityOffered(address indexed identity, address indexed owner, address offeredTo, uint256 indexed at);\n  event IdentityTransferred(address indexed identity, address indexed owner, uint256 indexed at);\n  event IdentityOfferRejected(address indexed identity, address owner, address indexed offeredTo, uint256 indexed at);\n  event IdentityOfferCanceled(address indexed identity, address indexed owner, address oferedto, uint256 indexed at);\n  \n  constructor() {\n    owner = msg.sender;\n  }\n\n  modifier isOwner() {\n    require(msg.sender == owner, \"Only Identity Manager allowed\");\n    _;\n  }\n  \n  modifier isOfferable() {\n    require(\n      ERC165Checker.supportsInterface(\n        msg.sender, offerableID),\n      \"Only Offerable Identity allowed\"\n    );\n    _;\n  }\n\n  function setLibraryAddress(address _libraryAddress) external isOwner {\n    libraryAddress = _libraryAddress;\n  }\n  \n  function setEthrRegistry(address _ethrRegistry) external isOwner {\n    ethrRegistry = _ethrRegistry; \n  }\n\n  function createIdentity(address _owner) external {\n    address identity = Clones.clone(libraryAddress);\n    created[identity] = true;\n    \n    bytes memory initData = abi.encodeWithSignature(\"init(address,address)\", _owner, ethrRegistry);    \n    Address.functionCall(identity, initData, \"IdentityManager: Can't initialize cloned identity\");\n  }\n  \n  function identityCreated(address _owner)\n    external\n    isOfferable\n  {\n    if (created[msg.sender]) {\n      verified[msg.sender] = true;      \n    }\n    else {\n      compliant[msg.sender] = true;\n    }\n    require(owners[msg.sender] == address(0), \"Identity already has been registered\");\n    owners[msg.sender] = _owner;\n    emit IdentityCreated(msg.sender, _owner, block.timestamp);\n  }\n\n  function identityOffered(address _offeredTo)\n    external\n  {\n    emit IdentityOffered(msg.sender, owners[msg.sender], _offeredTo, block.timestamp);\n  }\n\n  function identityAccepted(address _owner)\n    external\n  {\n    emit IdentityTransferred(msg.sender, _owner, block.timestamp);\n  }\n\n  function identityRejected(address _offeredTo)\n    external\n  {\n    emit IdentityOfferRejected(msg.sender, owners[msg.sender], _offeredTo, block.timestamp);\n  }\n\n  function identityOfferCanceled(address _offeredTo)\n    external\n  {\n    emit IdentityOfferCanceled(msg.sender, owners[msg.sender], _offeredTo, block.timestamp);\n  }\n}",
  "sourcePath": "/home/dima/Development/ew-did-registry/packages/proxyIdentity/contracts/IdentityManager.sol",
  "compiler": {
    "name": "solc",
    "version": "0.8.0+commit.c7dfd78e.Emscripten.clang"
  },
  "schemaVersion": "3.3.4",
  "updatedAt": "2021-03-30T15:23:58.700Z",
  "devdoc": {
    "kind": "dev",
    "methods": {},
    "version": 1
  },
  "userdoc": {
    "kind": "user",
    "methods": {},
    "version": 1
  }
}