{
  "contractName": "IdentityManager",
  "abi": [
    {
      "inputs": [],
      "stateMutability": "nonpayable",
      "type": "constructor"
    },
    {
      "anonymous": false,
      "inputs": [
        {
          "indexed": true,
          "internalType": "address",
          "name": "identity",
          "type": "address"
        },
        {
          "indexed": true,
          "internalType": "address",
          "name": "owner",
          "type": "address"
        },
        {
          "indexed": true,
          "internalType": "uint256",
          "name": "at",
          "type": "uint256"
        }
      ],
      "name": "IdentityCreated",
      "type": "event"
    },
    {
      "anonymous": false,
      "inputs": [
        {
          "indexed": true,
          "internalType": "address",
          "name": "identity",
          "type": "address"
        },
        {
          "indexed": true,
          "internalType": "address",
          "name": "owner",
          "type": "address"
        },
        {
          "indexed": false,
          "internalType": "address",
          "name": "oferedto",
          "type": "address"
        },
        {
          "indexed": true,
          "internalType": "uint256",
          "name": "at",
          "type": "uint256"
        }
      ],
      "name": "IdentityOfferCanceled",
      "type": "event"
    },
    {
      "anonymous": false,
      "inputs": [
        {
          "indexed": true,
          "internalType": "address",
          "name": "identity",
          "type": "address"
        },
        {
          "indexed": false,
          "internalType": "address",
          "name": "owner",
          "type": "address"
        },
        {
          "indexed": true,
          "internalType": "address",
          "name": "offeredTo",
          "type": "address"
        },
        {
          "indexed": true,
          "internalType": "uint256",
          "name": "at",
          "type": "uint256"
        }
      ],
      "name": "IdentityOfferRejected",
      "type": "event"
    },
    {
      "anonymous": false,
      "inputs": [
        {
          "indexed": true,
          "internalType": "address",
          "name": "identity",
          "type": "address"
        },
        {
          "indexed": true,
          "internalType": "address",
          "name": "owner",
          "type": "address"
        },
        {
          "indexed": false,
          "internalType": "address",
          "name": "offeredTo",
          "type": "address"
        },
        {
          "indexed": true,
          "internalType": "uint256",
          "name": "at",
          "type": "uint256"
        }
      ],
      "name": "IdentityOffered",
      "type": "event"
    },
    {
      "anonymous": false,
      "inputs": [
        {
          "indexed": true,
          "internalType": "address",
          "name": "identity",
          "type": "address"
        },
        {
          "indexed": true,
          "internalType": "address",
          "name": "owner",
          "type": "address"
        },
        {
          "indexed": true,
          "internalType": "uint256",
          "name": "at",
          "type": "uint256"
        }
      ],
      "name": "IdentityTransferred",
      "type": "event"
    },
    {
      "inputs": [
        {
          "internalType": "address",
          "name": "",
          "type": "address"
        }
      ],
      "name": "compliant",
      "outputs": [
        {
          "internalType": "bool",
          "name": "",
          "type": "bool"
        }
      ],
      "stateMutability": "view",
      "type": "function"
    },
    {
      "inputs": [
        {
          "internalType": "address",
          "name": "",
          "type": "address"
        }
      ],
      "name": "owners",
      "outputs": [
        {
          "internalType": "address",
          "name": "",
          "type": "address"
        }
      ],
      "stateMutability": "view",
      "type": "function"
    },
    {
      "inputs": [
        {
          "internalType": "address",
          "name": "",
          "type": "address"
        }
      ],
      "name": "verified",
      "outputs": [
        {
          "internalType": "bool",
          "name": "",
          "type": "bool"
        }
      ],
      "stateMutability": "view",
      "type": "function"
    },
    {
      "inputs": [
        {
          "internalType": "address",
          "name": "_libraryAddress",
          "type": "address"
        }
      ],
      "name": "setLibraryAddress",
      "outputs": [],
      "stateMutability": "nonpayable",
      "type": "function"
    },
    {
      "inputs": [
        {
          "internalType": "address",
          "name": "_ethrRegistry",
          "type": "address"
        }
      ],
      "name": "setEthrRegistry",
      "outputs": [],
      "stateMutability": "nonpayable",
      "type": "function"
    },
    {
      "inputs": [
        {
          "internalType": "address",
          "name": "_owner",
          "type": "address"
        }
      ],
      "name": "createIdentity",
      "outputs": [],
      "stateMutability": "nonpayable",
      "type": "function"
    },
    {
      "inputs": [
        {
          "internalType": "address",
          "name": "_owner",
          "type": "address"
        }
      ],
      "name": "identityCreated",
      "outputs": [],
      "stateMutability": "nonpayable",
      "type": "function"
    },
    {
      "inputs": [
        {
          "internalType": "address",
          "name": "_offeredTo",
          "type": "address"
        }
      ],
      "name": "identityOffered",
      "outputs": [],
      "stateMutability": "nonpayable",
      "type": "function"
    },
    {
      "inputs": [
        {
          "internalType": "address",
          "name": "_owner",
          "type": "address"
        }
      ],
      "name": "identityAccepted",
      "outputs": [],
      "stateMutability": "nonpayable",
      "type": "function"
    },
    {
      "inputs": [
        {
          "internalType": "address",
          "name": "_offeredTo",
          "type": "address"
        }
      ],
      "name": "identityRejected",
      "outputs": [],
      "stateMutability": "nonpayable",
      "type": "function"
    },
    {
      "inputs": [
        {
          "internalType": "address",
          "name": "_offeredTo",
          "type": "address"
        }
      ],
      "name": "identityOfferCanceled",
      "outputs": [],
      "stateMutability": "nonpayable",
      "type": "function"
    }
  ],
  "bytecode": "0x608060405234801561001057600080fd5b5033600260006101000a81548173ffffffffffffffffffffffffffffffffffffffff021916908373ffffffffffffffffffffffffffffffffffffffff160217905550611b01806100616000396000f3fe608060405234801561001057600080fd5b50600436106100a95760003560e01c80635fa957df116100715780635fa957df14610162578063845de7bc1461017e578063d833d0431461019a578063ebdcd2eb146101ca578063f0ba4f60146101e6578063fab3157e14610202576100a9565b8063022914a7146100ae578063062960d4146100de5780630db065f4146100fa5780634863ba171461012a5780635b2ab06c14610146575b600080fd5b6100c860048036038101906100c39190611432565b61021e565b6040516100d591906117f0565b60405180910390f35b6100f860048036038101906100f39190611432565b610251565b005b610114600480360381019061010f9190611432565b6105f4565b6040516101219190611834565b60405180910390f35b610144600480360381019061013f9190611432565b610614565b005b610160600480360381019061015b9190611432565b6106e7565b005b61017c60048036038101906101779190611432565b61084b565b005b61019860048036038101906101939190611432565b61091f565b005b6101b460048036038101906101af9190611432565b610b1f565b6040516101c19190611834565b60405180910390f35b6101e460048036038101906101df9190611432565b610b3f565b005b61020060048036038101906101fb9190611432565b610c81565b005b61021c60048036038101906102179190611432565b610e2d565b005b60076020528060005260406000206000915054906101000a900473ffffffffffffffffffffffffffffffffffffffff1681565b610303337ffefeef990a2de9ed64dc6f56cebd08e011095b0f6eb523740fa4be344c7526897f62d05c78a8c6cd0f6c7d3ce2b6562d0e4037b940b816f1ba59bf1ec3d7d004e87fefd998ad69943e04daf402ab416a3a8615491a7fdd17e473178a009c416d230d7feb62df611f6cf1c05c08aa67459bb267e598cb3f9d0d0902e16c5b5c37c712a27fce2d4aca55965ec1a28a25b4f43a5db10b579fcffc64598efadc664d5d00e99718181818610fd9565b610342576040517f08c379a00000000000000000000000000000000000000000000000000000000081526004016103399061188c565b60405180910390fd5b600360003373ffffffffffffffffffffffffffffffffffffffff1673ffffffffffffffffffffffffffffffffffffffff16815260200190815260200160002060009054906101000a900460ff16156103f1576001600460003373ffffffffffffffffffffffffffffffffffffffff1673ffffffffffffffffffffffffffffffffffffffff16815260200190815260200160002060006101000a81548160ff02191690831515021790555061044a565b6001600560003373ffffffffffffffffffffffffffffffffffffffff1673ffffffffffffffffffffffffffffffffffffffff16815260200190815260200160002060006101000a81548160ff0219169083151502179055505b600073ffffffffffffffffffffffffffffffffffffffff16600760003373ffffffffffffffffffffffffffffffffffffffff1673ffffffffffffffffffffffffffffffffffffffff16815260200190815260200160002060009054906101000a900473ffffffffffffffffffffffffffffffffffffffff1673ffffffffffffffffffffffffffffffffffffffff1614610518576040517f08c379a000000000000000000000000000000000000000000000000000000000815260040161050f906118ac565b60405180910390fd5b80600760003373ffffffffffffffffffffffffffffffffffffffff1673ffffffffffffffffffffffffffffffffffffffff16815260200190815260200160002060006101000a81548173ffffffffffffffffffffffffffffffffffffffff021916908373ffffffffffffffffffffffffffffffffffffffff160217905550428173ffffffffffffffffffffffffffffffffffffffff163373ffffffffffffffffffffffffffffffffffffffff167fb9fb8e551e2c1eca32cadcff5fba92a08c15e5fdb3d0b5b77b3c0c299cb6d4e060405160405180910390a450565b60046020528060005260406000206000915054906101000a900460ff1681565b600260009054906101000a900473ffffffffffffffffffffffffffffffffffffffff1673ffffffffffffffffffffffffffffffffffffffff163373ffffffffffffffffffffffffffffffffffffffff16146106a4576040517f08c379a000000000000000000000000000000000000000000000000000000000815260040161069b9061190c565b60405180910390fd5b806000806101000a81548173ffffffffffffffffffffffffffffffffffffffff021916908373ffffffffffffffffffffffffffffffffffffffff16021790555050565b600061071260008054906101000a900473ffffffffffffffffffffffffffffffffffffffff16610ffe565b90506001600360008373ffffffffffffffffffffffffffffffffffffffff1673ffffffffffffffffffffffffffffffffffffffff16815260200190815260200160002060006101000a81548160ff021916908315150217905550600082600160009054906101000a900473ffffffffffffffffffffffffffffffffffffffff166040516024016107a392919061180b565b6040516020818303038152906040527ff09a4016000000000000000000000000000000000000000000000000000000007bffffffffffffffffffffffffffffffffffffffffffffffffffffffff19166020820180517bffffffffffffffffffffffffffffffffffffffffffffffffffffffff838183161783525050505090506108458282604051806060016040528060318152602001611a9b603191396110d3565b50505050565b600260009054906101000a900473ffffffffffffffffffffffffffffffffffffffff1673ffffffffffffffffffffffffffffffffffffffff163373ffffffffffffffffffffffffffffffffffffffff16146108db576040517f08c379a00000000000000000000000000000000000000000000000000000000081526004016108d29061190c565b60405180910390fd5b80600160006101000a81548173ffffffffffffffffffffffffffffffffffffffff021916908373ffffffffffffffffffffffffffffffffffffffff16021790555050565b600460003373ffffffffffffffffffffffffffffffffffffffff1673ffffffffffffffffffffffffffffffffffffffff16815260200190815260200160002060009054906101000a900460ff16806109c05750600560003373ffffffffffffffffffffffffffffffffffffffff1673ffffffffffffffffffffffffffffffffffffffff16815260200190815260200160002060009054906101000a900460ff165b6109ff576040517f08c379a00000000000000000000000000000000000000000000000000000000081526004016109f69061194c565b60405180910390fd5b6001600660003373ffffffffffffffffffffffffffffffffffffffff1673ffffffffffffffffffffffffffffffffffffffff16815260200190815260200160002060006101000a81548160ff02191690831515021790555042600760003373ffffffffffffffffffffffffffffffffffffffff1673ffffffffffffffffffffffffffffffffffffffff16815260200190815260200160002060009054906101000a900473ffffffffffffffffffffffffffffffffffffffff1673ffffffffffffffffffffffffffffffffffffffff163373ffffffffffffffffffffffffffffffffffffffff167f06f60810783b48f561226446a054a0a69c6ed28d2dcc1fa121d1c8f75932d44b84604051610b1491906117f0565b60405180910390a450565b60056020528060005260406000206000915054906101000a900460ff1681565b600660003373ffffffffffffffffffffffffffffffffffffffff1673ffffffffffffffffffffffffffffffffffffffff16815260200190815260200160002060009054906101000a900460ff16610bcb576040517f08c379a0000000000000000000000000000000000000000000000000000000008152600401610bc29061192c565b60405180910390fd5b6000600660003373ffffffffffffffffffffffffffffffffffffffff1673ffffffffffffffffffffffffffffffffffffffff16815260200190815260200160002060006101000a81548160ff021916908315150217905550428173ffffffffffffffffffffffffffffffffffffffff163373ffffffffffffffffffffffffffffffffffffffff167f935587b2ac44cbc8f19b54532d7d55c0bfb1f1d498f42f208eaf88fba9c65a6360405160405180910390a450565b600660003373ffffffffffffffffffffffffffffffffffffffff1673ffffffffffffffffffffffffffffffffffffffff16815260200190815260200160002060009054906101000a900460ff16610d0d576040517f08c379a0000000000000000000000000000000000000000000000000000000008152600401610d049061192c565b60405180910390fd5b6000600660003373ffffffffffffffffffffffffffffffffffffffff1673ffffffffffffffffffffffffffffffffffffffff16815260200190815260200160002060006101000a81548160ff021916908315150217905550428173ffffffffffffffffffffffffffffffffffffffff163373ffffffffffffffffffffffffffffffffffffffff167ff8b19edda65b5d62bf5cffc44b06971c852691ffbdc99a3321d80ec842f1dc6d600760003373ffffffffffffffffffffffffffffffffffffffff1673ffffffffffffffffffffffffffffffffffffffff16815260200190815260200160002060009054906101000a900473ffffffffffffffffffffffffffffffffffffffff16604051610e2291906117f0565b60405180910390a450565b600660003373ffffffffffffffffffffffffffffffffffffffff1673ffffffffffffffffffffffffffffffffffffffff16815260200190815260200160002060009054906101000a900460ff16610eb9576040517f08c379a0000000000000000000000000000000000000000000000000000000008152600401610eb09061192c565b60405180910390fd5b6000600660003373ffffffffffffffffffffffffffffffffffffffff1673ffffffffffffffffffffffffffffffffffffffff16815260200190815260200160002060006101000a81548160ff02191690831515021790555042600760003373ffffffffffffffffffffffffffffffffffffffff1673ffffffffffffffffffffffffffffffffffffffff16815260200190815260200160002060009054906101000a900473ffffffffffffffffffffffffffffffffffffffff1673ffffffffffffffffffffffffffffffffffffffff163373ffffffffffffffffffffffffffffffffffffffff167f02d7c2d528e37f89d262715cd5ed5727bd92404af478372c95f9ea366558794a84604051610fce91906117f0565b60405180910390a450565b6000610fe4836110eb565b8015610ff65750610ff58383611138565b5b905092915050565b60006040517f3d602d80600a3d3981f3363d3d373d3d3d363d7300000000000000000000000081528260601b60148201527f5af43d82803e903d91602b57fd5bf3000000000000000000000000000000000060288201526037816000f0915050600073ffffffffffffffffffffffffffffffffffffffff168173ffffffffffffffffffffffffffffffffffffffff1614156110ce576040517f08c379a00000000000000000000000000000000000000000000000000000000081526004016110c5906118ec565b60405180910390fd5b919050565b60606110e28484600085611263565b90509392505050565b6000611117827f01ffc9a700000000000000000000000000000000000000000000000000000000611138565b8015611131575061112f8263ffffffff60e01b611138565b155b9050919050565b6000806301ffc9a760e01b83604051602401611154919061184f565b604051602081830303815290604052907bffffffffffffffffffffffffffffffffffffffffffffffffffffffff19166020820180517bffffffffffffffffffffffffffffffffffffffffffffffffffffffff838183161783525050505090506000808573ffffffffffffffffffffffffffffffffffffffff16617530846040516111de91906117d9565b6000604051808303818686fa925050503d806000811461121a576040519150601f19603f3d011682016040523d82523d6000602084013e61121f565b606091505b509150915060208151101561123a576000935050505061125d565b818015611257575080806020019051810190611256919061145b565b5b93505050505b92915050565b6060823073ffffffffffffffffffffffffffffffffffffffff163110156112bf576040517f08c379a00000000000000000000000000000000000000000000000000000000081526004016112b6906118cc565b60405180910390fd5b6112c88561138e565b611307576040517f08c379a00000000000000000000000000000000000000000000000000000000081526004016112fe9061196c565b60405180910390fd5b6000808673ffffffffffffffffffffffffffffffffffffffff16858760405161133091906117d9565b60006040518083038185875af1925050503d806000811461136d576040519150601f19603f3d011682016040523d82523d6000602084013e611372565b606091505b50915091506113828282866113a1565b92505050949350505050565b600080823b905060008111915050919050565b606083156113b157829050611401565b6000835111156113c45782518084602001fd5b816040517f08c379a00000000000000000000000000000000000000000000000000000000081526004016113f8919061186a565b60405180910390fd5b9392505050565b60008135905061141781611a6c565b92915050565b60008151905061142c81611a83565b92915050565b60006020828403121561144457600080fd5b600061145284828501611408565b91505092915050565b60006020828403121561146d57600080fd5b600061147b8482850161141d565b91505092915050565b61148d816119be565b82525050565b61149c816119d0565b82525050565b6114ab816119dc565b82525050565b60006114bc8261198c565b6114c681856119a2565b93506114d6818560208601611a28565b80840191505092915050565b60006114ed82611997565b6114f781856119ad565b9350611507818560208601611a28565b61151081611a5b565b840191505092915050565b6000611528601f836119ad565b91507f4f6e6c79204f6666657261626c65204964656e7469747920616c6c6f776564006000830152602082019050919050565b60006115686035836119ad565b91507f4964656e746974794d616e616765723a204964656e7469747920616c7265616460008301527f7920686173206265656e207265676973746572656400000000000000000000006020830152604082019050919050565b60006115ce6026836119ad565b91507f416464726573733a20696e73756666696369656e742062616c616e636520666f60008301527f722063616c6c00000000000000000000000000000000000000000000000000006020830152604082019050919050565b60006116346016836119ad565b91507f455243313136373a20637265617465206661696c6564000000000000000000006000830152602082019050919050565b6000611674602b836119ad565b91507f4964656e746974794d616e616765723a204f6e6c79204d616e61676572206f7760008301527f6e657220616c6c6f7765640000000000000000000000000000000000000000006020830152604082019050919050565b60006116da6028836119ad565b91507f4964656e746974794d616e616765723a204964656e74697479206973206e6f7460008301527f206f6666657265640000000000000000000000000000000000000000000000006020830152604082019050919050565b60006117406038836119ad565b91507f4964656e746974794d616e616765723a204e6f7420636f6d706c69616e74206960008301527f64656e746974792063616e2774206265206f66666572656400000000000000006020830152604082019050919050565b60006117a6601d836119ad565b91507f416464726573733a2063616c6c20746f206e6f6e2d636f6e74726163740000006000830152602082019050919050565b60006117e582846114b1565b915081905092915050565b60006020820190506118056000830184611484565b92915050565b60006040820190506118206000830185611484565b61182d6020830184611484565b9392505050565b60006020820190506118496000830184611493565b92915050565b600060208201905061186460008301846114a2565b92915050565b6000602082019050818103600083015261188481846114e2565b905092915050565b600060208201905081810360008301526118a58161151b565b9050919050565b600060208201905081810360008301526118c58161155b565b9050919050565b600060208201905081810360008301526118e5816115c1565b9050919050565b6000602082019050818103600083015261190581611627565b9050919050565b6000602082019050818103600083015261192581611667565b9050919050565b60006020820190508181036000830152611945816116cd565b9050919050565b6000602082019050818103600083015261196581611733565b9050919050565b6000602082019050818103600083015261198581611799565b9050919050565b600081519050919050565b600081519050919050565b600081905092915050565b600082825260208201905092915050565b60006119c982611a08565b9050919050565b60008115159050919050565b60007fffffffff0000000000000000000000000000000000000000000000000000000082169050919050565b600073ffffffffffffffffffffffffffffffffffffffff82169050919050565b60005b83811015611a46578082015181840152602081019050611a2b565b83811115611a55576000848401525b50505050565b6000601f19601f8301169050919050565b611a75816119be565b8114611a8057600080fd5b50565b611a8c816119d0565b8114611a9757600080fd5b5056fe4964656e746974794d616e616765723a2043616e277420696e697469616c697a6520636c6f6e6564206964656e74697479a26469706673582212205b8ae1cda646ac9ef5c7de6149ce42214d32e502b0c267fd3f5dea7477aa03b364736f6c63430008000033",
  "immutableReferences": {},
  "source": "pragma solidity 0.8.0;\n\nimport \"@openzeppelin/contracts/proxy/Clones.sol\";\nimport \"@openzeppelin/contracts/utils/Address.sol\";\nimport \"@openzeppelin/contracts/utils/introspection/ERC165Checker.sol\";\nimport \"./OfferableIdentity.sol\";\n\n\ncontract IdentityManager {\n  address libraryAddress;\n  address ethrRegistry;\n  address owner;\n  \n  bytes4 constant ERC165ID = bytes4(keccak256(\"supportsInterface(bytes4)\"));\n  bytes4 constant offerID = bytes4(keccak256(\"offer(address)\"));\n  bytes4 constant acceptOfferID = bytes4(keccak256(\"acceptOffer()\"));\n  bytes4 constant rejectOfferID = bytes4(keccak256(\"rejectOffer()\"));\n  bytes4 constant cancelOfferID = bytes4(keccak256(\"cancelOffer()\"));\n  bytes4 constant sendTxID = bytes4(keccak256(\"sendTransaction(bytes,address,uin256)\"));\n  bytes4 constant offerableID = offerID ^\n    acceptOfferID ^\n    rejectOfferID ^\n    cancelOfferID ^\n    sendTxID;\n  \n  mapping(address => bool) created;\n  mapping(address => bool) public verified;  \n  mapping(address => bool) public compliant;\n  mapping(address => bool) offered;\n  \n  mapping(address => address) public owners;\n\n  event IdentityCreated(address indexed identity, address indexed owner, uint256 indexed at);\n  event IdentityOffered(address indexed identity, address indexed owner, address offeredTo, uint256 indexed at);\n  event IdentityTransferred(address indexed identity, address indexed owner, uint256 indexed at);\n  event IdentityOfferRejected(address indexed identity, address owner, address indexed offeredTo, uint256 indexed at);\n  event IdentityOfferCanceled(address indexed identity, address indexed owner, address oferedto, uint256 indexed at);\n  \n  constructor() {\n    owner = msg.sender;\n  }\n\n  modifier isOwner() {\n    require(msg.sender == owner, \"IdentityManager: Only Manager owner allowed\");\n    _;\n  }\n  \n  modifier isOfferable() {\n    require(\n      ERC165Checker.supportsInterface(\n        msg.sender, offerableID),\n      \"Only Offerable Identity allowed\"\n    );\n    _;\n  }\n  \n  modifier isOffered() {\n    require(offered[msg.sender], \"IdentityManager: Identity is not offered\");\n    _;\n  }\n\n  function setLibraryAddress(address _libraryAddress) external isOwner {\n    libraryAddress = _libraryAddress;\n  }\n  \n  function setEthrRegistry(address _ethrRegistry) external isOwner {\n    ethrRegistry = _ethrRegistry; \n  }\n\n  function createIdentity(address _owner) external {\n    address identity = Clones.clone(libraryAddress);\n    created[identity] = true;\n    \n    bytes memory initData = abi.encodeWithSignature(\"init(address,address)\", _owner, ethrRegistry);    \n    Address.functionCall(identity, initData, \"IdentityManager: Can't initialize cloned identity\");\n  }\n  \n  function identityCreated(address _owner)\n    external\n    isOfferable\n  {\n    if (created[msg.sender]) {\n      verified[msg.sender] = true;      \n    }\n    else {\n      compliant[msg.sender] = true;\n    }\n    require(owners[msg.sender] == address(0), \"IdentityManager: Identity already has been registered\");\n    owners[msg.sender] = _owner;\n    emit IdentityCreated(msg.sender, _owner, block.timestamp);\n  }\n\n  function identityOffered(address _offeredTo)\n    external\n  {\n    require(verified[msg.sender] || compliant[msg.sender], \"IdentityManager: Not compliant identity can't be offered\");\n    offered[msg.sender] = true;\n    emit IdentityOffered(msg.sender, owners[msg.sender], _offeredTo, block.timestamp);\n  }\n\n  function identityAccepted(address _owner)\n    external \n    isOffered\n  {\n    offered[msg.sender] = false;\n    emit IdentityTransferred(msg.sender, _owner, block.timestamp);\n  }\n\n  function identityRejected(address _offeredTo)\n    external\n    isOffered\n  {\n    offered[msg.sender] = false;\n    emit IdentityOfferRejected(msg.sender, owners[msg.sender], _offeredTo, block.timestamp);\n  }\n\n  function identityOfferCanceled(address _offeredTo)\n    external\n    isOffered\n  {\n    offered[msg.sender] = false;\n    emit IdentityOfferCanceled(msg.sender, owners[msg.sender], _offeredTo, block.timestamp);\n  }\n}",
  "sourcePath": "/home/dima/Development/ew-did-registry/packages/proxyIdentity/contracts/IdentityManager.sol",
  "compiler": {
    "name": "solc",
    "version": "0.8.0+commit.c7dfd78e.Emscripten.clang"
  },
  "schemaVersion": "3.3.4",
  "updatedAt": "2021-03-31T08:08:41.303Z",
  "devdoc": {
    "kind": "dev",
    "methods": {},
    "version": 1
  },
  "userdoc": {
    "kind": "user",
    "methods": {},
    "version": 1
  }
}