{
  "contractName": "IdentityManager",
  "abi": [
    {
      "anonymous": false,
      "inputs": [
        {
          "indexed": false,
          "internalType": "address",
          "name": "identity",
          "type": "address"
        },
        {
          "indexed": false,
          "internalType": "address",
          "name": "owner",
          "type": "address"
        },
        {
          "indexed": false,
          "internalType": "uint256",
          "name": "at",
          "type": "uint256"
        }
      ],
      "name": "IdentityCreated",
      "type": "event"
    },
    {
      "anonymous": false,
      "inputs": [
        {
          "indexed": false,
          "internalType": "address",
          "name": "identity",
          "type": "address"
        },
        {
          "indexed": false,
          "internalType": "address",
          "name": "oferedto",
          "type": "address"
        },
        {
          "indexed": false,
          "internalType": "uint256",
          "name": "at",
          "type": "uint256"
        }
      ],
      "name": "IdentityOfferCanceled",
      "type": "event"
    },
    {
      "anonymous": false,
      "inputs": [
        {
          "indexed": false,
          "internalType": "address",
          "name": "identity",
          "type": "address"
        },
        {
          "indexed": false,
          "internalType": "address",
          "name": "offeredTo",
          "type": "address"
        },
        {
          "indexed": false,
          "internalType": "uint256",
          "name": "at",
          "type": "uint256"
        }
      ],
      "name": "IdentityOfferRejected",
      "type": "event"
    },
    {
      "anonymous": false,
      "inputs": [
        {
          "indexed": false,
          "internalType": "address",
          "name": "identity",
          "type": "address"
        },
        {
          "indexed": false,
          "internalType": "address",
          "name": "offeredTo",
          "type": "address"
        },
        {
          "indexed": false,
          "internalType": "uint256",
          "name": "at",
          "type": "uint256"
        }
      ],
      "name": "IdentityOffered",
      "type": "event"
    },
    {
      "anonymous": false,
      "inputs": [
        {
          "indexed": false,
          "internalType": "address",
          "name": "identity",
          "type": "address"
        },
        {
          "indexed": false,
          "internalType": "address",
          "name": "owner",
          "type": "address"
        },
        {
          "indexed": false,
          "internalType": "uint256",
          "name": "at",
          "type": "uint256"
        }
      ],
      "name": "IdentityTransferred",
      "type": "event"
    },
    {
      "inputs": [
        {
          "internalType": "address",
          "name": "identity",
          "type": "address"
        },
        {
          "internalType": "address",
          "name": "owner",
          "type": "address"
        }
      ],
      "name": "identityCreated",
      "outputs": [],
      "stateMutability": "nonpayable",
      "type": "function"
    },
    {
      "inputs": [
        {
          "internalType": "address",
          "name": "identity",
          "type": "address"
        },
        {
          "internalType": "address",
          "name": "offeredTo",
          "type": "address"
        }
      ],
      "name": "identityOffered",
      "outputs": [],
      "stateMutability": "nonpayable",
      "type": "function"
    },
    {
      "inputs": [
        {
          "internalType": "address",
          "name": "identity",
          "type": "address"
        },
        {
          "internalType": "address",
          "name": "owner",
          "type": "address"
        }
      ],
      "name": "identityAccepted",
      "outputs": [],
      "stateMutability": "nonpayable",
      "type": "function"
    },
    {
      "inputs": [
        {
          "internalType": "address",
          "name": "identity",
          "type": "address"
        },
        {
          "internalType": "address",
          "name": "offeredTo",
          "type": "address"
        }
      ],
      "name": "identityRejected",
      "outputs": [],
      "stateMutability": "nonpayable",
      "type": "function"
    },
    {
      "inputs": [
        {
          "internalType": "address",
          "name": "identity",
          "type": "address"
        },
        {
          "internalType": "address",
          "name": "offeredTo",
          "type": "address"
        }
      ],
      "name": "identityOfferCanceled",
      "outputs": [],
      "stateMutability": "nonpayable",
      "type": "function"
    }
  ],
  "bytecode": "0x608060405234801561001057600080fd5b50610623806100206000396000f3fe608060405234801561001057600080fd5b50600436106100575760003560e01c8063396eee9d1461005c57806370b29f9514610078578063b02c6dc214610094578063e3db3394146100b0578063f94a113c146100cc575b600080fd5b61007660048036038101906100719190610472565b6100e8565b005b610092600480360381019061008d9190610472565b610199565b005b6100ae60048036038101906100a99190610472565b61024a565b005b6100ca60048036038101906100c59190610472565b6102fb565b005b6100e660048036038101906100e19190610472565b6103ac565b005b33828073ffffffffffffffffffffffffffffffffffffffff168273ffffffffffffffffffffffffffffffffffffffff1614610158576040517f08c379a000000000000000000000000000000000000000000000000000000000815260040161014f90610569565b60405180910390fd5b7fb9fb8e551e2c1eca32cadcff5fba92a08c15e5fdb3d0b5b77b3c0c299cb6d4e084844260405161018b93929190610532565b60405180910390a150505050565b33828073ffffffffffffffffffffffffffffffffffffffff168273ffffffffffffffffffffffffffffffffffffffff1614610209576040517f08c379a000000000000000000000000000000000000000000000000000000000815260040161020090610569565b60405180910390fd5b7f935587b2ac44cbc8f19b54532d7d55c0bfb1f1d498f42f208eaf88fba9c65a6384844260405161023c93929190610532565b60405180910390a150505050565b33828073ffffffffffffffffffffffffffffffffffffffff168273ffffffffffffffffffffffffffffffffffffffff16146102ba576040517f08c379a00000000000000000000000000000000000000000000000000000000081526004016102b190610569565b60405180910390fd5b7fbbe0597fdd5bc2d135558aa31f17ef62089a93a9b1fe54ada49460932b638e4f8484426040516102ed93929190610532565b60405180910390a150505050565b33828073ffffffffffffffffffffffffffffffffffffffff168273ffffffffffffffffffffffffffffffffffffffff161461036b576040517f08c379a000000000000000000000000000000000000000000000000000000000815260040161036290610569565b60405180910390fd5b7f8e71f7bc7ebba20b12f08839f36b608d13edfe92797f897da323df31c532beab84844260405161039e93929190610532565b60405180910390a150505050565b33828073ffffffffffffffffffffffffffffffffffffffff168273ffffffffffffffffffffffffffffffffffffffff161461041c576040517f08c379a000000000000000000000000000000000000000000000000000000000815260040161041390610569565b60405180910390fd5b7faea7c47396665b9fd72ba56af8f5a91735fbeeb95bd61c38cd2d3992ed27a18684844260405161044f93929190610532565b60405180910390a150505050565b60008135905061046c816105d6565b92915050565b6000806040838503121561048557600080fd5b60006104938582860161045d565b92505060206104a48582860161045d565b9150509250929050565b6104b78161059a565b82525050565b60006104ca602d83610589565b91507f4964656e746974792063616c6c6261636b206d75737420626520696e766f6b6560008301527f64206279206964656e74697479000000000000000000000000000000000000006020830152604082019050919050565b61052c816105cc565b82525050565b600060608201905061054760008301866104ae565b61055460208301856104ae565b6105616040830184610523565b949350505050565b60006020820190508181036000830152610582816104bd565b9050919050565b600082825260208201905092915050565b60006105a5826105ac565b9050919050565b600073ffffffffffffffffffffffffffffffffffffffff82169050919050565b6000819050919050565b6105df8161059a565b81146105ea57600080fd5b5056fea26469706673582212205e39957f1508a74f4f436271098969872755678776fb3900ea9abf8977bfc4bb64736f6c63430008000033",
  "immutableReferences": {},
  "source": "pragma solidity 0.8.0;\n\n\ncontract IdentityManager {\n  event IdentityCreated(address identity, address owner, uint256 at);\n  event IdentityOffered(address identity, address offeredTo, uint256 at);\n  event IdentityTransferred(address identity, address owner, uint256 at);\n  event IdentityOfferRejected(address identity, address offeredTo, uint256 at);\n  event IdentityOfferCanceled(address identity, address oferedto, uint256 at);\n\n  modifier isIdentity(address sender, address identity) {\n    require(\n      sender == identity,\n      \"Identity callback must be invoked by identity\"\n    );\n    _;\n  }\n\n  function identityCreated(address identity, address owner)\n    external\n    isIdentity(msg.sender, identity)\n  {\n    emit IdentityCreated(identity, owner, block.timestamp);\n  }\n\n  function identityOffered(address identity, address offeredTo)\n    external\n    isIdentity(msg.sender, identity)\n  {\n    emit IdentityOffered(identity, offeredTo, block.timestamp);\n  }\n\n  function identityAccepted(address identity, address owner)\n    external\n    isIdentity(msg.sender, identity)\n  {\n    emit IdentityTransferred(identity, owner, block.timestamp);\n  }\n\n  function identityRejected(address identity, address offeredTo)\n    external\n    isIdentity(msg.sender, identity)\n  {\n    emit IdentityOfferRejected(identity, offeredTo, block.timestamp);\n  }\n\n  function identityOfferCanceled(address identity, address offeredTo)\n    external\n    isIdentity(msg.sender, identity)\n  {\n    emit IdentityOfferCanceled(identity, offeredTo, block.timestamp);\n  }\n}\n",
  "sourcePath": "/home/dima/Development/ew-did-registry/packages/proxyIdentity/contracts/IdentityManager.sol",
  "compiler": {
    "name": "solc",
    "version": "0.8.0+commit.c7dfd78e.Emscripten.clang"
  },
  "schemaVersion": "3.3.4",
  "updatedAt": "2021-03-19T12:53:10.568Z",
  "devdoc": {
    "kind": "dev",
    "methods": {},
    "version": 1
  },
  "userdoc": {
    "kind": "user",
    "methods": {},
    "version": 1
  }
}