{
  "contractName": "IdentityManager",
  "abi": [
    {
      "inputs": [],
      "stateMutability": "nonpayable",
      "type": "constructor"
    },
    {
      "anonymous": false,
      "inputs": [
        {
          "indexed": true,
          "internalType": "address",
          "name": "identity",
          "type": "address"
        },
        {
          "indexed": true,
          "internalType": "address",
          "name": "owner",
          "type": "address"
        },
        {
          "indexed": true,
          "internalType": "uint256",
          "name": "at",
          "type": "uint256"
        }
      ],
      "name": "IdentityCreated",
      "type": "event"
    },
    {
      "anonymous": false,
      "inputs": [
        {
          "indexed": true,
          "internalType": "address",
          "name": "identity",
          "type": "address"
        },
        {
          "indexed": true,
          "internalType": "address",
          "name": "owner",
          "type": "address"
        },
        {
          "indexed": false,
          "internalType": "address",
          "name": "oferedto",
          "type": "address"
        },
        {
          "indexed": true,
          "internalType": "uint256",
          "name": "at",
          "type": "uint256"
        }
      ],
      "name": "IdentityOfferCanceled",
      "type": "event"
    },
    {
      "anonymous": false,
      "inputs": [
        {
          "indexed": true,
          "internalType": "address",
          "name": "identity",
          "type": "address"
        },
        {
          "indexed": false,
          "internalType": "address",
          "name": "owner",
          "type": "address"
        },
        {
          "indexed": true,
          "internalType": "address",
          "name": "offeredTo",
          "type": "address"
        },
        {
          "indexed": true,
          "internalType": "uint256",
          "name": "at",
          "type": "uint256"
        }
      ],
      "name": "IdentityOfferRejected",
      "type": "event"
    },
    {
      "anonymous": false,
      "inputs": [
        {
          "indexed": true,
          "internalType": "address",
          "name": "identity",
          "type": "address"
        },
        {
          "indexed": true,
          "internalType": "address",
          "name": "owner",
          "type": "address"
        },
        {
          "indexed": false,
          "internalType": "address",
          "name": "offeredTo",
          "type": "address"
        },
        {
          "indexed": true,
          "internalType": "uint256",
          "name": "at",
          "type": "uint256"
        }
      ],
      "name": "IdentityOffered",
      "type": "event"
    },
    {
      "anonymous": false,
      "inputs": [
        {
          "indexed": true,
          "internalType": "address",
          "name": "identity",
          "type": "address"
        },
        {
          "indexed": true,
          "internalType": "address",
          "name": "owner",
          "type": "address"
        },
        {
          "indexed": true,
          "internalType": "uint256",
          "name": "at",
          "type": "uint256"
        }
      ],
      "name": "IdentityTransferred",
      "type": "event"
    },
    {
      "inputs": [
        {
          "internalType": "address",
          "name": "",
          "type": "address"
        }
      ],
      "name": "compliant",
      "outputs": [
        {
          "internalType": "bool",
          "name": "",
          "type": "bool"
        }
      ],
      "stateMutability": "view",
      "type": "function"
    },
    {
      "inputs": [
        {
          "internalType": "address",
          "name": "",
          "type": "address"
        }
      ],
      "name": "owners",
      "outputs": [
        {
          "internalType": "address",
          "name": "",
          "type": "address"
        }
      ],
      "stateMutability": "view",
      "type": "function"
    },
    {
      "inputs": [
        {
          "internalType": "address",
          "name": "",
          "type": "address"
        }
      ],
      "name": "verified",
      "outputs": [
        {
          "internalType": "bool",
          "name": "",
          "type": "bool"
        }
      ],
      "stateMutability": "view",
      "type": "function"
    },
    {
      "inputs": [
        {
          "internalType": "address",
          "name": "_libraryAddress",
          "type": "address"
        }
      ],
      "name": "setLibraryAddress",
      "outputs": [],
      "stateMutability": "nonpayable",
      "type": "function"
    },
    {
      "inputs": [
        {
          "internalType": "address",
          "name": "_ethrRegistry",
          "type": "address"
        }
      ],
      "name": "setEthrRegistry",
      "outputs": [],
      "stateMutability": "nonpayable",
      "type": "function"
    },
    {
      "inputs": [
        {
          "internalType": "address",
          "name": "_owner",
          "type": "address"
        }
      ],
      "name": "createIdentity",
      "outputs": [],
      "stateMutability": "nonpayable",
      "type": "function"
    },
    {
      "inputs": [
        {
          "internalType": "address",
          "name": "_owner",
          "type": "address"
        }
      ],
      "name": "identityCreated",
      "outputs": [],
      "stateMutability": "nonpayable",
      "type": "function"
    },
    {
      "inputs": [
        {
          "internalType": "address",
          "name": "_offeredTo",
          "type": "address"
        }
      ],
      "name": "identityOffered",
      "outputs": [],
      "stateMutability": "nonpayable",
      "type": "function"
    },
    {
      "inputs": [
        {
          "internalType": "address",
          "name": "_owner",
          "type": "address"
        }
      ],
      "name": "identityAccepted",
      "outputs": [],
      "stateMutability": "nonpayable",
      "type": "function"
    },
    {
      "inputs": [
        {
          "internalType": "address",
          "name": "_offeredTo",
          "type": "address"
        }
      ],
      "name": "identityRejected",
      "outputs": [],
      "stateMutability": "nonpayable",
      "type": "function"
    },
    {
      "inputs": [
        {
          "internalType": "address",
          "name": "_offeredTo",
          "type": "address"
        }
      ],
      "name": "identityOfferCanceled",
      "outputs": [],
      "stateMutability": "nonpayable",
      "type": "function"
    }
  ],
  "bytecode": "0x608060405234801561001057600080fd5b5033600260006101000a81548173ffffffffffffffffffffffffffffffffffffffff021916908373ffffffffffffffffffffffffffffffffffffffff160217905550611ad9806100616000396000f3fe608060405234801561001057600080fd5b50600436106100a95760003560e01c80635fa957df116100715780635fa957df14610162578063845de7bc1461017e578063d833d0431461019a578063ebdcd2eb146101ca578063f0ba4f60146101e6578063fab3157e14610202576100a9565b8063022914a7146100ae578063062960d4146100de5780630db065f4146100fa5780634863ba171461012a5780635b2ab06c14610146575b600080fd5b6100c860048036038101906100c391906113aa565b61021e565b6040516100d591906115c2565b60405180910390f35b6100f860048036038101906100f391906113aa565b610251565b005b610114600480360381019061010f91906113aa565b61056c565b6040516101219190611606565b60405180910390f35b610144600480360381019061013f91906113aa565b61058c565b005b610160600480360381019061015b91906113aa565b61065f565b005b61017c600480360381019061017791906113aa565b6107c3565b005b610198600480360381019061019391906113aa565b610897565b005b6101b460048036038101906101af91906113aa565b610a97565b6040516101c19190611606565b60405180910390f35b6101e460048036038101906101df91906113aa565b610ab7565b005b61020060048036038101906101fb91906113aa565b610bf9565b005b61021c600480360381019061021791906113aa565b610da5565b005b60076020528060005260406000206000915054906101000a900473ffffffffffffffffffffffffffffffffffffffff1681565b61027b337f6bf2034a00000000000000000000000000000000000000000000000000000000610f51565b6102ba576040517f08c379a00000000000000000000000000000000000000000000000000000000081526004016102b19061165e565b60405180910390fd5b600360003373ffffffffffffffffffffffffffffffffffffffff1673ffffffffffffffffffffffffffffffffffffffff16815260200190815260200160002060009054906101000a900460ff1615610369576001600460003373ffffffffffffffffffffffffffffffffffffffff1673ffffffffffffffffffffffffffffffffffffffff16815260200190815260200160002060006101000a81548160ff0219169083151502179055506103c2565b6001600560003373ffffffffffffffffffffffffffffffffffffffff1673ffffffffffffffffffffffffffffffffffffffff16815260200190815260200160002060006101000a81548160ff0219169083151502179055505b600073ffffffffffffffffffffffffffffffffffffffff16600760003373ffffffffffffffffffffffffffffffffffffffff1673ffffffffffffffffffffffffffffffffffffffff16815260200190815260200160002060009054906101000a900473ffffffffffffffffffffffffffffffffffffffff1673ffffffffffffffffffffffffffffffffffffffff1614610490576040517f08c379a00000000000000000000000000000000000000000000000000000000081526004016104879061167e565b60405180910390fd5b80600760003373ffffffffffffffffffffffffffffffffffffffff1673ffffffffffffffffffffffffffffffffffffffff16815260200190815260200160002060006101000a81548173ffffffffffffffffffffffffffffffffffffffff021916908373ffffffffffffffffffffffffffffffffffffffff160217905550428173ffffffffffffffffffffffffffffffffffffffff163373ffffffffffffffffffffffffffffffffffffffff167fb9fb8e551e2c1eca32cadcff5fba92a08c15e5fdb3d0b5b77b3c0c299cb6d4e060405160405180910390a450565b60046020528060005260406000206000915054906101000a900460ff1681565b600260009054906101000a900473ffffffffffffffffffffffffffffffffffffffff1673ffffffffffffffffffffffffffffffffffffffff163373ffffffffffffffffffffffffffffffffffffffff161461061c576040517f08c379a0000000000000000000000000000000000000000000000000000000008152600401610613906116de565b60405180910390fd5b806000806101000a81548173ffffffffffffffffffffffffffffffffffffffff021916908373ffffffffffffffffffffffffffffffffffffffff16021790555050565b600061068a60008054906101000a900473ffffffffffffffffffffffffffffffffffffffff16610f76565b90506001600360008373ffffffffffffffffffffffffffffffffffffffff1673ffffffffffffffffffffffffffffffffffffffff16815260200190815260200160002060006101000a81548160ff021916908315150217905550600082600160009054906101000a900473ffffffffffffffffffffffffffffffffffffffff1660405160240161071b9291906115dd565b6040516020818303038152906040527ff09a4016000000000000000000000000000000000000000000000000000000007bffffffffffffffffffffffffffffffffffffffffffffffffffffffff19166020820180517bffffffffffffffffffffffffffffffffffffffffffffffffffffffff838183161783525050505090506107bd8282604051806060016040528060318152602001611a736031913961104b565b50505050565b600260009054906101000a900473ffffffffffffffffffffffffffffffffffffffff1673ffffffffffffffffffffffffffffffffffffffff163373ffffffffffffffffffffffffffffffffffffffff1614610853576040517f08c379a000000000000000000000000000000000000000000000000000000000815260040161084a906116de565b60405180910390fd5b80600160006101000a81548173ffffffffffffffffffffffffffffffffffffffff021916908373ffffffffffffffffffffffffffffffffffffffff16021790555050565b600460003373ffffffffffffffffffffffffffffffffffffffff1673ffffffffffffffffffffffffffffffffffffffff16815260200190815260200160002060009054906101000a900460ff16806109385750600560003373ffffffffffffffffffffffffffffffffffffffff1673ffffffffffffffffffffffffffffffffffffffff16815260200190815260200160002060009054906101000a900460ff165b610977576040517f08c379a000000000000000000000000000000000000000000000000000000000815260040161096e9061171e565b60405180910390fd5b6001600660003373ffffffffffffffffffffffffffffffffffffffff1673ffffffffffffffffffffffffffffffffffffffff16815260200190815260200160002060006101000a81548160ff02191690831515021790555042600760003373ffffffffffffffffffffffffffffffffffffffff1673ffffffffffffffffffffffffffffffffffffffff16815260200190815260200160002060009054906101000a900473ffffffffffffffffffffffffffffffffffffffff1673ffffffffffffffffffffffffffffffffffffffff163373ffffffffffffffffffffffffffffffffffffffff167f06f60810783b48f561226446a054a0a69c6ed28d2dcc1fa121d1c8f75932d44b84604051610a8c91906115c2565b60405180910390a450565b60056020528060005260406000206000915054906101000a900460ff1681565b600660003373ffffffffffffffffffffffffffffffffffffffff1673ffffffffffffffffffffffffffffffffffffffff16815260200190815260200160002060009054906101000a900460ff16610b43576040517f08c379a0000000000000000000000000000000000000000000000000000000008152600401610b3a906116fe565b60405180910390fd5b6000600660003373ffffffffffffffffffffffffffffffffffffffff1673ffffffffffffffffffffffffffffffffffffffff16815260200190815260200160002060006101000a81548160ff021916908315150217905550428173ffffffffffffffffffffffffffffffffffffffff163373ffffffffffffffffffffffffffffffffffffffff167f935587b2ac44cbc8f19b54532d7d55c0bfb1f1d498f42f208eaf88fba9c65a6360405160405180910390a450565b600660003373ffffffffffffffffffffffffffffffffffffffff1673ffffffffffffffffffffffffffffffffffffffff16815260200190815260200160002060009054906101000a900460ff16610c85576040517f08c379a0000000000000000000000000000000000000000000000000000000008152600401610c7c906116fe565b60405180910390fd5b6000600660003373ffffffffffffffffffffffffffffffffffffffff1673ffffffffffffffffffffffffffffffffffffffff16815260200190815260200160002060006101000a81548160ff021916908315150217905550428173ffffffffffffffffffffffffffffffffffffffff163373ffffffffffffffffffffffffffffffffffffffff167ff8b19edda65b5d62bf5cffc44b06971c852691ffbdc99a3321d80ec842f1dc6d600760003373ffffffffffffffffffffffffffffffffffffffff1673ffffffffffffffffffffffffffffffffffffffff16815260200190815260200160002060009054906101000a900473ffffffffffffffffffffffffffffffffffffffff16604051610d9a91906115c2565b60405180910390a450565b600660003373ffffffffffffffffffffffffffffffffffffffff1673ffffffffffffffffffffffffffffffffffffffff16815260200190815260200160002060009054906101000a900460ff16610e31576040517f08c379a0000000000000000000000000000000000000000000000000000000008152600401610e28906116fe565b60405180910390fd5b6000600660003373ffffffffffffffffffffffffffffffffffffffff1673ffffffffffffffffffffffffffffffffffffffff16815260200190815260200160002060006101000a81548160ff02191690831515021790555042600760003373ffffffffffffffffffffffffffffffffffffffff1673ffffffffffffffffffffffffffffffffffffffff16815260200190815260200160002060009054906101000a900473ffffffffffffffffffffffffffffffffffffffff1673ffffffffffffffffffffffffffffffffffffffff163373ffffffffffffffffffffffffffffffffffffffff167f02d7c2d528e37f89d262715cd5ed5727bd92404af478372c95f9ea366558794a84604051610f4691906115c2565b60405180910390a450565b6000610f5c83611063565b8015610f6e5750610f6d83836110b0565b5b905092915050565b60006040517f3d602d80600a3d3981f3363d3d373d3d3d363d7300000000000000000000000081528260601b60148201527f5af43d82803e903d91602b57fd5bf3000000000000000000000000000000000060288201526037816000f0915050600073ffffffffffffffffffffffffffffffffffffffff168173ffffffffffffffffffffffffffffffffffffffff161415611046576040517f08c379a000000000000000000000000000000000000000000000000000000000815260040161103d906116be565b60405180910390fd5b919050565b606061105a84846000856111db565b90509392505050565b600061108f827f01ffc9a7000000000000000000000000000000000000000000000000000000006110b0565b80156110a957506110a78263ffffffff60e01b6110b0565b155b9050919050565b6000806301ffc9a760e01b836040516024016110cc9190611621565b604051602081830303815290604052907bffffffffffffffffffffffffffffffffffffffffffffffffffffffff19166020820180517bffffffffffffffffffffffffffffffffffffffffffffffffffffffff838183161783525050505090506000808573ffffffffffffffffffffffffffffffffffffffff166175308460405161115691906115ab565b6000604051808303818686fa925050503d8060008114611192576040519150601f19603f3d011682016040523d82523d6000602084013e611197565b606091505b50915091506020815110156111b257600093505050506111d5565b8180156111cf5750808060200190518101906111ce91906113d3565b5b93505050505b92915050565b6060823073ffffffffffffffffffffffffffffffffffffffff16311015611237576040517f08c379a000000000000000000000000000000000000000000000000000000000815260040161122e9061169e565b60405180910390fd5b61124085611306565b61127f576040517f08c379a00000000000000000000000000000000000000000000000000000000081526004016112769061173e565b60405180910390fd5b6000808673ffffffffffffffffffffffffffffffffffffffff1685876040516112a891906115ab565b60006040518083038185875af1925050503d80600081146112e5576040519150601f19603f3d011682016040523d82523d6000602084013e6112ea565b606091505b50915091506112fa828286611319565b92505050949350505050565b600080823b905060008111915050919050565b6060831561132957829050611379565b60008351111561133c5782518084602001fd5b816040517f08c379a0000000000000000000000000000000000000000000000000000000008152600401611370919061163c565b60405180910390fd5b9392505050565b60008135905061138f81611a44565b92915050565b6000815190506113a481611a5b565b92915050565b6000602082840312156113bc57600080fd5b60006113ca84828501611380565b91505092915050565b6000602082840312156113e557600080fd5b60006113f384828501611395565b91505092915050565b61140581611790565b82525050565b611414816117a2565b82525050565b611423816117ae565b82525050565b60006114348261175e565b61143e8185611774565b935061144e8185602086016117fa565b80840191505092915050565b600061146582611769565b61146f818561177f565b935061147f8185602086016117fa565b6114888161182d565b840191505092915050565b60006114a0601f8361177f565b91506114ab8261183e565b602082019050919050565b60006114c360358361177f565b91506114ce82611867565b604082019050919050565b60006114e660268361177f565b91506114f1826118b6565b604082019050919050565b600061150960168361177f565b915061151482611905565b602082019050919050565b600061152c602b8361177f565b91506115378261192e565b604082019050919050565b600061154f60288361177f565b915061155a8261197d565b604082019050919050565b600061157260388361177f565b915061157d826119cc565b604082019050919050565b6000611595601d8361177f565b91506115a082611a1b565b602082019050919050565b60006115b78284611429565b915081905092915050565b60006020820190506115d760008301846113fc565b92915050565b60006040820190506115f260008301856113fc565b6115ff60208301846113fc565b9392505050565b600060208201905061161b600083018461140b565b92915050565b6000602082019050611636600083018461141a565b92915050565b60006020820190508181036000830152611656818461145a565b905092915050565b6000602082019050818103600083015261167781611493565b9050919050565b60006020820190508181036000830152611697816114b6565b9050919050565b600060208201905081810360008301526116b7816114d9565b9050919050565b600060208201905081810360008301526116d7816114fc565b9050919050565b600060208201905081810360008301526116f78161151f565b9050919050565b6000602082019050818103600083015261171781611542565b9050919050565b6000602082019050818103600083015261173781611565565b9050919050565b6000602082019050818103600083015261175781611588565b9050919050565b600081519050919050565b600081519050919050565b600081905092915050565b600082825260208201905092915050565b600061179b826117da565b9050919050565b60008115159050919050565b60007fffffffff0000000000000000000000000000000000000000000000000000000082169050919050565b600073ffffffffffffffffffffffffffffffffffffffff82169050919050565b60005b838110156118185780820151818401526020810190506117fd565b83811115611827576000848401525b50505050565b6000601f19601f8301169050919050565b7f4f6e6c79204f6666657261626c65204964656e7469747920616c6c6f77656400600082015250565b7f4964656e746974794d616e616765723a204964656e7469747920616c7265616460008201527f7920686173206265656e20726567697374657265640000000000000000000000602082015250565b7f416464726573733a20696e73756666696369656e742062616c616e636520666f60008201527f722063616c6c0000000000000000000000000000000000000000000000000000602082015250565b7f455243313136373a20637265617465206661696c656400000000000000000000600082015250565b7f4964656e746974794d616e616765723a204f6e6c79204d616e61676572206f7760008201527f6e657220616c6c6f776564000000000000000000000000000000000000000000602082015250565b7f4964656e746974794d616e616765723a204964656e74697479206973206e6f7460008201527f206f666665726564000000000000000000000000000000000000000000000000602082015250565b7f4964656e746974794d616e616765723a204e6f7420636f6d706c69616e74206960008201527f64656e746974792063616e2774206265206f6666657265640000000000000000602082015250565b7f416464726573733a2063616c6c20746f206e6f6e2d636f6e7472616374000000600082015250565b611a4d81611790565b8114611a5857600080fd5b50565b611a64816117a2565b8114611a6f57600080fd5b5056fe4964656e746974794d616e616765723a2043616e277420696e697469616c697a6520636c6f6e6564206964656e74697479a26469706673582212204aa6463e8f29a1621bea31ea5d2d11f46d2ee52712a6d6c84e50008429a5bcc864736f6c63430008030033",
  "immutableReferences": {},
  "source": "pragma solidity 0.8.3;\n\nimport \"@openzeppelin/contracts/proxy/Clones.sol\";\nimport \"@openzeppelin/contracts/utils/Address.sol\";\nimport \"@openzeppelin/contracts/utils/introspection/ERC165Checker.sol\";\nimport \"./OfferableIdentity.sol\";\nimport \"./IOfferable.sol\";\n\n\ncontract IdentityManager {\n  address libraryAddress;\n  address ethrRegistry;\n  address owner;\n  \n  mapping(address => bool) created;\n  mapping(address => bool) public verified;  \n  mapping(address => bool) public compliant;\n  mapping(address => bool) offered;\n  \n  mapping(address => address) public owners;\n\n  event IdentityCreated(address indexed identity, address indexed owner, uint256 indexed at);\n  event IdentityOffered(address indexed identity, address indexed owner, address offeredTo, uint256 indexed at);\n  event IdentityTransferred(address indexed identity, address indexed owner, uint256 indexed at);\n  event IdentityOfferRejected(address indexed identity, address owner, address indexed offeredTo, uint256 indexed at);\n  event IdentityOfferCanceled(address indexed identity, address indexed owner, address oferedto, uint256 indexed at);\n  \n  constructor() {\n    owner = msg.sender;\n  }\n\n  modifier isOwner() {\n    require(msg.sender == owner, \"IdentityManager: Only Manager owner allowed\");\n    _;\n  }\n  \n  modifier isOfferable() {\n    require(\n      ERC165Checker.supportsInterface(\n        msg.sender, type(IOfferable).interfaceId\n      ),\n      \"Only Offerable Identity allowed\"\n    );\n    _;\n  }\n  \n  modifier isOffered() {\n    require(offered[msg.sender], \"IdentityManager: Identity is not offered\");\n    _;\n  }\n\n  function setLibraryAddress(address _libraryAddress) external isOwner {\n    libraryAddress = _libraryAddress;\n  }\n  \n  function setEthrRegistry(address _ethrRegistry) external isOwner {\n    ethrRegistry = _ethrRegistry; \n  }\n\n  function createIdentity(address _owner) external {\n    address identity = Clones.clone(libraryAddress);\n    created[identity] = true;\n    \n    bytes memory initData = abi.encodeWithSignature(\"init(address,address)\", _owner, ethrRegistry);    \n    Address.functionCall(identity, initData, \"IdentityManager: Can't initialize cloned identity\");\n  }\n  \n  function identityCreated(address _owner)\n    external\n    isOfferable\n  {\n    if (created[msg.sender]) {\n      verified[msg.sender] = true;      \n    }\n    else {\n      compliant[msg.sender] = true;\n    }\n    require(owners[msg.sender] == address(0), \"IdentityManager: Identity already has been registered\");\n    owners[msg.sender] = _owner;\n    emit IdentityCreated(msg.sender, _owner, block.timestamp);\n  }\n\n  function identityOffered(address _offeredTo)\n    external\n  {\n    require(verified[msg.sender] || compliant[msg.sender], \"IdentityManager: Not compliant identity can't be offered\");\n    offered[msg.sender] = true;\n    emit IdentityOffered(msg.sender, owners[msg.sender], _offeredTo, block.timestamp);\n  }\n\n  function identityAccepted(address _owner)\n    external \n    isOffered\n  {\n    offered[msg.sender] = false;\n    emit IdentityTransferred(msg.sender, _owner, block.timestamp);\n  }\n\n  function identityRejected(address _offeredTo)\n    external\n    isOffered\n  {\n    offered[msg.sender] = false;\n    emit IdentityOfferRejected(msg.sender, owners[msg.sender], _offeredTo, block.timestamp);\n  }\n\n  function identityOfferCanceled(address _offeredTo)\n    external\n    isOffered\n  {\n    offered[msg.sender] = false;\n    emit IdentityOfferCanceled(msg.sender, owners[msg.sender], _offeredTo, block.timestamp);\n  }\n}",
  "sourcePath": "/home/dima/Development/ew-did-registry/packages/proxyIdentity/contracts/IdentityManager.sol",
  "compiler": {
    "name": "solc",
    "version": "0.8.3+commit.8d00100c.Emscripten.clang"
  },
  "schemaVersion": "3.3.4",
  "updatedAt": "2021-04-02T07:23:05.058Z",
  "devdoc": {
    "kind": "dev",
    "methods": {},
    "version": 1
  },
  "userdoc": {
    "kind": "user",
    "methods": {},
    "version": 1
  }
}