{
  "contractName": "IdentityManager",
  "abi": [
    {
      "inputs": [],
      "stateMutability": "nonpayable",
      "type": "constructor"
    },
    {
      "anonymous": false,
      "inputs": [
        {
          "indexed": true,
          "internalType": "address",
          "name": "identity",
          "type": "address"
        },
        {
          "indexed": true,
          "internalType": "address",
          "name": "owner",
          "type": "address"
        },
        {
          "indexed": true,
          "internalType": "uint256",
          "name": "at",
          "type": "uint256"
        }
      ],
      "name": "IdentityCreated",
      "type": "event"
    },
    {
      "anonymous": false,
      "inputs": [
        {
          "indexed": true,
          "internalType": "address",
          "name": "identity",
          "type": "address"
        },
        {
          "indexed": true,
          "internalType": "address",
          "name": "owner",
          "type": "address"
        },
        {
          "indexed": false,
          "internalType": "address",
          "name": "oferedto",
          "type": "address"
        },
        {
          "indexed": true,
          "internalType": "uint256",
          "name": "at",
          "type": "uint256"
        }
      ],
      "name": "IdentityOfferCanceled",
      "type": "event"
    },
    {
      "anonymous": false,
      "inputs": [
        {
          "indexed": true,
          "internalType": "address",
          "name": "identity",
          "type": "address"
        },
        {
          "indexed": false,
          "internalType": "address",
          "name": "owner",
          "type": "address"
        },
        {
          "indexed": true,
          "internalType": "address",
          "name": "offeredTo",
          "type": "address"
        },
        {
          "indexed": true,
          "internalType": "uint256",
          "name": "at",
          "type": "uint256"
        }
      ],
      "name": "IdentityOfferRejected",
      "type": "event"
    },
    {
      "anonymous": false,
      "inputs": [
        {
          "indexed": true,
          "internalType": "address",
          "name": "identity",
          "type": "address"
        },
        {
          "indexed": true,
          "internalType": "address",
          "name": "owner",
          "type": "address"
        },
        {
          "indexed": false,
          "internalType": "address",
          "name": "offeredTo",
          "type": "address"
        },
        {
          "indexed": true,
          "internalType": "uint256",
          "name": "at",
          "type": "uint256"
        }
      ],
      "name": "IdentityOffered",
      "type": "event"
    },
    {
      "anonymous": false,
      "inputs": [
        {
          "indexed": true,
          "internalType": "address",
          "name": "identity",
          "type": "address"
        },
        {
          "indexed": true,
          "internalType": "address",
          "name": "owner",
          "type": "address"
        },
        {
          "indexed": true,
          "internalType": "uint256",
          "name": "at",
          "type": "uint256"
        }
      ],
      "name": "IdentityTransferred",
      "type": "event"
    },
    {
      "inputs": [
        {
          "internalType": "address",
          "name": "identity",
          "type": "address"
        }
      ],
      "name": "verified",
      "outputs": [
        {
          "internalType": "bool",
          "name": "",
          "type": "bool"
        }
      ],
      "stateMutability": "view",
      "type": "function"
    },
    {
      "inputs": [
        {
          "internalType": "address",
          "name": "identity",
          "type": "address"
        }
      ],
      "name": "compliant",
      "outputs": [
        {
          "internalType": "bool",
          "name": "",
          "type": "bool"
        }
      ],
      "stateMutability": "view",
      "type": "function"
    },
    {
      "inputs": [
        {
          "internalType": "address",
          "name": "identity",
          "type": "address"
        }
      ],
      "name": "identityOwner",
      "outputs": [
        {
          "internalType": "address",
          "name": "",
          "type": "address"
        }
      ],
      "stateMutability": "view",
      "type": "function"
    },
    {
      "inputs": [
        {
          "internalType": "address",
          "name": "_libraryAddress",
          "type": "address"
        }
      ],
      "name": "setLibraryAddress",
      "outputs": [],
      "stateMutability": "nonpayable",
      "type": "function"
    },
    {
      "inputs": [
        {
          "internalType": "address",
          "name": "_owner",
          "type": "address"
        }
      ],
      "name": "createIdentity",
      "outputs": [],
      "stateMutability": "nonpayable",
      "type": "function"
    },
    {
      "inputs": [
        {
          "internalType": "address",
          "name": "_owner",
          "type": "address"
        }
      ],
      "name": "identityCreated",
      "outputs": [],
      "stateMutability": "nonpayable",
      "type": "function"
    },
    {
      "inputs": [
        {
          "internalType": "address",
          "name": "_offeredTo",
          "type": "address"
        }
      ],
      "name": "identityOffered",
      "outputs": [],
      "stateMutability": "nonpayable",
      "type": "function"
    },
    {
      "inputs": [
        {
          "internalType": "address",
          "name": "_owner",
          "type": "address"
        }
      ],
      "name": "identityAccepted",
      "outputs": [],
      "stateMutability": "nonpayable",
      "type": "function"
    },
    {
      "inputs": [
        {
          "internalType": "address",
          "name": "_offeredTo",
          "type": "address"
        }
      ],
      "name": "identityRejected",
      "outputs": [],
      "stateMutability": "nonpayable",
      "type": "function"
    },
    {
      "inputs": [
        {
          "internalType": "address",
          "name": "_offeredTo",
          "type": "address"
        }
      ],
      "name": "identityOfferCanceled",
      "outputs": [],
      "stateMutability": "nonpayable",
      "type": "function"
    }
  ],
  "bytecode": "0x608060405234801561001057600080fd5b5033600160006101000a81548173ffffffffffffffffffffffffffffffffffffffff021916908373ffffffffffffffffffffffffffffffffffffffff1602179055506118ab806100616000396000f3fe608060405234801561001057600080fd5b506004361061009e5760003560e01c80638733d4e8116100665780638733d4e814610143578063d833d04314610173578063ebdcd2eb146101a3578063f0ba4f60146101bf578063fab3157e146101db5761009e565b8063062960d4146100a35780630db065f4146100bf5780634863ba17146100ef5780635b2ab06c1461010b578063845de7bc14610127575b600080fd5b6100bd60048036038101906100b891906111a5565b6101f7565b005b6100d960048036038101906100d491906111a5565b610480565b6040516100e691906113d8565b60405180910390f35b610109600480360381019061010491906111a5565b6104d9565b005b610125600480360381019061012091906111a5565b6105ac565b005b610141600480360381019061013c91906111a5565b61070c565b005b61015d600480360381019061015891906111a5565b610830565b60405161016a91906113bd565b60405180910390f35b61018d600480360381019061018891906111a5565b61089c565b60405161019a91906113d8565b60405180910390f35b6101bd60048036038101906101b891906111a5565b6108f5565b005b6101d960048036038101906101d491906111a5565b610a3d565b005b6101f560048036038101906101f091906111a5565b610b98565b005b610221337f22bd186d00000000000000000000000000000000000000000000000000000000610cf3565b610260576040517f08c379a000000000000000000000000000000000000000000000000000000000815260040161025790611430565b60405180910390fd5b61026933610d18565b156102ce576001600260003373ffffffffffffffffffffffffffffffffffffffff1673ffffffffffffffffffffffffffffffffffffffff16815260200190815260200160002060000160016101000a81548160ff02191690831515021790555061032a565b6001600260003373ffffffffffffffffffffffffffffffffffffffff1673ffffffffffffffffffffffffffffffffffffffff16815260200190815260200160002060000160026101000a81548160ff0219169083151502179055505b600073ffffffffffffffffffffffffffffffffffffffff1661034b33610830565b73ffffffffffffffffffffffffffffffffffffffff16146103a1576040517f08c379a000000000000000000000000000000000000000000000000000000000815260040161039890611450565b60405180910390fd5b80600260003373ffffffffffffffffffffffffffffffffffffffff1673ffffffffffffffffffffffffffffffffffffffff16815260200190815260200160002060000160046101000a81548173ffffffffffffffffffffffffffffffffffffffff021916908373ffffffffffffffffffffffffffffffffffffffff160217905550428173ffffffffffffffffffffffffffffffffffffffff163373ffffffffffffffffffffffffffffffffffffffff167fb9fb8e551e2c1eca32cadcff5fba92a08c15e5fdb3d0b5b77b3c0c299cb6d4e060405160405180910390a450565b6000600260008373ffffffffffffffffffffffffffffffffffffffff1673ffffffffffffffffffffffffffffffffffffffff16815260200190815260200160002060000160019054906101000a900460ff169050919050565b600160009054906101000a900473ffffffffffffffffffffffffffffffffffffffff1673ffffffffffffffffffffffffffffffffffffffff163373ffffffffffffffffffffffffffffffffffffffff1614610569576040517f08c379a0000000000000000000000000000000000000000000000000000000008152600401610560906114b0565b60405180910390fd5b806000806101000a81548173ffffffffffffffffffffffffffffffffffffffff021916908373ffffffffffffffffffffffffffffffffffffffff16021790555050565b60006105d760008054906101000a900473ffffffffffffffffffffffffffffffffffffffff16610d71565b90506001600260008373ffffffffffffffffffffffffffffffffffffffff1673ffffffffffffffffffffffffffffffffffffffff16815260200190815260200160002060000160006101000a81548160ff02191690831515021790555060006040518060400160405280600d81526020017f696e697428616464726573732900000000000000000000000000000000000000815250805190602001208360405160240161068491906113bd565b604051602081830303815290604052907bffffffffffffffffffffffffffffffffffffffffffffffffffffffff19166020820180517bffffffffffffffffffffffffffffffffffffffffffffffffffffffff83818316178352505050509050610706828260405180606001604052806031815260200161184560319139610e46565b50505050565b61071533610480565b8061072557506107243361089c565b5b610764576040517f08c379a000000000000000000000000000000000000000000000000000000000815260040161075b906114f0565b60405180910390fd5b6001600260003373ffffffffffffffffffffffffffffffffffffffff1673ffffffffffffffffffffffffffffffffffffffff16815260200190815260200160002060000160036101000a81548160ff021916908315150217905550426107c933610830565b73ffffffffffffffffffffffffffffffffffffffff163373ffffffffffffffffffffffffffffffffffffffff167f06f60810783b48f561226446a054a0a69c6ed28d2dcc1fa121d1c8f75932d44b8460405161082591906113bd565b60405180910390a450565b6000600260008373ffffffffffffffffffffffffffffffffffffffff1673ffffffffffffffffffffffffffffffffffffffff16815260200190815260200160002060000160049054906101000a900473ffffffffffffffffffffffffffffffffffffffff169050919050565b6000600260008373ffffffffffffffffffffffffffffffffffffffff1673ffffffffffffffffffffffffffffffffffffffff16815260200190815260200160002060000160029054906101000a900460ff169050919050565b600260003373ffffffffffffffffffffffffffffffffffffffff1673ffffffffffffffffffffffffffffffffffffffff16815260200190815260200160002060000160039054906101000a900460ff16610984576040517f08c379a000000000000000000000000000000000000000000000000000000000815260040161097b906114d0565b60405180910390fd5b6000600260003373ffffffffffffffffffffffffffffffffffffffff1673ffffffffffffffffffffffffffffffffffffffff16815260200190815260200160002060000160036101000a81548160ff021916908315150217905550428173ffffffffffffffffffffffffffffffffffffffff163373ffffffffffffffffffffffffffffffffffffffff167f935587b2ac44cbc8f19b54532d7d55c0bfb1f1d498f42f208eaf88fba9c65a6360405160405180910390a450565b600260003373ffffffffffffffffffffffffffffffffffffffff1673ffffffffffffffffffffffffffffffffffffffff16815260200190815260200160002060000160039054906101000a900460ff16610acc576040517f08c379a0000000000000000000000000000000000000000000000000000000008152600401610ac3906114d0565b60405180910390fd5b6000600260003373ffffffffffffffffffffffffffffffffffffffff1673ffffffffffffffffffffffffffffffffffffffff16815260200190815260200160002060000160036101000a81548160ff021916908315150217905550428173ffffffffffffffffffffffffffffffffffffffff163373ffffffffffffffffffffffffffffffffffffffff167ff8b19edda65b5d62bf5cffc44b06971c852691ffbdc99a3321d80ec842f1dc6d610b8033610830565b604051610b8d91906113bd565b60405180910390a450565b600260003373ffffffffffffffffffffffffffffffffffffffff1673ffffffffffffffffffffffffffffffffffffffff16815260200190815260200160002060000160039054906101000a900460ff16610c27576040517f08c379a0000000000000000000000000000000000000000000000000000000008152600401610c1e906114d0565b60405180910390fd5b6000600260003373ffffffffffffffffffffffffffffffffffffffff1673ffffffffffffffffffffffffffffffffffffffff16815260200190815260200160002060000160036101000a81548160ff02191690831515021790555042610c8c33610830565b73ffffffffffffffffffffffffffffffffffffffff163373ffffffffffffffffffffffffffffffffffffffff167f02d7c2d528e37f89d262715cd5ed5727bd92404af478372c95f9ea366558794a84604051610ce891906113bd565b60405180910390a450565b6000610cfe83610e5e565b8015610d105750610d0f8383610eab565b5b905092915050565b6000600260008373ffffffffffffffffffffffffffffffffffffffff1673ffffffffffffffffffffffffffffffffffffffff16815260200190815260200160002060000160009054906101000a900460ff169050919050565b60006040517f3d602d80600a3d3981f3363d3d373d3d3d363d7300000000000000000000000081528260601b60148201527f5af43d82803e903d91602b57fd5bf3000000000000000000000000000000000060288201526037816000f0915050600073ffffffffffffffffffffffffffffffffffffffff168173ffffffffffffffffffffffffffffffffffffffff161415610e41576040517f08c379a0000000000000000000000000000000000000000000000000000000008152600401610e3890611490565b60405180910390fd5b919050565b6060610e558484600085610fd6565b90509392505050565b6000610e8a827f01ffc9a700000000000000000000000000000000000000000000000000000000610eab565b8015610ea45750610ea28263ffffffff60e01b610eab565b155b9050919050565b6000806301ffc9a760e01b83604051602401610ec791906113f3565b604051602081830303815290604052907bffffffffffffffffffffffffffffffffffffffffffffffffffffffff19166020820180517bffffffffffffffffffffffffffffffffffffffffffffffffffffffff838183161783525050505090506000808573ffffffffffffffffffffffffffffffffffffffff1661753084604051610f5191906113a6565b6000604051808303818686fa925050503d8060008114610f8d576040519150601f19603f3d011682016040523d82523d6000602084013e610f92565b606091505b5091509150602081511015610fad5760009350505050610fd0565b818015610fca575080806020019051810190610fc991906111ce565b5b93505050505b92915050565b6060823073ffffffffffffffffffffffffffffffffffffffff16311015611032576040517f08c379a000000000000000000000000000000000000000000000000000000000815260040161102990611470565b60405180910390fd5b61103b85611101565b61107a576040517f08c379a000000000000000000000000000000000000000000000000000000000815260040161107190611510565b60405180910390fd5b6000808673ffffffffffffffffffffffffffffffffffffffff1685876040516110a391906113a6565b60006040518083038185875af1925050503d80600081146110e0576040519150601f19603f3d011682016040523d82523d6000602084013e6110e5565b606091505b50915091506110f5828286611114565b92505050949350505050565b600080823b905060008111915050919050565b6060831561112457829050611174565b6000835111156111375782518084602001fd5b816040517f08c379a000000000000000000000000000000000000000000000000000000000815260040161116b919061140e565b60405180910390fd5b9392505050565b60008135905061118a81611816565b92915050565b60008151905061119f8161182d565b92915050565b6000602082840312156111b757600080fd5b60006111c58482850161117b565b91505092915050565b6000602082840312156111e057600080fd5b60006111ee84828501611190565b91505092915050565b61120081611562565b82525050565b61120f81611574565b82525050565b61121e81611580565b82525050565b600061122f82611530565b6112398185611546565b93506112498185602086016115cc565b80840191505092915050565b60006112608261153b565b61126a8185611551565b935061127a8185602086016115cc565b611283816115ff565b840191505092915050565b600061129b601f83611551565b91506112a682611610565b602082019050919050565b60006112be603583611551565b91506112c982611639565b604082019050919050565b60006112e1602683611551565b91506112ec82611688565b604082019050919050565b6000611304601683611551565b915061130f826116d7565b602082019050919050565b6000611327602b83611551565b915061133282611700565b604082019050919050565b600061134a602883611551565b91506113558261174f565b604082019050919050565b600061136d603883611551565b91506113788261179e565b604082019050919050565b6000611390601d83611551565b915061139b826117ed565b602082019050919050565b60006113b28284611224565b915081905092915050565b60006020820190506113d260008301846111f7565b92915050565b60006020820190506113ed6000830184611206565b92915050565b60006020820190506114086000830184611215565b92915050565b600060208201905081810360008301526114288184611255565b905092915050565b600060208201905081810360008301526114498161128e565b9050919050565b60006020820190508181036000830152611469816112b1565b9050919050565b60006020820190508181036000830152611489816112d4565b9050919050565b600060208201905081810360008301526114a9816112f7565b9050919050565b600060208201905081810360008301526114c98161131a565b9050919050565b600060208201905081810360008301526114e98161133d565b9050919050565b6000602082019050818103600083015261150981611360565b9050919050565b6000602082019050818103600083015261152981611383565b9050919050565b600081519050919050565b600081519050919050565b600081905092915050565b600082825260208201905092915050565b600061156d826115ac565b9050919050565b60008115159050919050565b60007fffffffff0000000000000000000000000000000000000000000000000000000082169050919050565b600073ffffffffffffffffffffffffffffffffffffffff82169050919050565b60005b838110156115ea5780820151818401526020810190506115cf565b838111156115f9576000848401525b50505050565b6000601f19601f8301169050919050565b7f4f6e6c79204f6666657261626c65204964656e7469747920616c6c6f77656400600082015250565b7f4964656e746974794d616e616765723a204964656e7469747920616c7265616460008201527f7920686173206265656e20726567697374657265640000000000000000000000602082015250565b7f416464726573733a20696e73756666696369656e742062616c616e636520666f60008201527f722063616c6c0000000000000000000000000000000000000000000000000000602082015250565b7f455243313136373a20637265617465206661696c656400000000000000000000600082015250565b7f4964656e746974794d616e616765723a204f6e6c79204d616e61676572206f7760008201527f6e657220616c6c6f776564000000000000000000000000000000000000000000602082015250565b7f4964656e746974794d616e616765723a204964656e74697479206973206e6f7460008201527f206f666665726564000000000000000000000000000000000000000000000000602082015250565b7f4964656e746974794d616e616765723a204e6f7420636f6d706c69616e74206960008201527f64656e746974792063616e2774206265206f6666657265640000000000000000602082015250565b7f416464726573733a2063616c6c20746f206e6f6e2d636f6e7472616374000000600082015250565b61181f81611562565b811461182a57600080fd5b50565b61183681611574565b811461184157600080fd5b5056fe4964656e746974794d616e616765723a2043616e277420696e697469616c697a6520636c6f6e6564206964656e74697479a264697066735822122078cf43ba909f97a0a33dbb1ad317f932aa77314981533c5c328b8d38be6af8d964736f6c63430008030033",
  "immutableReferences": {},
  "source": "pragma solidity 0.8.3;\n\nimport \"@openzeppelin/contracts/proxy/Clones.sol\";\nimport \"@openzeppelin/contracts/utils/Address.sol\";\nimport \"@openzeppelin/contracts/utils/introspection/ERC165Checker.sol\";\nimport \"./OfferableIdentity.sol\";\nimport \"./IOfferable.sol\";\n\n\ncontract IdentityManager {\n  address libraryAddress;\n  address owner;\n  \n  bytes4 private constant INIT_SELECTOR = bytes4(keccak256(bytes('init(address)')));\n  \n  struct Identity {\n    bool created;\n    bool verified;\n    bool compliant;\n    bool offered;\n    address owner;\n  }\n  \n  mapping(address => Identity) identities;\n\n  event IdentityCreated(address indexed identity, address indexed owner, uint256 indexed at);\n  event IdentityOffered(address indexed identity, address indexed owner, address offeredTo, uint256 indexed at);\n  event IdentityTransferred(address indexed identity, address indexed owner, uint256 indexed at);\n  event IdentityOfferRejected(address indexed identity, address owner, address indexed offeredTo, uint256 indexed at);\n  event IdentityOfferCanceled(address indexed identity, address indexed owner, address oferedto, uint256 indexed at);\n  \n  constructor() {\n    owner = msg.sender;\n  }\n\n  modifier isOwner() {\n    require(msg.sender == owner, \"IdentityManager: Only Manager owner allowed\");\n    _;\n  }\n  \n  modifier isOfferable() {\n    require(\n      ERC165Checker.supportsInterface(\n        msg.sender, type(IOfferable).interfaceId\n      ),\n      \"Only Offerable Identity allowed\"\n    );\n    _;\n  }\n  \n  modifier isOffered() {\n    require(identities[msg.sender].offered, \"IdentityManager: Identity is not offered\");\n    _;\n  }\n  \n  function verified(address identity) public view returns (bool) {\n    return identities[identity].verified;\n  }\n\n  function compliant(address identity) public view returns (bool) {\n    return identities[identity].compliant;\n  }\n  \n  function created(address identity) internal view returns (bool) {\n    return identities[identity].created;\n  }\n  \n  function offered(address identity) internal view returns (bool) {\n    return identities[identity].offered;\n  }\n  \n  function identityOwner(address identity) public view returns (address) {\n    return identities[identity].owner;\n  }\n\n  function setLibraryAddress(address _libraryAddress) external isOwner {\n    libraryAddress = _libraryAddress;\n  }\n\n  function createIdentity(address _owner) external {\n    address identity = Clones.clone(libraryAddress);\n    identities[identity].created = true;\n    \n    bytes memory initData = abi.encodeWithSelector(INIT_SELECTOR, _owner);    \n    Address.functionCall(identity, initData, \"IdentityManager: Can't initialize cloned identity\");\n  }\n  \n  function identityCreated(address _owner)\n    external\n    isOfferable\n  {\n    if (created(msg.sender)) {\n      identities[msg.sender].verified = true;      \n    }\n    else {\n      identities[msg.sender].compliant = true;\n    }\n    require(identityOwner(msg.sender) == address(0), \"IdentityManager: Identity already has been registered\");\n    identities[msg.sender].owner = _owner;\n    emit IdentityCreated(msg.sender, _owner, block.timestamp);\n  }\n\n  function identityOffered(address _offeredTo)\n    external\n  {\n    require(verified(msg.sender) || compliant(msg.sender), \"IdentityManager: Not compliant identity can't be offered\");\n    identities[msg.sender].offered = true;\n    emit IdentityOffered(msg.sender, identityOwner(msg.sender), _offeredTo, block.timestamp);\n  }\n\n  function identityAccepted(address _owner)\n    external \n    isOffered\n  {\n    identities[msg.sender].offered = false;\n    emit IdentityTransferred(msg.sender, _owner, block.timestamp);\n  }\n\n  function identityRejected(address _offeredTo)\n    external\n    isOffered\n  {\n    identities[msg.sender].offered = false;\n    emit IdentityOfferRejected(msg.sender, identityOwner(msg.sender), _offeredTo, block.timestamp);\n  }\n\n  function identityOfferCanceled(address _offeredTo)\n    external\n    isOffered\n  {\n    identities[msg.sender].offered = false;\n    emit IdentityOfferCanceled(msg.sender, identityOwner(msg.sender), _offeredTo, block.timestamp);\n  }\n}",
  "sourcePath": "/home/dima/Development/ew-did-registry/packages/proxyIdentity/contracts/IdentityManager.sol",
  "compiler": {
    "name": "solc",
    "version": "0.8.3+commit.8d00100c.Emscripten.clang"
  },
  "schemaVersion": "3.3.4",
  "updatedAt": "2021-04-13T14:25:52.341Z",
  "devdoc": {
    "kind": "dev",
    "methods": {},
    "version": 1
  },
  "userdoc": {
    "kind": "user",
    "methods": {},
    "version": 1
  }
}