{
  "contractName": "IdentityManager",
  "abi": [
    {
      "inputs": [
        {
          "internalType": "address",
          "name": "_libraryAddress",
          "type": "address"
        }
      ],
      "stateMutability": "nonpayable",
      "type": "constructor"
    },
    {
      "anonymous": false,
      "inputs": [
        {
          "indexed": true,
          "internalType": "address",
          "name": "identity",
          "type": "address"
        },
        {
          "indexed": true,
          "internalType": "address",
          "name": "owner",
          "type": "address"
        },
        {
          "indexed": true,
          "internalType": "uint256",
          "name": "at",
          "type": "uint256"
        }
      ],
      "name": "IdentityCreated",
      "type": "event"
    },
    {
      "anonymous": false,
      "inputs": [
        {
          "indexed": true,
          "internalType": "address",
          "name": "identity",
          "type": "address"
        },
        {
          "indexed": true,
          "internalType": "address",
          "name": "owner",
          "type": "address"
        },
        {
          "indexed": false,
          "internalType": "address",
          "name": "oferedto",
          "type": "address"
        },
        {
          "indexed": true,
          "internalType": "uint256",
          "name": "at",
          "type": "uint256"
        }
      ],
      "name": "IdentityOfferCanceled",
      "type": "event"
    },
    {
      "anonymous": false,
      "inputs": [
        {
          "indexed": true,
          "internalType": "address",
          "name": "identity",
          "type": "address"
        },
        {
          "indexed": false,
          "internalType": "address",
          "name": "owner",
          "type": "address"
        },
        {
          "indexed": true,
          "internalType": "address",
          "name": "offeredTo",
          "type": "address"
        },
        {
          "indexed": true,
          "internalType": "uint256",
          "name": "at",
          "type": "uint256"
        }
      ],
      "name": "IdentityOfferRejected",
      "type": "event"
    },
    {
      "anonymous": false,
      "inputs": [
        {
          "indexed": true,
          "internalType": "address",
          "name": "identity",
          "type": "address"
        },
        {
          "indexed": true,
          "internalType": "address",
          "name": "owner",
          "type": "address"
        },
        {
          "indexed": false,
          "internalType": "address",
          "name": "offeredTo",
          "type": "address"
        },
        {
          "indexed": true,
          "internalType": "uint256",
          "name": "at",
          "type": "uint256"
        }
      ],
      "name": "IdentityOffered",
      "type": "event"
    },
    {
      "anonymous": false,
      "inputs": [
        {
          "indexed": true,
          "internalType": "address",
          "name": "identity",
          "type": "address"
        },
        {
          "indexed": true,
          "internalType": "address",
          "name": "owner",
          "type": "address"
        },
        {
          "indexed": true,
          "internalType": "uint256",
          "name": "at",
          "type": "uint256"
        }
      ],
      "name": "IdentityTransferred",
      "type": "event"
    },
    {
      "inputs": [
        {
          "internalType": "address",
          "name": "identity",
          "type": "address"
        }
      ],
      "name": "verified",
      "outputs": [
        {
          "internalType": "bool",
          "name": "",
          "type": "bool"
        }
      ],
      "stateMutability": "view",
      "type": "function"
    },
    {
      "inputs": [
        {
          "internalType": "address",
          "name": "identity",
          "type": "address"
        }
      ],
      "name": "compliant",
      "outputs": [
        {
          "internalType": "bool",
          "name": "",
          "type": "bool"
        }
      ],
      "stateMutability": "view",
      "type": "function"
    },
    {
      "inputs": [
        {
          "internalType": "address",
          "name": "identity",
          "type": "address"
        }
      ],
      "name": "identityOwner",
      "outputs": [
        {
          "internalType": "address",
          "name": "",
          "type": "address"
        }
      ],
      "stateMutability": "view",
      "type": "function"
    },
    {
      "inputs": [
        {
          "internalType": "address",
          "name": "_owner",
          "type": "address"
        }
      ],
      "name": "createIdentity",
      "outputs": [],
      "stateMutability": "nonpayable",
      "type": "function"
    },
    {
      "inputs": [
        {
          "internalType": "address",
          "name": "_owner",
          "type": "address"
        }
      ],
      "name": "identityCreated",
      "outputs": [],
      "stateMutability": "nonpayable",
      "type": "function"
    },
    {
      "inputs": [
        {
          "internalType": "address",
          "name": "_offeredTo",
          "type": "address"
        }
      ],
      "name": "identityOffered",
      "outputs": [],
      "stateMutability": "nonpayable",
      "type": "function"
    },
    {
      "inputs": [
        {
          "internalType": "address",
          "name": "_owner",
          "type": "address"
        }
      ],
      "name": "identityAccepted",
      "outputs": [],
      "stateMutability": "nonpayable",
      "type": "function"
    },
    {
      "inputs": [
        {
          "internalType": "address",
          "name": "_offeredTo",
          "type": "address"
        }
      ],
      "name": "identityRejected",
      "outputs": [],
      "stateMutability": "nonpayable",
      "type": "function"
    },
    {
      "inputs": [
        {
          "internalType": "address",
          "name": "_offeredTo",
          "type": "address"
        }
      ],
      "name": "identityOfferCanceled",
      "outputs": [],
      "stateMutability": "nonpayable",
      "type": "function"
    }
  ],
  "bytecode": "0x60806040523480156200001157600080fd5b50604051620018bb380380620018bb833981810160405281019062000037919062000095565b806000806101000a81548173ffffffffffffffffffffffffffffffffffffffff021916908373ffffffffffffffffffffffffffffffffffffffff160217905550506200010f565b6000815190506200008f81620000f5565b92915050565b600060208284031215620000a857600080fd5b6000620000b8848285016200007e565b91505092915050565b6000620000ce82620000d5565b9050919050565b600073ffffffffffffffffffffffffffffffffffffffff82169050919050565b6200010081620000c1565b81146200010c57600080fd5b50565b61179c806200011f6000396000f3fe608060405234801561001057600080fd5b50600436106100935760003560e01c80638733d4e8116100665780638733d4e81461011c578063d833d0431461014c578063ebdcd2eb1461017c578063f0ba4f6014610198578063fab3157e146101b457610093565b8063062960d4146100985780630db065f4146100b45780635b2ab06c146100e4578063845de7bc14610100575b600080fd5b6100b260048036038101906100ad9190611128565b6101d0565b005b6100ce60048036038101906100c99190611128565b610457565b6040516100db9190611338565b60405180910390f35b6100fe60048036038101906100f99190611128565b6104b0565b005b61011a60048036038101906101159190611128565b61060f565b005b61013660048036038101906101319190611128565b610732565b604051610143919061131d565b60405180910390f35b61016660048036038101906101619190611128565b61079e565b6040516101739190611338565b60405180910390f35b61019660048036038101906101919190611128565b6107f7565b005b6101b260048036038101906101ad9190611128565b6109c0565b005b6101ce60048036038101906101c99190611128565b610b1b565b005b6101fa337f22bd186d00000000000000000000000000000000000000000000000000000000610c76565b610239576040517f08c379a000000000000000000000000000000000000000000000000000000000815260040161023090611390565b60405180910390fd5b61024233610c9b565b156102a65760018060003373ffffffffffffffffffffffffffffffffffffffff1673ffffffffffffffffffffffffffffffffffffffff16815260200190815260200160002060000160016101000a81548160ff021916908315150217905550610301565b60018060003373ffffffffffffffffffffffffffffffffffffffff1673ffffffffffffffffffffffffffffffffffffffff16815260200190815260200160002060000160026101000a81548160ff0219169083151502179055505b600073ffffffffffffffffffffffffffffffffffffffff1661032233610732565b73ffffffffffffffffffffffffffffffffffffffff1614610378576040517f08c379a000000000000000000000000000000000000000000000000000000000815260040161036f906113b0565b60405180910390fd5b80600160003373ffffffffffffffffffffffffffffffffffffffff1673ffffffffffffffffffffffffffffffffffffffff16815260200190815260200160002060000160046101000a81548173ffffffffffffffffffffffffffffffffffffffff021916908373ffffffffffffffffffffffffffffffffffffffff160217905550428173ffffffffffffffffffffffffffffffffffffffff163373ffffffffffffffffffffffffffffffffffffffff167fb9fb8e551e2c1eca32cadcff5fba92a08c15e5fdb3d0b5b77b3c0c299cb6d4e060405160405180910390a450565b6000600160008373ffffffffffffffffffffffffffffffffffffffff1673ffffffffffffffffffffffffffffffffffffffff16815260200190815260200160002060000160019054906101000a900460ff169050919050565b60006104db60008054906101000a900473ffffffffffffffffffffffffffffffffffffffff16610cf4565b905060018060008373ffffffffffffffffffffffffffffffffffffffff1673ffffffffffffffffffffffffffffffffffffffff16815260200190815260200160002060000160006101000a81548160ff02191690831515021790555060006040518060400160405280600d81526020017f696e6974286164647265737329000000000000000000000000000000000000008152508051906020012083604051602401610587919061131d565b604051602081830303815290604052907bffffffffffffffffffffffffffffffffffffffffffffffffffffffff19166020820180517bffffffffffffffffffffffffffffffffffffffffffffffffffffffff83818316178352505050509050610609828260405180606001604052806031815260200161173660319139610dc9565b50505050565b61061833610457565b8061062857506106273361079e565b5b610667576040517f08c379a000000000000000000000000000000000000000000000000000000000815260040161065e90611430565b60405180910390fd5b60018060003373ffffffffffffffffffffffffffffffffffffffff1673ffffffffffffffffffffffffffffffffffffffff16815260200190815260200160002060000160036101000a81548160ff021916908315150217905550426106cb33610732565b73ffffffffffffffffffffffffffffffffffffffff163373ffffffffffffffffffffffffffffffffffffffff167f06f60810783b48f561226446a054a0a69c6ed28d2dcc1fa121d1c8f75932d44b84604051610727919061131d565b60405180910390a450565b6000600160008373ffffffffffffffffffffffffffffffffffffffff1673ffffffffffffffffffffffffffffffffffffffff16815260200190815260200160002060000160049054906101000a900473ffffffffffffffffffffffffffffffffffffffff169050919050565b6000600160008373ffffffffffffffffffffffffffffffffffffffff1673ffffffffffffffffffffffffffffffffffffffff16815260200190815260200160002060000160029054906101000a900460ff169050919050565b600160003373ffffffffffffffffffffffffffffffffffffffff1673ffffffffffffffffffffffffffffffffffffffff16815260200190815260200160002060000160039054906101000a900460ff16610886576040517f08c379a000000000000000000000000000000000000000000000000000000000815260040161087d90611410565b60405180910390fd5b80600160003373ffffffffffffffffffffffffffffffffffffffff1673ffffffffffffffffffffffffffffffffffffffff16815260200190815260200160002060000160046101000a81548173ffffffffffffffffffffffffffffffffffffffff021916908373ffffffffffffffffffffffffffffffffffffffff1602179055506000600160003373ffffffffffffffffffffffffffffffffffffffff1673ffffffffffffffffffffffffffffffffffffffff16815260200190815260200160002060000160036101000a81548160ff021916908315150217905550428173ffffffffffffffffffffffffffffffffffffffff163373ffffffffffffffffffffffffffffffffffffffff167f935587b2ac44cbc8f19b54532d7d55c0bfb1f1d498f42f208eaf88fba9c65a6360405160405180910390a450565b600160003373ffffffffffffffffffffffffffffffffffffffff1673ffffffffffffffffffffffffffffffffffffffff16815260200190815260200160002060000160039054906101000a900460ff16610a4f576040517f08c379a0000000000000000000000000000000000000000000000000000000008152600401610a4690611410565b60405180910390fd5b6000600160003373ffffffffffffffffffffffffffffffffffffffff1673ffffffffffffffffffffffffffffffffffffffff16815260200190815260200160002060000160036101000a81548160ff021916908315150217905550428173ffffffffffffffffffffffffffffffffffffffff163373ffffffffffffffffffffffffffffffffffffffff167ff8b19edda65b5d62bf5cffc44b06971c852691ffbdc99a3321d80ec842f1dc6d610b0333610732565b604051610b10919061131d565b60405180910390a450565b600160003373ffffffffffffffffffffffffffffffffffffffff1673ffffffffffffffffffffffffffffffffffffffff16815260200190815260200160002060000160039054906101000a900460ff16610baa576040517f08c379a0000000000000000000000000000000000000000000000000000000008152600401610ba190611410565b60405180910390fd5b6000600160003373ffffffffffffffffffffffffffffffffffffffff1673ffffffffffffffffffffffffffffffffffffffff16815260200190815260200160002060000160036101000a81548160ff02191690831515021790555042610c0f33610732565b73ffffffffffffffffffffffffffffffffffffffff163373ffffffffffffffffffffffffffffffffffffffff167f02d7c2d528e37f89d262715cd5ed5727bd92404af478372c95f9ea366558794a84604051610c6b919061131d565b60405180910390a450565b6000610c8183610de1565b8015610c935750610c928383610e2e565b5b905092915050565b6000600160008373ffffffffffffffffffffffffffffffffffffffff1673ffffffffffffffffffffffffffffffffffffffff16815260200190815260200160002060000160009054906101000a900460ff169050919050565b60006040517f3d602d80600a3d3981f3363d3d373d3d3d363d7300000000000000000000000081528260601b60148201527f5af43d82803e903d91602b57fd5bf3000000000000000000000000000000000060288201526037816000f0915050600073ffffffffffffffffffffffffffffffffffffffff168173ffffffffffffffffffffffffffffffffffffffff161415610dc4576040517f08c379a0000000000000000000000000000000000000000000000000000000008152600401610dbb906113f0565b60405180910390fd5b919050565b6060610dd88484600085610f59565b90509392505050565b6000610e0d827f01ffc9a700000000000000000000000000000000000000000000000000000000610e2e565b8015610e275750610e258263ffffffff60e01b610e2e565b155b9050919050565b6000806301ffc9a760e01b83604051602401610e4a9190611353565b604051602081830303815290604052907bffffffffffffffffffffffffffffffffffffffffffffffffffffffff19166020820180517bffffffffffffffffffffffffffffffffffffffffffffffffffffffff838183161783525050505090506000808573ffffffffffffffffffffffffffffffffffffffff1661753084604051610ed49190611306565b6000604051808303818686fa925050503d8060008114610f10576040519150601f19603f3d011682016040523d82523d6000602084013e610f15565b606091505b5091509150602081511015610f305760009350505050610f53565b818015610f4d575080806020019051810190610f4c9190611151565b5b93505050505b92915050565b6060823073ffffffffffffffffffffffffffffffffffffffff16311015610fb5576040517f08c379a0000000000000000000000000000000000000000000000000000000008152600401610fac906113d0565b60405180910390fd5b610fbe85611084565b610ffd576040517f08c379a0000000000000000000000000000000000000000000000000000000008152600401610ff490611450565b60405180910390fd5b6000808673ffffffffffffffffffffffffffffffffffffffff1685876040516110269190611306565b60006040518083038185875af1925050503d8060008114611063576040519150601f19603f3d011682016040523d82523d6000602084013e611068565b606091505b5091509150611078828286611097565b92505050949350505050565b600080823b905060008111915050919050565b606083156110a7578290506110f7565b6000835111156110ba5782518084602001fd5b816040517f08c379a00000000000000000000000000000000000000000000000000000000081526004016110ee919061136e565b60405180910390fd5b9392505050565b60008135905061110d81611707565b92915050565b6000815190506111228161171e565b92915050565b60006020828403121561113a57600080fd5b6000611148848285016110fe565b91505092915050565b60006020828403121561116357600080fd5b600061117184828501611113565b91505092915050565b611183816114a2565b82525050565b611192816114b4565b82525050565b6111a1816114c0565b82525050565b60006111b282611470565b6111bc8185611486565b93506111cc81856020860161150c565b80840191505092915050565b60006111e38261147b565b6111ed8185611491565b93506111fd81856020860161150c565b6112068161153f565b840191505092915050565b600061121e601f83611491565b915061122982611550565b602082019050919050565b6000611241603583611491565b915061124c82611579565b604082019050919050565b6000611264602683611491565b915061126f826115c8565b604082019050919050565b6000611287601683611491565b915061129282611617565b602082019050919050565b60006112aa602883611491565b91506112b582611640565b604082019050919050565b60006112cd603883611491565b91506112d88261168f565b604082019050919050565b60006112f0601d83611491565b91506112fb826116de565b602082019050919050565b600061131282846111a7565b915081905092915050565b6000602082019050611332600083018461117a565b92915050565b600060208201905061134d6000830184611189565b92915050565b60006020820190506113686000830184611198565b92915050565b6000602082019050818103600083015261138881846111d8565b905092915050565b600060208201905081810360008301526113a981611211565b9050919050565b600060208201905081810360008301526113c981611234565b9050919050565b600060208201905081810360008301526113e981611257565b9050919050565b600060208201905081810360008301526114098161127a565b9050919050565b600060208201905081810360008301526114298161129d565b9050919050565b60006020820190508181036000830152611449816112c0565b9050919050565b60006020820190508181036000830152611469816112e3565b9050919050565b600081519050919050565b600081519050919050565b600081905092915050565b600082825260208201905092915050565b60006114ad826114ec565b9050919050565b60008115159050919050565b60007fffffffff0000000000000000000000000000000000000000000000000000000082169050919050565b600073ffffffffffffffffffffffffffffffffffffffff82169050919050565b60005b8381101561152a57808201518184015260208101905061150f565b83811115611539576000848401525b50505050565b6000601f19601f8301169050919050565b7f4f6e6c79204f6666657261626c65204964656e7469747920616c6c6f77656400600082015250565b7f4964656e746974794d616e616765723a204964656e7469747920616c7265616460008201527f7920686173206265656e20726567697374657265640000000000000000000000602082015250565b7f416464726573733a20696e73756666696369656e742062616c616e636520666f60008201527f722063616c6c0000000000000000000000000000000000000000000000000000602082015250565b7f455243313136373a20637265617465206661696c656400000000000000000000600082015250565b7f4964656e746974794d616e616765723a204964656e74697479206973206e6f7460008201527f206f666665726564000000000000000000000000000000000000000000000000602082015250565b7f4964656e746974794d616e616765723a204e6f7420636f6d706c69616e74206960008201527f64656e746974792063616e2774206265206f6666657265640000000000000000602082015250565b7f416464726573733a2063616c6c20746f206e6f6e2d636f6e7472616374000000600082015250565b611710816114a2565b811461171b57600080fd5b50565b611727816114b4565b811461173257600080fd5b5056fe4964656e746974794d616e616765723a2043616e277420696e697469616c697a6520636c6f6e6564206964656e74697479a264697066735822122041e19c267f0b28c08a3eda183e1ad087266de078de30a0e7e574e126e044dbe164736f6c63430008030033",
  "immutableReferences": {},
  "source": "pragma solidity 0.8.3;\n\nimport \"@openzeppelin/contracts/proxy/Clones.sol\";\nimport \"@openzeppelin/contracts/utils/Address.sol\";\nimport \"@openzeppelin/contracts/utils/introspection/ERC165Checker.sol\";\nimport \"./OfferableIdentity.sol\";\nimport \"./IOfferable.sol\";\n\n\ncontract IdentityManager {\n  address libraryAddress;\n  \n  bytes4 private constant INIT_SELECTOR = bytes4(keccak256(bytes('init(address)')));\n  \n  struct Identity {\n    bool created;\n    bool verified;\n    bool compliant;\n    bool offered;\n    address owner;\n  }\n  \n  mapping(address => Identity) identities;\n\n  event IdentityCreated(address indexed identity, address indexed owner, uint256 indexed at);\n  event IdentityOffered(address indexed identity, address indexed owner, address offeredTo, uint256 indexed at);\n  event IdentityTransferred(address indexed identity, address indexed owner, uint256 indexed at);\n  event IdentityOfferRejected(address indexed identity, address owner, address indexed offeredTo, uint256 indexed at);\n  event IdentityOfferCanceled(address indexed identity, address indexed owner, address oferedto, uint256 indexed at);\n  \n  constructor(address _libraryAddress) {\n    libraryAddress = _libraryAddress;\n  }\n  \n  modifier isOfferable() {\n    require(\n      ERC165Checker.supportsInterface(\n        msg.sender, type(IOfferable).interfaceId\n      ),\n      \"Only Offerable Identity allowed\"\n    );\n    _;\n  }\n  \n  modifier isOffered() {\n    require(identities[msg.sender].offered, \"IdentityManager: Identity is not offered\");\n    _;\n  }\n  \n  function verified(address identity) public view returns (bool) {\n    return identities[identity].verified;\n  }\n\n  function compliant(address identity) public view returns (bool) {\n    return identities[identity].compliant;\n  }\n  \n  function created(address identity) internal view returns (bool) {\n    return identities[identity].created;\n  }\n  \n  function offered(address identity) internal view returns (bool) {\n    return identities[identity].offered;\n  }\n  \n  function identityOwner(address identity) public view returns (address) {\n    return identities[identity].owner;\n  }\n\n  function createIdentity(address _owner) external {\n    address identity = Clones.clone(libraryAddress);\n    identities[identity].created = true;\n    \n    bytes memory initData = abi.encodeWithSelector(INIT_SELECTOR, _owner);    \n    Address.functionCall(identity, initData, \"IdentityManager: Can't initialize cloned identity\");\n  }\n  \n  function identityCreated(address _owner)\n    external\n    isOfferable\n  {\n    if (created(msg.sender)) {\n      identities[msg.sender].verified = true;      \n    }\n    else {\n      identities[msg.sender].compliant = true;\n    }\n    require(identityOwner(msg.sender) == address(0), \"IdentityManager: Identity already has been registered\");\n    identities[msg.sender].owner = _owner;\n    emit IdentityCreated(msg.sender, _owner, block.timestamp);\n  }\n\n  function identityOffered(address _offeredTo)\n    external\n  {\n    require(verified(msg.sender) || compliant(msg.sender), \"IdentityManager: Not compliant identity can't be offered\");\n    identities[msg.sender].offered = true;\n    emit IdentityOffered(msg.sender, identityOwner(msg.sender), _offeredTo, block.timestamp);\n  }\n\n  function identityAccepted(address _owner)\n    external \n    isOffered\n  {\n    identities[msg.sender].owner = _owner;\n    identities[msg.sender].offered = false;\n    emit IdentityTransferred(msg.sender, _owner, block.timestamp);\n  }\n\n  function identityRejected(address _offeredTo)\n    external\n    isOffered\n  {\n    identities[msg.sender].offered = false;\n    emit IdentityOfferRejected(msg.sender, identityOwner(msg.sender), _offeredTo, block.timestamp);\n  }\n\n  function identityOfferCanceled(address _offeredTo)\n    external\n    isOffered\n  {\n    identities[msg.sender].offered = false;\n    emit IdentityOfferCanceled(msg.sender, identityOwner(msg.sender), _offeredTo, block.timestamp);\n  }\n}\n",
  "sourcePath": "/home/th0t-nz1ng/Coding/energyweb/ew-did-registry/packages/proxyIdentity/contracts/IdentityManager.sol",
  "compiler": {
    "name": "solc",
    "version": "0.8.3+commit.8d00100c.Emscripten.clang"
  },
  "schemaVersion": "3.4.1",
  "updatedAt": "2021-07-05T12:55:05.844Z",
  "devdoc": {
    "kind": "dev",
    "methods": {},
    "version": 1
  },
  "userdoc": {
    "kind": "user",
    "methods": {},
    "version": 1
  }
}