{
  "contractName": "OfferableIdentity",
  "abi": [
    {
      "anonymous": false,
      "inputs": [
        {
          "indexed": true,
          "internalType": "bytes",
          "name": "data",
          "type": "bytes"
        },
        {
          "indexed": true,
          "internalType": "uint256",
          "name": "value",
          "type": "uint256"
        }
      ],
      "name": "TransactionSent",
      "type": "event"
    },
    {
      "inputs": [],
      "name": "offeredTo",
      "outputs": [
        {
          "internalType": "address",
          "name": "",
          "type": "address"
        }
      ],
      "stateMutability": "view",
      "type": "function"
    },
    {
      "inputs": [],
      "name": "owner",
      "outputs": [
        {
          "internalType": "address",
          "name": "",
          "type": "address"
        }
      ],
      "stateMutability": "view",
      "type": "function"
    },
    {
      "inputs": [
        {
          "internalType": "address",
          "name": "_owner",
          "type": "address"
        },
        {
          "internalType": "address",
          "name": "_ethrRegistry",
          "type": "address"
        }
      ],
      "name": "init",
      "outputs": [],
      "stateMutability": "nonpayable",
      "type": "function"
    },
    {
      "inputs": [
        {
          "internalType": "address",
          "name": "_offeredTo",
          "type": "address"
        }
      ],
      "name": "offer",
      "outputs": [],
      "stateMutability": "nonpayable",
      "type": "function"
    },
    {
      "inputs": [],
      "name": "acceptOffer",
      "outputs": [],
      "stateMutability": "nonpayable",
      "type": "function"
    },
    {
      "inputs": [],
      "name": "rejectOffer",
      "outputs": [],
      "stateMutability": "nonpayable",
      "type": "function"
    },
    {
      "inputs": [],
      "name": "cancelOffer",
      "outputs": [],
      "stateMutability": "nonpayable",
      "type": "function"
    },
    {
      "inputs": [
        {
          "internalType": "bytes",
          "name": "_data",
          "type": "bytes"
        },
        {
          "internalType": "uint256",
          "name": "value",
          "type": "uint256"
        }
      ],
      "name": "update",
      "outputs": [
        {
          "internalType": "bool",
          "name": "success",
          "type": "bool"
        }
      ],
      "stateMutability": "nonpayable",
      "type": "function"
    },
    {
      "inputs": [
        {
          "internalType": "bytes4",
          "name": "interfaceId",
          "type": "bytes4"
        }
      ],
      "name": "supportsInterface",
      "outputs": [
        {
          "internalType": "bool",
          "name": "",
          "type": "bool"
        }
      ],
      "stateMutability": "view",
      "type": "function"
    }
  ],
  "bytecode": "0x608060405234801561001057600080fd5b50611322806100206000396000f3fe608060405234801561001057600080fd5b50600436106100935760003560e01c8063c3b4523411610066578063c3b452341461010e578063ce2d4aca1461013e578063eb62df611461015a578063efd998ad14610164578063f09a40161461016e57610093565b806301ffc9a71461009857806362d05c78146100c85780638da5cb5b146100d2578063918af2cf146100f0575b600080fd5b6100b260048036038101906100ad9190610e09565b61018a565b6040516100bf919061109f565b60405180910390f35b6100d0610204565b005b6100da61034b565b6040516100e79190611084565b60405180910390f35b6100f861036f565b6040516101059190611084565b60405180910390f35b61012860048036038101906101239190610e32565b610395565b604051610135919061109f565b60405180910390f35b61015860048036038101906101539190610da4565b6104b2565b005b610162610633565b005b61016c610870565b005b61018860048036038101906101839190610dcd565b610a4b565b005b60007f6bf2034a000000000000000000000000000000000000000000000000000000007bffffffffffffffffffffffffffffffffffffffffffffffffffffffff1916827bffffffffffffffffffffffffffffffffffffffffffffffffffffffff191614806101fd57506101fc82610c4f565b5b9050919050565b60008054906101000a900473ffffffffffffffffffffffffffffffffffffffff1673ffffffffffffffffffffffffffffffffffffffff163373ffffffffffffffffffffffffffffffffffffffff1614610292576040517f08c379a0000000000000000000000000000000000000000000000000000000008152600401610289906110fa565b60405180910390fd5b600160009054906101000a900473ffffffffffffffffffffffffffffffffffffffff1673ffffffffffffffffffffffffffffffffffffffff1663fab3157e600360009054906101000a900473ffffffffffffffffffffffffffffffffffffffff166040518263ffffffff1660e01b815260040161030f9190611084565b600060405180830381600087803b15801561032957600080fd5b505af115801561033d573d6000803e3d6000fd5b50505050610349610cb9565b565b60008054906101000a900473ffffffffffffffffffffffffffffffffffffffff1681565b600360009054906101000a900473ffffffffffffffffffffffffffffffffffffffff1681565b60008060009054906101000a900473ffffffffffffffffffffffffffffffffffffffff1673ffffffffffffffffffffffffffffffffffffffff163373ffffffffffffffffffffffffffffffffffffffff1614610426576040517f08c379a000000000000000000000000000000000000000000000000000000000815260040161041d906110fa565b60405180910390fd5b60008390506000815190506000600260009054906101000a900473ffffffffffffffffffffffffffffffffffffffff169050600080836020860188855af193508486604051610475919061106d565b60405180910390207f101abacb8de0d05456bbaf85756276fd0c5225e9ede84f539855df28aba51a7e60405160405180910390a350505092915050565b60008054906101000a900473ffffffffffffffffffffffffffffffffffffffff1673ffffffffffffffffffffffffffffffffffffffff163373ffffffffffffffffffffffffffffffffffffffff1614610540576040517f08c379a0000000000000000000000000000000000000000000000000000000008152600401610537906110fa565b60405180910390fd5b80600360006101000a81548173ffffffffffffffffffffffffffffffffffffffff021916908373ffffffffffffffffffffffffffffffffffffffff160217905550600160009054906101000a900473ffffffffffffffffffffffffffffffffffffffff1673ffffffffffffffffffffffffffffffffffffffff1663845de7bc600360009054906101000a900473ffffffffffffffffffffffffffffffffffffffff166040518263ffffffff1660e01b81526004016105fe9190611084565b600060405180830381600087803b15801561061857600080fd5b505af115801561062c573d6000803e3d6000fd5b5050505050565b600073ffffffffffffffffffffffffffffffffffffffff16600360009054906101000a900473ffffffffffffffffffffffffffffffffffffffff1673ffffffffffffffffffffffffffffffffffffffff1614156106c5576040517f08c379a00000000000000000000000000000000000000000000000000000000081526004016106bc9061111a565b60405180910390fd5b600360009054906101000a900473ffffffffffffffffffffffffffffffffffffffff1673ffffffffffffffffffffffffffffffffffffffff163373ffffffffffffffffffffffffffffffffffffffff1614610755576040517f08c379a000000000000000000000000000000000000000000000000000000000815260040161074c906110ba565b60405180910390fd5b600360009054906101000a900473ffffffffffffffffffffffffffffffffffffffff166000806101000a81548173ffffffffffffffffffffffffffffffffffffffff021916908373ffffffffffffffffffffffffffffffffffffffff160217905550600160009054906101000a900473ffffffffffffffffffffffffffffffffffffffff1673ffffffffffffffffffffffffffffffffffffffff1663ebdcd2eb600360009054906101000a900473ffffffffffffffffffffffffffffffffffffffff166040518263ffffffff1660e01b81526004016108349190611084565b600060405180830381600087803b15801561084e57600080fd5b505af1158015610862573d6000803e3d6000fd5b5050505061086e610cb9565b565b600073ffffffffffffffffffffffffffffffffffffffff16600360009054906101000a900473ffffffffffffffffffffffffffffffffffffffff1673ffffffffffffffffffffffffffffffffffffffff161415610902576040517f08c379a00000000000000000000000000000000000000000000000000000000081526004016108f99061111a565b60405180910390fd5b600360009054906101000a900473ffffffffffffffffffffffffffffffffffffffff1673ffffffffffffffffffffffffffffffffffffffff163373ffffffffffffffffffffffffffffffffffffffff1614610992576040517f08c379a0000000000000000000000000000000000000000000000000000000008152600401610989906110ba565b60405180910390fd5b600160009054906101000a900473ffffffffffffffffffffffffffffffffffffffff1673ffffffffffffffffffffffffffffffffffffffff1663f0ba4f60600360009054906101000a900473ffffffffffffffffffffffffffffffffffffffff166040518263ffffffff1660e01b8152600401610a0f9190611084565b600060405180830381600087803b158015610a2957600080fd5b505af1158015610a3d573d6000803e3d6000fd5b50505050610a49610cb9565b565b600073ffffffffffffffffffffffffffffffffffffffff16600160009054906101000a900473ffffffffffffffffffffffffffffffffffffffff1673ffffffffffffffffffffffffffffffffffffffff1614610adc576040517f08c379a0000000000000000000000000000000000000000000000000000000008152600401610ad3906110da565b60405180910390fd5b816000806101000a81548173ffffffffffffffffffffffffffffffffffffffff021916908373ffffffffffffffffffffffffffffffffffffffff16021790555033600160006101000a81548173ffffffffffffffffffffffffffffffffffffffff021916908373ffffffffffffffffffffffffffffffffffffffff16021790555080600260006101000a81548173ffffffffffffffffffffffffffffffffffffffff021916908373ffffffffffffffffffffffffffffffffffffffff160217905550600160009054906101000a900473ffffffffffffffffffffffffffffffffffffffff1673ffffffffffffffffffffffffffffffffffffffff1663062960d460008054906101000a900473ffffffffffffffffffffffffffffffffffffffff166040518263ffffffff1660e01b8152600401610c199190611084565b600060405180830381600087803b158015610c3357600080fd5b505af1158015610c47573d6000803e3d6000fd5b505050505050565b60007f01ffc9a7000000000000000000000000000000000000000000000000000000007bffffffffffffffffffffffffffffffffffffffffffffffffffffffff1916827bffffffffffffffffffffffffffffffffffffffffffffffffffffffff1916149050919050565b6000600360006101000a81548173ffffffffffffffffffffffffffffffffffffffff021916908373ffffffffffffffffffffffffffffffffffffffff160217905550565b6000610d10610d0b8461116b565b61113a565b905082815260208101848484011115610d2857600080fd5b610d33848285611236565b509392505050565b600081359050610d4a816112a7565b92915050565b600081359050610d5f816112be565b92915050565b600082601f830112610d7657600080fd5b8135610d86848260208601610cfd565b91505092915050565b600081359050610d9e816112d5565b92915050565b600060208284031215610db657600080fd5b6000610dc484828501610d3b565b91505092915050565b60008060408385031215610de057600080fd5b6000610dee85828601610d3b565b9250506020610dff85828601610d3b565b9150509250929050565b600060208284031215610e1b57600080fd5b6000610e2984828501610d50565b91505092915050565b60008060408385031215610e4557600080fd5b600083013567ffffffffffffffff811115610e5f57600080fd5b610e6b85828601610d65565b9250506020610e7c85828601610d8f565b9150509250929050565b610e8f816111c2565b82525050565b610e9e816111d4565b82525050565b6000610eaf8261119b565b610eb981856111a6565b9350610ec9818560208601611245565b80840191505092915050565b6000610ee26031836111b1565b91507f4f6666657261626c654964656e746974793a2050726f7879206f66666572656460008301527f20746f206f74686572206163636f756e740000000000000000000000000000006020830152604082019050919050565b6000610f486037836111b1565b91507f4f6666657261626c654964656e746974793a204964656e746974792063616e2060008301527f626520696e697469616c697a65206f6e6c79206f6e63650000000000000000006020830152604082019050919050565b6000610fae6025836111b1565b91507f4f6666657261626c654964656e746974793a204f6e6c79206f776e657220616c60008301527f6c6f7765640000000000000000000000000000000000000000000000000000006020830152604082019050919050565b60006110146027836111b1565b91507f4f6666657261626c654964656e746974793a2050726f7879206973206e6f742060008301527f6f666665726564000000000000000000000000000000000000000000000000006020830152604082019050919050565b60006110798284610ea4565b915081905092915050565b60006020820190506110996000830184610e86565b92915050565b60006020820190506110b46000830184610e95565b92915050565b600060208201905081810360008301526110d381610ed5565b9050919050565b600060208201905081810360008301526110f381610f3b565b9050919050565b6000602082019050818103600083015261111381610fa1565b9050919050565b6000602082019050818103600083015261113381611007565b9050919050565b6000604051905081810181811067ffffffffffffffff8211171561116157611160611278565b5b8060405250919050565b600067ffffffffffffffff82111561118657611185611278565b5b601f19601f8301169050602081019050919050565b600081519050919050565b600081905092915050565b600082825260208201905092915050565b60006111cd8261120c565b9050919050565b60008115159050919050565b60007fffffffff0000000000000000000000000000000000000000000000000000000082169050919050565b600073ffffffffffffffffffffffffffffffffffffffff82169050919050565b6000819050919050565b82818337600083830152505050565b60005b83811015611263578082015181840152602081019050611248565b83811115611272576000848401525b50505050565b7f4e487b7100000000000000000000000000000000000000000000000000000000600052604160045260246000fd5b6112b0816111c2565b81146112bb57600080fd5b50565b6112c7816111e0565b81146112d257600080fd5b50565b6112de8161122c565b81146112e957600080fd5b5056fea264697066735822122001f52be3ca5290c718d32895d46532e1d70f105d6f52343cc57c086e67f7c00464736f6c63430008000033",
  "immutableReferences": {},
  "source": "pragma solidity 0.8.0;\n\nimport \"@openzeppelin/contracts/utils/introspection/ERC165.sol\";\nimport \"./IdentityManager.sol\";\nimport \"./IOfferable.sol\";\n\n\ncontract OfferableIdentity is IOfferable, ERC165 {\n  address public owner;\n  address manager;\n  address ethrRegistry;\n\n  // bytes4 constant offerID = bytes4(keccak256(\"offer(address)\"));\n  // bytes4 constant acceptOfferID = bytes4(keccak256(\"acceptOffer()\"));\n  // bytes4 constant rejectOfferID = bytes4(keccak256(\"rejectOffer()\"));\n  // bytes4 constant cancelOfferID = bytes4(keccak256(\"cancelOffer()\"));\n  // bytes4 constant sendTxID = bytes4(\n  //   keccak256(\"sendTransaction(bytes,address,uin256)\")\n  // );\n  // bytes4 constant offerableID = offerID ^\n  //   acceptOfferID ^\n  //   rejectOfferID ^\n  //   cancelOfferID ^\n  //   sendTxID;\n\n  address public offeredTo;\n\n  event TransactionSent(\n    bytes indexed data,\n    uint256 indexed value\n  );\n\n  function init(address _owner, address _ethrRegistry) external {\n    require(manager == address(0), \"OfferableIdentity: Identity can be initialize only once\");\n    owner = _owner;\n    manager = msg.sender;\n    ethrRegistry = _ethrRegistry;\n    IdentityManager(manager).identityCreated(owner);\n  }\n\n  modifier isOwner() {\n    require(msg.sender == owner, \"OfferableIdentity: Only owner allowed\");\n    _;\n  }\n\n  modifier isOfferedTo() {\n    require(offeredTo != address(0), \"OfferableIdentity: Proxy is not offered\");\n    require(msg.sender == offeredTo, \"OfferableIdentity: Proxy offered to other account\");\n    _;\n  }\n\n  function offer(address _offeredTo) external override isOwner {\n    offeredTo = _offeredTo;\n    IdentityManager(manager).identityOffered(offeredTo);\n  }\n\n  function acceptOffer() external override isOfferedTo {\n    owner = offeredTo;\n    IdentityManager(manager).identityAccepted(offeredTo);\n    closeOffer();\n  }\n\n  function rejectOffer() external override isOfferedTo {\n    IdentityManager(manager).identityRejected(offeredTo);\n    closeOffer();\n  }\n\n  function cancelOffer() external override isOwner {\n    IdentityManager(manager).identityOfferCanceled(offeredTo);\n    closeOffer();\n  }\n\n  function closeOffer() internal {\n    offeredTo = address(0);\n  }\n\n  function update(bytes memory _data, uint256 value)\n    external\n    override\n    isOwner\n    returns (bool success)\n  {\n    bytes memory data = _data;\n    uint256 len = data.length;\n    address _ethrRegistry = ethrRegistry; \n    // solium-disable-next-line security/no-inline-assembly\n    assembly {\n      success := call(gas(), _ethrRegistry, value, add(data, 0x20), len, 0, 0)\n    }\n    emit TransactionSent(_data, value);\n  }\n  \n  function supportsInterface(bytes4 interfaceId)\n    public\n    view\n    virtual\n    override\n    returns (bool)\n  {\n    return interfaceId == type(IOfferable).interfaceId || super.supportsInterface(interfaceId);\n  }\n}\n",
  "sourcePath": "/home/dima/Development/ew-did-registry/packages/proxyIdentity/contracts/OfferableIdentity.sol",
  "compiler": {
    "name": "solc",
    "version": "0.8.0+commit.c7dfd78e.Emscripten.clang"
  },
  "schemaVersion": "3.3.4",
  "updatedAt": "2021-04-01T06:44:45.874Z",
  "devdoc": {
    "kind": "dev",
    "methods": {
      "supportsInterface(bytes4)": {
        "details": "See {IERC165-supportsInterface}."
      }
    },
    "version": 1
  },
  "userdoc": {
    "kind": "user",
    "methods": {},
    "version": 1
  }
}