{
  "contractName": "OfferableIdentity",
  "abi": [
    {
      "inputs": [
        {
          "internalType": "address",
          "name": "_owner",
          "type": "address"
        },
        {
          "internalType": "address",
          "name": "_manager",
          "type": "address"
        }
      ],
      "stateMutability": "nonpayable",
      "type": "constructor"
    },
    {
      "anonymous": false,
      "inputs": [
        {
          "indexed": false,
          "internalType": "bytes",
          "name": "data",
          "type": "bytes"
        },
        {
          "indexed": false,
          "internalType": "address",
          "name": "to",
          "type": "address"
        },
        {
          "indexed": false,
          "internalType": "uint256",
          "name": "value",
          "type": "uint256"
        }
      ],
      "name": "TransactionSent",
      "type": "event"
    },
    {
      "inputs": [],
      "name": "offeredTo",
      "outputs": [
        {
          "internalType": "address",
          "name": "",
          "type": "address"
        }
      ],
      "stateMutability": "view",
      "type": "function"
    },
    {
      "inputs": [],
      "name": "owner",
      "outputs": [
        {
          "internalType": "address",
          "name": "",
          "type": "address"
        }
      ],
      "stateMutability": "view",
      "type": "function"
    },
    {
      "inputs": [
        {
          "internalType": "address",
          "name": "_offeredTo",
          "type": "address"
        }
      ],
      "name": "offer",
      "outputs": [],
      "stateMutability": "nonpayable",
      "type": "function"
    },
    {
      "inputs": [],
      "name": "acceptOffer",
      "outputs": [],
      "stateMutability": "nonpayable",
      "type": "function"
    },
    {
      "inputs": [],
      "name": "rejectOffer",
      "outputs": [],
      "stateMutability": "nonpayable",
      "type": "function"
    },
    {
      "inputs": [],
      "name": "cancelOffer",
      "outputs": [],
      "stateMutability": "nonpayable",
      "type": "function"
    },
    {
      "inputs": [
        {
          "internalType": "bytes",
          "name": "_data",
          "type": "bytes"
        },
        {
          "internalType": "address",
          "name": "to",
          "type": "address"
        },
        {
          "internalType": "uint256",
          "name": "value",
          "type": "uint256"
        }
      ],
      "name": "sendTransaction",
      "outputs": [
        {
          "internalType": "bool",
          "name": "success",
          "type": "bool"
        }
      ],
      "stateMutability": "nonpayable",
      "type": "function"
    }
  ],
  "bytecode": "0x60806040523480156200001157600080fd5b50604051620010f4380380620010f483398181016040528101906200003791906200018a565b816000806101000a81548173ffffffffffffffffffffffffffffffffffffffff021916908373ffffffffffffffffffffffffffffffffffffffff16021790555080600160006101000a81548173ffffffffffffffffffffffffffffffffffffffff021916908373ffffffffffffffffffffffffffffffffffffffff160217905550600160009054906101000a900473ffffffffffffffffffffffffffffffffffffffff1673ffffffffffffffffffffffffffffffffffffffff1663396eee9d3060008054906101000a900473ffffffffffffffffffffffffffffffffffffffff166040518363ffffffff1660e01b815260040162000137929190620001dc565b600060405180830381600087803b1580156200015257600080fd5b505af115801562000167573d6000803e3d6000fd5b50505050505062000257565b60008151905062000184816200023d565b92915050565b600080604083850312156200019e57600080fd5b6000620001ae8582860162000173565b9250506020620001c18582860162000173565b9150509250929050565b620001d68162000209565b82525050565b6000604082019050620001f36000830185620001cb565b620002026020830184620001cb565b9392505050565b600062000216826200021d565b9050919050565b600073ffffffffffffffffffffffffffffffffffffffff82169050919050565b620002488162000209565b81146200025457600080fd5b50565b610e8d80620002676000396000f3fe608060405234801561001057600080fd5b506004361061007d5760003560e01c8063bbc018571161005b578063bbc01857146100c8578063ce2d4aca146100f8578063eb62df6114610114578063efd998ad1461011e5761007d565b806362d05c78146100825780638da5cb5b1461008c578063918af2cf146100aa575b600080fd5b61008a610128565b005b610094610271565b6040516100a19190610bd4565b60405180910390f35b6100b2610295565b6040516100bf9190610bd4565b60405180910390f35b6100e260048036038101906100dd9190610a47565b6102bb565b6040516100ef9190610c18565b60405180910390f35b610112600480360381019061010d9190610a1e565b6103a9565b005b61011c61052c565b005b61012661076b565b005b60008054906101000a900473ffffffffffffffffffffffffffffffffffffffff1673ffffffffffffffffffffffffffffffffffffffff163373ffffffffffffffffffffffffffffffffffffffff16146101b6576040517f08c379a00000000000000000000000000000000000000000000000000000000081526004016101ad90610cb1565b60405180910390fd5b6101be610948565b600160009054906101000a900473ffffffffffffffffffffffffffffffffffffffff1673ffffffffffffffffffffffffffffffffffffffff1663f94a113c30600260009054906101000a900473ffffffffffffffffffffffffffffffffffffffff166040518363ffffffff1660e01b815260040161023d929190610bef565b600060405180830381600087803b15801561025757600080fd5b505af115801561026b573d6000803e3d6000fd5b50505050565b60008054906101000a900473ffffffffffffffffffffffffffffffffffffffff1681565b600260009054906101000a900473ffffffffffffffffffffffffffffffffffffffff1681565b60008060009054906101000a900473ffffffffffffffffffffffffffffffffffffffff1673ffffffffffffffffffffffffffffffffffffffff163373ffffffffffffffffffffffffffffffffffffffff161461034c576040517f08c379a000000000000000000000000000000000000000000000000000000000815260040161034390610cb1565b60405180910390fd5b6000849050600081519050600080826020850187895af192507f7e4155ee9daec547578a255f7495bc08f38796f4d4a3be4ed7189f4fc55cb18586868660405161039893929190610c33565b60405180910390a150509392505050565b60008054906101000a900473ffffffffffffffffffffffffffffffffffffffff1673ffffffffffffffffffffffffffffffffffffffff163373ffffffffffffffffffffffffffffffffffffffff1614610437576040517f08c379a000000000000000000000000000000000000000000000000000000000815260040161042e90610cb1565b60405180910390fd5b80600260006101000a81548173ffffffffffffffffffffffffffffffffffffffff021916908373ffffffffffffffffffffffffffffffffffffffff160217905550600160009054906101000a900473ffffffffffffffffffffffffffffffffffffffff1673ffffffffffffffffffffffffffffffffffffffff1663e3db339430600260009054906101000a900473ffffffffffffffffffffffffffffffffffffffff166040518363ffffffff1660e01b81526004016104f7929190610bef565b600060405180830381600087803b15801561051157600080fd5b505af1158015610525573d6000803e3d6000fd5b5050505050565b600073ffffffffffffffffffffffffffffffffffffffff16600260009054906101000a900473ffffffffffffffffffffffffffffffffffffffff1673ffffffffffffffffffffffffffffffffffffffff1614156105be576040517f08c379a00000000000000000000000000000000000000000000000000000000081526004016105b590610c91565b60405180910390fd5b600260009054906101000a900473ffffffffffffffffffffffffffffffffffffffff1673ffffffffffffffffffffffffffffffffffffffff163373ffffffffffffffffffffffffffffffffffffffff161461064e576040517f08c379a000000000000000000000000000000000000000000000000000000000815260040161064590610c71565b60405180910390fd5b600260009054906101000a900473ffffffffffffffffffffffffffffffffffffffff166000806101000a81548173ffffffffffffffffffffffffffffffffffffffff021916908373ffffffffffffffffffffffffffffffffffffffff160217905550600160009054906101000a900473ffffffffffffffffffffffffffffffffffffffff1673ffffffffffffffffffffffffffffffffffffffff166370b29f9530600260009054906101000a900473ffffffffffffffffffffffffffffffffffffffff166040518363ffffffff1660e01b815260040161072f929190610bef565b600060405180830381600087803b15801561074957600080fd5b505af115801561075d573d6000803e3d6000fd5b50505050610769610948565b565b600073ffffffffffffffffffffffffffffffffffffffff16600260009054906101000a900473ffffffffffffffffffffffffffffffffffffffff1673ffffffffffffffffffffffffffffffffffffffff1614156107fd576040517f08c379a00000000000000000000000000000000000000000000000000000000081526004016107f490610c91565b60405180910390fd5b600260009054906101000a900473ffffffffffffffffffffffffffffffffffffffff1673ffffffffffffffffffffffffffffffffffffffff163373ffffffffffffffffffffffffffffffffffffffff161461088d576040517f08c379a000000000000000000000000000000000000000000000000000000000815260040161088490610c71565b60405180910390fd5b600160009054906101000a900473ffffffffffffffffffffffffffffffffffffffff1673ffffffffffffffffffffffffffffffffffffffff1663b02c6dc230600260009054906101000a900473ffffffffffffffffffffffffffffffffffffffff166040518363ffffffff1660e01b815260040161090c929190610bef565b600060405180830381600087803b15801561092657600080fd5b505af115801561093a573d6000803e3d6000fd5b50505050610946610948565b565b6000600260006101000a81548173ffffffffffffffffffffffffffffffffffffffff021916908373ffffffffffffffffffffffffffffffffffffffff160217905550565b600061099f61099a84610d02565b610cd1565b9050828152602081018484840111156109b757600080fd5b6109c2848285610da7565b509392505050565b6000813590506109d981610e29565b92915050565b600082601f8301126109f057600080fd5b8135610a0084826020860161098c565b91505092915050565b600081359050610a1881610e40565b92915050565b600060208284031215610a3057600080fd5b6000610a3e848285016109ca565b91505092915050565b600080600060608486031215610a5c57600080fd5b600084013567ffffffffffffffff811115610a7657600080fd5b610a82868287016109df565b9350506020610a93868287016109ca565b9250506040610aa486828701610a09565b9150509250925092565b610ab781610d5f565b82525050565b610ac681610d71565b82525050565b6000610ad782610d32565b610ae18185610d3d565b9350610af1818560208601610db6565b610afa81610e18565b840191505092915050565b6000610b12601e83610d4e565b91507f50726f7879206f66666572656420746f206f74686572206163636f756e7400006000830152602082019050919050565b6000610b52601483610d4e565b91507f50726f7879206973206e6f74206f6666657265640000000000000000000000006000830152602082019050919050565b6000610b92601283610d4e565b91507f4f6e6c79206f776e657220616c6c6f77656400000000000000000000000000006000830152602082019050919050565b610bce81610d9d565b82525050565b6000602082019050610be96000830184610aae565b92915050565b6000604082019050610c046000830185610aae565b610c116020830184610aae565b9392505050565b6000602082019050610c2d6000830184610abd565b92915050565b60006060820190508181036000830152610c4d8186610acc565b9050610c5c6020830185610aae565b610c696040830184610bc5565b949350505050565b60006020820190508181036000830152610c8a81610b05565b9050919050565b60006020820190508181036000830152610caa81610b45565b9050919050565b60006020820190508181036000830152610cca81610b85565b9050919050565b6000604051905081810181811067ffffffffffffffff82111715610cf857610cf7610de9565b5b8060405250919050565b600067ffffffffffffffff821115610d1d57610d1c610de9565b5b601f19601f8301169050602081019050919050565b600081519050919050565b600082825260208201905092915050565b600082825260208201905092915050565b6000610d6a82610d7d565b9050919050565b60008115159050919050565b600073ffffffffffffffffffffffffffffffffffffffff82169050919050565b6000819050919050565b82818337600083830152505050565b60005b83811015610dd4578082015181840152602081019050610db9565b83811115610de3576000848401525b50505050565b7f4e487b7100000000000000000000000000000000000000000000000000000000600052604160045260246000fd5b6000601f19601f8301169050919050565b610e3281610d5f565b8114610e3d57600080fd5b50565b610e4981610d9d565b8114610e5457600080fd5b5056fea26469706673582212209fae08f0d66e8d88c5cfad83685df807641086d60f313b3fbe56a7b5bb70641e64736f6c63430008000033",
  "immutableReferences": {},
  "source": "pragma solidity 0.8.0;\n\nimport \"./IdentityManager.sol\";\n\n\ncontract OfferableIdentity {\n  address public owner;\n  address manager;\n\n  address public offeredTo;\n\n  event TransactionSent(bytes data, address to, uint256 value);\n\n  constructor(address _owner, address _manager) {\n    owner = _owner;\n    manager = _manager;\n    IdentityManager(manager).identityCreated(address(this), owner);\n  }\n\n  modifier isOwner() {\n    require(msg.sender == owner, \"Only owner allowed\");\n    _;\n  }\n\n  modifier isOfferedTo() {\n    require(offeredTo != address(0), \"Proxy is not offered\");\n    require(msg.sender == offeredTo, \"Proxy offered to other account\");\n    _;\n  }\n\n  function offer(address _offeredTo) external isOwner {\n    offeredTo = _offeredTo;\n    IdentityManager(manager).identityOffered(address(this), offeredTo);\n  }\n\n  function acceptOffer() external isOfferedTo {\n    owner = offeredTo;\n    IdentityManager(manager).identityAccepted(address(this), offeredTo);\n    closeOffer();\n  }\n\n  function rejectOffer() external isOfferedTo {\n    IdentityManager(manager).identityRejected(address(this), offeredTo);\n    closeOffer();\n  }\n  \n  function cancelOffer() external isOwner {\n    closeOffer();\n    \n    IdentityManager(manager).identityOfferCanceled(address(this), offeredTo);\n  }\n\n  function closeOffer() internal {\n    offeredTo = address(0);\n  }\n\n  function sendTransaction(bytes memory _data, address to, uint256 value)\n    public\n    isOwner\n    returns (bool success)\n  {\n    bytes memory data = _data;\n    uint256 len = data.length;\n    // solium-disable-next-line security/no-inline-assembly\n    assembly {\n      success := call(gas(), to, value, add(data, 0x20), len, 0, 0)\n    }\n    emit TransactionSent(_data, to, value);\n  }\n}\n",
  "sourcePath": "/home/dima/Development/ew-did-registry/packages/proxyIdentity/contracts/offerableIdentity.sol",
  "compiler": {
    "name": "solc",
    "version": "0.8.0+commit.c7dfd78e.Emscripten.clang"
  },
  "schemaVersion": "3.3.4",
  "updatedAt": "2021-03-19T12:54:02.448Z",
  "devdoc": {
    "kind": "dev",
    "methods": {},
    "version": 1
  },
  "userdoc": {
    "kind": "user",
    "methods": {},
    "version": 1
  }
}