{
  "contractName": "OfferableIdentity",
  "abi": [
    {
      "anonymous": false,
      "inputs": [
        {
          "indexed": true,
          "internalType": "bytes",
          "name": "data",
          "type": "bytes"
        },
        {
          "indexed": true,
          "internalType": "address",
          "name": "to",
          "type": "address"
        },
        {
          "indexed": true,
          "internalType": "uint256",
          "name": "value",
          "type": "uint256"
        }
      ],
      "name": "TransactionSent",
      "type": "event"
    },
    {
      "inputs": [],
      "name": "offeredTo",
      "outputs": [
        {
          "internalType": "address",
          "name": "",
          "type": "address"
        }
      ],
      "stateMutability": "view",
      "type": "function"
    },
    {
      "inputs": [],
      "name": "owner",
      "outputs": [
        {
          "internalType": "address",
          "name": "",
          "type": "address"
        }
      ],
      "stateMutability": "view",
      "type": "function"
    },
    {
      "inputs": [
        {
          "internalType": "address",
          "name": "_owner",
          "type": "address"
        },
        {
          "internalType": "address",
          "name": "_ethrRegistry",
          "type": "address"
        }
      ],
      "name": "init",
      "outputs": [],
      "stateMutability": "nonpayable",
      "type": "function"
    },
    {
      "inputs": [
        {
          "internalType": "address",
          "name": "_offeredTo",
          "type": "address"
        }
      ],
      "name": "offer",
      "outputs": [],
      "stateMutability": "nonpayable",
      "type": "function"
    },
    {
      "inputs": [],
      "name": "acceptOffer",
      "outputs": [],
      "stateMutability": "nonpayable",
      "type": "function"
    },
    {
      "inputs": [],
      "name": "rejectOffer",
      "outputs": [],
      "stateMutability": "nonpayable",
      "type": "function"
    },
    {
      "inputs": [],
      "name": "cancelOffer",
      "outputs": [],
      "stateMutability": "nonpayable",
      "type": "function"
    },
    {
      "inputs": [
        {
          "internalType": "bytes",
          "name": "_data",
          "type": "bytes"
        },
        {
          "internalType": "address",
          "name": "to",
          "type": "address"
        },
        {
          "internalType": "uint256",
          "name": "value",
          "type": "uint256"
        }
      ],
      "name": "sendTransaction",
      "outputs": [
        {
          "internalType": "bool",
          "name": "success",
          "type": "bool"
        }
      ],
      "stateMutability": "nonpayable",
      "type": "function"
    },
    {
      "inputs": [
        {
          "internalType": "bytes4",
          "name": "interfaceID",
          "type": "bytes4"
        }
      ],
      "name": "supportsInterface",
      "outputs": [
        {
          "internalType": "bool",
          "name": "",
          "type": "bool"
        }
      ],
      "stateMutability": "view",
      "type": "function"
    }
  ],
  "bytecode": "0x608060405234801561001057600080fd5b50611329806100206000396000f3fe608060405234801561001057600080fd5b50600436106100935760003560e01c8063bbc0185711610066578063bbc018571461010e578063ce2d4aca1461013e578063eb62df611461015a578063efd998ad14610164578063f09a40161461016e57610093565b806301ffc9a71461009857806362d05c78146100c85780638da5cb5b146100d2578063918af2cf146100f0575b600080fd5b6100b260048036038101906100ad9190610e6f565b61018a565b6040516100bf91906110a6565b60405180910390f35b6100d06102e4565b005b6100da61042b565b6040516100e7919061108b565b60405180910390f35b6100f861044f565b604051610105919061108b565b60405180910390f35b61012860048036038101906101239190610e98565b610475565b60405161013591906110a6565b60405180910390f35b61015860048036038101906101539190610e0a565b610582565b005b610162610703565b005b61016c610940565b005b61018860048036038101906101839190610e33565b610b1b565b005b60007f01ffc9a7a5cef8baa21ed3c5c0d7e23accb804b619e9333b597f47a0d84076e27bffffffffffffffffffffffffffffffffffffffffffffffffffffffff1916827bffffffffffffffffffffffffffffffffffffffffffffffffffffffff191614806102dd57507ffefeef990a2de9ed64dc6f56cebd08e011095b0f6eb523740fa4be344c7526897f62d05c78a8c6cd0f6c7d3ce2b6562d0e4037b940b816f1ba59bf1ec3d7d004e87fefd998ad69943e04daf402ab416a3a8615491a7fdd17e473178a009c416d230d7feb62df611f6cf1c05c08aa67459bb267e598cb3f9d0d0902e16c5b5c37c712a27fce2d4aca55965ec1a28a25b4f43a5db10b579fcffc64598efadc664d5d00e997181818187bffffffffffffffffffffffffffffffffffffffffffffffffffffffff1916827bffffffffffffffffffffffffffffffffffffffffffffffffffffffff1916145b9050919050565b60008054906101000a900473ffffffffffffffffffffffffffffffffffffffff1673ffffffffffffffffffffffffffffffffffffffff163373ffffffffffffffffffffffffffffffffffffffff1614610372576040517f08c379a000000000000000000000000000000000000000000000000000000000815260040161036990611101565b60405180910390fd5b61037a610d1f565b600160009054906101000a900473ffffffffffffffffffffffffffffffffffffffff1673ffffffffffffffffffffffffffffffffffffffff1663fab3157e600360009054906101000a900473ffffffffffffffffffffffffffffffffffffffff166040518263ffffffff1660e01b81526004016103f7919061108b565b600060405180830381600087803b15801561041157600080fd5b505af1158015610425573d6000803e3d6000fd5b50505050565b60008054906101000a900473ffffffffffffffffffffffffffffffffffffffff1681565b600360009054906101000a900473ffffffffffffffffffffffffffffffffffffffff1681565b60008060009054906101000a900473ffffffffffffffffffffffffffffffffffffffff1673ffffffffffffffffffffffffffffffffffffffff163373ffffffffffffffffffffffffffffffffffffffff1614610506576040517f08c379a00000000000000000000000000000000000000000000000000000000081526004016104fd90611101565b60405180910390fd5b6000849050600081519050600080826020850187895af19250838573ffffffffffffffffffffffffffffffffffffffff16876040516105459190611074565b60405180910390207f7e4155ee9daec547578a255f7495bc08f38796f4d4a3be4ed7189f4fc55cb18560405160405180910390a450509392505050565b60008054906101000a900473ffffffffffffffffffffffffffffffffffffffff1673ffffffffffffffffffffffffffffffffffffffff163373ffffffffffffffffffffffffffffffffffffffff1614610610576040517f08c379a000000000000000000000000000000000000000000000000000000000815260040161060790611101565b60405180910390fd5b80600360006101000a81548173ffffffffffffffffffffffffffffffffffffffff021916908373ffffffffffffffffffffffffffffffffffffffff160217905550600160009054906101000a900473ffffffffffffffffffffffffffffffffffffffff1673ffffffffffffffffffffffffffffffffffffffff1663845de7bc600360009054906101000a900473ffffffffffffffffffffffffffffffffffffffff166040518263ffffffff1660e01b81526004016106ce919061108b565b600060405180830381600087803b1580156106e857600080fd5b505af11580156106fc573d6000803e3d6000fd5b5050505050565b600073ffffffffffffffffffffffffffffffffffffffff16600360009054906101000a900473ffffffffffffffffffffffffffffffffffffffff1673ffffffffffffffffffffffffffffffffffffffff161415610795576040517f08c379a000000000000000000000000000000000000000000000000000000000815260040161078c906110e1565b60405180910390fd5b600360009054906101000a900473ffffffffffffffffffffffffffffffffffffffff1673ffffffffffffffffffffffffffffffffffffffff163373ffffffffffffffffffffffffffffffffffffffff1614610825576040517f08c379a000000000000000000000000000000000000000000000000000000000815260040161081c906110c1565b60405180910390fd5b600360009054906101000a900473ffffffffffffffffffffffffffffffffffffffff166000806101000a81548173ffffffffffffffffffffffffffffffffffffffff021916908373ffffffffffffffffffffffffffffffffffffffff160217905550600160009054906101000a900473ffffffffffffffffffffffffffffffffffffffff1673ffffffffffffffffffffffffffffffffffffffff1663ebdcd2eb600360009054906101000a900473ffffffffffffffffffffffffffffffffffffffff166040518263ffffffff1660e01b8152600401610904919061108b565b600060405180830381600087803b15801561091e57600080fd5b505af1158015610932573d6000803e3d6000fd5b5050505061093e610d1f565b565b600073ffffffffffffffffffffffffffffffffffffffff16600360009054906101000a900473ffffffffffffffffffffffffffffffffffffffff1673ffffffffffffffffffffffffffffffffffffffff1614156109d2576040517f08c379a00000000000000000000000000000000000000000000000000000000081526004016109c9906110e1565b60405180910390fd5b600360009054906101000a900473ffffffffffffffffffffffffffffffffffffffff1673ffffffffffffffffffffffffffffffffffffffff163373ffffffffffffffffffffffffffffffffffffffff1614610a62576040517f08c379a0000000000000000000000000000000000000000000000000000000008152600401610a59906110c1565b60405180910390fd5b600160009054906101000a900473ffffffffffffffffffffffffffffffffffffffff1673ffffffffffffffffffffffffffffffffffffffff1663f0ba4f60600360009054906101000a900473ffffffffffffffffffffffffffffffffffffffff166040518263ffffffff1660e01b8152600401610adf919061108b565b600060405180830381600087803b158015610af957600080fd5b505af1158015610b0d573d6000803e3d6000fd5b50505050610b19610d1f565b565b600073ffffffffffffffffffffffffffffffffffffffff16600160009054906101000a900473ffffffffffffffffffffffffffffffffffffffff1673ffffffffffffffffffffffffffffffffffffffff1614610bac576040517f08c379a0000000000000000000000000000000000000000000000000000000008152600401610ba390611121565b60405180910390fd5b816000806101000a81548173ffffffffffffffffffffffffffffffffffffffff021916908373ffffffffffffffffffffffffffffffffffffffff16021790555033600160006101000a81548173ffffffffffffffffffffffffffffffffffffffff021916908373ffffffffffffffffffffffffffffffffffffffff16021790555080600260006101000a81548173ffffffffffffffffffffffffffffffffffffffff021916908373ffffffffffffffffffffffffffffffffffffffff160217905550600160009054906101000a900473ffffffffffffffffffffffffffffffffffffffff1673ffffffffffffffffffffffffffffffffffffffff1663062960d460008054906101000a900473ffffffffffffffffffffffffffffffffffffffff166040518263ffffffff1660e01b8152600401610ce9919061108b565b600060405180830381600087803b158015610d0357600080fd5b505af1158015610d17573d6000803e3d6000fd5b505050505050565b6000600360006101000a81548173ffffffffffffffffffffffffffffffffffffffff021916908373ffffffffffffffffffffffffffffffffffffffff160217905550565b6000610d76610d7184611172565b611141565b905082815260208101848484011115610d8e57600080fd5b610d9984828561123d565b509392505050565b600081359050610db0816112ae565b92915050565b600081359050610dc5816112c5565b92915050565b600082601f830112610ddc57600080fd5b8135610dec848260208601610d63565b91505092915050565b600081359050610e04816112dc565b92915050565b600060208284031215610e1c57600080fd5b6000610e2a84828501610da1565b91505092915050565b60008060408385031215610e4657600080fd5b6000610e5485828601610da1565b9250506020610e6585828601610da1565b9150509250929050565b600060208284031215610e8157600080fd5b6000610e8f84828501610db6565b91505092915050565b600080600060608486031215610ead57600080fd5b600084013567ffffffffffffffff811115610ec757600080fd5b610ed386828701610dcb565b9350506020610ee486828701610da1565b9250506040610ef586828701610df5565b9150509250925092565b610f08816111c9565b82525050565b610f17816111db565b82525050565b6000610f28826111a2565b610f3281856111ad565b9350610f4281856020860161124c565b80840191505092915050565b6000610f5b601e836111b8565b91507f50726f7879206f66666572656420746f206f74686572206163636f756e7400006000830152602082019050919050565b6000610f9b6014836111b8565b91507f50726f7879206973206e6f74206f6666657265640000000000000000000000006000830152602082019050919050565b6000610fdb6012836111b8565b91507f4f6e6c79206f776e657220616c6c6f77656400000000000000000000000000006000830152602082019050919050565b600061101b6024836111b8565b91507f4964656e746974792063616e20626520696e697469616c697a65206f6e6c792060008301527f6f6e6365000000000000000000000000000000000000000000000000000000006020830152604082019050919050565b60006110808284610f1d565b915081905092915050565b60006020820190506110a06000830184610eff565b92915050565b60006020820190506110bb6000830184610f0e565b92915050565b600060208201905081810360008301526110da81610f4e565b9050919050565b600060208201905081810360008301526110fa81610f8e565b9050919050565b6000602082019050818103600083015261111a81610fce565b9050919050565b6000602082019050818103600083015261113a8161100e565b9050919050565b6000604051905081810181811067ffffffffffffffff821117156111685761116761127f565b5b8060405250919050565b600067ffffffffffffffff82111561118d5761118c61127f565b5b601f19601f8301169050602081019050919050565b600081519050919050565b600081905092915050565b600082825260208201905092915050565b60006111d482611213565b9050919050565b60008115159050919050565b60007fffffffff0000000000000000000000000000000000000000000000000000000082169050919050565b600073ffffffffffffffffffffffffffffffffffffffff82169050919050565b6000819050919050565b82818337600083830152505050565b60005b8381101561126a57808201518184015260208101905061124f565b83811115611279576000848401525b50505050565b7f4e487b7100000000000000000000000000000000000000000000000000000000600052604160045260246000fd5b6112b7816111c9565b81146112c257600080fd5b50565b6112ce816111e7565b81146112d957600080fd5b50565b6112e581611233565b81146112f057600080fd5b5056fea26469706673582212204a41439ac4132b655c230f407db6596e01c69aafcada271b74c731a35349ed0964736f6c63430008000033",
  "immutableReferences": {},
  "source": "pragma solidity 0.8.0;\n\nimport \"@openzeppelin/contracts/utils/introspection/ERC165.sol\";\nimport \"./IdentityManager.sol\";\n\n\ncontract OfferableIdentity is ERC165 {\n  address public owner;\n  address manager;\n  address ethrRegistry;\n\n  bytes4 constant ERC165ID = bytes4(keccak256(\"supportsInterface(bytes4)\"));\n  bytes4 constant offerID = bytes4(keccak256(\"offer(address)\"));\n  bytes4 constant acceptOfferID = bytes4(keccak256(\"acceptOffer()\"));\n  bytes4 constant rejectOfferID = bytes4(keccak256(\"rejectOffer()\"));\n  bytes4 constant cancelOfferID = bytes4(keccak256(\"cancelOffer()\"));\n  bytes4 constant sendTxID = bytes4(\n    keccak256(\"sendTransaction(bytes,address,uin256)\")\n  );\n  bytes4 constant offerableID = offerID ^\n    acceptOfferID ^\n    rejectOfferID ^\n    cancelOfferID ^\n    sendTxID;\n\n  address public offeredTo;\n\n  event TransactionSent(\n    bytes indexed data,\n    address indexed to,\n    uint256 indexed value\n  );\n\n  function init(address _owner, address _ethrRegistry) external {\n    require(manager == address(0), \"Identity can be initialize only once\");\n    owner = _owner;\n    manager = msg.sender;\n    ethrRegistry = _ethrRegistry;\n    IdentityManager(manager).identityCreated(owner);\n  }\n\n  modifier isOwner() {\n    require(msg.sender == owner, \"Only owner allowed\");\n    _;\n  }\n\n  modifier isOfferedTo() {\n    require(offeredTo != address(0), \"Proxy is not offered\");\n    require(msg.sender == offeredTo, \"Proxy offered to other account\");\n    _;\n  }\n\n  function offer(address _offeredTo) external isOwner {\n    offeredTo = _offeredTo;\n    IdentityManager(manager).identityOffered(offeredTo);\n  }\n\n  function acceptOffer() external isOfferedTo {\n    owner = offeredTo;\n    IdentityManager(manager).identityAccepted(offeredTo);\n    closeOffer();\n  }\n\n  function rejectOffer() external isOfferedTo {\n    IdentityManager(manager).identityRejected(offeredTo);\n    closeOffer();\n  }\n\n  function cancelOffer() external isOwner {\n    closeOffer();\n\n    IdentityManager(manager).identityOfferCanceled(offeredTo);\n  }\n\n  function closeOffer() internal {\n    offeredTo = address(0);\n  }\n\n  function sendTransaction(bytes memory _data, address to, uint256 value)\n    public\n    isOwner\n    returns (bool success)\n  {\n    bytes memory data = _data;\n    uint256 len = data.length;\n    // solium-disable-next-line security/no-inline-assembly\n    assembly {\n      success := call(gas(), to, value, add(data, 0x20), len, 0, 0)\n    }\n    emit TransactionSent(_data, to, value);\n  }\n\n  function supportsInterface(bytes4 interfaceID)\n    public\n    virtual\n    view\n    override\n    returns (bool)\n  {\n    return interfaceID == ERC165ID || interfaceID == offerableID;\n  }\n}\n",
  "sourcePath": "/home/dima/Development/ew-did-registry/packages/proxyIdentity/contracts/OfferableIdentity.sol",
  "compiler": {
    "name": "solc",
    "version": "0.8.0+commit.c7dfd78e.Emscripten.clang"
  },
  "schemaVersion": "3.3.4",
  "updatedAt": "2021-03-30T15:23:58.710Z",
  "devdoc": {
    "kind": "dev",
    "methods": {},
    "version": 1
  },
  "userdoc": {
    "kind": "user",
    "methods": {},
    "version": 1
  }
}