{
  "contractName": "OfferableIdentity",
  "abi": [
    {
      "anonymous": false,
      "inputs": [
        {
          "indexed": true,
          "internalType": "bytes",
          "name": "data",
          "type": "bytes"
        },
        {
          "indexed": true,
          "internalType": "uint256",
          "name": "value",
          "type": "uint256"
        }
      ],
      "name": "TransactionSent",
      "type": "event"
    },
    {
      "inputs": [],
      "name": "offeredTo",
      "outputs": [
        {
          "internalType": "address",
          "name": "",
          "type": "address"
        }
      ],
      "stateMutability": "view",
      "type": "function"
    },
    {
      "inputs": [],
      "name": "owner",
      "outputs": [
        {
          "internalType": "address",
          "name": "",
          "type": "address"
        }
      ],
      "stateMutability": "view",
      "type": "function"
    },
    {
      "inputs": [
        {
          "internalType": "address",
          "name": "_owner",
          "type": "address"
        }
      ],
      "name": "init",
      "outputs": [],
      "stateMutability": "nonpayable",
      "type": "function"
    },
    {
      "inputs": [
        {
          "internalType": "address",
          "name": "_offeredTo",
          "type": "address"
        }
      ],
      "name": "offer",
      "outputs": [],
      "stateMutability": "nonpayable",
      "type": "function"
    },
    {
      "inputs": [],
      "name": "acceptOffer",
      "outputs": [],
      "stateMutability": "nonpayable",
      "type": "function"
    },
    {
      "inputs": [],
      "name": "rejectOffer",
      "outputs": [],
      "stateMutability": "nonpayable",
      "type": "function"
    },
    {
      "inputs": [],
      "name": "cancelOffer",
      "outputs": [],
      "stateMutability": "nonpayable",
      "type": "function"
    },
    {
      "inputs": [
        {
          "internalType": "address",
          "name": "to",
          "type": "address"
        },
        {
          "internalType": "bytes",
          "name": "data",
          "type": "bytes"
        },
        {
          "internalType": "uint256",
          "name": "value",
          "type": "uint256"
        }
      ],
      "name": "sendTransaction",
      "outputs": [
        {
          "internalType": "bool",
          "name": "success",
          "type": "bool"
        }
      ],
      "stateMutability": "nonpayable",
      "type": "function"
    },
    {
      "inputs": [
        {
          "internalType": "bytes4",
          "name": "interfaceId",
          "type": "bytes4"
        }
      ],
      "name": "supportsInterface",
      "outputs": [
        {
          "internalType": "bool",
          "name": "",
          "type": "bool"
        }
      ],
      "stateMutability": "view",
      "type": "function"
    }
  ],
  "bytecode": "0x608060405234801561001057600080fd5b5061148e806100206000396000f3fe608060405234801561001057600080fd5b50600436106100935760003560e01c80638da5cb5b116100665780638da5cb5b1461011e578063918af2cf1461013c578063ce2d4aca1461015a578063eb62df6114610176578063efd998ad1461018057610093565b806301ffc9a71461009857806319ab453c146100c857806362d05c78146100e45780638afb4913146100ee575b600080fd5b6100b260048036038101906100ad9190610e6d565b61018a565b6040516100bf9190610fc6565b60405180910390f35b6100e260048036038101906100dd9190610ddd565b610204565b005b6100ec6103c6565b005b61010860048036038101906101039190610e06565b61050d565b6040516101159190610fc6565b60405180910390f35b6101266106a5565b6040516101339190610fab565b60405180910390f35b6101446106c9565b6040516101519190610fab565b60405180910390f35b610174600480360381019061016f9190610ddd565b6106ef565b005b61017e610870565b005b610188610aad565b005b60007f22bd186d000000000000000000000000000000000000000000000000000000007bffffffffffffffffffffffffffffffffffffffffffffffffffffffff1916827bffffffffffffffffffffffffffffffffffffffffffffffffffffffff191614806101fd57506101fc82610c88565b5b9050919050565b600073ffffffffffffffffffffffffffffffffffffffff16600160009054906101000a900473ffffffffffffffffffffffffffffffffffffffff1673ffffffffffffffffffffffffffffffffffffffff1614610295576040517f08c379a000000000000000000000000000000000000000000000000000000000815260040161028c90611021565b60405180910390fd5b806000806101000a81548173ffffffffffffffffffffffffffffffffffffffff021916908373ffffffffffffffffffffffffffffffffffffffff16021790555033600160006101000a81548173ffffffffffffffffffffffffffffffffffffffff021916908373ffffffffffffffffffffffffffffffffffffffff160217905550600160009054906101000a900473ffffffffffffffffffffffffffffffffffffffff1673ffffffffffffffffffffffffffffffffffffffff1663062960d460008054906101000a900473ffffffffffffffffffffffffffffffffffffffff166040518263ffffffff1660e01b81526004016103919190610fab565b600060405180830381600087803b1580156103ab57600080fd5b505af11580156103bf573d6000803e3d6000fd5b5050505050565b60008054906101000a900473ffffffffffffffffffffffffffffffffffffffff1673ffffffffffffffffffffffffffffffffffffffff163373ffffffffffffffffffffffffffffffffffffffff1614610454576040517f08c379a000000000000000000000000000000000000000000000000000000000815260040161044b90611041565b60405180910390fd5b600160009054906101000a900473ffffffffffffffffffffffffffffffffffffffff1673ffffffffffffffffffffffffffffffffffffffff1663fab3157e600260009054906101000a900473ffffffffffffffffffffffffffffffffffffffff166040518263ffffffff1660e01b81526004016104d19190610fab565b600060405180830381600087803b1580156104eb57600080fd5b505af11580156104ff573d6000803e3d6000fd5b5050505061050b610cf2565b565b60008060009054906101000a900473ffffffffffffffffffffffffffffffffffffffff1673ffffffffffffffffffffffffffffffffffffffff163373ffffffffffffffffffffffffffffffffffffffff161461059e576040517f08c379a000000000000000000000000000000000000000000000000000000000815260040161059590611041565b60405180910390fd5b8373ffffffffffffffffffffffffffffffffffffffff166113885a6105c391906110fe565b83856040516105d29190610f94565b600060405180830381858888f193505050503d8060008114610610576040519150601f19603f3d011682016040523d82523d6000602084013e610615565b606091505b5050809150508061065b576040517f08c379a000000000000000000000000000000000000000000000000000000000815260040161065290611001565b60405180910390fd5b818360405161066a9190610f94565b60405180910390207f101abacb8de0d05456bbaf85756276fd0c5225e9ede84f539855df28aba51a7e60405160405180910390a39392505050565b60008054906101000a900473ffffffffffffffffffffffffffffffffffffffff1681565b600260009054906101000a900473ffffffffffffffffffffffffffffffffffffffff1681565b60008054906101000a900473ffffffffffffffffffffffffffffffffffffffff1673ffffffffffffffffffffffffffffffffffffffff163373ffffffffffffffffffffffffffffffffffffffff161461077d576040517f08c379a000000000000000000000000000000000000000000000000000000000815260040161077490611041565b60405180910390fd5b80600260006101000a81548173ffffffffffffffffffffffffffffffffffffffff021916908373ffffffffffffffffffffffffffffffffffffffff160217905550600160009054906101000a900473ffffffffffffffffffffffffffffffffffffffff1673ffffffffffffffffffffffffffffffffffffffff1663845de7bc600260009054906101000a900473ffffffffffffffffffffffffffffffffffffffff166040518263ffffffff1660e01b815260040161083b9190610fab565b600060405180830381600087803b15801561085557600080fd5b505af1158015610869573d6000803e3d6000fd5b5050505050565b600073ffffffffffffffffffffffffffffffffffffffff16600260009054906101000a900473ffffffffffffffffffffffffffffffffffffffff1673ffffffffffffffffffffffffffffffffffffffff161415610902576040517f08c379a00000000000000000000000000000000000000000000000000000000081526004016108f990611061565b60405180910390fd5b600260009054906101000a900473ffffffffffffffffffffffffffffffffffffffff1673ffffffffffffffffffffffffffffffffffffffff163373ffffffffffffffffffffffffffffffffffffffff1614610992576040517f08c379a000000000000000000000000000000000000000000000000000000000815260040161098990610fe1565b60405180910390fd5b600260009054906101000a900473ffffffffffffffffffffffffffffffffffffffff166000806101000a81548173ffffffffffffffffffffffffffffffffffffffff021916908373ffffffffffffffffffffffffffffffffffffffff160217905550600160009054906101000a900473ffffffffffffffffffffffffffffffffffffffff1673ffffffffffffffffffffffffffffffffffffffff1663ebdcd2eb600260009054906101000a900473ffffffffffffffffffffffffffffffffffffffff166040518263ffffffff1660e01b8152600401610a719190610fab565b600060405180830381600087803b158015610a8b57600080fd5b505af1158015610a9f573d6000803e3d6000fd5b50505050610aab610cf2565b565b600073ffffffffffffffffffffffffffffffffffffffff16600260009054906101000a900473ffffffffffffffffffffffffffffffffffffffff1673ffffffffffffffffffffffffffffffffffffffff161415610b3f576040517f08c379a0000000000000000000000000000000000000000000000000000000008152600401610b3690611061565b60405180910390fd5b600260009054906101000a900473ffffffffffffffffffffffffffffffffffffffff1673ffffffffffffffffffffffffffffffffffffffff163373ffffffffffffffffffffffffffffffffffffffff1614610bcf576040517f08c379a0000000000000000000000000000000000000000000000000000000008152600401610bc690610fe1565b60405180910390fd5b600160009054906101000a900473ffffffffffffffffffffffffffffffffffffffff1673ffffffffffffffffffffffffffffffffffffffff1663f0ba4f60600260009054906101000a900473ffffffffffffffffffffffffffffffffffffffff166040518263ffffffff1660e01b8152600401610c4c9190610fab565b600060405180830381600087803b158015610c6657600080fd5b505af1158015610c7a573d6000803e3d6000fd5b50505050610c86610cf2565b565b60007f01ffc9a7000000000000000000000000000000000000000000000000000000007bffffffffffffffffffffffffffffffffffffffffffffffffffffffff1916827bffffffffffffffffffffffffffffffffffffffffffffffffffffffff1916149050919050565b6000600260006101000a81548173ffffffffffffffffffffffffffffffffffffffff021916908373ffffffffffffffffffffffffffffffffffffffff160217905550565b6000610d49610d44846110a6565b611081565b905082815260208101848484011115610d6157600080fd5b610d6c8482856111a6565b509392505050565b600081359050610d8381611413565b92915050565b600081359050610d988161142a565b92915050565b600082601f830112610daf57600080fd5b8135610dbf848260208601610d36565b91505092915050565b600081359050610dd781611441565b92915050565b600060208284031215610def57600080fd5b6000610dfd84828501610d74565b91505092915050565b600080600060608486031215610e1b57600080fd5b6000610e2986828701610d74565b935050602084013567ffffffffffffffff811115610e4657600080fd5b610e5286828701610d9e565b9250506040610e6386828701610dc8565b9150509250925092565b600060208284031215610e7f57600080fd5b6000610e8d84828501610d89565b91505092915050565b610e9f81611132565b82525050565b610eae81611144565b82525050565b6000610ebf826110d7565b610ec981856110e2565b9350610ed98185602086016111b5565b80840191505092915050565b6000610ef26031836110ed565b9150610efd82611288565b604082019050919050565b6000610f15602f836110ed565b9150610f20826112d7565b604082019050919050565b6000610f386037836110ed565b9150610f4382611326565b604082019050919050565b6000610f5b6025836110ed565b9150610f6682611375565b604082019050919050565b6000610f7e6027836110ed565b9150610f89826113c4565b604082019050919050565b6000610fa08284610eb4565b915081905092915050565b6000602082019050610fc06000830184610e96565b92915050565b6000602082019050610fdb6000830184610ea5565b92915050565b60006020820190508181036000830152610ffa81610ee5565b9050919050565b6000602082019050818103600083015261101a81610f08565b9050919050565b6000602082019050818103600083015261103a81610f2b565b9050919050565b6000602082019050818103600083015261105a81610f4e565b9050919050565b6000602082019050818103600083015261107a81610f71565b9050919050565b600061108b61109c565b905061109782826111e8565b919050565b6000604051905090565b600067ffffffffffffffff8211156110c1576110c0611248565b5b6110ca82611277565b9050602081019050919050565b600081519050919050565b600081905092915050565b600082825260208201905092915050565b60006111098261119c565b91506111148361119c565b92508282101561112757611126611219565b5b828203905092915050565b600061113d8261117c565b9050919050565b60008115159050919050565b60007fffffffff0000000000000000000000000000000000000000000000000000000082169050919050565b600073ffffffffffffffffffffffffffffffffffffffff82169050919050565b6000819050919050565b82818337600083830152505050565b60005b838110156111d35780820151818401526020810190506111b8565b838111156111e2576000848401525b50505050565b6111f182611277565b810181811067ffffffffffffffff821117156112105761120f611248565b5b80604052505050565b7f4e487b7100000000000000000000000000000000000000000000000000000000600052601160045260246000fd5b7f4e487b7100000000000000000000000000000000000000000000000000000000600052604160045260246000fd5b6000601f19601f8301169050919050565b7f4f6666657261626c654964656e746974793a2050726f7879206f66666572656460008201527f20746f206f74686572206163636f756e74000000000000000000000000000000602082015250565b7f4f6666657261626c654964656e746974793a204572726f722063616c6c696e6760008201527f206f7468657220636f6e74726163740000000000000000000000000000000000602082015250565b7f4f6666657261626c654964656e746974793a204964656e746974792063616e2060008201527f626520696e697469616c697a65206f6e6c79206f6e6365000000000000000000602082015250565b7f4f6666657261626c654964656e746974793a204f6e6c79206f776e657220616c60008201527f6c6f776564000000000000000000000000000000000000000000000000000000602082015250565b7f4f6666657261626c654964656e746974793a2050726f7879206973206e6f742060008201527f6f66666572656400000000000000000000000000000000000000000000000000602082015250565b61141c81611132565b811461142757600080fd5b50565b61143381611150565b811461143e57600080fd5b50565b61144a8161119c565b811461145557600080fd5b5056fea26469706673582212201619fa7f4745b3968917449851665d8f53429ba069950fef0085546601ad9d6a64736f6c63430008030033",
  "immutableReferences": {},
  "source": "pragma solidity 0.8.3;\n\nimport \"@openzeppelin/contracts/utils/introspection/ERC165.sol\";\nimport \"./IdentityManager.sol\";\nimport \"./IOfferable.sol\";\n\n\ncontract OfferableIdentity is IOfferable, ERC165 {\n  address public owner;\n  address manager;\n\n  address public offeredTo;\n\n  event TransactionSent(bytes indexed data, uint256 indexed value);\n\n  function init(address _owner) external {\n    require(\n      manager == address(0),\n      \"OfferableIdentity: Identity can be initialize only once\"\n    );\n    owner = _owner;\n    manager = msg.sender;\n    IdentityManager(manager).identityCreated(owner);\n  }\n\n  modifier isOwner() {\n    require(msg.sender == owner, \"OfferableIdentity: Only owner allowed\");\n    _;\n  }\n  \n  modifier isManager() {\n    require(msg.sender == manager, \"OfferableIdentity: Only manager allowed\");\n    _;\n  }\n\n  modifier isOfferedTo() {\n    require(offeredTo != address(0), \"OfferableIdentity: Proxy is not offered\");\n    require(\n      msg.sender == offeredTo,\n      \"OfferableIdentity: Proxy offered to other account\"\n    );\n    _;\n  }\n\n  function offer(address _offeredTo) external override isOwner {\n    offeredTo = _offeredTo;\n    IdentityManager(manager).identityOffered(offeredTo);\n  }\n\n  function acceptOffer() external override isOfferedTo {\n    owner = offeredTo;\n    IdentityManager(manager).identityAccepted(offeredTo);\n    closeOffer();\n  }\n\n  function rejectOffer() external override isOfferedTo {\n    IdentityManager(manager).identityRejected(offeredTo);\n    closeOffer();\n  }\n\n  function cancelOffer() external override isOwner {\n    IdentityManager(manager).identityOfferCanceled(offeredTo);\n    closeOffer();\n  }\n\n  function closeOffer() internal {\n    offeredTo = address(0);\n  }\n\n  function sendTransaction(address to, bytes memory data, uint256 value)\n    external\n    isOwner\n    override\n    returns (bool success)\n  {\n    (success, ) = to.call{ gas: gasleft() - 5000, value: value}(data);\n    require(success, \"OfferableIdentity: Error calling other contract\");\n    emit TransactionSent(data, value);\n  }\n\n  function supportsInterface(bytes4 interfaceId)\n    public\n    virtual\n    view\n    override\n    returns (bool)\n  {\n    return\n      interfaceId == type(IOfferable).interfaceId ||\n      super.supportsInterface(interfaceId);\n  }\n}\n",
  "sourcePath": "/home/dima/Development/ew-did-registry/packages/proxyIdentity/contracts/OfferableIdentity.sol",
  "compiler": {
    "name": "solc",
    "version": "0.8.3+commit.8d00100c.Emscripten.clang"
  },
  "schemaVersion": "3.3.4",
  "updatedAt": "2021-04-19T11:59:31.771Z",
  "devdoc": {
    "kind": "dev",
    "methods": {
      "supportsInterface(bytes4)": {
        "details": "See {IERC165-supportsInterface}."
      }
    },
    "version": 1
  },
  "userdoc": {
    "kind": "user",
    "methods": {},
    "version": 1
  }
}