{
  "contractName": "OfferableIdentity",
  "abi": [
    {
      "inputs": [
        {
          "internalType": "address",
          "name": "_owner",
          "type": "address"
        },
        {
          "internalType": "address",
          "name": "_manager",
          "type": "address"
        }
      ],
      "stateMutability": "nonpayable",
      "type": "constructor"
    },
    {
      "anonymous": false,
      "inputs": [
        {
          "indexed": true,
          "internalType": "bytes",
          "name": "data",
          "type": "bytes"
        },
        {
          "indexed": true,
          "internalType": "address",
          "name": "to",
          "type": "address"
        },
        {
          "indexed": true,
          "internalType": "uint256",
          "name": "value",
          "type": "uint256"
        }
      ],
      "name": "TransactionSent",
      "type": "event"
    },
    {
      "inputs": [],
      "name": "offeredTo",
      "outputs": [
        {
          "internalType": "address",
          "name": "",
          "type": "address"
        }
      ],
      "stateMutability": "view",
      "type": "function"
    },
    {
      "inputs": [],
      "name": "owner",
      "outputs": [
        {
          "internalType": "address",
          "name": "",
          "type": "address"
        }
      ],
      "stateMutability": "view",
      "type": "function"
    },
    {
      "inputs": [
        {
          "internalType": "address",
          "name": "_offeredTo",
          "type": "address"
        }
      ],
      "name": "offer",
      "outputs": [],
      "stateMutability": "nonpayable",
      "type": "function"
    },
    {
      "inputs": [],
      "name": "acceptOffer",
      "outputs": [],
      "stateMutability": "nonpayable",
      "type": "function"
    },
    {
      "inputs": [],
      "name": "rejectOffer",
      "outputs": [],
      "stateMutability": "nonpayable",
      "type": "function"
    },
    {
      "inputs": [],
      "name": "cancelOffer",
      "outputs": [],
      "stateMutability": "nonpayable",
      "type": "function"
    },
    {
      "inputs": [
        {
          "internalType": "bytes",
          "name": "_data",
          "type": "bytes"
        },
        {
          "internalType": "address",
          "name": "to",
          "type": "address"
        },
        {
          "internalType": "uint256",
          "name": "value",
          "type": "uint256"
        }
      ],
      "name": "sendTransaction",
      "outputs": [
        {
          "internalType": "bool",
          "name": "success",
          "type": "bool"
        }
      ],
      "stateMutability": "nonpayable",
      "type": "function"
    }
  ],
  "bytecode": "0x60806040523480156200001157600080fd5b50604051620010be380380620010be83398181016040528101906200003791906200018a565b816000806101000a81548173ffffffffffffffffffffffffffffffffffffffff021916908373ffffffffffffffffffffffffffffffffffffffff16021790555080600160006101000a81548173ffffffffffffffffffffffffffffffffffffffff021916908373ffffffffffffffffffffffffffffffffffffffff160217905550600160009054906101000a900473ffffffffffffffffffffffffffffffffffffffff1673ffffffffffffffffffffffffffffffffffffffff1663396eee9d3060008054906101000a900473ffffffffffffffffffffffffffffffffffffffff166040518363ffffffff1660e01b815260040162000137929190620001dc565b600060405180830381600087803b1580156200015257600080fd5b505af115801562000167573d6000803e3d6000fd5b50505050505062000257565b60008151905062000184816200023d565b92915050565b600080604083850312156200019e57600080fd5b6000620001ae8582860162000173565b9250506020620001c18582860162000173565b9150509250929050565b620001d68162000209565b82525050565b6000604082019050620001f36000830185620001cb565b620002026020830184620001cb565b9392505050565b600062000216826200021d565b9050919050565b600073ffffffffffffffffffffffffffffffffffffffff82169050919050565b620002488162000209565b81146200025457600080fd5b50565b610e5780620002676000396000f3fe608060405234801561001057600080fd5b506004361061007d5760003560e01c8063bbc018571161005b578063bbc01857146100c8578063ce2d4aca146100f8578063eb62df6114610114578063efd998ad1461011e5761007d565b806362d05c78146100825780638da5cb5b1461008c578063918af2cf146100aa575b600080fd5b61008a610128565b005b610094610271565b6040516100a19190610bf3565b60405180910390f35b6100b2610295565b6040516100bf9190610bf3565b60405180910390f35b6100e260048036038101906100dd9190610a66565b6102bb565b6040516100ef9190610c37565b60405180910390f35b610112600480360381019061010d9190610a3d565b6103c8565b005b61011c61054b565b005b61012661078a565b005b60008054906101000a900473ffffffffffffffffffffffffffffffffffffffff1673ffffffffffffffffffffffffffffffffffffffff163373ffffffffffffffffffffffffffffffffffffffff16146101b6576040517f08c379a00000000000000000000000000000000000000000000000000000000081526004016101ad90610c92565b60405180910390fd5b6101be610967565b600160009054906101000a900473ffffffffffffffffffffffffffffffffffffffff1673ffffffffffffffffffffffffffffffffffffffff1663f94a113c30600260009054906101000a900473ffffffffffffffffffffffffffffffffffffffff166040518363ffffffff1660e01b815260040161023d929190610c0e565b600060405180830381600087803b15801561025757600080fd5b505af115801561026b573d6000803e3d6000fd5b50505050565b60008054906101000a900473ffffffffffffffffffffffffffffffffffffffff1681565b600260009054906101000a900473ffffffffffffffffffffffffffffffffffffffff1681565b60008060009054906101000a900473ffffffffffffffffffffffffffffffffffffffff1673ffffffffffffffffffffffffffffffffffffffff163373ffffffffffffffffffffffffffffffffffffffff161461034c576040517f08c379a000000000000000000000000000000000000000000000000000000000815260040161034390610c92565b60405180910390fd5b6000849050600081519050600080826020850187895af19250838573ffffffffffffffffffffffffffffffffffffffff168760405161038b9190610bdc565b60405180910390207f7e4155ee9daec547578a255f7495bc08f38796f4d4a3be4ed7189f4fc55cb18560405160405180910390a450509392505050565b60008054906101000a900473ffffffffffffffffffffffffffffffffffffffff1673ffffffffffffffffffffffffffffffffffffffff163373ffffffffffffffffffffffffffffffffffffffff1614610456576040517f08c379a000000000000000000000000000000000000000000000000000000000815260040161044d90610c92565b60405180910390fd5b80600260006101000a81548173ffffffffffffffffffffffffffffffffffffffff021916908373ffffffffffffffffffffffffffffffffffffffff160217905550600160009054906101000a900473ffffffffffffffffffffffffffffffffffffffff1673ffffffffffffffffffffffffffffffffffffffff1663e3db339430600260009054906101000a900473ffffffffffffffffffffffffffffffffffffffff166040518363ffffffff1660e01b8152600401610516929190610c0e565b600060405180830381600087803b15801561053057600080fd5b505af1158015610544573d6000803e3d6000fd5b5050505050565b600073ffffffffffffffffffffffffffffffffffffffff16600260009054906101000a900473ffffffffffffffffffffffffffffffffffffffff1673ffffffffffffffffffffffffffffffffffffffff1614156105dd576040517f08c379a00000000000000000000000000000000000000000000000000000000081526004016105d490610c72565b60405180910390fd5b600260009054906101000a900473ffffffffffffffffffffffffffffffffffffffff1673ffffffffffffffffffffffffffffffffffffffff163373ffffffffffffffffffffffffffffffffffffffff161461066d576040517f08c379a000000000000000000000000000000000000000000000000000000000815260040161066490610c52565b60405180910390fd5b600260009054906101000a900473ffffffffffffffffffffffffffffffffffffffff166000806101000a81548173ffffffffffffffffffffffffffffffffffffffff021916908373ffffffffffffffffffffffffffffffffffffffff160217905550600160009054906101000a900473ffffffffffffffffffffffffffffffffffffffff1673ffffffffffffffffffffffffffffffffffffffff166370b29f9530600260009054906101000a900473ffffffffffffffffffffffffffffffffffffffff166040518363ffffffff1660e01b815260040161074e929190610c0e565b600060405180830381600087803b15801561076857600080fd5b505af115801561077c573d6000803e3d6000fd5b50505050610788610967565b565b600073ffffffffffffffffffffffffffffffffffffffff16600260009054906101000a900473ffffffffffffffffffffffffffffffffffffffff1673ffffffffffffffffffffffffffffffffffffffff16141561081c576040517f08c379a000000000000000000000000000000000000000000000000000000000815260040161081390610c72565b60405180910390fd5b600260009054906101000a900473ffffffffffffffffffffffffffffffffffffffff1673ffffffffffffffffffffffffffffffffffffffff163373ffffffffffffffffffffffffffffffffffffffff16146108ac576040517f08c379a00000000000000000000000000000000000000000000000000000000081526004016108a390610c52565b60405180910390fd5b600160009054906101000a900473ffffffffffffffffffffffffffffffffffffffff1673ffffffffffffffffffffffffffffffffffffffff1663b02c6dc230600260009054906101000a900473ffffffffffffffffffffffffffffffffffffffff166040518363ffffffff1660e01b815260040161092b929190610c0e565b600060405180830381600087803b15801561094557600080fd5b505af1158015610959573d6000803e3d6000fd5b50505050610965610967565b565b6000600260006101000a81548173ffffffffffffffffffffffffffffffffffffffff021916908373ffffffffffffffffffffffffffffffffffffffff160217905550565b60006109be6109b984610ce3565b610cb2565b9050828152602081018484840111156109d657600080fd5b6109e1848285610d82565b509392505050565b6000813590506109f881610df3565b92915050565b600082601f830112610a0f57600080fd5b8135610a1f8482602086016109ab565b91505092915050565b600081359050610a3781610e0a565b92915050565b600060208284031215610a4f57600080fd5b6000610a5d848285016109e9565b91505092915050565b600080600060608486031215610a7b57600080fd5b600084013567ffffffffffffffff811115610a9557600080fd5b610aa1868287016109fe565b9350506020610ab2868287016109e9565b9250506040610ac386828701610a28565b9150509250925092565b610ad681610d3a565b82525050565b610ae581610d4c565b82525050565b6000610af682610d13565b610b008185610d1e565b9350610b10818560208601610d91565b80840191505092915050565b6000610b29601e83610d29565b91507f50726f7879206f66666572656420746f206f74686572206163636f756e7400006000830152602082019050919050565b6000610b69601483610d29565b91507f50726f7879206973206e6f74206f6666657265640000000000000000000000006000830152602082019050919050565b6000610ba9601283610d29565b91507f4f6e6c79206f776e657220616c6c6f77656400000000000000000000000000006000830152602082019050919050565b6000610be88284610aeb565b915081905092915050565b6000602082019050610c086000830184610acd565b92915050565b6000604082019050610c236000830185610acd565b610c306020830184610acd565b9392505050565b6000602082019050610c4c6000830184610adc565b92915050565b60006020820190508181036000830152610c6b81610b1c565b9050919050565b60006020820190508181036000830152610c8b81610b5c565b9050919050565b60006020820190508181036000830152610cab81610b9c565b9050919050565b6000604051905081810181811067ffffffffffffffff82111715610cd957610cd8610dc4565b5b8060405250919050565b600067ffffffffffffffff821115610cfe57610cfd610dc4565b5b601f19601f8301169050602081019050919050565b600081519050919050565b600081905092915050565b600082825260208201905092915050565b6000610d4582610d58565b9050919050565b60008115159050919050565b600073ffffffffffffffffffffffffffffffffffffffff82169050919050565b6000819050919050565b82818337600083830152505050565b60005b83811015610daf578082015181840152602081019050610d94565b83811115610dbe576000848401525b50505050565b7f4e487b7100000000000000000000000000000000000000000000000000000000600052604160045260246000fd5b610dfc81610d3a565b8114610e0757600080fd5b50565b610e1381610d78565b8114610e1e57600080fd5b5056fea264697066735822122055cdd4620babee2d8ac9b842c25c702a8f41c82322e12be3b560678893799d9564736f6c63430008000033",
  "immutableReferences": {},
  "source": "pragma solidity 0.8.0;\n\nimport \"./IdentityManager.sol\";\n\n\ncontract OfferableIdentity {\n  address public owner;\n  address manager;\n\n  address public offeredTo;\n\n  event TransactionSent(bytes indexed data, address indexed to, uint256 indexed value);\n\n  constructor(address _owner, address _manager) {\n    owner = _owner;\n    manager = _manager;\n    IdentityManager(manager).identityCreated(address(this), owner);\n  }\n\n  modifier isOwner() {\n    require(msg.sender == owner, \"Only owner allowed\");\n    _;\n  }\n\n  modifier isOfferedTo() {\n    require(offeredTo != address(0), \"Proxy is not offered\");\n    require(msg.sender == offeredTo, \"Proxy offered to other account\");\n    _;\n  }\n\n  function offer(address _offeredTo) external isOwner {\n    offeredTo = _offeredTo;\n    IdentityManager(manager).identityOffered(address(this), offeredTo);\n  }\n\n  function acceptOffer() external isOfferedTo {\n    owner = offeredTo;\n    IdentityManager(manager).identityAccepted(address(this), offeredTo);\n    closeOffer();\n  }\n\n  function rejectOffer() external isOfferedTo {\n    IdentityManager(manager).identityRejected(address(this), offeredTo);\n    closeOffer();\n  }\n  \n  function cancelOffer() external isOwner {\n    closeOffer();\n    \n    IdentityManager(manager).identityOfferCanceled(address(this), offeredTo);\n  }\n\n  function closeOffer() internal {\n    offeredTo = address(0);\n  }\n\n  function sendTransaction(bytes memory _data, address to, uint256 value)\n    public\n    isOwner\n    returns (bool success)\n  {\n    bytes memory data = _data;\n    uint256 len = data.length;\n    // solium-disable-next-line security/no-inline-assembly\n    assembly {\n      success := call(gas(), to, value, add(data, 0x20), len, 0, 0)\n    }\n    emit TransactionSent(_data, to, value);\n  }\n}\n",
  "sourcePath": "/home/dima/Development/ew-did-registry/packages/proxyIdentity/contracts/offerableIdentity.sol",
  "compiler": {
    "name": "solc",
    "version": "0.8.0+commit.c7dfd78e.Emscripten.clang"
  },
  "schemaVersion": "3.3.4",
  "updatedAt": "2021-03-25T15:28:41.516Z",
  "devdoc": {
    "kind": "dev",
    "methods": {},
    "version": 1
  },
  "userdoc": {
    "kind": "user",
    "methods": {},
    "version": 1
  }
}