{
  "contractName": "OfferableIdentity",
  "abi": [
    {
      "anonymous": false,
      "inputs": [
        {
          "indexed": true,
          "internalType": "bytes",
          "name": "data",
          "type": "bytes"
        },
        {
          "indexed": true,
          "internalType": "uint256",
          "name": "value",
          "type": "uint256"
        }
      ],
      "name": "TransactionSent",
      "type": "event"
    },
    {
      "inputs": [],
      "name": "offeredTo",
      "outputs": [
        {
          "internalType": "address",
          "name": "",
          "type": "address"
        }
      ],
      "stateMutability": "view",
      "type": "function"
    },
    {
      "inputs": [],
      "name": "owner",
      "outputs": [
        {
          "internalType": "address",
          "name": "",
          "type": "address"
        }
      ],
      "stateMutability": "view",
      "type": "function"
    },
    {
      "inputs": [
        {
          "internalType": "address",
          "name": "_owner",
          "type": "address"
        },
        {
          "internalType": "address",
          "name": "_ethrRegistry",
          "type": "address"
        }
      ],
      "name": "init",
      "outputs": [],
      "stateMutability": "nonpayable",
      "type": "function"
    },
    {
      "inputs": [
        {
          "internalType": "address",
          "name": "_offeredTo",
          "type": "address"
        }
      ],
      "name": "offer",
      "outputs": [],
      "stateMutability": "nonpayable",
      "type": "function"
    },
    {
      "inputs": [],
      "name": "acceptOffer",
      "outputs": [],
      "stateMutability": "nonpayable",
      "type": "function"
    },
    {
      "inputs": [],
      "name": "rejectOffer",
      "outputs": [],
      "stateMutability": "nonpayable",
      "type": "function"
    },
    {
      "inputs": [],
      "name": "cancelOffer",
      "outputs": [],
      "stateMutability": "nonpayable",
      "type": "function"
    },
    {
      "inputs": [
        {
          "internalType": "bytes",
          "name": "_data",
          "type": "bytes"
        },
        {
          "internalType": "uint256",
          "name": "value",
          "type": "uint256"
        }
      ],
      "name": "update",
      "outputs": [
        {
          "internalType": "bool",
          "name": "success",
          "type": "bool"
        }
      ],
      "stateMutability": "nonpayable",
      "type": "function"
    },
    {
      "inputs": [
        {
          "internalType": "bytes4",
          "name": "interfaceID",
          "type": "bytes4"
        }
      ],
      "name": "supportsInterface",
      "outputs": [
        {
          "internalType": "bool",
          "name": "",
          "type": "bool"
        }
      ],
      "stateMutability": "view",
      "type": "function"
    }
  ],
  "bytecode": "0x608060405234801561001057600080fd5b50611398806100206000396000f3fe608060405234801561001057600080fd5b50600436106100935760003560e01c8063c3b4523411610066578063c3b452341461010e578063ce2d4aca1461013e578063eb62df611461015a578063efd998ad14610164578063f09a40161461016e57610093565b806301ffc9a71461009857806362d05c78146100c85780638da5cb5b146100d2578063918af2cf146100f0575b600080fd5b6100b260048036038101906100ad9190610e7f565b61018a565b6040516100bf9190611115565b60405180910390f35b6100d06102e4565b005b6100da61042b565b6040516100e791906110fa565b60405180910390f35b6100f861044f565b60405161010591906110fa565b60405180910390f35b61012860048036038101906101239190610ea8565b610475565b6040516101359190611115565b60405180910390f35b61015860048036038101906101539190610e1a565b610592565b005b610162610713565b005b61016c610950565b005b61018860048036038101906101839190610e43565b610b2b565b005b60007f01ffc9a7a5cef8baa21ed3c5c0d7e23accb804b619e9333b597f47a0d84076e27bffffffffffffffffffffffffffffffffffffffffffffffffffffffff1916827bffffffffffffffffffffffffffffffffffffffffffffffffffffffff191614806102dd57507ffefeef990a2de9ed64dc6f56cebd08e011095b0f6eb523740fa4be344c7526897f62d05c78a8c6cd0f6c7d3ce2b6562d0e4037b940b816f1ba59bf1ec3d7d004e87fefd998ad69943e04daf402ab416a3a8615491a7fdd17e473178a009c416d230d7feb62df611f6cf1c05c08aa67459bb267e598cb3f9d0d0902e16c5b5c37c712a27fce2d4aca55965ec1a28a25b4f43a5db10b579fcffc64598efadc664d5d00e997181818187bffffffffffffffffffffffffffffffffffffffffffffffffffffffff1916827bffffffffffffffffffffffffffffffffffffffffffffffffffffffff1916145b9050919050565b60008054906101000a900473ffffffffffffffffffffffffffffffffffffffff1673ffffffffffffffffffffffffffffffffffffffff163373ffffffffffffffffffffffffffffffffffffffff1614610372576040517f08c379a000000000000000000000000000000000000000000000000000000000815260040161036990611170565b60405180910390fd5b600160009054906101000a900473ffffffffffffffffffffffffffffffffffffffff1673ffffffffffffffffffffffffffffffffffffffff1663fab3157e600360009054906101000a900473ffffffffffffffffffffffffffffffffffffffff166040518263ffffffff1660e01b81526004016103ef91906110fa565b600060405180830381600087803b15801561040957600080fd5b505af115801561041d573d6000803e3d6000fd5b50505050610429610d2f565b565b60008054906101000a900473ffffffffffffffffffffffffffffffffffffffff1681565b600360009054906101000a900473ffffffffffffffffffffffffffffffffffffffff1681565b60008060009054906101000a900473ffffffffffffffffffffffffffffffffffffffff1673ffffffffffffffffffffffffffffffffffffffff163373ffffffffffffffffffffffffffffffffffffffff1614610506576040517f08c379a00000000000000000000000000000000000000000000000000000000081526004016104fd90611170565b60405180910390fd5b60008390506000815190506000600260009054906101000a900473ffffffffffffffffffffffffffffffffffffffff169050600080836020860188855af19350848660405161055591906110e3565b60405180910390207f101abacb8de0d05456bbaf85756276fd0c5225e9ede84f539855df28aba51a7e60405160405180910390a350505092915050565b60008054906101000a900473ffffffffffffffffffffffffffffffffffffffff1673ffffffffffffffffffffffffffffffffffffffff163373ffffffffffffffffffffffffffffffffffffffff1614610620576040517f08c379a000000000000000000000000000000000000000000000000000000000815260040161061790611170565b60405180910390fd5b80600360006101000a81548173ffffffffffffffffffffffffffffffffffffffff021916908373ffffffffffffffffffffffffffffffffffffffff160217905550600160009054906101000a900473ffffffffffffffffffffffffffffffffffffffff1673ffffffffffffffffffffffffffffffffffffffff1663845de7bc600360009054906101000a900473ffffffffffffffffffffffffffffffffffffffff166040518263ffffffff1660e01b81526004016106de91906110fa565b600060405180830381600087803b1580156106f857600080fd5b505af115801561070c573d6000803e3d6000fd5b5050505050565b600073ffffffffffffffffffffffffffffffffffffffff16600360009054906101000a900473ffffffffffffffffffffffffffffffffffffffff1673ffffffffffffffffffffffffffffffffffffffff1614156107a5576040517f08c379a000000000000000000000000000000000000000000000000000000000815260040161079c90611190565b60405180910390fd5b600360009054906101000a900473ffffffffffffffffffffffffffffffffffffffff1673ffffffffffffffffffffffffffffffffffffffff163373ffffffffffffffffffffffffffffffffffffffff1614610835576040517f08c379a000000000000000000000000000000000000000000000000000000000815260040161082c90611130565b60405180910390fd5b600360009054906101000a900473ffffffffffffffffffffffffffffffffffffffff166000806101000a81548173ffffffffffffffffffffffffffffffffffffffff021916908373ffffffffffffffffffffffffffffffffffffffff160217905550600160009054906101000a900473ffffffffffffffffffffffffffffffffffffffff1673ffffffffffffffffffffffffffffffffffffffff1663ebdcd2eb600360009054906101000a900473ffffffffffffffffffffffffffffffffffffffff166040518263ffffffff1660e01b815260040161091491906110fa565b600060405180830381600087803b15801561092e57600080fd5b505af1158015610942573d6000803e3d6000fd5b5050505061094e610d2f565b565b600073ffffffffffffffffffffffffffffffffffffffff16600360009054906101000a900473ffffffffffffffffffffffffffffffffffffffff1673ffffffffffffffffffffffffffffffffffffffff1614156109e2576040517f08c379a00000000000000000000000000000000000000000000000000000000081526004016109d990611190565b60405180910390fd5b600360009054906101000a900473ffffffffffffffffffffffffffffffffffffffff1673ffffffffffffffffffffffffffffffffffffffff163373ffffffffffffffffffffffffffffffffffffffff1614610a72576040517f08c379a0000000000000000000000000000000000000000000000000000000008152600401610a6990611130565b60405180910390fd5b600160009054906101000a900473ffffffffffffffffffffffffffffffffffffffff1673ffffffffffffffffffffffffffffffffffffffff1663f0ba4f60600360009054906101000a900473ffffffffffffffffffffffffffffffffffffffff166040518263ffffffff1660e01b8152600401610aef91906110fa565b600060405180830381600087803b158015610b0957600080fd5b505af1158015610b1d573d6000803e3d6000fd5b50505050610b29610d2f565b565b600073ffffffffffffffffffffffffffffffffffffffff16600160009054906101000a900473ffffffffffffffffffffffffffffffffffffffff1673ffffffffffffffffffffffffffffffffffffffff1614610bbc576040517f08c379a0000000000000000000000000000000000000000000000000000000008152600401610bb390611150565b60405180910390fd5b816000806101000a81548173ffffffffffffffffffffffffffffffffffffffff021916908373ffffffffffffffffffffffffffffffffffffffff16021790555033600160006101000a81548173ffffffffffffffffffffffffffffffffffffffff021916908373ffffffffffffffffffffffffffffffffffffffff16021790555080600260006101000a81548173ffffffffffffffffffffffffffffffffffffffff021916908373ffffffffffffffffffffffffffffffffffffffff160217905550600160009054906101000a900473ffffffffffffffffffffffffffffffffffffffff1673ffffffffffffffffffffffffffffffffffffffff1663062960d460008054906101000a900473ffffffffffffffffffffffffffffffffffffffff166040518263ffffffff1660e01b8152600401610cf991906110fa565b600060405180830381600087803b158015610d1357600080fd5b505af1158015610d27573d6000803e3d6000fd5b505050505050565b6000600360006101000a81548173ffffffffffffffffffffffffffffffffffffffff021916908373ffffffffffffffffffffffffffffffffffffffff160217905550565b6000610d86610d81846111e1565b6111b0565b905082815260208101848484011115610d9e57600080fd5b610da98482856112ac565b509392505050565b600081359050610dc08161131d565b92915050565b600081359050610dd581611334565b92915050565b600082601f830112610dec57600080fd5b8135610dfc848260208601610d73565b91505092915050565b600081359050610e148161134b565b92915050565b600060208284031215610e2c57600080fd5b6000610e3a84828501610db1565b91505092915050565b60008060408385031215610e5657600080fd5b6000610e6485828601610db1565b9250506020610e7585828601610db1565b9150509250929050565b600060208284031215610e9157600080fd5b6000610e9f84828501610dc6565b91505092915050565b60008060408385031215610ebb57600080fd5b600083013567ffffffffffffffff811115610ed557600080fd5b610ee185828601610ddb565b9250506020610ef285828601610e05565b9150509250929050565b610f0581611238565b82525050565b610f148161124a565b82525050565b6000610f2582611211565b610f2f818561121c565b9350610f3f8185602086016112bb565b80840191505092915050565b6000610f58603183611227565b91507f4f6666657261626c654964656e746974793a2050726f7879206f66666572656460008301527f20746f206f74686572206163636f756e740000000000000000000000000000006020830152604082019050919050565b6000610fbe603783611227565b91507f4f6666657261626c654964656e746974793a204964656e746974792063616e2060008301527f626520696e697469616c697a65206f6e6c79206f6e63650000000000000000006020830152604082019050919050565b6000611024602583611227565b91507f4f6666657261626c654964656e746974793a204f6e6c79206f776e657220616c60008301527f6c6f7765640000000000000000000000000000000000000000000000000000006020830152604082019050919050565b600061108a602783611227565b91507f4f6666657261626c654964656e746974793a2050726f7879206973206e6f742060008301527f6f666665726564000000000000000000000000000000000000000000000000006020830152604082019050919050565b60006110ef8284610f1a565b915081905092915050565b600060208201905061110f6000830184610efc565b92915050565b600060208201905061112a6000830184610f0b565b92915050565b6000602082019050818103600083015261114981610f4b565b9050919050565b6000602082019050818103600083015261116981610fb1565b9050919050565b6000602082019050818103600083015261118981611017565b9050919050565b600060208201905081810360008301526111a98161107d565b9050919050565b6000604051905081810181811067ffffffffffffffff821117156111d7576111d66112ee565b5b8060405250919050565b600067ffffffffffffffff8211156111fc576111fb6112ee565b5b601f19601f8301169050602081019050919050565b600081519050919050565b600081905092915050565b600082825260208201905092915050565b600061124382611282565b9050919050565b60008115159050919050565b60007fffffffff0000000000000000000000000000000000000000000000000000000082169050919050565b600073ffffffffffffffffffffffffffffffffffffffff82169050919050565b6000819050919050565b82818337600083830152505050565b60005b838110156112d95780820151818401526020810190506112be565b838111156112e8576000848401525b50505050565b7f4e487b7100000000000000000000000000000000000000000000000000000000600052604160045260246000fd5b61132681611238565b811461133157600080fd5b50565b61133d81611256565b811461134857600080fd5b50565b611354816112a2565b811461135f57600080fd5b5056fea264697066735822122072526ad173dcb87ec7de6b71aac1da485d51e1fa0a541c6b648c348652fd63ec64736f6c63430008000033",
  "immutableReferences": {},
  "source": "pragma solidity 0.8.0;\n\nimport \"@openzeppelin/contracts/utils/introspection/ERC165.sol\";\nimport \"./IdentityManager.sol\";\n\n\ncontract OfferableIdentity is ERC165 {\n  address public owner;\n  address manager;\n  address ethrRegistry;\n\n  bytes4 constant ERC165ID = bytes4(keccak256(\"supportsInterface(bytes4)\"));\n  bytes4 constant offerID = bytes4(keccak256(\"offer(address)\"));\n  bytes4 constant acceptOfferID = bytes4(keccak256(\"acceptOffer()\"));\n  bytes4 constant rejectOfferID = bytes4(keccak256(\"rejectOffer()\"));\n  bytes4 constant cancelOfferID = bytes4(keccak256(\"cancelOffer()\"));\n  bytes4 constant sendTxID = bytes4(\n    keccak256(\"sendTransaction(bytes,address,uin256)\")\n  );\n  bytes4 constant offerableID = offerID ^\n    acceptOfferID ^\n    rejectOfferID ^\n    cancelOfferID ^\n    sendTxID;\n\n  address public offeredTo;\n\n  event TransactionSent(\n    bytes indexed data,\n    uint256 indexed value\n  );\n\n  function init(address _owner, address _ethrRegistry) external {\n    require(manager == address(0), \"OfferableIdentity: Identity can be initialize only once\");\n    owner = _owner;\n    manager = msg.sender;\n    ethrRegistry = _ethrRegistry;\n    IdentityManager(manager).identityCreated(owner);\n  }\n\n  modifier isOwner() {\n    require(msg.sender == owner, \"OfferableIdentity: Only owner allowed\");\n    _;\n  }\n\n  modifier isOfferedTo() {\n    require(offeredTo != address(0), \"OfferableIdentity: Proxy is not offered\");\n    require(msg.sender == offeredTo, \"OfferableIdentity: Proxy offered to other account\");\n    _;\n  }\n\n  function offer(address _offeredTo) external isOwner {\n    offeredTo = _offeredTo;\n    IdentityManager(manager).identityOffered(offeredTo);\n  }\n\n  function acceptOffer() external isOfferedTo {\n    owner = offeredTo;\n    IdentityManager(manager).identityAccepted(offeredTo);\n    closeOffer();\n  }\n\n  function rejectOffer() external isOfferedTo {\n    IdentityManager(manager).identityRejected(offeredTo);\n    closeOffer();\n  }\n\n  function cancelOffer() external isOwner {\n    IdentityManager(manager).identityOfferCanceled(offeredTo);\n    closeOffer();\n  }\n\n  function closeOffer() internal {\n    offeredTo = address(0);\n  }\n\n  function update(bytes memory _data, uint256 value)\n    public\n    isOwner\n    returns (bool success)\n  {\n    bytes memory data = _data;\n    uint256 len = data.length;\n    address _ethrRegistry = ethrRegistry; \n    // solium-disable-next-line security/no-inline-assembly\n    assembly {\n      success := call(gas(), _ethrRegistry, value, add(data, 0x20), len, 0, 0)\n    }\n    emit TransactionSent(_data, value);\n  }\n\n  function supportsInterface(bytes4 interfaceID)\n    public\n    virtual\n    view\n    override\n    returns (bool)\n  {\n    return interfaceID == ERC165ID || interfaceID == offerableID;\n  }\n}\n",
  "sourcePath": "/home/dima/Development/ew-did-registry/packages/proxyIdentity/contracts/OfferableIdentity.sol",
  "compiler": {
    "name": "solc",
    "version": "0.8.0+commit.c7dfd78e.Emscripten.clang"
  },
  "schemaVersion": "3.3.4",
  "updatedAt": "2021-03-31T08:08:41.317Z",
  "devdoc": {
    "kind": "dev",
    "methods": {},
    "version": 1
  },
  "userdoc": {
    "kind": "user",
    "methods": {},
    "version": 1
  }
}