{
  "contractName": "Payable",
  "abi": [
    {
      "constant": false,
      "inputs": [],
      "name": "payMe",
      "outputs": [],
      "payable": true,
      "stateMutability": "payable",
      "type": "function"
    }
  ],
  "bytecode": "0x6080604052348015600f57600080fd5b50605780601d6000396000f3fe608060405260043610601c5760003560e01c8063d997ccb3146021575b600080fd5b60276029565b005b56fea165627a7a7230582091f546279cd7a76984cbf5ca0e6a68d18104cd6d9498bef0bc8fbdde93f864460029",
  "deployedBytecode": "0x608060405260043610601c5760003560e01c8063d997ccb3146021575b600080fd5b60276029565b005b56fea165627a7a7230582091f546279cd7a76984cbf5ca0e6a68d18104cd6d9498bef0bc8fbdde93f864460029",
  "source": "pragma solidity 0.5.8;\n\ncontract Payable {\n    function payMe() external payable {}\n}\n",
  "sourcePath": "/home/dima/Development/ew-did-registry/packages/proxyIdentity/contracts/payable.sol",
  "compiler": {
    "name": "solc",
    "version": "0.5.8+commit.23d335f2.Emscripten.clang"
  },
  "schemaVersion": "3.0.16",
  "updatedAt": "2020-03-13T09:34:55.095Z",
  "devdoc": {
    "methods": {}
  },
  "userdoc": {
    "methods": {}
  }
}