{
  "contractName": "ProxyIdentity",
  "abi": [
    {
      "constant": true,
      "inputs": [],
      "name": "owner",
      "outputs": [
        {
          "name": "",
          "type": "address"
        }
      ],
      "payable": false,
      "stateMutability": "view",
      "type": "function"
    },
    {
      "inputs": [],
      "payable": false,
      "stateMutability": "nonpayable",
      "type": "constructor"
    },
    {
      "payable": true,
      "stateMutability": "payable",
      "type": "fallback"
    },
    {
      "anonymous": false,
      "inputs": [
        {
          "indexed": false,
          "name": "data",
          "type": "bytes"
        },
        {
          "indexed": false,
          "name": "to",
          "type": "address"
        },
        {
          "indexed": false,
          "name": "success",
          "type": "bool"
        },
        {
          "indexed": false,
          "name": "sig",
          "type": "bytes4"
        },
        {
          "indexed": false,
          "name": "len",
          "type": "uint256"
        }
      ],
      "name": "TransactionSend",
      "type": "event"
    },
    {
      "anonymous": false,
      "inputs": [
        {
          "indexed": false,
          "name": "identity",
          "type": "address"
        },
        {
          "indexed": false,
          "name": "success",
          "type": "bool"
        }
      ],
      "name": "IdentityOwner",
      "type": "event"
    },
    {
      "anonymous": false,
      "inputs": [
        {
          "indexed": false,
          "name": "to",
          "type": "address"
        },
        {
          "indexed": false,
          "name": "first",
          "type": "address"
        },
        {
          "indexed": false,
          "name": "second",
          "type": "address"
        }
      ],
      "name": "ChangeOwner",
      "type": "event"
    },
    {
      "constant": false,
      "inputs": [
        {
          "name": "_data",
          "type": "bytes"
        },
        {
          "name": "to",
          "type": "address"
        }
      ],
      "name": "sendTransaction",
      "outputs": [],
      "payable": false,
      "stateMutability": "nonpayable",
      "type": "function"
    }
  ],
  "bytecode": "0x608060405234801561001057600080fd5b5033600160006101000a81548173ffffffffffffffffffffffffffffffffffffffff021916908373ffffffffffffffffffffffffffffffffffffffff1602179055506103e2806100616000396000f3fe6080604052600436106100295760003560e01c8063438408551461002b5780638da5cb5b146100d1575b005b34801561003757600080fd5b506100cf6004803603604081101561004e57600080fd5b810190808035906020019064010000000081111561006b57600080fd5b82018360208201111561007d57600080fd5b8035906020019184600183028401116401000000008311171561009f57600080fd5b9091929391929390803573ffffffffffffffffffffffffffffffffffffffff169060200190929190505050610128565b005b3480156100dd57600080fd5b506100e6610390565b604051808273ffffffffffffffffffffffffffffffffffffffff1673ffffffffffffffffffffffffffffffffffffffff16815260200191505060405180910390f35b600160009054906101000a900473ffffffffffffffffffffffffffffffffffffffff1673ffffffffffffffffffffffffffffffffffffffff163373ffffffffffffffffffffffffffffffffffffffff16146101eb576040517f08c379a00000000000000000000000000000000000000000000000000000000081526004018080602001828103825260128152602001807f4f6e6c79206f776e657220616c6c6f776564000000000000000000000000000081525060200191505060405180910390fd5b6000606084848080601f016020809104026020016040519081016040528093929190818152602001838380828437600081840152601f19601f820116905080830192505050505050509050600081519050600060405180807f6368616e67654f776e657228616464726573732c616464726573732900000000815250601c019050604051809103902090506000808360208601600089620186a0f19350600084141561029657600080fd5b7f5136cb6a2e41af6f09bbe2fd9609ddc036c0919941a3ed06caa3637b9e6f77f587878787858760405180806020018673ffffffffffffffffffffffffffffffffffffffff1673ffffffffffffffffffffffffffffffffffffffff16815260200185151515158152602001847bffffffffffffffffffffffffffffffffffffffffffffffffffffffff19167bffffffffffffffffffffffffffffffffffffffffffffffffffffffff191681526020018381526020018281038252888882818152602001925080828437600081840152601f19601f82011690508083019250505097505050505050505060405180910390a150505050505050565b600160009054906101000a900473ffffffffffffffffffffffffffffffffffffffff168156fea165627a7a723058203366e347ebf486f046d93bed5b202ca4b91e021bb8f1b238996075c4834d34160029",
  "source": "pragma solidity 0.5.8;\n\ncontract ProxyIdentity {\n    address[] recoveryAgents;\n\n    address public owner;\n\n    event TransactionSend(\n        bytes data,\n        address to,\n        bool success,\n        bytes4 sig,\n        uint256 len\n    );\n    event IdentityOwner(address identity, bool success);\n    event ChangeOwner(address to, address first, address second);\n\n    constructor() public {\n        owner = msg.sender;\n        // @TODO: set sender as proxy owner\n    }\n\n    modifier _owner() {\n        require(msg.sender == owner, \"Only owner allowed\");\n        _;\n    }\n\n    modifier _recoveryAgent() {\n        bool found = false;\n        for (uint256 i = 0; i < recoveryAgents.length; i++) {\n            if (recoveryAgents[i] == msg.sender) {\n                found = true;\n                break;\n            }\n        }\n        require(found, \"Only recovery agent can change the owner\");\n        _;\n    }\n\n    function sendTransaction(bytes calldata _data, address to) external _owner {\n        bool success;\n        bytes memory data = _data;\n        uint256 len = data.length;\n        bytes4 sig = bytes4(keccak256(\"changeOwner(address,address)\"));\n        // solium-disable-next-line security/no-inline-assembly\n        assembly {\n            success := call(100000, to, 0, add(data, 0x20), len, 0, 0)\n            if eq(success, 0) {\n                revert(0, 0)\n            }\n        }\n        emit TransactionSend(_data, to, success, sig, len);\n    }\n\n    function() external payable {}\n}\n",
  "sourcePath": "/home/dima/Development/ew-did-registry/packages/proxyIdentity/contracts/proxyIdentity.sol",
  "compiler": {
    "name": "solc",
    "version": "0.5.8+commit.23d335f2.Emscripten.clang"
  },
  "schemaVersion": "3.0.16",
  "updatedAt": "2020-03-10T09:25:00.294Z",
  "devdoc": {
    "methods": {}
  },
  "userdoc": {
    "methods": {}
  }
}