{
  "contractName": "ProxyFactory",
  "abi": [
    {
      "inputs": [
        {
          "internalType": "address",
          "name": "_erc1056",
          "type": "address"
        },
        {
          "internalType": "address",
          "name": "_erc1155",
          "type": "address"
        }
      ],
      "payable": false,
      "stateMutability": "nonpayable",
      "type": "constructor"
    },
    {
      "anonymous": false,
      "inputs": [
        {
          "indexed": false,
          "internalType": "address",
          "name": "proxy",
          "type": "address"
        }
      ],
      "name": "ProxyCreated",
      "type": "event"
    },
    {
      "constant": false,
      "inputs": [
        {
          "internalType": "string",
          "name": "serial",
          "type": "string"
        }
      ],
      "name": "create",
      "outputs": [],
      "payable": false,
      "stateMutability": "nonpayable",
      "type": "function"
    },
    {
      "constant": false,
      "inputs": [
        {
          "internalType": "string[]",
          "name": "serials",
          "type": "string[]"
        }
      ],
      "name": "createBatch",
      "outputs": [],
      "payable": false,
      "stateMutability": "nonpayable",
      "type": "function"
    },
    {
      "constant": false,
      "inputs": [
        {
          "internalType": "string",
          "name": "serial",
          "type": "string"
        },
        {
          "internalType": "address",
          "name": "newOwner",
          "type": "address"
        }
      ],
      "name": "changeOwner",
      "outputs": [],
      "payable": false,
      "stateMutability": "nonpayable",
      "type": "function"
    },
    {
      "constant": false,
      "inputs": [
        {
          "internalType": "string[]",
          "name": "serials",
          "type": "string[]"
        },
        {
          "internalType": "address",
          "name": "newOwner",
          "type": "address"
        }
      ],
      "name": "changeOwnerBatch",
      "outputs": [
        {
          "internalType": "bool",
          "name": "",
          "type": "bool"
        }
      ],
      "payable": false,
      "stateMutability": "nonpayable",
      "type": "function"
    },
    {
      "constant": true,
      "inputs": [
        {
          "internalType": "string",
          "name": "serial",
          "type": "string"
        }
      ],
      "name": "proxyBySerial",
      "outputs": [
        {
          "components": [
            {
              "internalType": "address payable",
              "name": "itsAddress",
              "type": "address"
            },
            {
              "internalType": "address",
              "name": "creator",
              "type": "address"
            },
            {
              "internalType": "address",
              "name": "owner",
              "type": "address"
            },
            {
              "internalType": "address[]",
              "name": "agents",
              "type": "address[]"
            },
            {
              "internalType": "string",
              "name": "serial",
              "type": "string"
            }
          ],
          "internalType": "struct ProxyFactory.Proxy",
          "name": "",
          "type": "tuple"
        }
      ],
      "payable": false,
      "stateMutability": "view",
      "type": "function"
    },
    {
      "constant": true,
      "inputs": [
        {
          "internalType": "string[]",
          "name": "serials",
          "type": "string[]"
        }
      ],
      "name": "proxiesBySerials",
      "outputs": [
        {
          "components": [
            {
              "internalType": "address payable",
              "name": "itsAddress",
              "type": "address"
            },
            {
              "internalType": "address",
              "name": "creator",
              "type": "address"
            },
            {
              "internalType": "address",
              "name": "owner",
              "type": "address"
            },
            {
              "internalType": "address[]",
              "name": "agents",
              "type": "address[]"
            },
            {
              "internalType": "string",
              "name": "serial",
              "type": "string"
            }
          ],
          "internalType": "struct ProxyFactory.Proxy[]",
          "name": "",
          "type": "tuple[]"
        }
      ],
      "payable": false,
      "stateMutability": "view",
      "type": "function"
    },
    {
      "constant": true,
      "inputs": [
        {
          "internalType": "address",
          "name": "proxyAddress",
          "type": "address"
        }
      ],
      "name": "proxyByAddress",
      "outputs": [
        {
          "components": [
            {
              "internalType": "address payable",
              "name": "itsAddress",
              "type": "address"
            },
            {
              "internalType": "address",
              "name": "creator",
              "type": "address"
            },
            {
              "internalType": "address",
              "name": "owner",
              "type": "address"
            },
            {
              "internalType": "address[]",
              "name": "agents",
              "type": "address[]"
            },
            {
              "internalType": "string",
              "name": "serial",
              "type": "string"
            }
          ],
          "internalType": "struct ProxyFactory.Proxy",
          "name": "",
          "type": "tuple"
        }
      ],
      "payable": false,
      "stateMutability": "view",
      "type": "function"
    },
    {
      "constant": true,
      "inputs": [
        {
          "internalType": "string",
          "name": "s1",
          "type": "string"
        },
        {
          "internalType": "string",
          "name": "s2",
          "type": "string"
        }
      ],
      "name": "compareStr",
      "outputs": [
        {
          "internalType": "bool",
          "name": "",
          "type": "bool"
        }
      ],
      "payable": false,
      "stateMutability": "view",
      "type": "function"
    },
    {
      "constant": true,
      "inputs": [
        {
          "internalType": "address",
          "name": "account",
          "type": "address"
        },
        {
          "internalType": "string",
          "name": "serial",
          "type": "string"
        }
      ],
      "name": "isOwnerOrApproved",
      "outputs": [
        {
          "internalType": "bool",
          "name": "",
          "type": "bool"
        }
      ],
      "payable": false,
      "stateMutability": "view",
      "type": "function"
    },
    {
      "constant": false,
      "inputs": [
        {
          "internalType": "address",
          "name": "newOwner",
          "type": "address"
        }
      ],
      "name": "proxyOwnerChanged",
      "outputs": [],
      "payable": false,
      "stateMutability": "nonpayable",
      "type": "function"
    },
    {
      "constant": true,
      "inputs": [],
      "name": "allProxies",
      "outputs": [
        {
          "components": [
            {
              "internalType": "address payable",
              "name": "itsAddress",
              "type": "address"
            },
            {
              "internalType": "address",
              "name": "creator",
              "type": "address"
            },
            {
              "internalType": "address",
              "name": "owner",
              "type": "address"
            },
            {
              "internalType": "address[]",
              "name": "agents",
              "type": "address[]"
            },
            {
              "internalType": "string",
              "name": "serial",
              "type": "string"
            }
          ],
          "internalType": "struct ProxyFactory.Proxy[]",
          "name": "",
          "type": "tuple[]"
        }
      ],
      "payable": false,
      "stateMutability": "view",
      "type": "function"
    }
  ],
  "bytecode": "0x60806040523480156200001157600080fd5b5060405162005001380380620050018339818101604052620000379190810190620000d7565b816000806101000a81548173ffffffffffffffffffffffffffffffffffffffff021916908373ffffffffffffffffffffffffffffffffffffffff16021790555080600160006101000a81548173ffffffffffffffffffffffffffffffffffffffff021916908373ffffffffffffffffffffffffffffffffffffffff160217905550505062000166565b600081519050620000d1816200014c565b92915050565b60008060408385031215620000eb57600080fd5b6000620000fb85828601620000c0565b92505060206200010e85828601620000c0565b9150509250929050565b600062000125826200012c565b9050919050565b600073ffffffffffffffffffffffffffffffffffffffff82169050919050565b620001578162000118565b81146200016357600080fd5b50565b614e8b80620001766000396000f3fe60806040523480156200001157600080fd5b5060043610620000b85760003560e01c80638fb84af9116200007b5780638fb84af914620001b5578063b6a46b3b14620001d5578063bb2de95014620001f5578063bc212dd7146200022b578063d8f9d1441462000261578063facdef11146200028157620000b8565b80631963cb9914620000bd578063231977a814620000f357806328a78aa414620001295780633b75a8b7146200015f57806387c5d5cc146200017f575b600080fd5b620000db6004803603620000d5919081019062001829565b620002a3565b604051620000ea919062001f94565b60405180910390f35b6200011160048036036200010b919081019062001883565b62000388565b60405162000120919062001f70565b60405180910390f35b620001476004803603620001419190810190620018c8565b6200042c565b60405162000156919062001f94565b60405180910390f35b6200017d600480360362000177919081019062001883565b62000473565b005b6200019d6004803603620001979190810190620019c1565b620004b4565b604051620001ac919062001f94565b60405180910390f35b620001d36004803603620001cd9190810190620017fd565b62000511565b005b620001f36004803603620001ed919081019062001922565b620006c7565b005b6200021360048036036200020d9190810190620017fd565b620009b5565b60405162000222919062002017565b60405180910390f35b62000249600480360362000243919081019062001922565b62000cd3565b60405162000258919062002017565b60405180910390f35b6200027f600480360362000279919081019062001967565b6200104a565b005b6200028b620011a4565b6040516200029a919062001f70565b60405180910390f35b6000620002af6200143d565b620002ba8362000cd3565b90508373ffffffffffffffffffffffffffffffffffffffff16816040015173ffffffffffffffffffffffffffffffffffffffff1614156200030057600191505062000382565b60008090505b8160600151518110156200037b578473ffffffffffffffffffffffffffffffffffffffff16826060015182815181106200033c57fe5b602002602001015173ffffffffffffffffffffffffffffffffffffffff1614156200036d5760019250505062000382565b808060010191505062000306565b5060009150505b92915050565b6060808251604051908082528060200260200182016040528015620003ca57816020015b620003b6620014ae565b815260200190600190039081620003ac5790505b50905060008090505b83518110156200042257620003fc848281518110620003ee57fe5b602002602001015162000cd3565b8282815181106200040957fe5b60200260200101819052508080600101915050620003d3565b5080915050919050565b600080600090505b83518110156200046c576200045e8482815181106200044f57fe5b6020026020010151846200104a565b808060010191505062000434565b5092915050565b60008090505b8151811015620004b057620004a28282815181106200049457fe5b6020026020010151620006c7565b808060010191505062000479565b5050565b600081604051602001620004c9919062001ec9565b6040516020818303038152906040528051906020012083604051602001620004f2919062001ec9565b6040516020818303038152906040528051906020012014905092915050565b60007fffffffffffffffffffffffffffffffffffffffffffffffffffffffffffffffff905060008090505b600280549050816fffffffffffffffffffffffffffffffff1610156200060b573373ffffffffffffffffffffffffffffffffffffffff166002826fffffffffffffffffffffffffffffffff16815481106200059357fe5b906000526020600020906005020160000160009054906101000a900473ffffffffffffffffffffffffffffffffffffffff1673ffffffffffffffffffffffffffffffffffffffff161415620005fd57806fffffffffffffffffffffffffffffffff1691506200060b565b80806001019150506200053c565b50600081121562000653576040517f08c379a00000000000000000000000000000000000000000000000000000000081526004016200064a9062001fd3565b60405180910390fd5b816002826fffffffffffffffffffffffffffffffff16815481106200067457fe5b906000526020600020906005020160020160006101000a81548173ffffffffffffffffffffffffffffffffffffffff021916908373ffffffffffffffffffffffffffffffffffffffff1602179055505050565b60008060009054906101000a900473ffffffffffffffffffffffffffffffffffffffff16600160009054906101000a900473ffffffffffffffffffffffffffffffffffffffff1683336040516200071e906200151f565b6200072d949392919062001f1c565b604051809103906000f0801580156200074a573d6000803e3d6000fd5b50905060606001604051908082528060200260200182016040528015620007805781602001602082028038833980820191505090505b50905033816000815181106200079257fe5b602002602001019073ffffffffffffffffffffffffffffffffffffffff16908173ffffffffffffffffffffffffffffffffffffffff168152505060026040518060a001604052808473ffffffffffffffffffffffffffffffffffffffff1681526020013373ffffffffffffffffffffffffffffffffffffffff1681526020013373ffffffffffffffffffffffffffffffffffffffff168152602001838152602001858152509080600181540180825580915050906001820390600052602060002090600502016000909192909190915060008201518160000160006101000a81548173ffffffffffffffffffffffffffffffffffffffff021916908373ffffffffffffffffffffffffffffffffffffffff16021790555060208201518160010160006101000a81548173ffffffffffffffffffffffffffffffffffffffff021916908373ffffffffffffffffffffffffffffffffffffffff16021790555060408201518160020160006101000a81548173ffffffffffffffffffffffffffffffffffffffff021916908373ffffffffffffffffffffffffffffffffffffffff1602179055506060820151816003019080519060200190620009559291906200152d565b50608082015181600401908051906020019062000974929190620015bc565b505050507efffc2da0b561cae30d9826d37709e9421c4725faebc226cbbb7ef5fc5e734982604051620009a8919062001eff565b60405180910390a1505050565b620009bf6200143d565b620009c96200143d565b60008090505b60028054905081101562000cc8578373ffffffffffffffffffffffffffffffffffffffff166002828154811062000a0257fe5b906000526020600020906005020160000160009054906101000a900473ffffffffffffffffffffffffffffffffffffffff1673ffffffffffffffffffffffffffffffffffffffff16141562000cba576002818154811062000a5f57fe5b90600052602060002090600502016040518060a00160405290816000820160009054906101000a900473ffffffffffffffffffffffffffffffffffffffff1673ffffffffffffffffffffffffffffffffffffffff1673ffffffffffffffffffffffffffffffffffffffff1681526020016001820160009054906101000a900473ffffffffffffffffffffffffffffffffffffffff1673ffffffffffffffffffffffffffffffffffffffff1673ffffffffffffffffffffffffffffffffffffffff1681526020016002820160009054906101000a900473ffffffffffffffffffffffffffffffffffffffff1673ffffffffffffffffffffffffffffffffffffffff1673ffffffffffffffffffffffffffffffffffffffff1681526020016003820180548060200260200160405190810160405280929190818152602001828054801562000c0157602002820191906000526020600020905b8160009054906101000a900473ffffffffffffffffffffffffffffffffffffffff1673ffffffffffffffffffffffffffffffffffffffff168152602001906001019080831162000bb6575b50505050508152602001600482018054600181600116156101000203166002900480601f01602080910402602001604051908101604052809291908181526020018280546001816001161561010002031660029004801562000ca75780601f1062000c7b5761010080835404028352916020019162000ca7565b820191906000526020600020905b81548152906001019060200180831162000c8957829003601f168201915b5050505050815250509250505062000cce565b8080600101915050620009cf565b50809150505b919050565b62000cdd6200143d565b62000ce76200143d565b60008090505b6002805490508110156200103f5762000dc26002828154811062000d0d57fe5b90600052602060002090600502016004018054600181600116156101000203166002900480601f01602080910402602001604051908101604052809291908181526020018280546001816001161561010002031660029004801562000db65780601f1062000d8a5761010080835404028352916020019162000db6565b820191906000526020600020905b81548152906001019060200180831162000d9857829003601f168201915b505050505085620004b4565b1562001031576002818154811062000dd657fe5b90600052602060002090600502016040518060a00160405290816000820160009054906101000a900473ffffffffffffffffffffffffffffffffffffffff1673ffffffffffffffffffffffffffffffffffffffff1673ffffffffffffffffffffffffffffffffffffffff1681526020016001820160009054906101000a900473ffffffffffffffffffffffffffffffffffffffff1673ffffffffffffffffffffffffffffffffffffffff1673ffffffffffffffffffffffffffffffffffffffff1681526020016002820160009054906101000a900473ffffffffffffffffffffffffffffffffffffffff1673ffffffffffffffffffffffffffffffffffffffff1673ffffffffffffffffffffffffffffffffffffffff1681526020016003820180548060200260200160405190810160405280929190818152602001828054801562000f7857602002820191906000526020600020905b8160009054906101000a900473ffffffffffffffffffffffffffffffffffffffff1673ffffffffffffffffffffffffffffffffffffffff168152602001906001019080831162000f2d575b50505050508152602001600482018054600181600116156101000203166002900480601f0160208091040260200160405190810160405280929190818152602001828054600181600116156101000203166002900480156200101e5780601f1062000ff2576101008083540402835291602001916200101e565b820191906000526020600020905b8154815290600101906020018083116200100057829003601f168201915b5050505050815250509250505062001045565b808060010191505062000ced565b50809150505b919050565b620010546200143d565b6200105f8362000cd3565b9050600073ffffffffffffffffffffffffffffffffffffffff16816000015173ffffffffffffffffffffffffffffffffffffffff161415620010d8576040517f08c379a0000000000000000000000000000000000000000000000000000000008152600401620010cf9062001ff5565b60405180910390fd5b620010e43384620002a3565b62001126576040517f08c379a00000000000000000000000000000000000000000000000000000000081526004016200111d9062001fb1565b60405180910390fd5b6000816000015190508073ffffffffffffffffffffffffffffffffffffffff1663a6f9dae1846040518263ffffffff1660e01b81526004016200116a919062001ee2565b600060405180830381600087803b1580156200118557600080fd5b505af11580156200119a573d6000803e3d6000fd5b5050505050505050565b60606002805480602002602001604051908101604052809291908181526020016000905b828210156200143457838290600052602060002090600502016040518060a00160405290816000820160009054906101000a900473ffffffffffffffffffffffffffffffffffffffff1673ffffffffffffffffffffffffffffffffffffffff1673ffffffffffffffffffffffffffffffffffffffff1681526020016001820160009054906101000a900473ffffffffffffffffffffffffffffffffffffffff1673ffffffffffffffffffffffffffffffffffffffff1673ffffffffffffffffffffffffffffffffffffffff1681526020016002820160009054906101000a900473ffffffffffffffffffffffffffffffffffffffff1673ffffffffffffffffffffffffffffffffffffffff1673ffffffffffffffffffffffffffffffffffffffff168152602001600382018054806020026020016040519081016040528092919081815260200182805480156200137557602002820191906000526020600020905b8160009054906101000a900473ffffffffffffffffffffffffffffffffffffffff1673ffffffffffffffffffffffffffffffffffffffff16815260200190600101908083116200132a575b50505050508152602001600482018054600181600116156101000203166002900480601f0160208091040260200160405190810160405280929190818152602001828054600181600116156101000203166002900480156200141b5780601f10620013ef576101008083540402835291602001916200141b565b820191906000526020600020905b815481529060010190602001808311620013fd57829003601f168201915b50505050508152505081526020019060010190620011c8565b50505050905090565b6040518060a00160405280600073ffffffffffffffffffffffffffffffffffffffff168152602001600073ffffffffffffffffffffffffffffffffffffffff168152602001600073ffffffffffffffffffffffffffffffffffffffff16815260200160608152602001606081525090565b6040518060a00160405280600073ffffffffffffffffffffffffffffffffffffffff168152602001600073ffffffffffffffffffffffffffffffffffffffff168152602001600073ffffffffffffffffffffffffffffffffffffffff16815260200160608152602001606081525090565b612ba780620022a283390190565b828054828255906000526020600020908101928215620015a9579160200282015b82811115620015a85782518260006101000a81548173ffffffffffffffffffffffffffffffffffffffff021916908373ffffffffffffffffffffffffffffffffffffffff160217905550916020019190600101906200154e565b5b509050620015b8919062001643565b5090565b828054600181600116156101000203166002900490600052602060002090601f016020900481019282601f10620015ff57805160ff191683800117855562001630565b8280016001018555821562001630579182015b828111156200162f57825182559160200191906001019062001612565b5b5090506200163f919062001689565b5090565b6200168691905b808211156200168257600081816101000a81549073ffffffffffffffffffffffffffffffffffffffff0219169055506001016200164a565b5090565b90565b620016ae91905b80821115620016aa57600081600090555060010162001690565b5090565b90565b600081359050620016c28162002287565b92915050565b600082601f830112620016da57600080fd5b8135620016f1620016eb8262002069565b6200203b565b9150818183526020840193506020810190508360005b838110156200173b578135860162001720888262001745565b84526020840193506020830192505060018101905062001707565b5050505092915050565b600082601f8301126200175757600080fd5b81356200176e620017688262002092565b6200203b565b915080825260208301602083018583830111156200178b57600080fd5b6200179883828462002231565b50505092915050565b600082601f830112620017b357600080fd5b8135620017ca620017c482620020bf565b6200203b565b91508082526020830160208301858383011115620017e757600080fd5b620017f483828462002231565b50505092915050565b6000602082840312156200181057600080fd5b60006200182084828501620016b1565b91505092915050565b600080604083850312156200183d57600080fd5b60006200184d85828601620016b1565b925050602083013567ffffffffffffffff8111156200186b57600080fd5b6200187985828601620017a1565b9150509250929050565b6000602082840312156200189657600080fd5b600082013567ffffffffffffffff811115620018b157600080fd5b620018bf84828501620016c8565b91505092915050565b60008060408385031215620018dc57600080fd5b600083013567ffffffffffffffff811115620018f757600080fd5b6200190585828601620016c8565b92505060206200191885828601620016b1565b9150509250929050565b6000602082840312156200193557600080fd5b600082013567ffffffffffffffff8111156200195057600080fd5b6200195e84828501620017a1565b91505092915050565b600080604083850312156200197b57600080fd5b600083013567ffffffffffffffff8111156200199657600080fd5b620019a485828601620017a1565b9250506020620019b785828601620016b1565b9150509250929050565b60008060408385031215620019d557600080fd5b600083013567ffffffffffffffff811115620019f057600080fd5b620019fe85828601620017a1565b925050602083013567ffffffffffffffff81111562001a1c57600080fd5b62001a2a85828601620017a1565b9150509250929050565b600062001a42838362001a86565b60208301905092915050565b600062001a5c838362001e42565b905092915050565b62001a6f81620021f5565b82525050565b62001a8081620021b5565b82525050565b62001a9181620021a1565b82525050565b62001aa281620021a1565b82525050565b600062001ab5826200210c565b62001ac1818562002152565b935062001ace83620020ec565b8060005b8381101562001b0557815162001ae9888262001a34565b975062001af68362002138565b92505060018101905062001ad2565b5085935050505092915050565b600062001b1f8262002117565b62001b2b818562002163565b93508360208202850162001b3f85620020fc565b8060005b8581101562001b81578484038952815162001b5f858262001a4e565b945062001b6c8362002145565b925060208a0199505060018101905062001b43565b50829750879550505050505092915050565b62001b9e81620021c9565b82525050565b600062001bb1826200212d565b62001bbd818562002185565b935062001bcf81856020860162002240565b62001bda8162002276565b840191505092915050565b600062001bf2826200212d565b62001bfe818562002196565b935062001c1081856020860162002240565b80840191505092915050565b600062001c298262002122565b62001c35818562002174565b935062001c4781856020860162002240565b62001c528162002276565b840191505092915050565b600062001c6c60418362002185565b91507f6368616e67654f776e65723a2053656e646572206e6f7420616c6c6f7765642060008301527f746f206368616e6765206f776e657273686970206f6620746869732070726f7860208301527f79000000000000000000000000000000000000000000000000000000000000006040830152606082019050919050565b600062001cfa60228362002185565b91507f70726f78794f776e65724368616e6765643a2050726f7879206e6f7420666f7560008301527f6e640000000000000000000000000000000000000000000000000000000000006020830152604082019050919050565b600062001d6260308362002185565b91507f6368616e67654f776e65723a2050726f7879207769746820737563682073657260008301527f69616c20646f65736e74206578697374000000000000000000000000000000006020830152604082019050919050565b600060a08301600083015162001dd5600086018262001a75565b50602083015162001dea602086018262001a86565b50604083015162001dff604086018262001a86565b506060830151848203606086015262001e19828262001aa8565b9150506080830151848203608086015262001e35828262001c1c565b9150508091505092915050565b600060a08301600083015162001e5c600086018262001a75565b50602083015162001e71602086018262001a86565b50604083015162001e86604086018262001a86565b506060830151848203606086015262001ea0828262001aa8565b9150506080830151848203608086015262001ebc828262001c1c565b9150508091505092915050565b600062001ed7828462001be5565b915081905092915050565b600060208201905062001ef9600083018462001a97565b92915050565b600060208201905062001f16600083018462001a64565b92915050565b600060808201905062001f33600083018762001a97565b62001f42602083018662001a97565b818103604083015262001f56818562001ba4565b905062001f67606083018462001a64565b95945050505050565b6000602082019050818103600083015262001f8c818462001b12565b905092915050565b600060208201905062001fab600083018462001b93565b92915050565b6000602082019050818103600083015262001fcc8162001c5d565b9050919050565b6000602082019050818103600083015262001fee8162001ceb565b9050919050565b60006020820190508181036000830152620020108162001d53565b9050919050565b6000602082019050818103600083015262002033818462001dbb565b905092915050565b6000604051905081810181811067ffffffffffffffff821117156200205f57600080fd5b8060405250919050565b600067ffffffffffffffff8211156200208157600080fd5b602082029050602081019050919050565b600067ffffffffffffffff821115620020aa57600080fd5b601f19601f8301169050602081019050919050565b600067ffffffffffffffff821115620020d757600080fd5b601f19601f8301169050602081019050919050565b6000819050602082019050919050565b6000819050602082019050919050565b600081519050919050565b600081519050919050565b600081519050919050565b600081519050919050565b6000602082019050919050565b6000602082019050919050565b600082825260208201905092915050565b600082825260208201905092915050565b600082825260208201905092915050565b600082825260208201905092915050565b600081905092915050565b6000620021ae82620021d5565b9050919050565b6000620021c282620021d5565b9050919050565b60008115159050919050565b600073ffffffffffffffffffffffffffffffffffffffff82169050919050565b6000620022028262002209565b9050919050565b600062002216826200221d565b9050919050565b60006200222a82620021d5565b9050919050565b82818337600083830152505050565b60005b838110156200226057808201518184015260208101905062002243565b8381111562002270576000848401525b50505050565b6000601f19601f8301169050919050565b6200229281620021a1565b81146200229e57600080fd5b5056fe60806040527fffffffffffffffffffffffffffffffffffffffffffffffffffffffffffffffff6006553480156200003557600080fd5b5060405162002ba738038062002ba7833981810160405260808110156200005b57600080fd5b810190808051906020019092919080519060200190929190805160405193929190846401000000008211156200009057600080fd5b83820191506020820185811115620000a757600080fd5b8251866001820283011164010000000082111715620000c557600080fd5b8083526020830192505050908051906020019080838360005b83811015620000fb578082015181840152602081019050620000de565b50505050905090810190601f168015620001295780820380516001836020036101000a031916815260200191505b506040526020018051906020019092919050505083600360006101000a81548173ffffffffffffffffffffffffffffffffffffffff021916908373ffffffffffffffffffffffffffffffffffffffff16021790555082600460006101000a81548173ffffffffffffffffffffffffffffffffffffffff021916908373ffffffffffffffffffffffffffffffffffffffff16021790555081600f9080519060200190620001d79291906200052a565b5080600160006101000a81548173ffffffffffffffffffffffffffffffffffffffff021916908373ffffffffffffffffffffffffffffffffffffffff160217905550806000806101000a81548173ffffffffffffffffffffffffffffffffffffffff021916908373ffffffffffffffffffffffffffffffffffffffff1602179055508273ffffffffffffffffffffffffffffffffffffffff16639f181b5e6040518163ffffffff1660e01b815260040160206040518083038186803b158015620002a057600080fd5b505afa158015620002b5573d6000803e3d6000fd5b505050506040513d6020811015620002cc57600080fd5b81019080805190602001909291905050506010819055508273ffffffffffffffffffffffffffffffffffffffff1663a0712d686010546040518263ffffffff1660e01b815260040180828152602001915050600060405180830381600087803b1580156200033957600080fd5b505af11580156200034e573d6000803e3d6000fd5b5050505062000363816200040660201b60201c565b6001601160003373ffffffffffffffffffffffffffffffffffffffff1673ffffffffffffffffffffffffffffffffffffffff16815260200190815260200160002060006101000a81548160ff02191690831515021790555033600560006101000a81548173ffffffffffffffffffffffffffffffffffffffff021916908373ffffffffffffffffffffffffffffffffffffffff16021790555050505050620005d9565b600360009054906101000a900473ffffffffffffffffffffffffffffffffffffffff1673ffffffffffffffffffffffffffffffffffffffff1663a7068d6630836006546040518463ffffffff1660e01b8152600401808473ffffffffffffffffffffffffffffffffffffffff1673ffffffffffffffffffffffffffffffffffffffff168152602001807f73696741757468000000000000000000000000000000000000000000000000008152506020018373ffffffffffffffffffffffffffffffffffffffff1673ffffffffffffffffffffffffffffffffffffffff1681526020018281526020019350505050600060405180830381600087803b1580156200050e57600080fd5b505af115801562000523573d6000803e3d6000fd5b5050505050565b828054600181600116156101000203166002900490600052602060002090601f016020900481019282601f106200056d57805160ff19168380011785556200059e565b828001600101855582156200059e579182015b828111156200059d57825182559160200191906001019062000580565b5b509050620005ad9190620005b1565b5090565b620005d691905b80821115620005d2576000816000905550600101620005b8565b5090565b90565b6125be80620005e96000396000f3fe6080604052600436106101405760003560e01c8063a6f9dae1116100b6578063d56022d71161006f578063d56022d714610b24578063e71bdf4114610b7b578063eac989f814610bcc578063f23a6e6114610c5c578063f6d713dd14610d88578063fa352c0014610e1857610140565b8063a6f9dae114610759578063ad9ec05d146107aa578063af640d0f146107fb578063bbc0185714610826578063bc197c811461090b578063c45a015514610acd57610140565b80634c123019116101085780634c123019146103d5578063513856c8146104ff578063570b3c6a1461057a578063673448dd1461064257806384eb68fb146106ab5780638da5cb5b1461070257610140565b806301ffc9a71461014257806302d05d3f146101b4578063061f76501461020b5780630eb930ab146102745780632c39952a146102c5575b005b34801561014e57600080fd5b5061019a6004803603602081101561016557600080fd5b8101908080357bffffffffffffffffffffffffffffffffffffffffffffffffffffffff19169060200190929190505050610e69565b604051808215151515815260200191505060405180910390f35b3480156101c057600080fd5b506101c9610f1a565b604051808273ffffffffffffffffffffffffffffffffffffffff1673ffffffffffffffffffffffffffffffffffffffff16815260200191505060405180910390f35b34801561021757600080fd5b5061025a6004803603602081101561022e57600080fd5b81019080803573ffffffffffffffffffffffffffffffffffffffff169060200190929190505050610f40565b604051808215151515815260200191505060405180910390f35b34801561028057600080fd5b506102c36004803603602081101561029757600080fd5b81019080803573ffffffffffffffffffffffffffffffffffffffff169060200190929190505050610f4b565b005b6103d3600480360360e08110156102db57600080fd5b81019080803590602001906401000000008111156102f857600080fd5b82018360208201111561030a57600080fd5b8035906020019184600183028401116401000000008311171561032c57600080fd5b91908080601f016020809104026020016040519081016040528093929190818152602001838380828437600081840152601f19601f820116905080830192505050505050509192919290803573ffffffffffffffffffffffffffffffffffffffff169060200190929190803560ff16906020019092919080359060200190929190803590602001909291908035906020019092919080359060200190929190505050611165565b005b3480156103e157600080fd5b506104e5600480360360808110156103f857600080fd5b81019080803573ffffffffffffffffffffffffffffffffffffffff169060200190929190803573ffffffffffffffffffffffffffffffffffffffff169060200190929190803590602001909291908035906020019064010000000081111561045f57600080fd5b82018360208201111561047157600080fd5b8035906020019184600183028401116401000000008311171561049357600080fd5b91908080601f016020809104026020016040519081016040528093929190818152602001838380828437600081840152601f19601f8201169050808301925050505050505091929192905050506114eb565b604051808215151515815260200191505060405180910390f35b34801561050b57600080fd5b506105386004803603602081101561052257600080fd5b81019080803590602001909291905050506116d8565b604051808273ffffffffffffffffffffffffffffffffffffffff1673ffffffffffffffffffffffffffffffffffffffff16815260200191505060405180910390f35b34801561058657600080fd5b506106406004803603602081101561059d57600080fd5b81019080803590602001906401000000008111156105ba57600080fd5b8201836020820111156105cc57600080fd5b803590602001918460018302840111640100000000831117156105ee57600080fd5b91908080601f016020809104026020016040519081016040528093929190818152602001838380828437600081840152601f19601f820116905080830192505050505050509192919290505050611714565b005b34801561064e57600080fd5b506106916004803603602081101561066557600080fd5b81019080803573ffffffffffffffffffffffffffffffffffffffff169060200190929190505050611813565b604051808215151515815260200191505060405180910390f35b3480156106b757600080fd5b506106c0611833565b604051808273ffffffffffffffffffffffffffffffffffffffff1673ffffffffffffffffffffffffffffffffffffffff16815260200191505060405180910390f35b34801561070e57600080fd5b50610717611859565b604051808273ffffffffffffffffffffffffffffffffffffffff1673ffffffffffffffffffffffffffffffffffffffff16815260200191505060405180910390f35b34801561076557600080fd5b506107a86004803603602081101561077c57600080fd5b81019080803573ffffffffffffffffffffffffffffffffffffffff16906020019092919050505061187e565b005b3480156107b657600080fd5b506107f9600480360360208110156107cd57600080fd5b81019080803573ffffffffffffffffffffffffffffffffffffffff169060200190929190505050611a79565b005b34801561080757600080fd5b50610810611c93565b6040518082815260200191505060405180910390f35b6109096004803603606081101561083c57600080fd5b810190808035906020019064010000000081111561085957600080fd5b82018360208201111561086b57600080fd5b8035906020019184600183028401116401000000008311171561088d57600080fd5b91908080601f016020809104026020016040519081016040528093929190818152602001838380828437600081840152601f19601f820116905080830192505050505050509192919290803573ffffffffffffffffffffffffffffffffffffffff16906020019092919080359060200190929190505050611c99565b005b34801561091757600080fd5b50610a79600480360360a081101561092e57600080fd5b81019080803573ffffffffffffffffffffffffffffffffffffffff169060200190929190803573ffffffffffffffffffffffffffffffffffffffff1690602001909291908035906020019064010000000081111561098b57600080fd5b82018360208201111561099d57600080fd5b803590602001918460208302840111640100000000831117156109bf57600080fd5b9091929391929390803590602001906401000000008111156109e057600080fd5b8201836020820111156109f257600080fd5b80359060200191846020830284011164010000000083111715610a1457600080fd5b909192939192939080359060200190640100000000811115610a3557600080fd5b820183602082011115610a4757600080fd5b80359060200191846001830284011164010000000083111715610a6957600080fd5b9091929391929390505050611ddd565b60405180827bffffffffffffffffffffffffffffffffffffffffffffffffffffffff19167bffffffffffffffffffffffffffffffffffffffffffffffffffffffff1916815260200191505060405180910390f35b348015610ad957600080fd5b50610ae2611df5565b604051808273ffffffffffffffffffffffffffffffffffffffff1673ffffffffffffffffffffffffffffffffffffffff16815260200191505060405180910390f35b348015610b3057600080fd5b50610b39611e1b565b604051808273ffffffffffffffffffffffffffffffffffffffff1673ffffffffffffffffffffffffffffffffffffffff16815260200191505060405180910390f35b348015610b8757600080fd5b50610bca60048036036020811015610b9e57600080fd5b81019080803573ffffffffffffffffffffffffffffffffffffffff169060200190929190505050611e41565b005b348015610bd857600080fd5b50610be1611f0f565b6040518080602001828103825283818151815260200191508051906020019080838360005b83811015610c21578082015181840152602081019050610c06565b50505050905090810190601f168015610c4e5780820380516001836020036101000a031916815260200191505b509250505060405180910390f35b348015610c6857600080fd5b50610d34600480360360a0811015610c7f57600080fd5b81019080803573ffffffffffffffffffffffffffffffffffffffff169060200190929190803573ffffffffffffffffffffffffffffffffffffffff169060200190929190803590602001909291908035906020019092919080359060200190640100000000811115610cf057600080fd5b820183602082011115610d0257600080fd5b80359060200191846001830284011164010000000083111715610d2457600080fd5b9091929391929390505050612084565b60405180827bffffffffffffffffffffffffffffffffffffffffffffffffffffffff19167bffffffffffffffffffffffffffffffffffffffffffffffffffffffff1916815260200191505060405180910390f35b348015610d9457600080fd5b50610d9d61209a565b6040518080602001828103825283818151815260200191508051906020019080838360005b83811015610ddd578082015181840152602081019050610dc2565b50505050905090810190601f168015610e0a5780820380516001836020036101000a031916815260200191505b509250505060405180910390f35b348015610e2457600080fd5b50610e6760048036036020811015610e3b57600080fd5b81019080803573ffffffffffffffffffffffffffffffffffffffff169060200190929190505050612138565b005b60006301ffc9a760e01b7bffffffffffffffffffffffffffffffffffffffffffffffffffffffff1916827bffffffffffffffffffffffffffffffffffffffffffffffffffffffff19161480610f025750634e2312e060e01b7bffffffffffffffffffffffffffffffffffffffffffffffffffffffff1916827bffffffffffffffffffffffffffffffffffffffffffffffffffffffff1916145b15610f105760019050610f15565b600090505b919050565b600160009054906101000a900473ffffffffffffffffffffffffffffffffffffffff1681565b600060019050919050565b6000809054906101000a900473ffffffffffffffffffffffffffffffffffffffff1673ffffffffffffffffffffffffffffffffffffffff163373ffffffffffffffffffffffffffffffffffffffff161480610fef5750601160003373ffffffffffffffffffffffffffffffffffffffff1673ffffffffffffffffffffffffffffffffffffffff16815260200190815260200160002060009054906101000a900460ff165b611044576040517f08c379a00000000000000000000000000000000000000000000000000000000081526004018080602001828103825260338152602001806125576033913960400191505060405180910390fd5b6001601160008373ffffffffffffffffffffffffffffffffffffffff1673ffffffffffffffffffffffffffffffffffffffff16815260200190815260200160002060006101000a81548160ff021916908315150217905550600460009054906101000a900473ffffffffffffffffffffffffffffffffffffffff1673ffffffffffffffffffffffffffffffffffffffff1663a22cb4658260016040518363ffffffff1660e01b8152600401808373ffffffffffffffffffffffffffffffffffffffff1673ffffffffffffffffffffffffffffffffffffffff1681526020018215151515815260200192505050600060405180830381600087803b15801561114a57600080fd5b505af115801561115e573d6000803e3d6000fd5b5050505050565b60008787848460405160200180806020018573ffffffffffffffffffffffffffffffffffffffff1673ffffffffffffffffffffffffffffffffffffffff168152602001848152602001838152602001828103825286818151815260200191508051906020019080838360005b838110156111ec5780820151818401526020810190506111d1565b50505050905090810190601f1680156112195780820380516001836020036101000a031916815260200191505b5095505050505050604051602081830303815290604052805190602001209050600015156007600083815260200190815260200160002060009054906101000a900460ff161515146112b6576040517f08c379a00000000000000000000000000000000000000000000000000000000081526004018080602001828103825260268152602001806125316026913960400191505060405180910390fd5b60016007600083815260200190815260200160002060006101000a81548160ff02191690831515021790555060008160405160200180807f19457468657265756d205369676e6564204d6573736167653a0a333200000000815250601c01828152602001915050604051602081830303815290604052805190602001209050600060018289898960405160008152602001604052604051808581526020018460ff1660ff1681526020018381526020018281526020019450505050506020604051602081039080840390855afa158015611394573d6000803e3d6000fd5b5050506020604051035190506000809054906101000a900473ffffffffffffffffffffffffffffffffffffffff1673ffffffffffffffffffffffffffffffffffffffff168173ffffffffffffffffffffffffffffffffffffffff1614611462576040517f08c379a00000000000000000000000000000000000000000000000000000000081526004018080602001828103825260168152602001807f5369676e6174757265206973206e6f742076616c69640000000000000000000081525060200191505060405180910390fd5b61146d8a8a87612312565b6114df576040517f08c379a00000000000000000000000000000000000000000000000000000000081526004018080602001828103825260168152602001807f43616e27742073656e64207472616e73616374696f6e0000000000000000000081525060200191505060405180910390fd5b50505050505050505050565b60006114f633610f40565b61150357600090506116d0565b6001600e60006101000a81548160ff02191690831515021790555060003073ffffffffffffffffffffffffffffffffffffffff16836040518082805190602001908083835b6020831061156b5780518252602082019150602081019050602083039250611548565b6001836020036101000a038019825116818451168082178552505050505050905001915050600060405180830381855af49150503d80600081146115cb576040519150601f19603f3d011682016040523d82523d6000602084013e6115d0565b606091505b505090506000600e60006101000a81548160ff0219169083151502179055507feab9f6c333c4c219217a67230a9af8a2e860061556fa026945860d2c885d60fe8382336040518080602001841515151581526020018373ffffffffffffffffffffffffffffffffffffffff1673ffffffffffffffffffffffffffffffffffffffff168152602001828103825285818151815260200191508051906020019080838360005b8381101561168f578082015181840152602081019050611674565b50505050905090810190601f1680156116bc5780820380516001836020036101000a031916815260200191505b5094505050505060405180910390a1809150505b949350505050565b600281815481106116e557fe5b906000526020600020016000915054906101000a900473ffffffffffffffffffffffffffffffffffffffff1681565b600460009054906101000a900473ffffffffffffffffffffffffffffffffffffffff1673ffffffffffffffffffffffffffffffffffffffff166305751204601054836040518363ffffffff1660e01b81526004018083815260200180602001828103825283818151815260200191508051906020019080838360005b838110156117ab578082015181840152602081019050611790565b50505050905090810190601f1680156117d85780820380516001836020036101000a031916815260200191505b509350505050600060405180830381600087803b1580156117f857600080fd5b505af115801561180c573d6000803e3d6000fd5b5050505050565b60116020528060005260406000206000915054906101000a900460ff1681565b600360009054906101000a900473ffffffffffffffffffffffffffffffffffffffff1681565b6000809054906101000a900473ffffffffffffffffffffffffffffffffffffffff1681565b6000809054906101000a900473ffffffffffffffffffffffffffffffffffffffff1673ffffffffffffffffffffffffffffffffffffffff163373ffffffffffffffffffffffffffffffffffffffff1614806119225750601160003373ffffffffffffffffffffffffffffffffffffffff1673ffffffffffffffffffffffffffffffffffffffff16815260200190815260200160002060009054906101000a900460ff165b611977576040517f08c379a00000000000000000000000000000000000000000000000000000000081526004018080602001828103825260338152602001806125576033913960400191505060405180910390fd5b806000806101000a81548173ffffffffffffffffffffffffffffffffffffffff021916908373ffffffffffffffffffffffffffffffffffffffff1602179055506000600560009054906101000a900473ffffffffffffffffffffffffffffffffffffffff1690508073ffffffffffffffffffffffffffffffffffffffff16638fb84af9836040518263ffffffff1660e01b8152600401808273ffffffffffffffffffffffffffffffffffffffff1673ffffffffffffffffffffffffffffffffffffffff168152602001915050600060405180830381600087803b158015611a5d57600080fd5b505af1158015611a71573d6000803e3d6000fd5b505050505050565b6000809054906101000a900473ffffffffffffffffffffffffffffffffffffffff1673ffffffffffffffffffffffffffffffffffffffff163373ffffffffffffffffffffffffffffffffffffffff161480611b1d5750601160003373ffffffffffffffffffffffffffffffffffffffff1673ffffffffffffffffffffffffffffffffffffffff16815260200190815260200160002060009054906101000a900460ff165b611b72576040517f08c379a00000000000000000000000000000000000000000000000000000000081526004018080602001828103825260338152602001806125576033913960400191505060405180910390fd5b6000601160008373ffffffffffffffffffffffffffffffffffffffff1673ffffffffffffffffffffffffffffffffffffffff16815260200190815260200160002060006101000a81548160ff021916908315150217905550600460009054906101000a900473ffffffffffffffffffffffffffffffffffffffff1673ffffffffffffffffffffffffffffffffffffffff1663a22cb4658260006040518363ffffffff1660e01b8152600401808373ffffffffffffffffffffffffffffffffffffffff1673ffffffffffffffffffffffffffffffffffffffff1681526020018215151515815260200192505050600060405180830381600087803b158015611c7857600080fd5b505af1158015611c8c573d6000803e3d6000fd5b5050505050565b60105481565b6000809054906101000a900473ffffffffffffffffffffffffffffffffffffffff1673ffffffffffffffffffffffffffffffffffffffff163373ffffffffffffffffffffffffffffffffffffffff1614611d5b576040517f08c379a00000000000000000000000000000000000000000000000000000000081526004018080602001828103825260128152602001807f4f6e6c79206f776e657220616c6c6f776564000000000000000000000000000081525060200191505060405180910390fd5b611d66838383612312565b611dd8576040517f08c379a00000000000000000000000000000000000000000000000000000000081526004018080602001828103825260168152602001807f43616e27742073656e64207472616e73616374696f6e0000000000000000000081525060200191505060405180910390fd5b505050565b600063bc197c8160e01b905098975050505050505050565b600560009054906101000a900473ffffffffffffffffffffffffffffffffffffffff1681565b600460009054906101000a900473ffffffffffffffffffffffffffffffffffffffff1681565b6000809054906101000a900473ffffffffffffffffffffffffffffffffffffffff1673ffffffffffffffffffffffffffffffffffffffff163373ffffffffffffffffffffffffffffffffffffffff1614611f03576040517f08c379a00000000000000000000000000000000000000000000000000000000081526004018080602001828103825260128152602001807f4f6e6c79206f776e657220616c6c6f776564000000000000000000000000000081525060200191505060405180910390fd5b611f0c8161240e565b50565b6060600460009054906101000a900473ffffffffffffffffffffffffffffffffffffffff1673ffffffffffffffffffffffffffffffffffffffff16630e89341c6010546040518263ffffffff1660e01b81526004018082815260200191505060006040518083038186803b158015611f8657600080fd5b505afa158015611f9a573d6000803e3d6000fd5b505050506040513d6000823e3d601f19601f820116820180604052506020811015611fc457600080fd5b8101908080516040519392919084640100000000821115611fe457600080fd5b83820191506020820185811115611ffa57600080fd5b825186600182028301116401000000008211171561201757600080fd5b8083526020830192505050908051906020019080838360005b8381101561204b578082015181840152602081019050612030565b50505050905090810190601f1680156120785780820380516001836020036101000a031916815260200191505b50604052505050905090565b600063f23a6e6160e01b90509695505050505050565b600f8054600181600116156101000203166002900480601f0160208091040260200160405190810160405280929190818152602001828054600181600116156101000203166002900480156121305780601f1061210557610100808354040283529160200191612130565b820191906000526020600020905b81548152906001019060200180831161211357829003601f168201915b505050505081565b6000809054906101000a900473ffffffffffffffffffffffffffffffffffffffff1673ffffffffffffffffffffffffffffffffffffffff163373ffffffffffffffffffffffffffffffffffffffff16146121fa576040517f08c379a00000000000000000000000000000000000000000000000000000000081526004018080602001828103825260128152602001807f4f6e6c79206f776e657220616c6c6f776564000000000000000000000000000081525060200191505060405180910390fd5b600360009054906101000a900473ffffffffffffffffffffffffffffffffffffffff1673ffffffffffffffffffffffffffffffffffffffff166380b29f7c30836040518363ffffffff1660e01b8152600401808373ffffffffffffffffffffffffffffffffffffffff1673ffffffffffffffffffffffffffffffffffffffff168152602001807f73696741757468000000000000000000000000000000000000000000000000008152506020018273ffffffffffffffffffffffffffffffffffffffff1673ffffffffffffffffffffffffffffffffffffffff16815260200192505050600060405180830381600087803b1580156122f757600080fd5b505af115801561230b573d6000803e3d6000fd5b5050505050565b60006060849050600081519050600080826020850187895af192507f7e4155ee9daec547578a255f7495bc08f38796f4d4a3be4ed7189f4fc55cb18586868660405180806020018473ffffffffffffffffffffffffffffffffffffffff1673ffffffffffffffffffffffffffffffffffffffff168152602001838152602001828103825285818151815260200191508051906020019080838360005b838110156123c95780820151818401526020810190506123ae565b50505050905090810190601f1680156123f65780820380516001836020036101000a031916815260200191505b5094505050505060405180910390a150509392505050565b600360009054906101000a900473ffffffffffffffffffffffffffffffffffffffff1673ffffffffffffffffffffffffffffffffffffffff1663a7068d6630836006546040518463ffffffff1660e01b8152600401808473ffffffffffffffffffffffffffffffffffffffff1673ffffffffffffffffffffffffffffffffffffffff168152602001807f73696741757468000000000000000000000000000000000000000000000000008152506020018373ffffffffffffffffffffffffffffffffffffffff1673ffffffffffffffffffffffffffffffffffffffff1681526020018281526020019350505050600060405180830381600087803b15801561251557600080fd5b505af1158015612529573d6000803e3d6000fd5b505050505056fe54686973207472616e73616374696f6e2068617320616c7265616479206265656e2073656e7450726f78794964656e746974793a204f6e6c79206f776e6572206f7220617070726f766564206167656e7420616c6c6f776564a265627a7a72315820f878da11799559c8a2530bd2b005adad45688e0a3bafd661e2bba2289a8dad4964736f6c63430005110032a365627a7a72315820ac2e98e0441c8dd1ce235aea61d4f99b7d7be9b29ceb5eef3956c9d76f0449316c6578706572696d656e74616cf564736f6c63430005110040",
  "source": "pragma solidity ^0.5.0;\npragma experimental ABIEncoderV2;\n\nimport { ProxyIdentity } from \"./proxyIdentity.sol\";\n\ncontract ProxyFactory {\n  address erc1056;\n  address erc1155;\n  Proxy[] proxies;\n  event ProxyCreated(address proxy);\n\n  struct Proxy {\n    address payable itsAddress;\n    address creator;\n    address owner;\n    address[] agents;\n    string serial;\n  }\n\n  constructor(address _erc1056, address _erc1155) public {\n    erc1056 = _erc1056;\n    erc1155 = _erc1155;\n  }\n\n  function create(string memory serial) public {\n    ProxyIdentity proxy = new ProxyIdentity(\n      erc1056,\n      erc1155,\n      serial,\n      msg.sender\n    );\n    address[] memory agents = new address[](1);\n    agents[0] = msg.sender;\n    proxies.push(Proxy(address(proxy), msg.sender, msg.sender, agents, serial));\n    emit ProxyCreated(address(proxy));\n  }\n\n  function createBatch(string[] memory serials) public {\n    for (uint256 i = 0; i < serials.length; i++) {\n      create(serials[i]);\n    }\n  }\n\n  function changeOwner(string memory serial, address newOwner) public {\n    Proxy memory proxy = proxyBySerial(serial);\n    require(\n      proxy.itsAddress != address(0),\n      \"changeOwner: Proxy with such serial doesnt exist\"\n    );\n    require(\n      isOwnerOrApproved(msg.sender, serial),\n      \"changeOwner: Sender not allowed to change ownership of this proxy\"\n    );\n    ProxyIdentity proxyIdentity = ProxyIdentity(proxy.itsAddress);\n    proxyIdentity.changeOwner(newOwner);\n  }\n\n  function changeOwnerBatch(string[] memory serials, address newOwner)\n    public\n    returns (bool)\n  {\n    for (uint256 i = 0; i < serials.length; i++) {\n      changeOwner(serials[i], newOwner);\n    }\n  }\n\n  function proxyBySerial(string memory serial)\n    public\n    view\n    returns (Proxy memory)\n  {\n    Proxy memory proxy;\n    for (uint256 i = 0; i < proxies.length; i++) {\n      if (compareStr(proxies[i].serial, serial)) {\n        return proxies[i];\n      }\n    }\n    return proxy;\n  }\n\n  function proxiesBySerials(string[] memory serials)\n    public\n    view\n    returns (Proxy[] memory)\n  {\n    Proxy[] memory result = new Proxy[](serials.length);\n    for (uint256 i = 0; i < serials.length; i++) {\n      result[i] = proxyBySerial(serials[i]);\n    }\n    return result;\n  }\n\n  function proxyByAddress(address proxyAddress)\n    public\n    view\n    returns (Proxy memory)\n  {\n    Proxy memory proxy;\n    for (uint256 i = 0; i < proxies.length; i++) {\n      if (proxies[i].itsAddress == proxyAddress) {\n        return proxies[i];\n      }\n    }\n    return proxy;\n  }\n\n  function compareStr(string memory s1, string memory s2)\n    public\n    view\n    returns (bool)\n  {\n    return (keccak256(abi.encodePacked((s1))) ==\n      keccak256(abi.encodePacked((s2))));\n  }\n\n  function isOwnerOrApproved(address account, string memory serial)\n    public\n    view\n    returns (bool)\n  {\n    Proxy memory proxy = proxyBySerial(serial);\n    if (proxy.owner == account) {\n      return true;\n    }\n    for (uint256 i = 0; i < proxy.agents.length; i++) {\n      if (proxy.agents[i] == account) {\n        return true;\n      }\n    }\n    return false;\n  }\n\n  function proxyOwnerChanged(address newOwner) public {\n    int256 proxyIndex = -1;\n    for (uint128 i = 0; i < proxies.length; i++) {\n      if (proxies[i].itsAddress == msg.sender) {\n        proxyIndex = i;\n        break;\n      }\n    }\n    require(\n      proxyIndex >= 0,\n      \"proxyOwnerChanged: Proxy not found\"\n    );\n    proxies[uint128(proxyIndex)].owner = newOwner;\n  }\n\n  function allProxies() public view returns (Proxy[] memory) {\n    return proxies;\n  }\n}\n",
  "sourcePath": "/home/dima/Development/ew-did-registry/packages/proxyIdentity/contracts/proxyFactory.sol",
  "compiler": {
    "name": "solc",
    "version": "0.5.17+commit.d19bba13.Emscripten.clang"
  },
  "schemaVersion": "3.0.16",
  "updatedAt": "2020-11-10T09:42:15.653Z",
  "devdoc": {
    "methods": {}
  },
  "userdoc": {
    "methods": {}
  }
}