{
  "contractName": "ProxyIdentity",
  "abi": [
    {
      "constant": true,
      "inputs": [],
      "name": "owner",
      "outputs": [
        {
          "name": "",
          "type": "address"
        }
      ],
      "payable": false,
      "stateMutability": "view",
      "type": "function"
    },
    {
      "inputs": [
        {
          "name": "_erc1056",
          "type": "address"
        }
      ],
      "payable": false,
      "stateMutability": "nonpayable",
      "type": "constructor"
    },
    {
      "payable": true,
      "stateMutability": "payable",
      "type": "fallback"
    },
    {
      "anonymous": false,
      "inputs": [
        {
          "indexed": false,
          "name": "data",
          "type": "bytes"
        },
        {
          "indexed": false,
          "name": "to",
          "type": "address"
        },
        {
          "indexed": false,
          "name": "success",
          "type": "bool"
        }
      ],
      "name": "TransactionSent",
      "type": "event"
    },
    {
      "anonymous": false,
      "inputs": [
        {
          "indexed": false,
          "name": "identity",
          "type": "address"
        },
        {
          "indexed": false,
          "name": "prev",
          "type": "address"
        },
        {
          "indexed": false,
          "name": "next",
          "type": "address"
        }
      ],
      "name": "ChangeOwner",
      "type": "event"
    },
    {
      "anonymous": false,
      "inputs": [
        {
          "indexed": false,
          "name": "agent",
          "type": "address"
        }
      ],
      "name": "AddRecoveryAgent",
      "type": "event"
    },
    {
      "anonymous": false,
      "inputs": [
        {
          "indexed": false,
          "name": "agent",
          "type": "address"
        }
      ],
      "name": "RemoveRecoveryAgent",
      "type": "event"
    },
    {
      "constant": false,
      "inputs": [
        {
          "name": "_data",
          "type": "bytes"
        },
        {
          "name": "to",
          "type": "address"
        }
      ],
      "name": "sendTransaction",
      "outputs": [],
      "payable": true,
      "stateMutability": "payable",
      "type": "function"
    },
    {
      "constant": false,
      "inputs": [
        {
          "name": "data",
          "type": "bytes"
        },
        {
          "name": "to",
          "type": "address"
        },
        {
          "name": "v",
          "type": "uint8"
        },
        {
          "name": "r",
          "type": "bytes32"
        },
        {
          "name": "s",
          "type": "bytes32"
        }
      ],
      "name": "sendSignedTransaction",
      "outputs": [],
      "payable": true,
      "stateMutability": "payable",
      "type": "function"
    },
    {
      "constant": false,
      "inputs": [
        {
          "name": "agent",
          "type": "address"
        }
      ],
      "name": "addRecoveryAgent",
      "outputs": [],
      "payable": false,
      "stateMutability": "nonpayable",
      "type": "function"
    },
    {
      "constant": false,
      "inputs": [
        {
          "name": "agent",
          "type": "address"
        }
      ],
      "name": "removeRecoveryAgent",
      "outputs": [],
      "payable": false,
      "stateMutability": "nonpayable",
      "type": "function"
    },
    {
      "constant": false,
      "inputs": [],
      "name": "changeOwner",
      "outputs": [],
      "payable": false,
      "stateMutability": "nonpayable",
      "type": "function"
    }
  ],
  "bytecode": "0x6080604052620927c06003553480156200001857600080fd5b5060405160208062001858833981018060405260208110156200003a57600080fd5b810190808051906020019092919050505080600160006101000a81548173ffffffffffffffffffffffffffffffffffffffff021916908373ffffffffffffffffffffffffffffffffffffffff1602179055506200009d33620000a460201b60201c565b5062000819565b60008060009054906101000a900473ffffffffffffffffffffffffffffffffffffffff169050600073ffffffffffffffffffffffffffffffffffffffff166000809054906101000a900473ffffffffffffffffffffffffffffffffffffffff1673ffffffffffffffffffffffffffffffffffffffff16146200018557620001526000809054906101000a900473ffffffffffffffffffffffffffffffffffffffff16620002f860201b60201c565b620001846000809054906101000a900473ffffffffffffffffffffffffffffffffffffffff166200045a60201b60201c565b5b816000806101000a81548173ffffffffffffffffffffffffffffffffffffffff021916908373ffffffffffffffffffffffffffffffffffffffff160217905550620001f76000809054906101000a900473ffffffffffffffffffffffffffffffffffffffff166200057460201b60201c565b620002296000809054906101000a900473ffffffffffffffffffffffffffffffffffffffff16620006f560201b60201c565b7fb687c76215839865ade5b0a61820e3a05ef7a114a7d26f7308416bc039833673308284604051808473ffffffffffffffffffffffffffffffffffffffff1673ffffffffffffffffffffffffffffffffffffffff1681526020018373ffffffffffffffffffffffffffffffffffffffff1673ffffffffffffffffffffffffffffffffffffffff1681526020018273ffffffffffffffffffffffffffffffffffffffff1673ffffffffffffffffffffffffffffffffffffffff168152602001935050505060405180910390a15050565b600260003373ffffffffffffffffffffffffffffffffffffffff1673ffffffffffffffffffffffffffffffffffffffff16815260200190815260200160002060009054906101000a900460ff166200039c576040517f08c379a0000000000000000000000000000000000000000000000000000000008152600401808060200182810382526028815260200180620018306028913960400191505060405180910390fd5b6000600260008373ffffffffffffffffffffffffffffffffffffffff1673ffffffffffffffffffffffffffffffffffffffff16815260200190815260200160002060006101000a81548160ff0219169083151502179055507fa8495139d16890abfed75a7ef21cf53c0f17c3761c94fbfd0ce329eb516a93df81604051808273ffffffffffffffffffffffffffffffffffffffff1673ffffffffffffffffffffffffffffffffffffffff16815260200191505060405180910390a150565b600160009054906101000a900473ffffffffffffffffffffffffffffffffffffffff1673ffffffffffffffffffffffffffffffffffffffff166380b29f7c30836040518363ffffffff1660e01b8152600401808373ffffffffffffffffffffffffffffffffffffffff1673ffffffffffffffffffffffffffffffffffffffff168152602001807f73696741757468000000000000000000000000000000000000000000000000008152506020018273ffffffffffffffffffffffffffffffffffffffff1673ffffffffffffffffffffffffffffffffffffffff16815260200192505050600060405180830381600087803b1580156200055857600080fd5b505af11580156200056d573d6000803e3d6000fd5b5050505050565b6000809054906101000a900473ffffffffffffffffffffffffffffffffffffffff1673ffffffffffffffffffffffffffffffffffffffff163373ffffffffffffffffffffffffffffffffffffffff161462000637576040517f08c379a00000000000000000000000000000000000000000000000000000000081526004018080602001828103825260128152602001807f4f6e6c79206f776e657220616c6c6f776564000000000000000000000000000081525060200191505060405180910390fd5b6001600260008373ffffffffffffffffffffffffffffffffffffffff1673ffffffffffffffffffffffffffffffffffffffff16815260200190815260200160002060006101000a81548160ff0219169083151502179055507fa795741c6c941d9a037ee81c494ac0806149d0cecba098662f3c067e8d7c872881604051808273ffffffffffffffffffffffffffffffffffffffff1673ffffffffffffffffffffffffffffffffffffffff16815260200191505060405180910390a150565b600160009054906101000a900473ffffffffffffffffffffffffffffffffffffffff1673ffffffffffffffffffffffffffffffffffffffff1663a7068d6630836003546040518463ffffffff1660e01b8152600401808473ffffffffffffffffffffffffffffffffffffffff1673ffffffffffffffffffffffffffffffffffffffff168152602001807f73696741757468000000000000000000000000000000000000000000000000008152506020018373ffffffffffffffffffffffffffffffffffffffff1673ffffffffffffffffffffffffffffffffffffffff1681526020018281526020019350505050600060405180830381600087803b158015620007fd57600080fd5b505af115801562000812573d6000803e3d6000fd5b5050505050565b61100780620008296000396000f3fe6080604052600436106100555760003560e01c8063438408551461005757806362a09477146101325780637489453d146101495780638da5cb5b1461019a578063c8777b50146101f1578063d732290d14610242575b005b6101306004803603604081101561006d57600080fd5b810190808035906020019064010000000081111561008a57600080fd5b82018360208201111561009c57600080fd5b803590602001918460018302840111640100000000831117156100be57600080fd5b91908080601f016020809104026020016040519081016040528093929190818152602001838380828437600081840152601f19601f820116905080830192505050505050509192919290803573ffffffffffffffffffffffffffffffffffffffff16906020019092919050505061033e565b005b34801561013e57600080fd5b50610147610481565b005b34801561015557600080fd5b506101986004803603602081101561016c57600080fd5b81019080803573ffffffffffffffffffffffffffffffffffffffff16906020019092919050505061052e565b005b3480156101a657600080fd5b506101af6106ae565b604051808273ffffffffffffffffffffffffffffffffffffffff1673ffffffffffffffffffffffffffffffffffffffff16815260200191505060405180910390f35b3480156101fd57600080fd5b506102406004803603602081101561021457600080fd5b81019080803573ffffffffffffffffffffffffffffffffffffffff1690602001909291905050506106d3565b005b61033c600480360360a081101561025857600080fd5b810190808035906020019064010000000081111561027557600080fd5b82018360208201111561028757600080fd5b803590602001918460018302840111640100000000831117156102a957600080fd5b91908080601f016020809104026020016040519081016040528093929190818152602001838380828437600081840152601f19601f820116905080830192505050505050509192919290803573ffffffffffffffffffffffffffffffffffffffff169060200190929190803560ff1690602001909291908035906020019092919080359060200190929190505050610833565b005b6000809054906101000a900473ffffffffffffffffffffffffffffffffffffffff1673ffffffffffffffffffffffffffffffffffffffff163373ffffffffffffffffffffffffffffffffffffffff1614610400576040517f08c379a00000000000000000000000000000000000000000000000000000000081526004018080602001828103825260128152602001807f4f6e6c79206f776e657220616c6c6f776564000000000000000000000000000081525060200191505060405180910390fd5b61040b828234610a46565b61047d576040517f08c379a00000000000000000000000000000000000000000000000000000000081526004018080602001828103825260168152602001807f43616e27742073656e64207472616e73616374696f6e0000000000000000000081525060200191505060405180910390fd5b5050565b600260003373ffffffffffffffffffffffffffffffffffffffff1673ffffffffffffffffffffffffffffffffffffffff16815260200190815260200160002060009054906101000a900460ff16610523576040517f08c379a0000000000000000000000000000000000000000000000000000000008152600401808060200182810382526028815260200180610fb46028913960400191505060405180910390fd5b61052c33610b46565b565b6000809054906101000a900473ffffffffffffffffffffffffffffffffffffffff1673ffffffffffffffffffffffffffffffffffffffff163373ffffffffffffffffffffffffffffffffffffffff16146105f0576040517f08c379a00000000000000000000000000000000000000000000000000000000081526004018080602001828103825260128152602001807f4f6e6c79206f776e657220616c6c6f776564000000000000000000000000000081525060200191505060405180910390fd5b6001600260008373ffffffffffffffffffffffffffffffffffffffff1673ffffffffffffffffffffffffffffffffffffffff16815260200190815260200160002060006101000a81548160ff0219169083151502179055507fa795741c6c941d9a037ee81c494ac0806149d0cecba098662f3c067e8d7c872881604051808273ffffffffffffffffffffffffffffffffffffffff1673ffffffffffffffffffffffffffffffffffffffff16815260200191505060405180910390a150565b6000809054906101000a900473ffffffffffffffffffffffffffffffffffffffff1681565b600260003373ffffffffffffffffffffffffffffffffffffffff1673ffffffffffffffffffffffffffffffffffffffff16815260200190815260200160002060009054906101000a900460ff16610775576040517f08c379a0000000000000000000000000000000000000000000000000000000008152600401808060200182810382526028815260200180610fb46028913960400191505060405180910390fd5b6000600260008373ffffffffffffffffffffffffffffffffffffffff1673ffffffffffffffffffffffffffffffffffffffff16815260200190815260200160002060006101000a81548160ff0219169083151502179055507fa8495139d16890abfed75a7ef21cf53c0f17c3761c94fbfd0ce329eb516a93df81604051808273ffffffffffffffffffffffffffffffffffffffff1673ffffffffffffffffffffffffffffffffffffffff16815260200191505060405180910390a150565b60008580519060200120905060008160405160200180807f19457468657265756d205369676e6564204d6573736167653a0a333200000000815250601c01828152602001915050604051602081830303815290604052805190602001209050600060018287878760405160008152602001604052604051808581526020018460ff1660ff1681526020018381526020018281526020019450505050506020604051602081039080840390855afa1580156108f1573d6000803e3d6000fd5b5050506020604051035190508073ffffffffffffffffffffffffffffffffffffffff166000809054906101000a900473ffffffffffffffffffffffffffffffffffffffff1673ffffffffffffffffffffffffffffffffffffffff16146109bf576040517f08c379a00000000000000000000000000000000000000000000000000000000081526004018080602001828103825260168152602001807f5369676e6174757265206973206e6f742076616c69640000000000000000000081525060200191505060405180910390fd5b6109ca888834610a46565b610a3c576040517f08c379a00000000000000000000000000000000000000000000000000000000081526004018080602001828103825260168152602001807f43616e27742073656e64207472616e73616374696f6e0000000000000000000081525060200191505060405180910390fd5b5050505050505050565b60006060849050600081519050600080826020850187895af192507f8bfc767798eb967ffb05f4691950eae36f6fbcec88a7a715c116e8dd94d10dd886868560405180806020018473ffffffffffffffffffffffffffffffffffffffff1673ffffffffffffffffffffffffffffffffffffffff16815260200183151515158152602001828103825285818151815260200191508051906020019080838360005b83811015610b01578082015181840152602081019050610ae6565b50505050905090810190601f168015610b2e5780820380516001836020036101000a031916815260200191505b5094505050505060405180910390a150509392505050565b60008060009054906101000a900473ffffffffffffffffffffffffffffffffffffffff169050600073ffffffffffffffffffffffffffffffffffffffff166000809054906101000a900473ffffffffffffffffffffffffffffffffffffffff1673ffffffffffffffffffffffffffffffffffffffff1614610c1657610beb6000809054906101000a900473ffffffffffffffffffffffffffffffffffffffff166106d3565b610c156000809054906101000a900473ffffffffffffffffffffffffffffffffffffffff16610d79565b5b816000806101000a81548173ffffffffffffffffffffffffffffffffffffffff021916908373ffffffffffffffffffffffffffffffffffffffff160217905550610c806000809054906101000a900473ffffffffffffffffffffffffffffffffffffffff1661052e565b610caa6000809054906101000a900473ffffffffffffffffffffffffffffffffffffffff16610e91565b7fb687c76215839865ade5b0a61820e3a05ef7a114a7d26f7308416bc039833673308284604051808473ffffffffffffffffffffffffffffffffffffffff1673ffffffffffffffffffffffffffffffffffffffff1681526020018373ffffffffffffffffffffffffffffffffffffffff1673ffffffffffffffffffffffffffffffffffffffff1681526020018273ffffffffffffffffffffffffffffffffffffffff1673ffffffffffffffffffffffffffffffffffffffff168152602001935050505060405180910390a15050565b600160009054906101000a900473ffffffffffffffffffffffffffffffffffffffff1673ffffffffffffffffffffffffffffffffffffffff166380b29f7c30836040518363ffffffff1660e01b8152600401808373ffffffffffffffffffffffffffffffffffffffff1673ffffffffffffffffffffffffffffffffffffffff168152602001807f73696741757468000000000000000000000000000000000000000000000000008152506020018273ffffffffffffffffffffffffffffffffffffffff1673ffffffffffffffffffffffffffffffffffffffff16815260200192505050600060405180830381600087803b158015610e7657600080fd5b505af1158015610e8a573d6000803e3d6000fd5b5050505050565b600160009054906101000a900473ffffffffffffffffffffffffffffffffffffffff1673ffffffffffffffffffffffffffffffffffffffff1663a7068d6630836003546040518463ffffffff1660e01b8152600401808473ffffffffffffffffffffffffffffffffffffffff1673ffffffffffffffffffffffffffffffffffffffff168152602001807f73696741757468000000000000000000000000000000000000000000000000008152506020018373ffffffffffffffffffffffffffffffffffffffff1673ffffffffffffffffffffffffffffffffffffffff1681526020018281526020019350505050600060405180830381600087803b158015610f9857600080fd5b505af1158015610fac573d6000803e3d6000fd5b505050505056fe4f6e6c79207265636f76657279206167656e742063616e206368616e676520746865206f776e6572a165627a7a72305820c01cd68e44f7faa5ffbdaba99a18347b762113429aeba4216edb32b91fcd252c00294f6e6c79207265636f76657279206167656e742063616e206368616e676520746865206f776e6572",
  "source": "pragma solidity 0.5.8;\n\ninterface IERC1056 {\n    function addDelegate(\n        address identity,\n        bytes32 delegateType,\n        address delegate,\n        uint256 validity\n    ) external;\n\n    function revokeDelegate(\n        address identity,\n        bytes32 delegateType,\n        address delegate\n    ) external;\n}\n\ncontract ProxyIdentity {\n    address public owner;\n    address erc1056;\n    mapping(address => bool) recoveryAgents;\n    uint256 defaultValidity = 10 * 60 * 1000;\n\n    event TransactionSent(bytes data, address to, bool success);\n    event ChangeOwner(address identity, address prev, address next);\n    event AddRecoveryAgent(address agent);\n    event RemoveRecoveryAgent(address agent);\n\n    constructor(address _erc1056) public {\n        erc1056 = _erc1056;\n        _changeOwner(msg.sender);\n    }\n\n    modifier _owner() {\n        require(msg.sender == owner, \"Only owner allowed\");\n        _;\n    }\n\n    modifier _recoveryAgent() {\n        require(\n            recoveryAgents[msg.sender],\n            \"Only recovery agent can change the owner\"\n        );\n        _;\n    }\n\n    function sendTransaction(bytes memory _data, address to)\n        public\n        payable\n        _owner\n    {\n        require(\n            _sendTransaction(_data, to, msg.value),\n            \"Can't send transaction\"\n        );\n    }\n\n    function _sendTransaction(bytes memory _data, address to, uint256 value)\n        internal\n        returns (bool success)\n    {\n        bytes memory data = _data;\n        uint256 len = data.length;\n        // solium-disable-next-line security/no-inline-assembly\n        assembly {\n            success := call(gas, to, value, add(data, 0x20), len, 0, 0)\n        }\n        emit TransactionSent(_data, to, success);\n    }\n\n    function sendSignedTransaction(\n        bytes memory data,\n        address to,\n        uint8 v,\n        bytes32 r,\n        bytes32 s\n    ) public payable {\n        bytes32 digest = keccak256(data);\n        bytes32 hash = keccak256(\n            abi.encodePacked(\"\\x19Ethereum Signed Message:\\n32\", digest)\n        );\n        address signer = ecrecover(hash, v, r, s);\n        require(owner == signer, \"Signature is not valid\");\n        require(\n            _sendTransaction(data, to, msg.value),\n            \"Can't send transaction\"\n        );\n    }\n\n    function addRecoveryAgent(address agent) public _owner {\n        recoveryAgents[agent] = true;\n        emit AddRecoveryAgent(agent);\n    }\n\n    function removeRecoveryAgent(address agent) public _recoveryAgent {\n        recoveryAgents[agent] = false;\n        emit RemoveRecoveryAgent(agent);\n    }\n\n    function changeOwner() external _recoveryAgent {\n        _changeOwner(msg.sender);\n    }\n\n    function _changeOwner(address newOwner) internal {\n        address oldOwner = owner;\n        if (owner != address(0x0)) {\n            removeRecoveryAgent(owner);\n            _revokeDelegate(owner);\n        }\n        owner = newOwner;\n        addRecoveryAgent(owner);\n        _addDelegate(owner);\n        emit ChangeOwner(address(this), oldOwner, newOwner);\n    }\n\n    function _addDelegate(address delegate) internal {\n        IERC1056(erc1056).addDelegate(\n            address(this),\n            \"sigAuth\",\n            delegate,\n            defaultValidity\n        );\n    }\n\n    function _revokeDelegate(address delegate) internal {\n        IERC1056(erc1056).revokeDelegate(address(this), \"sigAuth\", delegate);\n    }\n\n    function() external payable {}\n}\n",
  "sourcePath": "/home/dima/Development/ew-did-registry/packages/proxyIdentity/contracts/proxyIdentity.sol",
  "compiler": {
    "name": "solc",
    "version": "0.5.8+commit.23d335f2.Emscripten.clang"
  },
  "schemaVersion": "3.0.16",
  "updatedAt": "2020-03-13T14:13:54.752Z",
  "devdoc": {
    "methods": {}
  },
  "userdoc": {
    "methods": {}
  }
}