{
  "contractName": "ProxyIdentity",
  "abi": [
    {
      "constant": true,
      "inputs": [],
      "name": "creator",
      "outputs": [
        {
          "name": "",
          "type": "address"
        }
      ],
      "payable": false,
      "stateMutability": "view",
      "type": "function"
    },
    {
      "constant": true,
      "inputs": [],
      "name": "owner",
      "outputs": [
        {
          "name": "",
          "type": "address"
        }
      ],
      "payable": false,
      "stateMutability": "view",
      "type": "function"
    },
    {
      "inputs": [
        {
          "name": "_erc1056",
          "type": "address"
        }
      ],
      "payable": true,
      "stateMutability": "payable",
      "type": "constructor"
    },
    {
      "payable": true,
      "stateMutability": "payable",
      "type": "fallback"
    },
    {
      "anonymous": false,
      "inputs": [
        {
          "indexed": false,
          "name": "data",
          "type": "bytes"
        },
        {
          "indexed": false,
          "name": "to",
          "type": "address"
        },
        {
          "indexed": false,
          "name": "value",
          "type": "uint256"
        }
      ],
      "name": "TransactionSent",
      "type": "event"
    },
    {
      "anonymous": false,
      "inputs": [
        {
          "indexed": false,
          "name": "identity",
          "type": "address"
        },
        {
          "indexed": false,
          "name": "prev",
          "type": "address"
        },
        {
          "indexed": false,
          "name": "next",
          "type": "address"
        }
      ],
      "name": "OwnerChanged",
      "type": "event"
    },
    {
      "anonymous": false,
      "inputs": [
        {
          "indexed": false,
          "name": "agent",
          "type": "address"
        }
      ],
      "name": "RecoveryAgentAdded",
      "type": "event"
    },
    {
      "anonymous": false,
      "inputs": [
        {
          "indexed": false,
          "name": "agent",
          "type": "address"
        }
      ],
      "name": "RecoveryAgentRemoved",
      "type": "event"
    },
    {
      "constant": false,
      "inputs": [
        {
          "name": "_data",
          "type": "bytes"
        },
        {
          "name": "to",
          "type": "address"
        },
        {
          "name": "value",
          "type": "uint256"
        }
      ],
      "name": "sendTransaction",
      "outputs": [],
      "payable": true,
      "stateMutability": "payable",
      "type": "function"
    },
    {
      "constant": false,
      "inputs": [
        {
          "name": "data",
          "type": "bytes"
        },
        {
          "name": "to",
          "type": "address"
        },
        {
          "name": "v",
          "type": "uint8"
        },
        {
          "name": "r",
          "type": "bytes32"
        },
        {
          "name": "s",
          "type": "bytes32"
        },
        {
          "name": "value",
          "type": "uint256"
        }
      ],
      "name": "sendSignedTransaction",
      "outputs": [],
      "payable": true,
      "stateMutability": "payable",
      "type": "function"
    },
    {
      "constant": false,
      "inputs": [
        {
          "name": "agent",
          "type": "address"
        }
      ],
      "name": "addRecoveryAgent",
      "outputs": [],
      "payable": false,
      "stateMutability": "nonpayable",
      "type": "function"
    },
    {
      "constant": false,
      "inputs": [
        {
          "name": "agent",
          "type": "address"
        }
      ],
      "name": "removeRecoveryAgent",
      "outputs": [],
      "payable": false,
      "stateMutability": "nonpayable",
      "type": "function"
    },
    {
      "constant": false,
      "inputs": [
        {
          "name": "newOwner",
          "type": "address"
        }
      ],
      "name": "changeOwner",
      "outputs": [],
      "payable": false,
      "stateMutability": "nonpayable",
      "type": "function"
    }
  ],
  "bytecode": "0x6080604052620927c0600455604051602080620018fb833981018060405260208110156200002c57600080fd5b810190808051906020019092919050505080600260006101000a81548173ffffffffffffffffffffffffffffffffffffffff021916908373ffffffffffffffffffffffffffffffffffffffff160217905550336000806101000a81548173ffffffffffffffffffffffffffffffffffffffff021916908373ffffffffffffffffffffffffffffffffffffffff160217905550620000d833620000df640100000000026401000000009004565b50620007b0565b6000600160009054906101000a900473ffffffffffffffffffffffffffffffffffffffff169050600073ffffffffffffffffffffffffffffffffffffffff16600160009054906101000a900473ffffffffffffffffffffffffffffffffffffffff1673ffffffffffffffffffffffffffffffffffffffff1614620001d65762000199600160009054906101000a900473ffffffffffffffffffffffffffffffffffffffff166200031a640100000000026401000000009004565b620001d5600160009054906101000a900473ffffffffffffffffffffffffffffffffffffffff166200047c640100000000026401000000009004565b5b81600160006101000a81548173ffffffffffffffffffffffffffffffffffffffff021916908373ffffffffffffffffffffffffffffffffffffffff1602179055506200023182620005b2640100000000026401000000009004565b6200024b8262000670640100000000026401000000009004565b7f381c0d11398486654573703c51ee8210ce9461764d133f9f0e53b6a539705331308284604051808473ffffffffffffffffffffffffffffffffffffffff1673ffffffffffffffffffffffffffffffffffffffff1681526020018373ffffffffffffffffffffffffffffffffffffffff1673ffffffffffffffffffffffffffffffffffffffff1681526020018273ffffffffffffffffffffffffffffffffffffffff1673ffffffffffffffffffffffffffffffffffffffff168152602001935050505060405180910390a15050565b600360003373ffffffffffffffffffffffffffffffffffffffff1673ffffffffffffffffffffffffffffffffffffffff16815260200190815260200160002060009054906101000a900460ff16620003be576040517f08c379a0000000000000000000000000000000000000000000000000000000008152600401808060200182810382526028815260200180620018d36028913960400191505060405180910390fd5b6000600360008373ffffffffffffffffffffffffffffffffffffffff1673ffffffffffffffffffffffffffffffffffffffff16815260200190815260200160002060006101000a81548160ff0219169083151502179055507f093e9dd739d1f91d7e97be3e57001ee88d407f8e8870d3a7762c9be45a8f332b81604051808273ffffffffffffffffffffffffffffffffffffffff1673ffffffffffffffffffffffffffffffffffffffff16815260200191505060405180910390a150565b600260009054906101000a900473ffffffffffffffffffffffffffffffffffffffff1673ffffffffffffffffffffffffffffffffffffffff166380b29f7c30836040518363ffffffff167c0100000000000000000000000000000000000000000000000000000000028152600401808373ffffffffffffffffffffffffffffffffffffffff1673ffffffffffffffffffffffffffffffffffffffff168152602001807f73696741757468000000000000000000000000000000000000000000000000008152506020018273ffffffffffffffffffffffffffffffffffffffff1673ffffffffffffffffffffffffffffffffffffffff16815260200192505050600060405180830381600087803b1580156200059657600080fd5b505af1158015620005ab573d6000803e3d6000fd5b5050505050565b6001600360008373ffffffffffffffffffffffffffffffffffffffff1673ffffffffffffffffffffffffffffffffffffffff16815260200190815260200160002060006101000a81548160ff0219169083151502179055507f1f7c2db6dd3d6d717291d1194e259472b27b4107ed6368b58b18bb9c2f2d954581604051808273ffffffffffffffffffffffffffffffffffffffff1673ffffffffffffffffffffffffffffffffffffffff16815260200191505060405180910390a150565b600260009054906101000a900473ffffffffffffffffffffffffffffffffffffffff1673ffffffffffffffffffffffffffffffffffffffff1663a7068d6630836004546040518463ffffffff167c0100000000000000000000000000000000000000000000000000000000028152600401808473ffffffffffffffffffffffffffffffffffffffff1673ffffffffffffffffffffffffffffffffffffffff168152602001807f73696741757468000000000000000000000000000000000000000000000000008152506020018373ffffffffffffffffffffffffffffffffffffffff1673ffffffffffffffffffffffffffffffffffffffff1681526020018281526020019350505050600060405180830381600087803b1580156200079457600080fd5b505af1158015620007a9573d6000803e3d6000fd5b5050505050565b61111380620007c06000396000f3fe60806040526004361061008d576000357c010000000000000000000000000000000000000000000000000000000090048063a6f9dae11161006b578063a6f9dae11461018e578063b2e7d069146101df578063bbc01857146102e5578063c8777b50146103ca5761008d565b806302d05d3f1461008f5780637489453d146100e65780638da5cb5b14610137575b005b34801561009b57600080fd5b506100a461041b565b604051808273ffffffffffffffffffffffffffffffffffffffff1673ffffffffffffffffffffffffffffffffffffffff16815260200191505060405180910390f35b3480156100f257600080fd5b506101356004803603602081101561010957600080fd5b81019080803573ffffffffffffffffffffffffffffffffffffffff169060200190929190505050610440565b005b34801561014357600080fd5b5061014c61050f565b604051808273ffffffffffffffffffffffffffffffffffffffff1673ffffffffffffffffffffffffffffffffffffffff16815260200191505060405180910390f35b34801561019a57600080fd5b506101dd600480360360208110156101b157600080fd5b81019080803573ffffffffffffffffffffffffffffffffffffffff169060200190929190505050610535565b005b6102e3600480360360c08110156101f557600080fd5b810190808035906020019064010000000081111561021257600080fd5b82018360208201111561022457600080fd5b8035906020019184600183028401116401000000008311171561024657600080fd5b91908080601f016020809104026020016040519081016040528093929190818152602001838380828437600081840152601f19601f820116905080830192505050505050509192919290803573ffffffffffffffffffffffffffffffffffffffff169060200190929190803560ff1690602001909291908035906020019092919080359060200190929190803590602001909291905050506105e3565b005b6103c8600480360360608110156102fb57600080fd5b810190808035906020019064010000000081111561031857600080fd5b82018360208201111561032a57600080fd5b8035906020019184600183028401116401000000008311171561034c57600080fd5b91908080601f016020809104026020016040519081016040528093929190818152602001838380828437600081840152601f19601f820116905080830192505050505050509192919290803573ffffffffffffffffffffffffffffffffffffffff169060200190929190803590602001909291905050506107f8565b005b3480156103d657600080fd5b50610419600480360360208110156103ed57600080fd5b81019080803573ffffffffffffffffffffffffffffffffffffffff16906020019092919050505061093d565b005b6000809054906101000a900473ffffffffffffffffffffffffffffffffffffffff1681565b600160009054906101000a900473ffffffffffffffffffffffffffffffffffffffff1673ffffffffffffffffffffffffffffffffffffffff163373ffffffffffffffffffffffffffffffffffffffff1614610503576040517f08c379a00000000000000000000000000000000000000000000000000000000081526004018080602001828103825260128152602001807f4f6e6c79206f776e657220616c6c6f776564000000000000000000000000000081525060200191505060405180910390fd5b61050c81610a9d565b50565b600160009054906101000a900473ffffffffffffffffffffffffffffffffffffffff1681565b600360003373ffffffffffffffffffffffffffffffffffffffff1673ffffffffffffffffffffffffffffffffffffffff16815260200190815260200160002060009054906101000a900460ff166105d7576040517f08c379a00000000000000000000000000000000000000000000000000000000081526004018080602001828103825260288152602001806110c06028913960400191505060405180910390fd5b6105e081610b5b565b50565b60008680519060200120905060008160405160200180807f19457468657265756d205369676e6564204d6573736167653a0a333200000000815250601c01828152602001915050604051602081830303815290604052805190602001209050600060018288888860405160008152602001604052604051808581526020018460ff1660ff1681526020018381526020018281526020019450505050506020604051602081039080840390855afa1580156106a1573d6000803e3d6000fd5b5050506020604051035190508073ffffffffffffffffffffffffffffffffffffffff16600160009054906101000a900473ffffffffffffffffffffffffffffffffffffffff1673ffffffffffffffffffffffffffffffffffffffff1614610770576040517f08c379a00000000000000000000000000000000000000000000000000000000081526004018080602001828103825260168152602001807f5369676e6174757265206973206e6f742076616c69640000000000000000000081525060200191505060405180910390fd5b61077b898986610d51565b6107ed576040517f08c379a00000000000000000000000000000000000000000000000000000000081526004018080602001828103825260168152602001807f43616e27742073656e64207472616e73616374696f6e0000000000000000000081525060200191505060405180910390fd5b505050505050505050565b600160009054906101000a900473ffffffffffffffffffffffffffffffffffffffff1673ffffffffffffffffffffffffffffffffffffffff163373ffffffffffffffffffffffffffffffffffffffff16146108bb576040517f08c379a00000000000000000000000000000000000000000000000000000000081526004018080602001828103825260128152602001807f4f6e6c79206f776e657220616c6c6f776564000000000000000000000000000081525060200191505060405180910390fd5b6108c6838383610d51565b610938576040517f08c379a00000000000000000000000000000000000000000000000000000000081526004018080602001828103825260168152602001807f43616e27742073656e64207472616e73616374696f6e0000000000000000000081525060200191505060405180910390fd5b505050565b600360003373ffffffffffffffffffffffffffffffffffffffff1673ffffffffffffffffffffffffffffffffffffffff16815260200190815260200160002060009054906101000a900460ff166109df576040517f08c379a00000000000000000000000000000000000000000000000000000000081526004018080602001828103825260288152602001806110c06028913960400191505060405180910390fd5b6000600360008373ffffffffffffffffffffffffffffffffffffffff1673ffffffffffffffffffffffffffffffffffffffff16815260200190815260200160002060006101000a81548160ff0219169083151502179055507f093e9dd739d1f91d7e97be3e57001ee88d407f8e8870d3a7762c9be45a8f332b81604051808273ffffffffffffffffffffffffffffffffffffffff1673ffffffffffffffffffffffffffffffffffffffff16815260200191505060405180910390a150565b6001600360008373ffffffffffffffffffffffffffffffffffffffff1673ffffffffffffffffffffffffffffffffffffffff16815260200190815260200160002060006101000a81548160ff0219169083151502179055507f1f7c2db6dd3d6d717291d1194e259472b27b4107ed6368b58b18bb9c2f2d954581604051808273ffffffffffffffffffffffffffffffffffffffff1673ffffffffffffffffffffffffffffffffffffffff16815260200191505060405180910390a150565b6000600160009054906101000a900473ffffffffffffffffffffffffffffffffffffffff169050600073ffffffffffffffffffffffffffffffffffffffff16600160009054906101000a900473ffffffffffffffffffffffffffffffffffffffff1673ffffffffffffffffffffffffffffffffffffffff1614610c2f57610c03600160009054906101000a900473ffffffffffffffffffffffffffffffffffffffff1661093d565b610c2e600160009054906101000a900473ffffffffffffffffffffffffffffffffffffffff16610e4d565b5b81600160006101000a81548173ffffffffffffffffffffffffffffffffffffffff021916908373ffffffffffffffffffffffffffffffffffffffff160217905550610c7982610a9d565b610c8282610f81565b7f381c0d11398486654573703c51ee8210ce9461764d133f9f0e53b6a539705331308284604051808473ffffffffffffffffffffffffffffffffffffffff1673ffffffffffffffffffffffffffffffffffffffff1681526020018373ffffffffffffffffffffffffffffffffffffffff1673ffffffffffffffffffffffffffffffffffffffff1681526020018273ffffffffffffffffffffffffffffffffffffffff1673ffffffffffffffffffffffffffffffffffffffff168152602001935050505060405180910390a15050565b60006060849050600081519050600080826020850187895af192507f7e4155ee9daec547578a255f7495bc08f38796f4d4a3be4ed7189f4fc55cb18586868660405180806020018473ffffffffffffffffffffffffffffffffffffffff1673ffffffffffffffffffffffffffffffffffffffff168152602001838152602001828103825285818151815260200191508051906020019080838360005b83811015610e08578082015181840152602081019050610ded565b50505050905090810190601f168015610e355780820380516001836020036101000a031916815260200191505b5094505050505060405180910390a150509392505050565b600260009054906101000a900473ffffffffffffffffffffffffffffffffffffffff1673ffffffffffffffffffffffffffffffffffffffff166380b29f7c30836040518363ffffffff167c0100000000000000000000000000000000000000000000000000000000028152600401808373ffffffffffffffffffffffffffffffffffffffff1673ffffffffffffffffffffffffffffffffffffffff168152602001807f73696741757468000000000000000000000000000000000000000000000000008152506020018273ffffffffffffffffffffffffffffffffffffffff1673ffffffffffffffffffffffffffffffffffffffff16815260200192505050600060405180830381600087803b158015610f6657600080fd5b505af1158015610f7a573d6000803e3d6000fd5b5050505050565b600260009054906101000a900473ffffffffffffffffffffffffffffffffffffffff1673ffffffffffffffffffffffffffffffffffffffff1663a7068d6630836004546040518463ffffffff167c0100000000000000000000000000000000000000000000000000000000028152600401808473ffffffffffffffffffffffffffffffffffffffff1673ffffffffffffffffffffffffffffffffffffffff168152602001807f73696741757468000000000000000000000000000000000000000000000000008152506020018373ffffffffffffffffffffffffffffffffffffffff1673ffffffffffffffffffffffffffffffffffffffff1681526020018281526020019350505050600060405180830381600087803b1580156110a457600080fd5b505af11580156110b8573d6000803e3d6000fd5b505050505056fe4f6e6c79207265636f76657279206167656e742063616e206368616e676520746865206f776e6572a165627a7a723058200b25085af72fd9ccba24d07bda1cba75bdf156650e17f7e87fe04a10cecd15b900294f6e6c79207265636f76657279206167656e742063616e206368616e676520746865206f776e6572",
  "source": "pragma solidity 0.5.8;\n\ninterface IERC1056 {\n    function addDelegate(\n        address identity,\n        bytes32 delegateType,\n        address delegate,\n        uint256 validity\n    ) external;\n\n    function revokeDelegate(\n        address identity,\n        bytes32 delegateType,\n        address delegate\n    ) external;\n}\n\ncontract ProxyIdentity {\n    address public creator;\n    address public owner;\n    address erc1056;\n    mapping(address => bool) recoveryAgents;\n    uint256 defaultValidity = 10 * 60 * 1000;\n\n    event TransactionSent(bytes data, address to, uint256 value);\n    event OwnerChanged(address identity, address prev, address next);\n    event RecoveryAgentAdded(address agent);\n    event RecoveryAgentRemoved(address agent);\n\n    constructor(address _erc1056) public payable {\n        erc1056 = _erc1056;\n        creator = msg.sender;\n        _changeOwner(msg.sender);\n    }\n\n    modifier _owner() {\n        require(msg.sender == owner, \"Only owner allowed\");\n        _;\n    }\n\n    modifier _recoveryAgent() {\n        require(\n            recoveryAgents[msg.sender],\n            \"Only recovery agent can change the owner\"\n        );\n        _;\n    }\n\n    function sendTransaction(bytes memory _data, address to, uint256 value)\n        public\n        payable\n        _owner\n    {\n        require(\n            _sendTransaction(_data, to, value),\n            \"Can't send transaction\"\n        );\n    }\n\n    function _sendTransaction(bytes memory _data, address to, uint256 value)\n        internal\n        returns (bool success)\n    {\n        bytes memory data = _data;\n        uint256 len = data.length;\n        // solium-disable-next-line security/no-inline-assembly\n        assembly {\n            success := call(gas, to, value, add(data, 0x20), len, 0, 0)\n        }\n        emit TransactionSent(_data, to, value);\n    }\n\n    function sendSignedTransaction(\n        bytes memory data,\n        address to,\n        uint8 v,\n        bytes32 r,\n        bytes32 s,\n        uint256 value\n    ) public payable {\n        bytes32 digest = keccak256(data);\n        bytes32 hash = keccak256(\n            abi.encodePacked(\"\\x19Ethereum Signed Message:\\n32\", digest)\n        );\n        address signer = ecrecover(hash, v, r, s);\n        require(owner == signer, \"Signature is not valid\");\n        require(\n            _sendTransaction(data, to, value),\n            \"Can't send transaction\"\n        );\n    }\n\n    function addRecoveryAgent(address agent) public _owner {\n        _addRecoveryAgent(agent);\n    }\n\n    function _addRecoveryAgent(address agent) internal {\n        recoveryAgents[agent] = true;\n        emit RecoveryAgentAdded(agent);\n    }\n\n    function removeRecoveryAgent(address agent) public _recoveryAgent {\n        recoveryAgents[agent] = false;\n        emit RecoveryAgentRemoved(agent);\n    }\n\n    /**\n    * Used by the proxy factory to make sender the owner\n     */\n    function changeOwner(address newOwner) public  _recoveryAgent{\n        _changeOwner(newOwner);\n    }\n\n    function _changeOwner(address newOwner) internal {\n        address oldOwner = owner;\n        if (owner != address(0x0)) {\n            removeRecoveryAgent(owner);\n            _revokeDelegate(owner);\n        }\n        owner = newOwner;\n        _addRecoveryAgent(newOwner);\n        _addDelegate(newOwner);\n        emit OwnerChanged(address(this), oldOwner, newOwner);\n    }\n\n    function _addDelegate(address delegate) internal {\n        IERC1056(erc1056).addDelegate(\n            address(this),\n            \"sigAuth\",\n            delegate,\n            defaultValidity\n        );\n    }\n\n    function _revokeDelegate(address delegate) internal {\n        IERC1056(erc1056).revokeDelegate(address(this), \"sigAuth\", delegate);\n    }\n\n    function() external payable {}\n}\n",
  "sourcePath": "/home/dima/Development/ew-did-registry/packages/proxyIdentity/contracts/proxyIdentity.sol",
  "compiler": {
    "name": "solc",
    "version": "0.5.8+commit.23d335f2.Emscripten.clang"
  },
  "schemaVersion": "3.0.16",
  "updatedAt": "2020-03-17T04:54:25.534Z",
  "devdoc": {
    "methods": {}
  },
  "userdoc": {
    "methods": {
      "changeOwner(address)": {
        "notice": "Used by the proxy factory to make sender the owner"
      }
    }
  }
}