{
  "contractName": "ProxyIdentity",
  "abi": [
    {
      "constant": true,
      "inputs": [],
      "name": "owner",
      "outputs": [
        {
          "name": "",
          "type": "address"
        }
      ],
      "payable": false,
      "stateMutability": "view",
      "type": "function"
    },
    {
      "inputs": [
        {
          "name": "_erc1056",
          "type": "address"
        }
      ],
      "payable": true,
      "stateMutability": "payable",
      "type": "constructor"
    },
    {
      "payable": true,
      "stateMutability": "payable",
      "type": "fallback"
    },
    {
      "anonymous": false,
      "inputs": [
        {
          "indexed": false,
          "name": "data",
          "type": "bytes"
        },
        {
          "indexed": false,
          "name": "to",
          "type": "address"
        },
        {
          "indexed": false,
          "name": "success",
          "type": "bool"
        }
      ],
      "name": "TransactionSend",
      "type": "event"
    },
    {
      "anonymous": false,
      "inputs": [
        {
          "indexed": false,
          "name": "sender",
          "type": "address"
        },
        {
          "indexed": false,
          "name": "signer",
          "type": "address"
        },
        {
          "indexed": false,
          "name": "hash",
          "type": "bytes32"
        }
      ],
      "name": "SignedTransactionSend",
      "type": "event"
    },
    {
      "anonymous": false,
      "inputs": [
        {
          "indexed": false,
          "name": "identity",
          "type": "address"
        },
        {
          "indexed": false,
          "name": "prev",
          "type": "address"
        },
        {
          "indexed": false,
          "name": "next",
          "type": "address"
        }
      ],
      "name": "ChangeOwner",
      "type": "event"
    },
    {
      "anonymous": false,
      "inputs": [
        {
          "indexed": false,
          "name": "agent",
          "type": "address"
        }
      ],
      "name": "AddRecoveryAgent",
      "type": "event"
    },
    {
      "constant": false,
      "inputs": [
        {
          "name": "_data",
          "type": "bytes"
        },
        {
          "name": "to",
          "type": "address"
        }
      ],
      "name": "sendTransaction",
      "outputs": [],
      "payable": false,
      "stateMutability": "nonpayable",
      "type": "function"
    },
    {
      "constant": false,
      "inputs": [
        {
          "name": "data",
          "type": "bytes"
        },
        {
          "name": "to",
          "type": "address"
        },
        {
          "name": "v",
          "type": "uint8"
        },
        {
          "name": "r",
          "type": "bytes32"
        },
        {
          "name": "s",
          "type": "bytes32"
        }
      ],
      "name": "sendSignedTransaction",
      "outputs": [],
      "payable": true,
      "stateMutability": "payable",
      "type": "function"
    },
    {
      "constant": false,
      "inputs": [
        {
          "name": "agent",
          "type": "address"
        }
      ],
      "name": "addRecoveryAgent",
      "outputs": [],
      "payable": false,
      "stateMutability": "nonpayable",
      "type": "function"
    },
    {
      "constant": false,
      "inputs": [],
      "name": "changeOwner",
      "outputs": [],
      "payable": false,
      "stateMutability": "nonpayable",
      "type": "function"
    },
    {
      "constant": false,
      "inputs": [
        {
          "name": "newOwner",
          "type": "address"
        }
      ],
      "name": "changeOwner",
      "outputs": [],
      "payable": false,
      "stateMutability": "nonpayable",
      "type": "function"
    }
  ],
  "bytecode": "0x6080604052620927c060035560405160208061135a8339810180604052602081101561002a57600080fd5b810190808051906020019092919050505080600160006101000a81548173ffffffffffffffffffffffffffffffffffffffff021916908373ffffffffffffffffffffffffffffffffffffffff16021790555061008b3361009160201b60201c565b50610489565b7fb687c76215839865ade5b0a61820e3a05ef7a114a7d26f7308416bc039833673306000809054906101000a900473ffffffffffffffffffffffffffffffffffffffff1683604051808473ffffffffffffffffffffffffffffffffffffffff1673ffffffffffffffffffffffffffffffffffffffff1681526020018373ffffffffffffffffffffffffffffffffffffffff1673ffffffffffffffffffffffffffffffffffffffff1681526020018273ffffffffffffffffffffffffffffffffffffffff1673ffffffffffffffffffffffffffffffffffffffff168152602001935050505060405180910390a1806000806101000a81548173ffffffffffffffffffffffffffffffffffffffff021916908373ffffffffffffffffffffffffffffffffffffffff1602179055506101cb6101ce60201b60201c565b50565b600060606040518060400160405280600781526020017f7369674175676800000000000000000000000000000000000000000000000000815250905060208101519150606030836000809054906101000a900473ffffffffffffffffffffffffffffffffffffffff16600354604051602401808573ffffffffffffffffffffffffffffffffffffffff1673ffffffffffffffffffffffffffffffffffffffff1681526020018481526020018373ffffffffffffffffffffffffffffffffffffffff1673ffffffffffffffffffffffffffffffffffffffff1681526020018281526020019450505050506040516020818303038152906040527fa7068d66000000000000000000000000000000000000000000000000000000007bffffffffffffffffffffffffffffffffffffffffffffffffffffffff19166020820180517bffffffffffffffffffffffffffffffffffffffffffffffffffffffff838183161783525050505090506000600160009054906101000a900473ffffffffffffffffffffffffffffffffffffffff1673ffffffffffffffffffffffffffffffffffffffff16826040518082805190602001908083835b602083106103a55780518252602082019150602081019050602083039250610382565b6001836020036101000a0380198251168184511680821785525050505050509050019150506000604051808303816000865af19150503d8060008114610407576040519150601f19603f3d011682016040523d82523d6000602084013e61040c565b606091505b5050905080610483576040517f08c379a000000000000000000000000000000000000000000000000000000000815260040180806020018281038252601c8152602001807f43616e277420616464206f776e657220746f2064656c6567617465730000000081525060200191505060405180910390fd5b50505050565b610ec2806104986000396000f3fe6080604052600436106100555760003560e01c8063438408551461005757806362a094771461013f5780637489453d146101565780638da5cb5b146101a7578063a6f9dae1146101fe578063d732290d1461024f575b005b34801561006357600080fd5b5061013d6004803603604081101561007a57600080fd5b810190808035906020019064010000000081111561009757600080fd5b8201836020820111156100a957600080fd5b803590602001918460018302840111640100000000831117156100cb57600080fd5b91908080601f016020809104026020016040519081016040528093929190818152602001838380828437600081840152601f19601f820116905080830192505050505050509192919290803573ffffffffffffffffffffffffffffffffffffffff16906020019092919050505061034b565b005b34801561014b57600080fd5b5061015461051d565b005b34801561016257600080fd5b506101a56004803603602081101561017957600080fd5b81019080803573ffffffffffffffffffffffffffffffffffffffff1690602001909291905050506105ca565b005b3480156101b357600080fd5b506101bc61074a565b604051808273ffffffffffffffffffffffffffffffffffffffff1673ffffffffffffffffffffffffffffffffffffffff16815260200191505060405180910390f35b34801561020a57600080fd5b5061024d6004803603602081101561022157600080fd5b81019080803573ffffffffffffffffffffffffffffffffffffffff16906020019092919050505061076f565b005b610349600480360360a081101561026557600080fd5b810190808035906020019064010000000081111561028257600080fd5b82018360208201111561029457600080fd5b803590602001918460018302840111640100000000831117156102b657600080fd5b91908080601f016020809104026020016040519081016040528093929190818152602001838380828437600081840152601f19601f820116905080830192505050505050509192919290803573ffffffffffffffffffffffffffffffffffffffff169060200190929190803560ff169060200190929190803590602001909291908035906020019092919050505061083d565b005b6000809054906101000a900473ffffffffffffffffffffffffffffffffffffffff1673ffffffffffffffffffffffffffffffffffffffff163373ffffffffffffffffffffffffffffffffffffffff161461040d576040517f08c379a00000000000000000000000000000000000000000000000000000000081526004018080602001828103825260128152602001807f4f6e6c79206f776e657220616c6c6f776564000000000000000000000000000081525060200191505060405180910390fd5b600060608390506000815190506000808260208501600088620186a0f19250600083141561043a57600080fd5b7ffefa6acb046b0187a6de4d0d92187a794331ec748fc0607a58b09d4dd726229285858560405180806020018473ffffffffffffffffffffffffffffffffffffffff1673ffffffffffffffffffffffffffffffffffffffff16815260200183151515158152602001828103825285818151815260200191508051906020019080838360005b838110156104da5780820151818401526020810190506104bf565b50505050905090810190601f1680156105075780820380516001836020036101000a031916815260200191505b5094505050505060405180910390a15050505050565b600260003373ffffffffffffffffffffffffffffffffffffffff1673ffffffffffffffffffffffffffffffffffffffff16815260200190815260200160002060009054906101000a900460ff166105bf576040517f08c379a0000000000000000000000000000000000000000000000000000000008152600401808060200182810382526028815260200180610e6f6028913960400191505060405180910390fd5b6105c833610a7c565b565b6000809054906101000a900473ffffffffffffffffffffffffffffffffffffffff1673ffffffffffffffffffffffffffffffffffffffff163373ffffffffffffffffffffffffffffffffffffffff161461068c576040517f08c379a00000000000000000000000000000000000000000000000000000000081526004018080602001828103825260128152602001807f4f6e6c79206f776e657220616c6c6f776564000000000000000000000000000081525060200191505060405180910390fd5b6001600260008373ffffffffffffffffffffffffffffffffffffffff1673ffffffffffffffffffffffffffffffffffffffff16815260200190815260200160002060006101000a81548160ff0219169083151502179055507fa795741c6c941d9a037ee81c494ac0806149d0cecba098662f3c067e8d7c872881604051808273ffffffffffffffffffffffffffffffffffffffff1673ffffffffffffffffffffffffffffffffffffffff16815260200191505060405180910390a150565b6000809054906101000a900473ffffffffffffffffffffffffffffffffffffffff1681565b6000809054906101000a900473ffffffffffffffffffffffffffffffffffffffff1673ffffffffffffffffffffffffffffffffffffffff163373ffffffffffffffffffffffffffffffffffffffff1614610831576040517f08c379a00000000000000000000000000000000000000000000000000000000081526004018080602001828103825260128152602001807f4f6e6c79206f776e657220616c6c6f776564000000000000000000000000000081525060200191505060405180910390fd5b61083a81610a7c565b50565b60008580519060200120905060008160405160200180807f19457468657265756d205369676e6564204d6573736167653a0a333200000000815250601c01828152602001915050604051602081830303815290604052805190602001209050600060018287878760405160008152602001604052604051808581526020018460ff1660ff1681526020018381526020018281526020019450505050506020604051602081039080840390855afa1580156108fb573d6000803e3d6000fd5b5050506020604051035190508073ffffffffffffffffffffffffffffffffffffffff166000809054906101000a900473ffffffffffffffffffffffffffffffffffffffff1673ffffffffffffffffffffffffffffffffffffffff16146109c9576040517f08c379a00000000000000000000000000000000000000000000000000000000081526004018080602001828103825260168152602001807f5369676e6174757265206973206e6f742076616c69640000000000000000000081525060200191505060405180910390fd5b6109d3888861034b565b7ff4590985392538b823cae3208d63f62e73f649c806ba903cd3b56c237abe98f3338284604051808473ffffffffffffffffffffffffffffffffffffffff1673ffffffffffffffffffffffffffffffffffffffff1681526020018373ffffffffffffffffffffffffffffffffffffffff1673ffffffffffffffffffffffffffffffffffffffff168152602001828152602001935050505060405180910390a15050505050505050565b7fb687c76215839865ade5b0a61820e3a05ef7a114a7d26f7308416bc039833673306000809054906101000a900473ffffffffffffffffffffffffffffffffffffffff1683604051808473ffffffffffffffffffffffffffffffffffffffff1673ffffffffffffffffffffffffffffffffffffffff1681526020018373ffffffffffffffffffffffffffffffffffffffff1673ffffffffffffffffffffffffffffffffffffffff1681526020018273ffffffffffffffffffffffffffffffffffffffff1673ffffffffffffffffffffffffffffffffffffffff168152602001935050505060405180910390a1806000806101000a81548173ffffffffffffffffffffffffffffffffffffffff021916908373ffffffffffffffffffffffffffffffffffffffff160217905550610bb0610bb3565b50565b600060606040518060400160405280600781526020017f7369674175676800000000000000000000000000000000000000000000000000815250905060208101519150606030836000809054906101000a900473ffffffffffffffffffffffffffffffffffffffff16600354604051602401808573ffffffffffffffffffffffffffffffffffffffff1673ffffffffffffffffffffffffffffffffffffffff1681526020018481526020018373ffffffffffffffffffffffffffffffffffffffff1673ffffffffffffffffffffffffffffffffffffffff1681526020018281526020019450505050506040516020818303038152906040527fa7068d66000000000000000000000000000000000000000000000000000000007bffffffffffffffffffffffffffffffffffffffffffffffffffffffff19166020820180517bffffffffffffffffffffffffffffffffffffffffffffffffffffffff838183161783525050505090506000600160009054906101000a900473ffffffffffffffffffffffffffffffffffffffff1673ffffffffffffffffffffffffffffffffffffffff16826040518082805190602001908083835b60208310610d8a5780518252602082019150602081019050602083039250610d67565b6001836020036101000a0380198251168184511680821785525050505050509050019150506000604051808303816000865af19150503d8060008114610dec576040519150601f19603f3d011682016040523d82523d6000602084013e610df1565b606091505b5050905080610e68576040517f08c379a000000000000000000000000000000000000000000000000000000000815260040180806020018281038252601c8152602001807f43616e277420616464206f776e657220746f2064656c6567617465730000000081525060200191505060405180910390fd5b5050505056fe4f6e6c79207265636f76657279206167656e742063616e206368616e676520746865206f776e6572a165627a7a72305820921e4b558384c1b9bba41b7e289249239c9a3f054b972757f8db0f40206651fb0029",
  "source": "pragma solidity 0.5.8;\n\ncontract ProxyIdentity {\n    address public owner;\n    address erc1056;\n    mapping(address => bool) recoveryAgents;\n    uint256 defaultValidity = 10 * 60 * 1000;\n\n    event TransactionSend(bytes data, address to, bool success);\n    event SignedTransactionSend(address sender, address signer, bytes32 hash);\n    event ChangeOwner(address identity, address prev, address next);\n    event AddRecoveryAgent(address agent);\n\n    constructor(address _erc1056) public payable {\n        erc1056 = _erc1056;\n        _changeOwner(msg.sender);\n    }\n\n    modifier _owner() {\n        require(msg.sender == owner, \"Only owner allowed\");\n        _;\n    }\n\n    modifier _recoveryAgent() {\n        require(\n            recoveryAgents[msg.sender],\n            \"Only recovery agent can change the owner\"\n        );\n        _;\n    }\n\n    function sendTransaction(bytes memory _data, address to) public _owner {\n        bool success;\n        bytes memory data = _data;\n        uint256 len = data.length;\n        // solium-disable-next-line security/no-inline-assembly\n        assembly {\n            success := call(100000, to, 0, add(data, 0x20), len, 0, 0)\n            if eq(success, 0) {\n                revert(0, 0)\n            }\n        }\n        emit TransactionSend(_data, to, success);\n    }\n\n    function sendSignedTransaction(\n        bytes memory data,\n        address to,\n        uint8 v,\n        bytes32 r,\n        bytes32 s\n    ) public payable {\n        bytes32 digest = keccak256(data);\n        bytes32 hash = keccak256(\n            abi.encodePacked(\"\\x19Ethereum Signed Message:\\n32\", digest)\n        );\n        address signer = ecrecover(hash, v, r, s);\n        require(owner == signer, \"Signature is not valid\");\n        sendTransaction(data, to);\n        emit SignedTransactionSend(msg.sender, signer, hash);\n    }\n\n    function addRecoveryAgent(address agent) external _owner {\n        recoveryAgents[agent] = true;\n        emit AddRecoveryAgent(agent);\n    }\n\n    function changeOwner() external _recoveryAgent {\n        _changeOwner(msg.sender);\n    }\n\n    /**\n    * Used by the proxy factory to make sender the owner\n     */\n    function changeOwner(address newOwner) public _owner {\n        _changeOwner(newOwner);\n    }\n\n    function _changeOwner(address newOwner) internal {\n        emit ChangeOwner(address(this), owner, newOwner);\n        owner = newOwner;\n        _addOwnerToDelegates();\n    }\n\n    function _addOwnerToDelegates() internal {\n        bytes32 delegateType;\n        bytes memory bytesOfType = bytes(\"sigAugh\");\n        // solium-disable-next-line security/no-inline-assembly\n        assembly {\n            delegateType := mload(add(bytesOfType, 0x20))\n        }\n        bytes memory payload = abi.encodeWithSignature(\n            \"addDelegate(address,bytes32,address,uint256)\",\n            address(this),\n            delegateType,\n            owner,\n            defaultValidity\n        );\n        // solium-disable-next-line security/no-low-level-calls\n        (bool success, ) = erc1056.call(payload);\n        require(success, \"Can't add owner to delegates\");\n    }\n\n    function() external payable {}\n}\n",
  "sourcePath": "/home/dima/Development/ew-did-registry/packages/proxyIdentity/contracts/proxyIdentity.sol",
  "compiler": {
    "name": "solc",
    "version": "0.5.8+commit.23d335f2.Emscripten.clang"
  },
  "schemaVersion": "3.0.16",
  "updatedAt": "2020-03-12T13:31:56.314Z",
  "devdoc": {
    "methods": {}
  },
  "userdoc": {
    "methods": {
      "changeOwner(address)": {
        "notice": "Used by the proxy factory to make sender the owner"
      }
    }
  }
}