{
  "contractName": "ProxyIdentity",
  "abi": [
    {
      "inputs": [
        {
          "internalType": "address",
          "name": "_erc1056",
          "type": "address"
        },
        {
          "internalType": "address",
          "name": "_erc1155",
          "type": "address"
        },
        {
          "internalType": "string",
          "name": "_serial",
          "type": "string"
        },
        {
          "internalType": "address",
          "name": "_owner",
          "type": "address"
        }
      ],
      "payable": false,
      "stateMutability": "nonpayable",
      "type": "constructor"
    },
    {
      "anonymous": false,
      "inputs": [
        {
          "indexed": false,
          "internalType": "address",
          "name": "agent",
          "type": "address"
        }
      ],
      "name": "ApprovedAgentAdded",
      "type": "event"
    },
    {
      "anonymous": false,
      "inputs": [
        {
          "indexed": false,
          "internalType": "address",
          "name": "agent",
          "type": "address"
        }
      ],
      "name": "ApprovedAgentRemoved",
      "type": "event"
    },
    {
      "anonymous": false,
      "inputs": [
        {
          "indexed": false,
          "internalType": "bytes",
          "name": "data",
          "type": "bytes"
        },
        {
          "indexed": false,
          "internalType": "bool",
          "name": "success",
          "type": "bool"
        },
        {
          "indexed": false,
          "internalType": "address",
          "name": "sender",
          "type": "address"
        }
      ],
      "name": "CallbackOnTransfer",
      "type": "event"
    },
    {
      "anonymous": false,
      "inputs": [
        {
          "indexed": false,
          "internalType": "bytes",
          "name": "data",
          "type": "bytes"
        },
        {
          "indexed": false,
          "internalType": "address",
          "name": "to",
          "type": "address"
        },
        {
          "indexed": false,
          "internalType": "uint256",
          "name": "value",
          "type": "uint256"
        }
      ],
      "name": "TransactionSent",
      "type": "event"
    },
    {
      "payable": true,
      "stateMutability": "payable",
      "type": "fallback"
    },
    {
      "constant": true,
      "inputs": [
        {
          "internalType": "uint256",
          "name": "",
          "type": "uint256"
        }
      ],
      "name": "agents",
      "outputs": [
        {
          "internalType": "address",
          "name": "",
          "type": "address"
        }
      ],
      "payable": false,
      "stateMutability": "view",
      "type": "function"
    },
    {
      "constant": true,
      "inputs": [],
      "name": "creator",
      "outputs": [
        {
          "internalType": "address",
          "name": "",
          "type": "address"
        }
      ],
      "payable": false,
      "stateMutability": "view",
      "type": "function"
    },
    {
      "constant": true,
      "inputs": [],
      "name": "erc1056",
      "outputs": [
        {
          "internalType": "address",
          "name": "",
          "type": "address"
        }
      ],
      "payable": false,
      "stateMutability": "view",
      "type": "function"
    },
    {
      "constant": true,
      "inputs": [],
      "name": "erc1155",
      "outputs": [
        {
          "internalType": "address",
          "name": "",
          "type": "address"
        }
      ],
      "payable": false,
      "stateMutability": "view",
      "type": "function"
    },
    {
      "constant": true,
      "inputs": [
        {
          "internalType": "address",
          "name": "",
          "type": "address"
        }
      ],
      "name": "isApproved",
      "outputs": [
        {
          "internalType": "bool",
          "name": "",
          "type": "bool"
        }
      ],
      "payable": false,
      "stateMutability": "view",
      "type": "function"
    },
    {
      "constant": true,
      "inputs": [],
      "name": "owner",
      "outputs": [
        {
          "internalType": "address",
          "name": "",
          "type": "address"
        }
      ],
      "payable": false,
      "stateMutability": "view",
      "type": "function"
    },
    {
      "constant": false,
      "inputs": [
        {
          "internalType": "bytes",
          "name": "_data",
          "type": "bytes"
        },
        {
          "internalType": "address",
          "name": "to",
          "type": "address"
        },
        {
          "internalType": "uint256",
          "name": "value",
          "type": "uint256"
        }
      ],
      "name": "sendTransaction",
      "outputs": [],
      "payable": true,
      "stateMutability": "payable",
      "type": "function"
    },
    {
      "constant": false,
      "inputs": [
        {
          "internalType": "bytes",
          "name": "data",
          "type": "bytes"
        },
        {
          "internalType": "address",
          "name": "to",
          "type": "address"
        },
        {
          "internalType": "uint8",
          "name": "v",
          "type": "uint8"
        },
        {
          "internalType": "bytes32",
          "name": "r",
          "type": "bytes32"
        },
        {
          "internalType": "bytes32",
          "name": "s",
          "type": "bytes32"
        },
        {
          "internalType": "uint256",
          "name": "value",
          "type": "uint256"
        },
        {
          "internalType": "uint256",
          "name": "nonce",
          "type": "uint256"
        }
      ],
      "name": "sendSignedTransaction",
      "outputs": [],
      "payable": true,
      "stateMutability": "payable",
      "type": "function"
    },
    {
      "constant": false,
      "inputs": [
        {
          "internalType": "address",
          "name": "delegate",
          "type": "address"
        }
      ],
      "name": "addDelegate",
      "outputs": [],
      "payable": false,
      "stateMutability": "nonpayable",
      "type": "function"
    },
    {
      "constant": false,
      "inputs": [
        {
          "internalType": "address",
          "name": "delegate",
          "type": "address"
        }
      ],
      "name": "revokeDelegate",
      "outputs": [],
      "payable": false,
      "stateMutability": "nonpayable",
      "type": "function"
    },
    {
      "constant": false,
      "inputs": [
        {
          "internalType": "address",
          "name": "newOwner",
          "type": "address"
        }
      ],
      "name": "changeOwner",
      "outputs": [],
      "payable": false,
      "stateMutability": "nonpayable",
      "type": "function"
    },
    {
      "constant": false,
      "inputs": [
        {
          "internalType": "address",
          "name": "agent",
          "type": "address"
        }
      ],
      "name": "addApprovedAgent",
      "outputs": [],
      "payable": false,
      "stateMutability": "nonpayable",
      "type": "function"
    },
    {
      "constant": false,
      "inputs": [
        {
          "internalType": "address",
          "name": "agent",
          "type": "address"
        }
      ],
      "name": "removeApprovedAgent",
      "outputs": [],
      "payable": false,
      "stateMutability": "nonpayable",
      "type": "function"
    },
    {
      "constant": true,
      "inputs": [],
      "name": "uri",
      "outputs": [
        {
          "internalType": "string",
          "name": "",
          "type": "string"
        }
      ],
      "payable": false,
      "stateMutability": "view",
      "type": "function"
    },
    {
      "constant": false,
      "inputs": [
        {
          "internalType": "string",
          "name": "uri",
          "type": "string"
        }
      ],
      "name": "updateUri",
      "outputs": [],
      "payable": false,
      "stateMutability": "nonpayable",
      "type": "function"
    },
    {
      "constant": false,
      "inputs": [
        {
          "internalType": "address",
          "name": "_operator",
          "type": "address"
        },
        {
          "internalType": "address",
          "name": "_from",
          "type": "address"
        },
        {
          "internalType": "uint256",
          "name": "_id",
          "type": "uint256"
        },
        {
          "internalType": "uint256",
          "name": "_value",
          "type": "uint256"
        },
        {
          "internalType": "bytes",
          "name": "_data",
          "type": "bytes"
        }
      ],
      "name": "onERC1155Received",
      "outputs": [
        {
          "internalType": "bytes4",
          "name": "",
          "type": "bytes4"
        }
      ],
      "payable": false,
      "stateMutability": "nonpayable",
      "type": "function"
    },
    {
      "constant": false,
      "inputs": [
        {
          "internalType": "address",
          "name": "_operator",
          "type": "address"
        },
        {
          "internalType": "address",
          "name": "_from",
          "type": "address"
        },
        {
          "internalType": "uint256[]",
          "name": "_ids",
          "type": "uint256[]"
        },
        {
          "internalType": "uint256[]",
          "name": "_values",
          "type": "uint256[]"
        },
        {
          "internalType": "bytes",
          "name": "_data",
          "type": "bytes"
        }
      ],
      "name": "onERC1155BatchReceived",
      "outputs": [
        {
          "internalType": "bytes4",
          "name": "",
          "type": "bytes4"
        }
      ],
      "payable": false,
      "stateMutability": "nonpayable",
      "type": "function"
    },
    {
      "constant": true,
      "inputs": [
        {
          "internalType": "bytes4",
          "name": "_interfaceID",
          "type": "bytes4"
        }
      ],
      "name": "supportsInterface",
      "outputs": [
        {
          "internalType": "bool",
          "name": "",
          "type": "bool"
        }
      ],
      "payable": false,
      "stateMutability": "view",
      "type": "function"
    },
    {
      "constant": false,
      "inputs": [
        {
          "internalType": "address",
          "name": "_sender",
          "type": "address"
        },
        {
          "internalType": "address",
          "name": "_origin",
          "type": "address"
        },
        {
          "internalType": "uint256",
          "name": "_value",
          "type": "uint256"
        },
        {
          "internalType": "bytes",
          "name": "_data",
          "type": "bytes"
        }
      ],
      "name": "tokenFallback",
      "outputs": [
        {
          "internalType": "bool",
          "name": "",
          "type": "bool"
        }
      ],
      "payable": false,
      "stateMutability": "nonpayable",
      "type": "function"
    },
    {
      "constant": true,
      "inputs": [
        {
          "internalType": "address",
          "name": "token",
          "type": "address"
        }
      ],
      "name": "supportsToken",
      "outputs": [
        {
          "internalType": "bool",
          "name": "",
          "type": "bool"
        }
      ],
      "payable": false,
      "stateMutability": "pure",
      "type": "function"
    }
  ],
  "bytecode": "0x60806040527fffffffffffffffffffffffffffffffffffffffffffffffffffffffffffffffff6005553480156200003557600080fd5b506040516200285238038062002852833981810160405260808110156200005b57600080fd5b810190808051906020019092919080519060200190929190805160405193929190846401000000008211156200009057600080fd5b83820191506020820185811115620000a757600080fd5b8251866001820283011164010000000082111715620000c557600080fd5b8083526020830192505050908051906020019080838360005b83811015620000fb578082015181840152602081019050620000de565b50505050905090810190601f168015620001295780820380516001836020036101000a031916815260200191505b506040526020018051906020019092919050505083600360006101000a81548173ffffffffffffffffffffffffffffffffffffffff021916908373ffffffffffffffffffffffffffffffffffffffff16021790555082600460006101000a81548173ffffffffffffffffffffffffffffffffffffffff021916908373ffffffffffffffffffffffffffffffffffffffff16021790555081600e9080519060200190620001d792919062000491565b5033600260006101000a81548173ffffffffffffffffffffffffffffffffffffffff021916908373ffffffffffffffffffffffffffffffffffffffff160217905550806000806101000a81548173ffffffffffffffffffffffffffffffffffffffff021916908373ffffffffffffffffffffffffffffffffffffffff1602179055508273ffffffffffffffffffffffffffffffffffffffff16639f181b5e6040518163ffffffff1660e01b815260040160206040518083038186803b158015620002a057600080fd5b505afa158015620002b5573d6000803e3d6000fd5b505050506040513d6020811015620002cc57600080fd5b8101908080519060200190929190505050600f819055508273ffffffffffffffffffffffffffffffffffffffff1663a0712d68600f546040518263ffffffff1660e01b815260040180828152602001915050600060405180830381600087803b1580156200033957600080fd5b505af11580156200034e573d6000803e3d6000fd5b5050505062000363816200036d60201b60201c565b5050505062000540565b600360009054906101000a900473ffffffffffffffffffffffffffffffffffffffff1673ffffffffffffffffffffffffffffffffffffffff1663a7068d6630836005546040518463ffffffff1660e01b8152600401808473ffffffffffffffffffffffffffffffffffffffff1673ffffffffffffffffffffffffffffffffffffffff168152602001807f73696741757468000000000000000000000000000000000000000000000000008152506020018373ffffffffffffffffffffffffffffffffffffffff1673ffffffffffffffffffffffffffffffffffffffff1681526020018281526020019350505050600060405180830381600087803b1580156200047557600080fd5b505af11580156200048a573d6000803e3d6000fd5b5050505050565b828054600181600116156101000203166002900490600052602060002090601f016020900481019282601f10620004d457805160ff191683800117855562000505565b8280016001018555821562000505579182015b8281111562000504578251825591602001919060010190620004e7565b5b50905062000514919062000518565b5090565b6200053d91905b80821115620005395760008160009055506001016200051f565b5090565b90565b61230280620005506000396000f3fe60806040526004361061011f5760003560e01c80638da5cb5b116100a0578063d56022d711610064578063d56022d714610a81578063e71bdf4114610ad8578063eac989f814610b29578063f23a6e6114610bb9578063fa352c0014610ce55761011f565b80638da5cb5b146106e1578063a6f9dae114610738578063ad9ec05d14610789578063bbc01857146107da578063bc197c81146108bf5761011f565b80634c123019116100e75780634c123019146103b4578063513856c8146104de578063570b3c6a14610559578063673448dd1461062157806384eb68fb1461068a5761011f565b806301ffc9a71461012157806302d05d3f14610193578063061f7650146101ea5780630eb930ab146102535780632c39952a146102a4575b005b34801561012d57600080fd5b506101796004803603602081101561014457600080fd5b8101908080357bffffffffffffffffffffffffffffffffffffffffffffffffffffffff19169060200190929190505050610d36565b604051808215151515815260200191505060405180910390f35b34801561019f57600080fd5b506101a8610de7565b604051808273ffffffffffffffffffffffffffffffffffffffff1673ffffffffffffffffffffffffffffffffffffffff16815260200191505060405180910390f35b3480156101f657600080fd5b506102396004803603602081101561020d57600080fd5b81019080803573ffffffffffffffffffffffffffffffffffffffff169060200190929190505050610e0d565b604051808215151515815260200191505060405180910390f35b34801561025f57600080fd5b506102a26004803603602081101561027657600080fd5b81019080803573ffffffffffffffffffffffffffffffffffffffff169060200190929190505050610e18565b005b6103b2600480360360e08110156102ba57600080fd5b81019080803590602001906401000000008111156102d757600080fd5b8201836020820111156102e957600080fd5b8035906020019184600183028401116401000000008311171561030b57600080fd5b91908080601f016020809104026020016040519081016040528093929190818152602001838380828437600081840152601f19601f820116905080830192505050505050509192919290803573ffffffffffffffffffffffffffffffffffffffff169060200190929190803560ff16906020019092919080359060200190929190803590602001909291908035906020019092919080359060200190929190505050611032565b005b3480156103c057600080fd5b506104c4600480360360808110156103d757600080fd5b81019080803573ffffffffffffffffffffffffffffffffffffffff169060200190929190803573ffffffffffffffffffffffffffffffffffffffff169060200190929190803590602001909291908035906020019064010000000081111561043e57600080fd5b82018360208201111561045057600080fd5b8035906020019184600183028401116401000000008311171561047257600080fd5b91908080601f016020809104026020016040519081016040528093929190818152602001838380828437600081840152601f19601f8201169050808301925050505050505091929192905050506113b8565b604051808215151515815260200191505060405180910390f35b3480156104ea57600080fd5b506105176004803603602081101561050157600080fd5b81019080803590602001909291905050506115a5565b604051808273ffffffffffffffffffffffffffffffffffffffff1673ffffffffffffffffffffffffffffffffffffffff16815260200191505060405180910390f35b34801561056557600080fd5b5061061f6004803603602081101561057c57600080fd5b810190808035906020019064010000000081111561059957600080fd5b8201836020820111156105ab57600080fd5b803590602001918460018302840111640100000000831117156105cd57600080fd5b91908080601f016020809104026020016040519081016040528093929190818152602001838380828437600081840152601f19601f8201169050808301925050505050505091929192905050506115e1565b005b34801561062d57600080fd5b506106706004803603602081101561064457600080fd5b81019080803573ffffffffffffffffffffffffffffffffffffffff1690602001909291905050506116e0565b604051808215151515815260200191505060405180910390f35b34801561069657600080fd5b5061069f611700565b604051808273ffffffffffffffffffffffffffffffffffffffff1673ffffffffffffffffffffffffffffffffffffffff16815260200191505060405180910390f35b3480156106ed57600080fd5b506106f6611726565b604051808273ffffffffffffffffffffffffffffffffffffffff1673ffffffffffffffffffffffffffffffffffffffff16815260200191505060405180910390f35b34801561074457600080fd5b506107876004803603602081101561075b57600080fd5b81019080803573ffffffffffffffffffffffffffffffffffffffff16906020019092919050505061174b565b005b34801561079557600080fd5b506107d8600480360360208110156107ac57600080fd5b81019080803573ffffffffffffffffffffffffffffffffffffffff169060200190929190505050611887565b005b6108bd600480360360608110156107f057600080fd5b810190808035906020019064010000000081111561080d57600080fd5b82018360208201111561081f57600080fd5b8035906020019184600183028401116401000000008311171561084157600080fd5b91908080601f016020809104026020016040519081016040528093929190818152602001838380828437600081840152601f19601f820116905080830192505050505050509192919290803573ffffffffffffffffffffffffffffffffffffffff16906020019092919080359060200190929190505050611aa1565b005b3480156108cb57600080fd5b50610a2d600480360360a08110156108e257600080fd5b81019080803573ffffffffffffffffffffffffffffffffffffffff169060200190929190803573ffffffffffffffffffffffffffffffffffffffff1690602001909291908035906020019064010000000081111561093f57600080fd5b82018360208201111561095157600080fd5b8035906020019184602083028401116401000000008311171561097357600080fd5b90919293919293908035906020019064010000000081111561099457600080fd5b8201836020820111156109a657600080fd5b803590602001918460208302840111640100000000831117156109c857600080fd5b9091929391929390803590602001906401000000008111156109e957600080fd5b8201836020820111156109fb57600080fd5b80359060200191846001830284011164010000000083111715610a1d57600080fd5b9091929391929390505050611be5565b60405180827bffffffffffffffffffffffffffffffffffffffffffffffffffffffff19167bffffffffffffffffffffffffffffffffffffffffffffffffffffffff1916815260200191505060405180910390f35b348015610a8d57600080fd5b50610a96611bfd565b604051808273ffffffffffffffffffffffffffffffffffffffff1673ffffffffffffffffffffffffffffffffffffffff16815260200191505060405180910390f35b348015610ae457600080fd5b50610b2760048036036020811015610afb57600080fd5b81019080803573ffffffffffffffffffffffffffffffffffffffff169060200190929190505050611c23565b005b348015610b3557600080fd5b50610b3e611cf1565b6040518080602001828103825283818151815260200191508051906020019080838360005b83811015610b7e578082015181840152602081019050610b63565b50505050905090810190601f168015610bab5780820380516001836020036101000a031916815260200191505b509250505060405180910390f35b348015610bc557600080fd5b50610c91600480360360a0811015610bdc57600080fd5b81019080803573ffffffffffffffffffffffffffffffffffffffff169060200190929190803573ffffffffffffffffffffffffffffffffffffffff169060200190929190803590602001909291908035906020019092919080359060200190640100000000811115610c4d57600080fd5b820183602082011115610c5f57600080fd5b80359060200191846001830284011164010000000083111715610c8157600080fd5b9091929391929390505050611e66565b60405180827bffffffffffffffffffffffffffffffffffffffffffffffffffffffff19167bffffffffffffffffffffffffffffffffffffffffffffffffffffffff1916815260200191505060405180910390f35b348015610cf157600080fd5b50610d3460048036036020811015610d0857600080fd5b81019080803573ffffffffffffffffffffffffffffffffffffffff169060200190929190505050611e7c565b005b60006301ffc9a760e01b7bffffffffffffffffffffffffffffffffffffffffffffffffffffffff1916827bffffffffffffffffffffffffffffffffffffffffffffffffffffffff19161480610dcf5750634e2312e060e01b7bffffffffffffffffffffffffffffffffffffffffffffffffffffffff1916827bffffffffffffffffffffffffffffffffffffffffffffffffffffffff1916145b15610ddd5760019050610de2565b600090505b919050565b600260009054906101000a900473ffffffffffffffffffffffffffffffffffffffff1681565b600060019050919050565b6000809054906101000a900473ffffffffffffffffffffffffffffffffffffffff1673ffffffffffffffffffffffffffffffffffffffff163373ffffffffffffffffffffffffffffffffffffffff161480610ebc5750601060003373ffffffffffffffffffffffffffffffffffffffff1673ffffffffffffffffffffffffffffffffffffffff16815260200190815260200160002060009054906101000a900460ff165b610f11576040517f08c379a000000000000000000000000000000000000000000000000000000000815260040180806020018281038252603381526020018061229b6033913960400191505060405180910390fd5b6001601060008373ffffffffffffffffffffffffffffffffffffffff1673ffffffffffffffffffffffffffffffffffffffff16815260200190815260200160002060006101000a81548160ff021916908315150217905550600460009054906101000a900473ffffffffffffffffffffffffffffffffffffffff1673ffffffffffffffffffffffffffffffffffffffff1663a22cb4658260016040518363ffffffff1660e01b8152600401808373ffffffffffffffffffffffffffffffffffffffff1673ffffffffffffffffffffffffffffffffffffffff1681526020018215151515815260200192505050600060405180830381600087803b15801561101757600080fd5b505af115801561102b573d6000803e3d6000fd5b5050505050565b60008787848460405160200180806020018573ffffffffffffffffffffffffffffffffffffffff1673ffffffffffffffffffffffffffffffffffffffff168152602001848152602001838152602001828103825286818151815260200191508051906020019080838360005b838110156110b957808201518184015260208101905061109e565b50505050905090810190601f1680156110e65780820380516001836020036101000a031916815260200191505b5095505050505050604051602081830303815290604052805190602001209050600015156006600083815260200190815260200160002060009054906101000a900460ff16151514611183576040517f08c379a00000000000000000000000000000000000000000000000000000000081526004018080602001828103825260268152602001806122756026913960400191505060405180910390fd5b60016006600083815260200190815260200160002060006101000a81548160ff02191690831515021790555060008160405160200180807f19457468657265756d205369676e6564204d6573736167653a0a333200000000815250601c01828152602001915050604051602081830303815290604052805190602001209050600060018289898960405160008152602001604052604051808581526020018460ff1660ff1681526020018381526020018281526020019450505050506020604051602081039080840390855afa158015611261573d6000803e3d6000fd5b5050506020604051035190506000809054906101000a900473ffffffffffffffffffffffffffffffffffffffff1673ffffffffffffffffffffffffffffffffffffffff168173ffffffffffffffffffffffffffffffffffffffff161461132f576040517f08c379a00000000000000000000000000000000000000000000000000000000081526004018080602001828103825260168152602001807f5369676e6174757265206973206e6f742076616c69640000000000000000000081525060200191505060405180910390fd5b61133a8a8a87612056565b6113ac576040517f08c379a00000000000000000000000000000000000000000000000000000000081526004018080602001828103825260168152602001807f43616e27742073656e64207472616e73616374696f6e0000000000000000000081525060200191505060405180910390fd5b50505050505050505050565b60006113c333610e0d565b6113d0576000905061159d565b6001600d60006101000a81548160ff02191690831515021790555060003073ffffffffffffffffffffffffffffffffffffffff16836040518082805190602001908083835b602083106114385780518252602082019150602081019050602083039250611415565b6001836020036101000a038019825116818451168082178552505050505050905001915050600060405180830381855af49150503d8060008114611498576040519150601f19603f3d011682016040523d82523d6000602084013e61149d565b606091505b505090506000600d60006101000a81548160ff0219169083151502179055507feab9f6c333c4c219217a67230a9af8a2e860061556fa026945860d2c885d60fe8382336040518080602001841515151581526020018373ffffffffffffffffffffffffffffffffffffffff1673ffffffffffffffffffffffffffffffffffffffff168152602001828103825285818151815260200191508051906020019080838360005b8381101561155c578082015181840152602081019050611541565b50505050905090810190601f1680156115895780820380516001836020036101000a031916815260200191505b5094505050505060405180910390a1809150505b949350505050565b600181815481106115b257fe5b906000526020600020016000915054906101000a900473ffffffffffffffffffffffffffffffffffffffff1681565b600460009054906101000a900473ffffffffffffffffffffffffffffffffffffffff1673ffffffffffffffffffffffffffffffffffffffff166305751204600f54836040518363ffffffff1660e01b81526004018083815260200180602001828103825283818151815260200191508051906020019080838360005b8381101561167857808201518184015260208101905061165d565b50505050905090810190601f1680156116a55780820380516001836020036101000a031916815260200191505b509350505050600060405180830381600087803b1580156116c557600080fd5b505af11580156116d9573d6000803e3d6000fd5b5050505050565b60106020528060005260406000206000915054906101000a900460ff1681565b600360009054906101000a900473ffffffffffffffffffffffffffffffffffffffff1681565b6000809054906101000a900473ffffffffffffffffffffffffffffffffffffffff1681565b6000809054906101000a900473ffffffffffffffffffffffffffffffffffffffff1673ffffffffffffffffffffffffffffffffffffffff163373ffffffffffffffffffffffffffffffffffffffff1614806117ef5750601060003373ffffffffffffffffffffffffffffffffffffffff1673ffffffffffffffffffffffffffffffffffffffff16815260200190815260200160002060009054906101000a900460ff165b611844576040517f08c379a000000000000000000000000000000000000000000000000000000000815260040180806020018281038252603381526020018061229b6033913960400191505060405180910390fd5b806000806101000a81548173ffffffffffffffffffffffffffffffffffffffff021916908373ffffffffffffffffffffffffffffffffffffffff16021790555050565b6000809054906101000a900473ffffffffffffffffffffffffffffffffffffffff1673ffffffffffffffffffffffffffffffffffffffff163373ffffffffffffffffffffffffffffffffffffffff16148061192b5750601060003373ffffffffffffffffffffffffffffffffffffffff1673ffffffffffffffffffffffffffffffffffffffff16815260200190815260200160002060009054906101000a900460ff165b611980576040517f08c379a000000000000000000000000000000000000000000000000000000000815260040180806020018281038252603381526020018061229b6033913960400191505060405180910390fd5b6000601060008373ffffffffffffffffffffffffffffffffffffffff1673ffffffffffffffffffffffffffffffffffffffff16815260200190815260200160002060006101000a81548160ff021916908315150217905550600460009054906101000a900473ffffffffffffffffffffffffffffffffffffffff1673ffffffffffffffffffffffffffffffffffffffff1663a22cb4658260006040518363ffffffff1660e01b8152600401808373ffffffffffffffffffffffffffffffffffffffff1673ffffffffffffffffffffffffffffffffffffffff1681526020018215151515815260200192505050600060405180830381600087803b158015611a8657600080fd5b505af1158015611a9a573d6000803e3d6000fd5b5050505050565b6000809054906101000a900473ffffffffffffffffffffffffffffffffffffffff1673ffffffffffffffffffffffffffffffffffffffff163373ffffffffffffffffffffffffffffffffffffffff1614611b63576040517f08c379a00000000000000000000000000000000000000000000000000000000081526004018080602001828103825260128152602001807f4f6e6c79206f776e657220616c6c6f776564000000000000000000000000000081525060200191505060405180910390fd5b611b6e838383612056565b611be0576040517f08c379a00000000000000000000000000000000000000000000000000000000081526004018080602001828103825260168152602001807f43616e27742073656e64207472616e73616374696f6e0000000000000000000081525060200191505060405180910390fd5b505050565b600063bc197c8160e01b905098975050505050505050565b600460009054906101000a900473ffffffffffffffffffffffffffffffffffffffff1681565b6000809054906101000a900473ffffffffffffffffffffffffffffffffffffffff1673ffffffffffffffffffffffffffffffffffffffff163373ffffffffffffffffffffffffffffffffffffffff1614611ce5576040517f08c379a00000000000000000000000000000000000000000000000000000000081526004018080602001828103825260128152602001807f4f6e6c79206f776e657220616c6c6f776564000000000000000000000000000081525060200191505060405180910390fd5b611cee81612152565b50565b6060600460009054906101000a900473ffffffffffffffffffffffffffffffffffffffff1673ffffffffffffffffffffffffffffffffffffffff16630e89341c600f546040518263ffffffff1660e01b81526004018082815260200191505060006040518083038186803b158015611d6857600080fd5b505afa158015611d7c573d6000803e3d6000fd5b505050506040513d6000823e3d601f19601f820116820180604052506020811015611da657600080fd5b8101908080516040519392919084640100000000821115611dc657600080fd5b83820191506020820185811115611ddc57600080fd5b8251866001820283011164010000000082111715611df957600080fd5b8083526020830192505050908051906020019080838360005b83811015611e2d578082015181840152602081019050611e12565b50505050905090810190601f168015611e5a5780820380516001836020036101000a031916815260200191505b50604052505050905090565b600063f23a6e6160e01b90509695505050505050565b6000809054906101000a900473ffffffffffffffffffffffffffffffffffffffff1673ffffffffffffffffffffffffffffffffffffffff163373ffffffffffffffffffffffffffffffffffffffff1614611f3e576040517f08c379a00000000000000000000000000000000000000000000000000000000081526004018080602001828103825260128152602001807f4f6e6c79206f776e657220616c6c6f776564000000000000000000000000000081525060200191505060405180910390fd5b600360009054906101000a900473ffffffffffffffffffffffffffffffffffffffff1673ffffffffffffffffffffffffffffffffffffffff166380b29f7c30836040518363ffffffff1660e01b8152600401808373ffffffffffffffffffffffffffffffffffffffff1673ffffffffffffffffffffffffffffffffffffffff168152602001807f73696741757468000000000000000000000000000000000000000000000000008152506020018273ffffffffffffffffffffffffffffffffffffffff1673ffffffffffffffffffffffffffffffffffffffff16815260200192505050600060405180830381600087803b15801561203b57600080fd5b505af115801561204f573d6000803e3d6000fd5b5050505050565b60006060849050600081519050600080826020850187895af192507f7e4155ee9daec547578a255f7495bc08f38796f4d4a3be4ed7189f4fc55cb18586868660405180806020018473ffffffffffffffffffffffffffffffffffffffff1673ffffffffffffffffffffffffffffffffffffffff168152602001838152602001828103825285818151815260200191508051906020019080838360005b8381101561210d5780820151818401526020810190506120f2565b50505050905090810190601f16801561213a5780820380516001836020036101000a031916815260200191505b5094505050505060405180910390a150509392505050565b600360009054906101000a900473ffffffffffffffffffffffffffffffffffffffff1673ffffffffffffffffffffffffffffffffffffffff1663a7068d6630836005546040518463ffffffff1660e01b8152600401808473ffffffffffffffffffffffffffffffffffffffff1673ffffffffffffffffffffffffffffffffffffffff168152602001807f73696741757468000000000000000000000000000000000000000000000000008152506020018373ffffffffffffffffffffffffffffffffffffffff1673ffffffffffffffffffffffffffffffffffffffff1681526020018281526020019350505050600060405180830381600087803b15801561225957600080fd5b505af115801561226d573d6000803e3d6000fd5b505050505056fe54686973207472616e73616374696f6e2068617320616c7265616479206265656e2073656e7450726f78794964656e746974793a204f6e6c79206f776e6572206f7220617070726f766564206167656e7420616c6c6f776564a265627a7a723158203f39a010ece933f80e582a7039c0238ce280d3734bd1f84c89637a3fb468366364736f6c63430005110032",
  "source": "pragma solidity ^0.5.0;\n\nimport \"multi-token-standard/contracts/interfaces/IERC165.sol\";\nimport \"multi-token-standard/contracts/interfaces/IERC1155.sol\";\nimport \"multi-token-standard/contracts/interfaces/IERC1155TokenReceiver.sol\";\nimport \"./interfaces/IERC223Receiver.sol\";\nimport \"./interfaces/IERC223.sol\";\nimport \"./tokens/ERC1155Multiproxy.sol\";\n\ninterface IERC1056 {\n  function addDelegate(\n    address identity,\n    bytes32 delegateType,\n    address delegate,\n    uint256 validity\n  ) external;\n\n  function revokeDelegate(\n    address identity,\n    bytes32 delegateType,\n    address delegate\n  ) external;\n}\n\ncontract ProxyIdentity is IERC1155TokenReceiver, IERC165, IERC223Receiver {\n  address public owner;\n  address[] public agents;\n  address public creator;\n  address public erc1056;\n  address public erc1155;\n  uint256 defaultValidity = 2**256 - 1;\n  mapping(bytes32 => bool) digests;\n  bytes4 internal constant ERC1155_ACCEPTED = 0xf23a6e61;\n  bytes4 internal constant ERC1155_BATCH_ACCEPTED = 0xbc197c81;\n  Tkn tkn;\n  bool __isTokenFallback;\n  string serial;\n  uint256 id;\n  mapping(address => bool) public isApproved;\n\n  struct Tkn {\n    address addr;\n    address sender;\n    address origin;\n    uint256 value;\n    bytes data;\n    bytes4 sig;\n  }\n\n  event TransactionSent(bytes data, address to, uint256 value);\n  event ApprovedAgentAdded(address agent);\n  event ApprovedAgentRemoved(address agent);\n\n  constructor(\n    address _erc1056,\n    address _erc1155,\n    string memory _serial,\n    address _owner\n  ) public {\n    erc1056 = _erc1056;\n    erc1155 = _erc1155;\n    serial = _serial;\n    creator = msg.sender;\n    owner = _owner;\n    id = ERC1155Multiproxy(_erc1155).tokenCount();\n    ERC1155Multiproxy(_erc1155).mint(id);\n    _addDelegate(_owner);\n  }\n\n  modifier _owner() {\n    require(msg.sender == owner, \"Only owner allowed\");\n    _;\n  }\n\n  modifier isOwnerOrApproved() {\n    require(\n      msg.sender == owner || isApproved[msg.sender],\n      \"ProxyIdentity: Only owner or approved agent allowed\"\n    );\n    _;\n  }\n\n  modifier tokenPayable {\n    if (!__isTokenFallback)\n      revert(\"Method can be invoked only as part of ERC223 transfer\");\n    _;\n  }\n\n  function sendTransaction(\n    bytes memory _data,\n    address to,\n    uint256 value\n  ) public payable _owner() {\n    require(_sendTransaction(_data, to, value), \"Can't send transaction\");\n  }\n\n  function sendSignedTransaction(\n    bytes memory data,\n    address to,\n    uint8 v,\n    bytes32 r,\n    bytes32 s,\n    uint256 value,\n    uint256 nonce\n  ) public payable {\n    bytes32 digest = keccak256(abi.encode(data, to, value, nonce));\n    require(digests[digest] == false, \"This transaction has already been sent\");\n    digests[digest] = true;\n    bytes32 hash = keccak256(\n      abi.encodePacked(\"\\x19Ethereum Signed Message:\\n32\", digest)\n    );\n    address signer = ecrecover(hash, v, r, s);\n    require(\n      signer == owner,\n      \"Signature is not valid\"\n    );\n    require(_sendTransaction(data, to, value), \"Can't send transaction\");\n  }\n\n  function addDelegate(address delegate) public _owner() {\n    _addDelegate(delegate);\n  }\n\n  function revokeDelegate(address delegate) public _owner() {\n    IERC1056(erc1056).revokeDelegate(address(this), \"sigAuth\", delegate);\n  }\n\n  function changeOwner(address newOwner) public isOwnerOrApproved {\n    owner = newOwner;\n  }\n\n  function addApprovedAgent(address agent) public isOwnerOrApproved {\n    isApproved[agent] = true;\n    ERC1155Multiproxy(erc1155).setApprovalForAll(agent, true);\n  }\n\n  function removeApprovedAgent(address agent) public isOwnerOrApproved {\n    isApproved[agent] = false;\n    ERC1155Multiproxy(erc1155).setApprovalForAll(agent, false);\n  }\n\n  function uri() public view returns (string memory) {\n    return ERC1155Multiproxy(erc1155).uri(id);\n  }\n\n  function updateUri(string memory uri) public {\n    ERC1155Multiproxy(erc1155).updateUri(id, uri);\n  }\n\n  function onERC1155Received(\n    address _operator,\n    address _from,\n    uint256 _id,\n    uint256 _value,\n    bytes calldata _data\n  ) external returns (bytes4) {\n    return ERC1155_ACCEPTED;\n  }\n\n  function onERC1155BatchReceived(\n    address _operator,\n    address _from,\n    uint256[] calldata _ids,\n    uint256[] calldata _values,\n    bytes calldata _data\n  ) external returns (bytes4) {\n    return ERC1155_BATCH_ACCEPTED;\n  }\n\n  function _sendTransaction(\n    bytes memory _data,\n    address to,\n    uint256 value\n  ) internal returns (bool success) {\n    bytes memory data = _data;\n    uint256 len = data.length;\n    // solium-disable-next-line security/no-inline-assembly\n    assembly {\n      success := call(gas, to, value, add(data, 0x20), len, 0, 0)\n    }\n    emit TransactionSent(_data, to, value);\n  }\n\n  function _addDelegate(address delegate) internal {\n    IERC1056(erc1056).addDelegate(\n      address(this),\n      \"sigAuth\",\n      delegate,\n      defaultValidity\n    );\n  }\n\n  /**\n   * INTERFACE_SIGNATURE_ERC165 = bytes4(keccak256(\"supportsInterface(bytes4)\"));\n   */\n  bytes4 private constant INTERFACE_SIGNATURE_ERC165 = 0x01ffc9a7;\n\n  /**\n   * bytes4(keccak256(\"onERC1155Received(address,address,uint256,uint256,bytes)\"))^bytes4(keccak256(\"onERC1155BatchReceived(address,address,uint256[],uint256[],bytes)\"))\n   */\n  bytes4 private constant INTERFACE_SIGNATURE_ERC1155TOKENRECEIVER = 0x4e2312e0;\n\n  /**\n   * @notice Query if a contract implements an interface\n   * @param _interfaceID  The interface identifier, as specified in ERC-165\n   * @return `true` if the contract implements `_interfaceID` and\n   */\n  function supportsInterface(bytes4 _interfaceID) external view returns (bool) {\n    if (\n      _interfaceID == INTERFACE_SIGNATURE_ERC165 ||\n      _interfaceID == INTERFACE_SIGNATURE_ERC1155TOKENRECEIVER\n    ) {\n      return true;\n    }\n    return false;\n  }\n\n  event CallbackOnTransfer(bytes data, bool success, address sender);\n\n  function tokenFallback(\n    address _sender,\n    address _origin,\n    uint256 _value,\n    bytes memory _data\n  ) public returns (bool) {\n    if (!supportsToken(msg.sender)) return false;\n    __isTokenFallback = true;\n    // solium-disable-next-line security/no-low-level-calls\n    (bool success, ) = address(this).delegatecall(_data);\n    __isTokenFallback = false;\n    emit CallbackOnTransfer(_data, success, msg.sender);\n    return success;\n  }\n\n  function getSig(bytes memory _data) private pure returns (bytes4 sig) {\n    uint256 l = _data.length < 4 ? _data.length : 4;\n    for (uint256 i = 0; i < l; i++) {\n      sig = bytes4(\n        uint32(uint32(sig) + uint8(_data[i]) * (2**(8 * (l - 1 - i))))\n      );\n    }\n  }\n\n  function supportsToken(address token) public pure returns (bool) {\n    return true;\n  }\n\n  function() external payable {}\n}\n",
  "sourcePath": "/home/dima/Development/ew-did-registry/packages/proxyIdentity/contracts/proxyIdentity.sol",
  "compiler": {
    "name": "solc",
    "version": "0.5.17+commit.d19bba13.Emscripten.clang"
  },
  "schemaVersion": "3.0.16",
  "updatedAt": "2020-10-24T16:02:24.752Z",
  "devdoc": {
    "methods": {
      "supportsInterface(bytes4)": {
        "params": {
          "_interfaceID": "The interface identifier, as specified in ERC-165"
        },
        "return": "`true` if the contract implements `_interfaceID` and"
      }
    }
  },
  "userdoc": {
    "methods": {
      "supportsInterface(bytes4)": {
        "notice": "Query if a contract implements an interface"
      }
    }
  }
}