{
  "contractName": "ProxyIdentity",
  "abi": [
    {
      "constant": true,
      "inputs": [],
      "name": "creator",
      "outputs": [
        {
          "name": "",
          "type": "address"
        }
      ],
      "payable": false,
      "stateMutability": "view",
      "type": "function"
    },
    {
      "constant": true,
      "inputs": [],
      "name": "owner",
      "outputs": [
        {
          "name": "",
          "type": "address"
        }
      ],
      "payable": false,
      "stateMutability": "view",
      "type": "function"
    },
    {
      "inputs": [
        {
          "name": "_erc1056",
          "type": "address"
        }
      ],
      "payable": true,
      "stateMutability": "payable",
      "type": "constructor"
    },
    {
      "payable": true,
      "stateMutability": "payable",
      "type": "fallback"
    },
    {
      "anonymous": false,
      "inputs": [
        {
          "indexed": false,
          "name": "data",
          "type": "bytes"
        },
        {
          "indexed": false,
          "name": "to",
          "type": "address"
        },
        {
          "indexed": false,
          "name": "value",
          "type": "uint256"
        }
      ],
      "name": "TransactionSent",
      "type": "event"
    },
    {
      "anonymous": false,
      "inputs": [
        {
          "indexed": false,
          "name": "identity",
          "type": "address"
        },
        {
          "indexed": false,
          "name": "prev",
          "type": "address"
        },
        {
          "indexed": false,
          "name": "next",
          "type": "address"
        }
      ],
      "name": "OwnerChanged",
      "type": "event"
    },
    {
      "anonymous": false,
      "inputs": [
        {
          "indexed": false,
          "name": "agent",
          "type": "address"
        }
      ],
      "name": "RecoveryAgentAdded",
      "type": "event"
    },
    {
      "anonymous": false,
      "inputs": [
        {
          "indexed": false,
          "name": "agent",
          "type": "address"
        }
      ],
      "name": "RecoveryAgentRemoved",
      "type": "event"
    },
    {
      "constant": false,
      "inputs": [
        {
          "name": "_data",
          "type": "bytes"
        },
        {
          "name": "to",
          "type": "address"
        },
        {
          "name": "value",
          "type": "uint256"
        }
      ],
      "name": "sendTransaction",
      "outputs": [],
      "payable": true,
      "stateMutability": "payable",
      "type": "function"
    },
    {
      "constant": false,
      "inputs": [
        {
          "name": "data",
          "type": "bytes"
        },
        {
          "name": "to",
          "type": "address"
        },
        {
          "name": "v",
          "type": "uint8"
        },
        {
          "name": "r",
          "type": "bytes32"
        },
        {
          "name": "s",
          "type": "bytes32"
        },
        {
          "name": "value",
          "type": "uint256"
        },
        {
          "name": "nonce",
          "type": "uint256"
        }
      ],
      "name": "sendSignedTransaction",
      "outputs": [],
      "payable": true,
      "stateMutability": "payable",
      "type": "function"
    },
    {
      "constant": false,
      "inputs": [
        {
          "name": "agent",
          "type": "address"
        }
      ],
      "name": "addRecoveryAgent",
      "outputs": [],
      "payable": false,
      "stateMutability": "nonpayable",
      "type": "function"
    },
    {
      "constant": false,
      "inputs": [
        {
          "name": "agent",
          "type": "address"
        }
      ],
      "name": "removeRecoveryAgent",
      "outputs": [],
      "payable": false,
      "stateMutability": "nonpayable",
      "type": "function"
    },
    {
      "constant": false,
      "inputs": [
        {
          "name": "newOwner",
          "type": "address"
        }
      ],
      "name": "changeOwner",
      "outputs": [],
      "payable": false,
      "stateMutability": "nonpayable",
      "type": "function"
    }
  ],
  "bytecode": "0x60806040527fffffffffffffffffffffffffffffffffffffffffffffffffffffffffffffffff600455600060065560405160208062001b3c833981018060405260208110156200004e57600080fd5b810190808051906020019092919050505080600260006101000a81548173ffffffffffffffffffffffffffffffffffffffff021916908373ffffffffffffffffffffffffffffffffffffffff160217905550336000806101000a81548173ffffffffffffffffffffffffffffffffffffffff021916908373ffffffffffffffffffffffffffffffffffffffff160217905550620000fa3362000101640100000000026401000000009004565b50620007d2565b6000600160009054906101000a900473ffffffffffffffffffffffffffffffffffffffff169050600073ffffffffffffffffffffffffffffffffffffffff16600160009054906101000a900473ffffffffffffffffffffffffffffffffffffffff1673ffffffffffffffffffffffffffffffffffffffff1614620001f857620001bb600160009054906101000a900473ffffffffffffffffffffffffffffffffffffffff166200033c640100000000026401000000009004565b620001f7600160009054906101000a900473ffffffffffffffffffffffffffffffffffffffff166200049e640100000000026401000000009004565b5b81600160006101000a81548173ffffffffffffffffffffffffffffffffffffffff021916908373ffffffffffffffffffffffffffffffffffffffff1602179055506200025382620005d4640100000000026401000000009004565b6200026d8262000692640100000000026401000000009004565b7f381c0d11398486654573703c51ee8210ce9461764d133f9f0e53b6a539705331308284604051808473ffffffffffffffffffffffffffffffffffffffff1673ffffffffffffffffffffffffffffffffffffffff1681526020018373ffffffffffffffffffffffffffffffffffffffff1673ffffffffffffffffffffffffffffffffffffffff1681526020018273ffffffffffffffffffffffffffffffffffffffff1673ffffffffffffffffffffffffffffffffffffffff168152602001935050505060405180910390a15050565b600360003373ffffffffffffffffffffffffffffffffffffffff1673ffffffffffffffffffffffffffffffffffffffff16815260200190815260200160002060009054906101000a900460ff16620003e0576040517f08c379a000000000000000000000000000000000000000000000000000000000815260040180806020018281038252602881526020018062001b146028913960400191505060405180910390fd5b6000600360008373ffffffffffffffffffffffffffffffffffffffff1673ffffffffffffffffffffffffffffffffffffffff16815260200190815260200160002060006101000a81548160ff0219169083151502179055507f093e9dd739d1f91d7e97be3e57001ee88d407f8e8870d3a7762c9be45a8f332b81604051808273ffffffffffffffffffffffffffffffffffffffff1673ffffffffffffffffffffffffffffffffffffffff16815260200191505060405180910390a150565b600260009054906101000a900473ffffffffffffffffffffffffffffffffffffffff1673ffffffffffffffffffffffffffffffffffffffff166380b29f7c30836040518363ffffffff167c0100000000000000000000000000000000000000000000000000000000028152600401808373ffffffffffffffffffffffffffffffffffffffff1673ffffffffffffffffffffffffffffffffffffffff168152602001807f73696741757468000000000000000000000000000000000000000000000000008152506020018273ffffffffffffffffffffffffffffffffffffffff1673ffffffffffffffffffffffffffffffffffffffff16815260200192505050600060405180830381600087803b158015620005b857600080fd5b505af1158015620005cd573d6000803e3d6000fd5b5050505050565b6001600360008373ffffffffffffffffffffffffffffffffffffffff1673ffffffffffffffffffffffffffffffffffffffff16815260200190815260200160002060006101000a81548160ff0219169083151502179055507f1f7c2db6dd3d6d717291d1194e259472b27b4107ed6368b58b18bb9c2f2d954581604051808273ffffffffffffffffffffffffffffffffffffffff1673ffffffffffffffffffffffffffffffffffffffff16815260200191505060405180910390a150565b600260009054906101000a900473ffffffffffffffffffffffffffffffffffffffff1673ffffffffffffffffffffffffffffffffffffffff1663a7068d6630836004546040518463ffffffff167c0100000000000000000000000000000000000000000000000000000000028152600401808473ffffffffffffffffffffffffffffffffffffffff1673ffffffffffffffffffffffffffffffffffffffff168152602001807f73696741757468000000000000000000000000000000000000000000000000008152506020018373ffffffffffffffffffffffffffffffffffffffff1673ffffffffffffffffffffffffffffffffffffffff1681526020018281526020019350505050600060405180830381600087803b158015620007b657600080fd5b505af1158015620007cb573d6000803e3d6000fd5b5050505050565b61133280620007e26000396000f3fe60806040526004361061008d576000357c0100000000000000000000000000000000000000000000000000000000900480638da5cb5b1161006b5780638da5cb5b14610247578063a6f9dae11461029e578063bbc01857146102ef578063c8777b50146103d45761008d565b806302d05d3f1461008f5780632c39952a146100e65780637489453d146101f6575b005b34801561009b57600080fd5b506100a4610425565b604051808273ffffffffffffffffffffffffffffffffffffffff1673ffffffffffffffffffffffffffffffffffffffff16815260200191505060405180910390f35b6101f4600480360360e08110156100fc57600080fd5b810190808035906020019064010000000081111561011957600080fd5b82018360208201111561012b57600080fd5b8035906020019184600183028401116401000000008311171561014d57600080fd5b91908080601f016020809104026020016040519081016040528093929190818152602001838380828437600081840152601f19601f820116905080830192505050505050509192919290803573ffffffffffffffffffffffffffffffffffffffff169060200190929190803560ff1690602001909291908035906020019092919080359060200190929190803590602001909291908035906020019092919050505061044a565b005b34801561020257600080fd5b506102456004803603602081101561021957600080fd5b81019080803573ffffffffffffffffffffffffffffffffffffffff16906020019092919050505061084f565b005b34801561025357600080fd5b5061025c61091e565b604051808273ffffffffffffffffffffffffffffffffffffffff1673ffffffffffffffffffffffffffffffffffffffff16815260200191505060405180910390f35b3480156102aa57600080fd5b506102ed600480360360208110156102c157600080fd5b81019080803573ffffffffffffffffffffffffffffffffffffffff169060200190929190505050610944565b005b6103d26004803603606081101561030557600080fd5b810190808035906020019064010000000081111561032257600080fd5b82018360208201111561033457600080fd5b8035906020019184600183028401116401000000008311171561035657600080fd5b91908080601f016020809104026020016040519081016040528093929190818152602001838380828437600081840152601f19601f820116905080830192505050505050509192919290803573ffffffffffffffffffffffffffffffffffffffff169060200190929190803590602001909291905050506109f2565b005b3480156103e057600080fd5b50610423600480360360208110156103f757600080fd5b81019080803573ffffffffffffffffffffffffffffffffffffffff169060200190929190505050610b37565b005b6000809054906101000a900473ffffffffffffffffffffffffffffffffffffffff1681565b60008787848460405160200180806020018573ffffffffffffffffffffffffffffffffffffffff1673ffffffffffffffffffffffffffffffffffffffff168152602001848152602001838152602001828103825286818151815260200191508051906020019080838360005b838110156104d15780820151818401526020810190506104b6565b50505050905090810190601f1680156104fe5780820380516001836020036101000a031916815260200191505b5095505050505050604051602081830303815290604052805190602001209050600015156005600083815260200190815260200160002060009054906101000a900460ff1615151461059b576040517f08c379a00000000000000000000000000000000000000000000000000000000081526004018080602001828103825260258152602001806112ba6025913960400191505060405180910390fd5b6006548211610612576040517f08c379a000000000000000000000000000000000000000000000000000000000815260040180806020018281038252600f8152602001807f496e636f7272656374206e6f6e6365000000000000000000000000000000000081525060200191505060405180910390fd5b60016005600083815260200190815260200160002060006101000a81548160ff0219169083151502179055508160068190555060008160405160200180807f19457468657265756d205369676e6564204d6573736167653a0a333200000000815250601c01828152602001915050604051602081830303815290604052805190602001209050600060018289898960405160008152602001604052604051808581526020018460ff1660ff1681526020018381526020018281526020019450505050506020604051602081039080840390855afa1580156106f7573d6000803e3d6000fd5b5050506020604051035190508073ffffffffffffffffffffffffffffffffffffffff16600160009054906101000a900473ffffffffffffffffffffffffffffffffffffffff1673ffffffffffffffffffffffffffffffffffffffff16146107c6576040517f08c379a00000000000000000000000000000000000000000000000000000000081526004018080602001828103825260168152602001807f5369676e6174757265206973206e6f742076616c69640000000000000000000081525060200191505060405180910390fd5b6107d18a8a87610c97565b610843576040517f08c379a00000000000000000000000000000000000000000000000000000000081526004018080602001828103825260168152602001807f43616e27742073656e64207472616e73616374696f6e0000000000000000000081525060200191505060405180910390fd5b50505050505050505050565b600160009054906101000a900473ffffffffffffffffffffffffffffffffffffffff1673ffffffffffffffffffffffffffffffffffffffff163373ffffffffffffffffffffffffffffffffffffffff1614610912576040517f08c379a00000000000000000000000000000000000000000000000000000000081526004018080602001828103825260128152602001807f4f6e6c79206f776e657220616c6c6f776564000000000000000000000000000081525060200191505060405180910390fd5b61091b81610d93565b50565b600160009054906101000a900473ffffffffffffffffffffffffffffffffffffffff1681565b600360003373ffffffffffffffffffffffffffffffffffffffff1673ffffffffffffffffffffffffffffffffffffffff16815260200190815260200160002060009054906101000a900460ff166109e6576040517f08c379a00000000000000000000000000000000000000000000000000000000081526004018080602001828103825260288152602001806112df6028913960400191505060405180910390fd5b6109ef81610e51565b50565b600160009054906101000a900473ffffffffffffffffffffffffffffffffffffffff1673ffffffffffffffffffffffffffffffffffffffff163373ffffffffffffffffffffffffffffffffffffffff1614610ab5576040517f08c379a00000000000000000000000000000000000000000000000000000000081526004018080602001828103825260128152602001807f4f6e6c79206f776e657220616c6c6f776564000000000000000000000000000081525060200191505060405180910390fd5b610ac0838383610c97565b610b32576040517f08c379a00000000000000000000000000000000000000000000000000000000081526004018080602001828103825260168152602001807f43616e27742073656e64207472616e73616374696f6e0000000000000000000081525060200191505060405180910390fd5b505050565b600360003373ffffffffffffffffffffffffffffffffffffffff1673ffffffffffffffffffffffffffffffffffffffff16815260200190815260200160002060009054906101000a900460ff16610bd9576040517f08c379a00000000000000000000000000000000000000000000000000000000081526004018080602001828103825260288152602001806112df6028913960400191505060405180910390fd5b6000600360008373ffffffffffffffffffffffffffffffffffffffff1673ffffffffffffffffffffffffffffffffffffffff16815260200190815260200160002060006101000a81548160ff0219169083151502179055507f093e9dd739d1f91d7e97be3e57001ee88d407f8e8870d3a7762c9be45a8f332b81604051808273ffffffffffffffffffffffffffffffffffffffff1673ffffffffffffffffffffffffffffffffffffffff16815260200191505060405180910390a150565b60006060849050600081519050600080826020850187895af192507f7e4155ee9daec547578a255f7495bc08f38796f4d4a3be4ed7189f4fc55cb18586868660405180806020018473ffffffffffffffffffffffffffffffffffffffff1673ffffffffffffffffffffffffffffffffffffffff168152602001838152602001828103825285818151815260200191508051906020019080838360005b83811015610d4e578082015181840152602081019050610d33565b50505050905090810190601f168015610d7b5780820380516001836020036101000a031916815260200191505b5094505050505060405180910390a150509392505050565b6001600360008373ffffffffffffffffffffffffffffffffffffffff1673ffffffffffffffffffffffffffffffffffffffff16815260200190815260200160002060006101000a81548160ff0219169083151502179055507f1f7c2db6dd3d6d717291d1194e259472b27b4107ed6368b58b18bb9c2f2d954581604051808273ffffffffffffffffffffffffffffffffffffffff1673ffffffffffffffffffffffffffffffffffffffff16815260200191505060405180910390a150565b6000600160009054906101000a900473ffffffffffffffffffffffffffffffffffffffff169050600073ffffffffffffffffffffffffffffffffffffffff16600160009054906101000a900473ffffffffffffffffffffffffffffffffffffffff1673ffffffffffffffffffffffffffffffffffffffff1614610f2557610ef9600160009054906101000a900473ffffffffffffffffffffffffffffffffffffffff16610b37565b610f24600160009054906101000a900473ffffffffffffffffffffffffffffffffffffffff16611047565b5b81600160006101000a81548173ffffffffffffffffffffffffffffffffffffffff021916908373ffffffffffffffffffffffffffffffffffffffff160217905550610f6f82610d93565b610f788261117b565b7f381c0d11398486654573703c51ee8210ce9461764d133f9f0e53b6a539705331308284604051808473ffffffffffffffffffffffffffffffffffffffff1673ffffffffffffffffffffffffffffffffffffffff1681526020018373ffffffffffffffffffffffffffffffffffffffff1673ffffffffffffffffffffffffffffffffffffffff1681526020018273ffffffffffffffffffffffffffffffffffffffff1673ffffffffffffffffffffffffffffffffffffffff168152602001935050505060405180910390a15050565b600260009054906101000a900473ffffffffffffffffffffffffffffffffffffffff1673ffffffffffffffffffffffffffffffffffffffff166380b29f7c30836040518363ffffffff167c0100000000000000000000000000000000000000000000000000000000028152600401808373ffffffffffffffffffffffffffffffffffffffff1673ffffffffffffffffffffffffffffffffffffffff168152602001807f73696741757468000000000000000000000000000000000000000000000000008152506020018273ffffffffffffffffffffffffffffffffffffffff1673ffffffffffffffffffffffffffffffffffffffff16815260200192505050600060405180830381600087803b15801561116057600080fd5b505af1158015611174573d6000803e3d6000fd5b5050505050565b600260009054906101000a900473ffffffffffffffffffffffffffffffffffffffff1673ffffffffffffffffffffffffffffffffffffffff1663a7068d6630836004546040518463ffffffff167c0100000000000000000000000000000000000000000000000000000000028152600401808473ffffffffffffffffffffffffffffffffffffffff1673ffffffffffffffffffffffffffffffffffffffff168152602001807f73696741757468000000000000000000000000000000000000000000000000008152506020018373ffffffffffffffffffffffffffffffffffffffff1673ffffffffffffffffffffffffffffffffffffffff1681526020018281526020019350505050600060405180830381600087803b15801561129e57600080fd5b505af11580156112b2573d6000803e3d6000fd5b505050505056fe54686973207472616e736374696f6e2068617320616c7265616479206265656e2073656e744f6e6c79207265636f76657279206167656e742063616e206368616e676520746865206f776e6572a165627a7a72305820122720395482c717ebf500595dd4173d249db14638c31490028ef4ad0a875a1e00294f6e6c79207265636f76657279206167656e742063616e206368616e676520746865206f776e6572",
  "source": "pragma solidity 0.5.8;\n\ninterface IERC1056 {\n    function addDelegate(\n        address identity,\n        bytes32 delegateType,\n        address delegate,\n        uint256 validity\n    ) external;\n\n    function revokeDelegate(\n        address identity,\n        bytes32 delegateType,\n        address delegate\n    ) external;\n}\n\ncontract ProxyIdentity {\n    address public creator;\n    address public owner;\n    address erc1056;\n    mapping(address => bool) recoveryAgents;\n    uint256 defaultValidity = 2**256 - 1;\n    mapping(bytes32 => bool) digests;\n    uint256 prevNonce = 0;\n\n    event TransactionSent(bytes data, address to, uint256 value);\n    event OwnerChanged(address identity, address prev, address next);\n    event RecoveryAgentAdded(address agent);\n    event RecoveryAgentRemoved(address agent);\n\n    constructor(address _erc1056) public payable {\n        erc1056 = _erc1056;\n        creator = msg.sender;\n        _changeOwner(msg.sender);\n    }\n\n    modifier _owner() {\n        require(msg.sender == owner, \"Only owner allowed\");\n        _;\n    }\n\n    modifier _recoveryAgent() {\n        require(\n            recoveryAgents[msg.sender],\n            \"Only recovery agent can change the owner\"\n        );\n        _;\n    }\n\n    function sendTransaction(bytes memory _data, address to, uint256 value)\n        public\n        payable\n        _owner\n    {\n        require(_sendTransaction(_data, to, value), \"Can't send transaction\");\n    }\n\n    function _sendTransaction(bytes memory _data, address to, uint256 value)\n        internal\n        returns (bool success)\n    {\n        bytes memory data = _data;\n        uint256 len = data.length;\n        // solium-disable-next-line security/no-inline-assembly\n        assembly {\n            success := call(gas, to, value, add(data, 0x20), len, 0, 0)\n        }\n        emit TransactionSent(_data, to, value);\n    }\n\n    function sendSignedTransaction(\n        bytes memory data,\n        address to,\n        uint8 v,\n        bytes32 r,\n        bytes32 s,\n        uint256 value,\n        uint256 nonce\n    ) public payable {\n        bytes32 digest = keccak256(abi.encode(data, to, value, nonce));\n        require(\n            digests[digest] == false,\n            \"This transction has already been sent\"\n        );\n        require(nonce > prevNonce, \"Incorrect nonce\");\n        digests[digest] = true;\n        prevNonce = nonce;\n        bytes32 hash = keccak256(\n            abi.encodePacked(\"\\x19Ethereum Signed Message:\\n32\", digest)\n        );\n        address signer = ecrecover(hash, v, r, s);\n        require(owner == signer, \"Signature is not valid\");\n        require(_sendTransaction(data, to, value), \"Can't send transaction\");\n    }\n\n    function addRecoveryAgent(address agent) public _owner {\n        _addRecoveryAgent(agent);\n    }\n\n    function _addRecoveryAgent(address agent) internal {\n        recoveryAgents[agent] = true;\n        emit RecoveryAgentAdded(agent);\n    }\n\n    function removeRecoveryAgent(address agent) public _recoveryAgent {\n        recoveryAgents[agent] = false;\n        emit RecoveryAgentRemoved(agent);\n    }\n\n    /**\n    * Used by the proxy factory to make sender the owner\n     */\n    function changeOwner(address newOwner) public _recoveryAgent {\n        _changeOwner(newOwner);\n    }\n\n    function _changeOwner(address newOwner) internal {\n        address oldOwner = owner;\n        if (owner != address(0x0)) {\n            removeRecoveryAgent(owner);\n            _revokeDelegate(owner);\n        }\n        owner = newOwner;\n        _addRecoveryAgent(newOwner);\n        _addDelegate(newOwner);\n        emit OwnerChanged(address(this), oldOwner, newOwner);\n    }\n\n    function _addDelegate(address delegate) internal {\n        IERC1056(erc1056).addDelegate(\n            address(this),\n            \"sigAuth\",\n            delegate,\n            defaultValidity\n        );\n    }\n\n    function _revokeDelegate(address delegate) internal {\n        IERC1056(erc1056).revokeDelegate(address(this), \"sigAuth\", delegate);\n    }\n\n    function() external payable {}\n}\n",
  "sourcePath": "/home/dima/Development/ew-did-registry/packages/proxyIdentity/contracts/proxyIdentity.sol",
  "compiler": {
    "name": "solc",
    "version": "0.5.8+commit.23d335f2.Emscripten.clang"
  },
  "schemaVersion": "3.0.16",
  "updatedAt": "2020-03-23T06:07:50.832Z",
  "devdoc": {
    "methods": {}
  },
  "userdoc": {
    "methods": {
      "changeOwner(address)": {
        "notice": "Used by the proxy factory to make sender the owner"
      }
    }
  }
}