{
  "contractName": "ProxyIdentity",
  "abi": [
    {
      "inputs": [
        {
          "internalType": "address",
          "name": "_erc1056",
          "type": "address"
        },
        {
          "internalType": "address",
          "name": "_erc1155",
          "type": "address"
        },
        {
          "internalType": "uint256",
          "name": "_uid",
          "type": "uint256"
        }
      ],
      "payable": false,
      "stateMutability": "nonpayable",
      "type": "constructor"
    },
    {
      "anonymous": false,
      "inputs": [
        {
          "indexed": false,
          "internalType": "bytes",
          "name": "data",
          "type": "bytes"
        },
        {
          "indexed": false,
          "internalType": "bool",
          "name": "success",
          "type": "bool"
        },
        {
          "indexed": false,
          "internalType": "address",
          "name": "sender",
          "type": "address"
        }
      ],
      "name": "CallbackOnTransfer",
      "type": "event"
    },
    {
      "anonymous": false,
      "inputs": [
        {
          "indexed": false,
          "internalType": "address",
          "name": "identity",
          "type": "address"
        },
        {
          "indexed": false,
          "internalType": "address",
          "name": "prev",
          "type": "address"
        },
        {
          "indexed": false,
          "internalType": "address",
          "name": "next",
          "type": "address"
        }
      ],
      "name": "OwnerChanged",
      "type": "event"
    },
    {
      "anonymous": false,
      "inputs": [
        {
          "indexed": false,
          "internalType": "address",
          "name": "agent",
          "type": "address"
        }
      ],
      "name": "RecoveryAgentAdded",
      "type": "event"
    },
    {
      "anonymous": false,
      "inputs": [
        {
          "indexed": false,
          "internalType": "address",
          "name": "agent",
          "type": "address"
        }
      ],
      "name": "RecoveryAgentRemoved",
      "type": "event"
    },
    {
      "anonymous": false,
      "inputs": [
        {
          "indexed": false,
          "internalType": "bytes",
          "name": "data",
          "type": "bytes"
        },
        {
          "indexed": false,
          "internalType": "address",
          "name": "to",
          "type": "address"
        },
        {
          "indexed": false,
          "internalType": "uint256",
          "name": "value",
          "type": "uint256"
        }
      ],
      "name": "TransactionSent",
      "type": "event"
    },
    {
      "payable": true,
      "stateMutability": "payable",
      "type": "fallback"
    },
    {
      "constant": true,
      "inputs": [],
      "name": "creator",
      "outputs": [
        {
          "internalType": "address",
          "name": "",
          "type": "address"
        }
      ],
      "payable": false,
      "stateMutability": "view",
      "type": "function"
    },
    {
      "constant": true,
      "inputs": [],
      "name": "erc1056",
      "outputs": [
        {
          "internalType": "address",
          "name": "",
          "type": "address"
        }
      ],
      "payable": false,
      "stateMutability": "view",
      "type": "function"
    },
    {
      "constant": true,
      "inputs": [],
      "name": "erc1155",
      "outputs": [
        {
          "internalType": "address",
          "name": "",
          "type": "address"
        }
      ],
      "payable": false,
      "stateMutability": "view",
      "type": "function"
    },
    {
      "constant": true,
      "inputs": [],
      "name": "owner",
      "outputs": [
        {
          "internalType": "address",
          "name": "",
          "type": "address"
        }
      ],
      "payable": false,
      "stateMutability": "view",
      "type": "function"
    },
    {
      "constant": false,
      "inputs": [
        {
          "internalType": "bytes",
          "name": "_data",
          "type": "bytes"
        },
        {
          "internalType": "address",
          "name": "to",
          "type": "address"
        },
        {
          "internalType": "uint256",
          "name": "value",
          "type": "uint256"
        }
      ],
      "name": "sendTransaction",
      "outputs": [],
      "payable": true,
      "stateMutability": "payable",
      "type": "function"
    },
    {
      "constant": false,
      "inputs": [
        {
          "internalType": "bytes",
          "name": "data",
          "type": "bytes"
        },
        {
          "internalType": "address",
          "name": "to",
          "type": "address"
        },
        {
          "internalType": "uint8",
          "name": "v",
          "type": "uint8"
        },
        {
          "internalType": "bytes32",
          "name": "r",
          "type": "bytes32"
        },
        {
          "internalType": "bytes32",
          "name": "s",
          "type": "bytes32"
        },
        {
          "internalType": "uint256",
          "name": "value",
          "type": "uint256"
        },
        {
          "internalType": "uint256",
          "name": "nonce",
          "type": "uint256"
        }
      ],
      "name": "sendSignedTransaction",
      "outputs": [],
      "payable": true,
      "stateMutability": "payable",
      "type": "function"
    },
    {
      "constant": false,
      "inputs": [
        {
          "internalType": "address",
          "name": "delegate",
          "type": "address"
        }
      ],
      "name": "addDelegate",
      "outputs": [],
      "payable": false,
      "stateMutability": "nonpayable",
      "type": "function"
    },
    {
      "constant": false,
      "inputs": [
        {
          "internalType": "address",
          "name": "delegate",
          "type": "address"
        }
      ],
      "name": "revokeDelegate",
      "outputs": [],
      "payable": false,
      "stateMutability": "nonpayable",
      "type": "function"
    },
    {
      "constant": false,
      "inputs": [
        {
          "internalType": "address",
          "name": "_operator",
          "type": "address"
        },
        {
          "internalType": "address",
          "name": "_from",
          "type": "address"
        },
        {
          "internalType": "uint256",
          "name": "_id",
          "type": "uint256"
        },
        {
          "internalType": "uint256",
          "name": "_value",
          "type": "uint256"
        },
        {
          "internalType": "bytes",
          "name": "_data",
          "type": "bytes"
        }
      ],
      "name": "onERC1155Received",
      "outputs": [
        {
          "internalType": "bytes4",
          "name": "",
          "type": "bytes4"
        }
      ],
      "payable": false,
      "stateMutability": "nonpayable",
      "type": "function"
    },
    {
      "constant": false,
      "inputs": [
        {
          "internalType": "address",
          "name": "_operator",
          "type": "address"
        },
        {
          "internalType": "address",
          "name": "_from",
          "type": "address"
        },
        {
          "internalType": "uint256[]",
          "name": "_ids",
          "type": "uint256[]"
        },
        {
          "internalType": "uint256[]",
          "name": "_values",
          "type": "uint256[]"
        },
        {
          "internalType": "bytes",
          "name": "_data",
          "type": "bytes"
        }
      ],
      "name": "onERC1155BatchReceived",
      "outputs": [
        {
          "internalType": "bytes4",
          "name": "",
          "type": "bytes4"
        }
      ],
      "payable": false,
      "stateMutability": "nonpayable",
      "type": "function"
    },
    {
      "constant": false,
      "inputs": [
        {
          "internalType": "address",
          "name": "newOwner",
          "type": "address"
        }
      ],
      "name": "onOwnerChanged",
      "outputs": [],
      "payable": false,
      "stateMutability": "nonpayable",
      "type": "function"
    },
    {
      "constant": true,
      "inputs": [
        {
          "internalType": "bytes4",
          "name": "_interfaceID",
          "type": "bytes4"
        }
      ],
      "name": "supportsInterface",
      "outputs": [
        {
          "internalType": "bool",
          "name": "",
          "type": "bool"
        }
      ],
      "payable": false,
      "stateMutability": "view",
      "type": "function"
    },
    {
      "constant": false,
      "inputs": [
        {
          "internalType": "address",
          "name": "_sender",
          "type": "address"
        },
        {
          "internalType": "address",
          "name": "_origin",
          "type": "address"
        },
        {
          "internalType": "uint256",
          "name": "_value",
          "type": "uint256"
        },
        {
          "internalType": "bytes",
          "name": "_data",
          "type": "bytes"
        }
      ],
      "name": "tokenFallback",
      "outputs": [
        {
          "internalType": "bool",
          "name": "",
          "type": "bool"
        }
      ],
      "payable": false,
      "stateMutability": "nonpayable",
      "type": "function"
    },
    {
      "constant": true,
      "inputs": [
        {
          "internalType": "address",
          "name": "token",
          "type": "address"
        }
      ],
      "name": "supportsToken",
      "outputs": [
        {
          "internalType": "bool",
          "name": "",
          "type": "bool"
        }
      ],
      "payable": false,
      "stateMutability": "pure",
      "type": "function"
    }
  ],
  "bytecode": "0x60806040527fffffffffffffffffffffffffffffffffffffffffffffffffffffffffffffffff6004553480156200003557600080fd5b5060405162001d7a38038062001d7a833981810160405260608110156200005b57600080fd5b8101908080519060200190929190805190602001909291908051906020019092919050505082600260006101000a81548173ffffffffffffffffffffffffffffffffffffffff021916908373ffffffffffffffffffffffffffffffffffffffff16021790555081600360006101000a81548173ffffffffffffffffffffffffffffffffffffffff021916908373ffffffffffffffffffffffffffffffffffffffff16021790555080600d8190555033600160006101000a81548173ffffffffffffffffffffffffffffffffffffffff021916908373ffffffffffffffffffffffffffffffffffffffff160217905550336000806101000a81548173ffffffffffffffffffffffffffffffffffffffff021916908373ffffffffffffffffffffffffffffffffffffffff1602179055508173ffffffffffffffffffffffffffffffffffffffff166394d008ef33600d546040518363ffffffff1660e01b8152600401808373ffffffffffffffffffffffffffffffffffffffff1673ffffffffffffffffffffffffffffffffffffffff168152602001828152602001806020018281038252600081526020016020019350505050600060405180830381600087803b1580156200022857600080fd5b505af11580156200023d573d6000803e3d6000fd5b5050505062000252336200025b60201b60201c565b50505062000456565b6000809054906101000a900473ffffffffffffffffffffffffffffffffffffffff1673ffffffffffffffffffffffffffffffffffffffff163373ffffffffffffffffffffffffffffffffffffffff16146200031e576040517f08c379a00000000000000000000000000000000000000000000000000000000081526004018080602001828103825260128152602001807f4f6e6c79206f776e657220616c6c6f776564000000000000000000000000000081525060200191505060405180910390fd5b6200032f816200033260201b60201c565b50565b600260009054906101000a900473ffffffffffffffffffffffffffffffffffffffff1673ffffffffffffffffffffffffffffffffffffffff1663a7068d6630836004546040518463ffffffff1660e01b8152600401808473ffffffffffffffffffffffffffffffffffffffff1673ffffffffffffffffffffffffffffffffffffffff168152602001807f73696741757468000000000000000000000000000000000000000000000000008152506020018373ffffffffffffffffffffffffffffffffffffffff1673ffffffffffffffffffffffffffffffffffffffff1681526020018281526020019350505050600060405180830381600087803b1580156200043a57600080fd5b505af11580156200044f573d6000803e3d6000fd5b5050505050565b61191480620004666000396000f3fe6080604052600436106100dd5760003560e01c80638da5cb5b1161007f578063d56022d711610059578063d56022d7146107f1578063e71bdf4114610848578063f23a6e6114610899578063fa352c00146109c5576100dd565b80638da5cb5b146104f3578063bbc018571461054a578063bc197c811461062f576100dd565b80632c39952a116100bb5780632c39952a146102115780634c1230191461032157806373125fc41461044b57806384eb68fb1461049c576100dd565b806301ffc9a7146100df57806302d05d3f14610151578063061f7650146101a8575b005b3480156100eb57600080fd5b506101376004803603602081101561010257600080fd5b8101908080357bffffffffffffffffffffffffffffffffffffffffffffffffffffffff19169060200190929190505050610a16565b604051808215151515815260200191505060405180910390f35b34801561015d57600080fd5b50610166610ac7565b604051808273ffffffffffffffffffffffffffffffffffffffff1673ffffffffffffffffffffffffffffffffffffffff16815260200191505060405180910390f35b3480156101b457600080fd5b506101f7600480360360208110156101cb57600080fd5b81019080803573ffffffffffffffffffffffffffffffffffffffff169060200190929190505050610aed565b604051808215151515815260200191505060405180910390f35b61031f600480360360e081101561022757600080fd5b810190808035906020019064010000000081111561024457600080fd5b82018360208201111561025657600080fd5b8035906020019184600183028401116401000000008311171561027857600080fd5b91908080601f016020809104026020016040519081016040528093929190818152602001838380828437600081840152601f19601f820116905080830192505050505050509192919290803573ffffffffffffffffffffffffffffffffffffffff169060200190929190803560ff16906020019092919080359060200190929190803590602001909291908035906020019092919080359060200190929190505050610af8565b005b34801561032d57600080fd5b506104316004803603608081101561034457600080fd5b81019080803573ffffffffffffffffffffffffffffffffffffffff169060200190929190803573ffffffffffffffffffffffffffffffffffffffff16906020019092919080359060200190929190803590602001906401000000008111156103ab57600080fd5b8201836020820111156103bd57600080fd5b803590602001918460018302840111640100000000831117156103df57600080fd5b91908080601f016020809104026020016040519081016040528093929190818152602001838380828437600081840152601f19601f820116905080830192505050505050509192919290505050610f14565b604051808215151515815260200191505060405180910390f35b34801561045757600080fd5b5061049a6004803603602081101561046e57600080fd5b81019080803573ffffffffffffffffffffffffffffffffffffffff169060200190929190505050611101565b005b3480156104a857600080fd5b506104b1611210565b604051808273ffffffffffffffffffffffffffffffffffffffff1673ffffffffffffffffffffffffffffffffffffffff16815260200191505060405180910390f35b3480156104ff57600080fd5b50610508611236565b604051808273ffffffffffffffffffffffffffffffffffffffff1673ffffffffffffffffffffffffffffffffffffffff16815260200191505060405180910390f35b61062d6004803603606081101561056057600080fd5b810190808035906020019064010000000081111561057d57600080fd5b82018360208201111561058f57600080fd5b803590602001918460018302840111640100000000831117156105b157600080fd5b91908080601f016020809104026020016040519081016040528093929190818152602001838380828437600081840152601f19601f820116905080830192505050505050509192919290803573ffffffffffffffffffffffffffffffffffffffff1690602001909291908035906020019092919050505061125b565b005b34801561063b57600080fd5b5061079d600480360360a081101561065257600080fd5b81019080803573ffffffffffffffffffffffffffffffffffffffff169060200190929190803573ffffffffffffffffffffffffffffffffffffffff169060200190929190803590602001906401000000008111156106af57600080fd5b8201836020820111156106c157600080fd5b803590602001918460208302840111640100000000831117156106e357600080fd5b90919293919293908035906020019064010000000081111561070457600080fd5b82018360208201111561071657600080fd5b8035906020019184602083028401116401000000008311171561073857600080fd5b90919293919293908035906020019064010000000081111561075957600080fd5b82018360208201111561076b57600080fd5b8035906020019184600183028401116401000000008311171561078d57600080fd5b909192939192939050505061139f565b60405180827bffffffffffffffffffffffffffffffffffffffffffffffffffffffff19167bffffffffffffffffffffffffffffffffffffffffffffffffffffffff1916815260200191505060405180910390f35b3480156107fd57600080fd5b506108066113b7565b604051808273ffffffffffffffffffffffffffffffffffffffff1673ffffffffffffffffffffffffffffffffffffffff16815260200191505060405180910390f35b34801561085457600080fd5b506108976004803603602081101561086b57600080fd5b81019080803573ffffffffffffffffffffffffffffffffffffffff1690602001909291905050506113dd565b005b3480156108a557600080fd5b50610971600480360360a08110156108bc57600080fd5b81019080803573ffffffffffffffffffffffffffffffffffffffff169060200190929190803573ffffffffffffffffffffffffffffffffffffffff16906020019092919080359060200190929190803590602001909291908035906020019064010000000081111561092d57600080fd5b82018360208201111561093f57600080fd5b8035906020019184600183028401116401000000008311171561096157600080fd5b90919293919293905050506114ab565b60405180827bffffffffffffffffffffffffffffffffffffffffffffffffffffffff19167bffffffffffffffffffffffffffffffffffffffffffffffffffffffff1916815260200191505060405180910390f35b3480156109d157600080fd5b50610a14600480360360208110156109e857600080fd5b81019080803573ffffffffffffffffffffffffffffffffffffffff1690602001909291905050506114c1565b005b60006301ffc9a760e01b7bffffffffffffffffffffffffffffffffffffffffffffffffffffffff1916827bffffffffffffffffffffffffffffffffffffffffffffffffffffffff19161480610aaf5750634e2312e060e01b7bffffffffffffffffffffffffffffffffffffffffffffffffffffffff1916827bffffffffffffffffffffffffffffffffffffffffffffffffffffffff1916145b15610abd5760019050610ac2565b600090505b919050565b600160009054906101000a900473ffffffffffffffffffffffffffffffffffffffff1681565b600060019050919050565b60008787848460405160200180806020018573ffffffffffffffffffffffffffffffffffffffff1673ffffffffffffffffffffffffffffffffffffffff168152602001848152602001838152602001828103825286818151815260200191508051906020019080838360005b83811015610b7f578082015181840152602081019050610b64565b50505050905090810190601f168015610bac5780820380516001836020036101000a031916815260200191505b5095505050505050604051602081830303815290604052805190602001209050600015156005600083815260200190815260200160002060009054906101000a900460ff16151514610c49576040517f08c379a00000000000000000000000000000000000000000000000000000000081526004018080602001828103825260268152602001806118ba6026913960400191505060405180910390fd5b60016005600083815260200190815260200160002060006101000a81548160ff02191690831515021790555060008160405160200180807f19457468657265756d205369676e6564204d6573736167653a0a333200000000815250601c01828152602001915050604051602081830303815290604052805190602001209050600060018289898960405160008152602001604052604051808581526020018460ff1660ff1681526020018381526020018281526020019450505050506020604051602081039080840390855afa158015610d27573d6000803e3d6000fd5b5050506020604051035190506001600360009054906101000a900473ffffffffffffffffffffffffffffffffffffffff1673ffffffffffffffffffffffffffffffffffffffff1662fdd58e83600d546040518363ffffffff1660e01b8152600401808373ffffffffffffffffffffffffffffffffffffffff1673ffffffffffffffffffffffffffffffffffffffff1681526020018281526020019250505060206040518083038186803b158015610ddd57600080fd5b505afa158015610df1573d6000803e3d6000fd5b505050506040513d6020811015610e0757600080fd5b810190808051906020019092919050505014610e8b576040517f08c379a00000000000000000000000000000000000000000000000000000000081526004018080602001828103825260168152602001807f5369676e6174757265206973206e6f742076616c69640000000000000000000081525060200191505060405180910390fd5b610e968a8a8761169b565b610f08576040517f08c379a00000000000000000000000000000000000000000000000000000000081526004018080602001828103825260168152602001807f43616e27742073656e64207472616e73616374696f6e0000000000000000000081525060200191505060405180910390fd5b50505050505050505050565b6000610f1f33610aed565b610f2c57600090506110f9565b6001600c60006101000a81548160ff02191690831515021790555060003073ffffffffffffffffffffffffffffffffffffffff16836040518082805190602001908083835b60208310610f945780518252602082019150602081019050602083039250610f71565b6001836020036101000a038019825116818451168082178552505050505050905001915050600060405180830381855af49150503d8060008114610ff4576040519150601f19603f3d011682016040523d82523d6000602084013e610ff9565b606091505b505090506000600c60006101000a81548160ff0219169083151502179055507feab9f6c333c4c219217a67230a9af8a2e860061556fa026945860d2c885d60fe8382336040518080602001841515151581526020018373ffffffffffffffffffffffffffffffffffffffff1673ffffffffffffffffffffffffffffffffffffffff168152602001828103825285818151815260200191508051906020019080838360005b838110156110b857808201518184015260208101905061109d565b50505050905090810190601f1680156110e55780820380516001836020036101000a031916815260200191505b5094505050505060405180910390a1809150505b949350505050565b600360009054906101000a900473ffffffffffffffffffffffffffffffffffffffff1673ffffffffffffffffffffffffffffffffffffffff163373ffffffffffffffffffffffffffffffffffffffff16146111c4576040517f08c379a00000000000000000000000000000000000000000000000000000000081526004018080602001828103825260148152602001807f4f6e6c79204552433131353520616c6c6f77656400000000000000000000000081525060200191505060405180910390fd5b806000806101000a81548173ffffffffffffffffffffffffffffffffffffffff021916908373ffffffffffffffffffffffffffffffffffffffff16021790555061120d81611797565b50565b600260009054906101000a900473ffffffffffffffffffffffffffffffffffffffff1681565b6000809054906101000a900473ffffffffffffffffffffffffffffffffffffffff1681565b6000809054906101000a900473ffffffffffffffffffffffffffffffffffffffff1673ffffffffffffffffffffffffffffffffffffffff163373ffffffffffffffffffffffffffffffffffffffff161461131d576040517f08c379a00000000000000000000000000000000000000000000000000000000081526004018080602001828103825260128152602001807f4f6e6c79206f776e657220616c6c6f776564000000000000000000000000000081525060200191505060405180910390fd5b61132883838361169b565b61139a576040517f08c379a00000000000000000000000000000000000000000000000000000000081526004018080602001828103825260168152602001807f43616e27742073656e64207472616e73616374696f6e0000000000000000000081525060200191505060405180910390fd5b505050565b600063bc197c8160e01b905098975050505050505050565b600360009054906101000a900473ffffffffffffffffffffffffffffffffffffffff1681565b6000809054906101000a900473ffffffffffffffffffffffffffffffffffffffff1673ffffffffffffffffffffffffffffffffffffffff163373ffffffffffffffffffffffffffffffffffffffff161461149f576040517f08c379a00000000000000000000000000000000000000000000000000000000081526004018080602001828103825260128152602001807f4f6e6c79206f776e657220616c6c6f776564000000000000000000000000000081525060200191505060405180910390fd5b6114a881611797565b50565b600063f23a6e6160e01b90509695505050505050565b6000809054906101000a900473ffffffffffffffffffffffffffffffffffffffff1673ffffffffffffffffffffffffffffffffffffffff163373ffffffffffffffffffffffffffffffffffffffff1614611583576040517f08c379a00000000000000000000000000000000000000000000000000000000081526004018080602001828103825260128152602001807f4f6e6c79206f776e657220616c6c6f776564000000000000000000000000000081525060200191505060405180910390fd5b600260009054906101000a900473ffffffffffffffffffffffffffffffffffffffff1673ffffffffffffffffffffffffffffffffffffffff166380b29f7c30836040518363ffffffff1660e01b8152600401808373ffffffffffffffffffffffffffffffffffffffff1673ffffffffffffffffffffffffffffffffffffffff168152602001807f73696741757468000000000000000000000000000000000000000000000000008152506020018273ffffffffffffffffffffffffffffffffffffffff1673ffffffffffffffffffffffffffffffffffffffff16815260200192505050600060405180830381600087803b15801561168057600080fd5b505af1158015611694573d6000803e3d6000fd5b5050505050565b60006060849050600081519050600080826020850187895af192507f7e4155ee9daec547578a255f7495bc08f38796f4d4a3be4ed7189f4fc55cb18586868660405180806020018473ffffffffffffffffffffffffffffffffffffffff1673ffffffffffffffffffffffffffffffffffffffff168152602001838152602001828103825285818151815260200191508051906020019080838360005b83811015611752578082015181840152602081019050611737565b50505050905090810190601f16801561177f5780820380516001836020036101000a031916815260200191505b5094505050505060405180910390a150509392505050565b600260009054906101000a900473ffffffffffffffffffffffffffffffffffffffff1673ffffffffffffffffffffffffffffffffffffffff1663a7068d6630836004546040518463ffffffff1660e01b8152600401808473ffffffffffffffffffffffffffffffffffffffff1673ffffffffffffffffffffffffffffffffffffffff168152602001807f73696741757468000000000000000000000000000000000000000000000000008152506020018373ffffffffffffffffffffffffffffffffffffffff1673ffffffffffffffffffffffffffffffffffffffff1681526020018281526020019350505050600060405180830381600087803b15801561189e57600080fd5b505af11580156118b2573d6000803e3d6000fd5b505050505056fe54686973207472616e73616374696f6e2068617320616c7265616479206265656e2073656e74a265627a7a72315820ae321b50a1e1761530fcae004578101f4ba239d053268c03e2a9b2aef34418cf64736f6c63430005110032",
  "source": "pragma solidity ^0.5.0;\n\nimport \"multi-token-standard/contracts/interfaces/IERC165.sol\";\nimport \"multi-token-standard/contracts/interfaces/IERC1155.sol\";\nimport \"multi-token-standard/contracts/interfaces/IERC1155TokenReceiver.sol\";\nimport \"./interfaces/IERC223Receiver.sol\";\nimport \"./interfaces/IERC223.sol\";\nimport \"./tokens/ERC1155Multiproxy.sol\";\n\ninterface IERC1056 {\n  function addDelegate(\n    address identity,\n    bytes32 delegateType,\n    address delegate,\n    uint256 validity\n  ) external;\n\n  function revokeDelegate(\n    address identity,\n    bytes32 delegateType,\n    address delegate\n  ) external;\n}\n\ncontract ProxyIdentity is IERC1155TokenReceiver, IERC165, IERC223Receiver {\n  address public owner;\n  address public creator;\n  address public erc1056;\n  address public erc1155;\n  uint256 defaultValidity = 2**256 - 1;\n  mapping(bytes32 => bool) digests;\n  bytes4 internal constant ERC1155_ACCEPTED = 0xf23a6e61;\n  bytes4 internal constant ERC1155_BATCH_ACCEPTED = 0xbc197c81;\n  Tkn tkn;\n  bool __isTokenFallback;\n  uint256 uid;\n\n  struct Tkn {\n    address addr;\n    address sender;\n    address origin;\n    uint256 value;\n    bytes data;\n    bytes4 sig;\n  }\n\n  event TransactionSent(bytes data, address to, uint256 value);\n  event OwnerChanged(address identity, address prev, address next);\n  event RecoveryAgentAdded(address agent);\n  event RecoveryAgentRemoved(address agent);\n\n  constructor(address _erc1056, address _erc1155, uint256 _uid) public {\n    erc1056 = _erc1056;\n    erc1155 = _erc1155;\n    uid = _uid;\n    creator = msg.sender;\n    owner = msg.sender;\n    ERC1155Multiproxy(_erc1155).mint(msg.sender, uid, '');\n    addDelegate(msg.sender);\n  }\n\n  modifier _owner() {\n    require(msg.sender == owner, \"Only owner allowed\");\n    _;\n  }\n\n  modifier tokenPayable {\n    if (!__isTokenFallback)\n      revert(\"Method can be invoked only as part of ERC223 transfer\");\n    _;\n  }\n  \n  modifier _erc1155() {\n    require(msg.sender == erc1155, 'Only ERC1155 allowed'); \n    _;\n  }\n\n  function sendTransaction(\n    bytes memory _data,\n    address to,\n    uint256 value\n  ) public payable _owner() {\n    require(_sendTransaction(_data, to, value), \"Can't send transaction\");\n  }\n\n  function sendSignedTransaction(\n    bytes memory data,\n    address to,\n    uint8 v,\n    bytes32 r,\n    bytes32 s,\n    uint256 value,\n    uint256 nonce\n  ) public payable {\n    bytes32 digest = keccak256(abi.encode(data, to, value, nonce));\n    require(digests[digest] == false, \"This transaction has already been sent\");\n    digests[digest] = true;\n    bytes32 hash = keccak256(\n      abi.encodePacked(\"\\x19Ethereum Signed Message:\\n32\", digest)\n    );\n    address signer = ecrecover(hash, v, r, s);\n    require(ERC1155Multiproxy(erc1155).balanceOf(signer, uid) == 1 , \"Signature is not valid\");\n    require(_sendTransaction(data, to, value), \"Can't send transaction\");\n  }\n \n  function addDelegate(address delegate) public _owner() {\n    _addDelegate(delegate);\n  }\n\n  function revokeDelegate(address delegate) public _owner() {\n    IERC1056(erc1056).revokeDelegate(address(this), \"sigAuth\", delegate);\n  }\n\n  function onERC1155Received(\n    address _operator,\n    address _from,\n    uint256 _id,\n    uint256 _value,\n    bytes calldata _data\n  ) external returns (bytes4) {\n    return ERC1155_ACCEPTED;\n  }\n\n  function onERC1155BatchReceived(\n    address _operator,\n    address _from,\n    uint256[] calldata _ids,\n    uint256[] calldata _values,\n    bytes calldata _data\n  ) external returns (bytes4) {\n    return ERC1155_BATCH_ACCEPTED;\n  }\n  \n  function onOwnerChanged(address newOwner) public _erc1155 {\n    owner = newOwner;\n    _addDelegate(newOwner);\n  }\n  \n  function _sendTransaction(\n    bytes memory _data,\n    address to,\n    uint256 value\n  ) internal returns (bool success) {\n    bytes memory data = _data;\n    uint256 len = data.length;\n    // solium-disable-next-line security/no-inline-assembly\n    assembly {\n      success := call(gas, to, value, add(data, 0x20), len, 0, 0)\n    }\n    emit TransactionSent(_data, to, value);\n  }\n  \n  function _addDelegate(address delegate) internal {\n    IERC1056(erc1056).addDelegate(\n      address(this),\n      \"sigAuth\",\n      delegate,\n      defaultValidity\n    );\n  }\n\n  /**\n   * INTERFACE_SIGNATURE_ERC165 = bytes4(keccak256(\"supportsInterface(bytes4)\"));\n   */\n  bytes4 private constant INTERFACE_SIGNATURE_ERC165 = 0x01ffc9a7;\n\n  /**\n   * bytes4(keccak256(\"onERC1155Received(address,address,uint256,uint256,bytes)\"))^bytes4(keccak256(\"onERC1155BatchReceived(address,address,uint256[],uint256[],bytes)\"))\n   */\n  bytes4 private constant INTERFACE_SIGNATURE_ERC1155TOKENRECEIVER = 0x4e2312e0;\n\n  /**\n   * @notice Query if a contract implements an interface\n   * @param _interfaceID  The interface identifier, as specified in ERC-165\n   * @return `true` if the contract implements `_interfaceID` and\n   */\n  function supportsInterface(bytes4 _interfaceID) external view returns (bool) {\n    if (\n      _interfaceID == INTERFACE_SIGNATURE_ERC165 ||\n      _interfaceID == INTERFACE_SIGNATURE_ERC1155TOKENRECEIVER\n    ) {\n      return true;\n    }\n    return false;\n  }\n\n  event CallbackOnTransfer(bytes data, bool success, address sender);\n\n  function tokenFallback(\n    address _sender,\n    address _origin,\n    uint256 _value,\n    bytes memory _data\n  ) public returns (bool) {\n    if (!supportsToken(msg.sender)) return false;\n    __isTokenFallback = true;\n    // solium-disable-next-line security/no-low-level-calls\n    (bool success, ) = address(this).delegatecall(_data);\n    __isTokenFallback = false;\n    emit CallbackOnTransfer(_data, success, msg.sender);\n    return success;\n  }\n\n  function getSig(bytes memory _data) private pure returns (bytes4 sig) {\n    uint256 l = _data.length < 4 ? _data.length : 4;\n    for (uint256 i = 0; i < l; i++) {\n      sig = bytes4(\n        uint32(uint32(sig) + uint8(_data[i]) * (2**(8 * (l - 1 - i))))\n      );\n    }\n  }\n\n  function supportsToken(address token) public pure returns (bool) {\n    return true;\n  }\n\n  function() external payable {}\n}\n",
  "sourcePath": "/home/dima/Development/ew-did-registry/packages/proxyIdentity/contracts/proxyIdentity.sol",
  "compiler": {
    "name": "solc",
    "version": "0.5.17+commit.d19bba13.Emscripten.clang"
  },
  "schemaVersion": "3.0.16",
  "updatedAt": "2020-10-02T11:44:39.805Z",
  "devdoc": {
    "methods": {
      "supportsInterface(bytes4)": {
        "params": {
          "_interfaceID": "The interface identifier, as specified in ERC-165"
        },
        "return": "`true` if the contract implements `_interfaceID` and"
      }
    }
  },
  "userdoc": {
    "methods": {
      "supportsInterface(bytes4)": {
        "notice": "Query if a contract implements an interface"
      }
    }
  }
}