{
  "contractName": "ProxyIdentity",
  "abi": [
    {
      "inputs": [
        {
          "internalType": "address",
          "name": "_erc1056",
          "type": "address"
        },
        {
          "internalType": "address",
          "name": "_erc1155",
          "type": "address"
        },
        {
          "internalType": "string",
          "name": "_serial",
          "type": "string"
        },
        {
          "internalType": "address",
          "name": "_creator",
          "type": "address"
        }
      ],
      "payable": false,
      "stateMutability": "nonpayable",
      "type": "constructor"
    },
    {
      "anonymous": false,
      "inputs": [
        {
          "indexed": false,
          "internalType": "address",
          "name": "agent",
          "type": "address"
        }
      ],
      "name": "ApprovedAgentAdded",
      "type": "event"
    },
    {
      "anonymous": false,
      "inputs": [
        {
          "indexed": false,
          "internalType": "address",
          "name": "agent",
          "type": "address"
        }
      ],
      "name": "ApprovedAgentRemoved",
      "type": "event"
    },
    {
      "anonymous": false,
      "inputs": [
        {
          "indexed": false,
          "internalType": "bytes",
          "name": "data",
          "type": "bytes"
        },
        {
          "indexed": false,
          "internalType": "bool",
          "name": "success",
          "type": "bool"
        },
        {
          "indexed": false,
          "internalType": "address",
          "name": "sender",
          "type": "address"
        }
      ],
      "name": "CallbackOnTransfer",
      "type": "event"
    },
    {
      "anonymous": false,
      "inputs": [
        {
          "indexed": false,
          "internalType": "bytes",
          "name": "data",
          "type": "bytes"
        },
        {
          "indexed": false,
          "internalType": "address",
          "name": "to",
          "type": "address"
        },
        {
          "indexed": false,
          "internalType": "uint256",
          "name": "value",
          "type": "uint256"
        }
      ],
      "name": "TransactionSent",
      "type": "event"
    },
    {
      "payable": true,
      "stateMutability": "payable",
      "type": "fallback"
    },
    {
      "constant": true,
      "inputs": [
        {
          "internalType": "uint256",
          "name": "",
          "type": "uint256"
        }
      ],
      "name": "agents",
      "outputs": [
        {
          "internalType": "address",
          "name": "",
          "type": "address"
        }
      ],
      "payable": false,
      "stateMutability": "view",
      "type": "function"
    },
    {
      "constant": true,
      "inputs": [],
      "name": "creator",
      "outputs": [
        {
          "internalType": "address",
          "name": "",
          "type": "address"
        }
      ],
      "payable": false,
      "stateMutability": "view",
      "type": "function"
    },
    {
      "constant": true,
      "inputs": [],
      "name": "erc1056",
      "outputs": [
        {
          "internalType": "address",
          "name": "",
          "type": "address"
        }
      ],
      "payable": false,
      "stateMutability": "view",
      "type": "function"
    },
    {
      "constant": true,
      "inputs": [],
      "name": "erc1155",
      "outputs": [
        {
          "internalType": "address",
          "name": "",
          "type": "address"
        }
      ],
      "payable": false,
      "stateMutability": "view",
      "type": "function"
    },
    {
      "constant": true,
      "inputs": [],
      "name": "factory",
      "outputs": [
        {
          "internalType": "address",
          "name": "",
          "type": "address"
        }
      ],
      "payable": false,
      "stateMutability": "view",
      "type": "function"
    },
    {
      "constant": true,
      "inputs": [],
      "name": "id",
      "outputs": [
        {
          "internalType": "uint256",
          "name": "",
          "type": "uint256"
        }
      ],
      "payable": false,
      "stateMutability": "view",
      "type": "function"
    },
    {
      "constant": true,
      "inputs": [
        {
          "internalType": "address",
          "name": "",
          "type": "address"
        }
      ],
      "name": "isApproved",
      "outputs": [
        {
          "internalType": "bool",
          "name": "",
          "type": "bool"
        }
      ],
      "payable": false,
      "stateMutability": "view",
      "type": "function"
    },
    {
      "constant": true,
      "inputs": [],
      "name": "owner",
      "outputs": [
        {
          "internalType": "address",
          "name": "",
          "type": "address"
        }
      ],
      "payable": false,
      "stateMutability": "view",
      "type": "function"
    },
    {
      "constant": true,
      "inputs": [],
      "name": "serial",
      "outputs": [
        {
          "internalType": "string",
          "name": "",
          "type": "string"
        }
      ],
      "payable": false,
      "stateMutability": "view",
      "type": "function"
    },
    {
      "constant": false,
      "inputs": [
        {
          "internalType": "bytes",
          "name": "_data",
          "type": "bytes"
        },
        {
          "internalType": "address",
          "name": "to",
          "type": "address"
        },
        {
          "internalType": "uint256",
          "name": "value",
          "type": "uint256"
        }
      ],
      "name": "sendTransaction",
      "outputs": [],
      "payable": true,
      "stateMutability": "payable",
      "type": "function"
    },
    {
      "constant": false,
      "inputs": [
        {
          "internalType": "bytes",
          "name": "data",
          "type": "bytes"
        },
        {
          "internalType": "address",
          "name": "to",
          "type": "address"
        },
        {
          "internalType": "uint8",
          "name": "v",
          "type": "uint8"
        },
        {
          "internalType": "bytes32",
          "name": "r",
          "type": "bytes32"
        },
        {
          "internalType": "bytes32",
          "name": "s",
          "type": "bytes32"
        },
        {
          "internalType": "uint256",
          "name": "value",
          "type": "uint256"
        },
        {
          "internalType": "uint256",
          "name": "nonce",
          "type": "uint256"
        }
      ],
      "name": "sendSignedTransaction",
      "outputs": [],
      "payable": true,
      "stateMutability": "payable",
      "type": "function"
    },
    {
      "constant": false,
      "inputs": [
        {
          "internalType": "address",
          "name": "delegate",
          "type": "address"
        }
      ],
      "name": "addDelegate",
      "outputs": [],
      "payable": false,
      "stateMutability": "nonpayable",
      "type": "function"
    },
    {
      "constant": false,
      "inputs": [
        {
          "internalType": "address",
          "name": "delegate",
          "type": "address"
        }
      ],
      "name": "revokeDelegate",
      "outputs": [],
      "payable": false,
      "stateMutability": "nonpayable",
      "type": "function"
    },
    {
      "constant": false,
      "inputs": [
        {
          "internalType": "address",
          "name": "newOwner",
          "type": "address"
        }
      ],
      "name": "changeOwner",
      "outputs": [],
      "payable": false,
      "stateMutability": "nonpayable",
      "type": "function"
    },
    {
      "constant": false,
      "inputs": [
        {
          "internalType": "address",
          "name": "agent",
          "type": "address"
        }
      ],
      "name": "addApprovedAgent",
      "outputs": [],
      "payable": false,
      "stateMutability": "nonpayable",
      "type": "function"
    },
    {
      "constant": false,
      "inputs": [
        {
          "internalType": "address",
          "name": "agent",
          "type": "address"
        }
      ],
      "name": "removeApprovedAgent",
      "outputs": [],
      "payable": false,
      "stateMutability": "nonpayable",
      "type": "function"
    },
    {
      "constant": true,
      "inputs": [],
      "name": "uri",
      "outputs": [
        {
          "internalType": "string",
          "name": "",
          "type": "string"
        }
      ],
      "payable": false,
      "stateMutability": "view",
      "type": "function"
    },
    {
      "constant": false,
      "inputs": [
        {
          "internalType": "string",
          "name": "_uri",
          "type": "string"
        }
      ],
      "name": "updateUri",
      "outputs": [],
      "payable": false,
      "stateMutability": "nonpayable",
      "type": "function"
    },
    {
      "constant": false,
      "inputs": [
        {
          "internalType": "address",
          "name": "_operator",
          "type": "address"
        },
        {
          "internalType": "address",
          "name": "_from",
          "type": "address"
        },
        {
          "internalType": "uint256",
          "name": "_id",
          "type": "uint256"
        },
        {
          "internalType": "uint256",
          "name": "_value",
          "type": "uint256"
        },
        {
          "internalType": "bytes",
          "name": "_data",
          "type": "bytes"
        }
      ],
      "name": "onERC1155Received",
      "outputs": [
        {
          "internalType": "bytes4",
          "name": "",
          "type": "bytes4"
        }
      ],
      "payable": false,
      "stateMutability": "nonpayable",
      "type": "function"
    },
    {
      "constant": false,
      "inputs": [
        {
          "internalType": "address",
          "name": "_operator",
          "type": "address"
        },
        {
          "internalType": "address",
          "name": "_from",
          "type": "address"
        },
        {
          "internalType": "uint256[]",
          "name": "_ids",
          "type": "uint256[]"
        },
        {
          "internalType": "uint256[]",
          "name": "_values",
          "type": "uint256[]"
        },
        {
          "internalType": "bytes",
          "name": "_data",
          "type": "bytes"
        }
      ],
      "name": "onERC1155BatchReceived",
      "outputs": [
        {
          "internalType": "bytes4",
          "name": "",
          "type": "bytes4"
        }
      ],
      "payable": false,
      "stateMutability": "nonpayable",
      "type": "function"
    },
    {
      "constant": true,
      "inputs": [
        {
          "internalType": "bytes4",
          "name": "_interfaceID",
          "type": "bytes4"
        }
      ],
      "name": "supportsInterface",
      "outputs": [
        {
          "internalType": "bool",
          "name": "",
          "type": "bool"
        }
      ],
      "payable": false,
      "stateMutability": "view",
      "type": "function"
    },
    {
      "constant": false,
      "inputs": [
        {
          "internalType": "address",
          "name": "_sender",
          "type": "address"
        },
        {
          "internalType": "address",
          "name": "_origin",
          "type": "address"
        },
        {
          "internalType": "uint256",
          "name": "_value",
          "type": "uint256"
        },
        {
          "internalType": "bytes",
          "name": "_data",
          "type": "bytes"
        }
      ],
      "name": "tokenFallback",
      "outputs": [
        {
          "internalType": "bool",
          "name": "",
          "type": "bool"
        }
      ],
      "payable": false,
      "stateMutability": "nonpayable",
      "type": "function"
    },
    {
      "constant": true,
      "inputs": [
        {
          "internalType": "address",
          "name": "token",
          "type": "address"
        }
      ],
      "name": "supportsToken",
      "outputs": [
        {
          "internalType": "bool",
          "name": "",
          "type": "bool"
        }
      ],
      "payable": false,
      "stateMutability": "pure",
      "type": "function"
    }
  ],
  "bytecode": "0x60806040527fffffffffffffffffffffffffffffffffffffffffffffffffffffffffffffffff6006553480156200003557600080fd5b5060405162002ba738038062002ba7833981810160405260808110156200005b57600080fd5b810190808051906020019092919080519060200190929190805160405193929190846401000000008211156200009057600080fd5b83820191506020820185811115620000a757600080fd5b8251866001820283011164010000000082111715620000c557600080fd5b8083526020830192505050908051906020019080838360005b83811015620000fb578082015181840152602081019050620000de565b50505050905090810190601f168015620001295780820380516001836020036101000a031916815260200191505b506040526020018051906020019092919050505083600360006101000a81548173ffffffffffffffffffffffffffffffffffffffff021916908373ffffffffffffffffffffffffffffffffffffffff16021790555082600460006101000a81548173ffffffffffffffffffffffffffffffffffffffff021916908373ffffffffffffffffffffffffffffffffffffffff16021790555081600f9080519060200190620001d79291906200052a565b5080600160006101000a81548173ffffffffffffffffffffffffffffffffffffffff021916908373ffffffffffffffffffffffffffffffffffffffff160217905550806000806101000a81548173ffffffffffffffffffffffffffffffffffffffff021916908373ffffffffffffffffffffffffffffffffffffffff1602179055508273ffffffffffffffffffffffffffffffffffffffff16639f181b5e6040518163ffffffff1660e01b815260040160206040518083038186803b158015620002a057600080fd5b505afa158015620002b5573d6000803e3d6000fd5b505050506040513d6020811015620002cc57600080fd5b81019080805190602001909291905050506010819055508273ffffffffffffffffffffffffffffffffffffffff1663a0712d686010546040518263ffffffff1660e01b815260040180828152602001915050600060405180830381600087803b1580156200033957600080fd5b505af11580156200034e573d6000803e3d6000fd5b5050505062000363816200040660201b60201c565b6001601160003373ffffffffffffffffffffffffffffffffffffffff1673ffffffffffffffffffffffffffffffffffffffff16815260200190815260200160002060006101000a81548160ff02191690831515021790555033600560006101000a81548173ffffffffffffffffffffffffffffffffffffffff021916908373ffffffffffffffffffffffffffffffffffffffff16021790555050505050620005d9565b600360009054906101000a900473ffffffffffffffffffffffffffffffffffffffff1673ffffffffffffffffffffffffffffffffffffffff1663a7068d6630836006546040518463ffffffff1660e01b8152600401808473ffffffffffffffffffffffffffffffffffffffff1673ffffffffffffffffffffffffffffffffffffffff168152602001807f73696741757468000000000000000000000000000000000000000000000000008152506020018373ffffffffffffffffffffffffffffffffffffffff1673ffffffffffffffffffffffffffffffffffffffff1681526020018281526020019350505050600060405180830381600087803b1580156200050e57600080fd5b505af115801562000523573d6000803e3d6000fd5b5050505050565b828054600181600116156101000203166002900490600052602060002090601f016020900481019282601f106200056d57805160ff19168380011785556200059e565b828001600101855582156200059e579182015b828111156200059d57825182559160200191906001019062000580565b5b509050620005ad9190620005b1565b5090565b620005d691905b80821115620005d2576000816000905550600101620005b8565b5090565b90565b6125be80620005e96000396000f3fe6080604052600436106101405760003560e01c8063a6f9dae1116100b6578063d56022d71161006f578063d56022d714610b24578063e71bdf4114610b7b578063eac989f814610bcc578063f23a6e6114610c5c578063f6d713dd14610d88578063fa352c0014610e1857610140565b8063a6f9dae114610759578063ad9ec05d146107aa578063af640d0f146107fb578063bbc0185714610826578063bc197c811461090b578063c45a015514610acd57610140565b80634c123019116101085780634c123019146103d5578063513856c8146104ff578063570b3c6a1461057a578063673448dd1461064257806384eb68fb146106ab5780638da5cb5b1461070257610140565b806301ffc9a71461014257806302d05d3f146101b4578063061f76501461020b5780630eb930ab146102745780632c39952a146102c5575b005b34801561014e57600080fd5b5061019a6004803603602081101561016557600080fd5b8101908080357bffffffffffffffffffffffffffffffffffffffffffffffffffffffff19169060200190929190505050610e69565b604051808215151515815260200191505060405180910390f35b3480156101c057600080fd5b506101c9610f1a565b604051808273ffffffffffffffffffffffffffffffffffffffff1673ffffffffffffffffffffffffffffffffffffffff16815260200191505060405180910390f35b34801561021757600080fd5b5061025a6004803603602081101561022e57600080fd5b81019080803573ffffffffffffffffffffffffffffffffffffffff169060200190929190505050610f40565b604051808215151515815260200191505060405180910390f35b34801561028057600080fd5b506102c36004803603602081101561029757600080fd5b81019080803573ffffffffffffffffffffffffffffffffffffffff169060200190929190505050610f4b565b005b6103d3600480360360e08110156102db57600080fd5b81019080803590602001906401000000008111156102f857600080fd5b82018360208201111561030a57600080fd5b8035906020019184600183028401116401000000008311171561032c57600080fd5b91908080601f016020809104026020016040519081016040528093929190818152602001838380828437600081840152601f19601f820116905080830192505050505050509192919290803573ffffffffffffffffffffffffffffffffffffffff169060200190929190803560ff16906020019092919080359060200190929190803590602001909291908035906020019092919080359060200190929190505050611165565b005b3480156103e157600080fd5b506104e5600480360360808110156103f857600080fd5b81019080803573ffffffffffffffffffffffffffffffffffffffff169060200190929190803573ffffffffffffffffffffffffffffffffffffffff169060200190929190803590602001909291908035906020019064010000000081111561045f57600080fd5b82018360208201111561047157600080fd5b8035906020019184600183028401116401000000008311171561049357600080fd5b91908080601f016020809104026020016040519081016040528093929190818152602001838380828437600081840152601f19601f8201169050808301925050505050505091929192905050506114eb565b604051808215151515815260200191505060405180910390f35b34801561050b57600080fd5b506105386004803603602081101561052257600080fd5b81019080803590602001909291905050506116d8565b604051808273ffffffffffffffffffffffffffffffffffffffff1673ffffffffffffffffffffffffffffffffffffffff16815260200191505060405180910390f35b34801561058657600080fd5b506106406004803603602081101561059d57600080fd5b81019080803590602001906401000000008111156105ba57600080fd5b8201836020820111156105cc57600080fd5b803590602001918460018302840111640100000000831117156105ee57600080fd5b91908080601f016020809104026020016040519081016040528093929190818152602001838380828437600081840152601f19601f820116905080830192505050505050509192919290505050611714565b005b34801561064e57600080fd5b506106916004803603602081101561066557600080fd5b81019080803573ffffffffffffffffffffffffffffffffffffffff169060200190929190505050611813565b604051808215151515815260200191505060405180910390f35b3480156106b757600080fd5b506106c0611833565b604051808273ffffffffffffffffffffffffffffffffffffffff1673ffffffffffffffffffffffffffffffffffffffff16815260200191505060405180910390f35b34801561070e57600080fd5b50610717611859565b604051808273ffffffffffffffffffffffffffffffffffffffff1673ffffffffffffffffffffffffffffffffffffffff16815260200191505060405180910390f35b34801561076557600080fd5b506107a86004803603602081101561077c57600080fd5b81019080803573ffffffffffffffffffffffffffffffffffffffff16906020019092919050505061187e565b005b3480156107b657600080fd5b506107f9600480360360208110156107cd57600080fd5b81019080803573ffffffffffffffffffffffffffffffffffffffff169060200190929190505050611a79565b005b34801561080757600080fd5b50610810611c93565b6040518082815260200191505060405180910390f35b6109096004803603606081101561083c57600080fd5b810190808035906020019064010000000081111561085957600080fd5b82018360208201111561086b57600080fd5b8035906020019184600183028401116401000000008311171561088d57600080fd5b91908080601f016020809104026020016040519081016040528093929190818152602001838380828437600081840152601f19601f820116905080830192505050505050509192919290803573ffffffffffffffffffffffffffffffffffffffff16906020019092919080359060200190929190505050611c99565b005b34801561091757600080fd5b50610a79600480360360a081101561092e57600080fd5b81019080803573ffffffffffffffffffffffffffffffffffffffff169060200190929190803573ffffffffffffffffffffffffffffffffffffffff1690602001909291908035906020019064010000000081111561098b57600080fd5b82018360208201111561099d57600080fd5b803590602001918460208302840111640100000000831117156109bf57600080fd5b9091929391929390803590602001906401000000008111156109e057600080fd5b8201836020820111156109f257600080fd5b80359060200191846020830284011164010000000083111715610a1457600080fd5b909192939192939080359060200190640100000000811115610a3557600080fd5b820183602082011115610a4757600080fd5b80359060200191846001830284011164010000000083111715610a6957600080fd5b9091929391929390505050611ddd565b60405180827bffffffffffffffffffffffffffffffffffffffffffffffffffffffff19167bffffffffffffffffffffffffffffffffffffffffffffffffffffffff1916815260200191505060405180910390f35b348015610ad957600080fd5b50610ae2611df5565b604051808273ffffffffffffffffffffffffffffffffffffffff1673ffffffffffffffffffffffffffffffffffffffff16815260200191505060405180910390f35b348015610b3057600080fd5b50610b39611e1b565b604051808273ffffffffffffffffffffffffffffffffffffffff1673ffffffffffffffffffffffffffffffffffffffff16815260200191505060405180910390f35b348015610b8757600080fd5b50610bca60048036036020811015610b9e57600080fd5b81019080803573ffffffffffffffffffffffffffffffffffffffff169060200190929190505050611e41565b005b348015610bd857600080fd5b50610be1611f0f565b6040518080602001828103825283818151815260200191508051906020019080838360005b83811015610c21578082015181840152602081019050610c06565b50505050905090810190601f168015610c4e5780820380516001836020036101000a031916815260200191505b509250505060405180910390f35b348015610c6857600080fd5b50610d34600480360360a0811015610c7f57600080fd5b81019080803573ffffffffffffffffffffffffffffffffffffffff169060200190929190803573ffffffffffffffffffffffffffffffffffffffff169060200190929190803590602001909291908035906020019092919080359060200190640100000000811115610cf057600080fd5b820183602082011115610d0257600080fd5b80359060200191846001830284011164010000000083111715610d2457600080fd5b9091929391929390505050612084565b60405180827bffffffffffffffffffffffffffffffffffffffffffffffffffffffff19167bffffffffffffffffffffffffffffffffffffffffffffffffffffffff1916815260200191505060405180910390f35b348015610d9457600080fd5b50610d9d61209a565b6040518080602001828103825283818151815260200191508051906020019080838360005b83811015610ddd578082015181840152602081019050610dc2565b50505050905090810190601f168015610e0a5780820380516001836020036101000a031916815260200191505b509250505060405180910390f35b348015610e2457600080fd5b50610e6760048036036020811015610e3b57600080fd5b81019080803573ffffffffffffffffffffffffffffffffffffffff169060200190929190505050612138565b005b60006301ffc9a760e01b7bffffffffffffffffffffffffffffffffffffffffffffffffffffffff1916827bffffffffffffffffffffffffffffffffffffffffffffffffffffffff19161480610f025750634e2312e060e01b7bffffffffffffffffffffffffffffffffffffffffffffffffffffffff1916827bffffffffffffffffffffffffffffffffffffffffffffffffffffffff1916145b15610f105760019050610f15565b600090505b919050565b600160009054906101000a900473ffffffffffffffffffffffffffffffffffffffff1681565b600060019050919050565b6000809054906101000a900473ffffffffffffffffffffffffffffffffffffffff1673ffffffffffffffffffffffffffffffffffffffff163373ffffffffffffffffffffffffffffffffffffffff161480610fef5750601160003373ffffffffffffffffffffffffffffffffffffffff1673ffffffffffffffffffffffffffffffffffffffff16815260200190815260200160002060009054906101000a900460ff165b611044576040517f08c379a00000000000000000000000000000000000000000000000000000000081526004018080602001828103825260338152602001806125576033913960400191505060405180910390fd5b6001601160008373ffffffffffffffffffffffffffffffffffffffff1673ffffffffffffffffffffffffffffffffffffffff16815260200190815260200160002060006101000a81548160ff021916908315150217905550600460009054906101000a900473ffffffffffffffffffffffffffffffffffffffff1673ffffffffffffffffffffffffffffffffffffffff1663a22cb4658260016040518363ffffffff1660e01b8152600401808373ffffffffffffffffffffffffffffffffffffffff1673ffffffffffffffffffffffffffffffffffffffff1681526020018215151515815260200192505050600060405180830381600087803b15801561114a57600080fd5b505af115801561115e573d6000803e3d6000fd5b5050505050565b60008787848460405160200180806020018573ffffffffffffffffffffffffffffffffffffffff1673ffffffffffffffffffffffffffffffffffffffff168152602001848152602001838152602001828103825286818151815260200191508051906020019080838360005b838110156111ec5780820151818401526020810190506111d1565b50505050905090810190601f1680156112195780820380516001836020036101000a031916815260200191505b5095505050505050604051602081830303815290604052805190602001209050600015156007600083815260200190815260200160002060009054906101000a900460ff161515146112b6576040517f08c379a00000000000000000000000000000000000000000000000000000000081526004018080602001828103825260268152602001806125316026913960400191505060405180910390fd5b60016007600083815260200190815260200160002060006101000a81548160ff02191690831515021790555060008160405160200180807f19457468657265756d205369676e6564204d6573736167653a0a333200000000815250601c01828152602001915050604051602081830303815290604052805190602001209050600060018289898960405160008152602001604052604051808581526020018460ff1660ff1681526020018381526020018281526020019450505050506020604051602081039080840390855afa158015611394573d6000803e3d6000fd5b5050506020604051035190506000809054906101000a900473ffffffffffffffffffffffffffffffffffffffff1673ffffffffffffffffffffffffffffffffffffffff168173ffffffffffffffffffffffffffffffffffffffff1614611462576040517f08c379a00000000000000000000000000000000000000000000000000000000081526004018080602001828103825260168152602001807f5369676e6174757265206973206e6f742076616c69640000000000000000000081525060200191505060405180910390fd5b61146d8a8a87612312565b6114df576040517f08c379a00000000000000000000000000000000000000000000000000000000081526004018080602001828103825260168152602001807f43616e27742073656e64207472616e73616374696f6e0000000000000000000081525060200191505060405180910390fd5b50505050505050505050565b60006114f633610f40565b61150357600090506116d0565b6001600e60006101000a81548160ff02191690831515021790555060003073ffffffffffffffffffffffffffffffffffffffff16836040518082805190602001908083835b6020831061156b5780518252602082019150602081019050602083039250611548565b6001836020036101000a038019825116818451168082178552505050505050905001915050600060405180830381855af49150503d80600081146115cb576040519150601f19603f3d011682016040523d82523d6000602084013e6115d0565b606091505b505090506000600e60006101000a81548160ff0219169083151502179055507feab9f6c333c4c219217a67230a9af8a2e860061556fa026945860d2c885d60fe8382336040518080602001841515151581526020018373ffffffffffffffffffffffffffffffffffffffff1673ffffffffffffffffffffffffffffffffffffffff168152602001828103825285818151815260200191508051906020019080838360005b8381101561168f578082015181840152602081019050611674565b50505050905090810190601f1680156116bc5780820380516001836020036101000a031916815260200191505b5094505050505060405180910390a1809150505b949350505050565b600281815481106116e557fe5b906000526020600020016000915054906101000a900473ffffffffffffffffffffffffffffffffffffffff1681565b600460009054906101000a900473ffffffffffffffffffffffffffffffffffffffff1673ffffffffffffffffffffffffffffffffffffffff166305751204601054836040518363ffffffff1660e01b81526004018083815260200180602001828103825283818151815260200191508051906020019080838360005b838110156117ab578082015181840152602081019050611790565b50505050905090810190601f1680156117d85780820380516001836020036101000a031916815260200191505b509350505050600060405180830381600087803b1580156117f857600080fd5b505af115801561180c573d6000803e3d6000fd5b5050505050565b60116020528060005260406000206000915054906101000a900460ff1681565b600360009054906101000a900473ffffffffffffffffffffffffffffffffffffffff1681565b6000809054906101000a900473ffffffffffffffffffffffffffffffffffffffff1681565b6000809054906101000a900473ffffffffffffffffffffffffffffffffffffffff1673ffffffffffffffffffffffffffffffffffffffff163373ffffffffffffffffffffffffffffffffffffffff1614806119225750601160003373ffffffffffffffffffffffffffffffffffffffff1673ffffffffffffffffffffffffffffffffffffffff16815260200190815260200160002060009054906101000a900460ff165b611977576040517f08c379a00000000000000000000000000000000000000000000000000000000081526004018080602001828103825260338152602001806125576033913960400191505060405180910390fd5b806000806101000a81548173ffffffffffffffffffffffffffffffffffffffff021916908373ffffffffffffffffffffffffffffffffffffffff1602179055506000600560009054906101000a900473ffffffffffffffffffffffffffffffffffffffff1690508073ffffffffffffffffffffffffffffffffffffffff16638fb84af9836040518263ffffffff1660e01b8152600401808273ffffffffffffffffffffffffffffffffffffffff1673ffffffffffffffffffffffffffffffffffffffff168152602001915050600060405180830381600087803b158015611a5d57600080fd5b505af1158015611a71573d6000803e3d6000fd5b505050505050565b6000809054906101000a900473ffffffffffffffffffffffffffffffffffffffff1673ffffffffffffffffffffffffffffffffffffffff163373ffffffffffffffffffffffffffffffffffffffff161480611b1d5750601160003373ffffffffffffffffffffffffffffffffffffffff1673ffffffffffffffffffffffffffffffffffffffff16815260200190815260200160002060009054906101000a900460ff165b611b72576040517f08c379a00000000000000000000000000000000000000000000000000000000081526004018080602001828103825260338152602001806125576033913960400191505060405180910390fd5b6000601160008373ffffffffffffffffffffffffffffffffffffffff1673ffffffffffffffffffffffffffffffffffffffff16815260200190815260200160002060006101000a81548160ff021916908315150217905550600460009054906101000a900473ffffffffffffffffffffffffffffffffffffffff1673ffffffffffffffffffffffffffffffffffffffff1663a22cb4658260006040518363ffffffff1660e01b8152600401808373ffffffffffffffffffffffffffffffffffffffff1673ffffffffffffffffffffffffffffffffffffffff1681526020018215151515815260200192505050600060405180830381600087803b158015611c7857600080fd5b505af1158015611c8c573d6000803e3d6000fd5b5050505050565b60105481565b6000809054906101000a900473ffffffffffffffffffffffffffffffffffffffff1673ffffffffffffffffffffffffffffffffffffffff163373ffffffffffffffffffffffffffffffffffffffff1614611d5b576040517f08c379a00000000000000000000000000000000000000000000000000000000081526004018080602001828103825260128152602001807f4f6e6c79206f776e657220616c6c6f776564000000000000000000000000000081525060200191505060405180910390fd5b611d66838383612312565b611dd8576040517f08c379a00000000000000000000000000000000000000000000000000000000081526004018080602001828103825260168152602001807f43616e27742073656e64207472616e73616374696f6e0000000000000000000081525060200191505060405180910390fd5b505050565b600063bc197c8160e01b905098975050505050505050565b600560009054906101000a900473ffffffffffffffffffffffffffffffffffffffff1681565b600460009054906101000a900473ffffffffffffffffffffffffffffffffffffffff1681565b6000809054906101000a900473ffffffffffffffffffffffffffffffffffffffff1673ffffffffffffffffffffffffffffffffffffffff163373ffffffffffffffffffffffffffffffffffffffff1614611f03576040517f08c379a00000000000000000000000000000000000000000000000000000000081526004018080602001828103825260128152602001807f4f6e6c79206f776e657220616c6c6f776564000000000000000000000000000081525060200191505060405180910390fd5b611f0c8161240e565b50565b6060600460009054906101000a900473ffffffffffffffffffffffffffffffffffffffff1673ffffffffffffffffffffffffffffffffffffffff16630e89341c6010546040518263ffffffff1660e01b81526004018082815260200191505060006040518083038186803b158015611f8657600080fd5b505afa158015611f9a573d6000803e3d6000fd5b505050506040513d6000823e3d601f19601f820116820180604052506020811015611fc457600080fd5b8101908080516040519392919084640100000000821115611fe457600080fd5b83820191506020820185811115611ffa57600080fd5b825186600182028301116401000000008211171561201757600080fd5b8083526020830192505050908051906020019080838360005b8381101561204b578082015181840152602081019050612030565b50505050905090810190601f1680156120785780820380516001836020036101000a031916815260200191505b50604052505050905090565b600063f23a6e6160e01b90509695505050505050565b600f8054600181600116156101000203166002900480601f0160208091040260200160405190810160405280929190818152602001828054600181600116156101000203166002900480156121305780601f1061210557610100808354040283529160200191612130565b820191906000526020600020905b81548152906001019060200180831161211357829003601f168201915b505050505081565b6000809054906101000a900473ffffffffffffffffffffffffffffffffffffffff1673ffffffffffffffffffffffffffffffffffffffff163373ffffffffffffffffffffffffffffffffffffffff16146121fa576040517f08c379a00000000000000000000000000000000000000000000000000000000081526004018080602001828103825260128152602001807f4f6e6c79206f776e657220616c6c6f776564000000000000000000000000000081525060200191505060405180910390fd5b600360009054906101000a900473ffffffffffffffffffffffffffffffffffffffff1673ffffffffffffffffffffffffffffffffffffffff166380b29f7c30836040518363ffffffff1660e01b8152600401808373ffffffffffffffffffffffffffffffffffffffff1673ffffffffffffffffffffffffffffffffffffffff168152602001807f73696741757468000000000000000000000000000000000000000000000000008152506020018273ffffffffffffffffffffffffffffffffffffffff1673ffffffffffffffffffffffffffffffffffffffff16815260200192505050600060405180830381600087803b1580156122f757600080fd5b505af115801561230b573d6000803e3d6000fd5b5050505050565b60006060849050600081519050600080826020850187895af192507f7e4155ee9daec547578a255f7495bc08f38796f4d4a3be4ed7189f4fc55cb18586868660405180806020018473ffffffffffffffffffffffffffffffffffffffff1673ffffffffffffffffffffffffffffffffffffffff168152602001838152602001828103825285818151815260200191508051906020019080838360005b838110156123c95780820151818401526020810190506123ae565b50505050905090810190601f1680156123f65780820380516001836020036101000a031916815260200191505b5094505050505060405180910390a150509392505050565b600360009054906101000a900473ffffffffffffffffffffffffffffffffffffffff1673ffffffffffffffffffffffffffffffffffffffff1663a7068d6630836006546040518463ffffffff1660e01b8152600401808473ffffffffffffffffffffffffffffffffffffffff1673ffffffffffffffffffffffffffffffffffffffff168152602001807f73696741757468000000000000000000000000000000000000000000000000008152506020018373ffffffffffffffffffffffffffffffffffffffff1673ffffffffffffffffffffffffffffffffffffffff1681526020018281526020019350505050600060405180830381600087803b15801561251557600080fd5b505af1158015612529573d6000803e3d6000fd5b505050505056fe54686973207472616e73616374696f6e2068617320616c7265616479206265656e2073656e7450726f78794964656e746974793a204f6e6c79206f776e6572206f7220617070726f766564206167656e7420616c6c6f776564a265627a7a72315820f878da11799559c8a2530bd2b005adad45688e0a3bafd661e2bba2289a8dad4964736f6c63430005110032",
  "source": "pragma solidity ^0.5.0;\n\nimport \"multi-token-standard/contracts/interfaces/IERC165.sol\";\nimport \"multi-token-standard/contracts/interfaces/IERC1155.sol\";\nimport \"multi-token-standard/contracts/interfaces/IERC1155TokenReceiver.sol\";\nimport \"./interfaces/IERC223Receiver.sol\";\nimport \"./interfaces/IERC223.sol\";\nimport \"./tokens/ERC1155Multiproxy.sol\";\n\ninterface IERC1056 {\n  function addDelegate(\n    address identity,\n    bytes32 delegateType,\n    address delegate,\n    uint256 validity\n  ) external;\n\n  function revokeDelegate(\n    address identity,\n    bytes32 delegateType,\n    address delegate\n  ) external;\n}\n\ninterface ProxyFactory {\n  function proxyOwnerChanged(address newOwner) external;\n}\n\ncontract ProxyIdentity is IERC1155TokenReceiver, IERC165, IERC223Receiver {\n  address public owner;\n  address public creator;\n  address[] public agents;\n  address public erc1056;\n  address public erc1155;\n  address public factory;\n  uint256 defaultValidity = 2**256 - 1;\n  mapping(bytes32 => bool) digests;\n  bytes4 internal constant ERC1155_ACCEPTED = 0xf23a6e61;\n  bytes4 internal constant ERC1155_BATCH_ACCEPTED = 0xbc197c81;\n  Tkn tkn;\n  bool __isTokenFallback;\n  string public serial;\n  uint256 public id;\n  mapping(address => bool) public isApproved;\n\n  struct Tkn {\n    address addr;\n    address sender;\n    address origin;\n    uint256 value;\n    bytes data;\n    bytes4 sig;\n  }\n\n  event TransactionSent(bytes data, address to, uint256 value);\n  event ApprovedAgentAdded(address agent);\n  event ApprovedAgentRemoved(address agent);\n\n  constructor(\n    address _erc1056,\n    address _erc1155,\n    string memory _serial,\n    address _creator\n  ) public {\n    erc1056 = _erc1056;\n    erc1155 = _erc1155;\n    serial = _serial;\n    creator = _creator;\n    owner = _creator;\n    id = ERC1155Multiproxy(_erc1155).tokenCount();\n    ERC1155Multiproxy(_erc1155).mint(id);\n    _addDelegate(_creator);\n    isApproved[msg.sender] = true;\n    factory = msg.sender;\n  }\n\n  modifier _owner() {\n    require(msg.sender == owner, \"Only owner allowed\");\n    _;\n  }\n\n  modifier isOwnerOrApproved() {\n    require(\n      msg.sender == owner || isApproved[msg.sender],\n      \"ProxyIdentity: Only owner or approved agent allowed\"\n    );\n    _;\n  }\n\n  modifier tokenPayable {\n    if (!__isTokenFallback)\n      revert(\"Method can be invoked only as part of ERC223 transfer\");\n    _;\n  }\n\n  function sendTransaction(\n    bytes memory _data,\n    address to,\n    uint256 value\n  ) public payable _owner() {\n    require(_sendTransaction(_data, to, value), \"Can't send transaction\");\n  }\n\n  function sendSignedTransaction(\n    bytes memory data,\n    address to,\n    uint8 v,\n    bytes32 r,\n    bytes32 s,\n    uint256 value,\n    uint256 nonce\n  ) public payable {\n    bytes32 digest = keccak256(abi.encode(data, to, value, nonce));\n    require(digests[digest] == false, \"This transaction has already been sent\");\n    digests[digest] = true;\n    bytes32 hash = keccak256(\n      abi.encodePacked(\"\\x19Ethereum Signed Message:\\n32\", digest)\n    );\n    address signer = ecrecover(hash, v, r, s);\n    require(\n      signer == owner,\n      \"Signature is not valid\"\n    );\n    require(_sendTransaction(data, to, value), \"Can't send transaction\");\n  }\n\n  function addDelegate(address delegate) public _owner() {\n    _addDelegate(delegate);\n  }\n\n  function revokeDelegate(address delegate) public _owner() {\n    IERC1056(erc1056).revokeDelegate(address(this), \"sigAuth\", delegate);\n  }\n\n  function changeOwner(address newOwner) public isOwnerOrApproved {\n    owner = newOwner;\n    ProxyFactory proxyFactory = ProxyFactory(factory);\n    proxyFactory.proxyOwnerChanged(newOwner);\n  }\n\n  function addApprovedAgent(address agent) public isOwnerOrApproved {\n    isApproved[agent] = true;\n    ERC1155Multiproxy(erc1155).setApprovalForAll(agent, true);\n  }\n\n  function removeApprovedAgent(address agent) public isOwnerOrApproved {\n    isApproved[agent] = false;\n    ERC1155Multiproxy(erc1155).setApprovalForAll(agent, false);\n  }\n\n  function uri() public view returns (string memory) {\n    return ERC1155Multiproxy(erc1155).uri(id);\n  }\n\n  function updateUri(string memory _uri) public {\n    ERC1155Multiproxy(erc1155).updateUri(id, _uri);\n  }\n\n  function onERC1155Received(\n    address _operator,\n    address _from,\n    uint256 _id,\n    uint256 _value,\n    bytes calldata _data\n  ) external returns (bytes4) {\n    return ERC1155_ACCEPTED;\n  }\n\n  function onERC1155BatchReceived(\n    address _operator,\n    address _from,\n    uint256[] calldata _ids,\n    uint256[] calldata _values,\n    bytes calldata _data\n  ) external returns (bytes4) {\n    return ERC1155_BATCH_ACCEPTED;\n  }\n\n  function _sendTransaction(\n    bytes memory _data,\n    address to,\n    uint256 value\n  ) internal returns (bool success) {\n    bytes memory data = _data;\n    uint256 len = data.length;\n    // solium-disable-next-line security/no-inline-assembly\n    assembly {\n      success := call(gas, to, value, add(data, 0x20), len, 0, 0)\n    }\n    emit TransactionSent(_data, to, value);\n  }\n\n  function _addDelegate(address delegate) internal {\n    IERC1056(erc1056).addDelegate(\n      address(this),\n      \"sigAuth\",\n      delegate,\n      defaultValidity\n    );\n  }\n\n  /**\n   * INTERFACE_SIGNATURE_ERC165 = bytes4(keccak256(\"supportsInterface(bytes4)\"));\n   */\n  bytes4 private constant INTERFACE_SIGNATURE_ERC165 = 0x01ffc9a7;\n\n  /**\n   * bytes4(keccak256(\"onERC1155Received(address,address,uint256,uint256,bytes)\"))^bytes4(keccak256(\"onERC1155BatchReceived(address,address,uint256[],uint256[],bytes)\"))\n   */\n  bytes4 private constant INTERFACE_SIGNATURE_ERC1155TOKENRECEIVER = 0x4e2312e0;\n\n  /**\n   * @notice Query if a contract implements an interface\n   * @param _interfaceID  The interface identifier, as specified in ERC-165\n   * @return `true` if the contract implements `_interfaceID` and\n   */\n  function supportsInterface(bytes4 _interfaceID) external view returns (bool) {\n    if (\n      _interfaceID == INTERFACE_SIGNATURE_ERC165 ||\n      _interfaceID == INTERFACE_SIGNATURE_ERC1155TOKENRECEIVER\n    ) {\n      return true;\n    }\n    return false;\n  }\n\n  event CallbackOnTransfer(bytes data, bool success, address sender);\n\n  function tokenFallback(\n    address _sender,\n    address _origin,\n    uint256 _value,\n    bytes memory _data\n  ) public returns (bool) {\n    if (!supportsToken(msg.sender)) return false;\n    __isTokenFallback = true;\n    // solium-disable-next-line security/no-low-level-calls\n    (bool success, ) = address(this).delegatecall(_data);\n    __isTokenFallback = false;\n    emit CallbackOnTransfer(_data, success, msg.sender);\n    return success;\n  }\n\n  function getSig(bytes memory _data) private pure returns (bytes4 sig) {\n    uint256 l = _data.length < 4 ? _data.length : 4;\n    for (uint256 i = 0; i < l; i++) {\n      sig = bytes4(\n        uint32(uint32(sig) + uint8(_data[i]) * (2**(8 * (l - 1 - i))))\n      );\n    }\n  }\n\n  function supportsToken(address token) public pure returns (bool) {\n    return true;\n  }\n\n  function() external payable {}\n}\n",
  "sourcePath": "/home/dima/Development/ew-did-registry/packages/proxyIdentity/contracts/proxyIdentity.sol",
  "compiler": {
    "name": "solc",
    "version": "0.5.17+commit.d19bba13.Emscripten.clang"
  },
  "schemaVersion": "3.0.16",
  "updatedAt": "2020-11-10T07:53:33.365Z",
  "devdoc": {
    "methods": {
      "supportsInterface(bytes4)": {
        "params": {
          "_interfaceID": "The interface identifier, as specified in ERC-165"
        },
        "return": "`true` if the contract implements `_interfaceID` and"
      }
    }
  },
  "userdoc": {
    "methods": {
      "supportsInterface(bytes4)": {
        "notice": "Query if a contract implements an interface"
      }
    }
  }
}