{
  "contractName": "ProxyFactory",
  "abi": [
    {
      "inputs": [
        {
          "internalType": "address",
          "name": "_erc1056",
          "type": "address"
        }
      ],
      "payable": false,
      "stateMutability": "nonpayable",
      "type": "constructor"
    },
    {
      "anonymous": false,
      "inputs": [
        {
          "indexed": false,
          "internalType": "address",
          "name": "proxy",
          "type": "address"
        }
      ],
      "name": "ProxyCreated",
      "type": "event"
    },
    {
      "constant": false,
      "inputs": [],
      "name": "create",
      "outputs": [
        {
          "internalType": "address",
          "name": "",
          "type": "address"
        }
      ],
      "payable": false,
      "stateMutability": "nonpayable",
      "type": "function"
    }
  ],
  "bytecode": "0x608060405234801561001057600080fd5b50604051612d7a380380612d7a8339818101604052602081101561003357600080fd5b8101908080519060200190929190505050806000806101000a81548173ffffffffffffffffffffffffffffffffffffffff021916908373ffffffffffffffffffffffffffffffffffffffff16021790555050612ce6806100946000396000f3fe608060405234801561001057600080fd5b506004361061002b5760003560e01c8063efc81a8c14610030575b600080fd5b61003861007a565b604051808273ffffffffffffffffffffffffffffffffffffffff1673ffffffffffffffffffffffffffffffffffffffff16815260200191505060405180910390f35b6000806000809054906101000a900473ffffffffffffffffffffffffffffffffffffffff166040516100ab90610266565b808273ffffffffffffffffffffffffffffffffffffffff1673ffffffffffffffffffffffffffffffffffffffff168152602001915050604051809103906000f0801580156100fd573d6000803e3d6000fd5b50905060018190806001815401808255809150509060018203906000526020600020016000909192909190916101000a81548173ffffffffffffffffffffffffffffffffffffffff021916908373ffffffffffffffffffffffffffffffffffffffff160217905550508073ffffffffffffffffffffffffffffffffffffffff1663a6f9dae1336040518263ffffffff1660e01b8152600401808273ffffffffffffffffffffffffffffffffffffffff1673ffffffffffffffffffffffffffffffffffffffff168152602001915050600060405180830381600087803b1580156101e557600080fd5b505af11580156101f9573d6000803e3d6000fd5b505050507efffc2da0b561cae30d9826d37709e9421c4725faebc226cbbb7ef5fc5e734981604051808273ffffffffffffffffffffffffffffffffffffffff1673ffffffffffffffffffffffffffffffffffffffff16815260200191505060405180910390a18091505090565b612a3e806102748339019056fe60806040527fffffffffffffffffffffffffffffffffffffffffffffffffffffffffffffffff6004553480156200003557600080fd5b5060405162002a3e38038062002a3e833981810160405260208110156200005b57600080fd5b810190808051906020019092919050505080600260006101000a81548173ffffffffffffffffffffffffffffffffffffffff021916908373ffffffffffffffffffffffffffffffffffffffff160217905550336000806101000a81548173ffffffffffffffffffffffffffffffffffffffff021916908373ffffffffffffffffffffffffffffffffffffffff160217905550620000fe336200010560201b60201c565b506200077a565b6000600160009054906101000a900473ffffffffffffffffffffffffffffffffffffffff169050600073ffffffffffffffffffffffffffffffffffffffff16600160009054906101000a900473ffffffffffffffffffffffffffffffffffffffff1673ffffffffffffffffffffffffffffffffffffffff1614620001ea57620001b6600160009054906101000a900473ffffffffffffffffffffffffffffffffffffffff166200031c60201b60201c565b620001e9600160009054906101000a900473ffffffffffffffffffffffffffffffffffffffff166200047e60201b60201c565b5b81600160006101000a81548173ffffffffffffffffffffffffffffffffffffffff021916908373ffffffffffffffffffffffffffffffffffffffff1602179055506200023c826200059860201b60201c565b6200024d826200065660201b60201c565b7f381c0d11398486654573703c51ee8210ce9461764d133f9f0e53b6a539705331308284604051808473ffffffffffffffffffffffffffffffffffffffff1673ffffffffffffffffffffffffffffffffffffffff1681526020018373ffffffffffffffffffffffffffffffffffffffff1673ffffffffffffffffffffffffffffffffffffffff1681526020018273ffffffffffffffffffffffffffffffffffffffff1673ffffffffffffffffffffffffffffffffffffffff168152602001935050505060405180910390a15050565b600360003373ffffffffffffffffffffffffffffffffffffffff1673ffffffffffffffffffffffffffffffffffffffff16815260200190815260200160002060009054906101000a900460ff16620003c0576040517f08c379a000000000000000000000000000000000000000000000000000000000815260040180806020018281038252602881526020018062002a166028913960400191505060405180910390fd5b6000600360008373ffffffffffffffffffffffffffffffffffffffff1673ffffffffffffffffffffffffffffffffffffffff16815260200190815260200160002060006101000a81548160ff0219169083151502179055507f093e9dd739d1f91d7e97be3e57001ee88d407f8e8870d3a7762c9be45a8f332b81604051808273ffffffffffffffffffffffffffffffffffffffff1673ffffffffffffffffffffffffffffffffffffffff16815260200191505060405180910390a150565b600260009054906101000a900473ffffffffffffffffffffffffffffffffffffffff1673ffffffffffffffffffffffffffffffffffffffff166380b29f7c30836040518363ffffffff1660e01b8152600401808373ffffffffffffffffffffffffffffffffffffffff1673ffffffffffffffffffffffffffffffffffffffff168152602001807f73696741757468000000000000000000000000000000000000000000000000008152506020018273ffffffffffffffffffffffffffffffffffffffff1673ffffffffffffffffffffffffffffffffffffffff16815260200192505050600060405180830381600087803b1580156200057c57600080fd5b505af115801562000591573d6000803e3d6000fd5b5050505050565b6001600360008373ffffffffffffffffffffffffffffffffffffffff1673ffffffffffffffffffffffffffffffffffffffff16815260200190815260200160002060006101000a81548160ff0219169083151502179055507f1f7c2db6dd3d6d717291d1194e259472b27b4107ed6368b58b18bb9c2f2d954581604051808273ffffffffffffffffffffffffffffffffffffffff1673ffffffffffffffffffffffffffffffffffffffff16815260200191505060405180910390a150565b600260009054906101000a900473ffffffffffffffffffffffffffffffffffffffff1673ffffffffffffffffffffffffffffffffffffffff1663a7068d6630836004546040518463ffffffff1660e01b8152600401808473ffffffffffffffffffffffffffffffffffffffff1673ffffffffffffffffffffffffffffffffffffffff168152602001807f73696741757468000000000000000000000000000000000000000000000000008152506020018373ffffffffffffffffffffffffffffffffffffffff1673ffffffffffffffffffffffffffffffffffffffff1681526020018281526020019350505050600060405180830381600087803b1580156200075e57600080fd5b505af115801562000773573d6000803e3d6000fd5b5050505050565b61228c806200078a6000396000f3fe6080604052600436106100dd5760003560e01c80638da5cb5b1161007f578063bc197c8111610059578063bc197c8114610680578063c8777b5014610842578063db01405514610893578063f23a6e61146108fc576100dd565b80638da5cb5b146104f3578063a6f9dae11461054a578063bbc018571461059b576100dd565b80632c39952a116100bb5780632c39952a146102115780634c123019146103215780637489453d1461044b57806384eb68fb1461049c576100dd565b806301ffc9a7146100df57806302d05d3f14610151578063061f7650146101a8575b005b3480156100eb57600080fd5b506101376004803603602081101561010257600080fd5b8101908080357bffffffffffffffffffffffffffffffffffffffffffffffffffffffff19169060200190929190505050610a28565b604051808215151515815260200191505060405180910390f35b34801561015d57600080fd5b50610166610ad9565b604051808273ffffffffffffffffffffffffffffffffffffffff1673ffffffffffffffffffffffffffffffffffffffff16815260200191505060405180910390f35b3480156101b457600080fd5b506101f7600480360360208110156101cb57600080fd5b81019080803573ffffffffffffffffffffffffffffffffffffffff169060200190929190505050610afe565b604051808215151515815260200191505060405180910390f35b61031f600480360360e081101561022757600080fd5b810190808035906020019064010000000081111561024457600080fd5b82018360208201111561025657600080fd5b8035906020019184600183028401116401000000008311171561027857600080fd5b91908080601f016020809104026020016040519081016040528093929190818152602001838380828437600081840152601f19601f820116905080830192505050505050509192919290803573ffffffffffffffffffffffffffffffffffffffff169060200190929190803560ff16906020019092919080359060200190929190803590602001909291908035906020019092919080359060200190929190505050610b09565b005b34801561032d57600080fd5b506104316004803603608081101561034457600080fd5b81019080803573ffffffffffffffffffffffffffffffffffffffff169060200190929190803573ffffffffffffffffffffffffffffffffffffffff16906020019092919080359060200190929190803590602001906401000000008111156103ab57600080fd5b8201836020820111156103bd57600080fd5b803590602001918460018302840111640100000000831117156103df57600080fd5b91908080601f016020809104026020016040519081016040528093929190818152602001838380828437600081840152601f19601f820116905080830192505050505050509192919290505050610e90565b604051808215151515815260200191505060405180910390f35b34801561045757600080fd5b5061049a6004803603602081101561046e57600080fd5b81019080803573ffffffffffffffffffffffffffffffffffffffff16906020019092919050505061138a565b005b3480156104a857600080fd5b506104b1611459565b604051808273ffffffffffffffffffffffffffffffffffffffff1673ffffffffffffffffffffffffffffffffffffffff16815260200191505060405180910390f35b3480156104ff57600080fd5b5061050861147f565b604051808273ffffffffffffffffffffffffffffffffffffffff1673ffffffffffffffffffffffffffffffffffffffff16815260200191505060405180910390f35b34801561055657600080fd5b506105996004803603602081101561056d57600080fd5b81019080803573ffffffffffffffffffffffffffffffffffffffff1690602001909291905050506114a5565b005b61067e600480360360608110156105b157600080fd5b81019080803590602001906401000000008111156105ce57600080fd5b8201836020820111156105e057600080fd5b8035906020019184600183028401116401000000008311171561060257600080fd5b91908080601f016020809104026020016040519081016040528093929190818152602001838380828437600081840152601f19601f820116905080830192505050505050509192919290803573ffffffffffffffffffffffffffffffffffffffff16906020019092919080359060200190929190505050611553565b005b34801561068c57600080fd5b506107ee600480360360a08110156106a357600080fd5b81019080803573ffffffffffffffffffffffffffffffffffffffff169060200190929190803573ffffffffffffffffffffffffffffffffffffffff1690602001909291908035906020019064010000000081111561070057600080fd5b82018360208201111561071257600080fd5b8035906020019184602083028401116401000000008311171561073457600080fd5b90919293919293908035906020019064010000000081111561075557600080fd5b82018360208201111561076757600080fd5b8035906020019184602083028401116401000000008311171561078957600080fd5b9091929391929390803590602001906401000000008111156107aa57600080fd5b8201836020820111156107bc57600080fd5b803590602001918460018302840111640100000000831117156107de57600080fd5b9091929391929390505050611698565b60405180827bffffffffffffffffffffffffffffffffffffffffffffffffffffffff19167bffffffffffffffffffffffffffffffffffffffffffffffffffffffff1916815260200191505060405180910390f35b34801561084e57600080fd5b506108916004803603602081101561086557600080fd5b81019080803573ffffffffffffffffffffffffffffffffffffffff16906020019092919050505061183f565b005b34801561089f57600080fd5b506108e2600480360360208110156108b657600080fd5b81019080803573ffffffffffffffffffffffffffffffffffffffff16906020019092919050505061199f565b604051808215151515815260200191505060405180910390f35b34801561090857600080fd5b506109d4600480360360a081101561091f57600080fd5b81019080803573ffffffffffffffffffffffffffffffffffffffff169060200190929190803573ffffffffffffffffffffffffffffffffffffffff16906020019092919080359060200190929190803590602001909291908035906020019064010000000081111561099057600080fd5b8201836020820111156109a257600080fd5b803590602001918460018302840111640100000000831117156109c457600080fd5b90919293919293905050506119bf565b60405180827bffffffffffffffffffffffffffffffffffffffffffffffffffffffff19167bffffffffffffffffffffffffffffffffffffffffffffffffffffffff1916815260200191505060405180910390f35b60006301ffc9a760e01b7bffffffffffffffffffffffffffffffffffffffffffffffffffffffff1916827bffffffffffffffffffffffffffffffffffffffffffffffffffffffff19161480610ac15750634e2312e060e01b7bffffffffffffffffffffffffffffffffffffffffffffffffffffffff1916827bffffffffffffffffffffffffffffffffffffffffffffffffffffffff1916145b15610acf5760019050610ad4565b600090505b919050565b6000809054906101000a900473ffffffffffffffffffffffffffffffffffffffff1681565b600060019050919050565b60008787848460405160200180806020018573ffffffffffffffffffffffffffffffffffffffff1673ffffffffffffffffffffffffffffffffffffffff168152602001848152602001838152602001828103825286818151815260200191508051906020019080838360005b83811015610b90578082015181840152602081019050610b75565b50505050905090810190601f168015610bbd5780820380516001836020036101000a031916815260200191505b5095505050505050604051602081830303815290604052805190602001209050600015156005600083815260200190815260200160002060009054906101000a900460ff16151514610c5a576040517f08c379a000000000000000000000000000000000000000000000000000000000815260040180806020018281038252602681526020018061220a6026913960400191505060405180910390fd5b60016005600083815260200190815260200160002060006101000a81548160ff02191690831515021790555060008160405160200180807f19457468657265756d205369676e6564204d6573736167653a0a333200000000815250601c01828152602001915050604051602081830303815290604052805190602001209050600060018289898960405160008152602001604052604051808581526020018460ff1660ff1681526020018381526020018281526020019450505050506020604051602081039080840390855afa158015610d38573d6000803e3d6000fd5b5050506020604051035190508073ffffffffffffffffffffffffffffffffffffffff16600160009054906101000a900473ffffffffffffffffffffffffffffffffffffffff1673ffffffffffffffffffffffffffffffffffffffff1614610e07576040517f08c379a00000000000000000000000000000000000000000000000000000000081526004018080602001828103825260168152602001807f5369676e6174757265206973206e6f742076616c69640000000000000000000081525060200191505060405180910390fd5b610e128a8a87611b06565b610e84576040517f08c379a00000000000000000000000000000000000000000000000000000000081526004018080602001828103825260168152602001807f43616e27742073656e64207472616e73616374696f6e0000000000000000000081525060200191505060405180910390fd5b50505050505050505050565b6000610e9b33610afe565b610ea85760009050611382565b3373ffffffffffffffffffffffffffffffffffffffff1663be45fd62600160009054906101000a900473ffffffffffffffffffffffffffffffffffffffff1685856040518463ffffffff1660e01b8152600401808473ffffffffffffffffffffffffffffffffffffffff1673ffffffffffffffffffffffffffffffffffffffff16815260200183815260200180602001828103825283818151815260200191508051906020019080838360005b83811015610f70578082015181840152602081019050610f55565b50505050905090810190601f168015610f9d5780820380516001836020036101000a031916815260200191505b50945050505050602060405180830381600087803b158015610fbe57600080fd5b505af1158015610fd2573d6000803e3d6000fd5b505050506040513d6020811015610fe857600080fd5b8101908080519060200190929190505050506040518060c001604052803373ffffffffffffffffffffffffffffffffffffffff1681526020018673ffffffffffffffffffffffffffffffffffffffff1681526020018573ffffffffffffffffffffffffffffffffffffffff16815260200184815260200183815260200161106e84611c02565b7bffffffffffffffffffffffffffffffffffffffffffffffffffffffff1916815250600660008201518160000160006101000a81548173ffffffffffffffffffffffffffffffffffffffff021916908373ffffffffffffffffffffffffffffffffffffffff16021790555060208201518160010160006101000a81548173ffffffffffffffffffffffffffffffffffffffff021916908373ffffffffffffffffffffffffffffffffffffffff16021790555060408201518160020160006101000a81548173ffffffffffffffffffffffffffffffffffffffff021916908373ffffffffffffffffffffffffffffffffffffffff16021790555060608201518160030155608082015181600401908051906020019061118d929190612164565b5060a08201518160050160006101000a81548163ffffffff021916908360e01c02179055509050506001600c60006101000a81548160ff02191690831515021790555060003073ffffffffffffffffffffffffffffffffffffffff16836040518082805190602001908083835b6020831061121d57805182526020820191506020810190506020830392506111fa565b6001836020036101000a038019825116818451168082178552505050505050905001915050600060405180830381855af49150503d806000811461127d576040519150601f19603f3d011682016040523d82523d6000602084013e611282565b606091505b505090506000600c60006101000a81548160ff0219169083151502179055507feab9f6c333c4c219217a67230a9af8a2e860061556fa026945860d2c885d60fe8382336040518080602001841515151581526020018373ffffffffffffffffffffffffffffffffffffffff1673ffffffffffffffffffffffffffffffffffffffff168152602001828103825285818151815260200191508051906020019080838360005b83811015611341578082015181840152602081019050611326565b50505050905090810190601f16801561136e5780820380516001836020036101000a031916815260200191505b5094505050505060405180910390a1809150505b949350505050565b600160009054906101000a900473ffffffffffffffffffffffffffffffffffffffff1673ffffffffffffffffffffffffffffffffffffffff163373ffffffffffffffffffffffffffffffffffffffff161461144d576040517f08c379a00000000000000000000000000000000000000000000000000000000081526004018080602001828103825260128152602001807f4f6e6c79206f776e657220616c6c6f776564000000000000000000000000000081525060200191505060405180910390fd5b61145681611c76565b50565b600260009054906101000a900473ffffffffffffffffffffffffffffffffffffffff1681565b600160009054906101000a900473ffffffffffffffffffffffffffffffffffffffff1681565b600360003373ffffffffffffffffffffffffffffffffffffffff1673ffffffffffffffffffffffffffffffffffffffff16815260200190815260200160002060009054906101000a900460ff16611547576040517f08c379a00000000000000000000000000000000000000000000000000000000081526004018080602001828103825260288152602001806122306028913960400191505060405180910390fd5b61155081611d34565b50565b600160009054906101000a900473ffffffffffffffffffffffffffffffffffffffff1673ffffffffffffffffffffffffffffffffffffffff163373ffffffffffffffffffffffffffffffffffffffff1614611616576040517f08c379a00000000000000000000000000000000000000000000000000000000081526004018080602001828103825260128152602001807f4f6e6c79206f776e657220616c6c6f776564000000000000000000000000000081525060200191505060405180910390fd5b611621838383611b06565b611693576040517f08c379a00000000000000000000000000000000000000000000000000000000081526004018080602001828103825260168152602001807f43616e27742073656e64207472616e73616374696f6e0000000000000000000081525060200191505060405180910390fd5b505050565b60003373ffffffffffffffffffffffffffffffffffffffff16632eb2c2d630600160009054906101000a900473ffffffffffffffffffffffffffffffffffffffff168a8a8a8a8a8a6040518963ffffffff1660e01b8152600401808973ffffffffffffffffffffffffffffffffffffffff1673ffffffffffffffffffffffffffffffffffffffff1681526020018873ffffffffffffffffffffffffffffffffffffffff1673ffffffffffffffffffffffffffffffffffffffff16815260200180602001806020018060200184810384528a8a82818152602001925060200280828437600081840152601f19601f8201169050808301925050508481038352888882818152602001925060200280828437600081840152601f19601f8201169050808301925050508481038252868682818152602001925080828437600081840152601f19601f8201169050808301925050509b505050505050505050505050600060405180830381600087803b15801561181157600080fd5b505af1158015611825573d6000803e3d6000fd5b5050505063bc197c8160e01b905098975050505050505050565b600360003373ffffffffffffffffffffffffffffffffffffffff1673ffffffffffffffffffffffffffffffffffffffff16815260200190815260200160002060009054906101000a900460ff166118e1576040517f08c379a00000000000000000000000000000000000000000000000000000000081526004018080602001828103825260288152602001806122306028913960400191505060405180910390fd5b6000600360008373ffffffffffffffffffffffffffffffffffffffff1673ffffffffffffffffffffffffffffffffffffffff16815260200190815260200160002060006101000a81548160ff0219169083151502179055507f093e9dd739d1f91d7e97be3e57001ee88d407f8e8870d3a7762c9be45a8f332b81604051808273ffffffffffffffffffffffffffffffffffffffff1673ffffffffffffffffffffffffffffffffffffffff16815260200191505060405180910390a150565b60036020528060005260406000206000915054906101000a900460ff1681565b60003373ffffffffffffffffffffffffffffffffffffffff1663f242432a30600160009054906101000a900473ffffffffffffffffffffffffffffffffffffffff16888888886040518763ffffffff1660e01b8152600401808773ffffffffffffffffffffffffffffffffffffffff1673ffffffffffffffffffffffffffffffffffffffff1681526020018673ffffffffffffffffffffffffffffffffffffffff1673ffffffffffffffffffffffffffffffffffffffff168152602001858152602001848152602001806020018281038252848482818152602001925080828437600081840152601f19601f820116905080830192505050975050505050505050600060405180830381600087803b158015611ada57600080fd5b505af1158015611aee573d6000803e3d6000fd5b5050505063f23a6e6160e01b90509695505050505050565b60006060849050600081519050600080826020850187895af192507f7e4155ee9daec547578a255f7495bc08f38796f4d4a3be4ed7189f4fc55cb18586868660405180806020018473ffffffffffffffffffffffffffffffffffffffff1673ffffffffffffffffffffffffffffffffffffffff168152602001838152602001828103825285818151815260200191508051906020019080838360005b83811015611bbd578082015181840152602081019050611ba2565b50505050905090810190601f168015611bea5780820380516001836020036101000a031916815260200191505b5094505050505060405180910390a150509392505050565b6000806004835110611c15576004611c18565b82515b905060008090505b81811015611c6f5780600183030360080260020a848281518110611c4057fe5b602001015160f81c60f81b60f81c60ff16028360e01c63ffffffff160160e01b92508080600101915050611c20565b5050919050565b6001600360008373ffffffffffffffffffffffffffffffffffffffff1673ffffffffffffffffffffffffffffffffffffffff16815260200190815260200160002060006101000a81548160ff0219169083151502179055507f1f7c2db6dd3d6d717291d1194e259472b27b4107ed6368b58b18bb9c2f2d954581604051808273ffffffffffffffffffffffffffffffffffffffff1673ffffffffffffffffffffffffffffffffffffffff16815260200191505060405180910390a150565b6000600160009054906101000a900473ffffffffffffffffffffffffffffffffffffffff169050600073ffffffffffffffffffffffffffffffffffffffff16600160009054906101000a900473ffffffffffffffffffffffffffffffffffffffff1673ffffffffffffffffffffffffffffffffffffffff1614611e0857611ddc600160009054906101000a900473ffffffffffffffffffffffffffffffffffffffff1661183f565b611e07600160009054906101000a900473ffffffffffffffffffffffffffffffffffffffff16611f2a565b5b81600160006101000a81548173ffffffffffffffffffffffffffffffffffffffff021916908373ffffffffffffffffffffffffffffffffffffffff160217905550611e5282611c76565b611e5b82612042565b7f381c0d11398486654573703c51ee8210ce9461764d133f9f0e53b6a539705331308284604051808473ffffffffffffffffffffffffffffffffffffffff1673ffffffffffffffffffffffffffffffffffffffff1681526020018373ffffffffffffffffffffffffffffffffffffffff1673ffffffffffffffffffffffffffffffffffffffff1681526020018273ffffffffffffffffffffffffffffffffffffffff1673ffffffffffffffffffffffffffffffffffffffff168152602001935050505060405180910390a15050565b600260009054906101000a900473ffffffffffffffffffffffffffffffffffffffff1673ffffffffffffffffffffffffffffffffffffffff166380b29f7c30836040518363ffffffff1660e01b8152600401808373ffffffffffffffffffffffffffffffffffffffff1673ffffffffffffffffffffffffffffffffffffffff168152602001807f73696741757468000000000000000000000000000000000000000000000000008152506020018273ffffffffffffffffffffffffffffffffffffffff1673ffffffffffffffffffffffffffffffffffffffff16815260200192505050600060405180830381600087803b15801561202757600080fd5b505af115801561203b573d6000803e3d6000fd5b5050505050565b600260009054906101000a900473ffffffffffffffffffffffffffffffffffffffff1673ffffffffffffffffffffffffffffffffffffffff1663a7068d6630836004546040518463ffffffff1660e01b8152600401808473ffffffffffffffffffffffffffffffffffffffff1673ffffffffffffffffffffffffffffffffffffffff168152602001807f73696741757468000000000000000000000000000000000000000000000000008152506020018373ffffffffffffffffffffffffffffffffffffffff1673ffffffffffffffffffffffffffffffffffffffff1681526020018281526020019350505050600060405180830381600087803b15801561214957600080fd5b505af115801561215d573d6000803e3d6000fd5b5050505050565b828054600181600116156101000203166002900490600052602060002090601f016020900481019282601f106121a557805160ff19168380011785556121d3565b828001600101855582156121d3579182015b828111156121d25782518255916020019190600101906121b7565b5b5090506121e091906121e4565b5090565b61220691905b808211156122025760008160009055506001016121ea565b5090565b9056fe54686973207472616e73616374696f6e2068617320616c7265616479206265656e2073656e744f6e6c79207265636f76657279206167656e742063616e206368616e676520746865206f776e6572a265627a7a72315820f29b442e3fb30c40fcca32a9d32a9259be5c68f5840b60ace481eb958e4d9c1864736f6c634300051100324f6e6c79207265636f76657279206167656e742063616e206368616e676520746865206f776e6572a265627a7a723158206c5d5d2fa7fe066bc21693a3ac5c057284524a1887911b6710a46302a71719c864736f6c63430005110032",
  "source": "pragma solidity ^0.5.0;\n\nimport {ProxyIdentity} from \"./proxyIdentity.sol\";\n\ncontract ProxyFactory {\n    address erc1056;\n    ProxyIdentity[] proxies;\n    mapping(address => bool) identities;\n    event ProxyCreated(address proxy);\n\n    constructor(address _erc1056) public {\n        erc1056 = _erc1056;\n    }\n\n    function create() public returns (address) {\n        ProxyIdentity proxy = new ProxyIdentity(erc1056);\n        proxies.push(proxy);\n        proxy.changeOwner(msg.sender);\n        emit ProxyCreated(address(proxy));\n        return address(proxy);\n    }\n}",
  "sourcePath": "/home/dima/Development/ew-did-registry/packages/proxyIdentity/contracts/proxyFactory.sol",
  "compiler": {
    "name": "solc",
    "version": "0.5.17+commit.d19bba13.Emscripten.clang"
  },
  "schemaVersion": "3.0.16",
  "updatedAt": "2020-04-23T11:18:14.933Z",
  "devdoc": {
    "methods": {}
  },
  "userdoc": {
    "methods": {}
  }
}