{
  "contractName": "ProxyIdentity",
  "abi": [
    {
      "inputs": [
        {
          "internalType": "address",
          "name": "_erc1056",
          "type": "address"
        },
        {
          "internalType": "address",
          "name": "_erc1155",
          "type": "address"
        },
        {
          "internalType": "uint256",
          "name": "_uid",
          "type": "uint256"
        },
        {
          "internalType": "address",
          "name": "_owner",
          "type": "address"
        }
      ],
      "payable": false,
      "stateMutability": "nonpayable",
      "type": "constructor"
    },
    {
      "anonymous": false,
      "inputs": [
        {
          "indexed": false,
          "internalType": "bytes",
          "name": "data",
          "type": "bytes"
        },
        {
          "indexed": false,
          "internalType": "bool",
          "name": "success",
          "type": "bool"
        },
        {
          "indexed": false,
          "internalType": "address",
          "name": "sender",
          "type": "address"
        }
      ],
      "name": "CallbackOnTransfer",
      "type": "event"
    },
    {
      "anonymous": false,
      "inputs": [
        {
          "indexed": false,
          "internalType": "address",
          "name": "identity",
          "type": "address"
        },
        {
          "indexed": false,
          "internalType": "address",
          "name": "prev",
          "type": "address"
        },
        {
          "indexed": false,
          "internalType": "address",
          "name": "next",
          "type": "address"
        }
      ],
      "name": "OwnerChanged",
      "type": "event"
    },
    {
      "anonymous": false,
      "inputs": [
        {
          "indexed": false,
          "internalType": "address",
          "name": "agent",
          "type": "address"
        }
      ],
      "name": "RecoveryAgentAdded",
      "type": "event"
    },
    {
      "anonymous": false,
      "inputs": [
        {
          "indexed": false,
          "internalType": "address",
          "name": "agent",
          "type": "address"
        }
      ],
      "name": "RecoveryAgentRemoved",
      "type": "event"
    },
    {
      "anonymous": false,
      "inputs": [
        {
          "indexed": false,
          "internalType": "bytes",
          "name": "data",
          "type": "bytes"
        },
        {
          "indexed": false,
          "internalType": "address",
          "name": "to",
          "type": "address"
        },
        {
          "indexed": false,
          "internalType": "uint256",
          "name": "value",
          "type": "uint256"
        }
      ],
      "name": "TransactionSent",
      "type": "event"
    },
    {
      "payable": true,
      "stateMutability": "payable",
      "type": "fallback"
    },
    {
      "constant": true,
      "inputs": [],
      "name": "creator",
      "outputs": [
        {
          "internalType": "address",
          "name": "",
          "type": "address"
        }
      ],
      "payable": false,
      "stateMutability": "view",
      "type": "function"
    },
    {
      "constant": true,
      "inputs": [],
      "name": "erc1056",
      "outputs": [
        {
          "internalType": "address",
          "name": "",
          "type": "address"
        }
      ],
      "payable": false,
      "stateMutability": "view",
      "type": "function"
    },
    {
      "constant": true,
      "inputs": [],
      "name": "erc1155",
      "outputs": [
        {
          "internalType": "address",
          "name": "",
          "type": "address"
        }
      ],
      "payable": false,
      "stateMutability": "view",
      "type": "function"
    },
    {
      "constant": true,
      "inputs": [],
      "name": "owner",
      "outputs": [
        {
          "internalType": "address",
          "name": "",
          "type": "address"
        }
      ],
      "payable": false,
      "stateMutability": "view",
      "type": "function"
    },
    {
      "constant": false,
      "inputs": [
        {
          "internalType": "bytes",
          "name": "_data",
          "type": "bytes"
        },
        {
          "internalType": "address",
          "name": "to",
          "type": "address"
        },
        {
          "internalType": "uint256",
          "name": "value",
          "type": "uint256"
        }
      ],
      "name": "sendTransaction",
      "outputs": [],
      "payable": true,
      "stateMutability": "payable",
      "type": "function"
    },
    {
      "constant": false,
      "inputs": [
        {
          "internalType": "bytes",
          "name": "data",
          "type": "bytes"
        },
        {
          "internalType": "address",
          "name": "to",
          "type": "address"
        },
        {
          "internalType": "uint8",
          "name": "v",
          "type": "uint8"
        },
        {
          "internalType": "bytes32",
          "name": "r",
          "type": "bytes32"
        },
        {
          "internalType": "bytes32",
          "name": "s",
          "type": "bytes32"
        },
        {
          "internalType": "uint256",
          "name": "value",
          "type": "uint256"
        },
        {
          "internalType": "uint256",
          "name": "nonce",
          "type": "uint256"
        }
      ],
      "name": "sendSignedTransaction",
      "outputs": [],
      "payable": true,
      "stateMutability": "payable",
      "type": "function"
    },
    {
      "constant": false,
      "inputs": [
        {
          "internalType": "address",
          "name": "delegate",
          "type": "address"
        }
      ],
      "name": "addDelegate",
      "outputs": [],
      "payable": false,
      "stateMutability": "nonpayable",
      "type": "function"
    },
    {
      "constant": false,
      "inputs": [
        {
          "internalType": "address",
          "name": "delegate",
          "type": "address"
        }
      ],
      "name": "revokeDelegate",
      "outputs": [],
      "payable": false,
      "stateMutability": "nonpayable",
      "type": "function"
    },
    {
      "constant": false,
      "inputs": [
        {
          "internalType": "address",
          "name": "_operator",
          "type": "address"
        },
        {
          "internalType": "address",
          "name": "_from",
          "type": "address"
        },
        {
          "internalType": "uint256",
          "name": "_id",
          "type": "uint256"
        },
        {
          "internalType": "uint256",
          "name": "_value",
          "type": "uint256"
        },
        {
          "internalType": "bytes",
          "name": "_data",
          "type": "bytes"
        }
      ],
      "name": "onERC1155Received",
      "outputs": [
        {
          "internalType": "bytes4",
          "name": "",
          "type": "bytes4"
        }
      ],
      "payable": false,
      "stateMutability": "nonpayable",
      "type": "function"
    },
    {
      "constant": false,
      "inputs": [
        {
          "internalType": "address",
          "name": "_operator",
          "type": "address"
        },
        {
          "internalType": "address",
          "name": "_from",
          "type": "address"
        },
        {
          "internalType": "uint256[]",
          "name": "_ids",
          "type": "uint256[]"
        },
        {
          "internalType": "uint256[]",
          "name": "_values",
          "type": "uint256[]"
        },
        {
          "internalType": "bytes",
          "name": "_data",
          "type": "bytes"
        }
      ],
      "name": "onERC1155BatchReceived",
      "outputs": [
        {
          "internalType": "bytes4",
          "name": "",
          "type": "bytes4"
        }
      ],
      "payable": false,
      "stateMutability": "nonpayable",
      "type": "function"
    },
    {
      "constant": false,
      "inputs": [
        {
          "internalType": "address",
          "name": "newOwner",
          "type": "address"
        }
      ],
      "name": "onOwnerChanged",
      "outputs": [],
      "payable": false,
      "stateMutability": "nonpayable",
      "type": "function"
    },
    {
      "constant": false,
      "inputs": [],
      "name": "onBurn",
      "outputs": [],
      "payable": false,
      "stateMutability": "nonpayable",
      "type": "function"
    },
    {
      "constant": true,
      "inputs": [
        {
          "internalType": "bytes4",
          "name": "_interfaceID",
          "type": "bytes4"
        }
      ],
      "name": "supportsInterface",
      "outputs": [
        {
          "internalType": "bool",
          "name": "",
          "type": "bool"
        }
      ],
      "payable": false,
      "stateMutability": "view",
      "type": "function"
    },
    {
      "constant": false,
      "inputs": [
        {
          "internalType": "address",
          "name": "_sender",
          "type": "address"
        },
        {
          "internalType": "address",
          "name": "_origin",
          "type": "address"
        },
        {
          "internalType": "uint256",
          "name": "_value",
          "type": "uint256"
        },
        {
          "internalType": "bytes",
          "name": "_data",
          "type": "bytes"
        }
      ],
      "name": "tokenFallback",
      "outputs": [
        {
          "internalType": "bool",
          "name": "",
          "type": "bool"
        }
      ],
      "payable": false,
      "stateMutability": "nonpayable",
      "type": "function"
    },
    {
      "constant": true,
      "inputs": [
        {
          "internalType": "address",
          "name": "token",
          "type": "address"
        }
      ],
      "name": "supportsToken",
      "outputs": [
        {
          "internalType": "bool",
          "name": "",
          "type": "bool"
        }
      ],
      "payable": false,
      "stateMutability": "pure",
      "type": "function"
    }
  ],
  "bytecode": "0x60806040527fffffffffffffffffffffffffffffffffffffffffffffffffffffffffffffffff6004553480156200003557600080fd5b5060405162001dd638038062001dd6833981810160405260808110156200005b57600080fd5b810190808051906020019092919080519060200190929190805190602001909291908051906020019092919050505083600260006101000a81548173ffffffffffffffffffffffffffffffffffffffff021916908373ffffffffffffffffffffffffffffffffffffffff16021790555082600360006101000a81548173ffffffffffffffffffffffffffffffffffffffff021916908373ffffffffffffffffffffffffffffffffffffffff16021790555081600d8190555033600160006101000a81548173ffffffffffffffffffffffffffffffffffffffff021916908373ffffffffffffffffffffffffffffffffffffffff160217905550806000806101000a81548173ffffffffffffffffffffffffffffffffffffffff021916908373ffffffffffffffffffffffffffffffffffffffff1602179055508273ffffffffffffffffffffffffffffffffffffffff166394d008ef82600d546040518363ffffffff1660e01b8152600401808373ffffffffffffffffffffffffffffffffffffffff1673ffffffffffffffffffffffffffffffffffffffff168152602001828152602001806020018281038252600081526020016020019350505050600060405180830381600087803b1580156200023257600080fd5b505af115801562000247573d6000803e3d6000fd5b505050506200025c816200026660201b60201c565b505050506200038a565b600260009054906101000a900473ffffffffffffffffffffffffffffffffffffffff1673ffffffffffffffffffffffffffffffffffffffff1663a7068d6630836004546040518463ffffffff1660e01b8152600401808473ffffffffffffffffffffffffffffffffffffffff1673ffffffffffffffffffffffffffffffffffffffff168152602001807f73696741757468000000000000000000000000000000000000000000000000008152506020018373ffffffffffffffffffffffffffffffffffffffff1673ffffffffffffffffffffffffffffffffffffffff1681526020018281526020019350505050600060405180830381600087803b1580156200036e57600080fd5b505af115801562000383573d6000803e3d6000fd5b5050505050565b611a3c806200039a6000396000f3fe6080604052600436106100e85760003560e01c80638bbd36011161008a578063d56022d711610059578063d56022d714610813578063e71bdf411461086a578063f23a6e61146108bb578063fa352c00146109e7576100e8565b80638bbd3601146104fe5780638da5cb5b14610515578063bbc018571461056c578063bc197c8114610651576100e8565b80632c39952a116100c65780632c39952a1461021c5780634c1230191461032c57806373125fc41461045657806384eb68fb146104a7576100e8565b806301ffc9a7146100ea57806302d05d3f1461015c578063061f7650146101b3575b005b3480156100f657600080fd5b506101426004803603602081101561010d57600080fd5b8101908080357bffffffffffffffffffffffffffffffffffffffffffffffffffffffff19169060200190929190505050610a38565b604051808215151515815260200191505060405180910390f35b34801561016857600080fd5b50610171610ae9565b604051808273ffffffffffffffffffffffffffffffffffffffff1673ffffffffffffffffffffffffffffffffffffffff16815260200191505060405180910390f35b3480156101bf57600080fd5b50610202600480360360208110156101d657600080fd5b81019080803573ffffffffffffffffffffffffffffffffffffffff169060200190929190505050610b0f565b604051808215151515815260200191505060405180910390f35b61032a600480360360e081101561023257600080fd5b810190808035906020019064010000000081111561024f57600080fd5b82018360208201111561026157600080fd5b8035906020019184600183028401116401000000008311171561028357600080fd5b91908080601f016020809104026020016040519081016040528093929190818152602001838380828437600081840152601f19601f820116905080830192505050505050509192919290803573ffffffffffffffffffffffffffffffffffffffff169060200190929190803560ff16906020019092919080359060200190929190803590602001909291908035906020019092919080359060200190929190505050610b1a565b005b34801561033857600080fd5b5061043c6004803603608081101561034f57600080fd5b81019080803573ffffffffffffffffffffffffffffffffffffffff169060200190929190803573ffffffffffffffffffffffffffffffffffffffff16906020019092919080359060200190929190803590602001906401000000008111156103b657600080fd5b8201836020820111156103c857600080fd5b803590602001918460018302840111640100000000831117156103ea57600080fd5b91908080601f016020809104026020016040519081016040528093929190818152602001838380828437600081840152601f19601f820116905080830192505050505050509192919290505050610f36565b604051808215151515815260200191505060405180910390f35b34801561046257600080fd5b506104a56004803603602081101561047957600080fd5b81019080803573ffffffffffffffffffffffffffffffffffffffff169060200190929190505050611123565b005b3480156104b357600080fd5b506104bc611232565b604051808273ffffffffffffffffffffffffffffffffffffffff1673ffffffffffffffffffffffffffffffffffffffff16815260200191505060405180910390f35b34801561050a57600080fd5b50610513611258565b005b34801561052157600080fd5b5061052a61135e565b604051808273ffffffffffffffffffffffffffffffffffffffff1673ffffffffffffffffffffffffffffffffffffffff16815260200191505060405180910390f35b61064f6004803603606081101561058257600080fd5b810190808035906020019064010000000081111561059f57600080fd5b8201836020820111156105b157600080fd5b803590602001918460018302840111640100000000831117156105d357600080fd5b91908080601f016020809104026020016040519081016040528093929190818152602001838380828437600081840152601f19601f820116905080830192505050505050509192919290803573ffffffffffffffffffffffffffffffffffffffff16906020019092919080359060200190929190505050611383565b005b34801561065d57600080fd5b506107bf600480360360a081101561067457600080fd5b81019080803573ffffffffffffffffffffffffffffffffffffffff169060200190929190803573ffffffffffffffffffffffffffffffffffffffff169060200190929190803590602001906401000000008111156106d157600080fd5b8201836020820111156106e357600080fd5b8035906020019184602083028401116401000000008311171561070557600080fd5b90919293919293908035906020019064010000000081111561072657600080fd5b82018360208201111561073857600080fd5b8035906020019184602083028401116401000000008311171561075a57600080fd5b90919293919293908035906020019064010000000081111561077b57600080fd5b82018360208201111561078d57600080fd5b803590602001918460018302840111640100000000831117156107af57600080fd5b90919293919293905050506114c7565b60405180827bffffffffffffffffffffffffffffffffffffffffffffffffffffffff19167bffffffffffffffffffffffffffffffffffffffffffffffffffffffff1916815260200191505060405180910390f35b34801561081f57600080fd5b506108286114df565b604051808273ffffffffffffffffffffffffffffffffffffffff1673ffffffffffffffffffffffffffffffffffffffff16815260200191505060405180910390f35b34801561087657600080fd5b506108b96004803603602081101561088d57600080fd5b81019080803573ffffffffffffffffffffffffffffffffffffffff169060200190929190505050611505565b005b3480156108c757600080fd5b50610993600480360360a08110156108de57600080fd5b81019080803573ffffffffffffffffffffffffffffffffffffffff169060200190929190803573ffffffffffffffffffffffffffffffffffffffff16906020019092919080359060200190929190803590602001909291908035906020019064010000000081111561094f57600080fd5b82018360208201111561096157600080fd5b8035906020019184600183028401116401000000008311171561098357600080fd5b90919293919293905050506115d3565b60405180827bffffffffffffffffffffffffffffffffffffffffffffffffffffffff19167bffffffffffffffffffffffffffffffffffffffffffffffffffffffff1916815260200191505060405180910390f35b3480156109f357600080fd5b50610a3660048036036020811015610a0a57600080fd5b81019080803573ffffffffffffffffffffffffffffffffffffffff1690602001909291905050506115e9565b005b60006301ffc9a760e01b7bffffffffffffffffffffffffffffffffffffffffffffffffffffffff1916827bffffffffffffffffffffffffffffffffffffffffffffffffffffffff19161480610ad15750634e2312e060e01b7bffffffffffffffffffffffffffffffffffffffffffffffffffffffff1916827bffffffffffffffffffffffffffffffffffffffffffffffffffffffff1916145b15610adf5760019050610ae4565b600090505b919050565b600160009054906101000a900473ffffffffffffffffffffffffffffffffffffffff1681565b600060019050919050565b60008787848460405160200180806020018573ffffffffffffffffffffffffffffffffffffffff1673ffffffffffffffffffffffffffffffffffffffff168152602001848152602001838152602001828103825286818151815260200191508051906020019080838360005b83811015610ba1578082015181840152602081019050610b86565b50505050905090810190601f168015610bce5780820380516001836020036101000a031916815260200191505b5095505050505050604051602081830303815290604052805190602001209050600015156005600083815260200190815260200160002060009054906101000a900460ff16151514610c6b576040517f08c379a00000000000000000000000000000000000000000000000000000000081526004018080602001828103825260268152602001806119e26026913960400191505060405180910390fd5b60016005600083815260200190815260200160002060006101000a81548160ff02191690831515021790555060008160405160200180807f19457468657265756d205369676e6564204d6573736167653a0a333200000000815250601c01828152602001915050604051602081830303815290604052805190602001209050600060018289898960405160008152602001604052604051808581526020018460ff1660ff1681526020018381526020018281526020019450505050506020604051602081039080840390855afa158015610d49573d6000803e3d6000fd5b5050506020604051035190506001600360009054906101000a900473ffffffffffffffffffffffffffffffffffffffff1673ffffffffffffffffffffffffffffffffffffffff1662fdd58e83600d546040518363ffffffff1660e01b8152600401808373ffffffffffffffffffffffffffffffffffffffff1673ffffffffffffffffffffffffffffffffffffffff1681526020018281526020019250505060206040518083038186803b158015610dff57600080fd5b505afa158015610e13573d6000803e3d6000fd5b505050506040513d6020811015610e2957600080fd5b810190808051906020019092919050505014610ead576040517f08c379a00000000000000000000000000000000000000000000000000000000081526004018080602001828103825260168152602001807f5369676e6174757265206973206e6f742076616c69640000000000000000000081525060200191505060405180910390fd5b610eb88a8a876117c3565b610f2a576040517f08c379a00000000000000000000000000000000000000000000000000000000081526004018080602001828103825260168152602001807f43616e27742073656e64207472616e73616374696f6e0000000000000000000081525060200191505060405180910390fd5b50505050505050505050565b6000610f4133610b0f565b610f4e576000905061111b565b6001600c60006101000a81548160ff02191690831515021790555060003073ffffffffffffffffffffffffffffffffffffffff16836040518082805190602001908083835b60208310610fb65780518252602082019150602081019050602083039250610f93565b6001836020036101000a038019825116818451168082178552505050505050905001915050600060405180830381855af49150503d8060008114611016576040519150601f19603f3d011682016040523d82523d6000602084013e61101b565b606091505b505090506000600c60006101000a81548160ff0219169083151502179055507feab9f6c333c4c219217a67230a9af8a2e860061556fa026945860d2c885d60fe8382336040518080602001841515151581526020018373ffffffffffffffffffffffffffffffffffffffff1673ffffffffffffffffffffffffffffffffffffffff168152602001828103825285818151815260200191508051906020019080838360005b838110156110da5780820151818401526020810190506110bf565b50505050905090810190601f1680156111075780820380516001836020036101000a031916815260200191505b5094505050505060405180910390a1809150505b949350505050565b600360009054906101000a900473ffffffffffffffffffffffffffffffffffffffff1673ffffffffffffffffffffffffffffffffffffffff163373ffffffffffffffffffffffffffffffffffffffff16146111e6576040517f08c379a00000000000000000000000000000000000000000000000000000000081526004018080602001828103825260148152602001807f4f6e6c79204552433131353520616c6c6f77656400000000000000000000000081525060200191505060405180910390fd5b806000806101000a81548173ffffffffffffffffffffffffffffffffffffffff021916908373ffffffffffffffffffffffffffffffffffffffff16021790555061122f816118bf565b50565b600260009054906101000a900473ffffffffffffffffffffffffffffffffffffffff1681565b600360009054906101000a900473ffffffffffffffffffffffffffffffffffffffff1673ffffffffffffffffffffffffffffffffffffffff163373ffffffffffffffffffffffffffffffffffffffff161461131b576040517f08c379a00000000000000000000000000000000000000000000000000000000081526004018080602001828103825260148152602001807f4f6e6c79204552433131353520616c6c6f77656400000000000000000000000081525060200191505060405180910390fd5b60008060006101000a81548173ffffffffffffffffffffffffffffffffffffffff021916908373ffffffffffffffffffffffffffffffffffffffff160217905550565b6000809054906101000a900473ffffffffffffffffffffffffffffffffffffffff1681565b6000809054906101000a900473ffffffffffffffffffffffffffffffffffffffff1673ffffffffffffffffffffffffffffffffffffffff163373ffffffffffffffffffffffffffffffffffffffff1614611445576040517f08c379a00000000000000000000000000000000000000000000000000000000081526004018080602001828103825260128152602001807f4f6e6c79206f776e657220616c6c6f776564000000000000000000000000000081525060200191505060405180910390fd5b6114508383836117c3565b6114c2576040517f08c379a00000000000000000000000000000000000000000000000000000000081526004018080602001828103825260168152602001807f43616e27742073656e64207472616e73616374696f6e0000000000000000000081525060200191505060405180910390fd5b505050565b600063bc197c8160e01b905098975050505050505050565b600360009054906101000a900473ffffffffffffffffffffffffffffffffffffffff1681565b6000809054906101000a900473ffffffffffffffffffffffffffffffffffffffff1673ffffffffffffffffffffffffffffffffffffffff163373ffffffffffffffffffffffffffffffffffffffff16146115c7576040517f08c379a00000000000000000000000000000000000000000000000000000000081526004018080602001828103825260128152602001807f4f6e6c79206f776e657220616c6c6f776564000000000000000000000000000081525060200191505060405180910390fd5b6115d0816118bf565b50565b600063f23a6e6160e01b90509695505050505050565b6000809054906101000a900473ffffffffffffffffffffffffffffffffffffffff1673ffffffffffffffffffffffffffffffffffffffff163373ffffffffffffffffffffffffffffffffffffffff16146116ab576040517f08c379a00000000000000000000000000000000000000000000000000000000081526004018080602001828103825260128152602001807f4f6e6c79206f776e657220616c6c6f776564000000000000000000000000000081525060200191505060405180910390fd5b600260009054906101000a900473ffffffffffffffffffffffffffffffffffffffff1673ffffffffffffffffffffffffffffffffffffffff166380b29f7c30836040518363ffffffff1660e01b8152600401808373ffffffffffffffffffffffffffffffffffffffff1673ffffffffffffffffffffffffffffffffffffffff168152602001807f73696741757468000000000000000000000000000000000000000000000000008152506020018273ffffffffffffffffffffffffffffffffffffffff1673ffffffffffffffffffffffffffffffffffffffff16815260200192505050600060405180830381600087803b1580156117a857600080fd5b505af11580156117bc573d6000803e3d6000fd5b5050505050565b60006060849050600081519050600080826020850187895af192507f7e4155ee9daec547578a255f7495bc08f38796f4d4a3be4ed7189f4fc55cb18586868660405180806020018473ffffffffffffffffffffffffffffffffffffffff1673ffffffffffffffffffffffffffffffffffffffff168152602001838152602001828103825285818151815260200191508051906020019080838360005b8381101561187a57808201518184015260208101905061185f565b50505050905090810190601f1680156118a75780820380516001836020036101000a031916815260200191505b5094505050505060405180910390a150509392505050565b600260009054906101000a900473ffffffffffffffffffffffffffffffffffffffff1673ffffffffffffffffffffffffffffffffffffffff1663a7068d6630836004546040518463ffffffff1660e01b8152600401808473ffffffffffffffffffffffffffffffffffffffff1673ffffffffffffffffffffffffffffffffffffffff168152602001807f73696741757468000000000000000000000000000000000000000000000000008152506020018373ffffffffffffffffffffffffffffffffffffffff1673ffffffffffffffffffffffffffffffffffffffff1681526020018281526020019350505050600060405180830381600087803b1580156119c657600080fd5b505af11580156119da573d6000803e3d6000fd5b505050505056fe54686973207472616e73616374696f6e2068617320616c7265616479206265656e2073656e74a265627a7a72315820825b423ba40033c58e7f368131745c988cd3fe60c74474e02b2bffb4f3375d4c64736f6c63430005110032",
  "source": "pragma solidity ^0.5.0;\n\nimport \"multi-token-standard/contracts/interfaces/IERC165.sol\";\nimport \"multi-token-standard/contracts/interfaces/IERC1155.sol\";\nimport \"multi-token-standard/contracts/interfaces/IERC1155TokenReceiver.sol\";\nimport \"./interfaces/IERC223Receiver.sol\";\nimport \"./interfaces/IERC223.sol\";\nimport \"./tokens/ERC1155Multiproxy.sol\";\n\ninterface IERC1056 {\n  function addDelegate(\n    address identity,\n    bytes32 delegateType,\n    address delegate,\n    uint256 validity\n  ) external;\n\n  function revokeDelegate(\n    address identity,\n    bytes32 delegateType,\n    address delegate\n  ) external;\n}\n\ncontract ProxyIdentity is IERC1155TokenReceiver, IERC165, IERC223Receiver {\n  address public owner;\n  address public creator;\n  address public erc1056;\n  address public erc1155;\n  uint256 defaultValidity = 2**256 - 1;\n  mapping(bytes32 => bool) digests;\n  bytes4 internal constant ERC1155_ACCEPTED = 0xf23a6e61;\n  bytes4 internal constant ERC1155_BATCH_ACCEPTED = 0xbc197c81;\n  Tkn tkn;\n  bool __isTokenFallback;\n  uint256 uid;\n\n  struct Tkn {\n    address addr;\n    address sender;\n    address origin;\n    uint256 value;\n    bytes data;\n    bytes4 sig;\n  }\n\n  event TransactionSent(bytes data, address to, uint256 value);\n  event OwnerChanged(address identity, address prev, address next);\n  event RecoveryAgentAdded(address agent);\n  event RecoveryAgentRemoved(address agent);\n\n  constructor(\n    address _erc1056,\n    address _erc1155,\n    uint256 _uid,\n    address _owner\n  ) public {\n    erc1056 = _erc1056;\n    erc1155 = _erc1155;\n    uid = _uid;\n    creator = msg.sender;\n    owner = _owner;\n    ERC1155Multiproxy(_erc1155).mint(_owner, uid, \"\");\n    _addDelegate(_owner);\n  }\n\n  modifier _owner() {\n    require(msg.sender == owner, \"Only owner allowed\");\n    _;\n  }\n\n  modifier tokenPayable {\n    if (!__isTokenFallback)\n      revert(\"Method can be invoked only as part of ERC223 transfer\");\n    _;\n  }\n\n  modifier _erc1155() {\n    require(msg.sender == erc1155, \"Only ERC1155 allowed\");\n    _;\n  }\n\n  function sendTransaction(\n    bytes memory _data,\n    address to,\n    uint256 value\n  ) public payable _owner() {\n    require(_sendTransaction(_data, to, value), \"Can't send transaction\");\n  }\n\n  function sendSignedTransaction(\n    bytes memory data,\n    address to,\n    uint8 v,\n    bytes32 r,\n    bytes32 s,\n    uint256 value,\n    uint256 nonce\n  ) public payable {\n    bytes32 digest = keccak256(abi.encode(data, to, value, nonce));\n    require(digests[digest] == false, \"This transaction has already been sent\");\n    digests[digest] = true;\n    bytes32 hash = keccak256(\n      abi.encodePacked(\"\\x19Ethereum Signed Message:\\n32\", digest)\n    );\n    address signer = ecrecover(hash, v, r, s);\n    require(\n      ERC1155Multiproxy(erc1155).balanceOf(signer, uid) == 1,\n      \"Signature is not valid\"\n    );\n    require(_sendTransaction(data, to, value), \"Can't send transaction\");\n  }\n\n  function addDelegate(address delegate) public _owner() {\n    _addDelegate(delegate);\n  }\n\n  function revokeDelegate(address delegate) public _owner() {\n    IERC1056(erc1056).revokeDelegate(address(this), \"sigAuth\", delegate);\n  }\n\n  function onERC1155Received(\n    address _operator,\n    address _from,\n    uint256 _id,\n    uint256 _value,\n    bytes calldata _data\n  ) external returns (bytes4) {\n    return ERC1155_ACCEPTED;\n  }\n\n  function onERC1155BatchReceived(\n    address _operator,\n    address _from,\n    uint256[] calldata _ids,\n    uint256[] calldata _values,\n    bytes calldata _data\n  ) external returns (bytes4) {\n    return ERC1155_BATCH_ACCEPTED;\n  }\n\n  function onOwnerChanged(address newOwner) public _erc1155 {\n    owner = newOwner;\n    _addDelegate(newOwner);\n  }\n  \n  function onBurn() public _erc1155 {\n    owner = address(0);\n  }\n\n  function _sendTransaction(\n    bytes memory _data,\n    address to,\n    uint256 value\n  ) internal returns (bool success) {\n    bytes memory data = _data;\n    uint256 len = data.length;\n    // solium-disable-next-line security/no-inline-assembly\n    assembly {\n      success := call(gas, to, value, add(data, 0x20), len, 0, 0)\n    }\n    emit TransactionSent(_data, to, value);\n  }\n\n  function _addDelegate(address delegate) internal {\n    IERC1056(erc1056).addDelegate(\n      address(this),\n      \"sigAuth\",\n      delegate,\n      defaultValidity\n    );\n  }\n\n  /**\n   * INTERFACE_SIGNATURE_ERC165 = bytes4(keccak256(\"supportsInterface(bytes4)\"));\n   */\n  bytes4 private constant INTERFACE_SIGNATURE_ERC165 = 0x01ffc9a7;\n\n  /**\n   * bytes4(keccak256(\"onERC1155Received(address,address,uint256,uint256,bytes)\"))^bytes4(keccak256(\"onERC1155BatchReceived(address,address,uint256[],uint256[],bytes)\"))\n   */\n  bytes4 private constant INTERFACE_SIGNATURE_ERC1155TOKENRECEIVER = 0x4e2312e0;\n\n  /**\n   * @notice Query if a contract implements an interface\n   * @param _interfaceID  The interface identifier, as specified in ERC-165\n   * @return `true` if the contract implements `_interfaceID` and\n   */\n  function supportsInterface(bytes4 _interfaceID) external view returns (bool) {\n    if (\n      _interfaceID == INTERFACE_SIGNATURE_ERC165 ||\n      _interfaceID == INTERFACE_SIGNATURE_ERC1155TOKENRECEIVER\n    ) {\n      return true;\n    }\n    return false;\n  }\n\n  event CallbackOnTransfer(bytes data, bool success, address sender);\n\n  function tokenFallback(\n    address _sender,\n    address _origin,\n    uint256 _value,\n    bytes memory _data\n  ) public returns (bool) {\n    if (!supportsToken(msg.sender)) return false;\n    __isTokenFallback = true;\n    // solium-disable-next-line security/no-low-level-calls\n    (bool success, ) = address(this).delegatecall(_data);\n    __isTokenFallback = false;\n    emit CallbackOnTransfer(_data, success, msg.sender);\n    return success;\n  }\n\n  function getSig(bytes memory _data) private pure returns (bytes4 sig) {\n    uint256 l = _data.length < 4 ? _data.length : 4;\n    for (uint256 i = 0; i < l; i++) {\n      sig = bytes4(\n        uint32(uint32(sig) + uint8(_data[i]) * (2**(8 * (l - 1 - i))))\n      );\n    }\n  }\n\n  function supportsToken(address token) public pure returns (bool) {\n    return true;\n  }\n\n  function() external payable {}\n}\n",
  "sourcePath": "/home/dima/Development/ew-did-registry/packages/proxyIdentity/contracts/proxyIdentity.sol",
  "compiler": {
    "name": "solc",
    "version": "0.5.17+commit.d19bba13.Emscripten.clang"
  },
  "schemaVersion": "3.0.16",
  "updatedAt": "2020-10-05T08:11:26.150Z",
  "devdoc": {
    "methods": {
      "supportsInterface(bytes4)": {
        "params": {
          "_interfaceID": "The interface identifier, as specified in ERC-165"
        },
        "return": "`true` if the contract implements `_interfaceID` and"
      }
    }
  },
  "userdoc": {
    "methods": {
      "supportsInterface(bytes4)": {
        "notice": "Query if a contract implements an interface"
      }
    }
  }
}