{
  "contractName": "ProxyFactory",
  "abi": [
    {
      "inputs": [
        {
          "internalType": "address",
          "name": "_erc1056",
          "type": "address"
        },
        {
          "internalType": "address",
          "name": "_erc1155",
          "type": "address"
        }
      ],
      "payable": false,
      "stateMutability": "nonpayable",
      "type": "constructor"
    },
    {
      "anonymous": false,
      "inputs": [
        {
          "indexed": false,
          "internalType": "address[]",
          "name": "newProxies",
          "type": "address[]"
        }
      ],
      "name": "BatchProxyCreated",
      "type": "event"
    },
    {
      "anonymous": false,
      "inputs": [
        {
          "indexed": false,
          "internalType": "address",
          "name": "proxy",
          "type": "address"
        }
      ],
      "name": "ProxyCreated",
      "type": "event"
    },
    {
      "constant": false,
      "inputs": [
        {
          "internalType": "string",
          "name": "serial",
          "type": "string"
        }
      ],
      "name": "create",
      "outputs": [
        {
          "internalType": "address",
          "name": "",
          "type": "address"
        }
      ],
      "payable": false,
      "stateMutability": "nonpayable",
      "type": "function"
    },
    {
      "constant": false,
      "inputs": [
        {
          "internalType": "string[]",
          "name": "serials",
          "type": "string[]"
        }
      ],
      "name": "createBatch",
      "outputs": [
        {
          "internalType": "address[]",
          "name": "",
          "type": "address[]"
        }
      ],
      "payable": false,
      "stateMutability": "nonpayable",
      "type": "function"
    }
  ],
  "bytecode": "0x608060405234801561001057600080fd5b50604051613301380380613301833981810160405261003291908101906100cf565b816000806101000a81548173ffffffffffffffffffffffffffffffffffffffff021916908373ffffffffffffffffffffffffffffffffffffffff16021790555080600160006101000a81548173ffffffffffffffffffffffffffffffffffffffff021916908373ffffffffffffffffffffffffffffffffffffffff1602179055505050610154565b6000815190506100c98161013d565b92915050565b600080604083850312156100e257600080fd5b60006100f0858286016100ba565b9250506020610101858286016100ba565b9150509250929050565b60006101168261011d565b9050919050565b600073ffffffffffffffffffffffffffffffffffffffff82169050919050565b6101468161010b565b811461015157600080fd5b50565b61319e806101636000396000f3fe60806040523480156200001157600080fd5b50600436106200003a5760003560e01c80633b75a8b7146200003f578063b6a46b3b1462000075575b600080fd5b6200005d6004803603620000579190810190620004fd565b620000ab565b6040516200006c9190620007a2565b60405180910390f35b6200009360048036036200008d919081019062000542565b6200028c565b604051620000a29190620006c0565b60405180910390f35b6060808251604051908082528060200260200182016040528015620000df5781602001602082028038833980820191505090505b50905060008090505b8351811015620002495760008060009054906101000a900473ffffffffffffffffffffffffffffffffffffffff16600160009054906101000a900473ffffffffffffffffffffffffffffffffffffffff168684815181106200014657fe5b6020026020010151336040516200015d90620003ba565b6200016c94939291906200074e565b604051809103906000f08015801562000189573d6000803e3d6000fd5b50905060028190806001815401808255809150509060018203906000526020600020016000909192909190916101000a81548173ffffffffffffffffffffffffffffffffffffffff021916908373ffffffffffffffffffffffffffffffffffffffff16021790555050808383815181106200020057fe5b602002602001019073ffffffffffffffffffffffffffffffffffffffff16908173ffffffffffffffffffffffffffffffffffffffff1681525050508080600101915050620000e8565b507f9e57bd86fba2f0fb352492e1e64ce9fd28985df8e5764ca9533151946ae345a4816040516200027b9190620007a2565b60405180910390a180915050919050565b6000806000809054906101000a900473ffffffffffffffffffffffffffffffffffffffff16600160009054906101000a900473ffffffffffffffffffffffffffffffffffffffff168433604051620002e490620003ba565b620002f39493929190620006fa565b604051809103906000f08015801562000310573d6000803e3d6000fd5b50905060028190806001815401808255809150509060018203906000526020600020016000909192909190916101000a81548173ffffffffffffffffffffffffffffffffffffffff021916908373ffffffffffffffffffffffffffffffffffffffff160217905550507efffc2da0b561cae30d9826d37709e9421c4725faebc226cbbb7ef5fc5e734981604051620003a99190620006dd565b60405180910390a180915050919050565b6127be806200099e83390190565b600082601f830112620003da57600080fd5b8135620003f1620003eb82620007f4565b620007c6565b9150818183526020840193506020810190508360005b838110156200043b578135860162000420888262000445565b84526020840193506020830192505060018101905062000407565b5050505092915050565b600082601f8301126200045757600080fd5b81356200046e62000468826200081d565b620007c6565b915080825260208301602083018583830111156200048b57600080fd5b6200049883828462000947565b50505092915050565b600082601f830112620004b357600080fd5b8135620004ca620004c4826200084a565b620007c6565b91508082526020830160208301858383011115620004e757600080fd5b620004f483828462000947565b50505092915050565b6000602082840312156200051057600080fd5b600082013567ffffffffffffffff8111156200052b57600080fd5b6200053984828501620003c8565b91505092915050565b6000602082840312156200055557600080fd5b600082013567ffffffffffffffff8111156200057057600080fd5b6200057e84828501620004a1565b91505092915050565b6000620005958383620005b2565b60208301905092915050565b620005ac816200090b565b82525050565b620005bd81620008d7565b82525050565b620005ce81620008d7565b82525050565b6000620005e18262000887565b620005ed8185620008b5565b9350620005fa8362000877565b8060005b838110156200063157815162000615888262000587565b97506200062283620008a8565b925050600181019050620005fe565b5085935050505092915050565b60006200064b826200089d565b620006578185620008c6565b93506200066981856020860162000956565b62000674816200098c565b840191505092915050565b60006200068c8262000892565b620006988185620008c6565b9350620006aa81856020860162000956565b620006b5816200098c565b840191505092915050565b6000602082019050620006d76000830184620005c3565b92915050565b6000602082019050620006f46000830184620005a1565b92915050565b6000608082019050620007116000830187620005c3565b620007206020830186620005c3565b81810360408301526200073481856200063e565b9050620007456060830184620005a1565b95945050505050565b6000608082019050620007656000830187620005c3565b620007746020830186620005c3565b81810360408301526200078881856200067f565b9050620007996060830184620005a1565b95945050505050565b60006020820190508181036000830152620007be8184620005d4565b905092915050565b6000604051905081810181811067ffffffffffffffff82111715620007ea57600080fd5b8060405250919050565b600067ffffffffffffffff8211156200080c57600080fd5b602082029050602081019050919050565b600067ffffffffffffffff8211156200083557600080fd5b601f19601f8301169050602081019050919050565b600067ffffffffffffffff8211156200086257600080fd5b601f19601f8301169050602081019050919050565b6000819050602082019050919050565b600081519050919050565b600081519050919050565b600081519050919050565b6000602082019050919050565b600082825260208201905092915050565b600082825260208201905092915050565b6000620008e482620008eb565b9050919050565b600073ffffffffffffffffffffffffffffffffffffffff82169050919050565b600062000918826200091f565b9050919050565b60006200092c8262000933565b9050919050565b60006200094082620008eb565b9050919050565b82818337600083830152505050565b60005b838110156200097657808201518184015260208101905062000959565b8381111562000986576000848401525b50505050565b6000601f19601f830116905091905056fe60806040527fffffffffffffffffffffffffffffffffffffffffffffffffffffffffffffffff6005553480156200003557600080fd5b50604051620027be380380620027be833981810160405260808110156200005b57600080fd5b810190808051906020019092919080519060200190929190805160405193929190846401000000008211156200009057600080fd5b83820191506020820185811115620000a757600080fd5b8251866001820283011164010000000082111715620000c557600080fd5b8083526020830192505050908051906020019080838360005b83811015620000fb578082015181840152602081019050620000de565b50505050905090810190601f168015620001295780820380516001836020036101000a031916815260200191505b506040526020018051906020019092919050505083600360006101000a81548173ffffffffffffffffffffffffffffffffffffffff021916908373ffffffffffffffffffffffffffffffffffffffff16021790555082600460006101000a81548173ffffffffffffffffffffffffffffffffffffffff021916908373ffffffffffffffffffffffffffffffffffffffff16021790555081600e9080519060200190620001d792919062000491565b5033600260006101000a81548173ffffffffffffffffffffffffffffffffffffffff021916908373ffffffffffffffffffffffffffffffffffffffff160217905550806000806101000a81548173ffffffffffffffffffffffffffffffffffffffff021916908373ffffffffffffffffffffffffffffffffffffffff1602179055508273ffffffffffffffffffffffffffffffffffffffff16639f181b5e6040518163ffffffff1660e01b815260040160206040518083038186803b158015620002a057600080fd5b505afa158015620002b5573d6000803e3d6000fd5b505050506040513d6020811015620002cc57600080fd5b8101908080519060200190929190505050600f819055508273ffffffffffffffffffffffffffffffffffffffff1663a0712d68600f546040518263ffffffff1660e01b815260040180828152602001915050600060405180830381600087803b1580156200033957600080fd5b505af11580156200034e573d6000803e3d6000fd5b5050505062000363816200036d60201b60201c565b5050505062000540565b600360009054906101000a900473ffffffffffffffffffffffffffffffffffffffff1673ffffffffffffffffffffffffffffffffffffffff1663a7068d6630836005546040518463ffffffff1660e01b8152600401808473ffffffffffffffffffffffffffffffffffffffff1673ffffffffffffffffffffffffffffffffffffffff168152602001807f73696741757468000000000000000000000000000000000000000000000000008152506020018373ffffffffffffffffffffffffffffffffffffffff1673ffffffffffffffffffffffffffffffffffffffff1681526020018281526020019350505050600060405180830381600087803b1580156200047557600080fd5b505af11580156200048a573d6000803e3d6000fd5b5050505050565b828054600181600116156101000203166002900490600052602060002090601f016020900481019282601f10620004d457805160ff191683800117855562000505565b8280016001018555821562000505579182015b8281111562000504578251825591602001919060010190620004e7565b5b50905062000514919062000518565b5090565b6200053d91905b80821115620005395760008160009055506001016200051f565b5090565b90565b61226e80620005506000396000f3fe6080604052600436106101145760003560e01c80638da5cb5b116100a0578063d56022d711610064578063d56022d714610a0d578063e71bdf4114610a64578063eac989f814610ab5578063f23a6e6114610b45578063fa352c0014610c7157610114565b80638da5cb5b1461066d578063a6f9dae1146106c4578063ad9ec05d14610715578063bbc0185714610766578063bc197c811461084b57610114565b80632c39952a116100e75780632c39952a146102995780634c123019146103a9578063513856c8146104d3578063570b3c6a1461054e57806384eb68fb1461061657610114565b806301ffc9a71461011657806302d05d3f14610188578063061f7650146101df5780630eb930ab14610248575b005b34801561012257600080fd5b5061016e6004803603602081101561013957600080fd5b8101908080357bffffffffffffffffffffffffffffffffffffffffffffffffffffffff19169060200190929190505050610cc2565b604051808215151515815260200191505060405180910390f35b34801561019457600080fd5b5061019d610d73565b604051808273ffffffffffffffffffffffffffffffffffffffff1673ffffffffffffffffffffffffffffffffffffffff16815260200191505060405180910390f35b3480156101eb57600080fd5b5061022e6004803603602081101561020257600080fd5b81019080803573ffffffffffffffffffffffffffffffffffffffff169060200190929190505050610d99565b604051808215151515815260200191505060405180910390f35b34801561025457600080fd5b506102976004803603602081101561026b57600080fd5b81019080803573ffffffffffffffffffffffffffffffffffffffff169060200190929190505050610da4565b005b6103a7600480360360e08110156102af57600080fd5b81019080803590602001906401000000008111156102cc57600080fd5b8201836020820111156102de57600080fd5b8035906020019184600183028401116401000000008311171561030057600080fd5b91908080601f016020809104026020016040519081016040528093929190818152602001838380828437600081840152601f19601f820116905080830192505050505050509192919290803573ffffffffffffffffffffffffffffffffffffffff169060200190929190803560ff16906020019092919080359060200190929190803590602001909291908035906020019092919080359060200190929190505050610fbe565b005b3480156103b557600080fd5b506104b9600480360360808110156103cc57600080fd5b81019080803573ffffffffffffffffffffffffffffffffffffffff169060200190929190803573ffffffffffffffffffffffffffffffffffffffff169060200190929190803590602001909291908035906020019064010000000081111561043357600080fd5b82018360208201111561044557600080fd5b8035906020019184600183028401116401000000008311171561046757600080fd5b91908080601f016020809104026020016040519081016040528093929190818152602001838380828437600081840152601f19601f820116905080830192505050505050509192919290505050611344565b604051808215151515815260200191505060405180910390f35b3480156104df57600080fd5b5061050c600480360360208110156104f657600080fd5b8101908080359060200190929190505050611531565b604051808273ffffffffffffffffffffffffffffffffffffffff1673ffffffffffffffffffffffffffffffffffffffff16815260200191505060405180910390f35b34801561055a57600080fd5b506106146004803603602081101561057157600080fd5b810190808035906020019064010000000081111561058e57600080fd5b8201836020820111156105a057600080fd5b803590602001918460018302840111640100000000831117156105c257600080fd5b91908080601f016020809104026020016040519081016040528093929190818152602001838380828437600081840152601f19601f82011690508083019250505050505050919291929050505061156d565b005b34801561062257600080fd5b5061062b61166c565b604051808273ffffffffffffffffffffffffffffffffffffffff1673ffffffffffffffffffffffffffffffffffffffff16815260200191505060405180910390f35b34801561067957600080fd5b50610682611692565b604051808273ffffffffffffffffffffffffffffffffffffffff1673ffffffffffffffffffffffffffffffffffffffff16815260200191505060405180910390f35b3480156106d057600080fd5b50610713600480360360208110156106e757600080fd5b81019080803573ffffffffffffffffffffffffffffffffffffffff1690602001909291905050506116b7565b005b34801561072157600080fd5b506107646004803603602081101561073857600080fd5b81019080803573ffffffffffffffffffffffffffffffffffffffff1690602001909291905050506117f3565b005b6108496004803603606081101561077c57600080fd5b810190808035906020019064010000000081111561079957600080fd5b8201836020820111156107ab57600080fd5b803590602001918460018302840111640100000000831117156107cd57600080fd5b91908080601f016020809104026020016040519081016040528093929190818152602001838380828437600081840152601f19601f820116905080830192505050505050509192919290803573ffffffffffffffffffffffffffffffffffffffff16906020019092919080359060200190929190505050611a0d565b005b34801561085757600080fd5b506109b9600480360360a081101561086e57600080fd5b81019080803573ffffffffffffffffffffffffffffffffffffffff169060200190929190803573ffffffffffffffffffffffffffffffffffffffff169060200190929190803590602001906401000000008111156108cb57600080fd5b8201836020820111156108dd57600080fd5b803590602001918460208302840111640100000000831117156108ff57600080fd5b90919293919293908035906020019064010000000081111561092057600080fd5b82018360208201111561093257600080fd5b8035906020019184602083028401116401000000008311171561095457600080fd5b90919293919293908035906020019064010000000081111561097557600080fd5b82018360208201111561098757600080fd5b803590602001918460018302840111640100000000831117156109a957600080fd5b9091929391929390505050611b51565b60405180827bffffffffffffffffffffffffffffffffffffffffffffffffffffffff19167bffffffffffffffffffffffffffffffffffffffffffffffffffffffff1916815260200191505060405180910390f35b348015610a1957600080fd5b50610a22611b69565b604051808273ffffffffffffffffffffffffffffffffffffffff1673ffffffffffffffffffffffffffffffffffffffff16815260200191505060405180910390f35b348015610a7057600080fd5b50610ab360048036036020811015610a8757600080fd5b81019080803573ffffffffffffffffffffffffffffffffffffffff169060200190929190505050611b8f565b005b348015610ac157600080fd5b50610aca611c5d565b6040518080602001828103825283818151815260200191508051906020019080838360005b83811015610b0a578082015181840152602081019050610aef565b50505050905090810190601f168015610b375780820380516001836020036101000a031916815260200191505b509250505060405180910390f35b348015610b5157600080fd5b50610c1d600480360360a0811015610b6857600080fd5b81019080803573ffffffffffffffffffffffffffffffffffffffff169060200190929190803573ffffffffffffffffffffffffffffffffffffffff169060200190929190803590602001909291908035906020019092919080359060200190640100000000811115610bd957600080fd5b820183602082011115610beb57600080fd5b80359060200191846001830284011164010000000083111715610c0d57600080fd5b9091929391929390505050611dd2565b60405180827bffffffffffffffffffffffffffffffffffffffffffffffffffffffff19167bffffffffffffffffffffffffffffffffffffffffffffffffffffffff1916815260200191505060405180910390f35b348015610c7d57600080fd5b50610cc060048036036020811015610c9457600080fd5b81019080803573ffffffffffffffffffffffffffffffffffffffff169060200190929190505050611de8565b005b60006301ffc9a760e01b7bffffffffffffffffffffffffffffffffffffffffffffffffffffffff1916827bffffffffffffffffffffffffffffffffffffffffffffffffffffffff19161480610d5b5750634e2312e060e01b7bffffffffffffffffffffffffffffffffffffffffffffffffffffffff1916827bffffffffffffffffffffffffffffffffffffffffffffffffffffffff1916145b15610d695760019050610d6e565b600090505b919050565b600260009054906101000a900473ffffffffffffffffffffffffffffffffffffffff1681565b600060019050919050565b6000809054906101000a900473ffffffffffffffffffffffffffffffffffffffff1673ffffffffffffffffffffffffffffffffffffffff163373ffffffffffffffffffffffffffffffffffffffff161480610e485750601060003373ffffffffffffffffffffffffffffffffffffffff1673ffffffffffffffffffffffffffffffffffffffff16815260200190815260200160002060009054906101000a900460ff165b610e9d576040517f08c379a00000000000000000000000000000000000000000000000000000000081526004018080602001828103825260338152602001806122076033913960400191505060405180910390fd5b6001601060008373ffffffffffffffffffffffffffffffffffffffff1673ffffffffffffffffffffffffffffffffffffffff16815260200190815260200160002060006101000a81548160ff021916908315150217905550600460009054906101000a900473ffffffffffffffffffffffffffffffffffffffff1673ffffffffffffffffffffffffffffffffffffffff1663a22cb4658260016040518363ffffffff1660e01b8152600401808373ffffffffffffffffffffffffffffffffffffffff1673ffffffffffffffffffffffffffffffffffffffff1681526020018215151515815260200192505050600060405180830381600087803b158015610fa357600080fd5b505af1158015610fb7573d6000803e3d6000fd5b5050505050565b60008787848460405160200180806020018573ffffffffffffffffffffffffffffffffffffffff1673ffffffffffffffffffffffffffffffffffffffff168152602001848152602001838152602001828103825286818151815260200191508051906020019080838360005b8381101561104557808201518184015260208101905061102a565b50505050905090810190601f1680156110725780820380516001836020036101000a031916815260200191505b5095505050505050604051602081830303815290604052805190602001209050600015156006600083815260200190815260200160002060009054906101000a900460ff1615151461110f576040517f08c379a00000000000000000000000000000000000000000000000000000000081526004018080602001828103825260268152602001806121e16026913960400191505060405180910390fd5b60016006600083815260200190815260200160002060006101000a81548160ff02191690831515021790555060008160405160200180807f19457468657265756d205369676e6564204d6573736167653a0a333200000000815250601c01828152602001915050604051602081830303815290604052805190602001209050600060018289898960405160008152602001604052604051808581526020018460ff1660ff1681526020018381526020018281526020019450505050506020604051602081039080840390855afa1580156111ed573d6000803e3d6000fd5b5050506020604051035190506000809054906101000a900473ffffffffffffffffffffffffffffffffffffffff1673ffffffffffffffffffffffffffffffffffffffff168173ffffffffffffffffffffffffffffffffffffffff16146112bb576040517f08c379a00000000000000000000000000000000000000000000000000000000081526004018080602001828103825260168152602001807f5369676e6174757265206973206e6f742076616c69640000000000000000000081525060200191505060405180910390fd5b6112c68a8a87611fc2565b611338576040517f08c379a00000000000000000000000000000000000000000000000000000000081526004018080602001828103825260168152602001807f43616e27742073656e64207472616e73616374696f6e0000000000000000000081525060200191505060405180910390fd5b50505050505050505050565b600061134f33610d99565b61135c5760009050611529565b6001600d60006101000a81548160ff02191690831515021790555060003073ffffffffffffffffffffffffffffffffffffffff16836040518082805190602001908083835b602083106113c457805182526020820191506020810190506020830392506113a1565b6001836020036101000a038019825116818451168082178552505050505050905001915050600060405180830381855af49150503d8060008114611424576040519150601f19603f3d011682016040523d82523d6000602084013e611429565b606091505b505090506000600d60006101000a81548160ff0219169083151502179055507feab9f6c333c4c219217a67230a9af8a2e860061556fa026945860d2c885d60fe8382336040518080602001841515151581526020018373ffffffffffffffffffffffffffffffffffffffff1673ffffffffffffffffffffffffffffffffffffffff168152602001828103825285818151815260200191508051906020019080838360005b838110156114e85780820151818401526020810190506114cd565b50505050905090810190601f1680156115155780820380516001836020036101000a031916815260200191505b5094505050505060405180910390a1809150505b949350505050565b6001818154811061153e57fe5b906000526020600020016000915054906101000a900473ffffffffffffffffffffffffffffffffffffffff1681565b600460009054906101000a900473ffffffffffffffffffffffffffffffffffffffff1673ffffffffffffffffffffffffffffffffffffffff166305751204600f54836040518363ffffffff1660e01b81526004018083815260200180602001828103825283818151815260200191508051906020019080838360005b838110156116045780820151818401526020810190506115e9565b50505050905090810190601f1680156116315780820380516001836020036101000a031916815260200191505b509350505050600060405180830381600087803b15801561165157600080fd5b505af1158015611665573d6000803e3d6000fd5b5050505050565b600360009054906101000a900473ffffffffffffffffffffffffffffffffffffffff1681565b6000809054906101000a900473ffffffffffffffffffffffffffffffffffffffff1681565b6000809054906101000a900473ffffffffffffffffffffffffffffffffffffffff1673ffffffffffffffffffffffffffffffffffffffff163373ffffffffffffffffffffffffffffffffffffffff16148061175b5750601060003373ffffffffffffffffffffffffffffffffffffffff1673ffffffffffffffffffffffffffffffffffffffff16815260200190815260200160002060009054906101000a900460ff165b6117b0576040517f08c379a00000000000000000000000000000000000000000000000000000000081526004018080602001828103825260338152602001806122076033913960400191505060405180910390fd5b806000806101000a81548173ffffffffffffffffffffffffffffffffffffffff021916908373ffffffffffffffffffffffffffffffffffffffff16021790555050565b6000809054906101000a900473ffffffffffffffffffffffffffffffffffffffff1673ffffffffffffffffffffffffffffffffffffffff163373ffffffffffffffffffffffffffffffffffffffff1614806118975750601060003373ffffffffffffffffffffffffffffffffffffffff1673ffffffffffffffffffffffffffffffffffffffff16815260200190815260200160002060009054906101000a900460ff165b6118ec576040517f08c379a00000000000000000000000000000000000000000000000000000000081526004018080602001828103825260338152602001806122076033913960400191505060405180910390fd5b6000601060008373ffffffffffffffffffffffffffffffffffffffff1673ffffffffffffffffffffffffffffffffffffffff16815260200190815260200160002060006101000a81548160ff021916908315150217905550600460009054906101000a900473ffffffffffffffffffffffffffffffffffffffff1673ffffffffffffffffffffffffffffffffffffffff1663a22cb4658260006040518363ffffffff1660e01b8152600401808373ffffffffffffffffffffffffffffffffffffffff1673ffffffffffffffffffffffffffffffffffffffff1681526020018215151515815260200192505050600060405180830381600087803b1580156119f257600080fd5b505af1158015611a06573d6000803e3d6000fd5b5050505050565b6000809054906101000a900473ffffffffffffffffffffffffffffffffffffffff1673ffffffffffffffffffffffffffffffffffffffff163373ffffffffffffffffffffffffffffffffffffffff1614611acf576040517f08c379a00000000000000000000000000000000000000000000000000000000081526004018080602001828103825260128152602001807f4f6e6c79206f776e657220616c6c6f776564000000000000000000000000000081525060200191505060405180910390fd5b611ada838383611fc2565b611b4c576040517f08c379a00000000000000000000000000000000000000000000000000000000081526004018080602001828103825260168152602001807f43616e27742073656e64207472616e73616374696f6e0000000000000000000081525060200191505060405180910390fd5b505050565b600063bc197c8160e01b905098975050505050505050565b600460009054906101000a900473ffffffffffffffffffffffffffffffffffffffff1681565b6000809054906101000a900473ffffffffffffffffffffffffffffffffffffffff1673ffffffffffffffffffffffffffffffffffffffff163373ffffffffffffffffffffffffffffffffffffffff1614611c51576040517f08c379a00000000000000000000000000000000000000000000000000000000081526004018080602001828103825260128152602001807f4f6e6c79206f776e657220616c6c6f776564000000000000000000000000000081525060200191505060405180910390fd5b611c5a816120be565b50565b6060600460009054906101000a900473ffffffffffffffffffffffffffffffffffffffff1673ffffffffffffffffffffffffffffffffffffffff16630e89341c600f546040518263ffffffff1660e01b81526004018082815260200191505060006040518083038186803b158015611cd457600080fd5b505afa158015611ce8573d6000803e3d6000fd5b505050506040513d6000823e3d601f19601f820116820180604052506020811015611d1257600080fd5b8101908080516040519392919084640100000000821115611d3257600080fd5b83820191506020820185811115611d4857600080fd5b8251866001820283011164010000000082111715611d6557600080fd5b8083526020830192505050908051906020019080838360005b83811015611d99578082015181840152602081019050611d7e565b50505050905090810190601f168015611dc65780820380516001836020036101000a031916815260200191505b50604052505050905090565b600063f23a6e6160e01b90509695505050505050565b6000809054906101000a900473ffffffffffffffffffffffffffffffffffffffff1673ffffffffffffffffffffffffffffffffffffffff163373ffffffffffffffffffffffffffffffffffffffff1614611eaa576040517f08c379a00000000000000000000000000000000000000000000000000000000081526004018080602001828103825260128152602001807f4f6e6c79206f776e657220616c6c6f776564000000000000000000000000000081525060200191505060405180910390fd5b600360009054906101000a900473ffffffffffffffffffffffffffffffffffffffff1673ffffffffffffffffffffffffffffffffffffffff166380b29f7c30836040518363ffffffff1660e01b8152600401808373ffffffffffffffffffffffffffffffffffffffff1673ffffffffffffffffffffffffffffffffffffffff168152602001807f73696741757468000000000000000000000000000000000000000000000000008152506020018273ffffffffffffffffffffffffffffffffffffffff1673ffffffffffffffffffffffffffffffffffffffff16815260200192505050600060405180830381600087803b158015611fa757600080fd5b505af1158015611fbb573d6000803e3d6000fd5b5050505050565b60006060849050600081519050600080826020850187895af192507f7e4155ee9daec547578a255f7495bc08f38796f4d4a3be4ed7189f4fc55cb18586868660405180806020018473ffffffffffffffffffffffffffffffffffffffff1673ffffffffffffffffffffffffffffffffffffffff168152602001838152602001828103825285818151815260200191508051906020019080838360005b8381101561207957808201518184015260208101905061205e565b50505050905090810190601f1680156120a65780820380516001836020036101000a031916815260200191505b5094505050505060405180910390a150509392505050565b600360009054906101000a900473ffffffffffffffffffffffffffffffffffffffff1673ffffffffffffffffffffffffffffffffffffffff1663a7068d6630836005546040518463ffffffff1660e01b8152600401808473ffffffffffffffffffffffffffffffffffffffff1673ffffffffffffffffffffffffffffffffffffffff168152602001807f73696741757468000000000000000000000000000000000000000000000000008152506020018373ffffffffffffffffffffffffffffffffffffffff1673ffffffffffffffffffffffffffffffffffffffff1681526020018281526020019350505050600060405180830381600087803b1580156121c557600080fd5b505af11580156121d9573d6000803e3d6000fd5b505050505056fe54686973207472616e73616374696f6e2068617320616c7265616479206265656e2073656e7450726f78794964656e746974793a204f6e6c79206f776e6572206f7220617070726f766564206167656e7420616c6c6f776564a265627a7a7231582043b36acaa3b36adac49fae04df31ce6c2a9541589fdbd852a19dc66c3e1de8ae64736f6c63430005110032a365627a7a7231582024fdc86a667f443f1dc529b1285ed6ed6e84adbb7bf72cc11fd48c442a0e563c6c6578706572696d656e74616cf564736f6c63430005110040",
  "source": "pragma solidity ^0.5.0;\npragma experimental ABIEncoderV2;\n\nimport {ProxyIdentity} from \"./proxyIdentity.sol\";\n\ncontract ProxyFactory {\n    address erc1056;\n    address erc1155;\n    ProxyIdentity[] proxies;\n    mapping(address => bool) identities;\n    event ProxyCreated(address proxy);\n    event BatchProxyCreated(address[] newProxies);\n\n    constructor(address _erc1056, address _erc1155) public {\n        erc1056 = _erc1056;\n        erc1155 = _erc1155;\n    }\n\n    function create(string memory serial) public returns (address) {\n        ProxyIdentity proxy = new ProxyIdentity(erc1056, erc1155, serial, msg.sender);\n        proxies.push(proxy);\n        emit ProxyCreated(address(proxy));\n        return address(proxy);\n    }\n    \n    function createBatch(string[] memory serials) public returns (address[] memory) {\n      address[] memory newProxies = new address[](serials.length);\n      for (uint256 i = 0; i < serials.length; i++) {\n        ProxyIdentity proxy = new ProxyIdentity(erc1056, erc1155, serials[i], msg.sender);\n        proxies.push(proxy);\n        newProxies[i] = address(proxy);\n      }\n        emit BatchProxyCreated(newProxies);\n        return newProxies;\n    }\n}\n",
  "sourcePath": "/home/dima/Development/ew-did-registry/packages/proxyIdentity/contracts/proxyFactory.sol",
  "compiler": {
    "name": "solc",
    "version": "0.5.17+commit.d19bba13.Emscripten.clang"
  },
  "schemaVersion": "3.0.16",
  "updatedAt": "2020-10-24T15:36:42.579Z",
  "devdoc": {
    "methods": {}
  },
  "userdoc": {
    "methods": {}
  }
}