{
  "contractName": "ProxyIdentity",
  "abi": [
    {
      "inputs": [
        {
          "internalType": "address",
          "name": "_erc1056",
          "type": "address"
        }
      ],
      "payable": false,
      "stateMutability": "nonpayable",
      "type": "constructor"
    },
    {
      "anonymous": false,
      "inputs": [
        {
          "indexed": false,
          "internalType": "address",
          "name": "identity",
          "type": "address"
        },
        {
          "indexed": false,
          "internalType": "address",
          "name": "prev",
          "type": "address"
        },
        {
          "indexed": false,
          "internalType": "address",
          "name": "next",
          "type": "address"
        }
      ],
      "name": "OwnerChanged",
      "type": "event"
    },
    {
      "anonymous": false,
      "inputs": [
        {
          "indexed": false,
          "internalType": "address",
          "name": "agent",
          "type": "address"
        }
      ],
      "name": "RecoveryAgentAdded",
      "type": "event"
    },
    {
      "anonymous": false,
      "inputs": [
        {
          "indexed": false,
          "internalType": "address",
          "name": "agent",
          "type": "address"
        }
      ],
      "name": "RecoveryAgentRemoved",
      "type": "event"
    },
    {
      "anonymous": false,
      "inputs": [
        {
          "indexed": false,
          "internalType": "bytes",
          "name": "data",
          "type": "bytes"
        },
        {
          "indexed": false,
          "internalType": "address",
          "name": "to",
          "type": "address"
        },
        {
          "indexed": false,
          "internalType": "uint256",
          "name": "value",
          "type": "uint256"
        }
      ],
      "name": "TransactionSent",
      "type": "event"
    },
    {
      "payable": true,
      "stateMutability": "payable",
      "type": "fallback"
    },
    {
      "constant": true,
      "inputs": [],
      "name": "creator",
      "outputs": [
        {
          "internalType": "address",
          "name": "",
          "type": "address"
        }
      ],
      "payable": false,
      "stateMutability": "view",
      "type": "function"
    },
    {
      "constant": true,
      "inputs": [],
      "name": "erc1056",
      "outputs": [
        {
          "internalType": "address",
          "name": "",
          "type": "address"
        }
      ],
      "payable": false,
      "stateMutability": "view",
      "type": "function"
    },
    {
      "constant": true,
      "inputs": [],
      "name": "owner",
      "outputs": [
        {
          "internalType": "address",
          "name": "",
          "type": "address"
        }
      ],
      "payable": false,
      "stateMutability": "view",
      "type": "function"
    },
    {
      "constant": false,
      "inputs": [
        {
          "internalType": "bytes",
          "name": "_data",
          "type": "bytes"
        },
        {
          "internalType": "address",
          "name": "to",
          "type": "address"
        },
        {
          "internalType": "uint256",
          "name": "value",
          "type": "uint256"
        }
      ],
      "name": "sendTransaction",
      "outputs": [],
      "payable": true,
      "stateMutability": "payable",
      "type": "function"
    },
    {
      "constant": false,
      "inputs": [
        {
          "internalType": "bytes",
          "name": "data",
          "type": "bytes"
        },
        {
          "internalType": "address",
          "name": "to",
          "type": "address"
        },
        {
          "internalType": "uint8",
          "name": "v",
          "type": "uint8"
        },
        {
          "internalType": "bytes32",
          "name": "r",
          "type": "bytes32"
        },
        {
          "internalType": "bytes32",
          "name": "s",
          "type": "bytes32"
        },
        {
          "internalType": "uint256",
          "name": "value",
          "type": "uint256"
        },
        {
          "internalType": "uint256",
          "name": "nonce",
          "type": "uint256"
        }
      ],
      "name": "sendSignedTransaction",
      "outputs": [],
      "payable": true,
      "stateMutability": "payable",
      "type": "function"
    },
    {
      "constant": false,
      "inputs": [
        {
          "internalType": "address",
          "name": "agent",
          "type": "address"
        }
      ],
      "name": "addRecoveryAgent",
      "outputs": [],
      "payable": false,
      "stateMutability": "nonpayable",
      "type": "function"
    },
    {
      "constant": false,
      "inputs": [
        {
          "internalType": "address",
          "name": "agent",
          "type": "address"
        }
      ],
      "name": "removeRecoveryAgent",
      "outputs": [],
      "payable": false,
      "stateMutability": "nonpayable",
      "type": "function"
    },
    {
      "constant": false,
      "inputs": [
        {
          "internalType": "address",
          "name": "newOwner",
          "type": "address"
        }
      ],
      "name": "changeOwner",
      "outputs": [],
      "payable": false,
      "stateMutability": "nonpayable",
      "type": "function"
    },
    {
      "constant": false,
      "inputs": [
        {
          "internalType": "address",
          "name": "_operator",
          "type": "address"
        },
        {
          "internalType": "address",
          "name": "_from",
          "type": "address"
        },
        {
          "internalType": "uint256",
          "name": "_id",
          "type": "uint256"
        },
        {
          "internalType": "uint256",
          "name": "_value",
          "type": "uint256"
        },
        {
          "internalType": "bytes",
          "name": "_data",
          "type": "bytes"
        }
      ],
      "name": "onERC1155Received",
      "outputs": [
        {
          "internalType": "bytes4",
          "name": "",
          "type": "bytes4"
        }
      ],
      "payable": false,
      "stateMutability": "nonpayable",
      "type": "function"
    },
    {
      "constant": false,
      "inputs": [
        {
          "internalType": "address",
          "name": "_operator",
          "type": "address"
        },
        {
          "internalType": "address",
          "name": "_from",
          "type": "address"
        },
        {
          "internalType": "uint256[]",
          "name": "_ids",
          "type": "uint256[]"
        },
        {
          "internalType": "uint256[]",
          "name": "_values",
          "type": "uint256[]"
        },
        {
          "internalType": "bytes",
          "name": "_data",
          "type": "bytes"
        }
      ],
      "name": "onERC1155BatchReceived",
      "outputs": [
        {
          "internalType": "bytes4",
          "name": "",
          "type": "bytes4"
        }
      ],
      "payable": false,
      "stateMutability": "nonpayable",
      "type": "function"
    },
    {
      "constant": true,
      "inputs": [
        {
          "internalType": "bytes4",
          "name": "_interfaceID",
          "type": "bytes4"
        }
      ],
      "name": "supportsInterface",
      "outputs": [
        {
          "internalType": "bool",
          "name": "",
          "type": "bool"
        }
      ],
      "payable": false,
      "stateMutability": "view",
      "type": "function"
    }
  ],
  "bytecode": "0x60806040527fffffffffffffffffffffffffffffffffffffffffffffffffffffffffffffffff6004553480156200003557600080fd5b50604051620021c3380380620021c3833981810160405260208110156200005b57600080fd5b810190808051906020019092919050505080600260006101000a81548173ffffffffffffffffffffffffffffffffffffffff021916908373ffffffffffffffffffffffffffffffffffffffff160217905550336000806101000a81548173ffffffffffffffffffffffffffffffffffffffff021916908373ffffffffffffffffffffffffffffffffffffffff160217905550620000fe336200010560201b60201c565b506200077a565b6000600160009054906101000a900473ffffffffffffffffffffffffffffffffffffffff169050600073ffffffffffffffffffffffffffffffffffffffff16600160009054906101000a900473ffffffffffffffffffffffffffffffffffffffff1673ffffffffffffffffffffffffffffffffffffffff1614620001ea57620001b6600160009054906101000a900473ffffffffffffffffffffffffffffffffffffffff166200031c60201b60201c565b620001e9600160009054906101000a900473ffffffffffffffffffffffffffffffffffffffff166200047e60201b60201c565b5b81600160006101000a81548173ffffffffffffffffffffffffffffffffffffffff021916908373ffffffffffffffffffffffffffffffffffffffff1602179055506200023c826200059860201b60201c565b6200024d826200065660201b60201c565b7f381c0d11398486654573703c51ee8210ce9461764d133f9f0e53b6a539705331308284604051808473ffffffffffffffffffffffffffffffffffffffff1673ffffffffffffffffffffffffffffffffffffffff1681526020018373ffffffffffffffffffffffffffffffffffffffff1673ffffffffffffffffffffffffffffffffffffffff1681526020018273ffffffffffffffffffffffffffffffffffffffff1673ffffffffffffffffffffffffffffffffffffffff168152602001935050505060405180910390a15050565b600360003373ffffffffffffffffffffffffffffffffffffffff1673ffffffffffffffffffffffffffffffffffffffff16815260200190815260200160002060009054906101000a900460ff16620003c0576040517f08c379a00000000000000000000000000000000000000000000000000000000081526004018080602001828103825260288152602001806200219b6028913960400191505060405180910390fd5b6000600360008373ffffffffffffffffffffffffffffffffffffffff1673ffffffffffffffffffffffffffffffffffffffff16815260200190815260200160002060006101000a81548160ff0219169083151502179055507f093e9dd739d1f91d7e97be3e57001ee88d407f8e8870d3a7762c9be45a8f332b81604051808273ffffffffffffffffffffffffffffffffffffffff1673ffffffffffffffffffffffffffffffffffffffff16815260200191505060405180910390a150565b600260009054906101000a900473ffffffffffffffffffffffffffffffffffffffff1673ffffffffffffffffffffffffffffffffffffffff166380b29f7c30836040518363ffffffff1660e01b8152600401808373ffffffffffffffffffffffffffffffffffffffff1673ffffffffffffffffffffffffffffffffffffffff168152602001807f73696741757468000000000000000000000000000000000000000000000000008152506020018273ffffffffffffffffffffffffffffffffffffffff1673ffffffffffffffffffffffffffffffffffffffff16815260200192505050600060405180830381600087803b1580156200057c57600080fd5b505af115801562000591573d6000803e3d6000fd5b5050505050565b6001600360008373ffffffffffffffffffffffffffffffffffffffff1673ffffffffffffffffffffffffffffffffffffffff16815260200190815260200160002060006101000a81548160ff0219169083151502179055507f1f7c2db6dd3d6d717291d1194e259472b27b4107ed6368b58b18bb9c2f2d954581604051808273ffffffffffffffffffffffffffffffffffffffff1673ffffffffffffffffffffffffffffffffffffffff16815260200191505060405180910390a150565b600260009054906101000a900473ffffffffffffffffffffffffffffffffffffffff1673ffffffffffffffffffffffffffffffffffffffff1663a7068d6630836004546040518463ffffffff1660e01b8152600401808473ffffffffffffffffffffffffffffffffffffffff1673ffffffffffffffffffffffffffffffffffffffff168152602001807f73696741757468000000000000000000000000000000000000000000000000008152506020018373ffffffffffffffffffffffffffffffffffffffff1673ffffffffffffffffffffffffffffffffffffffff1681526020018281526020019350505050600060405180830381600087803b1580156200075e57600080fd5b505af115801562000773573d6000803e3d6000fd5b5050505050565b611a11806200078a6000396000f3fe60806040526004361061009c5760003560e01c80638da5cb5b116100645780638da5cb5b1461031f578063a6f9dae114610376578063bbc01857146103c7578063bc197c81146104ac578063c8777b501461066e578063f23a6e61146106bf5761009c565b806301ffc9a71461009e57806302d05d3f146101105780632c39952a146101675780637489453d1461027757806384eb68fb146102c8575b005b3480156100aa57600080fd5b506100f6600480360360208110156100c157600080fd5b8101908080357bffffffffffffffffffffffffffffffffffffffffffffffffffffffff191690602001909291905050506107eb565b604051808215151515815260200191505060405180910390f35b34801561011c57600080fd5b5061012561089c565b604051808273ffffffffffffffffffffffffffffffffffffffff1673ffffffffffffffffffffffffffffffffffffffff16815260200191505060405180910390f35b610275600480360360e081101561017d57600080fd5b810190808035906020019064010000000081111561019a57600080fd5b8201836020820111156101ac57600080fd5b803590602001918460018302840111640100000000831117156101ce57600080fd5b91908080601f016020809104026020016040519081016040528093929190818152602001838380828437600081840152601f19601f820116905080830192505050505050509192919290803573ffffffffffffffffffffffffffffffffffffffff169060200190929190803560ff169060200190929190803590602001909291908035906020019092919080359060200190929190803590602001909291905050506108c1565b005b34801561028357600080fd5b506102c66004803603602081101561029a57600080fd5b81019080803573ffffffffffffffffffffffffffffffffffffffff169060200190929190505050610c48565b005b3480156102d457600080fd5b506102dd610d17565b604051808273ffffffffffffffffffffffffffffffffffffffff1673ffffffffffffffffffffffffffffffffffffffff16815260200191505060405180910390f35b34801561032b57600080fd5b50610334610d3d565b604051808273ffffffffffffffffffffffffffffffffffffffff1673ffffffffffffffffffffffffffffffffffffffff16815260200191505060405180910390f35b34801561038257600080fd5b506103c56004803603602081101561039957600080fd5b81019080803573ffffffffffffffffffffffffffffffffffffffff169060200190929190505050610d63565b005b6104aa600480360360608110156103dd57600080fd5b81019080803590602001906401000000008111156103fa57600080fd5b82018360208201111561040c57600080fd5b8035906020019184600183028401116401000000008311171561042e57600080fd5b91908080601f016020809104026020016040519081016040528093929190818152602001838380828437600081840152601f19601f820116905080830192505050505050509192919290803573ffffffffffffffffffffffffffffffffffffffff16906020019092919080359060200190929190505050610e11565b005b3480156104b857600080fd5b5061061a600480360360a08110156104cf57600080fd5b81019080803573ffffffffffffffffffffffffffffffffffffffff169060200190929190803573ffffffffffffffffffffffffffffffffffffffff1690602001909291908035906020019064010000000081111561052c57600080fd5b82018360208201111561053e57600080fd5b8035906020019184602083028401116401000000008311171561056057600080fd5b90919293919293908035906020019064010000000081111561058157600080fd5b82018360208201111561059357600080fd5b803590602001918460208302840111640100000000831117156105b557600080fd5b9091929391929390803590602001906401000000008111156105d657600080fd5b8201836020820111156105e857600080fd5b8035906020019184600183028401116401000000008311171561060a57600080fd5b9091929391929390505050610f56565b60405180827bffffffffffffffffffffffffffffffffffffffffffffffffffffffff19167bffffffffffffffffffffffffffffffffffffffffffffffffffffffff1916815260200191505060405180910390f35b34801561067a57600080fd5b506106bd6004803603602081101561069157600080fd5b81019080803573ffffffffffffffffffffffffffffffffffffffff1690602001909291905050506110fd565b005b3480156106cb57600080fd5b50610797600480360360a08110156106e257600080fd5b81019080803573ffffffffffffffffffffffffffffffffffffffff169060200190929190803573ffffffffffffffffffffffffffffffffffffffff16906020019092919080359060200190929190803590602001909291908035906020019064010000000081111561075357600080fd5b82018360208201111561076557600080fd5b8035906020019184600183028401116401000000008311171561078757600080fd5b909192939192939050505061125d565b60405180827bffffffffffffffffffffffffffffffffffffffffffffffffffffffff19167bffffffffffffffffffffffffffffffffffffffffffffffffffffffff1916815260200191505060405180910390f35b60006301ffc9a760e01b7bffffffffffffffffffffffffffffffffffffffffffffffffffffffff1916827bffffffffffffffffffffffffffffffffffffffffffffffffffffffff191614806108845750634e2312e060e01b7bffffffffffffffffffffffffffffffffffffffffffffffffffffffff1916827bffffffffffffffffffffffffffffffffffffffffffffffffffffffff1916145b156108925760019050610897565b600090505b919050565b6000809054906101000a900473ffffffffffffffffffffffffffffffffffffffff1681565b60008787848460405160200180806020018573ffffffffffffffffffffffffffffffffffffffff1673ffffffffffffffffffffffffffffffffffffffff168152602001848152602001838152602001828103825286818151815260200191508051906020019080838360005b8381101561094857808201518184015260208101905061092d565b50505050905090810190601f1680156109755780820380516001836020036101000a031916815260200191505b5095505050505050604051602081830303815290604052805190602001209050600015156005600083815260200190815260200160002060009054906101000a900460ff16151514610a12576040517f08c379a000000000000000000000000000000000000000000000000000000000815260040180806020018281038252602681526020018061198f6026913960400191505060405180910390fd5b60016005600083815260200190815260200160002060006101000a81548160ff02191690831515021790555060008160405160200180807f19457468657265756d205369676e6564204d6573736167653a0a333200000000815250601c01828152602001915050604051602081830303815290604052805190602001209050600060018289898960405160008152602001604052604051808581526020018460ff1660ff1681526020018381526020018281526020019450505050506020604051602081039080840390855afa158015610af0573d6000803e3d6000fd5b5050506020604051035190508073ffffffffffffffffffffffffffffffffffffffff16600160009054906101000a900473ffffffffffffffffffffffffffffffffffffffff1673ffffffffffffffffffffffffffffffffffffffff1614610bbf576040517f08c379a00000000000000000000000000000000000000000000000000000000081526004018080602001828103825260168152602001807f5369676e6174757265206973206e6f742076616c69640000000000000000000081525060200191505060405180910390fd5b610bca8a8a876113a4565b610c3c576040517f08c379a00000000000000000000000000000000000000000000000000000000081526004018080602001828103825260168152602001807f43616e27742073656e64207472616e73616374696f6e0000000000000000000081525060200191505060405180910390fd5b50505050505050505050565b600160009054906101000a900473ffffffffffffffffffffffffffffffffffffffff1673ffffffffffffffffffffffffffffffffffffffff163373ffffffffffffffffffffffffffffffffffffffff1614610d0b576040517f08c379a00000000000000000000000000000000000000000000000000000000081526004018080602001828103825260128152602001807f4f6e6c79206f776e657220616c6c6f776564000000000000000000000000000081525060200191505060405180910390fd5b610d14816114a0565b50565b600260009054906101000a900473ffffffffffffffffffffffffffffffffffffffff1681565b600160009054906101000a900473ffffffffffffffffffffffffffffffffffffffff1681565b600360003373ffffffffffffffffffffffffffffffffffffffff1673ffffffffffffffffffffffffffffffffffffffff16815260200190815260200160002060009054906101000a900460ff16610e05576040517f08c379a00000000000000000000000000000000000000000000000000000000081526004018080602001828103825260288152602001806119b56028913960400191505060405180910390fd5b610e0e8161155e565b50565b600160009054906101000a900473ffffffffffffffffffffffffffffffffffffffff1673ffffffffffffffffffffffffffffffffffffffff163373ffffffffffffffffffffffffffffffffffffffff1614610ed4576040517f08c379a00000000000000000000000000000000000000000000000000000000081526004018080602001828103825260128152602001807f4f6e6c79206f776e657220616c6c6f776564000000000000000000000000000081525060200191505060405180910390fd5b610edf8383836113a4565b610f51576040517f08c379a00000000000000000000000000000000000000000000000000000000081526004018080602001828103825260168152602001807f43616e27742073656e64207472616e73616374696f6e0000000000000000000081525060200191505060405180910390fd5b505050565b60003373ffffffffffffffffffffffffffffffffffffffff16632eb2c2d630600160009054906101000a900473ffffffffffffffffffffffffffffffffffffffff168a8a8a8a8a8a6040518963ffffffff1660e01b8152600401808973ffffffffffffffffffffffffffffffffffffffff1673ffffffffffffffffffffffffffffffffffffffff1681526020018873ffffffffffffffffffffffffffffffffffffffff1673ffffffffffffffffffffffffffffffffffffffff16815260200180602001806020018060200184810384528a8a82818152602001925060200280828437600081840152601f19601f8201169050808301925050508481038352888882818152602001925060200280828437600081840152601f19601f8201169050808301925050508481038252868682818152602001925080828437600081840152601f19601f8201169050808301925050509b505050505050505050505050600060405180830381600087803b1580156110cf57600080fd5b505af11580156110e3573d6000803e3d6000fd5b5050505063bc197c8160e01b905098975050505050505050565b600360003373ffffffffffffffffffffffffffffffffffffffff1673ffffffffffffffffffffffffffffffffffffffff16815260200190815260200160002060009054906101000a900460ff1661119f576040517f08c379a00000000000000000000000000000000000000000000000000000000081526004018080602001828103825260288152602001806119b56028913960400191505060405180910390fd5b6000600360008373ffffffffffffffffffffffffffffffffffffffff1673ffffffffffffffffffffffffffffffffffffffff16815260200190815260200160002060006101000a81548160ff0219169083151502179055507f093e9dd739d1f91d7e97be3e57001ee88d407f8e8870d3a7762c9be45a8f332b81604051808273ffffffffffffffffffffffffffffffffffffffff1673ffffffffffffffffffffffffffffffffffffffff16815260200191505060405180910390a150565b60003373ffffffffffffffffffffffffffffffffffffffff1663f242432a30600160009054906101000a900473ffffffffffffffffffffffffffffffffffffffff16888888886040518763ffffffff1660e01b8152600401808773ffffffffffffffffffffffffffffffffffffffff1673ffffffffffffffffffffffffffffffffffffffff1681526020018673ffffffffffffffffffffffffffffffffffffffff1673ffffffffffffffffffffffffffffffffffffffff168152602001858152602001848152602001806020018281038252848482818152602001925080828437600081840152601f19601f820116905080830192505050975050505050505050600060405180830381600087803b15801561137857600080fd5b505af115801561138c573d6000803e3d6000fd5b5050505063f23a6e6160e01b90509695505050505050565b60006060849050600081519050600080826020850187895af192507f7e4155ee9daec547578a255f7495bc08f38796f4d4a3be4ed7189f4fc55cb18586868660405180806020018473ffffffffffffffffffffffffffffffffffffffff1673ffffffffffffffffffffffffffffffffffffffff168152602001838152602001828103825285818151815260200191508051906020019080838360005b8381101561145b578082015181840152602081019050611440565b50505050905090810190601f1680156114885780820380516001836020036101000a031916815260200191505b5094505050505060405180910390a150509392505050565b6001600360008373ffffffffffffffffffffffffffffffffffffffff1673ffffffffffffffffffffffffffffffffffffffff16815260200190815260200160002060006101000a81548160ff0219169083151502179055507f1f7c2db6dd3d6d717291d1194e259472b27b4107ed6368b58b18bb9c2f2d954581604051808273ffffffffffffffffffffffffffffffffffffffff1673ffffffffffffffffffffffffffffffffffffffff16815260200191505060405180910390a150565b6000600160009054906101000a900473ffffffffffffffffffffffffffffffffffffffff169050600073ffffffffffffffffffffffffffffffffffffffff16600160009054906101000a900473ffffffffffffffffffffffffffffffffffffffff1673ffffffffffffffffffffffffffffffffffffffff161461163257611606600160009054906101000a900473ffffffffffffffffffffffffffffffffffffffff166110fd565b611631600160009054906101000a900473ffffffffffffffffffffffffffffffffffffffff16611754565b5b81600160006101000a81548173ffffffffffffffffffffffffffffffffffffffff021916908373ffffffffffffffffffffffffffffffffffffffff16021790555061167c826114a0565b6116858261186c565b7f381c0d11398486654573703c51ee8210ce9461764d133f9f0e53b6a539705331308284604051808473ffffffffffffffffffffffffffffffffffffffff1673ffffffffffffffffffffffffffffffffffffffff1681526020018373ffffffffffffffffffffffffffffffffffffffff1673ffffffffffffffffffffffffffffffffffffffff1681526020018273ffffffffffffffffffffffffffffffffffffffff1673ffffffffffffffffffffffffffffffffffffffff168152602001935050505060405180910390a15050565b600260009054906101000a900473ffffffffffffffffffffffffffffffffffffffff1673ffffffffffffffffffffffffffffffffffffffff166380b29f7c30836040518363ffffffff1660e01b8152600401808373ffffffffffffffffffffffffffffffffffffffff1673ffffffffffffffffffffffffffffffffffffffff168152602001807f73696741757468000000000000000000000000000000000000000000000000008152506020018273ffffffffffffffffffffffffffffffffffffffff1673ffffffffffffffffffffffffffffffffffffffff16815260200192505050600060405180830381600087803b15801561185157600080fd5b505af1158015611865573d6000803e3d6000fd5b5050505050565b600260009054906101000a900473ffffffffffffffffffffffffffffffffffffffff1673ffffffffffffffffffffffffffffffffffffffff1663a7068d6630836004546040518463ffffffff1660e01b8152600401808473ffffffffffffffffffffffffffffffffffffffff1673ffffffffffffffffffffffffffffffffffffffff168152602001807f73696741757468000000000000000000000000000000000000000000000000008152506020018373ffffffffffffffffffffffffffffffffffffffff1673ffffffffffffffffffffffffffffffffffffffff1681526020018281526020019350505050600060405180830381600087803b15801561197357600080fd5b505af1158015611987573d6000803e3d6000fd5b505050505056fe54686973207472616e73616374696f6e2068617320616c7265616479206265656e2073656e744f6e6c79207265636f76657279206167656e742063616e206368616e676520746865206f776e6572a265627a7a723158202138fedb7d29982f8dad0bf7b42aa1fc5e89370f0c0ea4b0d5f6c8fce563b99464736f6c634300051100324f6e6c79207265636f76657279206167656e742063616e206368616e676520746865206f776e6572",
  "source": "pragma solidity ^0.5.0;\n\nimport './IERC165.sol';\nimport './IERC1155.sol';\nimport './IERC1155TokenReceiver.sol';\n\ninterface IERC1056 {\n    function addDelegate(\n        address identity,\n        bytes32 delegateType,\n        address delegate,\n        uint256 validity\n    ) external;\n\n    function revokeDelegate(\n        address identity,\n        bytes32 delegateType,\n        address delegate\n    ) external;\n}\n\ncontract ProxyIdentity is IERC1155TokenReceiver, IERC165{\n    address public creator;\n    address public owner;\n    address public erc1056;\n    mapping(address => bool) recoveryAgents;\n    uint256 defaultValidity = 2**256 - 1;\n    mapping(bytes32 => bool) digests;\n    bytes4 constant internal ERC1155_ACCEPTED = 0xf23a6e61;\n    bytes4 constant internal ERC1155_BATCH_ACCEPTED = 0xbc197c81;\n\n    event TransactionSent(bytes data, address to, uint256 value);\n    event OwnerChanged(address identity, address prev, address next);\n    event RecoveryAgentAdded(address agent);\n    event RecoveryAgentRemoved(address agent);\n\n    constructor(address _erc1056) public {\n        erc1056 = _erc1056;\n        creator = msg.sender;\n        _changeOwner(msg.sender);\n    }\n\n    modifier _owner() {\n        require(msg.sender == owner, \"Only owner allowed\");\n        _;\n    }\n\n    modifier _recoveryAgent() {\n        require(\n            recoveryAgents[msg.sender],\n            \"Only recovery agent can change the owner\"\n        );\n        _;\n    }\n\n    function sendTransaction(bytes memory _data, address to, uint256 value)\n        public\n        payable\n        _owner\n    {\n        require(_sendTransaction(_data, to, value), \"Can't send transaction\");\n    }\n\n    function _sendTransaction(bytes memory _data, address to, uint256 value)\n        internal\n        returns (bool success)\n    {\n        bytes memory data = _data;\n        uint256 len = data.length;\n        // solium-disable-next-line security/no-inline-assembly\n        assembly {\n            success := call(gas, to, value, add(data, 0x20), len, 0, 0)\n        }\n        emit TransactionSent(_data, to, value);\n    }\n\n    function sendSignedTransaction(\n        bytes memory data,\n        address to,\n        uint8 v,\n        bytes32 r,\n        bytes32 s,\n        uint256 value,\n        uint256 nonce\n    ) public payable {\n        bytes32 digest = keccak256(abi.encode(data, to, value, nonce));\n        require(\n            digests[digest] == false,\n            \"This transaction has already been sent\"\n        );\n        digests[digest] = true;\n        bytes32 hash = keccak256(\n            abi.encodePacked(\"\\x19Ethereum Signed Message:\\n32\", digest)\n        );\n        address signer = ecrecover(hash, v, r, s);\n        require(owner == signer, \"Signature is not valid\");\n        require(_sendTransaction(data, to, value), \"Can't send transaction\");\n    }\n\n    function addRecoveryAgent(address agent) public _owner {\n        _addRecoveryAgent(agent);\n    }\n\n    function _addRecoveryAgent(address agent) internal {\n        recoveryAgents[agent] = true;\n        emit RecoveryAgentAdded(agent);\n    }\n\n    function removeRecoveryAgent(address agent) public _recoveryAgent {\n        recoveryAgents[agent] = false;\n        emit RecoveryAgentRemoved(agent);\n    }\n\n    /**\n    * Used by the proxy factory to make sender the owner\n     */\n    function changeOwner(address newOwner) public _recoveryAgent {\n        _changeOwner(newOwner);\n    }\n\n    function _changeOwner(address newOwner) internal {\n        address oldOwner = owner;\n        if (owner != address(0x0)) {\n            removeRecoveryAgent(owner);\n            _revokeDelegate(owner);\n        }\n        owner = newOwner;\n        _addRecoveryAgent(newOwner);\n        _addDelegate(newOwner);\n        emit OwnerChanged(address(this), oldOwner, newOwner);\n    }\n\n    function _addDelegate(address delegate) internal {\n        IERC1056(erc1056).addDelegate(\n            address(this),\n            \"sigAuth\",\n            delegate,\n            defaultValidity\n        );\n    }\n\n    function _revokeDelegate(address delegate) internal {\n        IERC1056(erc1056).revokeDelegate(address(this), \"sigAuth\", delegate);\n    }\n\n    function onERC1155Received(\n        address _operator,\n        address _from,\n        uint256 _id,\n        uint256 _value,\n        bytes calldata _data\n    ) external returns (bytes4) {\n        IERC1155(msg.sender).safeTransferFrom(address(this), owner, _id, _value, _data);\n        return ERC1155_ACCEPTED;\n    }\n\n    function onERC1155BatchReceived(\n        address _operator,\n        address _from,\n        uint256[] calldata _ids,\n        uint256[] calldata _values,\n        bytes calldata _data\n    ) external returns (bytes4) {\n        IERC1155(msg.sender).safeBatchTransferFrom(address(this), owner, _ids, _values, _data);\n        return ERC1155_BATCH_ACCEPTED;\n    }\n\n    /**\n    * INTERFACE_SIGNATURE_ERC165 = bytes4(keccak256(\"supportsInterface(bytes4)\"));\n    */\n    bytes4 constant private INTERFACE_SIGNATURE_ERC165 = 0x01ffc9a7;\n\n    /**\n    * bytes4(keccak256(\"onERC1155Received(address,address,uint256,uint256,bytes)\"))^bytes4(keccak256(\"onERC1155BatchReceived(address,address,uint256[],uint256[],bytes)\"))\n    */\n    bytes4 constant private INTERFACE_SIGNATURE_ERC1155TOKENRECEIVER = 0x4e2312e0;\n\n    /**\n    * @notice Query if a contract implements an interface\n    * @param _interfaceID  The interface identifier, as specified in ERC-165\n    * @return `true` if the contract implements `_interfaceID` and\n    */\n    function supportsInterface(bytes4 _interfaceID) external view returns (bool) {\n      if (_interfaceID == INTERFACE_SIGNATURE_ERC165 ||\n          _interfaceID == INTERFACE_SIGNATURE_ERC1155TOKENRECEIVER) {\n        return true;\n      }\n      return false;\n    }\n\n    function() external payable {}\n}\n",
  "sourcePath": "/home/dima/Development/ew-did-registry/packages/proxyIdentity/contracts/proxyIdentity.sol",
  "compiler": {
    "name": "solc",
    "version": "0.5.17+commit.d19bba13.Emscripten.clang"
  },
  "schemaVersion": "3.0.16",
  "updatedAt": "2020-04-21T14:49:54.052Z",
  "devdoc": {
    "methods": {
      "supportsInterface(bytes4)": {
        "params": {
          "_interfaceID": "The interface identifier, as specified in ERC-165"
        },
        "return": "`true` if the contract implements `_interfaceID` and"
      }
    }
  },
  "userdoc": {
    "methods": {
      "changeOwner(address)": {
        "notice": "Used by the proxy factory to make sender the owner"
      },
      "supportsInterface(bytes4)": {
        "notice": "Query if a contract implements an interface"
      }
    }
  }
}