{
  "contractName": "ProxyIdentity",
  "abi": [
    {
      "constant": true,
      "inputs": [],
      "name": "owner",
      "outputs": [
        {
          "name": "",
          "type": "address"
        }
      ],
      "payable": false,
      "stateMutability": "view",
      "type": "function"
    },
    {
      "inputs": [],
      "payable": false,
      "stateMutability": "nonpayable",
      "type": "constructor"
    },
    {
      "anonymous": false,
      "inputs": [
        {
          "indexed": false,
          "name": "data",
          "type": "bytes"
        },
        {
          "indexed": false,
          "name": "to",
          "type": "address"
        },
        {
          "indexed": false,
          "name": "success",
          "type": "bool"
        }
      ],
      "name": "TransactionSend",
      "type": "event"
    },
    {
      "anonymous": false,
      "inputs": [
        {
          "indexed": false,
          "name": "identity",
          "type": "address"
        },
        {
          "indexed": false,
          "name": "success",
          "type": "bool"
        }
      ],
      "name": "IdentityOwner",
      "type": "event"
    },
    {
      "constant": false,
      "inputs": [
        {
          "name": "identity",
          "type": "address"
        },
        {
          "name": "to",
          "type": "address"
        }
      ],
      "name": "identityOwner",
      "outputs": [
        {
          "name": "result",
          "type": "address"
        }
      ],
      "payable": false,
      "stateMutability": "nonpayable",
      "type": "function"
    },
    {
      "constant": false,
      "inputs": [
        {
          "name": "_data",
          "type": "bytes"
        },
        {
          "name": "to",
          "type": "address"
        },
        {
          "name": "first",
          "type": "address"
        },
        {
          "name": "second",
          "type": "address"
        }
      ],
      "name": "execute",
      "outputs": [],
      "payable": false,
      "stateMutability": "nonpayable",
      "type": "function"
    }
  ],
  "bytecode": "0x608060405234801561001057600080fd5b5033600160006101000a81548173ffffffffffffffffffffffffffffffffffffffff021916908373ffffffffffffffffffffffffffffffffffffffff160217905550610528806100616000396000f3fe608060405234801561001057600080fd5b50600436106100415760003560e01c806325394a1d146100465780636277956e1461011f5780638da5cb5b146101c3575b600080fd5b61011d6004803603608081101561005c57600080fd5b810190808035906020019064010000000081111561007957600080fd5b82018360208201111561008b57600080fd5b803590602001918460018302840111640100000000831117156100ad57600080fd5b9091929391929390803573ffffffffffffffffffffffffffffffffffffffff169060200190929190803573ffffffffffffffffffffffffffffffffffffffff169060200190929190803573ffffffffffffffffffffffffffffffffffffffff16906020019092919050505061020d565b005b6101816004803603604081101561013557600080fd5b81019080803573ffffffffffffffffffffffffffffffffffffffff169060200190929190803573ffffffffffffffffffffffffffffffffffffffff1690602001909291905050506103ee565b604051808273ffffffffffffffffffffffffffffffffffffffff1673ffffffffffffffffffffffffffffffffffffffff16815260200191505060405180910390f35b6101cb6104d6565b604051808273ffffffffffffffffffffffffffffffffffffffff1673ffffffffffffffffffffffffffffffffffffffff16815260200191505060405180910390f35b600160009054906101000a900473ffffffffffffffffffffffffffffffffffffffff1673ffffffffffffffffffffffffffffffffffffffff163373ffffffffffffffffffffffffffffffffffffffff16146102d0576040517f08c379a00000000000000000000000000000000000000000000000000000000081526004018080602001828103825260128152602001807f4f6e6c79206f776e657220616c6c6f776564000000000000000000000000000081525060200191505060405180910390fd5b60008060405180807f6368616e67654f776e657228616464726573732c616464726573732900000000815250601c0190506040518091039020905060405181815284600482015283602482015260008060448360008a611388f19250600083141561033a57600080fd5b60648101604052507ffefa6acb046b0187a6de4d0d92187a794331ec748fc0607a58b09d4dd72622928787878560405180806020018473ffffffffffffffffffffffffffffffffffffffff1673ffffffffffffffffffffffffffffffffffffffff168152602001831515151581526020018281038252868682818152602001925080828437600081840152601f19601f8201169050808301925050509550505050505060405180910390a150505050505050565b600080600060405180807f6964656e746974794f776e657228616464726573732900000000000000000000815250601601905060405180910390209050604051818152856004820152602081602483600089611388f19250600083141561045457600080fd5b8051935060448101604052507e032bac5390169b163f73f4125901b43f013d275bac5841c484bb1433aa04268583604051808373ffffffffffffffffffffffffffffffffffffffff1673ffffffffffffffffffffffffffffffffffffffff168152602001821515151581526020019250505060405180910390a1505092915050565b600160009054906101000a900473ffffffffffffffffffffffffffffffffffffffff168156fea165627a7a72305820264969e472ca394c01698a3f047619231ceef9d841d99b26ff55aaf956499dbd0029",
  "source": "pragma solidity 0.5.8;\n\ncontract ProxyIdentity {\n    address[] recoveryAgents;\n\n    address public owner;\n\n    event TransactionSend(bytes data, address to, bool success);\n    event IdentityOwner(address identity, bool success);\n\n    constructor() public {\n        owner = msg.sender;\n        // @TODO: set sender as proxy owner\n    }\n\n    modifier _owner() {\n        require(msg.sender == owner, \"Only owner allowed\");\n        _;\n    }\n\n    modifier _recoveryAgent() {\n        bool found = false;\n        for (uint256 i = 0; i < recoveryAgents.length; i++) {\n            if (recoveryAgents[i] == msg.sender) {\n                found = true;\n                break;\n            }\n        }\n        require(found, \"Only recovery agent can change the owner\");\n        _;\n    }\n\n    function identityOwner(address identity, address to)\n        public\n        returns (address result)\n    {\n        bool success;\n        bytes4 sig = bytes4(keccak256(\"identityOwner(address)\"));\n        // solium-disable-next-line security/no-inline-assembly\n        assembly {\n            let x := mload(0x40)\n            mstore(x, sig)\n            mstore(add(x, 0x04), identity)\n            success := call(5000, to, 0, x, 0x24, x, 0x20)\n            if eq(success, 0) {\n                revert(0, 0)\n            }\n            result := mload(x)\n            mstore(0x40, add(x, 0x44))\n        }\n        emit IdentityOwner(identity, success);\n    }\n\n    function execute(\n        bytes calldata _data,\n        address to,\n        address first,\n        address second\n    ) external _owner {\n        bool success;\n        bytes4 sig = bytes4(keccak256(\"changeOwner(address,address)\"));\n        // string memory first = \"0x8CdaF0CD259887258Bc13a92C0a6dA92698644C0\";\n        // string memory second = \"0xB8427ADa6e4F5eCF98d6981Ae0A5B9CA3BB7B4c6\";\n        // address _owner = owner;\n        // bytes memory data = _data;\n        // address _identityOwner; //call to identityOwner()\n        // uint256 len = data.length;\n        // solium-disable-next-line security/no-inline-assembly\n        assembly {\n            let x := mload(0x40) // Find empty storage location using \"free memory pointer\"\n            mstore(x, sig)\n            mstore(add(x, 0x04), first)\n            mstore(add(x, 0x24), second)\n            success := call(5000, to, 0, x, 0x44, 0, 0)\n            if eq(success, 0) {\n                revert(0, 0)\n            }\n            mstore(0x40, add(x, 0x64)) // Set storage pointer to new space\n        }\n        emit TransactionSend(_data, to, success);\n    }\n\n    // copied from GnosisSafe\n    // https://github.com/gnosis/safe-contracts/blob/v0.0.2-alpha/contracts/base/Executor.sol\n    function _sendTransaction(bytes memory data, address to)\n        internal\n        returns (bool success)\n    {\n        // solium-disable-next-line security/no-inline-assembly\n        assembly {\n            success := call(gas, to, 0, add(data, 0x20), mload(data), 0, 0)\n        }\n    }\n\n}\n",
  "sourcePath": "/home/dima/Development/ew-did-registry/packages/proxyIdentity/contracts/proxyIdentity.sol",
  "compiler": {
    "name": "solc",
    "version": "0.5.8+commit.23d335f2.Emscripten.clang"
  },
  "schemaVersion": "3.0.16",
  "updatedAt": "2020-03-09T07:54:04.878Z",
  "devdoc": {
    "methods": {}
  },
  "userdoc": {
    "methods": {}
  }
}